{
  "_format": "hh-sol-artifact-1",
  "contractName": "RevshareVault",
  "sourceName": "contracts/revshare/RevshareVault.sol",
  "abi": [
    {
      "anonymous": false,
      "inputs": [
        {
          "indexed": false,
          "internalType": "uint256",
          "name": "newVolume",
          "type": "uint256"
        }
      ],
      "name": "AppliedVolumeGoal",
      "type": "event"
    },
    {
      "anonymous": false,
      "inputs": [
        {
          "indexed": false,
          "internalType": "uint32",
          "name": "stdRate",
          "type": "uint32"
        },
        {
          "indexed": false,
          "internalType": "uint32",
          "name": "minRate",
          "type": "uint32"
        }
      ],
      "name": "BpsChanged",
      "type": "event"
    },
    {
      "anonymous": false,
      "inputs": [
        {
          "indexed": true,
          "internalType": "address",
          "name": "approver",
          "type": "address"
        },
        {
          "indexed": false,
          "internalType": "bytes4",
          "name": "selector",
          "type": "bytes4"
        },
        {
          "indexed": false,
          "internalType": "bytes32",
          "name": "sigHash",
          "type": "bytes32"
        },
        {
          "indexed": false,
          "internalType": "uint256",
          "name": "nonce",
          "type": "uint256"
        },
        {
          "indexed": false,
          "internalType": "uint256",
          "name": "timelockExpiration",
          "type": "uint256"
        }
      ],
      "name": "ChangeRequested",
      "type": "event"
    },
    {
      "anonymous": false,
      "inputs": [
        {
          "indexed": false,
          "internalType": "address",
          "name": "holder",
          "type": "address"
        },
        {
          "indexed": false,
          "internalType": "uint256",
          "name": "dxblAmount",
          "type": "uint256"
        },
        {
          "indexed": false,
          "internalType": "address",
          "name": "rewardToken",
          "type": "address"
        },
        {
          "indexed": false,
          "internalType": "uint256",
          "name": "rewardAmount",
          "type": "uint256"
        }
      ],
      "name": "DXBLRedeemed",
      "type": "event"
    },
    {
      "anonymous": false,
      "inputs": [
        {
          "indexed": false,
          "internalType": "uint32",
          "name": "newRate",
          "type": "uint32"
        }
      ],
      "name": "DiscountChanged",
      "type": "event"
    },
    {
      "anonymous": false,
      "inputs": [
        {
          "indexed": true,
          "internalType": "address",
          "name": "token",
          "type": "address"
        },
        {
          "indexed": true,
          "internalType": "address",
          "name": "priceFeed",
          "type": "address"
        }
      ],
      "name": "FeeTokenAdded",
      "type": "event"
    },
    {
      "anonymous": false,
      "inputs": [
        {
          "indexed": true,
          "internalType": "address",
          "name": "token",
          "type": "address"
        }
      ],
      "name": "FeeTokenRemoved",
      "type": "event"
    },
    {
      "anonymous": false,
      "inputs": [
        {
          "indexed": true,
          "internalType": "address",
          "name": "newLogic",
          "type": "address"
        }
      ],
      "name": "LogicUpgraded",
      "type": "event"
    },
    {
      "anonymous": false,
      "inputs": [
        {
          "indexed": false,
          "internalType": "uint16",
          "name": "minThreshold",
          "type": "uint16"
        },
        {
          "indexed": false,
          "internalType": "uint16",
          "name": "maxThreshold",
          "type": "uint16"
        },
        {
          "indexed": false,
          "internalType": "uint256",
          "name": "percentage",
          "type": "uint256"
        }
      ],
      "name": "MintRateChange",
      "type": "event"
    },
    {
      "anonymous": false,
      "inputs": [
        {
          "indexed": true,
          "internalType": "address",
          "name": "caller",
          "type": "address"
        }
      ],
      "name": "Paused",
      "type": "event"
    },
    {
      "anonymous": false,
      "inputs": [
        {
          "indexed": false,
          "internalType": "uint32",
          "name": "oldStdRate",
          "type": "uint32"
        },
        {
          "indexed": false,
          "internalType": "uint32",
          "name": "newStdRate",
          "type": "uint32"
        },
        {
          "indexed": false,
          "internalType": "uint32",
          "name": "oldMinRate",
          "type": "uint32"
        },
        {
          "indexed": false,
          "internalType": "uint32",
          "name": "newMinRate",
          "type": "uint32"
        },
        {
          "indexed": false,
          "internalType": "uint256",
          "name": "allowedAfterTime",
          "type": "uint256"
        }
      ],
      "name": "ProposedBpsChange",
      "type": "event"
    },
    {
      "anonymous": false,
      "inputs": [
        {
          "indexed": false,
          "internalType": "uint32",
          "name": "oldRate",
          "type": "uint32"
        },
        {
          "indexed": false,
          "internalType": "uint32",
          "name": "newRate",
          "type": "uint32"
        },
        {
          "indexed": false,
          "internalType": "uint256",
          "name": "allowedAfterTime",
          "type": "uint256"
        }
      ],
      "name": "ProposedDiscountChange",
      "type": "event"
    },
    {
      "anonymous": false,
      "inputs": [
        {
          "indexed": true,
          "internalType": "address",
          "name": "token",
          "type": "address"
        },
        {
          "indexed": true,
          "internalType": "address",
          "name": "priceFeed",
          "type": "address"
        },
        {
          "indexed": false,
          "internalType": "bool",
          "name": "removal",
          "type": "bool"
        },
        {
          "indexed": false,
          "internalType": "uint256",
          "name": "allowedAfterTime",
          "type": "uint256"
        }
      ],
      "name": "ProposedFeeToken",
      "type": "event"
    },
    {
      "anonymous": false,
      "inputs": [
        {
          "indexed": false,
          "internalType": "uint16",
          "name": "minThreshold",
          "type": "uint16"
        },
        {
          "indexed": false,
          "internalType": "uint16",
          "name": "maxThreshold",
          "type": "uint16"
        },
        {
          "indexed": false,
          "internalType": "uint256",
          "name": "percentage",
          "type": "uint256"
        },
        {
          "indexed": false,
          "internalType": "uint256",
          "name": "allowedAfterTime",
          "type": "uint256"
        }
      ],
      "name": "ProposedMintRateChange",
      "type": "event"
    },
    {
      "anonymous": false,
      "inputs": [
        {
          "indexed": false,
          "internalType": "uint256",
          "name": "oldVolume",
          "type": "uint256"
        },
        {
          "indexed": false,
          "internalType": "uint256",
          "name": "newVolume",
          "type": "uint256"
        },
        {
          "indexed": false,
          "internalType": "uint256",
          "name": "allowedAfterTime",
          "type": "uint256"
        }
      ],
      "name": "ProposedVolumeGoal",
      "type": "event"
    },
    {
      "anonymous": false,
      "inputs": [
        {
          "indexed": false,
          "internalType": "uint256",
          "name": "newReq",
          "type": "uint256"
        }
      ],
      "name": "RequiredSigChanged",
      "type": "event"
    },
    {
      "anonymous": false,
      "inputs": [
        {
          "indexed": true,
          "internalType": "address",
          "name": "approvder",
          "type": "address"
        },
        {
          "indexed": false,
          "internalType": "bytes32",
          "name": "sigHash",
          "type": "bytes32"
        }
      ],
      "name": "ResumeRequested",
      "type": "event"
    },
    {
      "anonymous": false,
      "inputs": [],
      "name": "ResumedOperations",
      "type": "event"
    },
    {
      "anonymous": false,
      "inputs": [
        {
          "indexed": true,
          "internalType": "address",
          "name": "signer",
          "type": "address"
        }
      ],
      "name": "SignerAdded",
      "type": "event"
    },
    {
      "anonymous": false,
      "inputs": [
        {
          "indexed": true,
          "internalType": "address",
          "name": "signer",
          "type": "address"
        }
      ],
      "name": "SignerRemoved",
      "type": "event"
    },
    {
      "anonymous": false,
      "inputs": [
        {
          "indexed": true,
          "internalType": "address",
          "name": "approver",
          "type": "address"
        },
        {
          "indexed": false,
          "internalType": "address",
          "name": "logic",
          "type": "address"
        },
        {
          "indexed": false,
          "internalType": "bytes32",
          "name": "sigHash",
          "type": "bytes32"
        },
        {
          "indexed": false,
          "internalType": "uint256",
          "name": "timelockExpiration",
          "type": "uint256"
        }
      ],
      "name": "UpgradeRequested",
      "type": "event"
    },
    {
      "inputs": [
        {
          "internalType": "address",
          "name": "signer",
          "type": "address"
        }
      ],
      "name": "addSigner",
      "outputs": [],
      "stateMutability": "nonpayable",
      "type": "function"
    },
    {
      "inputs": [
        {
          "internalType": "uint256",
          "name": "nonce",
          "type": "uint256"
        }
      ],
      "name": "approveChange",
      "outputs": [],
      "stateMutability": "nonpayable",
      "type": "function"
    },
    {
      "inputs": [],
      "name": "approveResume",
      "outputs": [],
      "stateMutability": "nonpayable",
      "type": "function"
    },
    {
      "inputs": [],
      "name": "approveUpgrade",
      "outputs": [],
      "stateMutability": "nonpayable",
      "type": "function"
    },
    {
      "inputs": [],
      "name": "assets",
      "outputs": [
        {
          "components": [
            {
              "internalType": "address",
              "name": "token",
              "type": "address"
            },
            {
              "internalType": "uint256",
              "name": "balance",
              "type": "uint256"
            },
            {
              "internalType": "uint256",
              "name": "usdValue",
              "type": "uint256"
            },
            {
              "internalType": "uint256",
              "name": "usdPrice",
              "type": "uint256"
            }
          ],
          "internalType": "struct IRevshareVault.AssetInfo[]",
          "name": "",
          "type": "tuple[]"
        }
      ],
      "stateMutability": "view",
      "type": "function"
    },
    {
      "inputs": [],
      "name": "aumUSD",
      "outputs": [
        {
          "internalType": "uint256",
          "name": "",
          "type": "uint256"
        }
      ],
      "stateMutability": "view",
      "type": "function"
    },
    {
      "inputs": [
        {
          "internalType": "uint256",
          "name": "nonce",
          "type": "uint256"
        }
      ],
      "name": "canApplyChange",
      "outputs": [],
      "stateMutability": "view",
      "type": "function"
    },
    {
      "inputs": [],
      "name": "canUpgrade",
      "outputs": [
        {
          "internalType": "bool",
          "name": "",
          "type": "bool"
        }
      ],
      "stateMutability": "view",
      "type": "function"
    },
    {
      "inputs": [
        {
          "internalType": "uint256",
          "name": "nonce",
          "type": "uint256"
        }
      ],
      "name": "cancelChange",
      "outputs": [],
      "stateMutability": "nonpayable",
      "type": "function"
    },
    {
      "inputs": [],
      "name": "cancelResume",
      "outputs": [],
      "stateMutability": "nonpayable",
      "type": "function"
    },
    {
      "inputs": [
        {
          "internalType": "uint256",
          "name": "nonce",
          "type": "uint256"
        }
      ],
      "name": "changeSigsNeeded",
      "outputs": [
        {
          "internalType": "uint256",
          "name": "",
          "type": "uint256"
        }
      ],
      "stateMutability": "view",
      "type": "function"
    },
    {
      "inputs": [
        {
          "internalType": "address",
          "name": "feeToken",
          "type": "address"
        },
        {
          "internalType": "uint256",
          "name": "gasCost",
          "type": "uint256"
        }
      ],
      "name": "convertGasToFeeToken",
      "outputs": [
        {
          "internalType": "uint256",
          "name": "",
          "type": "uint256"
        }
      ],
      "stateMutability": "view",
      "type": "function"
    },
    {
      "inputs": [],
      "name": "currentMintRateUSD",
      "outputs": [
        {
          "internalType": "uint256",
          "name": "rate",
          "type": "uint256"
        }
      ],
      "stateMutability": "view",
      "type": "function"
    },
    {
      "inputs": [],
      "name": "currentNavUSD",
      "outputs": [
        {
          "internalType": "uint256",
          "name": "",
          "type": "uint256"
        }
      ],
      "stateMutability": "view",
      "type": "function"
    },
    {
      "inputs": [],
      "name": "dailyVolumeUSD",
      "outputs": [
        {
          "internalType": "uint256",
          "name": "",
          "type": "uint256"
        }
      ],
      "stateMutability": "view",
      "type": "function"
    },
    {
      "inputs": [
        {
          "internalType": "uint256",
          "name": "nonce",
          "type": "uint256"
        },
        {
          "internalType": "address",
          "name": "signer",
          "type": "address"
        },
        {
          "internalType": "bytes",
          "name": "sig",
          "type": "bytes"
        }
      ],
      "name": "delegatedApproveChange",
      "outputs": [],
      "stateMutability": "nonpayable",
      "type": "function"
    },
    {
      "inputs": [
        {
          "internalType": "address",
          "name": "signer",
          "type": "address"
        },
        {
          "internalType": "bytes",
          "name": "sig",
          "type": "bytes"
        }
      ],
      "name": "delegatedApproveResume",
      "outputs": [],
      "stateMutability": "nonpayable",
      "type": "function"
    },
    {
      "inputs": [
        {
          "internalType": "address",
          "name": "signer",
          "type": "address"
        },
        {
          "internalType": "bytes",
          "name": "sig",
          "type": "bytes"
        }
      ],
      "name": "delegatedApproveUpgrade",
      "outputs": [],
      "stateMutability": "nonpayable",
      "type": "function"
    },
    {
      "inputs": [],
      "name": "discountBps",
      "outputs": [
        {
          "internalType": "uint32",
          "name": "",
          "type": "uint32"
        }
      ],
      "stateMutability": "view",
      "type": "function"
    },
    {
      "inputs": [
        {
          "internalType": "address",
          "name": "rewardToken",
          "type": "address"
        },
        {
          "internalType": "uint256",
          "name": "dxblAmount",
          "type": "uint256"
        }
      ],
      "name": "estimateRedemption",
      "outputs": [
        {
          "internalType": "uint256",
          "name": "",
          "type": "uint256"
        }
      ],
      "stateMutability": "view",
      "type": "function"
    },
    {
      "inputs": [
        {
          "internalType": "address",
          "name": "feeToken",
          "type": "address"
        }
      ],
      "name": "feeTokenPriceUSD",
      "outputs": [
        {
          "internalType": "uint256",
          "name": "",
          "type": "uint256"
        }
      ],
      "stateMutability": "view",
      "type": "function"
    },
    {
      "inputs": [
        {
          "components": [
            {
              "internalType": "address",
              "name": "wrappedNativeToken",
              "type": "address"
            },
            {
              "internalType": "uint256",
              "name": "baseMintThreshold",
              "type": "uint256"
            },
            {
              "components": [
                {
                  "internalType": "uint16",
                  "name": "minMMVolume",
                  "type": "uint16"
                },
                {
                  "internalType": "uint16",
                  "name": "maxMMVolume",
                  "type": "uint16"
                },
                {
                  "internalType": "uint256",
                  "name": "rate",
                  "type": "uint256"
                }
              ],
              "internalType": "struct LibRevshare.MintRateRangeConfig[]",
              "name": "rateRanges",
              "type": "tuple[]"
            },
            {
              "components": [
                {
                  "internalType": "address[]",
                  "name": "feeTokens",
                  "type": "address[]"
                },
                {
                  "internalType": "address[]",
                  "name": "priceFeeds",
                  "type": "address[]"
                }
              ],
              "internalType": "struct LibRevshare.FeeTokenConfig",
              "name": "feeTokenConfig",
              "type": "tuple"
            },
            {
              "components": [
                {
                  "internalType": "uint8",
                  "name": "requiredSigs",
                  "type": "uint8"
                },
                {
                  "internalType": "uint32",
                  "name": "timelockSeconds",
                  "type": "uint32"
                },
                {
                  "internalType": "address",
                  "name": "logic",
                  "type": "address"
                },
                {
                  "internalType": "address[]",
                  "name": "approvers",
                  "type": "address[]"
                }
              ],
              "internalType": "struct LibMultiSig.MultiSigConfig",
              "name": "multiSigConfig",
              "type": "tuple"
            }
          ],
          "internalType": "struct LibRevshare.RevshareConfig",
          "name": "config",
          "type": "tuple"
        }
      ],
      "name": "initialize",
      "outputs": [],
      "stateMutability": "nonpayable",
      "type": "function"
    },
    {
      "inputs": [
        {
          "components": [
            {
              "internalType": "uint8",
              "name": "requiredSigs",
              "type": "uint8"
            },
            {
              "internalType": "uint32",
              "name": "timelockSeconds",
              "type": "uint32"
            },
            {
              "internalType": "address",
              "name": "logic",
              "type": "address"
            },
            {
              "internalType": "address[]",
              "name": "approvers",
              "type": "address[]"
            }
          ],
          "internalType": "struct LibMultiSig.MultiSigConfig",
          "name": "config",
          "type": "tuple"
        }
      ],
      "name": "initializeMSConfigurable",
      "outputs": [],
      "stateMutability": "nonpayable",
      "type": "function"
    },
    {
      "inputs": [
        {
          "internalType": "address",
          "name": "token",
          "type": "address"
        }
      ],
      "name": "isFeeTokenAllowed",
      "outputs": [
        {
          "internalType": "bool",
          "name": "",
          "type": "bool"
        }
      ],
      "stateMutability": "view",
      "type": "function"
    },
    {
      "inputs": [],
      "name": "isPaused",
      "outputs": [
        {
          "internalType": "bool",
          "name": "",
          "type": "bool"
        }
      ],
      "stateMutability": "view",
      "type": "function"
    },
    {
      "inputs": [],
      "name": "pause",
      "outputs": [],
      "stateMutability": "nonpayable",
      "type": "function"
    },
    {
      "inputs": [
        {
          "internalType": "address",
          "name": "rewardToken",
          "type": "address"
        },
        {
          "internalType": "uint256",
          "name": "dxblAmount",
          "type": "uint256"
        },
        {
          "internalType": "uint256",
          "name": "minOutAmount",
          "type": "uint256"
        }
      ],
      "name": "redeemDXBL",
      "outputs": [],
      "stateMutability": "nonpayable",
      "type": "function"
    },
    {
      "inputs": [
        {
          "internalType": "address",
          "name": "signer",
          "type": "address"
        }
      ],
      "name": "removeSigner",
      "outputs": [],
      "stateMutability": "nonpayable",
      "type": "function"
    },
    {
      "inputs": [
        {
          "internalType": "bytes",
          "name": "data",
          "type": "bytes"
        }
      ],
      "name": "requestChange",
      "outputs": [],
      "stateMutability": "nonpayable",
      "type": "function"
    },
    {
      "inputs": [],
      "name": "requestResume",
      "outputs": [],
      "stateMutability": "nonpayable",
      "type": "function"
    },
    {
      "inputs": [
        {
          "internalType": "address",
          "name": "logic",
          "type": "address"
        }
      ],
      "name": "requestUpgrade",
      "outputs": [],
      "stateMutability": "nonpayable",
      "type": "function"
    },
    {
      "inputs": [],
      "name": "resumeSigsNeeded",
      "outputs": [
        {
          "internalType": "uint8",
          "name": "",
          "type": "uint8"
        }
      ],
      "stateMutability": "view",
      "type": "function"
    },
    {
      "inputs": [
        {
          "internalType": "address",
          "name": "trader",
          "type": "address"
        },
        {
          "internalType": "address",
          "name": "feeToken",
          "type": "address"
        },
        {
          "internalType": "uint256",
          "name": "amount",
          "type": "uint256"
        }
      ],
      "name": "rewardTrader",
      "outputs": [],
      "stateMutability": "nonpayable",
      "type": "function"
    },
    {
      "inputs": [
        {
          "internalType": "address",
          "name": "token",
          "type": "address"
        }
      ],
      "name": "setDXBL",
      "outputs": [],
      "stateMutability": "nonpayable",
      "type": "function"
    },
    {
      "inputs": [
        {
          "internalType": "address",
          "name": "dex",
          "type": "address"
        }
      ],
      "name": "setDexible",
      "outputs": [],
      "stateMutability": "nonpayable",
      "type": "function"
    },
    {
      "inputs": [
        {
          "internalType": "uint32",
          "name": "bps",
          "type": "uint32"
        }
      ],
      "name": "setDiscountRateBps",
      "outputs": [],
      "stateMutability": "nonpayable",
      "type": "function"
    },
    {
      "inputs": [
        {
          "components": [
            {
              "internalType": "address[]",
              "name": "feeTokens",
              "type": "address[]"
            },
            {
              "internalType": "address[]",
              "name": "priceFeeds",
              "type": "address[]"
            }
          ],
          "internalType": "struct LibRevshare.FeeTokenConfig",
          "name": "details",
          "type": "tuple"
        }
      ],
      "name": "setFeeTokens",
      "outputs": [],
      "stateMutability": "nonpayable",
      "type": "function"
    },
    {
      "inputs": [
        {
          "components": [
            {
              "internalType": "uint16",
              "name": "minMMVolume",
              "type": "uint16"
            },
            {
              "internalType": "uint16",
              "name": "maxMMVolume",
              "type": "uint16"
            },
            {
              "internalType": "uint256",
              "name": "rate",
              "type": "uint256"
            }
          ],
          "internalType": "struct LibRevshare.MintRateRangeConfig[]",
          "name": "ranges",
          "type": "tuple[]"
        }
      ],
      "name": "setMintRates",
      "outputs": [],
      "stateMutability": "nonpayable",
      "type": "function"
    },
    {
      "inputs": [
        {
          "internalType": "uint8",
          "name": "sigs",
          "type": "uint8"
        }
      ],
      "name": "setRequiredSigs",
      "outputs": [],
      "stateMutability": "nonpayable",
      "type": "function"
    },
    {
      "inputs": [],
      "name": "upgradeSignaturesNeeded",
      "outputs": [
        {
          "internalType": "uint256",
          "name": "",
          "type": "uint256"
        }
      ],
      "stateMutability": "view",
      "type": "function"
    }
  ],
  "bytecode": "0x608060405234801561001057600080fd5b506131e9806100206000396000f3fe608060405234801561001057600080fd5b50600436106102485760003560e01c80636c1f56331161013b578063ab1094c0116100b8578063d514beaa1161007c578063d514beaa146104a5578063dc588141146104b8578063dcf52a80146104cb578063e12a9b3c146104d3578063eb12d61e146104e657600080fd5b8063ab1094c01461045c578063b187bd261461046f578063c5fe916014610477578063c94fbd271461048a578063ce25cb4d1461049257600080fd5b80638456cb59116100ff5780638456cb591461041e57806384fd463a146104265780638957a7e5146104395780639738968c14610441578063a54c2d251461044957600080fd5b80636c1f5633146103be57806371a97305146103db5780637262f557146103f05780637a393ff514610403578063821314701461041657600080fd5b806341b5774a116101c95780635d2047181161018d5780635d2047181461035a5780635de118901461037d5780636161791e1461038557806364927984146103985780636b9f97ef146103ab57600080fd5b806341b5774a14610306578063464874371461030e578063486bdd9d146103215780635b57a2ed146103345780635cd0b3ee1461034757600080fd5b806331931af41161021057806331931af4146102ab57806333e5614f146102be57806334357755146102c657806335e3aa21146102e05780633931f45d146102f357600080fd5b80630e316ab71461024d57806318ac3b151461026257806320529bb1146102755780632807978e146102905780632b9f73e1146102a3575b600080fd5b61026061025b3660046124b5565b6104f9565b005b6102606102703660046124d9565b6105e6565b61027d610948565b6040519081526020015b60405180910390f35b61026061029e36600461251d565b6109cd565b610260610a7a565b6102606102b936600461254c565b610b28565b61027d610bf6565b6102ce610c7d565b60405160ff9091168152602001610287565b6102606102ee366004612569565b610cfc565b61027d610301366004612582565b610db2565b61027d610fab565b61026061031c3660046125ae565b610fee565b61026061032f366004612630565b61107e565b610260610342366004612569565b611139565b61026061035536600461268b565b6111bf565b61036d6103683660046124b5565b611277565b6040519015158152602001610287565b61027d6112ac565b610260610393366004612569565b6112ef565b6102606103a636600461268b565b611337565b6102606103b93660046124b5565b6113b9565b6103c6611447565b60405163ffffffff9091168152602001610287565b6103e36114c9565b60405161028791906126df565b61027d6103fe366004612582565b61154c565b61026061041136600461274c565b6116bf565b61027d61173f565b610260611754565b6102606104343660046124b5565b6117d9565b6102606118b9565b61036d611938565b61026061045736600461278d565b6119b7565b61026061046a3660046127c7565b611a4c565b61036d611cdf565b6102606104853660046124b5565b611cf2565b610260611ddf565b61027d6104a03660046124b5565b611e5e565b6102606104b336600461297b565b611f4b565b61027d6104c6366004612569565b611f8b565b610260612011565b6102606104e13660046129af565b612090565b6102606104f43660046124b5565b612122565b6000610503612209565b336000908152600d8201602052604090205490915060ff166105405760405162461bcd60e51b815260040161053790612a23565b60405180910390fd5b6001600160a01b03821660000361058a5760405162461bcd60e51b815260206004820152600e60248201526d24b73b30b634b21039b4b3b732b960911b6044820152606401610537565b6000610594612209565b6001600160a01b0384166000818152600d83016020526040808220805460ff191690555192935090917f3525e22824a8a7df2c9a6029941c824cf95b6447f1e13d5128fd3826d35afe8b9190a2505050565b6105ee612209565b5460ff16156106325760405162461bcd60e51b815260206004820152601060248201526f139bdd081dda1a5b19481c185d5cd95960821b6044820152606401610537565b600061063c61222d565b60018101546040516370a0823160e01b81523360048201529192506000916001600160a01b03909116906370a0823190602401602060405180830381865afa15801561068c573d6000803e3d6000fd5b505050506040513d601f19601f820116820180604052508101906106b09190612a49565b90508381101561070e5760405162461bcd60e51b815260206004820152602360248201527f496e73756666696369656e74204458424c2062616c616e636520746f2072656460448201526265656d60e81b6064820152608401610537565b604051637262f55760e01b81526001600160a01b0386166004820152602481018590526000903090637262f55790604401602060405180830381865afa15801561075c573d6000803e3d6000fd5b505050506040513d601f19601f820116820180604052508101906107809190612a49565b6040516370a0823160e01b81523060048201529091506000906001600160a01b038816906370a0823190602401602060405180830381865afa1580156107ca573d6000803e3d6000fd5b505050506040513d601f19601f820116820180604052508101906107ee9190612a49565b9050808211156108755784811061080757809150610875565b60405162461bcd60e51b815260206004820152603e60248201527f496e73756666696369656e742061737365742062616c616e636520746f20707260448201527f6f6475636520657870656374656420776974686472617720616d6f756e7400006064820152608401610537565b6108896001600160a01b0388163384612251565b6001840154604051632770a7eb60e21b8152336004820152602481018890526001600160a01b0390911690639dc29fac90604401600060405180830381600087803b1580156108d757600080fd5b505af11580156108eb573d6000803e3d6000fd5b505060408051338152602081018a90526001600160a01b038b16818301526060810186905290517f5fe85dc899e158274a44abab0e6df5434416f0ce11df30d42e02f229b8fc8a419350908190036080019150a150505050505050565b600061095261222d565b6040516354ab16a360e01b8152600481019190915273__$e4ef3559df0bc4c3af9eab81c1a9317092$__906354ab16a3906024015b602060405180830381865af41580156109a4573d6000803e3d6000fd5b505050506040513d601f19601f820116820180604052508101906109c89190612a49565b905090565b631403cbc760e11b60006109df612209565b6001600160e01b031983166000908152600c8201602052604090205490915060ff16610a1d5760405162461bcd60e51b815260040161053790612a62565b6000610a27612209565b805461ff00191661010060ff87169081029190911782556040519081529091507f996d24db4a86034b8a07339305b06563c6b9e34fc887a6f84dbba1d64f690fd79060200160405180910390a150505050565b6000610a84612209565b336000908152600d8201602052604090205490915060ff16610ab85760405162461bcd60e51b815260040161053790612a23565b610ac0612209565b60405163b5c1a4bd60e01b8152600481019190915273__$a1eb5e9a06dc78666997fa26b97107c1d0$__9063b5c1a4bd906024015b60006040518083038186803b158015610b0d57600080fd5b505af4158015610b21573d6000803e3d6000fd5b5050505050565b630c64c6bd60e21b6000610b3a612209565b6001600160e01b031983166000908152600c8201602052604090205490915060ff16610b785760405162461bcd60e51b815260040161053790612a62565b610b8061222d565b604051632fbd694960e21b8152600481019190915263ffffffff8416602482015273__$bbacb56986ef200bccd12c0a471dd815f3$__9063bef5a524906044015b60006040518083038186803b158015610bd957600080fd5b505af4158015610bed573d6000803e3d6000fd5b50505050505050565b6000610c00612209565b6040516396deafed60e01b8152600481019190915273__$a1eb5e9a06dc78666997fa26b97107c1d0$__906396deafed90602401602060405180830381865af4158015610c51573d6000803e3d6000fd5b505050506040513d601f19601f82011682018060405250810190610c759190612a90565b60ff16905090565b6000610c87612209565b6040516319477f2b60e11b8152600481019190915273__$a1eb5e9a06dc78666997fa26b97107c1d0$__9063328efe5690602401602060405180830381865af4158015610cd8573d6000803e3d6000fd5b505050506040513d601f19601f820116820180604052508101906109c89190612a90565b6000610d06612209565b336000908152600d8201602052604090205490915060ff16610d3a5760405162461bcd60e51b815260040161053790612a23565b610d42612209565b604051633cf6e7e560e11b815260048101919091526024810183905273__$a1eb5e9a06dc78666997fa26b97107c1d0$__906379edcfca906044015b60006040518083038186803b158015610d9657600080fd5b505af4158015610daa573d6000803e3d6000fd5b505050505050565b600080610dbd61222d565b60038101549091506001600160a01b0390811690851603610de15782915050610fa5565b60038101546001600160a01b03166000908152602582016020526040808220905163045a68f760e41b8152600481019190915273__$e4ef3559df0bc4c3af9eab81c1a9317092$__906345a68f7090602401602060405180830381865af4158015610e50573d6000803e3d6000fd5b505050506040513d601f19601f82011682018060405250810190610e749190612a49565b6001600160a01b0386166000908152602584016020526040808220905163045a68f760e41b815260048101919091529192509073__$e4ef3559df0bc4c3af9eab81c1a9317092$__906345a68f7090602401602060405180830381865af4158015610ee3573d6000803e3d6000fd5b505050506040513d601f19601f82011682018060405250810190610f079190612a49565b9050600081610f236c0c9f2c9cd04674edea4000000085612ac3565b610f2d9190612ada565b905060006c0c9f2c9cd04674edea40000000610f498884612ac3565b610f539190612ada565b6001600160a01b0389166000908152602487016020526040902054909150670de0b6b3a764000090610f899060ff16600a612be0565b610f939083612ac3565b610f9d9190612ada565b955050505050505b92915050565b6000610fb561222d565b604051630f8eee6560e21b8152600481019190915273__$e4ef3559df0bc4c3af9eab81c1a9317092$__90633e3bb99490602401610987565b634648743760e01b6000611000612209565b6001600160e01b031983166000908152600c8201602052604090205490915060ff1661103e5760405162461bcd60e51b815260040161053790612a62565b61104661222d565b60405163a0caec1d60e01b815273__$bbacb56986ef200bccd12c0a471dd815f3$__9163a0caec1d91610bc191908790600401612ccb565b6000611088612209565b336000908152600d8201602052604090205490915060ff166110bc5760405162461bcd60e51b815260040161053790612a23565b6110c4612209565b60405163b190721f60e01b815273__$a1eb5e9a06dc78666997fa26b97107c1d0$__9163b190721f9161110291908990899089908990600401612d0d565b60006040518083038186803b15801561111a57600080fd5b505af415801561112e573d6000803e3d6000fd5b505050505050505050565b6000611143612209565b336000908152600d8201602052604090205490915060ff166111775760405162461bcd60e51b815260040161053790612a23565b61117f612209565b6040516341ae60fd60e01b815260048101919091526024810183905273__$a1eb5e9a06dc78666997fa26b97107c1d0$__906341ae60fd90604401610d7e565b60006111c9612209565b336000908152600d8201602052604090205490915060ff166111fd5760405162461bcd60e51b815260040161053790612a23565b611205612209565b604051634552300560e11b815273__$a1eb5e9a06dc78666997fa26b97107c1d0$__91638aa4600a916112419190889088908890600401612d3b565b60006040518083038186803b15801561125957600080fd5b505af415801561126d573d6000803e3d6000fd5b5050505050505050565b60008061128261222d565b6001600160a01b039384166000908152602591909101602052604090205490921690911415919050565b60006112b661222d565b604051633908dabb60e21b8152600481019190915273__$e4ef3559df0bc4c3af9eab81c1a9317092$__9063e4236aec90602401610987565b6112f7612209565b6040516366c373c960e01b815260048101919091526024810182905273__$a1eb5e9a06dc78666997fa26b97107c1d0$__906366c373c990604401610af5565b6000611341612209565b336000908152600d8201602052604090205490915060ff166113755760405162461bcd60e51b815260040161053790612a23565b61137d612209565b604051633b32d55d60e21b815273__$a1eb5e9a06dc78666997fa26b97107c1d0$__9163eccb5574916112419190889088908890600401612d3b565b60006113c3612209565b336000908152600d8201602052604090205490915060ff166113f75760405162461bcd60e51b815260040161053790612a23565b6113ff612209565b604051632791078760e21b815260048101919091526001600160a01b038316602482015273__$a1eb5e9a06dc78666997fa26b97107c1d0$__90639e441e1c90604401610d7e565b600061145161222d565b60010160009054906101000a90046001600160a01b03166001600160a01b031663566826d16040518163ffffffff1660e01b8152600401602060405180830381865afa1580156114a5573d6000803e3d6000fd5b505050506040513d601f19601f820116820180604052508101906109c89190612d66565b60606114d361222d565b6040516315621db360e11b8152600481019190915273__$e4ef3559df0bc4c3af9eab81c1a9317092$__90632ac43b6690602401600060405180830381865af4158015611524573d6000803e3d6000fd5b505050506040513d6000823e601f3d908101601f191682016040526109c89190810190612d83565b60008061155761222d565b604051633908dabb60e21b81526004810182905290915060009073__$e4ef3559df0bc4c3af9eab81c1a9317092$__9063e4236aec90602401602060405180830381865af41580156115ad573d6000803e3d6000fd5b505050506040513d601f19601f820116820180604052508101906115d19190612a49565b9050620f42406115ee6c0c9f2c9cd04674edea4000000083612ac3565b6115f89190612ada565b60405163ce25cb4d60e01b81526001600160a01b0387166004820152909150600090309063ce25cb4d90602401602060405180830381865afa158015611642573d6000803e3d6000fd5b505050506040513d601f19601f820116820180604052508101906116669190612a49565b6001600160a01b038716600090815260248501602052604081205491925060ff909116908261169683600a612be0565b6116a09086612ac3565b6116aa9190612ada565b9050670de0b6b3a7640000610f938289612ac3565b60006116c9612209565b336000908152600d8201602052604090205490915060ff166116fd5760405162461bcd60e51b815260040161053790612a23565b611705612209565b6040516326373dcf60e21b815273__$a1eb5e9a06dc78666997fa26b97107c1d0$__916398dcf73c91610bc1919087908790600401612e4a565b60008061174a61222d565b6005015492915050565b600061175e612209565b336000908152600d8201602052604090205490915060ff166117925760405162461bcd60e51b815260040161053790612a23565b600061179c612209565b805460ff1916600117815560405190915033907f62e78cea01bee320cd4e420270b5ea74000d11b0c9f74754ebdbfc544b05a25890600090a25050565b60006117e361222d565b90506001600160a01b03821661183b5760405162461bcd60e51b815260206004820152601a60248201527f496e76616c6964204458424c20746f6b656e20616464726573730000000000006044820152606401610537565b60018101546001600160a01b0316156118965760405162461bcd60e51b815260206004820181905260248201527f416c726561647920696e697469616c697a6564204458424c20616464726573736044820152606401610537565b60010180546001600160a01b0319166001600160a01b0392909216919091179055565b60006118c3612209565b336000908152600d8201602052604090205490915060ff166118f75760405162461bcd60e51b815260040161053790612a23565b6118ff612209565b60405163dc02380960e01b8152600481019190915273__$a1eb5e9a06dc78666997fa26b97107c1d0$__9063dc02380990602401610af5565b6000611942612209565b6040516330a340ab60e21b8152600481019190915273__$a1eb5e9a06dc78666997fa26b97107c1d0$__9063c28d02ac90602401602060405180830381865af4158015611993573d6000803e3d6000fd5b505050506040513d601f19601f820116820180604052508101906109c89190612e6d565b60006119c161222d565b604051634346197160e01b815290915073__$bbacb56986ef200bccd12c0a471dd815f3$__906343461971906119fd9084908690600401612f9a565b60006040518083038186803b158015611a1557600080fd5b505af4158015611a29573d6000803e3d6000fd5b50611a489250611a3f9150506080840184613073565b6104b390613093565b5050565b611a5461222d565b600201546001600160a01b03163314611a7f5760405162461bcd60e51b815260040161053790612a23565b611a87612209565b5460ff1615611acb5760405162461bcd60e51b815260206004820152601060248201526f139bdd081dda1a5b19481c185d5cd95960821b6044820152606401610537565b6000611ad561222d565b6040516376a16af760e01b8152600481018290526001600160a01b03851660248201526044810184905290915060009073__$e4ef3559df0bc4c3af9eab81c1a9317092$__906376a16af790606401602060405180830381865af4158015611b41573d6000803e3d6000fd5b505050506040513d601f19601f82011682018060405250810190611b659190612a49565b604051630f8eee6560e21b81526004810184905290915060009073__$e4ef3559df0bc4c3af9eab81c1a9317092$__90633e3bb99490602401602060405180830381865af4158015611bbb573d6000803e3d6000fd5b505050506040513d601f19601f82011682018060405250810190611bdf9190612a49565b60405162df707d60e61b8152600481018590526024810184905290915073__$e4ef3559df0bc4c3af9eab81c1a9317092$__906337dc1f409060440160006040518083038186803b158015611c3357600080fd5b505af4158015611c47573d6000803e3d6000fd5b5050505060008183670de0b6b3a7640000611c629190612ac3565b611c6c9190612ada565b60018501546040516340c10f1960e01b81526001600160a01b038a81166004830152602482018490529293509116906340c10f1990604401600060405180830381600087803b158015611cbe57600080fd5b505af1158015611cd2573d6000803e3d6000fd5b5050505050505050505050565b6000611ce9612209565b5460ff16919050565b6000611cfc61222d565b60028101549091506001600160a01b031615611d665760405162461bcd60e51b815260206004820152602360248201527f416c726561647920696e697469616c697a65642044657869626c65206164647260448201526265737360e81b6064820152608401610537565b6001600160a01b038216611dbc5760405162461bcd60e51b815260206004820152601760248201527f496e76616c69642064657869626c6520616464726573730000000000000000006044820152606401610537565b60020180546001600160a01b0319166001600160a01b0392909216919091179055565b6000611de9612209565b336000908152600d8201602052604090205490915060ff16611e1d5760405162461bcd60e51b815260040161053790612a23565b611e25612209565b604051634e3e101b60e01b8152600481019190915273__$a1eb5e9a06dc78666997fa26b97107c1d0$__90634e3e101b90602401610af5565b600080611e6961222d565b6001600160a01b038085166000908152602583016020526040902080549293509116611ecf5760405162461bcd60e51b81526020600482015260156024820152742ab739bab83837b93a32b2103332b2903a37b5b2b760591b6044820152606401610537565b60405163045a68f760e41b81526004810182905273__$e4ef3559df0bc4c3af9eab81c1a9317092$__906345a68f7090602401602060405180830381865af4158015611f1f573d6000803e3d6000fd5b505050506040513d601f19601f82011682018060405250810190611f439190612a49565b949350505050565b611f53612209565b60405163e84ba0a360e01b815273__$a1eb5e9a06dc78666997fa26b97107c1d0$__9163e84ba0a391610af59190859060040161309f565b6000611f95612209565b6040516384c81e4d60e01b815260048101919091526024810183905273__$a1eb5e9a06dc78666997fa26b97107c1d0$__906384c81e4d90604401602060405180830381865af4158015611fed573d6000803e3d6000fd5b505050506040513d601f19601f82011682018060405250810190610fa59190612a49565b600061201b612209565b336000908152600d8201602052604090205490915060ff1661204f5760405162461bcd60e51b815260040161053790612a23565b612057612209565b604051630cb8674760e01b8152600481019190915273__$a1eb5e9a06dc78666997fa26b97107c1d0$__90630cb8674790602401610af5565b63384aa6cf60e21b60006120a2612209565b6001600160e01b031983166000908152600c8201602052604090205490915060ff166120e05760405162461bcd60e51b815260040161053790612a62565b6120e861222d565b60405163460aa8db60e01b815273__$bbacb56986ef200bccd12c0a471dd815f3$__9163460aa8db91611241919088908890600401613130565b600061212c612209565b336000908152600d8201602052604090205490915060ff166121605760405162461bcd60e51b815260040161053790612a23565b6001600160a01b0382166000036121aa5760405162461bcd60e51b815260206004820152600e60248201526d24b73b30b634b21039b4b3b732b960911b6044820152606401610537565b60006121b4612209565b6001600160a01b0384166000818152600d83016020526040808220805460ff191660011790555192935090917f47d1c22a25bb3a5d4e481b9b1e6944c2eade3181a0a20b495ed61d35b5323f249190a2505050565b7f95345cad9ec96dfc8c5b0a875a5c498451c293011b6404d5fac2627c08bc661c90565b7fbfa76ec2967ed7f8d3d40cd552f1451ab03573b596bfce931a6a016f7733078c90565b604080516001600160a01b038416602482015260448082018490528251808303909101815260649091019091526020810180516001600160e01b031663a9059cbb60e01b1790526122a39084906122a8565b505050565b60006122fd826040518060400160405280602081526020017f5361666545524332303a206c6f772d6c6576656c2063616c6c206661696c6564815250856001600160a01b031661237a9092919063ffffffff16565b8051909150156122a3578080602001905181019061231b9190612e6d565b6122a35760405162461bcd60e51b815260206004820152602a60248201527f5361666545524332303a204552433230206f7065726174696f6e20646964206e6044820152691bdd081cdd58d8d9595960b21b6064820152608401610537565b6060611f43848460008585600080866001600160a01b031685876040516123a1919061316e565b60006040518083038185875af1925050503d80600081146123de576040519150601f19603f3d011682016040523d82523d6000602084013e6123e3565b606091505b50915091506123f4878383876123ff565b979650505050505050565b6060831561246e578251600003612467576001600160a01b0385163b6124675760405162461bcd60e51b815260206004820152601d60248201527f416464726573733a2063616c6c20746f206e6f6e2d636f6e74726163740000006044820152606401610537565b5081611f43565b611f4383838151156124835781518083602001fd5b8060405162461bcd60e51b81526004016105379190613180565b6001600160a01b03811681146124b257600080fd5b50565b6000602082840312156124c757600080fd5b81356124d28161249d565b9392505050565b6000806000606084860312156124ee57600080fd5b83356124f98161249d565b95602085013595506040909401359392505050565b60ff811681146124b257600080fd5b60006020828403121561252f57600080fd5b81356124d28161250e565b63ffffffff811681146124b257600080fd5b60006020828403121561255e57600080fd5b81356124d28161253a565b60006020828403121561257b57600080fd5b5035919050565b6000806040838503121561259557600080fd5b82356125a08161249d565b946020939093013593505050565b6000602082840312156125c057600080fd5b81356001600160401b038111156125d657600080fd5b8201604081850312156124d257600080fd5b60008083601f8401126125fa57600080fd5b5081356001600160401b0381111561261157600080fd5b60208301915083602082850101111561262957600080fd5b9250929050565b6000806000806060858703121561264657600080fd5b8435935060208501356126588161249d565b925060408501356001600160401b0381111561267357600080fd5b61267f878288016125e8565b95989497509550505050565b6000806000604084860312156126a057600080fd5b83356126ab8161249d565b925060208401356001600160401b038111156126c657600080fd5b6126d2868287016125e8565b9497909650939450505050565b602080825282518282018190526000919060409081850190868401855b8281101561273f57815180516001600160a01b031685528681015187860152858101518686015260609081015190850152608090930192908501906001016126fc565b5091979650505050505050565b6000806020838503121561275f57600080fd5b82356001600160401b0381111561277557600080fd5b612781858286016125e8565b90969095509350505050565b60006020828403121561279f57600080fd5b81356001600160401b038111156127b557600080fd5b820160a081850312156124d257600080fd5b6000806000606084860312156127dc57600080fd5b83356127e78161249d565b925060208401356127f78161249d565b929592945050506040919091013590565b634e487b7160e01b600052604160045260246000fd5b604051608081016001600160401b038111828210171561284057612840612808565b60405290565b604051601f8201601f191681016001600160401b038111828210171561286e5761286e612808565b604052919050565b60006001600160401b0382111561288f5761288f612808565b5060051b60200190565b6000608082840312156128ab57600080fd5b6128b361281e565b905081356128c08161250e565b81526020828101356128d18161253a565b8282015260408301356128e38161249d565b604083015260608301356001600160401b0381111561290157600080fd5b8301601f8101851361291257600080fd5b803561292561292082612876565b612846565b81815260059190911b8201830190838101908783111561294457600080fd5b928401925b8284101561296b57833561295c8161249d565b82529284019290840190612949565b6060860152509295945050505050565b60006020828403121561298d57600080fd5b81356001600160401b038111156129a357600080fd5b611f4384828501612899565b600080602083850312156129c257600080fd5b82356001600160401b03808211156129d957600080fd5b818501915085601f8301126129ed57600080fd5b8135818111156129fc57600080fd5b866020606083028501011115612a1157600080fd5b60209290920196919550909350505050565b6020808252600c908201526b155b985d5d1a1bdc9a5e995960a21b604082015260600190565b600060208284031215612a5b57600080fd5b5051919050565b602080825260149082015273139bdd08185c1c1c9bdd9959081d1bc818d85b1b60621b604082015260600190565b600060208284031215612aa257600080fd5b81516124d28161250e565b634e487b7160e01b600052601160045260246000fd5b8082028115828204841417610fa557610fa5612aad565b600082612af757634e487b7160e01b600052601260045260246000fd5b500490565b600181815b80851115612b37578160001904821115612b1d57612b1d612aad565b80851615612b2a57918102915b93841c9390800290612b01565b509250929050565b600082612b4e57506001610fa5565b81612b5b57506000610fa5565b8160018114612b715760028114612b7b57612b97565b6001915050610fa5565b60ff841115612b8c57612b8c612aad565b50506001821b610fa5565b5060208310610133831016604e8410600b8410161715612bba575081810a610fa5565b612bc48383612afc565b8060001904821115612bd857612bd8612aad565b029392505050565b60006124d260ff841683612b3f565b6000808335601e19843603018112612c0657600080fd5b83016020810192503590506001600160401b03811115612c2557600080fd5b8060051b360382131561262957600080fd5b8183526000602080850194508260005b85811015612c75578135612c5a8161249d565b6001600160a01b031687529582019590820190600101612c47565b509495945050505050565b6000612c8c8283612bef565b60408552612c9e604086018284612c37565b915050612cae6020840184612bef565b8583036020870152612cc1838284612c37565b9695505050505050565b828152604060208201526000611f436040830184612c80565b81835281816020850137506000828201602090810191909152601f909101601f19169091010190565b85815284602082015260018060a01b03841660408201526080606082015260006123f4608083018486612ce4565b8481526001600160a01b0384166020820152606060408201819052600090612cc19083018486612ce4565b600060208284031215612d7857600080fd5b81516124d28161253a565b60006020808385031215612d9657600080fd5b82516001600160401b03811115612dac57600080fd5b8301601f81018513612dbd57600080fd5b8051612dcb61292082612876565b81815260079190911b82018301908381019087831115612dea57600080fd5b928401925b828410156123f45760808489031215612e085760008081fd5b612e1061281e565b8451612e1b8161249d565b815284860151868201526040808601519082015260608086015190820152825260809093019290840190612def565b838152604060208201526000612e64604083018486612ce4565b95945050505050565b600060208284031215612e7f57600080fd5b815180151581146124d257600080fd5b803561ffff81168114612ea157600080fd5b919050565b8183526000602080850194508260005b85811015612c755761ffff80612ecb84612e8f565b16885280612eda858501612e8f565b1688850152506040828101359088015260609687019690910190600101612eb6565b60008235603e19833603018112612f1257600080fd5b90910192915050565b60008235607e19833603018112612f1257600080fd5b60008135612f3e8161250e565b60ff1683526020820135612f518161253a565b63ffffffff1660208401526040820135612f6a8161249d565b6001600160a01b03166040840152612f856060830183612bef565b60806060860152612e64608086018284612c37565b8281526040602082015260008235612fb18161249d565b6001600160a01b03166040838101919091526020840135606084015283013536849003601e19018112612fe357600080fd5b83016020810190356001600160401b03811115612fff57600080fd5b60608102360382131561301157600080fd5b60a0608085015261302660e085018284612ea6565b9150506130366060850185612efc565b603f19808584030160a086015261304d8383612c80565b925061305c6080870187612f1b565b9150808584030160c086015250612cc18282612f31565b60008235607e1983360301811261308957600080fd5b9190910192915050565b6000610fa53683612899565b8281526000602060408184015260c0830160ff855116604085015263ffffffff82860151166060850152604085015160018060a01b03808216608087015260608701519150608060a087015282825180855260e0880191508584019450600093505b8084101561312357845183168252938501936001939093019290850190613101565b5098975050505050505050565b838152604060208201526000612e64604083018486612ea6565b60005b8381101561316557818101518382015260200161314d565b50506000910152565b6000825161308981846020870161314a565b602081526000825180602084015261319f81604085016020870161314a565b601f01601f1916919091016040019291505056fea26469706673582212205c0c614d1008c731fa780e6b6edea65b8268c61c9619a5acf3c895d76ebd9a6664736f6c63430008110033",
  "linkReferences": {
    "contracts/libraries/LibMultiSig.sol": {
      "LibMultiSig": [
        {
          "length": 20,
          "start": 2807
        },
        {
          "length": 20,
          "start": 3127
        },
        {
          "length": 20,
          "start": 3262
        },
        {
          "length": 20,
          "start": 3456
        },
        {
          "length": 20,
          "start": 4339
        },
        {
          "length": 20,
          "start": 4541
        },
        {
          "length": 20,
          "start": 4660
        },
        {
          "length": 20,
          "start": 4917
        },
        {
          "length": 20,
          "start": 5036
        },
        {
          "length": 20,
          "start": 5189
        },
        {
          "length": 20,
          "start": 5940
        },
        {
          "length": 20,
          "start": 6454
        },
        {
          "length": 20,
          "start": 6521
        },
        {
          "length": 20,
          "start": 7772
        },
        {
          "length": 20,
          "start": 8066
        },
        {
          "length": 20,
          "start": 8147
        },
        {
          "length": 20,
          "start": 8334
        }
      ]
    },
    "contracts/libraries/LibRSUtils.sol": {
      "LibRSUtils": [
        {
          "length": 20,
          "start": 2441
        },
        {
          "length": 20,
          "start": 3638
        },
        {
          "length": 20,
          "start": 3785
        },
        {
          "length": 20,
          "start": 4076
        },
        {
          "length": 20,
          "start": 4845
        },
        {
          "length": 20,
          "start": 5386
        },
        {
          "length": 20,
          "start": 5523
        },
        {
          "length": 20,
          "start": 6951
        },
        {
          "length": 20,
          "start": 7073
        },
        {
          "length": 20,
          "start": 7198
        },
        {
          "length": 20,
          "start": 7941
        }
      ]
    },
    "contracts/libraries/LibRevshare.sol": {
      "LibRevshare": [
        {
          "length": 20,
          "start": 3011
        },
        {
          "length": 20,
          "start": 4213
        },
        {
          "length": 20,
          "start": 6643
        },
        {
          "length": 20,
          "start": 8471
        }
      ]
    }
  },
  "deployedLinkReferences": {
    "contracts/libraries/LibMultiSig.sol": {
      "LibMultiSig": [
        {
          "length": 20,
          "start": 2775
        },
        {
          "length": 20,
          "start": 3095
        },
        {
          "length": 20,
          "start": 3230
        },
        {
          "length": 20,
          "start": 3424
        },
        {
          "length": 20,
          "start": 4307
        },
        {
          "length": 20,
          "start": 4509
        },
        {
          "length": 20,
          "start": 4628
        },
        {
          "length": 20,
          "start": 4885
        },
        {
          "length": 20,
          "start": 5004
        },
        {
          "length": 20,
          "start": 5157
        },
        {
          "length": 20,
          "start": 5908
        },
        {
          "length": 20,
          "start": 6422
        },
        {
          "length": 20,
          "start": 6489
        },
        {
          "length": 20,
          "start": 7740
        },
        {
          "length": 20,
          "start": 8034
        },
        {
          "length": 20,
          "start": 8115
        },
        {
          "length": 20,
          "start": 8302
        }
      ]
    },
    "contracts/libraries/LibRSUtils.sol": {
      "LibRSUtils": [
        {
          "length": 20,
          "start": 2409
        },
        {
          "length": 20,
          "start": 3606
        },
        {
          "length": 20,
          "start": 3753
        },
        {
          "length": 20,
          "start": 4044
        },
        {
          "length": 20,
          "start": 4813
        },
        {
          "length": 20,
          "start": 5354
        },
        {
          "length": 20,
          "start": 5491
        },
        {
          "length": 20,
          "start": 6919
        },
        {
          "length": 20,
          "start": 7041
        },
        {
          "length": 20,
          "start": 7166
        },
        {
          "length": 20,
          "start": 7909
        }
      ]
    },
    "contracts/libraries/LibRevshare.sol": {
      "LibRevshare": [
        {
          "length": 20,
          "start": 2979
        },
        {
          "length": 20,
          "start": 4181
        },
        {
          "length": 20,
          "start": 6611
        },
        {
          "length": 20,
          "start": 8439
        }
      ]
    }
  }
}