{
  "_format": "hh-sol-artifact-1",
  "contractName": "RevshareVault",
  "sourceName": "contracts/revshare/RevshareVault.sol",
  "abi": [
    {
      "anonymous": false,
      "inputs": [
        {
          "indexed": false,
          "internalType": "uint256",
          "name": "newVolume",
          "type": "uint256"
        }
      ],
      "name": "AppliedVolumeGoal",
      "type": "event"
    },
    {
      "anonymous": false,
      "inputs": [
        {
          "indexed": false,
          "internalType": "uint32",
          "name": "stdRate",
          "type": "uint32"
        },
        {
          "indexed": false,
          "internalType": "uint32",
          "name": "minRate",
          "type": "uint32"
        }
      ],
      "name": "BpsChanged",
      "type": "event"
    },
    {
      "anonymous": false,
      "inputs": [
        {
          "indexed": true,
          "internalType": "address",
          "name": "approver",
          "type": "address"
        },
        {
          "indexed": false,
          "internalType": "bytes4",
          "name": "selector",
          "type": "bytes4"
        },
        {
          "indexed": false,
          "internalType": "bytes32",
          "name": "sigHash",
          "type": "bytes32"
        },
        {
          "indexed": false,
          "internalType": "uint256",
          "name": "nonce",
          "type": "uint256"
        },
        {
          "indexed": false,
          "internalType": "uint256",
          "name": "timelockExpiration",
          "type": "uint256"
        }
      ],
      "name": "ChangeRequested",
      "type": "event"
    },
    {
      "anonymous": false,
      "inputs": [
        {
          "indexed": false,
          "internalType": "address",
          "name": "holder",
          "type": "address"
        },
        {
          "indexed": false,
          "internalType": "uint256",
          "name": "dxblAmount",
          "type": "uint256"
        },
        {
          "indexed": false,
          "internalType": "address",
          "name": "rewardToken",
          "type": "address"
        },
        {
          "indexed": false,
          "internalType": "uint256",
          "name": "rewardAmount",
          "type": "uint256"
        }
      ],
      "name": "DXBLRedeemed",
      "type": "event"
    },
    {
      "anonymous": false,
      "inputs": [
        {
          "indexed": false,
          "internalType": "uint32",
          "name": "newRate",
          "type": "uint32"
        }
      ],
      "name": "DiscountChanged",
      "type": "event"
    },
    {
      "anonymous": false,
      "inputs": [
        {
          "indexed": true,
          "internalType": "address",
          "name": "token",
          "type": "address"
        },
        {
          "indexed": true,
          "internalType": "address",
          "name": "priceFeed",
          "type": "address"
        }
      ],
      "name": "FeeTokenAdded",
      "type": "event"
    },
    {
      "anonymous": false,
      "inputs": [
        {
          "indexed": true,
          "internalType": "address",
          "name": "token",
          "type": "address"
        }
      ],
      "name": "FeeTokenRemoved",
      "type": "event"
    },
    {
      "anonymous": false,
      "inputs": [
        {
          "indexed": true,
          "internalType": "address",
          "name": "newLogic",
          "type": "address"
        }
      ],
      "name": "LogicUpgraded",
      "type": "event"
    },
    {
      "anonymous": false,
      "inputs": [
        {
          "indexed": false,
          "internalType": "uint16",
          "name": "minThreshold",
          "type": "uint16"
        },
        {
          "indexed": false,
          "internalType": "uint16",
          "name": "maxThreshold",
          "type": "uint16"
        },
        {
          "indexed": false,
          "internalType": "uint256",
          "name": "percentage",
          "type": "uint256"
        }
      ],
      "name": "MintRateChange",
      "type": "event"
    },
    {
      "anonymous": false,
      "inputs": [
        {
          "indexed": true,
          "internalType": "address",
          "name": "caller",
          "type": "address"
        }
      ],
      "name": "Paused",
      "type": "event"
    },
    {
      "anonymous": false,
      "inputs": [
        {
          "indexed": false,
          "internalType": "uint32",
          "name": "oldStdRate",
          "type": "uint32"
        },
        {
          "indexed": false,
          "internalType": "uint32",
          "name": "newStdRate",
          "type": "uint32"
        },
        {
          "indexed": false,
          "internalType": "uint32",
          "name": "oldMinRate",
          "type": "uint32"
        },
        {
          "indexed": false,
          "internalType": "uint32",
          "name": "newMinRate",
          "type": "uint32"
        },
        {
          "indexed": false,
          "internalType": "uint256",
          "name": "allowedAfterTime",
          "type": "uint256"
        }
      ],
      "name": "ProposedBpsChange",
      "type": "event"
    },
    {
      "anonymous": false,
      "inputs": [
        {
          "indexed": false,
          "internalType": "uint32",
          "name": "oldRate",
          "type": "uint32"
        },
        {
          "indexed": false,
          "internalType": "uint32",
          "name": "newRate",
          "type": "uint32"
        },
        {
          "indexed": false,
          "internalType": "uint256",
          "name": "allowedAfterTime",
          "type": "uint256"
        }
      ],
      "name": "ProposedDiscountChange",
      "type": "event"
    },
    {
      "anonymous": false,
      "inputs": [
        {
          "indexed": true,
          "internalType": "address",
          "name": "token",
          "type": "address"
        },
        {
          "indexed": true,
          "internalType": "address",
          "name": "priceFeed",
          "type": "address"
        },
        {
          "indexed": false,
          "internalType": "bool",
          "name": "removal",
          "type": "bool"
        },
        {
          "indexed": false,
          "internalType": "uint256",
          "name": "allowedAfterTime",
          "type": "uint256"
        }
      ],
      "name": "ProposedFeeToken",
      "type": "event"
    },
    {
      "anonymous": false,
      "inputs": [
        {
          "indexed": false,
          "internalType": "uint16",
          "name": "minThreshold",
          "type": "uint16"
        },
        {
          "indexed": false,
          "internalType": "uint16",
          "name": "maxThreshold",
          "type": "uint16"
        },
        {
          "indexed": false,
          "internalType": "uint256",
          "name": "percentage",
          "type": "uint256"
        },
        {
          "indexed": false,
          "internalType": "uint256",
          "name": "allowedAfterTime",
          "type": "uint256"
        }
      ],
      "name": "ProposedMintRateChange",
      "type": "event"
    },
    {
      "anonymous": false,
      "inputs": [
        {
          "indexed": false,
          "internalType": "uint256",
          "name": "oldVolume",
          "type": "uint256"
        },
        {
          "indexed": false,
          "internalType": "uint256",
          "name": "newVolume",
          "type": "uint256"
        },
        {
          "indexed": false,
          "internalType": "uint256",
          "name": "allowedAfterTime",
          "type": "uint256"
        }
      ],
      "name": "ProposedVolumeGoal",
      "type": "event"
    },
    {
      "anonymous": false,
      "inputs": [
        {
          "indexed": false,
          "internalType": "uint256",
          "name": "newReq",
          "type": "uint256"
        }
      ],
      "name": "RequiredSigChanged",
      "type": "event"
    },
    {
      "anonymous": false,
      "inputs": [
        {
          "indexed": true,
          "internalType": "address",
          "name": "approvder",
          "type": "address"
        },
        {
          "indexed": false,
          "internalType": "bytes32",
          "name": "sigHash",
          "type": "bytes32"
        }
      ],
      "name": "ResumeRequested",
      "type": "event"
    },
    {
      "anonymous": false,
      "inputs": [],
      "name": "ResumedOperations",
      "type": "event"
    },
    {
      "anonymous": false,
      "inputs": [
        {
          "indexed": true,
          "internalType": "address",
          "name": "signer",
          "type": "address"
        }
      ],
      "name": "SignerAdded",
      "type": "event"
    },
    {
      "anonymous": false,
      "inputs": [
        {
          "indexed": true,
          "internalType": "address",
          "name": "signer",
          "type": "address"
        }
      ],
      "name": "SignerRemoved",
      "type": "event"
    },
    {
      "anonymous": false,
      "inputs": [
        {
          "indexed": true,
          "internalType": "address",
          "name": "approver",
          "type": "address"
        },
        {
          "indexed": false,
          "internalType": "address",
          "name": "logic",
          "type": "address"
        },
        {
          "indexed": false,
          "internalType": "bytes32",
          "name": "sigHash",
          "type": "bytes32"
        },
        {
          "indexed": false,
          "internalType": "uint256",
          "name": "timelockExpiration",
          "type": "uint256"
        }
      ],
      "name": "UpgradeRequested",
      "type": "event"
    },
    {
      "inputs": [
        {
          "internalType": "address",
          "name": "signer",
          "type": "address"
        }
      ],
      "name": "addSigner",
      "outputs": [],
      "stateMutability": "nonpayable",
      "type": "function"
    },
    {
      "inputs": [
        {
          "internalType": "uint256",
          "name": "nonce",
          "type": "uint256"
        }
      ],
      "name": "approveChange",
      "outputs": [],
      "stateMutability": "nonpayable",
      "type": "function"
    },
    {
      "inputs": [],
      "name": "approveResume",
      "outputs": [],
      "stateMutability": "nonpayable",
      "type": "function"
    },
    {
      "inputs": [],
      "name": "approveUpgrade",
      "outputs": [],
      "stateMutability": "nonpayable",
      "type": "function"
    },
    {
      "inputs": [],
      "name": "assets",
      "outputs": [
        {
          "components": [
            {
              "internalType": "address",
              "name": "token",
              "type": "address"
            },
            {
              "internalType": "uint256",
              "name": "balance",
              "type": "uint256"
            },
            {
              "internalType": "uint256",
              "name": "usdValue",
              "type": "uint256"
            },
            {
              "internalType": "uint256",
              "name": "usdPrice",
              "type": "uint256"
            }
          ],
          "internalType": "struct IRevshareVault.AssetInfo[]",
          "name": "",
          "type": "tuple[]"
        }
      ],
      "stateMutability": "view",
      "type": "function"
    },
    {
      "inputs": [],
      "name": "aumUSD",
      "outputs": [
        {
          "internalType": "uint256",
          "name": "",
          "type": "uint256"
        }
      ],
      "stateMutability": "view",
      "type": "function"
    },
    {
      "inputs": [
        {
          "internalType": "uint256",
          "name": "nonce",
          "type": "uint256"
        }
      ],
      "name": "canApplyChange",
      "outputs": [],
      "stateMutability": "view",
      "type": "function"
    },
    {
      "inputs": [],
      "name": "canUpgrade",
      "outputs": [
        {
          "internalType": "bool",
          "name": "",
          "type": "bool"
        }
      ],
      "stateMutability": "view",
      "type": "function"
    },
    {
      "inputs": [
        {
          "internalType": "uint256",
          "name": "nonce",
          "type": "uint256"
        }
      ],
      "name": "cancelChange",
      "outputs": [],
      "stateMutability": "nonpayable",
      "type": "function"
    },
    {
      "inputs": [],
      "name": "cancelResume",
      "outputs": [],
      "stateMutability": "nonpayable",
      "type": "function"
    },
    {
      "inputs": [
        {
          "internalType": "uint256",
          "name": "nonce",
          "type": "uint256"
        }
      ],
      "name": "changeSigsNeeded",
      "outputs": [
        {
          "internalType": "uint256",
          "name": "",
          "type": "uint256"
        }
      ],
      "stateMutability": "view",
      "type": "function"
    },
    {
      "inputs": [
        {
          "internalType": "address",
          "name": "feeToken",
          "type": "address"
        },
        {
          "internalType": "uint256",
          "name": "gasCost",
          "type": "uint256"
        }
      ],
      "name": "convertGasToFeeToken",
      "outputs": [
        {
          "internalType": "uint256",
          "name": "",
          "type": "uint256"
        }
      ],
      "stateMutability": "view",
      "type": "function"
    },
    {
      "inputs": [],
      "name": "currentMintRateUSD",
      "outputs": [
        {
          "internalType": "uint256",
          "name": "rate",
          "type": "uint256"
        }
      ],
      "stateMutability": "view",
      "type": "function"
    },
    {
      "inputs": [],
      "name": "currentNavUSD",
      "outputs": [
        {
          "internalType": "uint256",
          "name": "",
          "type": "uint256"
        }
      ],
      "stateMutability": "view",
      "type": "function"
    },
    {
      "inputs": [],
      "name": "dailyVolumeUSD",
      "outputs": [
        {
          "internalType": "uint256",
          "name": "",
          "type": "uint256"
        }
      ],
      "stateMutability": "view",
      "type": "function"
    },
    {
      "inputs": [
        {
          "internalType": "uint256",
          "name": "nonce",
          "type": "uint256"
        },
        {
          "internalType": "address",
          "name": "signer",
          "type": "address"
        },
        {
          "internalType": "bytes",
          "name": "sig",
          "type": "bytes"
        }
      ],
      "name": "delegatedApproveChange",
      "outputs": [],
      "stateMutability": "nonpayable",
      "type": "function"
    },
    {
      "inputs": [
        {
          "internalType": "address",
          "name": "signer",
          "type": "address"
        },
        {
          "internalType": "bytes",
          "name": "sig",
          "type": "bytes"
        }
      ],
      "name": "delegatedApproveResume",
      "outputs": [],
      "stateMutability": "nonpayable",
      "type": "function"
    },
    {
      "inputs": [
        {
          "internalType": "address",
          "name": "signer",
          "type": "address"
        },
        {
          "internalType": "bytes",
          "name": "sig",
          "type": "bytes"
        }
      ],
      "name": "delegatedApproveUpgrade",
      "outputs": [],
      "stateMutability": "nonpayable",
      "type": "function"
    },
    {
      "inputs": [],
      "name": "discountBps",
      "outputs": [
        {
          "internalType": "uint32",
          "name": "",
          "type": "uint32"
        }
      ],
      "stateMutability": "view",
      "type": "function"
    },
    {
      "inputs": [
        {
          "internalType": "address",
          "name": "rewardToken",
          "type": "address"
        },
        {
          "internalType": "uint256",
          "name": "dxblAmount",
          "type": "uint256"
        }
      ],
      "name": "estimateRedemption",
      "outputs": [
        {
          "internalType": "uint256",
          "name": "",
          "type": "uint256"
        }
      ],
      "stateMutability": "view",
      "type": "function"
    },
    {
      "inputs": [
        {
          "internalType": "address",
          "name": "feeToken",
          "type": "address"
        }
      ],
      "name": "feeTokenPriceUSD",
      "outputs": [
        {
          "internalType": "uint256",
          "name": "",
          "type": "uint256"
        }
      ],
      "stateMutability": "view",
      "type": "function"
    },
    {
      "inputs": [],
      "name": "getDXBLToken",
      "outputs": [
        {
          "internalType": "address",
          "name": "",
          "type": "address"
        }
      ],
      "stateMutability": "view",
      "type": "function"
    },
    {
      "inputs": [],
      "name": "getDexibleContract",
      "outputs": [
        {
          "internalType": "address",
          "name": "",
          "type": "address"
        }
      ],
      "stateMutability": "view",
      "type": "function"
    },
    {
      "inputs": [
        {
          "components": [
            {
              "internalType": "address",
              "name": "wrappedNativeToken",
              "type": "address"
            },
            {
              "internalType": "uint256",
              "name": "baseMintThreshold",
              "type": "uint256"
            },
            {
              "components": [
                {
                  "internalType": "uint16",
                  "name": "minMMVolume",
                  "type": "uint16"
                },
                {
                  "internalType": "uint16",
                  "name": "maxMMVolume",
                  "type": "uint16"
                },
                {
                  "internalType": "uint256",
                  "name": "rate",
                  "type": "uint256"
                }
              ],
              "internalType": "struct LibRevshare.MintRateRangeConfig[]",
              "name": "rateRanges",
              "type": "tuple[]"
            },
            {
              "components": [
                {
                  "internalType": "address[]",
                  "name": "feeTokens",
                  "type": "address[]"
                },
                {
                  "internalType": "address[]",
                  "name": "priceFeeds",
                  "type": "address[]"
                }
              ],
              "internalType": "struct LibRevshare.FeeTokenConfig",
              "name": "feeTokenConfig",
              "type": "tuple"
            },
            {
              "components": [
                {
                  "internalType": "uint8",
                  "name": "requiredSigs",
                  "type": "uint8"
                },
                {
                  "internalType": "uint32",
                  "name": "timelockSeconds",
                  "type": "uint32"
                },
                {
                  "internalType": "address",
                  "name": "logic",
                  "type": "address"
                },
                {
                  "internalType": "address[]",
                  "name": "approvers",
                  "type": "address[]"
                }
              ],
              "internalType": "struct LibMultiSig.MultiSigConfig",
              "name": "multiSigConfig",
              "type": "tuple"
            }
          ],
          "internalType": "struct LibRevshare.RevshareConfig",
          "name": "config",
          "type": "tuple"
        }
      ],
      "name": "initialize",
      "outputs": [],
      "stateMutability": "nonpayable",
      "type": "function"
    },
    {
      "inputs": [
        {
          "components": [
            {
              "internalType": "uint8",
              "name": "requiredSigs",
              "type": "uint8"
            },
            {
              "internalType": "uint32",
              "name": "timelockSeconds",
              "type": "uint32"
            },
            {
              "internalType": "address",
              "name": "logic",
              "type": "address"
            },
            {
              "internalType": "address[]",
              "name": "approvers",
              "type": "address[]"
            }
          ],
          "internalType": "struct LibMultiSig.MultiSigConfig",
          "name": "config",
          "type": "tuple"
        }
      ],
      "name": "initializeMSConfigurable",
      "outputs": [],
      "stateMutability": "nonpayable",
      "type": "function"
    },
    {
      "inputs": [
        {
          "internalType": "address",
          "name": "token",
          "type": "address"
        }
      ],
      "name": "isFeeTokenAllowed",
      "outputs": [
        {
          "internalType": "bool",
          "name": "",
          "type": "bool"
        }
      ],
      "stateMutability": "view",
      "type": "function"
    },
    {
      "inputs": [],
      "name": "isPaused",
      "outputs": [
        {
          "internalType": "bool",
          "name": "",
          "type": "bool"
        }
      ],
      "stateMutability": "view",
      "type": "function"
    },
    {
      "inputs": [],
      "name": "pause",
      "outputs": [],
      "stateMutability": "nonpayable",
      "type": "function"
    },
    {
      "inputs": [
        {
          "internalType": "address",
          "name": "rewardToken",
          "type": "address"
        },
        {
          "internalType": "uint256",
          "name": "dxblAmount",
          "type": "uint256"
        },
        {
          "internalType": "uint256",
          "name": "minOutAmount",
          "type": "uint256"
        }
      ],
      "name": "redeemDXBL",
      "outputs": [],
      "stateMutability": "nonpayable",
      "type": "function"
    },
    {
      "inputs": [
        {
          "internalType": "address",
          "name": "signer",
          "type": "address"
        }
      ],
      "name": "removeSigner",
      "outputs": [],
      "stateMutability": "nonpayable",
      "type": "function"
    },
    {
      "inputs": [
        {
          "internalType": "bytes",
          "name": "data",
          "type": "bytes"
        }
      ],
      "name": "requestChange",
      "outputs": [],
      "stateMutability": "nonpayable",
      "type": "function"
    },
    {
      "inputs": [],
      "name": "requestResume",
      "outputs": [],
      "stateMutability": "nonpayable",
      "type": "function"
    },
    {
      "inputs": [
        {
          "internalType": "address",
          "name": "logic",
          "type": "address"
        }
      ],
      "name": "requestUpgrade",
      "outputs": [],
      "stateMutability": "nonpayable",
      "type": "function"
    },
    {
      "inputs": [],
      "name": "resumeSigsNeeded",
      "outputs": [
        {
          "internalType": "uint8",
          "name": "",
          "type": "uint8"
        }
      ],
      "stateMutability": "view",
      "type": "function"
    },
    {
      "inputs": [
        {
          "internalType": "address",
          "name": "trader",
          "type": "address"
        },
        {
          "internalType": "address",
          "name": "feeToken",
          "type": "address"
        },
        {
          "internalType": "uint256",
          "name": "amount",
          "type": "uint256"
        }
      ],
      "name": "rewardTrader",
      "outputs": [],
      "stateMutability": "nonpayable",
      "type": "function"
    },
    {
      "inputs": [
        {
          "internalType": "address",
          "name": "token",
          "type": "address"
        }
      ],
      "name": "setDXBL",
      "outputs": [],
      "stateMutability": "nonpayable",
      "type": "function"
    },
    {
      "inputs": [
        {
          "internalType": "address",
          "name": "dex",
          "type": "address"
        }
      ],
      "name": "setDexible",
      "outputs": [],
      "stateMutability": "nonpayable",
      "type": "function"
    },
    {
      "inputs": [
        {
          "internalType": "uint32",
          "name": "bps",
          "type": "uint32"
        }
      ],
      "name": "setDiscountRateBps",
      "outputs": [],
      "stateMutability": "nonpayable",
      "type": "function"
    },
    {
      "inputs": [
        {
          "components": [
            {
              "internalType": "address[]",
              "name": "feeTokens",
              "type": "address[]"
            },
            {
              "internalType": "address[]",
              "name": "priceFeeds",
              "type": "address[]"
            }
          ],
          "internalType": "struct LibRevshare.FeeTokenConfig",
          "name": "details",
          "type": "tuple"
        }
      ],
      "name": "setFeeTokens",
      "outputs": [],
      "stateMutability": "nonpayable",
      "type": "function"
    },
    {
      "inputs": [
        {
          "components": [
            {
              "internalType": "uint16",
              "name": "minMMVolume",
              "type": "uint16"
            },
            {
              "internalType": "uint16",
              "name": "maxMMVolume",
              "type": "uint16"
            },
            {
              "internalType": "uint256",
              "name": "rate",
              "type": "uint256"
            }
          ],
          "internalType": "struct LibRevshare.MintRateRangeConfig[]",
          "name": "ranges",
          "type": "tuple[]"
        }
      ],
      "name": "setMintRates",
      "outputs": [],
      "stateMutability": "nonpayable",
      "type": "function"
    },
    {
      "inputs": [
        {
          "internalType": "uint8",
          "name": "sigs",
          "type": "uint8"
        }
      ],
      "name": "setRequiredSigs",
      "outputs": [],
      "stateMutability": "nonpayable",
      "type": "function"
    },
    {
      "inputs": [],
      "name": "upgradeSignaturesNeeded",
      "outputs": [
        {
          "internalType": "uint256",
          "name": "",
          "type": "uint256"
        }
      ],
      "stateMutability": "view",
      "type": "function"
    }
  ],
  "bytecode": "0x608060405234801561001057600080fd5b5061325f806100206000396000f3fe608060405234801561001057600080fd5b506004361061025e5760003560e01c806371a9730511610146578063b187bd26116100c3578063d514beaa11610087578063d514beaa146104db578063dc588141146104ee578063dcf52a8014610501578063e12a9b3c14610509578063e8c5fc481461051c578063eb12d61e1461052457600080fd5b8063b187bd2614610485578063b60f39621461048d578063c5fe9160146104ad578063c94fbd27146104c0578063ce25cb4d146104c857600080fd5b806384fd463a1161010a57806384fd463a1461043c5780638957a7e51461044f5780639738968c14610457578063a54c2d251461045f578063ab1094c01461047257600080fd5b806371a97305146103f15780637262f557146104065780637a393ff514610419578063821314701461042c5780638456cb591461043457600080fd5b806341b5774a116101df5780635d204718116101a35780635d204718146103705780635de11890146103935780636161791e1461039b57806364927984146103ae5780636b9f97ef146103c15780636c1f5633146103d457600080fd5b806341b5774a1461031c5780634648743714610324578063486bdd9d146103375780635b57a2ed1461034a5780635cd0b3ee1461035d57600080fd5b806331931af41161022657806331931af4146102c157806333e5614f146102d457806334357755146102dc57806335e3aa21146102f65780633931f45d1461030957600080fd5b80630e316ab71461026357806318ac3b151461027857806320529bb11461028b5780632807978e146102a65780632b9f73e1146102b9575b600080fd5b61027661027136600461252b565b610537565b005b61027661028636600461254f565b610624565b610293610986565b6040519081526020015b60405180910390f35b6102766102b4366004612593565b610a0b565b610276610ab8565b6102766102cf3660046125c2565b610b66565b610293610c34565b6102e4610cbb565b60405160ff909116815260200161029d565b6102766103043660046125df565b610d3a565b6102936103173660046125f8565b610df0565b610293610fe9565b610276610332366004612624565b61102c565b6102766103453660046126a6565b6110bc565b6102766103583660046125df565b611177565b61027661036b366004612701565b6111fd565b61038361037e36600461252b565b6112b5565b604051901515815260200161029d565b6102936112ea565b6102766103a93660046125df565b61132d565b6102766103bc366004612701565b611375565b6102766103cf36600461252b565b6113f7565b6103dc611485565b60405163ffffffff909116815260200161029d565b6103f9611507565b60405161029d9190612755565b6102936104143660046125f8565b61158a565b6102766104273660046127c2565b6116fd565b61029361177d565b610276611792565b61027661044a36600461252b565b611817565b6102766118f7565b610383611976565b61027661046d366004612803565b6119f5565b61027661048036600461283d565b611a8a565b610383611d1d565b610495611d30565b6040516001600160a01b03909116815260200161029d565b6102766104bb36600461252b565b611d4c565b610276611e39565b6102936104d636600461252b565b611eb8565b6102766104e93660046129f1565b611fa5565b6102936104fc3660046125df565b611fe5565b61027661206b565b610276610517366004612a25565b6120ea565b61049561217c565b61027661053236600461252b565b612198565b600061054161227f565b336000908152600d8201602052604090205490915060ff1661057e5760405162461bcd60e51b815260040161057590612a99565b60405180910390fd5b6001600160a01b0382166000036105c85760405162461bcd60e51b815260206004820152600e60248201526d24b73b30b634b21039b4b3b732b960911b6044820152606401610575565b60006105d261227f565b6001600160a01b0384166000818152600d83016020526040808220805460ff191690555192935090917f3525e22824a8a7df2c9a6029941c824cf95b6447f1e13d5128fd3826d35afe8b9190a2505050565b61062c61227f565b5460ff16156106705760405162461bcd60e51b815260206004820152601060248201526f139bdd081dda1a5b19481c185d5cd95960821b6044820152606401610575565b600061067a6122a3565b60018101546040516370a0823160e01b81523360048201529192506000916001600160a01b03909116906370a0823190602401602060405180830381865afa1580156106ca573d6000803e3d6000fd5b505050506040513d601f19601f820116820180604052508101906106ee9190612abf565b90508381101561074c5760405162461bcd60e51b815260206004820152602360248201527f496e73756666696369656e74204458424c2062616c616e636520746f2072656460448201526265656d60e81b6064820152608401610575565b604051637262f55760e01b81526001600160a01b0386166004820152602481018590526000903090637262f55790604401602060405180830381865afa15801561079a573d6000803e3d6000fd5b505050506040513d601f19601f820116820180604052508101906107be9190612abf565b6040516370a0823160e01b81523060048201529091506000906001600160a01b038816906370a0823190602401602060405180830381865afa158015610808573d6000803e3d6000fd5b505050506040513d601f19601f8201168201806040525081019061082c9190612abf565b9050808211156108b357848110610845578091506108b3565b60405162461bcd60e51b815260206004820152603e60248201527f496e73756666696369656e742061737365742062616c616e636520746f20707260448201527f6f6475636520657870656374656420776974686472617720616d6f756e7400006064820152608401610575565b6108c76001600160a01b03881633846122c7565b6001840154604051632770a7eb60e21b8152336004820152602481018890526001600160a01b0390911690639dc29fac90604401600060405180830381600087803b15801561091557600080fd5b505af1158015610929573d6000803e3d6000fd5b505060408051338152602081018a90526001600160a01b038b16818301526060810186905290517f5fe85dc899e158274a44abab0e6df5434416f0ce11df30d42e02f229b8fc8a419350908190036080019150a150505050505050565b60006109906122a3565b6040516354ab16a360e01b8152600481019190915273__$e4ef3559df0bc4c3af9eab81c1a9317092$__906354ab16a3906024015b602060405180830381865af41580156109e2573d6000803e3d6000fd5b505050506040513d601f19601f82011682018060405250810190610a069190612abf565b905090565b631403cbc760e11b6000610a1d61227f565b6001600160e01b031983166000908152600c8201602052604090205490915060ff16610a5b5760405162461bcd60e51b815260040161057590612ad8565b6000610a6561227f565b805461ff00191661010060ff87169081029190911782556040519081529091507f996d24db4a86034b8a07339305b06563c6b9e34fc887a6f84dbba1d64f690fd79060200160405180910390a150505050565b6000610ac261227f565b336000908152600d8201602052604090205490915060ff16610af65760405162461bcd60e51b815260040161057590612a99565b610afe61227f565b60405163b5c1a4bd60e01b8152600481019190915273__$a1eb5e9a06dc78666997fa26b97107c1d0$__9063b5c1a4bd906024015b60006040518083038186803b158015610b4b57600080fd5b505af4158015610b5f573d6000803e3d6000fd5b5050505050565b630c64c6bd60e21b6000610b7861227f565b6001600160e01b031983166000908152600c8201602052604090205490915060ff16610bb65760405162461bcd60e51b815260040161057590612ad8565b610bbe6122a3565b604051632fbd694960e21b8152600481019190915263ffffffff8416602482015273__$bbacb56986ef200bccd12c0a471dd815f3$__9063bef5a524906044015b60006040518083038186803b158015610c1757600080fd5b505af4158015610c2b573d6000803e3d6000fd5b50505050505050565b6000610c3e61227f565b6040516396deafed60e01b8152600481019190915273__$a1eb5e9a06dc78666997fa26b97107c1d0$__906396deafed90602401602060405180830381865af4158015610c8f573d6000803e3d6000fd5b505050506040513d601f19601f82011682018060405250810190610cb39190612b06565b60ff16905090565b6000610cc561227f565b6040516319477f2b60e11b8152600481019190915273__$a1eb5e9a06dc78666997fa26b97107c1d0$__9063328efe5690602401602060405180830381865af4158015610d16573d6000803e3d6000fd5b505050506040513d601f19601f82011682018060405250810190610a069190612b06565b6000610d4461227f565b336000908152600d8201602052604090205490915060ff16610d785760405162461bcd60e51b815260040161057590612a99565b610d8061227f565b604051633cf6e7e560e11b815260048101919091526024810183905273__$a1eb5e9a06dc78666997fa26b97107c1d0$__906379edcfca906044015b60006040518083038186803b158015610dd457600080fd5b505af4158015610de8573d6000803e3d6000fd5b505050505050565b600080610dfb6122a3565b60038101549091506001600160a01b0390811690851603610e1f5782915050610fe3565b60038101546001600160a01b03166000908152602582016020526040808220905163045a68f760e41b8152600481019190915273__$e4ef3559df0bc4c3af9eab81c1a9317092$__906345a68f7090602401602060405180830381865af4158015610e8e573d6000803e3d6000fd5b505050506040513d601f19601f82011682018060405250810190610eb29190612abf565b6001600160a01b0386166000908152602584016020526040808220905163045a68f760e41b815260048101919091529192509073__$e4ef3559df0bc4c3af9eab81c1a9317092$__906345a68f7090602401602060405180830381865af4158015610f21573d6000803e3d6000fd5b505050506040513d601f19601f82011682018060405250810190610f459190612abf565b9050600081610f616c0c9f2c9cd04674edea4000000085612b39565b610f6b9190612b50565b905060006c0c9f2c9cd04674edea40000000610f878884612b39565b610f919190612b50565b6001600160a01b0389166000908152602487016020526040902054909150670de0b6b3a764000090610fc79060ff16600a612c56565b610fd19083612b39565b610fdb9190612b50565b955050505050505b92915050565b6000610ff36122a3565b604051630f8eee6560e21b8152600481019190915273__$e4ef3559df0bc4c3af9eab81c1a9317092$__90633e3bb994906024016109c5565b634648743760e01b600061103e61227f565b6001600160e01b031983166000908152600c8201602052604090205490915060ff1661107c5760405162461bcd60e51b815260040161057590612ad8565b6110846122a3565b60405163a0caec1d60e01b815273__$bbacb56986ef200bccd12c0a471dd815f3$__9163a0caec1d91610bff91908790600401612d41565b60006110c661227f565b336000908152600d8201602052604090205490915060ff166110fa5760405162461bcd60e51b815260040161057590612a99565b61110261227f565b60405163b190721f60e01b815273__$a1eb5e9a06dc78666997fa26b97107c1d0$__9163b190721f9161114091908990899089908990600401612d83565b60006040518083038186803b15801561115857600080fd5b505af415801561116c573d6000803e3d6000fd5b505050505050505050565b600061118161227f565b336000908152600d8201602052604090205490915060ff166111b55760405162461bcd60e51b815260040161057590612a99565b6111bd61227f565b6040516341ae60fd60e01b815260048101919091526024810183905273__$a1eb5e9a06dc78666997fa26b97107c1d0$__906341ae60fd90604401610dbc565b600061120761227f565b336000908152600d8201602052604090205490915060ff1661123b5760405162461bcd60e51b815260040161057590612a99565b61124361227f565b604051634552300560e11b815273__$a1eb5e9a06dc78666997fa26b97107c1d0$__91638aa4600a9161127f9190889088908890600401612db1565b60006040518083038186803b15801561129757600080fd5b505af41580156112ab573d6000803e3d6000fd5b5050505050505050565b6000806112c06122a3565b6001600160a01b039384166000908152602591909101602052604090205490921690911415919050565b60006112f46122a3565b604051633908dabb60e21b8152600481019190915273__$e4ef3559df0bc4c3af9eab81c1a9317092$__9063e4236aec906024016109c5565b61133561227f565b6040516366c373c960e01b815260048101919091526024810182905273__$a1eb5e9a06dc78666997fa26b97107c1d0$__906366c373c990604401610b33565b600061137f61227f565b336000908152600d8201602052604090205490915060ff166113b35760405162461bcd60e51b815260040161057590612a99565b6113bb61227f565b604051633b32d55d60e21b815273__$a1eb5e9a06dc78666997fa26b97107c1d0$__9163eccb55749161127f9190889088908890600401612db1565b600061140161227f565b336000908152600d8201602052604090205490915060ff166114355760405162461bcd60e51b815260040161057590612a99565b61143d61227f565b604051632791078760e21b815260048101919091526001600160a01b038316602482015273__$a1eb5e9a06dc78666997fa26b97107c1d0$__90639e441e1c90604401610dbc565b600061148f6122a3565b60010160009054906101000a90046001600160a01b03166001600160a01b031663566826d16040518163ffffffff1660e01b8152600401602060405180830381865afa1580156114e3573d6000803e3d6000fd5b505050506040513d601f19601f82011682018060405250810190610a069190612ddc565b60606115116122a3565b6040516315621db360e11b8152600481019190915273__$e4ef3559df0bc4c3af9eab81c1a9317092$__90632ac43b6690602401600060405180830381865af4158015611562573d6000803e3d6000fd5b505050506040513d6000823e601f3d908101601f19168201604052610a069190810190612df9565b6000806115956122a3565b604051633908dabb60e21b81526004810182905290915060009073__$e4ef3559df0bc4c3af9eab81c1a9317092$__9063e4236aec90602401602060405180830381865af41580156115eb573d6000803e3d6000fd5b505050506040513d601f19601f8201168201806040525081019061160f9190612abf565b9050620f424061162c6c0c9f2c9cd04674edea4000000083612b39565b6116369190612b50565b60405163ce25cb4d60e01b81526001600160a01b0387166004820152909150600090309063ce25cb4d90602401602060405180830381865afa158015611680573d6000803e3d6000fd5b505050506040513d601f19601f820116820180604052508101906116a49190612abf565b6001600160a01b038716600090815260248501602052604081205491925060ff90911690826116d483600a612c56565b6116de9086612b39565b6116e89190612b50565b9050670de0b6b3a7640000610fd18289612b39565b600061170761227f565b336000908152600d8201602052604090205490915060ff1661173b5760405162461bcd60e51b815260040161057590612a99565b61174361227f565b6040516326373dcf60e21b815273__$a1eb5e9a06dc78666997fa26b97107c1d0$__916398dcf73c91610bff919087908790600401612ec0565b6000806117886122a3565b6005015492915050565b600061179c61227f565b336000908152600d8201602052604090205490915060ff166117d05760405162461bcd60e51b815260040161057590612a99565b60006117da61227f565b805460ff1916600117815560405190915033907f62e78cea01bee320cd4e420270b5ea74000d11b0c9f74754ebdbfc544b05a25890600090a25050565b60006118216122a3565b90506001600160a01b0382166118795760405162461bcd60e51b815260206004820152601a60248201527f496e76616c6964204458424c20746f6b656e20616464726573730000000000006044820152606401610575565b60018101546001600160a01b0316156118d45760405162461bcd60e51b815260206004820181905260248201527f416c726561647920696e697469616c697a6564204458424c20616464726573736044820152606401610575565b60010180546001600160a01b0319166001600160a01b0392909216919091179055565b600061190161227f565b336000908152600d8201602052604090205490915060ff166119355760405162461bcd60e51b815260040161057590612a99565b61193d61227f565b60405163dc02380960e01b8152600481019190915273__$a1eb5e9a06dc78666997fa26b97107c1d0$__9063dc02380990602401610b33565b600061198061227f565b6040516330a340ab60e21b8152600481019190915273__$a1eb5e9a06dc78666997fa26b97107c1d0$__9063c28d02ac90602401602060405180830381865af41580156119d1573d6000803e3d6000fd5b505050506040513d601f19601f82011682018060405250810190610a069190612ee3565b60006119ff6122a3565b604051634346197160e01b815290915073__$bbacb56986ef200bccd12c0a471dd815f3$__90634346197190611a3b9084908690600401613010565b60006040518083038186803b158015611a5357600080fd5b505af4158015611a67573d6000803e3d6000fd5b50611a869250611a7d91505060808401846130e9565b6104e990613109565b5050565b611a926122a3565b600201546001600160a01b03163314611abd5760405162461bcd60e51b815260040161057590612a99565b611ac561227f565b5460ff1615611b095760405162461bcd60e51b815260206004820152601060248201526f139bdd081dda1a5b19481c185d5cd95960821b6044820152606401610575565b6000611b136122a3565b6040516376a16af760e01b8152600481018290526001600160a01b03851660248201526044810184905290915060009073__$e4ef3559df0bc4c3af9eab81c1a9317092$__906376a16af790606401602060405180830381865af4158015611b7f573d6000803e3d6000fd5b505050506040513d601f19601f82011682018060405250810190611ba39190612abf565b604051630f8eee6560e21b81526004810184905290915060009073__$e4ef3559df0bc4c3af9eab81c1a9317092$__90633e3bb99490602401602060405180830381865af4158015611bf9573d6000803e3d6000fd5b505050506040513d601f19601f82011682018060405250810190611c1d9190612abf565b60405162df707d60e61b8152600481018590526024810184905290915073__$e4ef3559df0bc4c3af9eab81c1a9317092$__906337dc1f409060440160006040518083038186803b158015611c7157600080fd5b505af4158015611c85573d6000803e3d6000fd5b5050505060008183670de0b6b3a7640000611ca09190612b39565b611caa9190612b50565b60018501546040516340c10f1960e01b81526001600160a01b038a81166004830152602482018490529293509116906340c10f1990604401600060405180830381600087803b158015611cfc57600080fd5b505af1158015611d10573d6000803e3d6000fd5b5050505050505050505050565b6000611d2761227f565b5460ff16919050565b6000611d3a6122a3565b600101546001600160a01b0316919050565b6000611d566122a3565b60028101549091506001600160a01b031615611dc05760405162461bcd60e51b815260206004820152602360248201527f416c726561647920696e697469616c697a65642044657869626c65206164647260448201526265737360e81b6064820152608401610575565b6001600160a01b038216611e165760405162461bcd60e51b815260206004820152601760248201527f496e76616c69642064657869626c6520616464726573730000000000000000006044820152606401610575565b60020180546001600160a01b0319166001600160a01b0392909216919091179055565b6000611e4361227f565b336000908152600d8201602052604090205490915060ff16611e775760405162461bcd60e51b815260040161057590612a99565b611e7f61227f565b604051634e3e101b60e01b8152600481019190915273__$a1eb5e9a06dc78666997fa26b97107c1d0$__90634e3e101b90602401610b33565b600080611ec36122a3565b6001600160a01b038085166000908152602583016020526040902080549293509116611f295760405162461bcd60e51b81526020600482015260156024820152742ab739bab83837b93a32b2103332b2903a37b5b2b760591b6044820152606401610575565b60405163045a68f760e41b81526004810182905273__$e4ef3559df0bc4c3af9eab81c1a9317092$__906345a68f7090602401602060405180830381865af4158015611f79573d6000803e3d6000fd5b505050506040513d601f19601f82011682018060405250810190611f9d9190612abf565b949350505050565b611fad61227f565b60405163e84ba0a360e01b815273__$a1eb5e9a06dc78666997fa26b97107c1d0$__9163e84ba0a391610b3391908590600401613115565b6000611fef61227f565b6040516384c81e4d60e01b815260048101919091526024810183905273__$a1eb5e9a06dc78666997fa26b97107c1d0$__906384c81e4d90604401602060405180830381865af4158015612047573d6000803e3d6000fd5b505050506040513d601f19601f82011682018060405250810190610fe39190612abf565b600061207561227f565b336000908152600d8201602052604090205490915060ff166120a95760405162461bcd60e51b815260040161057590612a99565b6120b161227f565b604051630cb8674760e01b8152600481019190915273__$a1eb5e9a06dc78666997fa26b97107c1d0$__90630cb8674790602401610b33565b63384aa6cf60e21b60006120fc61227f565b6001600160e01b031983166000908152600c8201602052604090205490915060ff1661213a5760405162461bcd60e51b815260040161057590612ad8565b6121426122a3565b60405163460aa8db60e01b815273__$bbacb56986ef200bccd12c0a471dd815f3$__9163460aa8db9161127f9190889088906004016131a6565b60006121866122a3565b600201546001600160a01b0316919050565b60006121a261227f565b336000908152600d8201602052604090205490915060ff166121d65760405162461bcd60e51b815260040161057590612a99565b6001600160a01b0382166000036122205760405162461bcd60e51b815260206004820152600e60248201526d24b73b30b634b21039b4b3b732b960911b6044820152606401610575565b600061222a61227f565b6001600160a01b0384166000818152600d83016020526040808220805460ff191660011790555192935090917f47d1c22a25bb3a5d4e481b9b1e6944c2eade3181a0a20b495ed61d35b5323f249190a2505050565b7f95345cad9ec96dfc8c5b0a875a5c498451c293011b6404d5fac2627c08bc661c90565b7fbfa76ec2967ed7f8d3d40cd552f1451ab03573b596bfce931a6a016f7733078c90565b604080516001600160a01b038416602482015260448082018490528251808303909101815260649091019091526020810180516001600160e01b031663a9059cbb60e01b17905261231990849061231e565b505050565b6000612373826040518060400160405280602081526020017f5361666545524332303a206c6f772d6c6576656c2063616c6c206661696c6564815250856001600160a01b03166123f09092919063ffffffff16565b80519091501561231957808060200190518101906123919190612ee3565b6123195760405162461bcd60e51b815260206004820152602a60248201527f5361666545524332303a204552433230206f7065726174696f6e20646964206e6044820152691bdd081cdd58d8d9595960b21b6064820152608401610575565b6060611f9d848460008585600080866001600160a01b0316858760405161241791906131e4565b60006040518083038185875af1925050503d8060008114612454576040519150601f19603f3d011682016040523d82523d6000602084013e612459565b606091505b509150915061246a87838387612475565b979650505050505050565b606083156124e45782516000036124dd576001600160a01b0385163b6124dd5760405162461bcd60e51b815260206004820152601d60248201527f416464726573733a2063616c6c20746f206e6f6e2d636f6e74726163740000006044820152606401610575565b5081611f9d565b611f9d83838151156124f95781518083602001fd5b8060405162461bcd60e51b815260040161057591906131f6565b6001600160a01b038116811461252857600080fd5b50565b60006020828403121561253d57600080fd5b813561254881612513565b9392505050565b60008060006060848603121561256457600080fd5b833561256f81612513565b95602085013595506040909401359392505050565b60ff8116811461252857600080fd5b6000602082840312156125a557600080fd5b813561254881612584565b63ffffffff8116811461252857600080fd5b6000602082840312156125d457600080fd5b8135612548816125b0565b6000602082840312156125f157600080fd5b5035919050565b6000806040838503121561260b57600080fd5b823561261681612513565b946020939093013593505050565b60006020828403121561263657600080fd5b81356001600160401b0381111561264c57600080fd5b82016040818503121561254857600080fd5b60008083601f84011261267057600080fd5b5081356001600160401b0381111561268757600080fd5b60208301915083602082850101111561269f57600080fd5b9250929050565b600080600080606085870312156126bc57600080fd5b8435935060208501356126ce81612513565b925060408501356001600160401b038111156126e957600080fd5b6126f58782880161265e565b95989497509550505050565b60008060006040848603121561271657600080fd5b833561272181612513565b925060208401356001600160401b0381111561273c57600080fd5b6127488682870161265e565b9497909650939450505050565b602080825282518282018190526000919060409081850190868401855b828110156127b557815180516001600160a01b03168552868101518786015285810151868601526060908101519085015260809093019290850190600101612772565b5091979650505050505050565b600080602083850312156127d557600080fd5b82356001600160401b038111156127eb57600080fd5b6127f78582860161265e565b90969095509350505050565b60006020828403121561281557600080fd5b81356001600160401b0381111561282b57600080fd5b820160a0818503121561254857600080fd5b60008060006060848603121561285257600080fd5b833561285d81612513565b9250602084013561286d81612513565b929592945050506040919091013590565b634e487b7160e01b600052604160045260246000fd5b604051608081016001600160401b03811182821017156128b6576128b661287e565b60405290565b604051601f8201601f191681016001600160401b03811182821017156128e4576128e461287e565b604052919050565b60006001600160401b038211156129055761290561287e565b5060051b60200190565b60006080828403121561292157600080fd5b612929612894565b9050813561293681612584565b8152602082810135612947816125b0565b82820152604083013561295981612513565b604083015260608301356001600160401b0381111561297757600080fd5b8301601f8101851361298857600080fd5b803561299b612996826128ec565b6128bc565b81815260059190911b820183019083810190878311156129ba57600080fd5b928401925b828410156129e15783356129d281612513565b825292840192908401906129bf565b6060860152509295945050505050565b600060208284031215612a0357600080fd5b81356001600160401b03811115612a1957600080fd5b611f9d8482850161290f565b60008060208385031215612a3857600080fd5b82356001600160401b0380821115612a4f57600080fd5b818501915085601f830112612a6357600080fd5b813581811115612a7257600080fd5b866020606083028501011115612a8757600080fd5b60209290920196919550909350505050565b6020808252600c908201526b155b985d5d1a1bdc9a5e995960a21b604082015260600190565b600060208284031215612ad157600080fd5b5051919050565b602080825260149082015273139bdd08185c1c1c9bdd9959081d1bc818d85b1b60621b604082015260600190565b600060208284031215612b1857600080fd5b815161254881612584565b634e487b7160e01b600052601160045260246000fd5b8082028115828204841417610fe357610fe3612b23565b600082612b6d57634e487b7160e01b600052601260045260246000fd5b500490565b600181815b80851115612bad578160001904821115612b9357612b93612b23565b80851615612ba057918102915b93841c9390800290612b77565b509250929050565b600082612bc457506001610fe3565b81612bd157506000610fe3565b8160018114612be75760028114612bf157612c0d565b6001915050610fe3565b60ff841115612c0257612c02612b23565b50506001821b610fe3565b5060208310610133831016604e8410600b8410161715612c30575081810a610fe3565b612c3a8383612b72565b8060001904821115612c4e57612c4e612b23565b029392505050565b600061254860ff841683612bb5565b6000808335601e19843603018112612c7c57600080fd5b83016020810192503590506001600160401b03811115612c9b57600080fd5b8060051b360382131561269f57600080fd5b8183526000602080850194508260005b85811015612ceb578135612cd081612513565b6001600160a01b031687529582019590820190600101612cbd565b509495945050505050565b6000612d028283612c65565b60408552612d14604086018284612cad565b915050612d246020840184612c65565b8583036020870152612d37838284612cad565b9695505050505050565b828152604060208201526000611f9d6040830184612cf6565b81835281816020850137506000828201602090810191909152601f909101601f19169091010190565b85815284602082015260018060a01b038416604082015260806060820152600061246a608083018486612d5a565b8481526001600160a01b0384166020820152606060408201819052600090612d379083018486612d5a565b600060208284031215612dee57600080fd5b8151612548816125b0565b60006020808385031215612e0c57600080fd5b82516001600160401b03811115612e2257600080fd5b8301601f81018513612e3357600080fd5b8051612e41612996826128ec565b81815260079190911b82018301908381019087831115612e6057600080fd5b928401925b8284101561246a5760808489031215612e7e5760008081fd5b612e86612894565b8451612e9181612513565b815284860151868201526040808601519082015260608086015190820152825260809093019290840190612e65565b838152604060208201526000612eda604083018486612d5a565b95945050505050565b600060208284031215612ef557600080fd5b8151801515811461254857600080fd5b803561ffff81168114612f1757600080fd5b919050565b8183526000602080850194508260005b85811015612ceb5761ffff80612f4184612f05565b16885280612f50858501612f05565b1688850152506040828101359088015260609687019690910190600101612f2c565b60008235603e19833603018112612f8857600080fd5b90910192915050565b60008235607e19833603018112612f8857600080fd5b60008135612fb481612584565b60ff1683526020820135612fc7816125b0565b63ffffffff1660208401526040820135612fe081612513565b6001600160a01b03166040840152612ffb6060830183612c65565b60806060860152612eda608086018284612cad565b828152604060208201526000823561302781612513565b6001600160a01b03166040838101919091526020840135606084015283013536849003601e1901811261305957600080fd5b83016020810190356001600160401b0381111561307557600080fd5b60608102360382131561308757600080fd5b60a0608085015261309c60e085018284612f1c565b9150506130ac6060850185612f72565b603f19808584030160a08601526130c38383612cf6565b92506130d26080870187612f91565b9150808584030160c086015250612d378282612fa7565b60008235607e198336030181126130ff57600080fd5b9190910192915050565b6000610fe3368361290f565b8281526000602060408184015260c0830160ff855116604085015263ffffffff82860151166060850152604085015160018060a01b03808216608087015260608701519150608060a087015282825180855260e0880191508584019450600093505b8084101561319957845183168252938501936001939093019290850190613177565b5098975050505050505050565b838152604060208201526000612eda604083018486612f1c565b60005b838110156131db5781810151838201526020016131c3565b50506000910152565b600082516130ff8184602087016131c0565b60208152600082518060208401526132158160408501602087016131c0565b601f01601f1916919091016040019291505056fea2646970667358221220e6f0c42cf7a0be0b46988ca934e3add91cb9d6da40cc42300280a5828e9737f164736f6c63430008110033",
  "linkReferences": {
    "contracts/libraries/LibMultiSig.sol": {
      "LibMultiSig": [
        {
          "length": 20,
          "start": 2869
        },
        {
          "length": 20,
          "start": 3189
        },
        {
          "length": 20,
          "start": 3324
        },
        {
          "length": 20,
          "start": 3518
        },
        {
          "length": 20,
          "start": 4401
        },
        {
          "length": 20,
          "start": 4603
        },
        {
          "length": 20,
          "start": 4722
        },
        {
          "length": 20,
          "start": 4979
        },
        {
          "length": 20,
          "start": 5098
        },
        {
          "length": 20,
          "start": 5251
        },
        {
          "length": 20,
          "start": 6002
        },
        {
          "length": 20,
          "start": 6516
        },
        {
          "length": 20,
          "start": 6583
        },
        {
          "length": 20,
          "start": 7862
        },
        {
          "length": 20,
          "start": 8156
        },
        {
          "length": 20,
          "start": 8237
        },
        {
          "length": 20,
          "start": 8424
        }
      ]
    },
    "contracts/libraries/LibRSUtils.sol": {
      "LibRSUtils": [
        {
          "length": 20,
          "start": 2503
        },
        {
          "length": 20,
          "start": 3700
        },
        {
          "length": 20,
          "start": 3847
        },
        {
          "length": 20,
          "start": 4138
        },
        {
          "length": 20,
          "start": 4907
        },
        {
          "length": 20,
          "start": 5448
        },
        {
          "length": 20,
          "start": 5585
        },
        {
          "length": 20,
          "start": 7013
        },
        {
          "length": 20,
          "start": 7135
        },
        {
          "length": 20,
          "start": 7260
        },
        {
          "length": 20,
          "start": 8031
        }
      ]
    },
    "contracts/libraries/LibRevshare.sol": {
      "LibRevshare": [
        {
          "length": 20,
          "start": 3073
        },
        {
          "length": 20,
          "start": 4275
        },
        {
          "length": 20,
          "start": 6705
        },
        {
          "length": 20,
          "start": 8561
        }
      ]
    }
  },
  "deployedLinkReferences": {
    "contracts/libraries/LibMultiSig.sol": {
      "LibMultiSig": [
        {
          "length": 20,
          "start": 2837
        },
        {
          "length": 20,
          "start": 3157
        },
        {
          "length": 20,
          "start": 3292
        },
        {
          "length": 20,
          "start": 3486
        },
        {
          "length": 20,
          "start": 4369
        },
        {
          "length": 20,
          "start": 4571
        },
        {
          "length": 20,
          "start": 4690
        },
        {
          "length": 20,
          "start": 4947
        },
        {
          "length": 20,
          "start": 5066
        },
        {
          "length": 20,
          "start": 5219
        },
        {
          "length": 20,
          "start": 5970
        },
        {
          "length": 20,
          "start": 6484
        },
        {
          "length": 20,
          "start": 6551
        },
        {
          "length": 20,
          "start": 7830
        },
        {
          "length": 20,
          "start": 8124
        },
        {
          "length": 20,
          "start": 8205
        },
        {
          "length": 20,
          "start": 8392
        }
      ]
    },
    "contracts/libraries/LibRSUtils.sol": {
      "LibRSUtils": [
        {
          "length": 20,
          "start": 2471
        },
        {
          "length": 20,
          "start": 3668
        },
        {
          "length": 20,
          "start": 3815
        },
        {
          "length": 20,
          "start": 4106
        },
        {
          "length": 20,
          "start": 4875
        },
        {
          "length": 20,
          "start": 5416
        },
        {
          "length": 20,
          "start": 5553
        },
        {
          "length": 20,
          "start": 6981
        },
        {
          "length": 20,
          "start": 7103
        },
        {
          "length": 20,
          "start": 7228
        },
        {
          "length": 20,
          "start": 7999
        }
      ]
    },
    "contracts/libraries/LibRevshare.sol": {
      "LibRevshare": [
        {
          "length": 20,
          "start": 3041
        },
        {
          "length": 20,
          "start": 4243
        },
        {
          "length": 20,
          "start": 6673
        },
        {
          "length": 20,
          "start": 8529
        }
      ]
    }
  }
}