{
  "_format": "hh-sol-artifact-1",
  "contractName": "RevshareVault",
  "sourceName": "contracts/revshare/RevshareVault.sol",
  "abi": [
    {
      "anonymous": false,
      "inputs": [
        {
          "indexed": false,
          "internalType": "uint256",
          "name": "newVolume",
          "type": "uint256"
        }
      ],
      "name": "AppliedVolumeGoal",
      "type": "event"
    },
    {
      "anonymous": false,
      "inputs": [
        {
          "indexed": false,
          "internalType": "uint32",
          "name": "stdRate",
          "type": "uint32"
        },
        {
          "indexed": false,
          "internalType": "uint32",
          "name": "minRate",
          "type": "uint32"
        }
      ],
      "name": "BpsChanged",
      "type": "event"
    },
    {
      "anonymous": false,
      "inputs": [
        {
          "indexed": true,
          "internalType": "address",
          "name": "approver",
          "type": "address"
        },
        {
          "indexed": false,
          "internalType": "bytes4",
          "name": "selector",
          "type": "bytes4"
        },
        {
          "indexed": false,
          "internalType": "bytes32",
          "name": "sigHash",
          "type": "bytes32"
        },
        {
          "indexed": false,
          "internalType": "uint256",
          "name": "nonce",
          "type": "uint256"
        },
        {
          "indexed": false,
          "internalType": "uint256",
          "name": "timelockExpiration",
          "type": "uint256"
        }
      ],
      "name": "ChangeRequested",
      "type": "event"
    },
    {
      "anonymous": false,
      "inputs": [
        {
          "indexed": false,
          "internalType": "address",
          "name": "holder",
          "type": "address"
        },
        {
          "indexed": false,
          "internalType": "uint256",
          "name": "dxblAmount",
          "type": "uint256"
        },
        {
          "indexed": false,
          "internalType": "address",
          "name": "rewardToken",
          "type": "address"
        },
        {
          "indexed": false,
          "internalType": "uint256",
          "name": "rewardAmount",
          "type": "uint256"
        }
      ],
      "name": "DXBLRedeemed",
      "type": "event"
    },
    {
      "anonymous": false,
      "inputs": [
        {
          "indexed": false,
          "internalType": "uint32",
          "name": "newRate",
          "type": "uint32"
        }
      ],
      "name": "DiscountChanged",
      "type": "event"
    },
    {
      "anonymous": false,
      "inputs": [
        {
          "indexed": true,
          "internalType": "address",
          "name": "token",
          "type": "address"
        },
        {
          "indexed": true,
          "internalType": "address",
          "name": "priceFeed",
          "type": "address"
        }
      ],
      "name": "FeeTokenAdded",
      "type": "event"
    },
    {
      "anonymous": false,
      "inputs": [
        {
          "indexed": true,
          "internalType": "address",
          "name": "token",
          "type": "address"
        }
      ],
      "name": "FeeTokenRemoved",
      "type": "event"
    },
    {
      "anonymous": false,
      "inputs": [
        {
          "indexed": true,
          "internalType": "address",
          "name": "newLogic",
          "type": "address"
        }
      ],
      "name": "LogicUpgraded",
      "type": "event"
    },
    {
      "anonymous": false,
      "inputs": [
        {
          "indexed": false,
          "internalType": "uint16",
          "name": "minThreshold",
          "type": "uint16"
        },
        {
          "indexed": false,
          "internalType": "uint16",
          "name": "maxThreshold",
          "type": "uint16"
        },
        {
          "indexed": false,
          "internalType": "uint256",
          "name": "percentage",
          "type": "uint256"
        }
      ],
      "name": "MintRateChange",
      "type": "event"
    },
    {
      "anonymous": false,
      "inputs": [
        {
          "indexed": true,
          "internalType": "address",
          "name": "caller",
          "type": "address"
        }
      ],
      "name": "Paused",
      "type": "event"
    },
    {
      "anonymous": false,
      "inputs": [
        {
          "indexed": false,
          "internalType": "uint32",
          "name": "oldStdRate",
          "type": "uint32"
        },
        {
          "indexed": false,
          "internalType": "uint32",
          "name": "newStdRate",
          "type": "uint32"
        },
        {
          "indexed": false,
          "internalType": "uint32",
          "name": "oldMinRate",
          "type": "uint32"
        },
        {
          "indexed": false,
          "internalType": "uint32",
          "name": "newMinRate",
          "type": "uint32"
        },
        {
          "indexed": false,
          "internalType": "uint256",
          "name": "allowedAfterTime",
          "type": "uint256"
        }
      ],
      "name": "ProposedBpsChange",
      "type": "event"
    },
    {
      "anonymous": false,
      "inputs": [
        {
          "indexed": false,
          "internalType": "uint32",
          "name": "oldRate",
          "type": "uint32"
        },
        {
          "indexed": false,
          "internalType": "uint32",
          "name": "newRate",
          "type": "uint32"
        },
        {
          "indexed": false,
          "internalType": "uint256",
          "name": "allowedAfterTime",
          "type": "uint256"
        }
      ],
      "name": "ProposedDiscountChange",
      "type": "event"
    },
    {
      "anonymous": false,
      "inputs": [
        {
          "indexed": true,
          "internalType": "address",
          "name": "token",
          "type": "address"
        },
        {
          "indexed": true,
          "internalType": "address",
          "name": "priceFeed",
          "type": "address"
        },
        {
          "indexed": false,
          "internalType": "bool",
          "name": "removal",
          "type": "bool"
        },
        {
          "indexed": false,
          "internalType": "uint256",
          "name": "allowedAfterTime",
          "type": "uint256"
        }
      ],
      "name": "ProposedFeeToken",
      "type": "event"
    },
    {
      "anonymous": false,
      "inputs": [
        {
          "indexed": false,
          "internalType": "uint16",
          "name": "minThreshold",
          "type": "uint16"
        },
        {
          "indexed": false,
          "internalType": "uint16",
          "name": "maxThreshold",
          "type": "uint16"
        },
        {
          "indexed": false,
          "internalType": "uint256",
          "name": "percentage",
          "type": "uint256"
        },
        {
          "indexed": false,
          "internalType": "uint256",
          "name": "allowedAfterTime",
          "type": "uint256"
        }
      ],
      "name": "ProposedMintRateChange",
      "type": "event"
    },
    {
      "anonymous": false,
      "inputs": [
        {
          "indexed": false,
          "internalType": "uint256",
          "name": "oldVolume",
          "type": "uint256"
        },
        {
          "indexed": false,
          "internalType": "uint256",
          "name": "newVolume",
          "type": "uint256"
        },
        {
          "indexed": false,
          "internalType": "uint256",
          "name": "allowedAfterTime",
          "type": "uint256"
        }
      ],
      "name": "ProposedVolumeGoal",
      "type": "event"
    },
    {
      "anonymous": false,
      "inputs": [
        {
          "indexed": false,
          "internalType": "uint256",
          "name": "newReq",
          "type": "uint256"
        }
      ],
      "name": "RequiredSigChanged",
      "type": "event"
    },
    {
      "anonymous": false,
      "inputs": [
        {
          "indexed": true,
          "internalType": "address",
          "name": "approvder",
          "type": "address"
        },
        {
          "indexed": false,
          "internalType": "bytes32",
          "name": "sigHash",
          "type": "bytes32"
        }
      ],
      "name": "ResumeRequested",
      "type": "event"
    },
    {
      "anonymous": false,
      "inputs": [],
      "name": "ResumedOperations",
      "type": "event"
    },
    {
      "anonymous": false,
      "inputs": [
        {
          "indexed": true,
          "internalType": "address",
          "name": "signer",
          "type": "address"
        }
      ],
      "name": "SignerAdded",
      "type": "event"
    },
    {
      "anonymous": false,
      "inputs": [
        {
          "indexed": true,
          "internalType": "address",
          "name": "signer",
          "type": "address"
        }
      ],
      "name": "SignerRemoved",
      "type": "event"
    },
    {
      "anonymous": false,
      "inputs": [
        {
          "indexed": true,
          "internalType": "address",
          "name": "approver",
          "type": "address"
        },
        {
          "indexed": false,
          "internalType": "address",
          "name": "logic",
          "type": "address"
        },
        {
          "indexed": false,
          "internalType": "bytes32",
          "name": "sigHash",
          "type": "bytes32"
        },
        {
          "indexed": false,
          "internalType": "uint256",
          "name": "timelockExpiration",
          "type": "uint256"
        }
      ],
      "name": "UpgradeRequested",
      "type": "event"
    },
    {
      "inputs": [
        {
          "internalType": "address",
          "name": "signer",
          "type": "address"
        }
      ],
      "name": "addSigner",
      "outputs": [],
      "stateMutability": "nonpayable",
      "type": "function"
    },
    {
      "inputs": [
        {
          "internalType": "uint256",
          "name": "nonce",
          "type": "uint256"
        }
      ],
      "name": "approveChange",
      "outputs": [],
      "stateMutability": "nonpayable",
      "type": "function"
    },
    {
      "inputs": [],
      "name": "approveResume",
      "outputs": [],
      "stateMutability": "nonpayable",
      "type": "function"
    },
    {
      "inputs": [],
      "name": "approveUpgrade",
      "outputs": [],
      "stateMutability": "nonpayable",
      "type": "function"
    },
    {
      "inputs": [],
      "name": "assets",
      "outputs": [
        {
          "components": [
            {
              "internalType": "address",
              "name": "token",
              "type": "address"
            },
            {
              "internalType": "uint256",
              "name": "balance",
              "type": "uint256"
            },
            {
              "internalType": "uint256",
              "name": "usdValue",
              "type": "uint256"
            },
            {
              "internalType": "uint256",
              "name": "usdPrice",
              "type": "uint256"
            }
          ],
          "internalType": "struct IRevshareVault.AssetInfo[]",
          "name": "",
          "type": "tuple[]"
        }
      ],
      "stateMutability": "view",
      "type": "function"
    },
    {
      "inputs": [],
      "name": "aumUSD",
      "outputs": [
        {
          "internalType": "uint256",
          "name": "",
          "type": "uint256"
        }
      ],
      "stateMutability": "view",
      "type": "function"
    },
    {
      "inputs": [
        {
          "internalType": "uint256",
          "name": "nonce",
          "type": "uint256"
        }
      ],
      "name": "canApplyChange",
      "outputs": [],
      "stateMutability": "view",
      "type": "function"
    },
    {
      "inputs": [],
      "name": "canUpgrade",
      "outputs": [
        {
          "internalType": "bool",
          "name": "",
          "type": "bool"
        }
      ],
      "stateMutability": "view",
      "type": "function"
    },
    {
      "inputs": [
        {
          "internalType": "uint256",
          "name": "nonce",
          "type": "uint256"
        }
      ],
      "name": "cancelChange",
      "outputs": [],
      "stateMutability": "nonpayable",
      "type": "function"
    },
    {
      "inputs": [],
      "name": "cancelResume",
      "outputs": [],
      "stateMutability": "nonpayable",
      "type": "function"
    },
    {
      "inputs": [
        {
          "internalType": "uint256",
          "name": "nonce",
          "type": "uint256"
        }
      ],
      "name": "changeSigsNeeded",
      "outputs": [
        {
          "internalType": "uint256",
          "name": "",
          "type": "uint256"
        }
      ],
      "stateMutability": "view",
      "type": "function"
    },
    {
      "inputs": [
        {
          "internalType": "address",
          "name": "feeToken",
          "type": "address"
        },
        {
          "internalType": "uint256",
          "name": "gasCost",
          "type": "uint256"
        }
      ],
      "name": "convertGasToFeeToken",
      "outputs": [
        {
          "internalType": "uint256",
          "name": "",
          "type": "uint256"
        }
      ],
      "stateMutability": "view",
      "type": "function"
    },
    {
      "inputs": [],
      "name": "currentMintRateUSD",
      "outputs": [
        {
          "internalType": "uint256",
          "name": "rate",
          "type": "uint256"
        }
      ],
      "stateMutability": "view",
      "type": "function"
    },
    {
      "inputs": [],
      "name": "currentNavUSD",
      "outputs": [
        {
          "internalType": "uint256",
          "name": "",
          "type": "uint256"
        }
      ],
      "stateMutability": "view",
      "type": "function"
    },
    {
      "inputs": [],
      "name": "dailyVolumeUSD",
      "outputs": [
        {
          "internalType": "uint256",
          "name": "",
          "type": "uint256"
        }
      ],
      "stateMutability": "view",
      "type": "function"
    },
    {
      "inputs": [
        {
          "internalType": "uint256",
          "name": "nonce",
          "type": "uint256"
        },
        {
          "internalType": "address",
          "name": "signer",
          "type": "address"
        },
        {
          "internalType": "bytes",
          "name": "sig",
          "type": "bytes"
        }
      ],
      "name": "delegatedApproveChange",
      "outputs": [],
      "stateMutability": "nonpayable",
      "type": "function"
    },
    {
      "inputs": [
        {
          "internalType": "address",
          "name": "signer",
          "type": "address"
        },
        {
          "internalType": "bytes",
          "name": "sig",
          "type": "bytes"
        }
      ],
      "name": "delegatedApproveResume",
      "outputs": [],
      "stateMutability": "nonpayable",
      "type": "function"
    },
    {
      "inputs": [
        {
          "internalType": "address",
          "name": "signer",
          "type": "address"
        },
        {
          "internalType": "bytes",
          "name": "sig",
          "type": "bytes"
        }
      ],
      "name": "delegatedApproveUpgrade",
      "outputs": [],
      "stateMutability": "nonpayable",
      "type": "function"
    },
    {
      "inputs": [],
      "name": "discountBps",
      "outputs": [
        {
          "internalType": "uint32",
          "name": "",
          "type": "uint32"
        }
      ],
      "stateMutability": "view",
      "type": "function"
    },
    {
      "inputs": [
        {
          "internalType": "address",
          "name": "rewardToken",
          "type": "address"
        },
        {
          "internalType": "uint256",
          "name": "dxblAmount",
          "type": "uint256"
        }
      ],
      "name": "estimateRedemption",
      "outputs": [
        {
          "internalType": "uint256",
          "name": "",
          "type": "uint256"
        }
      ],
      "stateMutability": "view",
      "type": "function"
    },
    {
      "inputs": [
        {
          "internalType": "address",
          "name": "feeToken",
          "type": "address"
        }
      ],
      "name": "feeTokenPriceUSD",
      "outputs": [
        {
          "internalType": "uint256",
          "name": "",
          "type": "uint256"
        }
      ],
      "stateMutability": "view",
      "type": "function"
    },
    {
      "inputs": [],
      "name": "getDXBLToken",
      "outputs": [
        {
          "internalType": "address",
          "name": "",
          "type": "address"
        }
      ],
      "stateMutability": "view",
      "type": "function"
    },
    {
      "inputs": [],
      "name": "getDexibleContract",
      "outputs": [
        {
          "internalType": "address",
          "name": "",
          "type": "address"
        }
      ],
      "stateMutability": "view",
      "type": "function"
    },
    {
      "inputs": [
        {
          "components": [
            {
              "internalType": "address",
              "name": "wrappedNativeToken",
              "type": "address"
            },
            {
              "internalType": "uint256",
              "name": "baseMintThreshold",
              "type": "uint256"
            },
            {
              "components": [
                {
                  "internalType": "uint16",
                  "name": "minMMVolume",
                  "type": "uint16"
                },
                {
                  "internalType": "uint16",
                  "name": "maxMMVolume",
                  "type": "uint16"
                },
                {
                  "internalType": "uint256",
                  "name": "rate",
                  "type": "uint256"
                }
              ],
              "internalType": "struct LibRevshare.MintRateRangeConfig[]",
              "name": "rateRanges",
              "type": "tuple[]"
            },
            {
              "components": [
                {
                  "internalType": "address[]",
                  "name": "feeTokens",
                  "type": "address[]"
                },
                {
                  "internalType": "address[]",
                  "name": "priceFeeds",
                  "type": "address[]"
                }
              ],
              "internalType": "struct LibRevshare.FeeTokenConfig",
              "name": "feeTokenConfig",
              "type": "tuple"
            },
            {
              "components": [
                {
                  "internalType": "uint8",
                  "name": "requiredSigs",
                  "type": "uint8"
                },
                {
                  "internalType": "uint32",
                  "name": "timelockSeconds",
                  "type": "uint32"
                },
                {
                  "internalType": "address",
                  "name": "logic",
                  "type": "address"
                },
                {
                  "internalType": "address[]",
                  "name": "approvers",
                  "type": "address[]"
                }
              ],
              "internalType": "struct LibMultiSig.MultiSigConfig",
              "name": "multiSigConfig",
              "type": "tuple"
            }
          ],
          "internalType": "struct LibRevshare.RevshareConfig",
          "name": "config",
          "type": "tuple"
        }
      ],
      "name": "initialize",
      "outputs": [],
      "stateMutability": "nonpayable",
      "type": "function"
    },
    {
      "inputs": [
        {
          "components": [
            {
              "internalType": "uint8",
              "name": "requiredSigs",
              "type": "uint8"
            },
            {
              "internalType": "uint32",
              "name": "timelockSeconds",
              "type": "uint32"
            },
            {
              "internalType": "address",
              "name": "logic",
              "type": "address"
            },
            {
              "internalType": "address[]",
              "name": "approvers",
              "type": "address[]"
            }
          ],
          "internalType": "struct LibMultiSig.MultiSigConfig",
          "name": "config",
          "type": "tuple"
        }
      ],
      "name": "initializeMSConfigurable",
      "outputs": [],
      "stateMutability": "nonpayable",
      "type": "function"
    },
    {
      "inputs": [
        {
          "internalType": "address",
          "name": "token",
          "type": "address"
        }
      ],
      "name": "isFeeTokenAllowed",
      "outputs": [
        {
          "internalType": "bool",
          "name": "",
          "type": "bool"
        }
      ],
      "stateMutability": "view",
      "type": "function"
    },
    {
      "inputs": [],
      "name": "isPaused",
      "outputs": [
        {
          "internalType": "bool",
          "name": "",
          "type": "bool"
        }
      ],
      "stateMutability": "view",
      "type": "function"
    },
    {
      "inputs": [],
      "name": "pause",
      "outputs": [],
      "stateMutability": "nonpayable",
      "type": "function"
    },
    {
      "inputs": [
        {
          "internalType": "address",
          "name": "rewardToken",
          "type": "address"
        },
        {
          "internalType": "uint256",
          "name": "dxblAmount",
          "type": "uint256"
        },
        {
          "internalType": "uint256",
          "name": "minOutAmount",
          "type": "uint256"
        }
      ],
      "name": "redeemDXBL",
      "outputs": [],
      "stateMutability": "nonpayable",
      "type": "function"
    },
    {
      "inputs": [
        {
          "internalType": "address",
          "name": "signer",
          "type": "address"
        }
      ],
      "name": "removeSigner",
      "outputs": [],
      "stateMutability": "nonpayable",
      "type": "function"
    },
    {
      "inputs": [
        {
          "internalType": "bytes",
          "name": "data",
          "type": "bytes"
        }
      ],
      "name": "requestChange",
      "outputs": [],
      "stateMutability": "nonpayable",
      "type": "function"
    },
    {
      "inputs": [],
      "name": "requestResume",
      "outputs": [],
      "stateMutability": "nonpayable",
      "type": "function"
    },
    {
      "inputs": [
        {
          "internalType": "address",
          "name": "logic",
          "type": "address"
        }
      ],
      "name": "requestUpgrade",
      "outputs": [],
      "stateMutability": "nonpayable",
      "type": "function"
    },
    {
      "inputs": [],
      "name": "resumeSigsNeeded",
      "outputs": [
        {
          "internalType": "uint8",
          "name": "",
          "type": "uint8"
        }
      ],
      "stateMutability": "view",
      "type": "function"
    },
    {
      "inputs": [
        {
          "internalType": "address",
          "name": "trader",
          "type": "address"
        },
        {
          "internalType": "address",
          "name": "feeToken",
          "type": "address"
        },
        {
          "internalType": "uint256",
          "name": "amount",
          "type": "uint256"
        }
      ],
      "name": "rewardTrader",
      "outputs": [],
      "stateMutability": "nonpayable",
      "type": "function"
    },
    {
      "inputs": [
        {
          "internalType": "address",
          "name": "token",
          "type": "address"
        }
      ],
      "name": "setDXBL",
      "outputs": [],
      "stateMutability": "nonpayable",
      "type": "function"
    },
    {
      "inputs": [
        {
          "internalType": "address",
          "name": "dex",
          "type": "address"
        }
      ],
      "name": "setDexible",
      "outputs": [],
      "stateMutability": "nonpayable",
      "type": "function"
    },
    {
      "inputs": [
        {
          "internalType": "uint32",
          "name": "bps",
          "type": "uint32"
        }
      ],
      "name": "setDiscountRateBps",
      "outputs": [],
      "stateMutability": "nonpayable",
      "type": "function"
    },
    {
      "inputs": [
        {
          "components": [
            {
              "internalType": "address[]",
              "name": "feeTokens",
              "type": "address[]"
            },
            {
              "internalType": "address[]",
              "name": "priceFeeds",
              "type": "address[]"
            }
          ],
          "internalType": "struct LibRevshare.FeeTokenConfig",
          "name": "details",
          "type": "tuple"
        }
      ],
      "name": "setFeeTokens",
      "outputs": [],
      "stateMutability": "nonpayable",
      "type": "function"
    },
    {
      "inputs": [
        {
          "components": [
            {
              "internalType": "uint16",
              "name": "minMMVolume",
              "type": "uint16"
            },
            {
              "internalType": "uint16",
              "name": "maxMMVolume",
              "type": "uint16"
            },
            {
              "internalType": "uint256",
              "name": "rate",
              "type": "uint256"
            }
          ],
          "internalType": "struct LibRevshare.MintRateRangeConfig[]",
          "name": "ranges",
          "type": "tuple[]"
        }
      ],
      "name": "setMintRates",
      "outputs": [],
      "stateMutability": "nonpayable",
      "type": "function"
    },
    {
      "inputs": [
        {
          "internalType": "uint8",
          "name": "sigs",
          "type": "uint8"
        }
      ],
      "name": "setRequiredSigs",
      "outputs": [],
      "stateMutability": "nonpayable",
      "type": "function"
    },
    {
      "inputs": [],
      "name": "upgradeSignaturesNeeded",
      "outputs": [
        {
          "internalType": "uint256",
          "name": "",
          "type": "uint256"
        }
      ],
      "stateMutability": "view",
      "type": "function"
    }
  ],
  "bytecode": "0x608060405234801561001057600080fd5b506132df806100206000396000f3fe608060405234801561001057600080fd5b506004361061025e5760003560e01c806371a9730511610146578063b187bd26116100c3578063d514beaa11610087578063d514beaa146104db578063dc588141146104ee578063dcf52a8014610501578063e12a9b3c14610509578063e8c5fc481461051c578063eb12d61e1461052457600080fd5b8063b187bd2614610485578063b60f39621461048d578063c5fe9160146104ad578063c94fbd27146104c0578063ce25cb4d146104c857600080fd5b806384fd463a1161010a57806384fd463a1461043c5780638957a7e51461044f5780639738968c14610457578063a54c2d251461045f578063ab1094c01461047257600080fd5b806371a97305146103f15780637262f557146104065780637a393ff514610419578063821314701461042c5780638456cb591461043457600080fd5b806341b5774a116101df5780635d204718116101a35780635d204718146103705780635de11890146103935780636161791e1461039b57806364927984146103ae5780636b9f97ef146103c15780636c1f5633146103d457600080fd5b806341b5774a1461031c5780634648743714610324578063486bdd9d146103375780635b57a2ed1461034a5780635cd0b3ee1461035d57600080fd5b806331931af41161022657806331931af4146102c157806333e5614f146102d457806334357755146102dc57806335e3aa21146102f65780633931f45d1461030957600080fd5b80630e316ab71461026357806318ac3b151461027857806320529bb11461028b5780632807978e146102a65780632b9f73e1146102b9575b600080fd5b6102766102713660046125ab565b610537565b005b6102766102863660046125cf565b610624565b610293610986565b6040519081526020015b60405180910390f35b6102766102b4366004612613565b610a0b565b610276610ab8565b6102766102cf366004612642565b610b66565b610293610c34565b6102e4610cbb565b60405160ff909116815260200161029d565b61027661030436600461265f565b610d3a565b610293610317366004612678565b610df0565b610293610fe9565b6102766103323660046126a4565b61102c565b610276610345366004612726565b6110bc565b61027661035836600461265f565b611177565b61027661036b366004612781565b6111fd565b61038361037e3660046125ab565b6112b5565b604051901515815260200161029d565b6102936112ea565b6102766103a936600461265f565b61132d565b6102766103bc366004612781565b611375565b6102766103cf3660046125ab565b6113f7565b6103dc611485565b60405163ffffffff909116815260200161029d565b6103f9611507565b60405161029d91906127d5565b610293610414366004612678565b61158a565b610276610427366004612842565b6116fd565b61029361177d565b610276611792565b61027661044a3660046125ab565b611817565b610276611937565b6103836119b6565b61027661046d366004612883565b611a35565b6102766104803660046128bd565b611aca565b610383611d5d565b610495611d70565b6040516001600160a01b03909116815260200161029d565b6102766104bb3660046125ab565b611d8c565b610276611eb9565b6102936104d63660046125ab565b611f38565b6102766104e9366004612a71565b612025565b6102936104fc36600461265f565b612065565b6102766120eb565b610276610517366004612aa5565b61216a565b6104956121fc565b6102766105323660046125ab565b612218565b60006105416122ff565b336000908152600d8201602052604090205490915060ff1661057e5760405162461bcd60e51b815260040161057590612b19565b60405180910390fd5b6001600160a01b0382166000036105c85760405162461bcd60e51b815260206004820152600e60248201526d24b73b30b634b21039b4b3b732b960911b6044820152606401610575565b60006105d26122ff565b6001600160a01b0384166000818152600d83016020526040808220805460ff191690555192935090917f3525e22824a8a7df2c9a6029941c824cf95b6447f1e13d5128fd3826d35afe8b9190a2505050565b61062c6122ff565b5460ff16156106705760405162461bcd60e51b815260206004820152601060248201526f139bdd081dda1a5b19481c185d5cd95960821b6044820152606401610575565b600061067a612323565b60018101546040516370a0823160e01b81523360048201529192506000916001600160a01b03909116906370a0823190602401602060405180830381865afa1580156106ca573d6000803e3d6000fd5b505050506040513d601f19601f820116820180604052508101906106ee9190612b3f565b90508381101561074c5760405162461bcd60e51b815260206004820152602360248201527f496e73756666696369656e74204458424c2062616c616e636520746f2072656460448201526265656d60e81b6064820152608401610575565b604051637262f55760e01b81526001600160a01b0386166004820152602481018590526000903090637262f55790604401602060405180830381865afa15801561079a573d6000803e3d6000fd5b505050506040513d601f19601f820116820180604052508101906107be9190612b3f565b6040516370a0823160e01b81523060048201529091506000906001600160a01b038816906370a0823190602401602060405180830381865afa158015610808573d6000803e3d6000fd5b505050506040513d601f19601f8201168201806040525081019061082c9190612b3f565b9050808211156108b357848110610845578091506108b3565b60405162461bcd60e51b815260206004820152603e60248201527f496e73756666696369656e742061737365742062616c616e636520746f20707260448201527f6f6475636520657870656374656420776974686472617720616d6f756e7400006064820152608401610575565b6108c76001600160a01b0388163384612347565b6001840154604051632770a7eb60e21b8152336004820152602481018890526001600160a01b0390911690639dc29fac90604401600060405180830381600087803b15801561091557600080fd5b505af1158015610929573d6000803e3d6000fd5b505060408051338152602081018a90526001600160a01b038b16818301526060810186905290517f5fe85dc899e158274a44abab0e6df5434416f0ce11df30d42e02f229b8fc8a419350908190036080019150a150505050505050565b6000610990612323565b6040516354ab16a360e01b8152600481019190915273__$e4ef3559df0bc4c3af9eab81c1a9317092$__906354ab16a3906024015b602060405180830381865af41580156109e2573d6000803e3d6000fd5b505050506040513d601f19601f82011682018060405250810190610a069190612b3f565b905090565b631403cbc760e11b6000610a1d6122ff565b6001600160e01b031983166000908152600c8201602052604090205490915060ff16610a5b5760405162461bcd60e51b815260040161057590612b58565b6000610a656122ff565b805461ff00191661010060ff87169081029190911782556040519081529091507f996d24db4a86034b8a07339305b06563c6b9e34fc887a6f84dbba1d64f690fd79060200160405180910390a150505050565b6000610ac26122ff565b336000908152600d8201602052604090205490915060ff16610af65760405162461bcd60e51b815260040161057590612b19565b610afe6122ff565b60405163b5c1a4bd60e01b8152600481019190915273__$a1eb5e9a06dc78666997fa26b97107c1d0$__9063b5c1a4bd906024015b60006040518083038186803b158015610b4b57600080fd5b505af4158015610b5f573d6000803e3d6000fd5b5050505050565b630c64c6bd60e21b6000610b786122ff565b6001600160e01b031983166000908152600c8201602052604090205490915060ff16610bb65760405162461bcd60e51b815260040161057590612b58565b610bbe612323565b604051632fbd694960e21b8152600481019190915263ffffffff8416602482015273__$bbacb56986ef200bccd12c0a471dd815f3$__9063bef5a524906044015b60006040518083038186803b158015610c1757600080fd5b505af4158015610c2b573d6000803e3d6000fd5b50505050505050565b6000610c3e6122ff565b6040516396deafed60e01b8152600481019190915273__$a1eb5e9a06dc78666997fa26b97107c1d0$__906396deafed90602401602060405180830381865af4158015610c8f573d6000803e3d6000fd5b505050506040513d601f19601f82011682018060405250810190610cb39190612b86565b60ff16905090565b6000610cc56122ff565b6040516319477f2b60e11b8152600481019190915273__$a1eb5e9a06dc78666997fa26b97107c1d0$__9063328efe5690602401602060405180830381865af4158015610d16573d6000803e3d6000fd5b505050506040513d601f19601f82011682018060405250810190610a069190612b86565b6000610d446122ff565b336000908152600d8201602052604090205490915060ff16610d785760405162461bcd60e51b815260040161057590612b19565b610d806122ff565b604051633cf6e7e560e11b815260048101919091526024810183905273__$a1eb5e9a06dc78666997fa26b97107c1d0$__906379edcfca906044015b60006040518083038186803b158015610dd457600080fd5b505af4158015610de8573d6000803e3d6000fd5b505050505050565b600080610dfb612323565b60038101549091506001600160a01b0390811690851603610e1f5782915050610fe3565b60038101546001600160a01b03166000908152602582016020526040808220905163045a68f760e41b8152600481019190915273__$e4ef3559df0bc4c3af9eab81c1a9317092$__906345a68f7090602401602060405180830381865af4158015610e8e573d6000803e3d6000fd5b505050506040513d601f19601f82011682018060405250810190610eb29190612b3f565b6001600160a01b0386166000908152602584016020526040808220905163045a68f760e41b815260048101919091529192509073__$e4ef3559df0bc4c3af9eab81c1a9317092$__906345a68f7090602401602060405180830381865af4158015610f21573d6000803e3d6000fd5b505050506040513d601f19601f82011682018060405250810190610f459190612b3f565b9050600081610f616c0c9f2c9cd04674edea4000000085612bb9565b610f6b9190612bd0565b905060006c0c9f2c9cd04674edea40000000610f878884612bb9565b610f919190612bd0565b6001600160a01b0389166000908152602487016020526040902054909150670de0b6b3a764000090610fc79060ff16600a612cd6565b610fd19083612bb9565b610fdb9190612bd0565b955050505050505b92915050565b6000610ff3612323565b604051630f8eee6560e21b8152600481019190915273__$e4ef3559df0bc4c3af9eab81c1a9317092$__90633e3bb994906024016109c5565b634648743760e01b600061103e6122ff565b6001600160e01b031983166000908152600c8201602052604090205490915060ff1661107c5760405162461bcd60e51b815260040161057590612b58565b611084612323565b60405163a0caec1d60e01b815273__$bbacb56986ef200bccd12c0a471dd815f3$__9163a0caec1d91610bff91908790600401612dc1565b60006110c66122ff565b336000908152600d8201602052604090205490915060ff166110fa5760405162461bcd60e51b815260040161057590612b19565b6111026122ff565b60405163b190721f60e01b815273__$a1eb5e9a06dc78666997fa26b97107c1d0$__9163b190721f9161114091908990899089908990600401612e03565b60006040518083038186803b15801561115857600080fd5b505af415801561116c573d6000803e3d6000fd5b505050505050505050565b60006111816122ff565b336000908152600d8201602052604090205490915060ff166111b55760405162461bcd60e51b815260040161057590612b19565b6111bd6122ff565b6040516341ae60fd60e01b815260048101919091526024810183905273__$a1eb5e9a06dc78666997fa26b97107c1d0$__906341ae60fd90604401610dbc565b60006112076122ff565b336000908152600d8201602052604090205490915060ff1661123b5760405162461bcd60e51b815260040161057590612b19565b6112436122ff565b604051634552300560e11b815273__$a1eb5e9a06dc78666997fa26b97107c1d0$__91638aa4600a9161127f9190889088908890600401612e31565b60006040518083038186803b15801561129757600080fd5b505af41580156112ab573d6000803e3d6000fd5b5050505050505050565b6000806112c0612323565b6001600160a01b039384166000908152602591909101602052604090205490921690911415919050565b60006112f4612323565b604051633908dabb60e21b8152600481019190915273__$e4ef3559df0bc4c3af9eab81c1a9317092$__9063e4236aec906024016109c5565b6113356122ff565b6040516366c373c960e01b815260048101919091526024810182905273__$a1eb5e9a06dc78666997fa26b97107c1d0$__906366c373c990604401610b33565b600061137f6122ff565b336000908152600d8201602052604090205490915060ff166113b35760405162461bcd60e51b815260040161057590612b19565b6113bb6122ff565b604051633b32d55d60e21b815273__$a1eb5e9a06dc78666997fa26b97107c1d0$__9163eccb55749161127f9190889088908890600401612e31565b60006114016122ff565b336000908152600d8201602052604090205490915060ff166114355760405162461bcd60e51b815260040161057590612b19565b61143d6122ff565b604051632791078760e21b815260048101919091526001600160a01b038316602482015273__$a1eb5e9a06dc78666997fa26b97107c1d0$__90639e441e1c90604401610dbc565b600061148f612323565b60010160009054906101000a90046001600160a01b03166001600160a01b031663566826d16040518163ffffffff1660e01b8152600401602060405180830381865afa1580156114e3573d6000803e3d6000fd5b505050506040513d601f19601f82011682018060405250810190610a069190612e5c565b6060611511612323565b6040516315621db360e11b8152600481019190915273__$e4ef3559df0bc4c3af9eab81c1a9317092$__90632ac43b6690602401600060405180830381865af4158015611562573d6000803e3d6000fd5b505050506040513d6000823e601f3d908101601f19168201604052610a069190810190612e79565b600080611595612323565b604051633908dabb60e21b81526004810182905290915060009073__$e4ef3559df0bc4c3af9eab81c1a9317092$__9063e4236aec90602401602060405180830381865af41580156115eb573d6000803e3d6000fd5b505050506040513d601f19601f8201168201806040525081019061160f9190612b3f565b9050620f424061162c6c0c9f2c9cd04674edea4000000083612bb9565b6116369190612bd0565b60405163ce25cb4d60e01b81526001600160a01b0387166004820152909150600090309063ce25cb4d90602401602060405180830381865afa158015611680573d6000803e3d6000fd5b505050506040513d601f19601f820116820180604052508101906116a49190612b3f565b6001600160a01b038716600090815260248501602052604081205491925060ff90911690826116d483600a612cd6565b6116de9086612bb9565b6116e89190612bd0565b9050670de0b6b3a7640000610fd18289612bb9565b60006117076122ff565b336000908152600d8201602052604090205490915060ff1661173b5760405162461bcd60e51b815260040161057590612b19565b6117436122ff565b6040516326373dcf60e21b815273__$a1eb5e9a06dc78666997fa26b97107c1d0$__916398dcf73c91610bff919087908790600401612f40565b600080611788612323565b6005015492915050565b600061179c6122ff565b336000908152600d8201602052604090205490915060ff166117d05760405162461bcd60e51b815260040161057590612b19565b60006117da6122ff565b805460ff1916600117815560405190915033907f62e78cea01bee320cd4e420270b5ea74000d11b0c9f74754ebdbfc544b05a25890600090a25050565b60006118216122ff565b336000908152600d8201602052604090205490915060ff166118555760405162461bcd60e51b815260040161057590612b19565b600061185f612323565b90506001600160a01b0383166118b75760405162461bcd60e51b815260206004820152601a60248201527f496e76616c6964204458424c20746f6b656e20616464726573730000000000006044820152606401610575565b60018101546001600160a01b0316156119125760405162461bcd60e51b815260206004820181905260248201527f416c726561647920696e697469616c697a6564204458424c20616464726573736044820152606401610575565b60010180546001600160a01b0319166001600160a01b03939093169290921790915550565b60006119416122ff565b336000908152600d8201602052604090205490915060ff166119755760405162461bcd60e51b815260040161057590612b19565b61197d6122ff565b60405163dc02380960e01b8152600481019190915273__$a1eb5e9a06dc78666997fa26b97107c1d0$__9063dc02380990602401610b33565b60006119c06122ff565b6040516330a340ab60e21b8152600481019190915273__$a1eb5e9a06dc78666997fa26b97107c1d0$__9063c28d02ac90602401602060405180830381865af4158015611a11573d6000803e3d6000fd5b505050506040513d601f19601f82011682018060405250810190610a069190612f63565b6000611a3f612323565b604051634346197160e01b815290915073__$bbacb56986ef200bccd12c0a471dd815f3$__90634346197190611a7b9084908690600401613090565b60006040518083038186803b158015611a9357600080fd5b505af4158015611aa7573d6000803e3d6000fd5b50611ac69250611abd9150506080840184613169565b6104e990613189565b5050565b611ad2612323565b600201546001600160a01b03163314611afd5760405162461bcd60e51b815260040161057590612b19565b611b056122ff565b5460ff1615611b495760405162461bcd60e51b815260206004820152601060248201526f139bdd081dda1a5b19481c185d5cd95960821b6044820152606401610575565b6000611b53612323565b6040516376a16af760e01b8152600481018290526001600160a01b03851660248201526044810184905290915060009073__$e4ef3559df0bc4c3af9eab81c1a9317092$__906376a16af790606401602060405180830381865af4158015611bbf573d6000803e3d6000fd5b505050506040513d601f19601f82011682018060405250810190611be39190612b3f565b604051630f8eee6560e21b81526004810184905290915060009073__$e4ef3559df0bc4c3af9eab81c1a9317092$__90633e3bb99490602401602060405180830381865af4158015611c39573d6000803e3d6000fd5b505050506040513d601f19601f82011682018060405250810190611c5d9190612b3f565b60405162df707d60e61b8152600481018590526024810184905290915073__$e4ef3559df0bc4c3af9eab81c1a9317092$__906337dc1f409060440160006040518083038186803b158015611cb157600080fd5b505af4158015611cc5573d6000803e3d6000fd5b5050505060008183670de0b6b3a7640000611ce09190612bb9565b611cea9190612bd0565b60018501546040516340c10f1960e01b81526001600160a01b038a81166004830152602482018490529293509116906340c10f1990604401600060405180830381600087803b158015611d3c57600080fd5b505af1158015611d50573d6000803e3d6000fd5b5050505050505050505050565b6000611d676122ff565b5460ff16919050565b6000611d7a612323565b600101546001600160a01b0316919050565b6000611d966122ff565b336000908152600d8201602052604090205490915060ff16611dca5760405162461bcd60e51b815260040161057590612b19565b6000611dd4612323565b60028101549091506001600160a01b031615611e3e5760405162461bcd60e51b815260206004820152602360248201527f416c726561647920696e697469616c697a65642044657869626c65206164647260448201526265737360e81b6064820152608401610575565b6001600160a01b038316611e945760405162461bcd60e51b815260206004820152601760248201527f496e76616c69642064657869626c6520616464726573730000000000000000006044820152606401610575565b60020180546001600160a01b0319166001600160a01b03939093169290921790915550565b6000611ec36122ff565b336000908152600d8201602052604090205490915060ff16611ef75760405162461bcd60e51b815260040161057590612b19565b611eff6122ff565b604051634e3e101b60e01b8152600481019190915273__$a1eb5e9a06dc78666997fa26b97107c1d0$__90634e3e101b90602401610b33565b600080611f43612323565b6001600160a01b038085166000908152602583016020526040902080549293509116611fa95760405162461bcd60e51b81526020600482015260156024820152742ab739bab83837b93a32b2103332b2903a37b5b2b760591b6044820152606401610575565b60405163045a68f760e41b81526004810182905273__$e4ef3559df0bc4c3af9eab81c1a9317092$__906345a68f7090602401602060405180830381865af4158015611ff9573d6000803e3d6000fd5b505050506040513d601f19601f8201168201806040525081019061201d9190612b3f565b949350505050565b61202d6122ff565b60405163e84ba0a360e01b815273__$a1eb5e9a06dc78666997fa26b97107c1d0$__9163e84ba0a391610b3391908590600401613195565b600061206f6122ff565b6040516384c81e4d60e01b815260048101919091526024810183905273__$a1eb5e9a06dc78666997fa26b97107c1d0$__906384c81e4d90604401602060405180830381865af41580156120c7573d6000803e3d6000fd5b505050506040513d601f19601f82011682018060405250810190610fe39190612b3f565b60006120f56122ff565b336000908152600d8201602052604090205490915060ff166121295760405162461bcd60e51b815260040161057590612b19565b6121316122ff565b604051630cb8674760e01b8152600481019190915273__$a1eb5e9a06dc78666997fa26b97107c1d0$__90630cb8674790602401610b33565b63384aa6cf60e21b600061217c6122ff565b6001600160e01b031983166000908152600c8201602052604090205490915060ff166121ba5760405162461bcd60e51b815260040161057590612b58565b6121c2612323565b60405163460aa8db60e01b815273__$bbacb56986ef200bccd12c0a471dd815f3$__9163460aa8db9161127f919088908890600401613226565b6000612206612323565b600201546001600160a01b0316919050565b60006122226122ff565b336000908152600d8201602052604090205490915060ff166122565760405162461bcd60e51b815260040161057590612b19565b6001600160a01b0382166000036122a05760405162461bcd60e51b815260206004820152600e60248201526d24b73b30b634b21039b4b3b732b960911b6044820152606401610575565b60006122aa6122ff565b6001600160a01b0384166000818152600d83016020526040808220805460ff191660011790555192935090917f47d1c22a25bb3a5d4e481b9b1e6944c2eade3181a0a20b495ed61d35b5323f249190a2505050565b7f95345cad9ec96dfc8c5b0a875a5c498451c293011b6404d5fac2627c08bc661c90565b7fbfa76ec2967ed7f8d3d40cd552f1451ab03573b596bfce931a6a016f7733078c90565b604080516001600160a01b038416602482015260448082018490528251808303909101815260649091019091526020810180516001600160e01b031663a9059cbb60e01b17905261239990849061239e565b505050565b60006123f3826040518060400160405280602081526020017f5361666545524332303a206c6f772d6c6576656c2063616c6c206661696c6564815250856001600160a01b03166124709092919063ffffffff16565b80519091501561239957808060200190518101906124119190612f63565b6123995760405162461bcd60e51b815260206004820152602a60248201527f5361666545524332303a204552433230206f7065726174696f6e20646964206e6044820152691bdd081cdd58d8d9595960b21b6064820152608401610575565b606061201d848460008585600080866001600160a01b031685876040516124979190613264565b60006040518083038185875af1925050503d80600081146124d4576040519150601f19603f3d011682016040523d82523d6000602084013e6124d9565b606091505b50915091506124ea878383876124f5565b979650505050505050565b6060831561256457825160000361255d576001600160a01b0385163b61255d5760405162461bcd60e51b815260206004820152601d60248201527f416464726573733a2063616c6c20746f206e6f6e2d636f6e74726163740000006044820152606401610575565b508161201d565b61201d83838151156125795781518083602001fd5b8060405162461bcd60e51b81526004016105759190613276565b6001600160a01b03811681146125a857600080fd5b50565b6000602082840312156125bd57600080fd5b81356125c881612593565b9392505050565b6000806000606084860312156125e457600080fd5b83356125ef81612593565b95602085013595506040909401359392505050565b60ff811681146125a857600080fd5b60006020828403121561262557600080fd5b81356125c881612604565b63ffffffff811681146125a857600080fd5b60006020828403121561265457600080fd5b81356125c881612630565b60006020828403121561267157600080fd5b5035919050565b6000806040838503121561268b57600080fd5b823561269681612593565b946020939093013593505050565b6000602082840312156126b657600080fd5b81356001600160401b038111156126cc57600080fd5b8201604081850312156125c857600080fd5b60008083601f8401126126f057600080fd5b5081356001600160401b0381111561270757600080fd5b60208301915083602082850101111561271f57600080fd5b9250929050565b6000806000806060858703121561273c57600080fd5b84359350602085013561274e81612593565b925060408501356001600160401b0381111561276957600080fd5b612775878288016126de565b95989497509550505050565b60008060006040848603121561279657600080fd5b83356127a181612593565b925060208401356001600160401b038111156127bc57600080fd5b6127c8868287016126de565b9497909650939450505050565b602080825282518282018190526000919060409081850190868401855b8281101561283557815180516001600160a01b031685528681015187860152858101518686015260609081015190850152608090930192908501906001016127f2565b5091979650505050505050565b6000806020838503121561285557600080fd5b82356001600160401b0381111561286b57600080fd5b612877858286016126de565b90969095509350505050565b60006020828403121561289557600080fd5b81356001600160401b038111156128ab57600080fd5b820160a081850312156125c857600080fd5b6000806000606084860312156128d257600080fd5b83356128dd81612593565b925060208401356128ed81612593565b929592945050506040919091013590565b634e487b7160e01b600052604160045260246000fd5b604051608081016001600160401b0381118282101715612936576129366128fe565b60405290565b604051601f8201601f191681016001600160401b0381118282101715612964576129646128fe565b604052919050565b60006001600160401b03821115612985576129856128fe565b5060051b60200190565b6000608082840312156129a157600080fd5b6129a9612914565b905081356129b681612604565b81526020828101356129c781612630565b8282015260408301356129d981612593565b604083015260608301356001600160401b038111156129f757600080fd5b8301601f81018513612a0857600080fd5b8035612a1b612a168261296c565b61293c565b81815260059190911b82018301908381019087831115612a3a57600080fd5b928401925b82841015612a61578335612a5281612593565b82529284019290840190612a3f565b6060860152509295945050505050565b600060208284031215612a8357600080fd5b81356001600160401b03811115612a9957600080fd5b61201d8482850161298f565b60008060208385031215612ab857600080fd5b82356001600160401b0380821115612acf57600080fd5b818501915085601f830112612ae357600080fd5b813581811115612af257600080fd5b866020606083028501011115612b0757600080fd5b60209290920196919550909350505050565b6020808252600c908201526b155b985d5d1a1bdc9a5e995960a21b604082015260600190565b600060208284031215612b5157600080fd5b5051919050565b602080825260149082015273139bdd08185c1c1c9bdd9959081d1bc818d85b1b60621b604082015260600190565b600060208284031215612b9857600080fd5b81516125c881612604565b634e487b7160e01b600052601160045260246000fd5b8082028115828204841417610fe357610fe3612ba3565b600082612bed57634e487b7160e01b600052601260045260246000fd5b500490565b600181815b80851115612c2d578160001904821115612c1357612c13612ba3565b80851615612c2057918102915b93841c9390800290612bf7565b509250929050565b600082612c4457506001610fe3565b81612c5157506000610fe3565b8160018114612c675760028114612c7157612c8d565b6001915050610fe3565b60ff841115612c8257612c82612ba3565b50506001821b610fe3565b5060208310610133831016604e8410600b8410161715612cb0575081810a610fe3565b612cba8383612bf2565b8060001904821115612cce57612cce612ba3565b029392505050565b60006125c860ff841683612c35565b6000808335601e19843603018112612cfc57600080fd5b83016020810192503590506001600160401b03811115612d1b57600080fd5b8060051b360382131561271f57600080fd5b8183526000602080850194508260005b85811015612d6b578135612d5081612593565b6001600160a01b031687529582019590820190600101612d3d565b509495945050505050565b6000612d828283612ce5565b60408552612d94604086018284612d2d565b915050612da46020840184612ce5565b8583036020870152612db7838284612d2d565b9695505050505050565b82815260406020820152600061201d6040830184612d76565b81835281816020850137506000828201602090810191909152601f909101601f19169091010190565b85815284602082015260018060a01b03841660408201526080606082015260006124ea608083018486612dda565b8481526001600160a01b0384166020820152606060408201819052600090612db79083018486612dda565b600060208284031215612e6e57600080fd5b81516125c881612630565b60006020808385031215612e8c57600080fd5b82516001600160401b03811115612ea257600080fd5b8301601f81018513612eb357600080fd5b8051612ec1612a168261296c565b81815260079190911b82018301908381019087831115612ee057600080fd5b928401925b828410156124ea5760808489031215612efe5760008081fd5b612f06612914565b8451612f1181612593565b815284860151868201526040808601519082015260608086015190820152825260809093019290840190612ee5565b838152604060208201526000612f5a604083018486612dda565b95945050505050565b600060208284031215612f7557600080fd5b815180151581146125c857600080fd5b803561ffff81168114612f9757600080fd5b919050565b8183526000602080850194508260005b85811015612d6b5761ffff80612fc184612f85565b16885280612fd0858501612f85565b1688850152506040828101359088015260609687019690910190600101612fac565b60008235603e1983360301811261300857600080fd5b90910192915050565b60008235607e1983360301811261300857600080fd5b6000813561303481612604565b60ff168352602082013561304781612630565b63ffffffff166020840152604082013561306081612593565b6001600160a01b0316604084015261307b6060830183612ce5565b60806060860152612f5a608086018284612d2d565b82815260406020820152600082356130a781612593565b6001600160a01b03166040838101919091526020840135606084015283013536849003601e190181126130d957600080fd5b83016020810190356001600160401b038111156130f557600080fd5b60608102360382131561310757600080fd5b60a0608085015261311c60e085018284612f9c565b91505061312c6060850185612ff2565b603f19808584030160a08601526131438383612d76565b92506131526080870187613011565b9150808584030160c086015250612db78282613027565b60008235607e1983360301811261317f57600080fd5b9190910192915050565b6000610fe3368361298f565b8281526000602060408184015260c0830160ff855116604085015263ffffffff82860151166060850152604085015160018060a01b03808216608087015260608701519150608060a087015282825180855260e0880191508584019450600093505b80841015613219578451831682529385019360019390930192908501906131f7565b5098975050505050505050565b838152604060208201526000612f5a604083018486612f9c565b60005b8381101561325b578181015183820152602001613243565b50506000910152565b6000825161317f818460208701613240565b6020815260008251806020840152613295816040850160208701613240565b601f01601f1916919091016040019291505056fea26469706673582212203a632fcf73318648481b26548486d49a887febf73b162f3cf073a66fb6ad586b64736f6c63430008110033",
  "linkReferences": {
    "contracts/libraries/LibMultiSig.sol": {
      "LibMultiSig": [
        {
          "length": 20,
          "start": 2869
        },
        {
          "length": 20,
          "start": 3189
        },
        {
          "length": 20,
          "start": 3324
        },
        {
          "length": 20,
          "start": 3518
        },
        {
          "length": 20,
          "start": 4401
        },
        {
          "length": 20,
          "start": 4603
        },
        {
          "length": 20,
          "start": 4722
        },
        {
          "length": 20,
          "start": 4979
        },
        {
          "length": 20,
          "start": 5098
        },
        {
          "length": 20,
          "start": 5251
        },
        {
          "length": 20,
          "start": 6002
        },
        {
          "length": 20,
          "start": 6580
        },
        {
          "length": 20,
          "start": 6647
        },
        {
          "length": 20,
          "start": 7990
        },
        {
          "length": 20,
          "start": 8284
        },
        {
          "length": 20,
          "start": 8365
        },
        {
          "length": 20,
          "start": 8552
        }
      ]
    },
    "contracts/libraries/LibRSUtils.sol": {
      "LibRSUtils": [
        {
          "length": 20,
          "start": 2503
        },
        {
          "length": 20,
          "start": 3700
        },
        {
          "length": 20,
          "start": 3847
        },
        {
          "length": 20,
          "start": 4138
        },
        {
          "length": 20,
          "start": 4907
        },
        {
          "length": 20,
          "start": 5448
        },
        {
          "length": 20,
          "start": 5585
        },
        {
          "length": 20,
          "start": 7077
        },
        {
          "length": 20,
          "start": 7199
        },
        {
          "length": 20,
          "start": 7324
        },
        {
          "length": 20,
          "start": 8159
        }
      ]
    },
    "contracts/libraries/LibRevshare.sol": {
      "LibRevshare": [
        {
          "length": 20,
          "start": 3073
        },
        {
          "length": 20,
          "start": 4275
        },
        {
          "length": 20,
          "start": 6769
        },
        {
          "length": 20,
          "start": 8689
        }
      ]
    }
  },
  "deployedLinkReferences": {
    "contracts/libraries/LibMultiSig.sol": {
      "LibMultiSig": [
        {
          "length": 20,
          "start": 2837
        },
        {
          "length": 20,
          "start": 3157
        },
        {
          "length": 20,
          "start": 3292
        },
        {
          "length": 20,
          "start": 3486
        },
        {
          "length": 20,
          "start": 4369
        },
        {
          "length": 20,
          "start": 4571
        },
        {
          "length": 20,
          "start": 4690
        },
        {
          "length": 20,
          "start": 4947
        },
        {
          "length": 20,
          "start": 5066
        },
        {
          "length": 20,
          "start": 5219
        },
        {
          "length": 20,
          "start": 5970
        },
        {
          "length": 20,
          "start": 6548
        },
        {
          "length": 20,
          "start": 6615
        },
        {
          "length": 20,
          "start": 7958
        },
        {
          "length": 20,
          "start": 8252
        },
        {
          "length": 20,
          "start": 8333
        },
        {
          "length": 20,
          "start": 8520
        }
      ]
    },
    "contracts/libraries/LibRSUtils.sol": {
      "LibRSUtils": [
        {
          "length": 20,
          "start": 2471
        },
        {
          "length": 20,
          "start": 3668
        },
        {
          "length": 20,
          "start": 3815
        },
        {
          "length": 20,
          "start": 4106
        },
        {
          "length": 20,
          "start": 4875
        },
        {
          "length": 20,
          "start": 5416
        },
        {
          "length": 20,
          "start": 5553
        },
        {
          "length": 20,
          "start": 7045
        },
        {
          "length": 20,
          "start": 7167
        },
        {
          "length": 20,
          "start": 7292
        },
        {
          "length": 20,
          "start": 8127
        }
      ]
    },
    "contracts/libraries/LibRevshare.sol": {
      "LibRevshare": [
        {
          "length": 20,
          "start": 3041
        },
        {
          "length": 20,
          "start": 4243
        },
        {
          "length": 20,
          "start": 6737
        },
        {
          "length": 20,
          "start": 8657
        }
      ]
    }
  }
}