{"contracts/dexible/oracles/ArbitrumGasOracle.sol":{"ArbitrumGasOracle":{"abi":[{"inputs":[{"internalType":"address","name":"multiSig","type":"address"},{"internalType":"uint256","name":"m","type":"uint256"}],"stateMutability":"nonpayable","type":"constructor"},{"anonymous":false,"inputs":[{"indexed":false,"internalType":"uint256","name":"multiplier","type":"uint256"}],"name":"MultiplierChanged","type":"event"},{"inputs":[{"internalType":"uint256","name":"callDataSize","type":"uint256"},{"internalType":"uint256","name":"l2GasUsed","type":"uint256"}],"name":"calculateGasCost","outputs":[{"internalType":"uint256","name":"","type":"uint256"}],"stateMutability":"view","type":"function"},{"inputs":[{"internalType":"address","name":"newMultiSig","type":"address"}],"name":"changeAdmin","outputs":[],"stateMutability":"nonpayable","type":"function"},{"inputs":[],"name":"multiplier","outputs":[{"internalType":"uint256","name":"","type":"uint256"}],"stateMutability":"view","type":"function"},{"inputs":[{"internalType":"uint256","name":"m","type":"uint256"}],"name":"setMultiplier","outputs":[],"stateMutability":"nonpayable","type":"function"}],"devdoc":{"kind":"dev","methods":{},"version":1},"evm":{"bytecode":{"linkReferences":{},"object":"608060405234801561001057600080fd5b5060405161042c38038061042c83398101604081905261002f91610058565b600080546001600160a01b0319166001600160a01b039390931692909217909155600155610092565b6000806040838503121561006b57600080fd5b82516001600160a01b038116811461008257600080fd5b6020939093015192949293505050565b61038b806100a16000396000f3fe608060405234801561001057600080fd5b506004361061004c5760003560e01c80631b3ed72214610051578063641579a61461006c578063852b66a5146100815780638f28397014610094575b600080fd5b61005a60015481565b60405190815260200160405180910390f35b61007f61007a366004610218565b6100a7565b005b61005a61008f366004610231565b610115565b61007f6100a2366004610253565b6101cc565b6000546001600160a01b031633146100da5760405162461bcd60e51b81526004016100d190610283565b60405180910390fd5b60018190556040518181527f0e17105029b990538e803a7a35f7c4fb0df74fcf27a15b12c46d0c6a59f827609060200160405180910390a150565b600080606c6001600160a01b03166341b247a86040518163ffffffff1660e01b815260040160c060405180830381865afa158015610157573d6000803e3d6000fd5b505050506040513d601f19601f8201168201806040525081019061017b91906102a9565b50505050915050670de0b6b3a7640000848260015461019a9190610309565b6101a49190610309565b6101ae9190610320565b6101b83a85610309565b6101c29190610342565b9150505b92915050565b6000546001600160a01b031633146101f65760405162461bcd60e51b81526004016100d190610283565b600080546001600160a01b0319166001600160a01b0392909216919091179055565b60006020828403121561022a57600080fd5b5035919050565b6000806040838503121561024457600080fd5b50508035926020909101359150565b60006020828403121561026557600080fd5b81356001600160a01b038116811461027c57600080fd5b9392505050565b6020808252600c908201526b155b985d5d1a1bdc9a5e995960a21b604082015260600190565b60008060008060008060c087890312156102c257600080fd5b865195506020870151945060408701519350606087015192506080870151915060a087015190509295509295509295565b634e487b7160e01b600052601160045260246000fd5b80820281158282048414176101c6576101c66102f3565b60008261033d57634e487b7160e01b600052601260045260246000fd5b500490565b808201808211156101c6576101c66102f356fea2646970667358221220b8cd27dfc63ba2b48816c98f2cccd4591e7f08ab83e8cf7953ffee6b8561855a64736f6c63430008110033","opcodes":"PUSH1 0x80 PUSH1 0x40 MSTORE CALLVALUE DUP1 ISZERO PUSH2 0x10 JUMPI PUSH1 0x0 DUP1 REVERT JUMPDEST POP PUSH1 0x40 MLOAD PUSH2 0x42C CODESIZE SUB DUP1 PUSH2 0x42C DUP4 CODECOPY DUP2 ADD PUSH1 0x40 DUP2 SWAP1 MSTORE PUSH2 0x2F SWAP2 PUSH2 0x58 JUMP JUMPDEST PUSH1 0x0 DUP1 SLOAD PUSH1 0x1 PUSH1 0x1 PUSH1 0xA0 SHL SUB NOT AND PUSH1 0x1 PUSH1 0x1 PUSH1 0xA0 SHL SUB SWAP4 SWAP1 SWAP4 AND SWAP3 SWAP1 SWAP3 OR SWAP1 SWAP2 SSTORE PUSH1 0x1 SSTORE PUSH2 0x92 JUMP JUMPDEST PUSH1 0x0 DUP1 PUSH1 0x40 DUP4 DUP6 SUB SLT ISZERO PUSH2 0x6B JUMPI PUSH1 0x0 DUP1 REVERT JUMPDEST DUP3 MLOAD PUSH1 0x1 PUSH1 0x1 PUSH1 0xA0 SHL SUB DUP2 AND DUP2 EQ PUSH2 0x82 JUMPI PUSH1 0x0 DUP1 REVERT JUMPDEST PUSH1 0x20 SWAP4 SWAP1 SWAP4 ADD MLOAD SWAP3 SWAP5 SWAP3 SWAP4 POP POP POP JUMP JUMPDEST PUSH2 0x38B DUP1 PUSH2 0xA1 PUSH1 0x0 CODECOPY PUSH1 0x0 RETURN INVALID PUSH1 0x80 PUSH1 0x40 MSTORE CALLVALUE DUP1 ISZERO PUSH2 0x10 JUMPI PUSH1 0x0 DUP1 REVERT JUMPDEST POP PUSH1 0x4 CALLDATASIZE LT PUSH2 0x4C JUMPI PUSH1 0x0 CALLDATALOAD PUSH1 0xE0 SHR DUP1 PUSH4 0x1B3ED722 EQ PUSH2 0x51 JUMPI DUP1 PUSH4 0x641579A6 EQ PUSH2 0x6C JUMPI DUP1 PUSH4 0x852B66A5 EQ PUSH2 0x81 JUMPI DUP1 PUSH4 0x8F283970 EQ PUSH2 0x94 JUMPI JUMPDEST PUSH1 0x0 DUP1 REVERT JUMPDEST PUSH2 0x5A PUSH1 0x1 SLOAD DUP2 JUMP JUMPDEST PUSH1 0x40 MLOAD SWAP1 DUP2 MSTORE PUSH1 0x20 ADD PUSH1 0x40 MLOAD DUP1 SWAP2 SUB SWAP1 RETURN JUMPDEST PUSH2 0x7F PUSH2 0x7A CALLDATASIZE PUSH1 0x4 PUSH2 0x218 JUMP JUMPDEST PUSH2 0xA7 JUMP JUMPDEST STOP JUMPDEST PUSH2 0x5A PUSH2 0x8F CALLDATASIZE PUSH1 0x4 PUSH2 0x231 JUMP JUMPDEST PUSH2 0x115 JUMP JUMPDEST PUSH2 0x7F PUSH2 0xA2 CALLDATASIZE PUSH1 0x4 PUSH2 0x253 JUMP JUMPDEST PUSH2 0x1CC JUMP JUMPDEST PUSH1 0x0 SLOAD PUSH1 0x1 PUSH1 0x1 PUSH1 0xA0 SHL SUB AND CALLER EQ PUSH2 0xDA JUMPI PUSH1 0x40 MLOAD PUSH3 0x461BCD PUSH1 0xE5 SHL DUP2 MSTORE PUSH1 0x4 ADD PUSH2 0xD1 SWAP1 PUSH2 0x283 JUMP JUMPDEST PUSH1 0x40 MLOAD DUP1 SWAP2 SUB SWAP1 REVERT JUMPDEST PUSH1 0x1 DUP2 SWAP1 SSTORE PUSH1 0x40 MLOAD DUP2 DUP2 MSTORE PUSH32 0xE17105029B990538E803A7A35F7C4FB0DF74FCF27A15B12C46D0C6A59F82760 SWAP1 PUSH1 0x20 ADD PUSH1 0x40 MLOAD DUP1 SWAP2 SUB SWAP1 LOG1 POP JUMP JUMPDEST PUSH1 0x0 DUP1 PUSH1 0x6C PUSH1 0x1 PUSH1 0x1 PUSH1 0xA0 SHL SUB AND PUSH4 0x41B247A8 PUSH1 0x40 MLOAD DUP2 PUSH4 0xFFFFFFFF AND PUSH1 0xE0 SHL DUP2 MSTORE PUSH1 0x4 ADD PUSH1 0xC0 PUSH1 0x40 MLOAD DUP1 DUP4 SUB DUP2 DUP7 GAS STATICCALL ISZERO DUP1 ISZERO PUSH2 0x157 JUMPI RETURNDATASIZE PUSH1 0x0 DUP1 RETURNDATACOPY RETURNDATASIZE PUSH1 0x0 REVERT JUMPDEST POP POP POP POP PUSH1 0x40 MLOAD RETURNDATASIZE PUSH1 0x1F NOT PUSH1 0x1F DUP3 ADD AND DUP3 ADD DUP1 PUSH1 0x40 MSTORE POP DUP2 ADD SWAP1 PUSH2 0x17B SWAP2 SWAP1 PUSH2 0x2A9 JUMP JUMPDEST POP POP POP POP SWAP2 POP POP PUSH8 0xDE0B6B3A7640000 DUP5 DUP3 PUSH1 0x1 SLOAD PUSH2 0x19A SWAP2 SWAP1 PUSH2 0x309 JUMP JUMPDEST PUSH2 0x1A4 SWAP2 SWAP1 PUSH2 0x309 JUMP JUMPDEST PUSH2 0x1AE SWAP2 SWAP1 PUSH2 0x320 JUMP JUMPDEST PUSH2 0x1B8 GASPRICE DUP6 PUSH2 0x309 JUMP JUMPDEST PUSH2 0x1C2 SWAP2 SWAP1 PUSH2 0x342 JUMP JUMPDEST SWAP2 POP POP JUMPDEST SWAP3 SWAP2 POP POP JUMP JUMPDEST PUSH1 0x0 SLOAD PUSH1 0x1 PUSH1 0x1 PUSH1 0xA0 SHL SUB AND CALLER EQ PUSH2 0x1F6 JUMPI PUSH1 0x40 MLOAD PUSH3 0x461BCD PUSH1 0xE5 SHL DUP2 MSTORE PUSH1 0x4 ADD PUSH2 0xD1 SWAP1 PUSH2 0x283 JUMP JUMPDEST PUSH1 0x0 DUP1 SLOAD PUSH1 0x1 PUSH1 0x1 PUSH1 0xA0 SHL SUB NOT AND PUSH1 0x1 PUSH1 0x1 PUSH1 0xA0 SHL SUB SWAP3 SWAP1 SWAP3 AND SWAP2 SWAP1 SWAP2 OR SWAP1 SSTORE JUMP JUMPDEST PUSH1 0x0 PUSH1 0x20 DUP3 DUP5 SUB SLT ISZERO PUSH2 0x22A JUMPI PUSH1 0x0 DUP1 REVERT JUMPDEST POP CALLDATALOAD SWAP2 SWAP1 POP JUMP JUMPDEST PUSH1 0x0 DUP1 PUSH1 0x40 DUP4 DUP6 SUB SLT ISZERO PUSH2 0x244 JUMPI PUSH1 0x0 DUP1 REVERT JUMPDEST POP POP DUP1 CALLDATALOAD SWAP3 PUSH1 0x20 SWAP1 SWAP2 ADD CALLDATALOAD SWAP2 POP JUMP JUMPDEST PUSH1 0x0 PUSH1 0x20 DUP3 DUP5 SUB SLT ISZERO PUSH2 0x265 JUMPI PUSH1 0x0 DUP1 REVERT JUMPDEST DUP2 CALLDATALOAD PUSH1 0x1 PUSH1 0x1 PUSH1 0xA0 SHL SUB DUP2 AND DUP2 EQ PUSH2 0x27C JUMPI PUSH1 0x0 DUP1 REVERT JUMPDEST SWAP4 SWAP3 POP POP POP JUMP JUMPDEST PUSH1 0x20 DUP1 DUP3 MSTORE PUSH1 0xC SWAP1 DUP3 ADD MSTORE PUSH12 0x155B985D5D1A1BDC9A5E9959 PUSH1 0xA2 SHL PUSH1 0x40 DUP3 ADD MSTORE PUSH1 0x60 ADD SWAP1 JUMP JUMPDEST PUSH1 0x0 DUP1 PUSH1 0x0 DUP1 PUSH1 0x0 DUP1 PUSH1 0xC0 DUP8 DUP10 SUB SLT ISZERO PUSH2 0x2C2 JUMPI PUSH1 0x0 DUP1 REVERT JUMPDEST DUP7 MLOAD SWAP6 POP PUSH1 0x20 DUP8 ADD MLOAD SWAP5 POP PUSH1 0x40 DUP8 ADD MLOAD SWAP4 POP PUSH1 0x60 DUP8 ADD MLOAD SWAP3 POP PUSH1 0x80 DUP8 ADD MLOAD SWAP2 POP PUSH1 0xA0 DUP8 ADD MLOAD SWAP1 POP SWAP3 SWAP6 POP SWAP3 SWAP6 POP SWAP3 SWAP6 JUMP JUMPDEST PUSH4 0x4E487B71 PUSH1 0xE0 SHL PUSH1 0x0 MSTORE PUSH1 0x11 PUSH1 0x4 MSTORE PUSH1 0x24 PUSH1 0x0 REVERT JUMPDEST DUP1 DUP3 MUL DUP2 ISZERO DUP3 DUP3 DIV DUP5 EQ OR PUSH2 0x1C6 JUMPI PUSH2 0x1C6 PUSH2 0x2F3 JUMP JUMPDEST PUSH1 0x0 DUP3 PUSH2 0x33D JUMPI PUSH4 0x4E487B71 PUSH1 0xE0 SHL PUSH1 0x0 MSTORE PUSH1 0x12 PUSH1 0x4 MSTORE PUSH1 0x24 PUSH1 0x0 REVERT JUMPDEST POP DIV SWAP1 JUMP JUMPDEST DUP1 DUP3 ADD DUP1 DUP3 GT ISZERO PUSH2 0x1C6 JUMPI PUSH2 0x1C6 PUSH2 0x2F3 JUMP INVALID LOG2 PUSH5 0x6970667358 0x22 SLT KECCAK256 0xB8 0xCD 0x27 0xDF 0xC6 EXTCODESIZE LOG2 0xB4 DUP9 AND 0xC9 DUP16 0x2C 0xCC 0xD4 MSIZE 0x1E PUSH32 0x8AB83E8CF7953FFEE6B8561855A64736F6C6343000811003300000000000000 "},"gasEstimates":{"creation":{"codeDepositCost":"181400","executionCost":"infinite","totalCost":"infinite"},"external":{"calculateGasCost(uint256,uint256)":"infinite","changeAdmin(address)":"26720","multiplier()":"2261","setMultiplier(uint256)":"25529"}},"methodIdentifiers":{"calculateGasCost(uint256,uint256)":"852b66a5","changeAdmin(address)":"8f283970","multiplier()":"1b3ed722","setMultiplier(uint256)":"641579a6"}},"storageLayout":{"storage":[{"astId":19,"contract":"contracts/dexible/oracles/ArbitrumGasOracle.sol:ArbitrumGasOracle","label":"adminMultiSig","offset":0,"slot":"0","type":"t_address"},{"astId":21,"contract":"contracts/dexible/oracles/ArbitrumGasOracle.sol:ArbitrumGasOracle","label":"multiplier","offset":0,"slot":"1","type":"t_uint256"}],"types":{"t_address":{"encoding":"inplace","label":"address","numberOfBytes":"20"},"t_uint256":{"encoding":"inplace","label":"uint256","numberOfBytes":"32"}}},"userdoc":{"kind":"user","methods":{"calculateGasCost(uint256,uint256)":{"notice":"Calculate the gas cost for an arbitrum txn. This is needed for contracts that  compute gas costs using gasleft() calls in solidity. The Arbitrum nodes do not accurately reflect actual gas used yet. So given the mis-calculated gasused and call data size this function will apply a multipler to the L1 gas fee to compute the estimated gas  cost for the txn."}},"version":1}}}}