{"contracts/vault/CommunityVault.sol":{"CommunityVault":{"abi":[{"inputs":[{"components":[{"internalType":"address","name":"wrappedNativeToken","type":"address"},{"internalType":"address","name":"adminMultiSig","type":"address"},{"internalType":"uint32","name":"timelockSeconds","type":"uint32"},{"internalType":"uint256","name":"baseMintThreshold","type":"uint256"},{"components":[{"internalType":"uint16","name":"minMMVolume","type":"uint16"},{"internalType":"uint16","name":"maxMMVolume","type":"uint16"},{"internalType":"uint256","name":"rate","type":"uint256"}],"internalType":"struct VaultStorage.MintRateRangeConfig[]","name":"rateRanges","type":"tuple[]"},{"components":[{"internalType":"address[]","name":"feeTokens","type":"address[]"},{"internalType":"address[]","name":"priceFeeds","type":"address[]"}],"internalType":"struct VaultStorage.FeeTokenConfig","name":"feeTokenConfig","type":"tuple"}],"internalType":"struct VaultStorage.VaultConfig","name":"config","type":"tuple"}],"stateMutability":"nonpayable","type":"constructor"},{"anonymous":false,"inputs":[{"indexed":false,"internalType":"uint256","name":"newVolume","type":"uint256"}],"name":"AppliedVolumeGoal","type":"event"},{"anonymous":false,"inputs":[{"indexed":false,"internalType":"uint32","name":"stdRate","type":"uint32"},{"indexed":false,"internalType":"uint32","name":"minRate","type":"uint32"}],"name":"BpsChanged","type":"event"},{"anonymous":false,"inputs":[{"indexed":false,"internalType":"address","name":"holder","type":"address"},{"indexed":false,"internalType":"uint256","name":"dxblAmount","type":"uint256"},{"indexed":false,"internalType":"address","name":"rewardToken","type":"address"},{"indexed":false,"internalType":"uint256","name":"rewardAmount","type":"uint256"}],"name":"DXBLRedeemed","type":"event"},{"anonymous":false,"inputs":[{"indexed":false,"internalType":"uint32","name":"newRate","type":"uint32"}],"name":"DiscountChanged","type":"event"},{"anonymous":false,"inputs":[{"indexed":true,"internalType":"address","name":"token","type":"address"},{"indexed":true,"internalType":"address","name":"priceFeed","type":"address"}],"name":"FeeTokenAdded","type":"event"},{"anonymous":false,"inputs":[{"indexed":true,"internalType":"address","name":"token","type":"address"}],"name":"FeeTokenRemoved","type":"event"},{"anonymous":false,"inputs":[{"indexed":true,"internalType":"address","name":"newVault","type":"address"}],"name":"MigrationCancelled","type":"event"},{"anonymous":false,"inputs":[{"indexed":true,"internalType":"address","name":"newVault","type":"address"},{"indexed":false,"internalType":"uint256","name":"afterTime","type":"uint256"}],"name":"MigrationScheduled","type":"event"},{"anonymous":false,"inputs":[{"indexed":false,"internalType":"uint16","name":"minThreshold","type":"uint16"},{"indexed":false,"internalType":"uint16","name":"maxThreshold","type":"uint16"},{"indexed":false,"internalType":"uint256","name":"percentage","type":"uint256"}],"name":"MintRateChange","type":"event"},{"anonymous":false,"inputs":[{"indexed":false,"internalType":"uint32","name":"oldStdRate","type":"uint32"},{"indexed":false,"internalType":"uint32","name":"newStdRate","type":"uint32"},{"indexed":false,"internalType":"uint32","name":"oldMinRate","type":"uint32"},{"indexed":false,"internalType":"uint32","name":"newMinRate","type":"uint32"},{"indexed":false,"internalType":"uint256","name":"allowedAfterTime","type":"uint256"}],"name":"ProposedBpsChange","type":"event"},{"anonymous":false,"inputs":[{"indexed":false,"internalType":"uint32","name":"oldRate","type":"uint32"},{"indexed":false,"internalType":"uint32","name":"newRate","type":"uint32"},{"indexed":false,"internalType":"uint256","name":"allowedAfterTime","type":"uint256"}],"name":"ProposedDiscountChange","type":"event"},{"anonymous":false,"inputs":[{"indexed":true,"internalType":"address","name":"token","type":"address"},{"indexed":true,"internalType":"address","name":"priceFeed","type":"address"},{"indexed":false,"internalType":"bool","name":"removal","type":"bool"},{"indexed":false,"internalType":"uint256","name":"allowedAfterTime","type":"uint256"}],"name":"ProposedFeeToken","type":"event"},{"anonymous":false,"inputs":[{"indexed":false,"internalType":"uint16","name":"minThreshold","type":"uint16"},{"indexed":false,"internalType":"uint16","name":"maxThreshold","type":"uint16"},{"indexed":false,"internalType":"uint256","name":"percentage","type":"uint256"},{"indexed":false,"internalType":"uint256","name":"allowedAfterTime","type":"uint256"}],"name":"ProposedMintRateChange","type":"event"},{"anonymous":false,"inputs":[{"indexed":false,"internalType":"uint256","name":"oldVolume","type":"uint256"},{"indexed":false,"internalType":"uint256","name":"newVolume","type":"uint256"},{"indexed":false,"internalType":"uint256","name":"allowedAfterTime","type":"uint256"}],"name":"ProposedVolumeGoal","type":"event"},{"anonymous":false,"inputs":[{"indexed":true,"internalType":"address","name":"newVault","type":"address"}],"name":"VaultMigrated","type":"event"},{"inputs":[],"name":"adminMultiSig","outputs":[{"internalType":"address","name":"","type":"address"}],"stateMutability":"view","type":"function"},{"inputs":[],"name":"assets","outputs":[{"components":[{"internalType":"address","name":"token","type":"address"},{"internalType":"uint256","name":"balance","type":"uint256"},{"internalType":"uint256","name":"usdValue","type":"uint256"},{"internalType":"uint256","name":"usdPrice","type":"uint256"}],"internalType":"struct IComputationalView.AssetInfo[]","name":"tokens","type":"tuple[]"}],"stateMutability":"view","type":"function"},{"inputs":[],"name":"aumUSD","outputs":[{"internalType":"uint256","name":"usd","type":"uint256"}],"stateMutability":"view","type":"function"},{"inputs":[],"name":"baseMintThreshold","outputs":[{"internalType":"uint256","name":"","type":"uint256"}],"stateMutability":"view","type":"function"},{"inputs":[],"name":"canMigrate","outputs":[{"internalType":"bool","name":"","type":"bool"}],"stateMutability":"view","type":"function"},{"inputs":[],"name":"cancelMigration","outputs":[],"stateMutability":"nonpayable","type":"function"},{"inputs":[{"internalType":"address","name":"feeToken","type":"address"},{"internalType":"uint256","name":"amount","type":"uint256"}],"name":"computeVolumeUSD","outputs":[{"internalType":"uint256","name":"volumeUSD","type":"uint256"}],"stateMutability":"view","type":"function"},{"inputs":[{"internalType":"address","name":"dexible","type":"address"},{"internalType":"address","name":"token","type":"address"}],"name":"configureContracts","outputs":[],"stateMutability":"nonpayable","type":"function"},{"inputs":[{"internalType":"address","name":"feeToken","type":"address"},{"internalType":"uint256","name":"gasCost","type":"uint256"}],"name":"convertGasToFeeToken","outputs":[{"internalType":"uint256","name":"","type":"uint256"}],"stateMutability":"view","type":"function"},{"inputs":[],"name":"currentMintRateUSD","outputs":[{"internalType":"uint256","name":"rate","type":"uint256"}],"stateMutability":"view","type":"function"},{"inputs":[],"name":"currentNavUSD","outputs":[{"internalType":"uint256","name":"nav","type":"uint256"}],"stateMutability":"view","type":"function"},{"inputs":[],"name":"dailyVolumeUSD","outputs":[{"internalType":"uint256","name":"","type":"uint256"}],"stateMutability":"view","type":"function"},{"inputs":[],"name":"dexible","outputs":[{"internalType":"address","name":"","type":"address"}],"stateMutability":"view","type":"function"},{"inputs":[],"name":"discountBps","outputs":[{"internalType":"uint32","name":"","type":"uint32"}],"stateMutability":"view","type":"function"},{"inputs":[],"name":"dxbl","outputs":[{"internalType":"address","name":"","type":"address"}],"stateMutability":"view","type":"function"},{"inputs":[{"internalType":"address","name":"rewardToken","type":"address"},{"internalType":"uint256","name":"dxblAmount","type":"uint256"}],"name":"estimateRedemption","outputs":[{"internalType":"uint256","name":"","type":"uint256"}],"stateMutability":"view","type":"function"},{"inputs":[{"internalType":"address","name":"feeToken","type":"address"}],"name":"feeTokenPriceUSD","outputs":[{"internalType":"uint256","name":"","type":"uint256"}],"stateMutability":"view","type":"function"},{"inputs":[{"internalType":"address","name":"token","type":"address"}],"name":"isFeeTokenAllowed","outputs":[{"internalType":"bool","name":"","type":"bool"}],"stateMutability":"view","type":"function"},{"inputs":[],"name":"migrateV1","outputs":[],"stateMutability":"nonpayable","type":"function"},{"inputs":[],"name":"pause","outputs":[],"stateMutability":"nonpayable","type":"function"},{"inputs":[],"name":"paused","outputs":[{"internalType":"bool","name":"","type":"bool"}],"stateMutability":"view","type":"function"},{"inputs":[{"internalType":"address","name":"rewardToken","type":"address"},{"internalType":"uint256","name":"dxblAmount","type":"uint256"},{"internalType":"uint256","name":"minOutAmount","type":"uint256"}],"name":"redeemDXBL","outputs":[],"stateMutability":"nonpayable","type":"function"},{"inputs":[],"name":"resume","outputs":[],"stateMutability":"nonpayable","type":"function"},{"inputs":[{"internalType":"address","name":"trader","type":"address"},{"internalType":"address","name":"feeToken","type":"address"},{"internalType":"uint256","name":"amount","type":"uint256"}],"name":"rewardTrader","outputs":[],"stateMutability":"nonpayable","type":"function"},{"inputs":[{"internalType":"contract V1MigrationTarget","name":"newVault","type":"address"}],"name":"scheduleMigration","outputs":[],"stateMutability":"nonpayable","type":"function"},{"inputs":[],"name":"timelockSeconds","outputs":[{"internalType":"uint32","name":"","type":"uint32"}],"stateMutability":"view","type":"function"},{"inputs":[],"name":"wrappedNativeToken","outputs":[{"internalType":"address","name":"","type":"address"}],"stateMutability":"view","type":"function"}],"devdoc":{"kind":"dev","methods":{},"version":1},"evm":{"bytecode":{"linkReferences":{},"object":"60806040523480156200001157600080fd5b506040516200316238038062003162833981016040819052620000349162000aea565b60006200004b6200029f60201b6200164a1760201c565b805490915061010090046001600160a01b031615620000da57805461010090046001600160a01b03163314620000d45760405162461bcd60e51b8152602060048201526024808201527f556e617574686f72697a656420746f206368616e676520636f6e6669677572616044820152633a34b7b760e11b60648201526084015b60405180910390fd5b620000e6565b805460ff191660011781555b6000826060015111620001475760405162461bcd60e51b815260206004820152602260248201527f4d7573742070726f7669646520612062617365206d696e74207468726573686f6044820152611b1960f21b6064820152608401620000cb565b81516001600160a01b0316620001a05760405162461bcd60e51b815260206004820152601c60248201527f496e76616c69642077726170706564206e617469766520746f6b656e000000006044820152606401620000cb565b6000826040015163ffffffff1611620001fc5760405162461bcd60e51b815260206004820152601760248201527f496e76616c69642074696d656c6f636b20706572696f640000000000000000006044820152606401620000cb565b60208201518154610100600160a81b0319166101006001600160a01b03928316021782556060830151600583015582516003830180546001600160a01b03191691909216179055604082015160048201805463ffffffff60a01b1916600160a01b63ffffffff90931692909202919091179055608082015162000281908290620002c3565b62000297818360a00151620004fb60201b60201c565b505062000c32565b7fbfa76ec2967ed7f8d3d40cd552f1451ab03573b596bfce931a6a016f7733078c90565b600d82015415620003175760405162461bcd60e51b815260206004820152601f60248201527f416c726561647920696e697469616c697a656420726174652072616e676573006044820152606401620000cb565b60005b8151811015620004815760008282815181106200033b576200033b62000bc8565b602002602001015190506000816020015161ffff16116200039f5760405162461bcd60e51b815260206004820152601960248201527f4d6178204d4d20566f6c756d65206d757374206265203e2030000000000000006044820152606401620000cb565b6000816040015111620003e85760405162461bcd60e51b815260206004820152601060248201526f052617465206d757374206265203e20360841b6044820152606401620000cb565b60408051608081018252825161ffff908116825260208085015182168184019081529484015193830193845260608301868152600d890180546001818101835560009283529390912094516003909102909401805496518416620100000263ffffffff1990971694909316939093179490941781559151928201929092559051600290910155620004798162000bde565b90506200031a565b5081600d016000815481106200049b576200049b62000bc8565b600091825260209091206003909102018054600a8401805461ffff92831661ffff19821681178355845463ffffffff19909216176201000091829004909316029190911790556001810154600b84015560020154600c9092019190915550565b80515115801590620005135750602081015151815151145b620005875760405162461bcd60e51b815260206004820152603f60248201527f4d7573742070726f7669646520657175616c2d6c656e6774682061727261797360448201527f20666f722066656520746f6b656e7320616e64207072696365206665656473006064820152608401620000cb565b60005b8151518110156200079457600082600001518281518110620005b057620005b062000bc8565b60200260200101519050600083602001518381518110620005d557620005d562000bc8565b6020908102919091018101516009870180546001810182556000918252908390200180546001600160a01b0319166001600160a01b0386169081179091556040805163313ce56760e01b81529051929450909263313ce567926004808401938290030181865afa1580156200064e573d6000803e3d6000fd5b505050506040513d601f19601f8201168201806040525081019062000674919062000c06565b856026016000846001600160a01b03166001600160a01b0316815260200190815260200160002060006101000a81548160ff021916908360ff1602179055506040518060400160405280826001600160a01b03168152602001826001600160a01b031663313ce5676040518163ffffffff1660e01b8152600401602060405180830381865afa1580156200070c573d6000803e3d6000fd5b505050506040513d601f19601f8201168201806040525081019062000732919062000c06565b60ff9081169091526001600160a01b0393841660009081526027880160209081526040909120835181549490920151909216600160a01b026001600160a81b031990931694169390931717909155506200078c8162000bde565b90506200058a565b5060038201546001600160a01b03166000908152602783016020526040902054600160a01b900460ff16620008235760405162461bcd60e51b815260206004820152602e60248201527f57726170706564206e6174697665206173736574206d7573742062652061207660448201526d30b634b2103332b2903a37b5b2b760911b6064820152608401620000cb565b5050565b634e487b7160e01b600052604160045260246000fd5b604051606081016001600160401b038111828210171562000862576200086262000827565b60405290565b60405160c081016001600160401b038111828210171562000862576200086262000827565b604051601f8201601f191681016001600160401b0381118282101715620008b857620008b862000827565b604052919050565b80516001600160a01b0381168114620008d857600080fd5b919050565b805163ffffffff81168114620008d857600080fd5b60006001600160401b038211156200090e576200090e62000827565b5060051b60200190565b805161ffff81168114620008d857600080fd5b600082601f8301126200093d57600080fd5b81516020620009566200095083620008f2565b6200088d565b828152606092830285018201928282019190878511156200097657600080fd5b8387015b85811015620009d45781818a031215620009945760008081fd5b6200099e6200083d565b620009a98262000918565b8152620009b886830162000918565b818701526040828101519082015284529284019281016200097a565b5090979650505050505050565b600082601f830112620009f357600080fd5b8151602062000a066200095083620008f2565b82815260059290921b8401810191818101908684111562000a2657600080fd5b8286015b8481101562000a4c5762000a3e81620008c0565b835291830191830162000a2a565b509695505050505050565b60006040828403121562000a6a57600080fd5b604080519081016001600160401b03808211838310171562000a905762000a9062000827565b81604052829350845191508082111562000aa957600080fd5b62000ab786838701620009e1565b8352602085015191508082111562000ace57600080fd5b5062000add85828601620009e1565b6020830152505092915050565b60006020828403121562000afd57600080fd5b81516001600160401b038082111562000b1557600080fd5b9083019060c0828603121562000b2a57600080fd5b62000b3462000868565b62000b3f83620008c0565b815262000b4f60208401620008c0565b602082015262000b6260408401620008dd565b60408201526060830151606082015260808301518281111562000b8457600080fd5b62000b92878286016200092b565b60808301525060a08301518281111562000bab57600080fd5b62000bb98782860162000a57565b60a08301525095945050505050565b634e487b7160e01b600052603260045260246000fd5b60006001820162000bff57634e487b7160e01b600052601160045260246000fd5b5060010190565b60006020828403121562000c1957600080fd5b815160ff8116811462000c2b57600080fd5b9392505050565b6125208062000c426000396000f3fe608060405234801561001057600080fd5b50600436106101795760003560e01c80635d204718116100d9578063821314701161008757806382131470146102b85780638456cb59146102c0578063a74aa566146102c8578063ab1094c0146102d0578063ce25cb4d146102e3578063df2fb8d6146102f6578063f7406fc3146102fe57600080fd5b80635d204718146102485780635de118901461025b5780636162cb911461026357806365a1f3c31461026b5780636c1f56331461028857806371a97305146102905780637262f557146102a557600080fd5b806320529bb11161013657806320529bb1146101ec578063288cbb5d146102025780633931f45d1461021557806341b5774a1461022857806345c6a8741461023057806356168843146102385780635c975abb1461024057600080fd5b8063046f7da21461017e57806310639ea01461018857806317fcb39b1461019057806318ac3b15146101ae57806319ed21bd146101c15780631dfc2ecf146101d9575b600080fd5b610186610311565b005b61018661036b565b610198610407565b6040516101a59190611f97565b60405180910390f35b6101866101bc366004611fc0565b610423565b6101c96106db565b60405190151581526020016101a5565b6101866101e7366004611ff5565b61071e565b6101f46107cc565b6040519081526020016101a5565b610186610210366004612012565b6108c8565b6101f461022336600461204b565b610968565b6101f4610a87565b610198610b02565b6101f4610b20565b6101c9610b33565b6101c9610256366004611ff5565b610b46565b6101f4610b79565b610198610c46565b610273610c62565b60405163ffffffff90911681526020016101a5565b610273610c82565b610298610d09565b6040516101a59190612077565b6101f46102b336600461204b565b610efd565b6101f4610fa0565b610186610fb3565b610198611007565b6101866102de3660046120e4565b611023565b6101f46102f1366004611ff5565b6111d3565b610186611255565b6101f461030c36600461204b565b6115fd565b600061031b61164a565b805490915061010090046001600160a01b031633146103555760405162461bcd60e51b815260040161034c90612125565b60405180910390fd5b600061035f61164a565b805460ff191690555050565b600061037561164a565b805490915061010090046001600160a01b031633146103a65760405162461bcd60e51b815260040161034c90612125565b60006103b061164a565b6000600882018190556004820180546001600160a01b031981169091556040519293506001600160a01b03169182917f7c7cf105c6d2d5b006d910653c90e1ddef1597f52e08f86f4a8aad4e5bdf255e91a2505050565b600061041161164a565b600301546001600160a01b0316919050565b600061042d61164a565b60018101546040516370a0823160e01b81529192506000916001600160a01b03909116906370a0823190610465903390600401611f97565b602060405180830381865afa158015610482573d6000803e3d6000fd5b505050506040513d601f19601f820116820180604052508101906104a6919061214b565b9050838110156105045760405162461bcd60e51b815260206004820152602360248201527f496e73756666696369656e74204458424c2062616c616e636520746f2072656460448201526265656d60e81b606482015260840161034c565b60006105108686610efd565b90506000866001600160a01b03166370a08231306040518263ffffffff1660e01b81526004016105409190611f97565b602060405180830381865afa15801561055d573d6000803e3d6000fd5b505050506040513d601f19601f82011682018060405250810190610581919061214b565b9050808211156106085784811061059a57809150610608565b60405162461bcd60e51b815260206004820152603e60248201527f496e73756666696369656e742061737365742062616c616e636520746f20707260448201527f6f6475636520657870656374656420776974686472617720616d6f756e740000606482015260840161034c565b61061c6001600160a01b038816338461166e565b6001840154604051632770a7eb60e21b81526001600160a01b0390911690639dc29fac906106509033908a90600401612164565b600060405180830381600087803b15801561066a57600080fd5b505af115801561067e573d6000803e3d6000fd5b505060408051338152602081018a90526001600160a01b038b16818301526060810186905290517f5fe85dc899e158274a44abab0e6df5434416f0ce11df30d42e02f229b8fc8a419350908190036080019150a150505050505050565b6000806106e661164a565b60048101549091506001600160a01b031615801590610709575060008160080154115b80156107185750428160080154105b91505090565b600061072861164a565b805490915061010090046001600160a01b031633146107595760405162461bcd60e51b815260040161034c90612125565b600061076361164a565b600481015490915061078290600160a01b900463ffffffff1642612193565b600882018190556040519081526001600160a01b038416907ffbf126b8a95ec693e692437a9297a98deec1cfb822b8c650b7d346461efdb2ad9060200160405180910390a2505050565b6000806107d761164a565b905060008160090180548060200260200160405190810160405280929190818152602001828054801561083357602002820191906000526020600020905b81546001600160a01b03168152600190910190602001808311610815575b5050505050905060005b81518110156108c257600082828151811061085a5761085a6121a6565b6020908102919091018101516001600160a01b038116600090815260278701909252604082209092509061088d826116c9565b9050600061089e8785846000611838565b5090506108ab8189612193565b975050505050806108bb906121bc565b905061083d565b50505090565b60006108d261164a565b805490915061010090046001600160a01b031633146109035760405162461bcd60e51b815260040161034c90612125565b600061090d61164a565b6002810180546001600160a01b0319166001600160a01b0387811691909117909155600182015491925016610962576001810180546001600160a01b0319166001600160a01b038516179055805460ff191681555b50505050565b60008061097361164a565b60038101549091506001600160a01b03908116908516036109975782915050610a81565b60038101546001600160a01b0316600090815260278201602052604081206109be906116c9565b6001600160a01b03861660009081526027840160205260408120919250906109e5906116c9565b9050600081610a0068327cb2734119d3b7a9601e1b856121d5565b610a0a9190612202565b9050600068327cb2734119d3b7a9601e1b610a2588846121d5565b610a2f9190612202565b6001600160a01b0389166000908152602687016020526040902054909150670de0b6b3a764000090610a659060ff16600a6122fa565b610a6f90836121d5565b610a799190612202565b955050505050505b92915050565b600080610a9261164a565b9050600064e8d4a510008260060154610aab9190612202565b905060008161ffff1683600a0160010154610ac691906121d5565b9050670de0b6b3a7640000818460050154610ae191906121d5565b610aeb9190612202565b8360050154610afa9190612193565b935050505090565b6000610b0c61164a565b5461010090046001600160a01b0316919050565b6000610b2a61164a565b60050154905090565b6000610b3d61164a565b5460ff16919050565b600080610b5161164a565b6001600160a01b03938416600090815260279091016020526040902054909216151592915050565b600080610b8461164a565b905060008160010160009054906101000a90046001600160a01b03166001600160a01b03166318160ddd6040518163ffffffff1660e01b8152600401602060405180830381865afa158015610bdd573d6000803e3d6000fd5b505050506040513d601f19601f82011682018060405250810190610c01919061214b565b90506000610c0d6107cc565b9050811580610c1a575080155b15610c29576000935050505090565b81610c3c82670de0b6b3a76400006121d5565b610afa9190612202565b6000610c5061164a565b600101546001600160a01b0316919050565b6000610c6c61164a565b60040154600160a01b900463ffffffff16919050565b6000610c8c61164a565b60010160009054906101000a90046001600160a01b03166001600160a01b031663566826d16040518163ffffffff1660e01b8152600401602060405180830381865afa158015610ce0573d6000803e3d6000fd5b505050506040513d601f19601f82011682018060405250810190610d049190612309565b905090565b60606000610d1561164a565b600981015490915067ffffffffffffffff811115610d3557610d3561232f565b604051908082528060200260200182016040528015610d9a57816020015b610d87604051806080016040528060006001600160a01b031681526020016000815260200160008152602001600081525090565b815260200190600190039081610d535790505b50915060008082600901805480602002602001604051908101604052809291908181526020018280548015610df857602002820191906000526020600020905b81546001600160a01b03168152600190910190602001808311610dda575b5050505050905060005b8151811015610ef6576000828281518110610e1f57610e1f6121a6565b6020908102919091018101516001600160a01b0381166000908152602788019092526040822090925090610e52826116c9565b9050600080610e648986856000611838565b915091506040518060800160405280866001600160a01b0316815260200182815260200183815260200168327cb2734119d3b7a9601e1b620f424086610eaa91906121d5565b610eb49190612202565b8152508a8981518110610ec957610ec96121a6565b602002602001018190525087610ede906121bc565b9750505050505080610eef906121bc565b9050610e02565b5050505090565b600080610f0861164a565b90506000610f14610b79565b9050620f4240610f3068327cb2734119d3b7a9601e1b836121d5565b610f3a9190612202565b90506000610f47866111d3565b6001600160a01b038716600090815260268501602052604081205491925060ff9091169082610f7783600a6122fa565b610f8190866121d5565b610f8b9190612202565b9050670de0b6b3a7640000610a6f82896121d5565b6000610faa61164a565b60060154905090565b6000610fbd61164a565b805490915061010090046001600160a01b03163314610fee5760405162461bcd60e51b815260040161034c90612125565b6000610ff861164a565b805460ff191660011790555050565b600061101161164a565b600201546001600160a01b0316919050565b600061102d61164a565b60028101549091506001600160a01b0316331461105c5760405162461bcd60e51b815260040161034c90612125565b600061106661164a565b60405163f7406fc360e01b8152909150600090309063f7406fc3906110919088908890600401612164565b602060405180830381865afa1580156110ae573d6000803e3d6000fd5b505050506040513d601f19601f820116820180604052508101906110d2919061214b565b90506000306001600160a01b03166341b5774a6040518163ffffffff1660e01b8152600401602060405180830381865afa158015611114573d6000803e3d6000fd5b505050506040513d601f19601f82011682018060405250810190611138919061214b565b905061114382611923565b60008161115884670de0b6b3a76400006121d5565b6111629190612202565b60018501546040516340c10f1960e01b81529192506001600160a01b0316906340c10f1990611197908b908590600401612164565b600060405180830381600087803b1580156111b157600080fd5b505af11580156111c5573d6000803e3d6000fd5b505050505050505050505050565b6000806111de61164a565b6001600160a01b0380851660009081526027830160205260409020805492935091166112445760405162461bcd60e51b81526020600482015260156024820152742ab739bab83837b93a32b2103332b2903a37b5b2b760591b604482015260640161034c565b61124d816116c9565b949350505050565b306001600160a01b03166319ed21bd6040518163ffffffff1660e01b8152600401602060405180830381865afa158015611293573d6000803e3d6000fd5b505050506040513d601f19601f820116820180604052508101906112b79190612345565b6112f85760405162461bcd60e51b815260206004820152601260248201527110d85b9b9bdd081b5a59dc985d19481e595d60721b604482015260640161034c565b600061130261164a565b6004810154815460ff191660011782559091506001600160a01b03166009820160005b8154811015611461576000828281548110611342576113426121a6565b6000918252602090912001546040516370a0823160e01b81526001600160a01b03909116906370a082319061137b903090600401611f97565b602060405180830381865afa158015611398573d6000803e3d6000fd5b505050506040513d601f19601f820116820180604052508101906113bc919061214b565b90508282815481106113d0576113d06121a6565b60009182526020909120015460405163a9059cbb60e01b81526001600160a01b039091169063a9059cbb9061140b9087908590600401612164565b6020604051808303816000875af115801561142a573d6000803e3d6000fd5b505050506040513d601f19601f8201168201806040525081019061144e9190612345565b50508061145a906121bc565b9050611325565b5060018301546040516348af6b1560e01b81526001600160a01b03909116906348af6b1590611494908590600401611f97565b600060405180830381600087803b1580156114ae57600080fd5b505af11580156114c2573d6000803e3d6000fd5b505060408051608081018252600687015481526007870154602082015281516103008101808452600095509193509183019190600e88019060189082845b81548152602001906001019080831161150057505050918352505060408051608081018252600a88015461ffff80821683526201000090910416602082810191909152600b89015482840152600c89015460608301529092019190915251632c326f2760e11b81529091506001600160a01b03841690635864de4e9061158a908490600401612367565b600060405180830381600087803b1580156115a457600080fd5b505af11580156115b8573d6000803e3d6000fd5b50506040516001600160a01b03861692507ffce0ac0494aee28941f2c55af2e1b069a1c8c96bce836f3fd7d9404ed662a9dc9150600090a2826001600160a01b038116ff5b60008061160861164a565b6001600160a01b0385166000908152602782016020526040812091925061162e826116c9565b9050600061163e84888489611838565b50979650505050505050565b7fbfa76ec2967ed7f8d3d40cd552f1451ab03573b596bfce931a6a016f7733078c90565b6116c48363a9059cbb60e01b848460405160240161168d929190612164565b60408051601f198184030181529190526020810180516001600160e01b03166001600160e01b031990931692909217909152611a3e565b505050565b60008060008360000160009054906101000a90046001600160a01b03166001600160a01b031663feaf968c6040518163ffffffff1660e01b815260040160a060405180830381865afa158015611723573d6000803e3d6000fd5b505050506040513d601f19601f820116820180604052508101906117479190612400565b50935050925050600082136117985760405162461bcd60e51b81526020600482015260176024820152764e6f207072696365206461746120617661696c61626c6560481b604482015260640161034c565b60006102586117aa6201518042612450565b6117b49190612450565b90508082116117f85760405162461bcd60e51b815260206004820152601060248201526f5374616c65207072696365206461746160801b604482015260640161034c565b845461180f90600160a01b900460ff16600a6122fa565b61182568327cb2734119d3b7a9601e1b856121d5565b61182f9190612202565b95945050505050565b6000818082036118b2576040516370a0823160e01b81526001600160a01b038616906370a082319061186e903090600401611f97565b602060405180830381865afa15801561188b573d6000803e3d6000fd5b505050506040513d601f19601f820116820180604052508101906118af919061214b565b90505b620f42406118c085836121d5565b6118ca91906121d5565b6001600160a01b038616600090815260268801602052604090205490925068327cb2734119d3b7a9601e1b906119049060ff16600a6122fa565b61190e91906121d5565b6119189083612202565b915094509492505050565b600061192d61164a565b6007810180544290915590915082811580159061195657506119526201518042612450565b8211155b1561196e57611969600e84016000611f6c565b611a1f565b6000610e106119806201518042612463565b61198a9190612202565b90506000601860018301069050600085600e0182601881106119ae576119ae6121a6565b01549050600086600e0183601881106119c9576119c96121a6565b015586600e870184601881106119e1576119e16121a6565b0160008282546119f19190612193565b90915550506006860154611a06908890612193565b93508015611a1b57611a188185612450565b93505b5050505b6006830181905561096283611a3964e8d4a5100084612202565b611b10565b6000611a93826040518060400160405280602081526020017f5361666545524332303a206c6f772d6c6576656c2063616c6c206661696c6564815250856001600160a01b0316611b7a9092919063ffffffff16565b8051909150156116c45780806020019051810190611ab19190612345565b6116c45760405162461bcd60e51b815260206004820152602a60248201527f5361666545524332303a204552433230206f7065726174696f6e20646964206e6044820152691bdd081cdd58d8d9595960b21b606482015260840161034c565b60408051608081018252600a84015461ffff808216835262010000909104811660208301819052600b86015493830193909352600c8501546060830152909190831610611b61576116c48383611b89565b805161ffff8084169116106116c4576116c48383611caf565b606061124d8484600085611dc3565b60408051608081018252600a84015461ffff808216835262010000909104166020820152600b84015491810191909152600c83015460608201525b611bce8183611e9e565b611c5a57600083600d0182606001516001611be99190612193565b81548110611bf957611bf96121a6565b906000526020600020906003020190508060010154600003611c1b5750611c5a565b60408051608081018252825461ffff80821683526201000090910416602082015260018301549181019190915260029091015460608201529050611bc4565b6040810151600b840154146116c4578051600a84018054602084015161ffff908116620100000263ffffffff199092169316929092179190911790556040810151600b8401556060810151600c840155505050565b60408051608081018252600a84015461ffff808216835262010000909104166020820152600b84015491810191909152600c83015460608201525b611cf48183611e9e565b611d7c57606081015115611d7c57600083600d0160018360600151611d199190612450565b81548110611d2957611d296121a6565b6000918252602091829020604080516080810182526003909302909101805461ffff808216855262010000909104169383019390935260018301549082015260029091015460608201529150611cea9050565b8051600a84018054602084015161ffff908116620100000263ffffffff199092169316929092179190911790556040810151600b84015560600151600c9092019190915550565b606082471015611e245760405162461bcd60e51b815260206004820152602660248201527f416464726573733a20696e73756666696369656e742062616c616e636520666f6044820152651c8818d85b1b60d21b606482015260840161034c565b600080866001600160a01b03168587604051611e40919061249b565b60006040518083038185875af1925050503d8060008114611e7d576040519150601f19603f3d011682016040523d82523d6000602084013e611e82565b606091505b5091509150611e9387838387611ece565b979650505050505050565b60008161ffff16836000015161ffff1611158015611ec75750826020015161ffff168261ffff16105b9392505050565b60608315611f3d578251600003611f36576001600160a01b0385163b611f365760405162461bcd60e51b815260206004820152601d60248201527f416464726573733a2063616c6c20746f206e6f6e2d636f6e7472616374000000604482015260640161034c565b508161124d565b61124d8383815115611f525781518083602001fd5b8060405162461bcd60e51b815260040161034c91906124b7565b50611f7b906018810190611f7e565b50565b5b80821115611f935760008155600101611f7f565b5090565b6001600160a01b0391909116815260200190565b6001600160a01b0381168114611f7b57600080fd5b600080600060608486031215611fd557600080fd5b8335611fe081611fab565b95602085013595506040909401359392505050565b60006020828403121561200757600080fd5b8135611ec781611fab565b6000806040838503121561202557600080fd5b823561203081611fab565b9150602083013561204081611fab565b809150509250929050565b6000806040838503121561205e57600080fd5b823561206981611fab565b946020939093013593505050565b602080825282518282018190526000919060409081850190868401855b828110156120d757815180516001600160a01b03168552868101518786015285810151868601526060908101519085015260809093019290850190600101612094565b5091979650505050505050565b6000806000606084860312156120f957600080fd5b833561210481611fab565b9250602084013561211481611fab565b929592945050506040919091013590565b6020808252600c908201526b155b985d5d1a1bdc9a5e995960a21b604082015260600190565b60006020828403121561215d57600080fd5b5051919050565b6001600160a01b03929092168252602082015260400190565b634e487b7160e01b600052601160045260246000fd5b80820180821115610a8157610a8161217d565b634e487b7160e01b600052603260045260246000fd5b6000600182016121ce576121ce61217d565b5060010190565b8082028115828204841417610a8157610a8161217d565b634e487b7160e01b600052601260045260246000fd5b600082612211576122116121ec565b500490565b600181815b808511156122515781600019048211156122375761223761217d565b8085161561224457918102915b93841c939080029061221b565b509250929050565b60008261226857506001610a81565b8161227557506000610a81565b816001811461228b5760028114612295576122b1565b6001915050610a81565b60ff8411156122a6576122a661217d565b50506001821b610a81565b5060208310610133831016604e8410600b84101617156122d4575081810a610a81565b6122de8383612216565b80600019048211156122f2576122f261217d565b029392505050565b6000611ec760ff841683612259565b60006020828403121561231b57600080fd5b815163ffffffff81168114611ec757600080fd5b634e487b7160e01b600052604160045260246000fd5b60006020828403121561235757600080fd5b81518015158114611ec757600080fd5b81518152602080830151818301526040808401516103c084019291840160005b60188110156123a457825182529183019190830190600101612387565b505050606093840151805161ffff908116610340860152918101519091166103608401526040810151610380840152909201516103a09091015290565b805169ffffffffffffffffffff811681146123fb57600080fd5b919050565b600080600080600060a0868803121561241857600080fd5b612421866123e1565b9450602086015193506040860151925060608601519150612444608087016123e1565b90509295509295909350565b81810381811115610a8157610a8161217d565b600082612472576124726121ec565b500690565b60005b8381101561249257818101518382015260200161247a565b50506000910152565b600082516124ad818460208701612477565b9190910192915050565b60208152600082518060208401526124d6816040850160208701612477565b601f01601f1916919091016040019291505056fea264697066735822122053194cc339f4f0d0a95e172e3f3b5fa4c74c576fe79d318535eaf5423c5dd02764736f6c63430008110033","opcodes":"PUSH1 0x80 PUSH1 0x40 MSTORE CALLVALUE DUP1 ISZERO PUSH3 0x11 JUMPI PUSH1 0x0 DUP1 REVERT JUMPDEST POP PUSH1 0x40 MLOAD PUSH3 0x3162 CODESIZE SUB DUP1 PUSH3 0x3162 DUP4 CODECOPY DUP2 ADD PUSH1 0x40 DUP2 SWAP1 MSTORE PUSH3 0x34 SWAP2 PUSH3 0xAEA JUMP JUMPDEST PUSH1 0x0 PUSH3 0x4B PUSH3 0x29F PUSH1 0x20 SHL PUSH3 0x164A OR PUSH1 0x20 SHR JUMP JUMPDEST DUP1 SLOAD SWAP1 SWAP2 POP PUSH2 0x100 SWAP1 DIV PUSH1 0x1 PUSH1 0x1 PUSH1 0xA0 SHL SUB AND ISZERO PUSH3 0xDA JUMPI DUP1 SLOAD PUSH2 0x100 SWAP1 DIV PUSH1 0x1 PUSH1 0x1 PUSH1 0xA0 SHL SUB AND CALLER EQ PUSH3 0xD4 JUMPI PUSH1 0x40 MLOAD PUSH3 0x461BCD PUSH1 0xE5 SHL DUP2 MSTORE PUSH1 0x20 PUSH1 0x4 DUP3 ADD MSTORE PUSH1 0x24 DUP1 DUP3 ADD MSTORE PUSH32 0x556E617574686F72697A656420746F206368616E676520636F6E666967757261 PUSH1 0x44 DUP3 ADD MSTORE PUSH4 0x3A34B7B7 PUSH1 0xE1 SHL PUSH1 0x64 DUP3 ADD MSTORE PUSH1 0x84 ADD JUMPDEST PUSH1 0x40 MLOAD DUP1 SWAP2 SUB SWAP1 REVERT JUMPDEST PUSH3 0xE6 JUMP JUMPDEST DUP1 SLOAD PUSH1 0xFF NOT AND PUSH1 0x1 OR DUP2 SSTORE JUMPDEST PUSH1 0x0 DUP3 PUSH1 0x60 ADD MLOAD GT PUSH3 0x147 JUMPI PUSH1 0x40 MLOAD PUSH3 0x461BCD PUSH1 0xE5 SHL DUP2 MSTORE PUSH1 0x20 PUSH1 0x4 DUP3 ADD MSTORE PUSH1 0x22 PUSH1 0x24 DUP3 ADD MSTORE PUSH32 0x4D7573742070726F7669646520612062617365206D696E74207468726573686F PUSH1 0x44 DUP3 ADD MSTORE PUSH2 0x1B19 PUSH1 0xF2 SHL PUSH1 0x64 DUP3 ADD MSTORE PUSH1 0x84 ADD PUSH3 0xCB JUMP JUMPDEST DUP2 MLOAD PUSH1 0x1 PUSH1 0x1 PUSH1 0xA0 SHL SUB AND PUSH3 0x1A0 JUMPI PUSH1 0x40 MLOAD PUSH3 0x461BCD PUSH1 0xE5 SHL DUP2 MSTORE PUSH1 0x20 PUSH1 0x4 DUP3 ADD MSTORE PUSH1 0x1C PUSH1 0x24 DUP3 ADD MSTORE PUSH32 0x496E76616C69642077726170706564206E617469766520746F6B656E00000000 PUSH1 0x44 DUP3 ADD MSTORE PUSH1 0x64 ADD PUSH3 0xCB JUMP JUMPDEST PUSH1 0x0 DUP3 PUSH1 0x40 ADD MLOAD PUSH4 0xFFFFFFFF AND GT PUSH3 0x1FC JUMPI PUSH1 0x40 MLOAD PUSH3 0x461BCD PUSH1 0xE5 SHL DUP2 MSTORE PUSH1 0x20 PUSH1 0x4 DUP3 ADD MSTORE PUSH1 0x17 PUSH1 0x24 DUP3 ADD MSTORE PUSH32 0x496E76616C69642074696D656C6F636B20706572696F64000000000000000000 PUSH1 0x44 DUP3 ADD MSTORE PUSH1 0x64 ADD PUSH3 0xCB JUMP JUMPDEST PUSH1 0x20 DUP3 ADD MLOAD DUP2 SLOAD PUSH2 0x100 PUSH1 0x1 PUSH1 0xA8 SHL SUB NOT AND PUSH2 0x100 PUSH1 0x1 PUSH1 0x1 PUSH1 0xA0 SHL SUB SWAP3 DUP4 AND MUL OR DUP3 SSTORE PUSH1 0x60 DUP4 ADD MLOAD PUSH1 0x5 DUP4 ADD SSTORE DUP3 MLOAD PUSH1 0x3 DUP4 ADD DUP1 SLOAD PUSH1 0x1 PUSH1 0x1 PUSH1 0xA0 SHL SUB NOT AND SWAP2 SWAP1 SWAP3 AND OR SWAP1 SSTORE PUSH1 0x40 DUP3 ADD MLOAD PUSH1 0x4 DUP3 ADD DUP1 SLOAD PUSH4 0xFFFFFFFF PUSH1 0xA0 SHL NOT AND PUSH1 0x1 PUSH1 0xA0 SHL PUSH4 0xFFFFFFFF SWAP1 SWAP4 AND SWAP3 SWAP1 SWAP3 MUL SWAP2 SWAP1 SWAP2 OR SWAP1 SSTORE PUSH1 0x80 DUP3 ADD MLOAD PUSH3 0x281 SWAP1 DUP3 SWAP1 PUSH3 0x2C3 JUMP JUMPDEST PUSH3 0x297 DUP2 DUP4 PUSH1 0xA0 ADD MLOAD PUSH3 0x4FB PUSH1 0x20 SHL PUSH1 0x20 SHR JUMP JUMPDEST POP POP PUSH3 0xC32 JUMP JUMPDEST PUSH32 0xBFA76EC2967ED7F8D3D40CD552F1451AB03573B596BFCE931A6A016F7733078C SWAP1 JUMP JUMPDEST PUSH1 0xD DUP3 ADD SLOAD ISZERO PUSH3 0x317 JUMPI PUSH1 0x40 MLOAD PUSH3 0x461BCD PUSH1 0xE5 SHL DUP2 MSTORE PUSH1 0x20 PUSH1 0x4 DUP3 ADD MSTORE PUSH1 0x1F PUSH1 0x24 DUP3 ADD MSTORE PUSH32 0x416C726561647920696E697469616C697A656420726174652072616E67657300 PUSH1 0x44 DUP3 ADD MSTORE PUSH1 0x64 ADD PUSH3 0xCB JUMP JUMPDEST PUSH1 0x0 JUMPDEST DUP2 MLOAD DUP2 LT ISZERO PUSH3 0x481 JUMPI PUSH1 0x0 DUP3 DUP3 DUP2 MLOAD DUP2 LT PUSH3 0x33B JUMPI PUSH3 0x33B PUSH3 0xBC8 JUMP JUMPDEST PUSH1 0x20 MUL PUSH1 0x20 ADD ADD MLOAD SWAP1 POP PUSH1 0x0 DUP2 PUSH1 0x20 ADD MLOAD PUSH2 0xFFFF AND GT PUSH3 0x39F JUMPI PUSH1 0x40 MLOAD PUSH3 0x461BCD PUSH1 0xE5 SHL DUP2 MSTORE PUSH1 0x20 PUSH1 0x4 DUP3 ADD MSTORE PUSH1 0x19 PUSH1 0x24 DUP3 ADD MSTORE PUSH32 0x4D6178204D4D20566F6C756D65206D757374206265203E203000000000000000 PUSH1 0x44 DUP3 ADD MSTORE PUSH1 0x64 ADD PUSH3 0xCB JUMP JUMPDEST PUSH1 0x0 DUP2 PUSH1 0x40 ADD MLOAD GT PUSH3 0x3E8 JUMPI PUSH1 0x40 MLOAD PUSH3 0x461BCD PUSH1 0xE5 SHL DUP2 MSTORE PUSH1 0x20 PUSH1 0x4 DUP3 ADD MSTORE PUSH1 0x10 PUSH1 0x24 DUP3 ADD MSTORE PUSH16 0x52617465206D757374206265203E203 PUSH1 0x84 SHL PUSH1 0x44 DUP3 ADD MSTORE PUSH1 0x64 ADD PUSH3 0xCB JUMP JUMPDEST PUSH1 0x40 DUP1 MLOAD PUSH1 0x80 DUP2 ADD DUP3 MSTORE DUP3 MLOAD PUSH2 0xFFFF SWAP1 DUP2 AND DUP3 MSTORE PUSH1 0x20 DUP1 DUP6 ADD MLOAD DUP3 AND DUP2 DUP5 ADD SWAP1 DUP2 MSTORE SWAP5 DUP5 ADD MLOAD SWAP4 DUP4 ADD SWAP4 DUP5 MSTORE PUSH1 0x60 DUP4 ADD DUP7 DUP2 MSTORE PUSH1 0xD DUP10 ADD DUP1 SLOAD PUSH1 0x1 DUP2 DUP2 ADD DUP4 SSTORE PUSH1 0x0 SWAP3 DUP4 MSTORE SWAP4 SWAP1 SWAP2 KECCAK256 SWAP5 MLOAD PUSH1 0x3 SWAP1 SWAP2 MUL SWAP1 SWAP5 ADD DUP1 SLOAD SWAP7 MLOAD DUP5 AND PUSH3 0x10000 MUL PUSH4 0xFFFFFFFF NOT SWAP1 SWAP8 AND SWAP5 SWAP1 SWAP4 AND SWAP4 SWAP1 SWAP4 OR SWAP5 SWAP1 SWAP5 OR DUP2 SSTORE SWAP2 MLOAD SWAP3 DUP3 ADD SWAP3 SWAP1 SWAP3 SSTORE SWAP1 MLOAD PUSH1 0x2 SWAP1 SWAP2 ADD SSTORE PUSH3 0x479 DUP2 PUSH3 0xBDE JUMP JUMPDEST SWAP1 POP PUSH3 0x31A JUMP JUMPDEST POP DUP2 PUSH1 0xD ADD PUSH1 0x0 DUP2 SLOAD DUP2 LT PUSH3 0x49B JUMPI PUSH3 0x49B PUSH3 0xBC8 JUMP JUMPDEST PUSH1 0x0 SWAP2 DUP3 MSTORE PUSH1 0x20 SWAP1 SWAP2 KECCAK256 PUSH1 0x3 SWAP1 SWAP2 MUL ADD DUP1 SLOAD PUSH1 0xA DUP5 ADD DUP1 SLOAD PUSH2 0xFFFF SWAP3 DUP4 AND PUSH2 0xFFFF NOT DUP3 AND DUP2 OR DUP4 SSTORE DUP5 SLOAD PUSH4 0xFFFFFFFF NOT SWAP1 SWAP3 AND OR PUSH3 0x10000 SWAP2 DUP3 SWAP1 DIV SWAP1 SWAP4 AND MUL SWAP2 SWAP1 SWAP2 OR SWAP1 SSTORE PUSH1 0x1 DUP2 ADD SLOAD PUSH1 0xB DUP5 ADD SSTORE PUSH1 0x2 ADD SLOAD PUSH1 0xC SWAP1 SWAP3 ADD SWAP2 SWAP1 SWAP2 SSTORE POP JUMP JUMPDEST DUP1 MLOAD MLOAD ISZERO DUP1 ISZERO SWAP1 PUSH3 0x513 JUMPI POP PUSH1 0x20 DUP2 ADD MLOAD MLOAD DUP2 MLOAD MLOAD EQ JUMPDEST PUSH3 0x587 JUMPI PUSH1 0x40 MLOAD PUSH3 0x461BCD PUSH1 0xE5 SHL DUP2 MSTORE PUSH1 0x20 PUSH1 0x4 DUP3 ADD MSTORE PUSH1 0x3F PUSH1 0x24 DUP3 ADD MSTORE PUSH32 0x4D7573742070726F7669646520657175616C2D6C656E67746820617272617973 PUSH1 0x44 DUP3 ADD MSTORE PUSH32 0x20666F722066656520746F6B656E7320616E6420707269636520666565647300 PUSH1 0x64 DUP3 ADD MSTORE PUSH1 0x84 ADD PUSH3 0xCB JUMP JUMPDEST PUSH1 0x0 JUMPDEST DUP2 MLOAD MLOAD DUP2 LT ISZERO PUSH3 0x794 JUMPI PUSH1 0x0 DUP3 PUSH1 0x0 ADD MLOAD DUP3 DUP2 MLOAD DUP2 LT PUSH3 0x5B0 JUMPI PUSH3 0x5B0 PUSH3 0xBC8 JUMP JUMPDEST PUSH1 0x20 MUL PUSH1 0x20 ADD ADD MLOAD SWAP1 POP PUSH1 0x0 DUP4 PUSH1 0x20 ADD MLOAD DUP4 DUP2 MLOAD DUP2 LT PUSH3 0x5D5 JUMPI PUSH3 0x5D5 PUSH3 0xBC8 JUMP JUMPDEST PUSH1 0x20 SWAP1 DUP2 MUL SWAP2 SWAP1 SWAP2 ADD DUP2 ADD MLOAD PUSH1 0x9 DUP8 ADD DUP1 SLOAD PUSH1 0x1 DUP2 ADD DUP3 SSTORE PUSH1 0x0 SWAP2 DUP3 MSTORE SWAP1 DUP4 SWAP1 KECCAK256 ADD DUP1 SLOAD PUSH1 0x1 PUSH1 0x1 PUSH1 0xA0 SHL SUB NOT AND PUSH1 0x1 PUSH1 0x1 PUSH1 0xA0 SHL SUB DUP7 AND SWAP1 DUP2 OR SWAP1 SWAP2 SSTORE PUSH1 0x40 DUP1 MLOAD PUSH4 0x313CE567 PUSH1 0xE0 SHL DUP2 MSTORE SWAP1 MLOAD SWAP3 SWAP5 POP SWAP1 SWAP3 PUSH4 0x313CE567 SWAP3 PUSH1 0x4 DUP1 DUP5 ADD SWAP4 DUP3 SWAP1 SUB ADD DUP2 DUP7 GAS STATICCALL ISZERO DUP1 ISZERO PUSH3 0x64E JUMPI RETURNDATASIZE PUSH1 0x0 DUP1 RETURNDATACOPY RETURNDATASIZE PUSH1 0x0 REVERT JUMPDEST POP POP POP POP PUSH1 0x40 MLOAD RETURNDATASIZE PUSH1 0x1F NOT PUSH1 0x1F DUP3 ADD AND DUP3 ADD DUP1 PUSH1 0x40 MSTORE POP DUP2 ADD SWAP1 PUSH3 0x674 SWAP2 SWAP1 PUSH3 0xC06 JUMP JUMPDEST DUP6 PUSH1 0x26 ADD PUSH1 0x0 DUP5 PUSH1 0x1 PUSH1 0x1 PUSH1 0xA0 SHL SUB AND PUSH1 0x1 PUSH1 0x1 PUSH1 0xA0 SHL SUB AND DUP2 MSTORE PUSH1 0x20 ADD SWAP1 DUP2 MSTORE PUSH1 0x20 ADD PUSH1 0x0 KECCAK256 PUSH1 0x0 PUSH2 0x100 EXP DUP2 SLOAD DUP2 PUSH1 0xFF MUL NOT AND SWAP1 DUP4 PUSH1 0xFF AND MUL OR SWAP1 SSTORE POP PUSH1 0x40 MLOAD DUP1 PUSH1 0x40 ADD PUSH1 0x40 MSTORE DUP1 DUP3 PUSH1 0x1 PUSH1 0x1 PUSH1 0xA0 SHL SUB AND DUP2 MSTORE PUSH1 0x20 ADD DUP3 PUSH1 0x1 PUSH1 0x1 PUSH1 0xA0 SHL SUB AND PUSH4 0x313CE567 PUSH1 0x40 MLOAD DUP2 PUSH4 0xFFFFFFFF AND PUSH1 0xE0 SHL DUP2 MSTORE PUSH1 0x4 ADD PUSH1 0x20 PUSH1 0x40 MLOAD DUP1 DUP4 SUB DUP2 DUP7 GAS STATICCALL ISZERO DUP1 ISZERO PUSH3 0x70C JUMPI RETURNDATASIZE PUSH1 0x0 DUP1 RETURNDATACOPY RETURNDATASIZE PUSH1 0x0 REVERT JUMPDEST POP POP POP POP PUSH1 0x40 MLOAD RETURNDATASIZE PUSH1 0x1F NOT PUSH1 0x1F DUP3 ADD AND DUP3 ADD DUP1 PUSH1 0x40 MSTORE POP DUP2 ADD SWAP1 PUSH3 0x732 SWAP2 SWAP1 PUSH3 0xC06 JUMP JUMPDEST PUSH1 0xFF SWAP1 DUP2 AND SWAP1 SWAP2 MSTORE PUSH1 0x1 PUSH1 0x1 PUSH1 0xA0 SHL SUB SWAP4 DUP5 AND PUSH1 0x0 SWAP1 DUP2 MSTORE PUSH1 0x27 DUP9 ADD PUSH1 0x20 SWAP1 DUP2 MSTORE PUSH1 0x40 SWAP1 SWAP2 KECCAK256 DUP4 MLOAD DUP2 SLOAD SWAP5 SWAP1 SWAP3 ADD MLOAD SWAP1 SWAP3 AND PUSH1 0x1 PUSH1 0xA0 SHL MUL PUSH1 0x1 PUSH1 0x1 PUSH1 0xA8 SHL SUB NOT SWAP1 SWAP4 AND SWAP5 AND SWAP4 SWAP1 SWAP4 OR OR SWAP1 SWAP2 SSTORE POP PUSH3 0x78C DUP2 PUSH3 0xBDE JUMP JUMPDEST SWAP1 POP PUSH3 0x58A JUMP JUMPDEST POP PUSH1 0x3 DUP3 ADD SLOAD PUSH1 0x1 PUSH1 0x1 PUSH1 0xA0 SHL SUB AND PUSH1 0x0 SWAP1 DUP2 MSTORE PUSH1 0x27 DUP4 ADD PUSH1 0x20 MSTORE PUSH1 0x40 SWAP1 KECCAK256 SLOAD PUSH1 0x1 PUSH1 0xA0 SHL SWAP1 DIV PUSH1 0xFF AND PUSH3 0x823 JUMPI PUSH1 0x40 MLOAD PUSH3 0x461BCD PUSH1 0xE5 SHL DUP2 MSTORE PUSH1 0x20 PUSH1 0x4 DUP3 ADD MSTORE PUSH1 0x2E PUSH1 0x24 DUP3 ADD MSTORE PUSH32 0x57726170706564206E6174697665206173736574206D75737420626520612076 PUSH1 0x44 DUP3 ADD MSTORE PUSH14 0x30B634B2103332B2903A37B5B2B7 PUSH1 0x91 SHL PUSH1 0x64 DUP3 ADD MSTORE PUSH1 0x84 ADD PUSH3 0xCB JUMP JUMPDEST POP POP JUMP JUMPDEST PUSH4 0x4E487B71 PUSH1 0xE0 SHL PUSH1 0x0 MSTORE PUSH1 0x41 PUSH1 0x4 MSTORE PUSH1 0x24 PUSH1 0x0 REVERT JUMPDEST PUSH1 0x40 MLOAD PUSH1 0x60 DUP2 ADD PUSH1 0x1 PUSH1 0x1 PUSH1 0x40 SHL SUB DUP2 GT DUP3 DUP3 LT OR ISZERO PUSH3 0x862 JUMPI PUSH3 0x862 PUSH3 0x827 JUMP JUMPDEST PUSH1 0x40 MSTORE SWAP1 JUMP JUMPDEST PUSH1 0x40 MLOAD PUSH1 0xC0 DUP2 ADD PUSH1 0x1 PUSH1 0x1 PUSH1 0x40 SHL SUB DUP2 GT DUP3 DUP3 LT OR ISZERO PUSH3 0x862 JUMPI PUSH3 0x862 PUSH3 0x827 JUMP JUMPDEST PUSH1 0x40 MLOAD PUSH1 0x1F DUP3 ADD PUSH1 0x1F NOT AND DUP2 ADD PUSH1 0x1 PUSH1 0x1 PUSH1 0x40 SHL SUB DUP2 GT DUP3 DUP3 LT OR ISZERO PUSH3 0x8B8 JUMPI PUSH3 0x8B8 PUSH3 0x827 JUMP JUMPDEST PUSH1 0x40 MSTORE SWAP2 SWAP1 POP JUMP JUMPDEST DUP1 MLOAD PUSH1 0x1 PUSH1 0x1 PUSH1 0xA0 SHL SUB DUP2 AND DUP2 EQ PUSH3 0x8D8 JUMPI PUSH1 0x0 DUP1 REVERT JUMPDEST SWAP2 SWAP1 POP JUMP JUMPDEST DUP1 MLOAD PUSH4 0xFFFFFFFF DUP2 AND DUP2 EQ PUSH3 0x8D8 JUMPI PUSH1 0x0 DUP1 REVERT JUMPDEST PUSH1 0x0 PUSH1 0x1 PUSH1 0x1 PUSH1 0x40 SHL SUB DUP3 GT ISZERO PUSH3 0x90E JUMPI PUSH3 0x90E PUSH3 0x827 JUMP JUMPDEST POP PUSH1 0x5 SHL PUSH1 0x20 ADD SWAP1 JUMP JUMPDEST DUP1 MLOAD PUSH2 0xFFFF DUP2 AND DUP2 EQ PUSH3 0x8D8 JUMPI PUSH1 0x0 DUP1 REVERT JUMPDEST PUSH1 0x0 DUP3 PUSH1 0x1F DUP4 ADD SLT PUSH3 0x93D JUMPI PUSH1 0x0 DUP1 REVERT JUMPDEST DUP2 MLOAD PUSH1 0x20 PUSH3 0x956 PUSH3 0x950 DUP4 PUSH3 0x8F2 JUMP JUMPDEST PUSH3 0x88D JUMP JUMPDEST DUP3 DUP2 MSTORE PUSH1 0x60 SWAP3 DUP4 MUL DUP6 ADD DUP3 ADD SWAP3 DUP3 DUP3 ADD SWAP2 SWAP1 DUP8 DUP6 GT ISZERO PUSH3 0x976 JUMPI PUSH1 0x0 DUP1 REVERT JUMPDEST DUP4 DUP8 ADD JUMPDEST DUP6 DUP2 LT ISZERO PUSH3 0x9D4 JUMPI DUP2 DUP2 DUP11 SUB SLT ISZERO PUSH3 0x994 JUMPI PUSH1 0x0 DUP1 DUP2 REVERT JUMPDEST PUSH3 0x99E PUSH3 0x83D JUMP JUMPDEST PUSH3 0x9A9 DUP3 PUSH3 0x918 JUMP JUMPDEST DUP2 MSTORE PUSH3 0x9B8 DUP7 DUP4 ADD PUSH3 0x918 JUMP JUMPDEST DUP2 DUP8 ADD MSTORE PUSH1 0x40 DUP3 DUP2 ADD MLOAD SWAP1 DUP3 ADD MSTORE DUP5 MSTORE SWAP3 DUP5 ADD SWAP3 DUP2 ADD PUSH3 0x97A JUMP JUMPDEST POP SWAP1 SWAP8 SWAP7 POP POP POP POP POP POP POP JUMP JUMPDEST PUSH1 0x0 DUP3 PUSH1 0x1F DUP4 ADD SLT PUSH3 0x9F3 JUMPI PUSH1 0x0 DUP1 REVERT JUMPDEST DUP2 MLOAD PUSH1 0x20 PUSH3 0xA06 PUSH3 0x950 DUP4 PUSH3 0x8F2 JUMP JUMPDEST DUP3 DUP2 MSTORE PUSH1 0x5 SWAP3 SWAP1 SWAP3 SHL DUP5 ADD DUP2 ADD SWAP2 DUP2 DUP2 ADD SWAP1 DUP7 DUP5 GT ISZERO PUSH3 0xA26 JUMPI PUSH1 0x0 DUP1 REVERT JUMPDEST DUP3 DUP7 ADD JUMPDEST DUP5 DUP2 LT ISZERO PUSH3 0xA4C JUMPI PUSH3 0xA3E DUP2 PUSH3 0x8C0 JUMP JUMPDEST DUP4 MSTORE SWAP2 DUP4 ADD SWAP2 DUP4 ADD PUSH3 0xA2A JUMP JUMPDEST POP SWAP7 SWAP6 POP POP POP POP POP POP JUMP JUMPDEST PUSH1 0x0 PUSH1 0x40 DUP3 DUP5 SUB SLT ISZERO PUSH3 0xA6A JUMPI PUSH1 0x0 DUP1 REVERT JUMPDEST PUSH1 0x40 DUP1 MLOAD SWAP1 DUP2 ADD PUSH1 0x1 PUSH1 0x1 PUSH1 0x40 SHL SUB DUP1 DUP3 GT DUP4 DUP4 LT OR ISZERO PUSH3 0xA90 JUMPI PUSH3 0xA90 PUSH3 0x827 JUMP JUMPDEST DUP2 PUSH1 0x40 MSTORE DUP3 SWAP4 POP DUP5 MLOAD SWAP2 POP DUP1 DUP3 GT ISZERO PUSH3 0xAA9 JUMPI PUSH1 0x0 DUP1 REVERT JUMPDEST PUSH3 0xAB7 DUP7 DUP4 DUP8 ADD PUSH3 0x9E1 JUMP JUMPDEST DUP4 MSTORE PUSH1 0x20 DUP6 ADD MLOAD SWAP2 POP DUP1 DUP3 GT ISZERO PUSH3 0xACE JUMPI PUSH1 0x0 DUP1 REVERT JUMPDEST POP PUSH3 0xADD DUP6 DUP3 DUP7 ADD PUSH3 0x9E1 JUMP JUMPDEST PUSH1 0x20 DUP4 ADD MSTORE POP POP SWAP3 SWAP2 POP POP JUMP JUMPDEST PUSH1 0x0 PUSH1 0x20 DUP3 DUP5 SUB SLT ISZERO PUSH3 0xAFD JUMPI PUSH1 0x0 DUP1 REVERT JUMPDEST DUP2 MLOAD PUSH1 0x1 PUSH1 0x1 PUSH1 0x40 SHL SUB DUP1 DUP3 GT ISZERO PUSH3 0xB15 JUMPI PUSH1 0x0 DUP1 REVERT JUMPDEST SWAP1 DUP4 ADD SWAP1 PUSH1 0xC0 DUP3 DUP7 SUB SLT ISZERO PUSH3 0xB2A JUMPI PUSH1 0x0 DUP1 REVERT JUMPDEST PUSH3 0xB34 PUSH3 0x868 JUMP JUMPDEST PUSH3 0xB3F DUP4 PUSH3 0x8C0 JUMP JUMPDEST DUP2 MSTORE PUSH3 0xB4F PUSH1 0x20 DUP5 ADD PUSH3 0x8C0 JUMP JUMPDEST PUSH1 0x20 DUP3 ADD MSTORE PUSH3 0xB62 PUSH1 0x40 DUP5 ADD PUSH3 0x8DD JUMP JUMPDEST PUSH1 0x40 DUP3 ADD MSTORE PUSH1 0x60 DUP4 ADD MLOAD PUSH1 0x60 DUP3 ADD MSTORE PUSH1 0x80 DUP4 ADD MLOAD DUP3 DUP2 GT ISZERO PUSH3 0xB84 JUMPI PUSH1 0x0 DUP1 REVERT JUMPDEST PUSH3 0xB92 DUP8 DUP3 DUP7 ADD PUSH3 0x92B JUMP JUMPDEST PUSH1 0x80 DUP4 ADD MSTORE POP PUSH1 0xA0 DUP4 ADD MLOAD DUP3 DUP2 GT ISZERO PUSH3 0xBAB JUMPI PUSH1 0x0 DUP1 REVERT JUMPDEST PUSH3 0xBB9 DUP8 DUP3 DUP7 ADD PUSH3 0xA57 JUMP JUMPDEST PUSH1 0xA0 DUP4 ADD MSTORE POP SWAP6 SWAP5 POP POP POP POP POP JUMP JUMPDEST PUSH4 0x4E487B71 PUSH1 0xE0 SHL PUSH1 0x0 MSTORE PUSH1 0x32 PUSH1 0x4 MSTORE PUSH1 0x24 PUSH1 0x0 REVERT JUMPDEST PUSH1 0x0 PUSH1 0x1 DUP3 ADD PUSH3 0xBFF JUMPI PUSH4 0x4E487B71 PUSH1 0xE0 SHL PUSH1 0x0 MSTORE PUSH1 0x11 PUSH1 0x4 MSTORE PUSH1 0x24 PUSH1 0x0 REVERT JUMPDEST POP PUSH1 0x1 ADD SWAP1 JUMP JUMPDEST PUSH1 0x0 PUSH1 0x20 DUP3 DUP5 SUB SLT ISZERO PUSH3 0xC19 JUMPI PUSH1 0x0 DUP1 REVERT JUMPDEST DUP2 MLOAD PUSH1 0xFF DUP2 AND DUP2 EQ PUSH3 0xC2B JUMPI PUSH1 0x0 DUP1 REVERT JUMPDEST SWAP4 SWAP3 POP POP POP JUMP JUMPDEST PUSH2 0x2520 DUP1 PUSH3 0xC42 PUSH1 0x0 CODECOPY PUSH1 0x0 RETURN INVALID PUSH1 0x80 PUSH1 0x40 MSTORE CALLVALUE DUP1 ISZERO PUSH2 0x10 JUMPI PUSH1 0x0 DUP1 REVERT JUMPDEST POP PUSH1 0x4 CALLDATASIZE LT PUSH2 0x179 JUMPI PUSH1 0x0 CALLDATALOAD PUSH1 0xE0 SHR DUP1 PUSH4 0x5D204718 GT PUSH2 0xD9 JUMPI DUP1 PUSH4 0x82131470 GT PUSH2 0x87 JUMPI DUP1 PUSH4 0x82131470 EQ PUSH2 0x2B8 JUMPI DUP1 PUSH4 0x8456CB59 EQ PUSH2 0x2C0 JUMPI DUP1 PUSH4 0xA74AA566 EQ PUSH2 0x2C8 JUMPI DUP1 PUSH4 0xAB1094C0 EQ PUSH2 0x2D0 JUMPI DUP1 PUSH4 0xCE25CB4D EQ PUSH2 0x2E3 JUMPI DUP1 PUSH4 0xDF2FB8D6 EQ PUSH2 0x2F6 JUMPI DUP1 PUSH4 0xF7406FC3 EQ PUSH2 0x2FE JUMPI PUSH1 0x0 DUP1 REVERT JUMPDEST DUP1 PUSH4 0x5D204718 EQ PUSH2 0x248 JUMPI DUP1 PUSH4 0x5DE11890 EQ PUSH2 0x25B JUMPI DUP1 PUSH4 0x6162CB91 EQ PUSH2 0x263 JUMPI DUP1 PUSH4 0x65A1F3C3 EQ PUSH2 0x26B JUMPI DUP1 PUSH4 0x6C1F5633 EQ PUSH2 0x288 JUMPI DUP1 PUSH4 0x71A97305 EQ PUSH2 0x290 JUMPI DUP1 PUSH4 0x7262F557 EQ PUSH2 0x2A5 JUMPI PUSH1 0x0 DUP1 REVERT JUMPDEST DUP1 PUSH4 0x20529BB1 GT PUSH2 0x136 JUMPI DUP1 PUSH4 0x20529BB1 EQ PUSH2 0x1EC JUMPI DUP1 PUSH4 0x288CBB5D EQ PUSH2 0x202 JUMPI DUP1 PUSH4 0x3931F45D EQ PUSH2 0x215 JUMPI DUP1 PUSH4 0x41B5774A EQ PUSH2 0x228 JUMPI DUP1 PUSH4 0x45C6A874 EQ PUSH2 0x230 JUMPI DUP1 PUSH4 0x56168843 EQ PUSH2 0x238 JUMPI DUP1 PUSH4 0x5C975ABB EQ PUSH2 0x240 JUMPI PUSH1 0x0 DUP1 REVERT JUMPDEST DUP1 PUSH4 0x46F7DA2 EQ PUSH2 0x17E JUMPI DUP1 PUSH4 0x10639EA0 EQ PUSH2 0x188 JUMPI DUP1 PUSH4 0x17FCB39B EQ PUSH2 0x190 JUMPI DUP1 PUSH4 0x18AC3B15 EQ PUSH2 0x1AE JUMPI DUP1 PUSH4 0x19ED21BD EQ PUSH2 0x1C1 JUMPI DUP1 PUSH4 0x1DFC2ECF EQ PUSH2 0x1D9 JUMPI JUMPDEST PUSH1 0x0 DUP1 REVERT JUMPDEST PUSH2 0x186 PUSH2 0x311 JUMP JUMPDEST STOP JUMPDEST PUSH2 0x186 PUSH2 0x36B JUMP JUMPDEST PUSH2 0x198 PUSH2 0x407 JUMP JUMPDEST PUSH1 0x40 MLOAD PUSH2 0x1A5 SWAP2 SWAP1 PUSH2 0x1F97 JUMP JUMPDEST PUSH1 0x40 MLOAD DUP1 SWAP2 SUB SWAP1 RETURN JUMPDEST PUSH2 0x186 PUSH2 0x1BC CALLDATASIZE PUSH1 0x4 PUSH2 0x1FC0 JUMP JUMPDEST PUSH2 0x423 JUMP JUMPDEST PUSH2 0x1C9 PUSH2 0x6DB JUMP JUMPDEST PUSH1 0x40 MLOAD SWAP1 ISZERO ISZERO DUP2 MSTORE PUSH1 0x20 ADD PUSH2 0x1A5 JUMP JUMPDEST PUSH2 0x186 PUSH2 0x1E7 CALLDATASIZE PUSH1 0x4 PUSH2 0x1FF5 JUMP JUMPDEST PUSH2 0x71E JUMP JUMPDEST PUSH2 0x1F4 PUSH2 0x7CC JUMP JUMPDEST PUSH1 0x40 MLOAD SWAP1 DUP2 MSTORE PUSH1 0x20 ADD PUSH2 0x1A5 JUMP JUMPDEST PUSH2 0x186 PUSH2 0x210 CALLDATASIZE PUSH1 0x4 PUSH2 0x2012 JUMP JUMPDEST PUSH2 0x8C8 JUMP JUMPDEST PUSH2 0x1F4 PUSH2 0x223 CALLDATASIZE PUSH1 0x4 PUSH2 0x204B JUMP JUMPDEST PUSH2 0x968 JUMP JUMPDEST PUSH2 0x1F4 PUSH2 0xA87 JUMP JUMPDEST PUSH2 0x198 PUSH2 0xB02 JUMP JUMPDEST PUSH2 0x1F4 PUSH2 0xB20 JUMP JUMPDEST PUSH2 0x1C9 PUSH2 0xB33 JUMP JUMPDEST PUSH2 0x1C9 PUSH2 0x256 CALLDATASIZE PUSH1 0x4 PUSH2 0x1FF5 JUMP JUMPDEST PUSH2 0xB46 JUMP JUMPDEST PUSH2 0x1F4 PUSH2 0xB79 JUMP JUMPDEST PUSH2 0x198 PUSH2 0xC46 JUMP JUMPDEST PUSH2 0x273 PUSH2 0xC62 JUMP JUMPDEST PUSH1 0x40 MLOAD PUSH4 0xFFFFFFFF SWAP1 SWAP2 AND DUP2 MSTORE PUSH1 0x20 ADD PUSH2 0x1A5 JUMP JUMPDEST PUSH2 0x273 PUSH2 0xC82 JUMP JUMPDEST PUSH2 0x298 PUSH2 0xD09 JUMP JUMPDEST PUSH1 0x40 MLOAD PUSH2 0x1A5 SWAP2 SWAP1 PUSH2 0x2077 JUMP JUMPDEST PUSH2 0x1F4 PUSH2 0x2B3 CALLDATASIZE PUSH1 0x4 PUSH2 0x204B JUMP JUMPDEST PUSH2 0xEFD JUMP JUMPDEST PUSH2 0x1F4 PUSH2 0xFA0 JUMP JUMPDEST PUSH2 0x186 PUSH2 0xFB3 JUMP JUMPDEST PUSH2 0x198 PUSH2 0x1007 JUMP JUMPDEST PUSH2 0x186 PUSH2 0x2DE CALLDATASIZE PUSH1 0x4 PUSH2 0x20E4 JUMP JUMPDEST PUSH2 0x1023 JUMP JUMPDEST PUSH2 0x1F4 PUSH2 0x2F1 CALLDATASIZE PUSH1 0x4 PUSH2 0x1FF5 JUMP JUMPDEST PUSH2 0x11D3 JUMP JUMPDEST PUSH2 0x186 PUSH2 0x1255 JUMP JUMPDEST PUSH2 0x1F4 PUSH2 0x30C CALLDATASIZE PUSH1 0x4 PUSH2 0x204B JUMP JUMPDEST PUSH2 0x15FD JUMP JUMPDEST PUSH1 0x0 PUSH2 0x31B PUSH2 0x164A JUMP JUMPDEST DUP1 SLOAD SWAP1 SWAP2 POP PUSH2 0x100 SWAP1 DIV PUSH1 0x1 PUSH1 0x1 PUSH1 0xA0 SHL SUB AND CALLER EQ PUSH2 0x355 JUMPI PUSH1 0x40 MLOAD PUSH3 0x461BCD PUSH1 0xE5 SHL DUP2 MSTORE PUSH1 0x4 ADD PUSH2 0x34C SWAP1 PUSH2 0x2125 JUMP JUMPDEST PUSH1 0x40 MLOAD DUP1 SWAP2 SUB SWAP1 REVERT JUMPDEST PUSH1 0x0 PUSH2 0x35F PUSH2 0x164A JUMP JUMPDEST DUP1 SLOAD PUSH1 0xFF NOT AND SWAP1 SSTORE POP POP JUMP JUMPDEST PUSH1 0x0 PUSH2 0x375 PUSH2 0x164A JUMP JUMPDEST DUP1 SLOAD SWAP1 SWAP2 POP PUSH2 0x100 SWAP1 DIV PUSH1 0x1 PUSH1 0x1 PUSH1 0xA0 SHL SUB AND CALLER EQ PUSH2 0x3A6 JUMPI PUSH1 0x40 MLOAD PUSH3 0x461BCD PUSH1 0xE5 SHL DUP2 MSTORE PUSH1 0x4 ADD PUSH2 0x34C SWAP1 PUSH2 0x2125 JUMP JUMPDEST PUSH1 0x0 PUSH2 0x3B0 PUSH2 0x164A JUMP JUMPDEST PUSH1 0x0 PUSH1 0x8 DUP3 ADD DUP2 SWAP1 SSTORE PUSH1 0x4 DUP3 ADD DUP1 SLOAD PUSH1 0x1 PUSH1 0x1 PUSH1 0xA0 SHL SUB NOT DUP2 AND SWAP1 SWAP2 SSTORE PUSH1 0x40 MLOAD SWAP3 SWAP4 POP PUSH1 0x1 PUSH1 0x1 PUSH1 0xA0 SHL SUB AND SWAP2 DUP3 SWAP2 PUSH32 0x7C7CF105C6D2D5B006D910653C90E1DDEF1597F52E08F86F4A8AAD4E5BDF255E SWAP2 LOG2 POP POP POP JUMP JUMPDEST PUSH1 0x0 PUSH2 0x411 PUSH2 0x164A JUMP JUMPDEST PUSH1 0x3 ADD SLOAD PUSH1 0x1 PUSH1 0x1 PUSH1 0xA0 SHL SUB AND SWAP2 SWAP1 POP JUMP JUMPDEST PUSH1 0x0 PUSH2 0x42D PUSH2 0x164A JUMP JUMPDEST PUSH1 0x1 DUP2 ADD SLOAD PUSH1 0x40 MLOAD PUSH4 0x70A08231 PUSH1 0xE0 SHL DUP2 MSTORE SWAP2 SWAP3 POP PUSH1 0x0 SWAP2 PUSH1 0x1 PUSH1 0x1 PUSH1 0xA0 SHL SUB SWAP1 SWAP2 AND SWAP1 PUSH4 0x70A08231 SWAP1 PUSH2 0x465 SWAP1 CALLER SWAP1 PUSH1 0x4 ADD PUSH2 0x1F97 JUMP JUMPDEST PUSH1 0x20 PUSH1 0x40 MLOAD DUP1 DUP4 SUB DUP2 DUP7 GAS STATICCALL ISZERO DUP1 ISZERO PUSH2 0x482 JUMPI RETURNDATASIZE PUSH1 0x0 DUP1 RETURNDATACOPY RETURNDATASIZE PUSH1 0x0 REVERT JUMPDEST POP POP POP POP PUSH1 0x40 MLOAD RETURNDATASIZE PUSH1 0x1F NOT PUSH1 0x1F DUP3 ADD AND DUP3 ADD DUP1 PUSH1 0x40 MSTORE POP DUP2 ADD SWAP1 PUSH2 0x4A6 SWAP2 SWAP1 PUSH2 0x214B JUMP JUMPDEST SWAP1 POP DUP4 DUP2 LT ISZERO PUSH2 0x504 JUMPI PUSH1 0x40 MLOAD PUSH3 0x461BCD PUSH1 0xE5 SHL DUP2 MSTORE PUSH1 0x20 PUSH1 0x4 DUP3 ADD MSTORE PUSH1 0x23 PUSH1 0x24 DUP3 ADD MSTORE PUSH32 0x496E73756666696369656E74204458424C2062616C616E636520746F20726564 PUSH1 0x44 DUP3 ADD MSTORE PUSH3 0x65656D PUSH1 0xE8 SHL PUSH1 0x64 DUP3 ADD MSTORE PUSH1 0x84 ADD PUSH2 0x34C JUMP JUMPDEST PUSH1 0x0 PUSH2 0x510 DUP7 DUP7 PUSH2 0xEFD JUMP JUMPDEST SWAP1 POP PUSH1 0x0 DUP7 PUSH1 0x1 PUSH1 0x1 PUSH1 0xA0 SHL SUB AND PUSH4 0x70A08231 ADDRESS PUSH1 0x40 MLOAD DUP3 PUSH4 0xFFFFFFFF AND PUSH1 0xE0 SHL DUP2 MSTORE PUSH1 0x4 ADD PUSH2 0x540 SWAP2 SWAP1 PUSH2 0x1F97 JUMP JUMPDEST PUSH1 0x20 PUSH1 0x40 MLOAD DUP1 DUP4 SUB DUP2 DUP7 GAS STATICCALL ISZERO DUP1 ISZERO PUSH2 0x55D JUMPI RETURNDATASIZE PUSH1 0x0 DUP1 RETURNDATACOPY RETURNDATASIZE PUSH1 0x0 REVERT JUMPDEST POP POP POP POP PUSH1 0x40 MLOAD RETURNDATASIZE PUSH1 0x1F NOT PUSH1 0x1F DUP3 ADD AND DUP3 ADD DUP1 PUSH1 0x40 MSTORE POP DUP2 ADD SWAP1 PUSH2 0x581 SWAP2 SWAP1 PUSH2 0x214B JUMP JUMPDEST SWAP1 POP DUP1 DUP3 GT ISZERO PUSH2 0x608 JUMPI DUP5 DUP2 LT PUSH2 0x59A JUMPI DUP1 SWAP2 POP PUSH2 0x608 JUMP JUMPDEST PUSH1 0x40 MLOAD PUSH3 0x461BCD PUSH1 0xE5 SHL DUP2 MSTORE PUSH1 0x20 PUSH1 0x4 DUP3 ADD MSTORE PUSH1 0x3E PUSH1 0x24 DUP3 ADD MSTORE PUSH32 0x496E73756666696369656E742061737365742062616C616E636520746F207072 PUSH1 0x44 DUP3 ADD MSTORE PUSH32 0x6F6475636520657870656374656420776974686472617720616D6F756E740000 PUSH1 0x64 DUP3 ADD MSTORE PUSH1 0x84 ADD PUSH2 0x34C JUMP JUMPDEST PUSH2 0x61C PUSH1 0x1 PUSH1 0x1 PUSH1 0xA0 SHL SUB DUP9 AND CALLER DUP5 PUSH2 0x166E JUMP JUMPDEST PUSH1 0x1 DUP5 ADD SLOAD PUSH1 0x40 MLOAD PUSH4 0x2770A7EB PUSH1 0xE2 SHL DUP2 MSTORE PUSH1 0x1 PUSH1 0x1 PUSH1 0xA0 SHL SUB SWAP1 SWAP2 AND SWAP1 PUSH4 0x9DC29FAC SWAP1 PUSH2 0x650 SWAP1 CALLER SWAP1 DUP11 SWAP1 PUSH1 0x4 ADD PUSH2 0x2164 JUMP JUMPDEST PUSH1 0x0 PUSH1 0x40 MLOAD DUP1 DUP4 SUB DUP2 PUSH1 0x0 DUP8 DUP1 EXTCODESIZE ISZERO DUP1 ISZERO PUSH2 0x66A JUMPI PUSH1 0x0 DUP1 REVERT JUMPDEST POP GAS CALL ISZERO DUP1 ISZERO PUSH2 0x67E JUMPI RETURNDATASIZE PUSH1 0x0 DUP1 RETURNDATACOPY RETURNDATASIZE PUSH1 0x0 REVERT JUMPDEST POP POP PUSH1 0x40 DUP1 MLOAD CALLER DUP2 MSTORE PUSH1 0x20 DUP2 ADD DUP11 SWAP1 MSTORE PUSH1 0x1 PUSH1 0x1 PUSH1 0xA0 SHL SUB DUP12 AND DUP2 DUP4 ADD MSTORE PUSH1 0x60 DUP2 ADD DUP7 SWAP1 MSTORE SWAP1 MLOAD PUSH32 0x5FE85DC899E158274A44ABAB0E6DF5434416F0CE11DF30D42E02F229B8FC8A41 SWAP4 POP SWAP1 DUP2 SWAP1 SUB PUSH1 0x80 ADD SWAP2 POP LOG1 POP POP POP POP POP POP POP JUMP JUMPDEST PUSH1 0x0 DUP1 PUSH2 0x6E6 PUSH2 0x164A JUMP JUMPDEST PUSH1 0x4 DUP2 ADD SLOAD SWAP1 SWAP2 POP PUSH1 0x1 PUSH1 0x1 PUSH1 0xA0 SHL SUB AND ISZERO DUP1 ISZERO SWAP1 PUSH2 0x709 JUMPI POP PUSH1 0x0 DUP2 PUSH1 0x8 ADD SLOAD GT JUMPDEST DUP1 ISZERO PUSH2 0x718 JUMPI POP TIMESTAMP DUP2 PUSH1 0x8 ADD SLOAD LT JUMPDEST SWAP2 POP POP SWAP1 JUMP JUMPDEST PUSH1 0x0 PUSH2 0x728 PUSH2 0x164A JUMP JUMPDEST DUP1 SLOAD SWAP1 SWAP2 POP PUSH2 0x100 SWAP1 DIV PUSH1 0x1 PUSH1 0x1 PUSH1 0xA0 SHL SUB AND CALLER EQ PUSH2 0x759 JUMPI PUSH1 0x40 MLOAD PUSH3 0x461BCD PUSH1 0xE5 SHL DUP2 MSTORE PUSH1 0x4 ADD PUSH2 0x34C SWAP1 PUSH2 0x2125 JUMP JUMPDEST PUSH1 0x0 PUSH2 0x763 PUSH2 0x164A JUMP JUMPDEST PUSH1 0x4 DUP2 ADD SLOAD SWAP1 SWAP2 POP PUSH2 0x782 SWAP1 PUSH1 0x1 PUSH1 0xA0 SHL SWAP1 DIV PUSH4 0xFFFFFFFF AND TIMESTAMP PUSH2 0x2193 JUMP JUMPDEST PUSH1 0x8 DUP3 ADD DUP2 SWAP1 SSTORE PUSH1 0x40 MLOAD SWAP1 DUP2 MSTORE PUSH1 0x1 PUSH1 0x1 PUSH1 0xA0 SHL SUB DUP5 AND SWAP1 PUSH32 0xFBF126B8A95EC693E692437A9297A98DEEC1CFB822B8C650B7D346461EFDB2AD SWAP1 PUSH1 0x20 ADD PUSH1 0x40 MLOAD DUP1 SWAP2 SUB SWAP1 LOG2 POP POP POP JUMP JUMPDEST PUSH1 0x0 DUP1 PUSH2 0x7D7 PUSH2 0x164A JUMP JUMPDEST SWAP1 POP PUSH1 0x0 DUP2 PUSH1 0x9 ADD DUP1 SLOAD DUP1 PUSH1 0x20 MUL PUSH1 0x20 ADD PUSH1 0x40 MLOAD SWAP1 DUP2 ADD PUSH1 0x40 MSTORE DUP1 SWAP3 SWAP2 SWAP1 DUP2 DUP2 MSTORE PUSH1 0x20 ADD DUP3 DUP1 SLOAD DUP1 ISZERO PUSH2 0x833 JUMPI PUSH1 0x20 MUL DUP3 ADD SWAP2 SWAP1 PUSH1 0x0 MSTORE PUSH1 0x20 PUSH1 0x0 KECCAK256 SWAP1 JUMPDEST DUP2 SLOAD PUSH1 0x1 PUSH1 0x1 PUSH1 0xA0 SHL SUB AND DUP2 MSTORE PUSH1 0x1 SWAP1 SWAP2 ADD SWAP1 PUSH1 0x20 ADD DUP1 DUP4 GT PUSH2 0x815 JUMPI JUMPDEST POP POP POP POP POP SWAP1 POP PUSH1 0x0 JUMPDEST DUP2 MLOAD DUP2 LT ISZERO PUSH2 0x8C2 JUMPI PUSH1 0x0 DUP3 DUP3 DUP2 MLOAD DUP2 LT PUSH2 0x85A JUMPI PUSH2 0x85A PUSH2 0x21A6 JUMP JUMPDEST PUSH1 0x20 SWAP1 DUP2 MUL SWAP2 SWAP1 SWAP2 ADD DUP2 ADD MLOAD PUSH1 0x1 PUSH1 0x1 PUSH1 0xA0 SHL SUB DUP2 AND PUSH1 0x0 SWAP1 DUP2 MSTORE PUSH1 0x27 DUP8 ADD SWAP1 SWAP3 MSTORE PUSH1 0x40 DUP3 KECCAK256 SWAP1 SWAP3 POP SWAP1 PUSH2 0x88D DUP3 PUSH2 0x16C9 JUMP JUMPDEST SWAP1 POP PUSH1 0x0 PUSH2 0x89E DUP8 DUP6 DUP5 PUSH1 0x0 PUSH2 0x1838 JUMP JUMPDEST POP SWAP1 POP PUSH2 0x8AB DUP2 DUP10 PUSH2 0x2193 JUMP JUMPDEST SWAP8 POP POP POP POP POP DUP1 PUSH2 0x8BB SWAP1 PUSH2 0x21BC JUMP JUMPDEST SWAP1 POP PUSH2 0x83D JUMP JUMPDEST POP POP POP SWAP1 JUMP JUMPDEST PUSH1 0x0 PUSH2 0x8D2 PUSH2 0x164A JUMP JUMPDEST DUP1 SLOAD SWAP1 SWAP2 POP PUSH2 0x100 SWAP1 DIV PUSH1 0x1 PUSH1 0x1 PUSH1 0xA0 SHL SUB AND CALLER EQ PUSH2 0x903 JUMPI PUSH1 0x40 MLOAD PUSH3 0x461BCD PUSH1 0xE5 SHL DUP2 MSTORE PUSH1 0x4 ADD PUSH2 0x34C SWAP1 PUSH2 0x2125 JUMP JUMPDEST PUSH1 0x0 PUSH2 0x90D PUSH2 0x164A JUMP JUMPDEST PUSH1 0x2 DUP2 ADD DUP1 SLOAD PUSH1 0x1 PUSH1 0x1 PUSH1 0xA0 SHL SUB NOT AND PUSH1 0x1 PUSH1 0x1 PUSH1 0xA0 SHL SUB DUP8 DUP2 AND SWAP2 SWAP1 SWAP2 OR SWAP1 SWAP2 SSTORE PUSH1 0x1 DUP3 ADD SLOAD SWAP2 SWAP3 POP AND PUSH2 0x962 JUMPI PUSH1 0x1 DUP2 ADD DUP1 SLOAD PUSH1 0x1 PUSH1 0x1 PUSH1 0xA0 SHL SUB NOT AND PUSH1 0x1 PUSH1 0x1 PUSH1 0xA0 SHL SUB DUP6 AND OR SWAP1 SSTORE DUP1 SLOAD PUSH1 0xFF NOT AND DUP2 SSTORE JUMPDEST POP POP POP POP JUMP JUMPDEST PUSH1 0x0 DUP1 PUSH2 0x973 PUSH2 0x164A JUMP JUMPDEST PUSH1 0x3 DUP2 ADD SLOAD SWAP1 SWAP2 POP PUSH1 0x1 PUSH1 0x1 PUSH1 0xA0 SHL SUB SWAP1 DUP2 AND SWAP1 DUP6 AND SUB PUSH2 0x997 JUMPI DUP3 SWAP2 POP POP PUSH2 0xA81 JUMP JUMPDEST PUSH1 0x3 DUP2 ADD SLOAD PUSH1 0x1 PUSH1 0x1 PUSH1 0xA0 SHL SUB AND PUSH1 0x0 SWAP1 DUP2 MSTORE PUSH1 0x27 DUP3 ADD PUSH1 0x20 MSTORE PUSH1 0x40 DUP2 KECCAK256 PUSH2 0x9BE SWAP1 PUSH2 0x16C9 JUMP JUMPDEST PUSH1 0x1 PUSH1 0x1 PUSH1 0xA0 SHL SUB DUP7 AND PUSH1 0x0 SWAP1 DUP2 MSTORE PUSH1 0x27 DUP5 ADD PUSH1 0x20 MSTORE PUSH1 0x40 DUP2 KECCAK256 SWAP2 SWAP3 POP SWAP1 PUSH2 0x9E5 SWAP1 PUSH2 0x16C9 JUMP JUMPDEST SWAP1 POP PUSH1 0x0 DUP2 PUSH2 0xA00 PUSH9 0x327CB2734119D3B7A9 PUSH1 0x1E SHL DUP6 PUSH2 0x21D5 JUMP JUMPDEST PUSH2 0xA0A SWAP2 SWAP1 PUSH2 0x2202 JUMP JUMPDEST SWAP1 POP PUSH1 0x0 PUSH9 0x327CB2734119D3B7A9 PUSH1 0x1E SHL PUSH2 0xA25 DUP9 DUP5 PUSH2 0x21D5 JUMP JUMPDEST PUSH2 0xA2F SWAP2 SWAP1 PUSH2 0x2202 JUMP JUMPDEST PUSH1 0x1 PUSH1 0x1 PUSH1 0xA0 SHL SUB DUP10 AND PUSH1 0x0 SWAP1 DUP2 MSTORE PUSH1 0x26 DUP8 ADD PUSH1 0x20 MSTORE PUSH1 0x40 SWAP1 KECCAK256 SLOAD SWAP1 SWAP2 POP PUSH8 0xDE0B6B3A7640000 SWAP1 PUSH2 0xA65 SWAP1 PUSH1 0xFF AND PUSH1 0xA PUSH2 0x22FA JUMP JUMPDEST PUSH2 0xA6F SWAP1 DUP4 PUSH2 0x21D5 JUMP JUMPDEST PUSH2 0xA79 SWAP2 SWAP1 PUSH2 0x2202 JUMP JUMPDEST SWAP6 POP POP POP POP POP POP JUMPDEST SWAP3 SWAP2 POP POP JUMP JUMPDEST PUSH1 0x0 DUP1 PUSH2 0xA92 PUSH2 0x164A JUMP JUMPDEST SWAP1 POP PUSH1 0x0 PUSH5 0xE8D4A51000 DUP3 PUSH1 0x6 ADD SLOAD PUSH2 0xAAB SWAP2 SWAP1 PUSH2 0x2202 JUMP JUMPDEST SWAP1 POP PUSH1 0x0 DUP2 PUSH2 0xFFFF AND DUP4 PUSH1 0xA ADD PUSH1 0x1 ADD SLOAD PUSH2 0xAC6 SWAP2 SWAP1 PUSH2 0x21D5 JUMP JUMPDEST SWAP1 POP PUSH8 0xDE0B6B3A7640000 DUP2 DUP5 PUSH1 0x5 ADD SLOAD PUSH2 0xAE1 SWAP2 SWAP1 PUSH2 0x21D5 JUMP JUMPDEST PUSH2 0xAEB SWAP2 SWAP1 PUSH2 0x2202 JUMP JUMPDEST DUP4 PUSH1 0x5 ADD SLOAD PUSH2 0xAFA SWAP2 SWAP1 PUSH2 0x2193 JUMP JUMPDEST SWAP4 POP POP POP POP SWAP1 JUMP JUMPDEST PUSH1 0x0 PUSH2 0xB0C PUSH2 0x164A JUMP JUMPDEST SLOAD PUSH2 0x100 SWAP1 DIV PUSH1 0x1 PUSH1 0x1 PUSH1 0xA0 SHL SUB AND SWAP2 SWAP1 POP JUMP JUMPDEST PUSH1 0x0 PUSH2 0xB2A PUSH2 0x164A JUMP JUMPDEST PUSH1 0x5 ADD SLOAD SWAP1 POP SWAP1 JUMP JUMPDEST PUSH1 0x0 PUSH2 0xB3D PUSH2 0x164A JUMP JUMPDEST SLOAD PUSH1 0xFF AND SWAP2 SWAP1 POP JUMP JUMPDEST PUSH1 0x0 DUP1 PUSH2 0xB51 PUSH2 0x164A JUMP JUMPDEST PUSH1 0x1 PUSH1 0x1 PUSH1 0xA0 SHL SUB SWAP4 DUP5 AND PUSH1 0x0 SWAP1 DUP2 MSTORE PUSH1 0x27 SWAP1 SWAP2 ADD PUSH1 0x20 MSTORE PUSH1 0x40 SWAP1 KECCAK256 SLOAD SWAP1 SWAP3 AND ISZERO ISZERO SWAP3 SWAP2 POP POP JUMP JUMPDEST PUSH1 0x0 DUP1 PUSH2 0xB84 PUSH2 0x164A JUMP JUMPDEST SWAP1 POP PUSH1 0x0 DUP2 PUSH1 0x1 ADD PUSH1 0x0 SWAP1 SLOAD SWAP1 PUSH2 0x100 EXP SWAP1 DIV PUSH1 0x1 PUSH1 0x1 PUSH1 0xA0 SHL SUB AND PUSH1 0x1 PUSH1 0x1 PUSH1 0xA0 SHL SUB AND PUSH4 0x18160DDD PUSH1 0x40 MLOAD DUP2 PUSH4 0xFFFFFFFF AND PUSH1 0xE0 SHL DUP2 MSTORE PUSH1 0x4 ADD PUSH1 0x20 PUSH1 0x40 MLOAD DUP1 DUP4 SUB DUP2 DUP7 GAS STATICCALL ISZERO DUP1 ISZERO PUSH2 0xBDD JUMPI RETURNDATASIZE PUSH1 0x0 DUP1 RETURNDATACOPY RETURNDATASIZE PUSH1 0x0 REVERT JUMPDEST POP POP POP POP PUSH1 0x40 MLOAD RETURNDATASIZE PUSH1 0x1F NOT PUSH1 0x1F DUP3 ADD AND DUP3 ADD DUP1 PUSH1 0x40 MSTORE POP DUP2 ADD SWAP1 PUSH2 0xC01 SWAP2 SWAP1 PUSH2 0x214B JUMP JUMPDEST SWAP1 POP PUSH1 0x0 PUSH2 0xC0D PUSH2 0x7CC JUMP JUMPDEST SWAP1 POP DUP2 ISZERO DUP1 PUSH2 0xC1A JUMPI POP DUP1 ISZERO JUMPDEST ISZERO PUSH2 0xC29 JUMPI PUSH1 0x0 SWAP4 POP POP POP POP SWAP1 JUMP JUMPDEST DUP2 PUSH2 0xC3C DUP3 PUSH8 0xDE0B6B3A7640000 PUSH2 0x21D5 JUMP JUMPDEST PUSH2 0xAFA SWAP2 SWAP1 PUSH2 0x2202 JUMP JUMPDEST PUSH1 0x0 PUSH2 0xC50 PUSH2 0x164A JUMP JUMPDEST PUSH1 0x1 ADD SLOAD PUSH1 0x1 PUSH1 0x1 PUSH1 0xA0 SHL SUB AND SWAP2 SWAP1 POP JUMP JUMPDEST PUSH1 0x0 PUSH2 0xC6C PUSH2 0x164A JUMP JUMPDEST PUSH1 0x4 ADD SLOAD PUSH1 0x1 PUSH1 0xA0 SHL SWAP1 DIV PUSH4 0xFFFFFFFF AND SWAP2 SWAP1 POP JUMP JUMPDEST PUSH1 0x0 PUSH2 0xC8C PUSH2 0x164A JUMP JUMPDEST PUSH1 0x1 ADD PUSH1 0x0 SWAP1 SLOAD SWAP1 PUSH2 0x100 EXP SWAP1 DIV PUSH1 0x1 PUSH1 0x1 PUSH1 0xA0 SHL SUB AND PUSH1 0x1 PUSH1 0x1 PUSH1 0xA0 SHL SUB AND PUSH4 0x566826D1 PUSH1 0x40 MLOAD DUP2 PUSH4 0xFFFFFFFF AND PUSH1 0xE0 SHL DUP2 MSTORE PUSH1 0x4 ADD PUSH1 0x20 PUSH1 0x40 MLOAD DUP1 DUP4 SUB DUP2 DUP7 GAS STATICCALL ISZERO DUP1 ISZERO PUSH2 0xCE0 JUMPI RETURNDATASIZE PUSH1 0x0 DUP1 RETURNDATACOPY RETURNDATASIZE PUSH1 0x0 REVERT JUMPDEST POP POP POP POP PUSH1 0x40 MLOAD RETURNDATASIZE PUSH1 0x1F NOT PUSH1 0x1F DUP3 ADD AND DUP3 ADD DUP1 PUSH1 0x40 MSTORE POP DUP2 ADD SWAP1 PUSH2 0xD04 SWAP2 SWAP1 PUSH2 0x2309 JUMP JUMPDEST SWAP1 POP SWAP1 JUMP JUMPDEST PUSH1 0x60 PUSH1 0x0 PUSH2 0xD15 PUSH2 0x164A JUMP JUMPDEST PUSH1 0x9 DUP2 ADD SLOAD SWAP1 SWAP2 POP PUSH8 0xFFFFFFFFFFFFFFFF DUP2 GT ISZERO PUSH2 0xD35 JUMPI PUSH2 0xD35 PUSH2 0x232F JUMP JUMPDEST PUSH1 0x40 MLOAD SWAP1 DUP1 DUP3 MSTORE DUP1 PUSH1 0x20 MUL PUSH1 0x20 ADD DUP3 ADD PUSH1 0x40 MSTORE DUP1 ISZERO PUSH2 0xD9A JUMPI DUP2 PUSH1 0x20 ADD JUMPDEST PUSH2 0xD87 PUSH1 0x40 MLOAD DUP1 PUSH1 0x80 ADD PUSH1 0x40 MSTORE DUP1 PUSH1 0x0 PUSH1 0x1 PUSH1 0x1 PUSH1 0xA0 SHL SUB AND DUP2 MSTORE PUSH1 0x20 ADD PUSH1 0x0 DUP2 MSTORE PUSH1 0x20 ADD PUSH1 0x0 DUP2 MSTORE PUSH1 0x20 ADD PUSH1 0x0 DUP2 MSTORE POP SWAP1 JUMP JUMPDEST DUP2 MSTORE PUSH1 0x20 ADD SWAP1 PUSH1 0x1 SWAP1 SUB SWAP1 DUP2 PUSH2 0xD53 JUMPI SWAP1 POP JUMPDEST POP SWAP2 POP PUSH1 0x0 DUP1 DUP3 PUSH1 0x9 ADD DUP1 SLOAD DUP1 PUSH1 0x20 MUL PUSH1 0x20 ADD PUSH1 0x40 MLOAD SWAP1 DUP2 ADD PUSH1 0x40 MSTORE DUP1 SWAP3 SWAP2 SWAP1 DUP2 DUP2 MSTORE PUSH1 0x20 ADD DUP3 DUP1 SLOAD DUP1 ISZERO PUSH2 0xDF8 JUMPI PUSH1 0x20 MUL DUP3 ADD SWAP2 SWAP1 PUSH1 0x0 MSTORE PUSH1 0x20 PUSH1 0x0 KECCAK256 SWAP1 JUMPDEST DUP2 SLOAD PUSH1 0x1 PUSH1 0x1 PUSH1 0xA0 SHL SUB AND DUP2 MSTORE PUSH1 0x1 SWAP1 SWAP2 ADD SWAP1 PUSH1 0x20 ADD DUP1 DUP4 GT PUSH2 0xDDA JUMPI JUMPDEST POP POP POP POP POP SWAP1 POP PUSH1 0x0 JUMPDEST DUP2 MLOAD DUP2 LT ISZERO PUSH2 0xEF6 JUMPI PUSH1 0x0 DUP3 DUP3 DUP2 MLOAD DUP2 LT PUSH2 0xE1F JUMPI PUSH2 0xE1F PUSH2 0x21A6 JUMP JUMPDEST PUSH1 0x20 SWAP1 DUP2 MUL SWAP2 SWAP1 SWAP2 ADD DUP2 ADD MLOAD PUSH1 0x1 PUSH1 0x1 PUSH1 0xA0 SHL SUB DUP2 AND PUSH1 0x0 SWAP1 DUP2 MSTORE PUSH1 0x27 DUP9 ADD SWAP1 SWAP3 MSTORE PUSH1 0x40 DUP3 KECCAK256 SWAP1 SWAP3 POP SWAP1 PUSH2 0xE52 DUP3 PUSH2 0x16C9 JUMP JUMPDEST SWAP1 POP PUSH1 0x0 DUP1 PUSH2 0xE64 DUP10 DUP7 DUP6 PUSH1 0x0 PUSH2 0x1838 JUMP JUMPDEST SWAP2 POP SWAP2 POP PUSH1 0x40 MLOAD DUP1 PUSH1 0x80 ADD PUSH1 0x40 MSTORE DUP1 DUP7 PUSH1 0x1 PUSH1 0x1 PUSH1 0xA0 SHL SUB AND DUP2 MSTORE PUSH1 0x20 ADD DUP3 DUP2 MSTORE PUSH1 0x20 ADD DUP4 DUP2 MSTORE PUSH1 0x20 ADD PUSH9 0x327CB2734119D3B7A9 PUSH1 0x1E SHL PUSH3 0xF4240 DUP7 PUSH2 0xEAA SWAP2 SWAP1 PUSH2 0x21D5 JUMP JUMPDEST PUSH2 0xEB4 SWAP2 SWAP1 PUSH2 0x2202 JUMP JUMPDEST DUP2 MSTORE POP DUP11 DUP10 DUP2 MLOAD DUP2 LT PUSH2 0xEC9 JUMPI PUSH2 0xEC9 PUSH2 0x21A6 JUMP JUMPDEST PUSH1 0x20 MUL PUSH1 0x20 ADD ADD DUP2 SWAP1 MSTORE POP DUP8 PUSH2 0xEDE SWAP1 PUSH2 0x21BC JUMP JUMPDEST SWAP8 POP POP POP POP POP POP DUP1 PUSH2 0xEEF SWAP1 PUSH2 0x21BC JUMP JUMPDEST SWAP1 POP PUSH2 0xE02 JUMP JUMPDEST POP POP POP POP SWAP1 JUMP JUMPDEST PUSH1 0x0 DUP1 PUSH2 0xF08 PUSH2 0x164A JUMP JUMPDEST SWAP1 POP PUSH1 0x0 PUSH2 0xF14 PUSH2 0xB79 JUMP JUMPDEST SWAP1 POP PUSH3 0xF4240 PUSH2 0xF30 PUSH9 0x327CB2734119D3B7A9 PUSH1 0x1E SHL DUP4 PUSH2 0x21D5 JUMP JUMPDEST PUSH2 0xF3A SWAP2 SWAP1 PUSH2 0x2202 JUMP JUMPDEST SWAP1 POP PUSH1 0x0 PUSH2 0xF47 DUP7 PUSH2 0x11D3 JUMP JUMPDEST PUSH1 0x1 PUSH1 0x1 PUSH1 0xA0 SHL SUB DUP8 AND PUSH1 0x0 SWAP1 DUP2 MSTORE PUSH1 0x26 DUP6 ADD PUSH1 0x20 MSTORE PUSH1 0x40 DUP2 KECCAK256 SLOAD SWAP2 SWAP3 POP PUSH1 0xFF SWAP1 SWAP2 AND SWAP1 DUP3 PUSH2 0xF77 DUP4 PUSH1 0xA PUSH2 0x22FA JUMP JUMPDEST PUSH2 0xF81 SWAP1 DUP7 PUSH2 0x21D5 JUMP JUMPDEST PUSH2 0xF8B SWAP2 SWAP1 PUSH2 0x2202 JUMP JUMPDEST SWAP1 POP PUSH8 0xDE0B6B3A7640000 PUSH2 0xA6F DUP3 DUP10 PUSH2 0x21D5 JUMP JUMPDEST PUSH1 0x0 PUSH2 0xFAA PUSH2 0x164A JUMP JUMPDEST PUSH1 0x6 ADD SLOAD SWAP1 POP SWAP1 JUMP JUMPDEST PUSH1 0x0 PUSH2 0xFBD PUSH2 0x164A JUMP JUMPDEST DUP1 SLOAD SWAP1 SWAP2 POP PUSH2 0x100 SWAP1 DIV PUSH1 0x1 PUSH1 0x1 PUSH1 0xA0 SHL SUB AND CALLER EQ PUSH2 0xFEE JUMPI PUSH1 0x40 MLOAD PUSH3 0x461BCD PUSH1 0xE5 SHL DUP2 MSTORE PUSH1 0x4 ADD PUSH2 0x34C SWAP1 PUSH2 0x2125 JUMP JUMPDEST PUSH1 0x0 PUSH2 0xFF8 PUSH2 0x164A JUMP JUMPDEST DUP1 SLOAD PUSH1 0xFF NOT AND PUSH1 0x1 OR SWAP1 SSTORE POP POP JUMP JUMPDEST PUSH1 0x0 PUSH2 0x1011 PUSH2 0x164A JUMP JUMPDEST PUSH1 0x2 ADD SLOAD PUSH1 0x1 PUSH1 0x1 PUSH1 0xA0 SHL SUB AND SWAP2 SWAP1 POP JUMP JUMPDEST PUSH1 0x0 PUSH2 0x102D PUSH2 0x164A JUMP JUMPDEST PUSH1 0x2 DUP2 ADD SLOAD SWAP1 SWAP2 POP PUSH1 0x1 PUSH1 0x1 PUSH1 0xA0 SHL SUB AND CALLER EQ PUSH2 0x105C JUMPI PUSH1 0x40 MLOAD PUSH3 0x461BCD PUSH1 0xE5 SHL DUP2 MSTORE PUSH1 0x4 ADD PUSH2 0x34C SWAP1 PUSH2 0x2125 JUMP JUMPDEST PUSH1 0x0 PUSH2 0x1066 PUSH2 0x164A JUMP JUMPDEST PUSH1 0x40 MLOAD PUSH4 0xF7406FC3 PUSH1 0xE0 SHL DUP2 MSTORE SWAP1 SWAP2 POP PUSH1 0x0 SWAP1 ADDRESS SWAP1 PUSH4 0xF7406FC3 SWAP1 PUSH2 0x1091 SWAP1 DUP9 SWAP1 DUP9 SWAP1 PUSH1 0x4 ADD PUSH2 0x2164 JUMP JUMPDEST PUSH1 0x20 PUSH1 0x40 MLOAD DUP1 DUP4 SUB DUP2 DUP7 GAS STATICCALL ISZERO DUP1 ISZERO PUSH2 0x10AE JUMPI RETURNDATASIZE PUSH1 0x0 DUP1 RETURNDATACOPY RETURNDATASIZE PUSH1 0x0 REVERT JUMPDEST POP POP POP POP PUSH1 0x40 MLOAD RETURNDATASIZE PUSH1 0x1F NOT PUSH1 0x1F DUP3 ADD AND DUP3 ADD DUP1 PUSH1 0x40 MSTORE POP DUP2 ADD SWAP1 PUSH2 0x10D2 SWAP2 SWAP1 PUSH2 0x214B JUMP JUMPDEST SWAP1 POP PUSH1 0x0 ADDRESS PUSH1 0x1 PUSH1 0x1 PUSH1 0xA0 SHL SUB AND PUSH4 0x41B5774A PUSH1 0x40 MLOAD DUP2 PUSH4 0xFFFFFFFF AND PUSH1 0xE0 SHL DUP2 MSTORE PUSH1 0x4 ADD PUSH1 0x20 PUSH1 0x40 MLOAD DUP1 DUP4 SUB DUP2 DUP7 GAS STATICCALL ISZERO DUP1 ISZERO PUSH2 0x1114 JUMPI RETURNDATASIZE PUSH1 0x0 DUP1 RETURNDATACOPY RETURNDATASIZE PUSH1 0x0 REVERT JUMPDEST POP POP POP POP PUSH1 0x40 MLOAD RETURNDATASIZE PUSH1 0x1F NOT PUSH1 0x1F DUP3 ADD AND DUP3 ADD DUP1 PUSH1 0x40 MSTORE POP DUP2 ADD SWAP1 PUSH2 0x1138 SWAP2 SWAP1 PUSH2 0x214B JUMP JUMPDEST SWAP1 POP PUSH2 0x1143 DUP3 PUSH2 0x1923 JUMP JUMPDEST PUSH1 0x0 DUP2 PUSH2 0x1158 DUP5 PUSH8 0xDE0B6B3A7640000 PUSH2 0x21D5 JUMP JUMPDEST PUSH2 0x1162 SWAP2 SWAP1 PUSH2 0x2202 JUMP JUMPDEST PUSH1 0x1 DUP6 ADD SLOAD PUSH1 0x40 MLOAD PUSH4 0x40C10F19 PUSH1 0xE0 SHL DUP2 MSTORE SWAP2 SWAP3 POP PUSH1 0x1 PUSH1 0x1 PUSH1 0xA0 SHL SUB AND SWAP1 PUSH4 0x40C10F19 SWAP1 PUSH2 0x1197 SWAP1 DUP12 SWAP1 DUP6 SWAP1 PUSH1 0x4 ADD PUSH2 0x2164 JUMP JUMPDEST PUSH1 0x0 PUSH1 0x40 MLOAD DUP1 DUP4 SUB DUP2 PUSH1 0x0 DUP8 DUP1 EXTCODESIZE ISZERO DUP1 ISZERO PUSH2 0x11B1 JUMPI PUSH1 0x0 DUP1 REVERT JUMPDEST POP GAS CALL ISZERO DUP1 ISZERO PUSH2 0x11C5 JUMPI RETURNDATASIZE PUSH1 0x0 DUP1 RETURNDATACOPY RETURNDATASIZE PUSH1 0x0 REVERT JUMPDEST POP POP POP POP POP POP POP POP POP POP POP POP JUMP JUMPDEST PUSH1 0x0 DUP1 PUSH2 0x11DE PUSH2 0x164A JUMP JUMPDEST PUSH1 0x1 PUSH1 0x1 PUSH1 0xA0 SHL SUB DUP1 DUP6 AND PUSH1 0x0 SWAP1 DUP2 MSTORE PUSH1 0x27 DUP4 ADD PUSH1 0x20 MSTORE PUSH1 0x40 SWAP1 KECCAK256 DUP1 SLOAD SWAP3 SWAP4 POP SWAP2 AND PUSH2 0x1244 JUMPI PUSH1 0x40 MLOAD PUSH3 0x461BCD PUSH1 0xE5 SHL DUP2 MSTORE PUSH1 0x20 PUSH1 0x4 DUP3 ADD MSTORE PUSH1 0x15 PUSH1 0x24 DUP3 ADD MSTORE PUSH21 0x2AB739BAB83837B93A32B2103332B2903A37B5B2B7 PUSH1 0x59 SHL PUSH1 0x44 DUP3 ADD MSTORE PUSH1 0x64 ADD PUSH2 0x34C JUMP JUMPDEST PUSH2 0x124D DUP2 PUSH2 0x16C9 JUMP JUMPDEST SWAP5 SWAP4 POP POP POP POP JUMP JUMPDEST ADDRESS PUSH1 0x1 PUSH1 0x1 PUSH1 0xA0 SHL SUB AND PUSH4 0x19ED21BD PUSH1 0x40 MLOAD DUP2 PUSH4 0xFFFFFFFF AND PUSH1 0xE0 SHL DUP2 MSTORE PUSH1 0x4 ADD PUSH1 0x20 PUSH1 0x40 MLOAD DUP1 DUP4 SUB DUP2 DUP7 GAS STATICCALL ISZERO DUP1 ISZERO PUSH2 0x1293 JUMPI RETURNDATASIZE PUSH1 0x0 DUP1 RETURNDATACOPY RETURNDATASIZE PUSH1 0x0 REVERT JUMPDEST POP POP POP POP PUSH1 0x40 MLOAD RETURNDATASIZE PUSH1 0x1F NOT PUSH1 0x1F DUP3 ADD AND DUP3 ADD DUP1 PUSH1 0x40 MSTORE POP DUP2 ADD SWAP1 PUSH2 0x12B7 SWAP2 SWAP1 PUSH2 0x2345 JUMP JUMPDEST PUSH2 0x12F8 JUMPI PUSH1 0x40 MLOAD PUSH3 0x461BCD PUSH1 0xE5 SHL DUP2 MSTORE PUSH1 0x20 PUSH1 0x4 DUP3 ADD MSTORE PUSH1 0x12 PUSH1 0x24 DUP3 ADD MSTORE PUSH18 0x10D85B9B9BDD081B5A59DC985D19481E595D PUSH1 0x72 SHL PUSH1 0x44 DUP3 ADD MSTORE PUSH1 0x64 ADD PUSH2 0x34C JUMP JUMPDEST PUSH1 0x0 PUSH2 0x1302 PUSH2 0x164A JUMP JUMPDEST PUSH1 0x4 DUP2 ADD SLOAD DUP2 SLOAD PUSH1 0xFF NOT AND PUSH1 0x1 OR DUP3 SSTORE SWAP1 SWAP2 POP PUSH1 0x1 PUSH1 0x1 PUSH1 0xA0 SHL SUB AND PUSH1 0x9 DUP3 ADD PUSH1 0x0 JUMPDEST DUP2 SLOAD DUP2 LT ISZERO PUSH2 0x1461 JUMPI PUSH1 0x0 DUP3 DUP3 DUP2 SLOAD DUP2 LT PUSH2 0x1342 JUMPI PUSH2 0x1342 PUSH2 0x21A6 JUMP JUMPDEST PUSH1 0x0 SWAP2 DUP3 MSTORE PUSH1 0x20 SWAP1 SWAP2 KECCAK256 ADD SLOAD PUSH1 0x40 MLOAD PUSH4 0x70A08231 PUSH1 0xE0 SHL DUP2 MSTORE PUSH1 0x1 PUSH1 0x1 PUSH1 0xA0 SHL SUB SWAP1 SWAP2 AND SWAP1 PUSH4 0x70A08231 SWAP1 PUSH2 0x137B SWAP1 ADDRESS SWAP1 PUSH1 0x4 ADD PUSH2 0x1F97 JUMP JUMPDEST PUSH1 0x20 PUSH1 0x40 MLOAD DUP1 DUP4 SUB DUP2 DUP7 GAS STATICCALL ISZERO DUP1 ISZERO PUSH2 0x1398 JUMPI RETURNDATASIZE PUSH1 0x0 DUP1 RETURNDATACOPY RETURNDATASIZE PUSH1 0x0 REVERT JUMPDEST POP POP POP POP PUSH1 0x40 MLOAD RETURNDATASIZE PUSH1 0x1F NOT PUSH1 0x1F DUP3 ADD AND DUP3 ADD DUP1 PUSH1 0x40 MSTORE POP DUP2 ADD SWAP1 PUSH2 0x13BC SWAP2 SWAP1 PUSH2 0x214B JUMP JUMPDEST SWAP1 POP DUP3 DUP3 DUP2 SLOAD DUP2 LT PUSH2 0x13D0 JUMPI PUSH2 0x13D0 PUSH2 0x21A6 JUMP JUMPDEST PUSH1 0x0 SWAP2 DUP3 MSTORE PUSH1 0x20 SWAP1 SWAP2 KECCAK256 ADD SLOAD PUSH1 0x40 MLOAD PUSH4 0xA9059CBB PUSH1 0xE0 SHL DUP2 MSTORE PUSH1 0x1 PUSH1 0x1 PUSH1 0xA0 SHL SUB SWAP1 SWAP2 AND SWAP1 PUSH4 0xA9059CBB SWAP1 PUSH2 0x140B SWAP1 DUP8 SWAP1 DUP6 SWAP1 PUSH1 0x4 ADD PUSH2 0x2164 JUMP JUMPDEST PUSH1 0x20 PUSH1 0x40 MLOAD DUP1 DUP4 SUB DUP2 PUSH1 0x0 DUP8 GAS CALL ISZERO DUP1 ISZERO PUSH2 0x142A JUMPI RETURNDATASIZE PUSH1 0x0 DUP1 RETURNDATACOPY RETURNDATASIZE PUSH1 0x0 REVERT JUMPDEST POP POP POP POP PUSH1 0x40 MLOAD RETURNDATASIZE PUSH1 0x1F NOT PUSH1 0x1F DUP3 ADD AND DUP3 ADD DUP1 PUSH1 0x40 MSTORE POP DUP2 ADD SWAP1 PUSH2 0x144E SWAP2 SWAP1 PUSH2 0x2345 JUMP JUMPDEST POP POP DUP1 PUSH2 0x145A SWAP1 PUSH2 0x21BC JUMP JUMPDEST SWAP1 POP PUSH2 0x1325 JUMP JUMPDEST POP PUSH1 0x1 DUP4 ADD SLOAD PUSH1 0x40 MLOAD PUSH4 0x48AF6B15 PUSH1 0xE0 SHL DUP2 MSTORE PUSH1 0x1 PUSH1 0x1 PUSH1 0xA0 SHL SUB SWAP1 SWAP2 AND SWAP1 PUSH4 0x48AF6B15 SWAP1 PUSH2 0x1494 SWAP1 DUP6 SWAP1 PUSH1 0x4 ADD PUSH2 0x1F97 JUMP JUMPDEST PUSH1 0x0 PUSH1 0x40 MLOAD DUP1 DUP4 SUB DUP2 PUSH1 0x0 DUP8 DUP1 EXTCODESIZE ISZERO DUP1 ISZERO PUSH2 0x14AE JUMPI PUSH1 0x0 DUP1 REVERT JUMPDEST POP GAS CALL ISZERO DUP1 ISZERO PUSH2 0x14C2 JUMPI RETURNDATASIZE PUSH1 0x0 DUP1 RETURNDATACOPY RETURNDATASIZE PUSH1 0x0 REVERT JUMPDEST POP POP PUSH1 0x40 DUP1 MLOAD PUSH1 0x80 DUP2 ADD DUP3 MSTORE PUSH1 0x6 DUP8 ADD SLOAD DUP2 MSTORE PUSH1 0x7 DUP8 ADD SLOAD PUSH1 0x20 DUP3 ADD MSTORE DUP2 MLOAD PUSH2 0x300 DUP2 ADD DUP1 DUP5 MSTORE PUSH1 0x0 SWAP6 POP SWAP2 SWAP4 POP SWAP2 DUP4 ADD SWAP2 SWAP1 PUSH1 0xE DUP9 ADD SWAP1 PUSH1 0x18 SWAP1 DUP3 DUP5 JUMPDEST DUP2 SLOAD DUP2 MSTORE PUSH1 0x20 ADD SWAP1 PUSH1 0x1 ADD SWAP1 DUP1 DUP4 GT PUSH2 0x1500 JUMPI POP POP POP SWAP2 DUP4 MSTORE POP POP PUSH1 0x40 DUP1 MLOAD PUSH1 0x80 DUP2 ADD DUP3 MSTORE PUSH1 0xA DUP9 ADD SLOAD PUSH2 0xFFFF DUP1 DUP3 AND DUP4 MSTORE PUSH3 0x10000 SWAP1 SWAP2 DIV AND PUSH1 0x20 DUP3 DUP2 ADD SWAP2 SWAP1 SWAP2 MSTORE PUSH1 0xB DUP10 ADD SLOAD DUP3 DUP5 ADD MSTORE PUSH1 0xC DUP10 ADD SLOAD PUSH1 0x60 DUP4 ADD MSTORE SWAP1 SWAP3 ADD SWAP2 SWAP1 SWAP2 MSTORE MLOAD PUSH4 0x2C326F27 PUSH1 0xE1 SHL DUP2 MSTORE SWAP1 SWAP2 POP PUSH1 0x1 PUSH1 0x1 PUSH1 0xA0 SHL SUB DUP5 AND SWAP1 PUSH4 0x5864DE4E SWAP1 PUSH2 0x158A SWAP1 DUP5 SWAP1 PUSH1 0x4 ADD PUSH2 0x2367 JUMP JUMPDEST PUSH1 0x0 PUSH1 0x40 MLOAD DUP1 DUP4 SUB DUP2 PUSH1 0x0 DUP8 DUP1 EXTCODESIZE ISZERO DUP1 ISZERO PUSH2 0x15A4 JUMPI PUSH1 0x0 DUP1 REVERT JUMPDEST POP GAS CALL ISZERO DUP1 ISZERO PUSH2 0x15B8 JUMPI RETURNDATASIZE PUSH1 0x0 DUP1 RETURNDATACOPY RETURNDATASIZE PUSH1 0x0 REVERT JUMPDEST POP POP PUSH1 0x40 MLOAD PUSH1 0x1 PUSH1 0x1 PUSH1 0xA0 SHL SUB DUP7 AND SWAP3 POP PUSH32 0xFCE0AC0494AEE28941F2C55AF2E1B069A1C8C96BCE836F3FD7D9404ED662A9DC SWAP2 POP PUSH1 0x0 SWAP1 LOG2 DUP3 PUSH1 0x1 PUSH1 0x1 PUSH1 0xA0 SHL SUB DUP2 AND SELFDESTRUCT JUMPDEST PUSH1 0x0 DUP1 PUSH2 0x1608 PUSH2 0x164A JUMP JUMPDEST PUSH1 0x1 PUSH1 0x1 PUSH1 0xA0 SHL SUB DUP6 AND PUSH1 0x0 SWAP1 DUP2 MSTORE PUSH1 0x27 DUP3 ADD PUSH1 0x20 MSTORE PUSH1 0x40 DUP2 KECCAK256 SWAP2 SWAP3 POP PUSH2 0x162E DUP3 PUSH2 0x16C9 JUMP JUMPDEST SWAP1 POP PUSH1 0x0 PUSH2 0x163E DUP5 DUP9 DUP5 DUP10 PUSH2 0x1838 JUMP JUMPDEST POP SWAP8 SWAP7 POP POP POP POP POP POP POP JUMP JUMPDEST PUSH32 0xBFA76EC2967ED7F8D3D40CD552F1451AB03573B596BFCE931A6A016F7733078C SWAP1 JUMP JUMPDEST PUSH2 0x16C4 DUP4 PUSH4 0xA9059CBB PUSH1 0xE0 SHL DUP5 DUP5 PUSH1 0x40 MLOAD PUSH1 0x24 ADD PUSH2 0x168D SWAP3 SWAP2 SWAP1 PUSH2 0x2164 JUMP JUMPDEST PUSH1 0x40 DUP1 MLOAD PUSH1 0x1F NOT DUP2 DUP5 SUB ADD DUP2 MSTORE SWAP2 SWAP1 MSTORE PUSH1 0x20 DUP2 ADD DUP1 MLOAD PUSH1 0x1 PUSH1 0x1 PUSH1 0xE0 SHL SUB AND PUSH1 0x1 PUSH1 0x1 PUSH1 0xE0 SHL SUB NOT SWAP1 SWAP4 AND SWAP3 SWAP1 SWAP3 OR SWAP1 SWAP2 MSTORE PUSH2 0x1A3E JUMP JUMPDEST POP POP POP JUMP JUMPDEST PUSH1 0x0 DUP1 PUSH1 0x0 DUP4 PUSH1 0x0 ADD PUSH1 0x0 SWAP1 SLOAD SWAP1 PUSH2 0x100 EXP SWAP1 DIV PUSH1 0x1 PUSH1 0x1 PUSH1 0xA0 SHL SUB AND PUSH1 0x1 PUSH1 0x1 PUSH1 0xA0 SHL SUB AND PUSH4 0xFEAF968C PUSH1 0x40 MLOAD DUP2 PUSH4 0xFFFFFFFF AND PUSH1 0xE0 SHL DUP2 MSTORE PUSH1 0x4 ADD PUSH1 0xA0 PUSH1 0x40 MLOAD DUP1 DUP4 SUB DUP2 DUP7 GAS STATICCALL ISZERO DUP1 ISZERO PUSH2 0x1723 JUMPI RETURNDATASIZE PUSH1 0x0 DUP1 RETURNDATACOPY RETURNDATASIZE PUSH1 0x0 REVERT JUMPDEST POP POP POP POP PUSH1 0x40 MLOAD RETURNDATASIZE PUSH1 0x1F NOT PUSH1 0x1F DUP3 ADD AND DUP3 ADD DUP1 PUSH1 0x40 MSTORE POP DUP2 ADD SWAP1 PUSH2 0x1747 SWAP2 SWAP1 PUSH2 0x2400 JUMP JUMPDEST POP SWAP4 POP POP SWAP3 POP POP PUSH1 0x0 DUP3 SGT PUSH2 0x1798 JUMPI PUSH1 0x40 MLOAD PUSH3 0x461BCD PUSH1 0xE5 SHL DUP2 MSTORE PUSH1 0x20 PUSH1 0x4 DUP3 ADD MSTORE PUSH1 0x17 PUSH1 0x24 DUP3 ADD MSTORE PUSH23 0x4E6F207072696365206461746120617661696C61626C65 PUSH1 0x48 SHL PUSH1 0x44 DUP3 ADD MSTORE PUSH1 0x64 ADD PUSH2 0x34C JUMP JUMPDEST PUSH1 0x0 PUSH2 0x258 PUSH2 0x17AA PUSH3 0x15180 TIMESTAMP PUSH2 0x2450 JUMP JUMPDEST PUSH2 0x17B4 SWAP2 SWAP1 PUSH2 0x2450 JUMP JUMPDEST SWAP1 POP DUP1 DUP3 GT PUSH2 0x17F8 JUMPI PUSH1 0x40 MLOAD PUSH3 0x461BCD PUSH1 0xE5 SHL DUP2 MSTORE PUSH1 0x20 PUSH1 0x4 DUP3 ADD MSTORE PUSH1 0x10 PUSH1 0x24 DUP3 ADD MSTORE PUSH16 0x5374616C652070726963652064617461 PUSH1 0x80 SHL PUSH1 0x44 DUP3 ADD MSTORE PUSH1 0x64 ADD PUSH2 0x34C JUMP JUMPDEST DUP5 SLOAD PUSH2 0x180F SWAP1 PUSH1 0x1 PUSH1 0xA0 SHL SWAP1 DIV PUSH1 0xFF AND PUSH1 0xA PUSH2 0x22FA JUMP JUMPDEST PUSH2 0x1825 PUSH9 0x327CB2734119D3B7A9 PUSH1 0x1E SHL DUP6 PUSH2 0x21D5 JUMP JUMPDEST PUSH2 0x182F SWAP2 SWAP1 PUSH2 0x2202 JUMP JUMPDEST SWAP6 SWAP5 POP POP POP POP POP JUMP JUMPDEST PUSH1 0x0 DUP2 DUP1 DUP3 SUB PUSH2 0x18B2 JUMPI PUSH1 0x40 MLOAD PUSH4 0x70A08231 PUSH1 0xE0 SHL DUP2 MSTORE PUSH1 0x1 PUSH1 0x1 PUSH1 0xA0 SHL SUB DUP7 AND SWAP1 PUSH4 0x70A08231 SWAP1 PUSH2 0x186E SWAP1 ADDRESS SWAP1 PUSH1 0x4 ADD PUSH2 0x1F97 JUMP JUMPDEST PUSH1 0x20 PUSH1 0x40 MLOAD DUP1 DUP4 SUB DUP2 DUP7 GAS STATICCALL ISZERO DUP1 ISZERO PUSH2 0x188B JUMPI RETURNDATASIZE PUSH1 0x0 DUP1 RETURNDATACOPY RETURNDATASIZE PUSH1 0x0 REVERT JUMPDEST POP POP POP POP PUSH1 0x40 MLOAD RETURNDATASIZE PUSH1 0x1F NOT PUSH1 0x1F DUP3 ADD AND DUP3 ADD DUP1 PUSH1 0x40 MSTORE POP DUP2 ADD SWAP1 PUSH2 0x18AF SWAP2 SWAP1 PUSH2 0x214B JUMP JUMPDEST SWAP1 POP JUMPDEST PUSH3 0xF4240 PUSH2 0x18C0 DUP6 DUP4 PUSH2 0x21D5 JUMP JUMPDEST PUSH2 0x18CA SWAP2 SWAP1 PUSH2 0x21D5 JUMP JUMPDEST PUSH1 0x1 PUSH1 0x1 PUSH1 0xA0 SHL SUB DUP7 AND PUSH1 0x0 SWAP1 DUP2 MSTORE PUSH1 0x26 DUP9 ADD PUSH1 0x20 MSTORE PUSH1 0x40 SWAP1 KECCAK256 SLOAD SWAP1 SWAP3 POP PUSH9 0x327CB2734119D3B7A9 PUSH1 0x1E SHL SWAP1 PUSH2 0x1904 SWAP1 PUSH1 0xFF AND PUSH1 0xA PUSH2 0x22FA JUMP JUMPDEST PUSH2 0x190E SWAP2 SWAP1 PUSH2 0x21D5 JUMP JUMPDEST PUSH2 0x1918 SWAP1 DUP4 PUSH2 0x2202 JUMP JUMPDEST SWAP2 POP SWAP5 POP SWAP5 SWAP3 POP POP POP JUMP JUMPDEST PUSH1 0x0 PUSH2 0x192D PUSH2 0x164A JUMP JUMPDEST PUSH1 0x7 DUP2 ADD DUP1 SLOAD TIMESTAMP SWAP1 SWAP2 SSTORE SWAP1 SWAP2 POP DUP3 DUP2 ISZERO DUP1 ISZERO SWAP1 PUSH2 0x1956 JUMPI POP PUSH2 0x1952 PUSH3 0x15180 TIMESTAMP PUSH2 0x2450 JUMP JUMPDEST DUP3 GT ISZERO JUMPDEST ISZERO PUSH2 0x196E JUMPI PUSH2 0x1969 PUSH1 0xE DUP5 ADD PUSH1 0x0 PUSH2 0x1F6C JUMP JUMPDEST PUSH2 0x1A1F JUMP JUMPDEST PUSH1 0x0 PUSH2 0xE10 PUSH2 0x1980 PUSH3 0x15180 TIMESTAMP PUSH2 0x2463 JUMP JUMPDEST PUSH2 0x198A SWAP2 SWAP1 PUSH2 0x2202 JUMP JUMPDEST SWAP1 POP PUSH1 0x0 PUSH1 0x18 PUSH1 0x1 DUP4 ADD MOD SWAP1 POP PUSH1 0x0 DUP6 PUSH1 0xE ADD DUP3 PUSH1 0x18 DUP2 LT PUSH2 0x19AE JUMPI PUSH2 0x19AE PUSH2 0x21A6 JUMP JUMPDEST ADD SLOAD SWAP1 POP PUSH1 0x0 DUP7 PUSH1 0xE ADD DUP4 PUSH1 0x18 DUP2 LT PUSH2 0x19C9 JUMPI PUSH2 0x19C9 PUSH2 0x21A6 JUMP JUMPDEST ADD SSTORE DUP7 PUSH1 0xE DUP8 ADD DUP5 PUSH1 0x18 DUP2 LT PUSH2 0x19E1 JUMPI PUSH2 0x19E1 PUSH2 0x21A6 JUMP JUMPDEST ADD PUSH1 0x0 DUP3 DUP3 SLOAD PUSH2 0x19F1 SWAP2 SWAP1 PUSH2 0x2193 JUMP JUMPDEST SWAP1 SWAP2 SSTORE POP POP PUSH1 0x6 DUP7 ADD SLOAD PUSH2 0x1A06 SWAP1 DUP9 SWAP1 PUSH2 0x2193 JUMP JUMPDEST SWAP4 POP DUP1 ISZERO PUSH2 0x1A1B JUMPI PUSH2 0x1A18 DUP2 DUP6 PUSH2 0x2450 JUMP JUMPDEST SWAP4 POP JUMPDEST POP POP POP JUMPDEST PUSH1 0x6 DUP4 ADD DUP2 SWAP1 SSTORE PUSH2 0x962 DUP4 PUSH2 0x1A39 PUSH5 0xE8D4A51000 DUP5 PUSH2 0x2202 JUMP JUMPDEST PUSH2 0x1B10 JUMP JUMPDEST PUSH1 0x0 PUSH2 0x1A93 DUP3 PUSH1 0x40 MLOAD DUP1 PUSH1 0x40 ADD PUSH1 0x40 MSTORE DUP1 PUSH1 0x20 DUP2 MSTORE PUSH1 0x20 ADD PUSH32 0x5361666545524332303A206C6F772D6C6576656C2063616C6C206661696C6564 DUP2 MSTORE POP DUP6 PUSH1 0x1 PUSH1 0x1 PUSH1 0xA0 SHL SUB AND PUSH2 0x1B7A SWAP1 SWAP3 SWAP2 SWAP1 PUSH4 0xFFFFFFFF AND JUMP JUMPDEST DUP1 MLOAD SWAP1 SWAP2 POP ISZERO PUSH2 0x16C4 JUMPI DUP1 DUP1 PUSH1 0x20 ADD SWAP1 MLOAD DUP2 ADD SWAP1 PUSH2 0x1AB1 SWAP2 SWAP1 PUSH2 0x2345 JUMP JUMPDEST PUSH2 0x16C4 JUMPI PUSH1 0x40 MLOAD PUSH3 0x461BCD PUSH1 0xE5 SHL DUP2 MSTORE PUSH1 0x20 PUSH1 0x4 DUP3 ADD MSTORE PUSH1 0x2A PUSH1 0x24 DUP3 ADD MSTORE PUSH32 0x5361666545524332303A204552433230206F7065726174696F6E20646964206E PUSH1 0x44 DUP3 ADD MSTORE PUSH10 0x1BDD081CDD58D8D95959 PUSH1 0xB2 SHL PUSH1 0x64 DUP3 ADD MSTORE PUSH1 0x84 ADD PUSH2 0x34C JUMP JUMPDEST PUSH1 0x40 DUP1 MLOAD PUSH1 0x80 DUP2 ADD DUP3 MSTORE PUSH1 0xA DUP5 ADD SLOAD PUSH2 0xFFFF DUP1 DUP3 AND DUP4 MSTORE PUSH3 0x10000 SWAP1 SWAP2 DIV DUP2 AND PUSH1 0x20 DUP4 ADD DUP2 SWAP1 MSTORE PUSH1 0xB DUP7 ADD SLOAD SWAP4 DUP4 ADD SWAP4 SWAP1 SWAP4 MSTORE PUSH1 0xC DUP6 ADD SLOAD PUSH1 0x60 DUP4 ADD MSTORE SWAP1 SWAP2 SWAP1 DUP4 AND LT PUSH2 0x1B61 JUMPI PUSH2 0x16C4 DUP4 DUP4 PUSH2 0x1B89 JUMP JUMPDEST DUP1 MLOAD PUSH2 0xFFFF DUP1 DUP5 AND SWAP2 AND LT PUSH2 0x16C4 JUMPI PUSH2 0x16C4 DUP4 DUP4 PUSH2 0x1CAF JUMP JUMPDEST PUSH1 0x60 PUSH2 0x124D DUP5 DUP5 PUSH1 0x0 DUP6 PUSH2 0x1DC3 JUMP JUMPDEST PUSH1 0x40 DUP1 MLOAD PUSH1 0x80 DUP2 ADD DUP3 MSTORE PUSH1 0xA DUP5 ADD SLOAD PUSH2 0xFFFF DUP1 DUP3 AND DUP4 MSTORE PUSH3 0x10000 SWAP1 SWAP2 DIV AND PUSH1 0x20 DUP3 ADD MSTORE PUSH1 0xB DUP5 ADD SLOAD SWAP2 DUP2 ADD SWAP2 SWAP1 SWAP2 MSTORE PUSH1 0xC DUP4 ADD SLOAD PUSH1 0x60 DUP3 ADD MSTORE JUMPDEST PUSH2 0x1BCE DUP2 DUP4 PUSH2 0x1E9E JUMP JUMPDEST PUSH2 0x1C5A JUMPI PUSH1 0x0 DUP4 PUSH1 0xD ADD DUP3 PUSH1 0x60 ADD MLOAD PUSH1 0x1 PUSH2 0x1BE9 SWAP2 SWAP1 PUSH2 0x2193 JUMP JUMPDEST DUP2 SLOAD DUP2 LT PUSH2 0x1BF9 JUMPI PUSH2 0x1BF9 PUSH2 0x21A6 JUMP JUMPDEST SWAP1 PUSH1 0x0 MSTORE PUSH1 0x20 PUSH1 0x0 KECCAK256 SWAP1 PUSH1 0x3 MUL ADD SWAP1 POP DUP1 PUSH1 0x1 ADD SLOAD PUSH1 0x0 SUB PUSH2 0x1C1B JUMPI POP PUSH2 0x1C5A JUMP JUMPDEST PUSH1 0x40 DUP1 MLOAD PUSH1 0x80 DUP2 ADD DUP3 MSTORE DUP3 SLOAD PUSH2 0xFFFF DUP1 DUP3 AND DUP4 MSTORE PUSH3 0x10000 SWAP1 SWAP2 DIV AND PUSH1 0x20 DUP3 ADD MSTORE PUSH1 0x1 DUP4 ADD SLOAD SWAP2 DUP2 ADD SWAP2 SWAP1 SWAP2 MSTORE PUSH1 0x2 SWAP1 SWAP2 ADD SLOAD PUSH1 0x60 DUP3 ADD MSTORE SWAP1 POP PUSH2 0x1BC4 JUMP JUMPDEST PUSH1 0x40 DUP2 ADD MLOAD PUSH1 0xB DUP5 ADD SLOAD EQ PUSH2 0x16C4 JUMPI DUP1 MLOAD PUSH1 0xA DUP5 ADD DUP1 SLOAD PUSH1 0x20 DUP5 ADD MLOAD PUSH2 0xFFFF SWAP1 DUP2 AND PUSH3 0x10000 MUL PUSH4 0xFFFFFFFF NOT SWAP1 SWAP3 AND SWAP4 AND SWAP3 SWAP1 SWAP3 OR SWAP2 SWAP1 SWAP2 OR SWAP1 SSTORE PUSH1 0x40 DUP2 ADD MLOAD PUSH1 0xB DUP5 ADD SSTORE PUSH1 0x60 DUP2 ADD MLOAD PUSH1 0xC DUP5 ADD SSTORE POP POP POP JUMP JUMPDEST PUSH1 0x40 DUP1 MLOAD PUSH1 0x80 DUP2 ADD DUP3 MSTORE PUSH1 0xA DUP5 ADD SLOAD PUSH2 0xFFFF DUP1 DUP3 AND DUP4 MSTORE PUSH3 0x10000 SWAP1 SWAP2 DIV AND PUSH1 0x20 DUP3 ADD MSTORE PUSH1 0xB DUP5 ADD SLOAD SWAP2 DUP2 ADD SWAP2 SWAP1 SWAP2 MSTORE PUSH1 0xC DUP4 ADD SLOAD PUSH1 0x60 DUP3 ADD MSTORE JUMPDEST PUSH2 0x1CF4 DUP2 DUP4 PUSH2 0x1E9E JUMP JUMPDEST PUSH2 0x1D7C JUMPI PUSH1 0x60 DUP2 ADD MLOAD ISZERO PUSH2 0x1D7C JUMPI PUSH1 0x0 DUP4 PUSH1 0xD ADD PUSH1 0x1 DUP4 PUSH1 0x60 ADD MLOAD PUSH2 0x1D19 SWAP2 SWAP1 PUSH2 0x2450 JUMP JUMPDEST DUP2 SLOAD DUP2 LT PUSH2 0x1D29 JUMPI PUSH2 0x1D29 PUSH2 0x21A6 JUMP JUMPDEST PUSH1 0x0 SWAP2 DUP3 MSTORE PUSH1 0x20 SWAP2 DUP3 SWAP1 KECCAK256 PUSH1 0x40 DUP1 MLOAD PUSH1 0x80 DUP2 ADD DUP3 MSTORE PUSH1 0x3 SWAP1 SWAP4 MUL SWAP1 SWAP2 ADD DUP1 SLOAD PUSH2 0xFFFF DUP1 DUP3 AND DUP6 MSTORE PUSH3 0x10000 SWAP1 SWAP2 DIV AND SWAP4 DUP4 ADD SWAP4 SWAP1 SWAP4 MSTORE PUSH1 0x1 DUP4 ADD SLOAD SWAP1 DUP3 ADD MSTORE PUSH1 0x2 SWAP1 SWAP2 ADD SLOAD PUSH1 0x60 DUP3 ADD MSTORE SWAP2 POP PUSH2 0x1CEA SWAP1 POP JUMP JUMPDEST DUP1 MLOAD PUSH1 0xA DUP5 ADD DUP1 SLOAD PUSH1 0x20 DUP5 ADD MLOAD PUSH2 0xFFFF SWAP1 DUP2 AND PUSH3 0x10000 MUL PUSH4 0xFFFFFFFF NOT SWAP1 SWAP3 AND SWAP4 AND SWAP3 SWAP1 SWAP3 OR SWAP2 SWAP1 SWAP2 OR SWAP1 SSTORE PUSH1 0x40 DUP2 ADD MLOAD PUSH1 0xB DUP5 ADD SSTORE PUSH1 0x60 ADD MLOAD PUSH1 0xC SWAP1 SWAP3 ADD SWAP2 SWAP1 SWAP2 SSTORE POP JUMP JUMPDEST PUSH1 0x60 DUP3 SELFBALANCE LT ISZERO PUSH2 0x1E24 JUMPI PUSH1 0x40 MLOAD PUSH3 0x461BCD PUSH1 0xE5 SHL DUP2 MSTORE PUSH1 0x20 PUSH1 0x4 DUP3 ADD MSTORE PUSH1 0x26 PUSH1 0x24 DUP3 ADD MSTORE PUSH32 0x416464726573733A20696E73756666696369656E742062616C616E636520666F PUSH1 0x44 DUP3 ADD MSTORE PUSH6 0x1C8818D85B1B PUSH1 0xD2 SHL PUSH1 0x64 DUP3 ADD MSTORE PUSH1 0x84 ADD PUSH2 0x34C JUMP JUMPDEST PUSH1 0x0 DUP1 DUP7 PUSH1 0x1 PUSH1 0x1 PUSH1 0xA0 SHL SUB AND DUP6 DUP8 PUSH1 0x40 MLOAD PUSH2 0x1E40 SWAP2 SWAP1 PUSH2 0x249B JUMP JUMPDEST PUSH1 0x0 PUSH1 0x40 MLOAD DUP1 DUP4 SUB DUP2 DUP6 DUP8 GAS CALL SWAP3 POP POP POP RETURNDATASIZE DUP1 PUSH1 0x0 DUP2 EQ PUSH2 0x1E7D JUMPI PUSH1 0x40 MLOAD SWAP2 POP PUSH1 0x1F NOT PUSH1 0x3F RETURNDATASIZE ADD AND DUP3 ADD PUSH1 0x40 MSTORE RETURNDATASIZE DUP3 MSTORE RETURNDATASIZE PUSH1 0x0 PUSH1 0x20 DUP5 ADD RETURNDATACOPY PUSH2 0x1E82 JUMP JUMPDEST PUSH1 0x60 SWAP2 POP JUMPDEST POP SWAP2 POP SWAP2 POP PUSH2 0x1E93 DUP8 DUP4 DUP4 DUP8 PUSH2 0x1ECE JUMP JUMPDEST SWAP8 SWAP7 POP POP POP POP POP POP POP JUMP JUMPDEST PUSH1 0x0 DUP2 PUSH2 0xFFFF AND DUP4 PUSH1 0x0 ADD MLOAD PUSH2 0xFFFF AND GT ISZERO DUP1 ISZERO PUSH2 0x1EC7 JUMPI POP DUP3 PUSH1 0x20 ADD MLOAD PUSH2 0xFFFF AND DUP3 PUSH2 0xFFFF AND LT JUMPDEST SWAP4 SWAP3 POP POP POP JUMP JUMPDEST PUSH1 0x60 DUP4 ISZERO PUSH2 0x1F3D JUMPI DUP3 MLOAD PUSH1 0x0 SUB PUSH2 0x1F36 JUMPI PUSH1 0x1 PUSH1 0x1 PUSH1 0xA0 SHL SUB DUP6 AND EXTCODESIZE PUSH2 0x1F36 JUMPI PUSH1 0x40 MLOAD PUSH3 0x461BCD PUSH1 0xE5 SHL DUP2 MSTORE PUSH1 0x20 PUSH1 0x4 DUP3 ADD MSTORE PUSH1 0x1D PUSH1 0x24 DUP3 ADD MSTORE PUSH32 0x416464726573733A2063616C6C20746F206E6F6E2D636F6E7472616374000000 PUSH1 0x44 DUP3 ADD MSTORE PUSH1 0x64 ADD PUSH2 0x34C JUMP JUMPDEST POP DUP2 PUSH2 0x124D JUMP JUMPDEST PUSH2 0x124D DUP4 DUP4 DUP2 MLOAD ISZERO PUSH2 0x1F52 JUMPI DUP2 MLOAD DUP1 DUP4 PUSH1 0x20 ADD REVERT JUMPDEST DUP1 PUSH1 0x40 MLOAD PUSH3 0x461BCD PUSH1 0xE5 SHL DUP2 MSTORE PUSH1 0x4 ADD PUSH2 0x34C SWAP2 SWAP1 PUSH2 0x24B7 JUMP JUMPDEST POP PUSH2 0x1F7B SWAP1 PUSH1 0x18 DUP2 ADD SWAP1 PUSH2 0x1F7E JUMP JUMPDEST POP JUMP JUMPDEST JUMPDEST DUP1 DUP3 GT ISZERO PUSH2 0x1F93 JUMPI PUSH1 0x0 DUP2 SSTORE PUSH1 0x1 ADD PUSH2 0x1F7F JUMP JUMPDEST POP SWAP1 JUMP JUMPDEST PUSH1 0x1 PUSH1 0x1 PUSH1 0xA0 SHL SUB SWAP2 SWAP1 SWAP2 AND DUP2 MSTORE PUSH1 0x20 ADD SWAP1 JUMP JUMPDEST PUSH1 0x1 PUSH1 0x1 PUSH1 0xA0 SHL SUB DUP2 AND DUP2 EQ PUSH2 0x1F7B JUMPI PUSH1 0x0 DUP1 REVERT JUMPDEST PUSH1 0x0 DUP1 PUSH1 0x0 PUSH1 0x60 DUP5 DUP7 SUB SLT ISZERO PUSH2 0x1FD5 JUMPI PUSH1 0x0 DUP1 REVERT JUMPDEST DUP4 CALLDATALOAD PUSH2 0x1FE0 DUP2 PUSH2 0x1FAB JUMP JUMPDEST SWAP6 PUSH1 0x20 DUP6 ADD CALLDATALOAD SWAP6 POP PUSH1 0x40 SWAP1 SWAP5 ADD CALLDATALOAD SWAP4 SWAP3 POP POP POP JUMP JUMPDEST PUSH1 0x0 PUSH1 0x20 DUP3 DUP5 SUB SLT ISZERO PUSH2 0x2007 JUMPI PUSH1 0x0 DUP1 REVERT JUMPDEST DUP2 CALLDATALOAD PUSH2 0x1EC7 DUP2 PUSH2 0x1FAB JUMP JUMPDEST PUSH1 0x0 DUP1 PUSH1 0x40 DUP4 DUP6 SUB SLT ISZERO PUSH2 0x2025 JUMPI PUSH1 0x0 DUP1 REVERT JUMPDEST DUP3 CALLDATALOAD PUSH2 0x2030 DUP2 PUSH2 0x1FAB JUMP JUMPDEST SWAP2 POP PUSH1 0x20 DUP4 ADD CALLDATALOAD PUSH2 0x2040 DUP2 PUSH2 0x1FAB JUMP JUMPDEST DUP1 SWAP2 POP POP SWAP3 POP SWAP3 SWAP1 POP JUMP JUMPDEST PUSH1 0x0 DUP1 PUSH1 0x40 DUP4 DUP6 SUB SLT ISZERO PUSH2 0x205E JUMPI PUSH1 0x0 DUP1 REVERT JUMPDEST DUP3 CALLDATALOAD PUSH2 0x2069 DUP2 PUSH2 0x1FAB JUMP JUMPDEST SWAP5 PUSH1 0x20 SWAP4 SWAP1 SWAP4 ADD CALLDATALOAD SWAP4 POP POP POP JUMP JUMPDEST PUSH1 0x20 DUP1 DUP3 MSTORE DUP3 MLOAD DUP3 DUP3 ADD DUP2 SWAP1 MSTORE PUSH1 0x0 SWAP2 SWAP1 PUSH1 0x40 SWAP1 DUP2 DUP6 ADD SWAP1 DUP7 DUP5 ADD DUP6 JUMPDEST DUP3 DUP2 LT ISZERO PUSH2 0x20D7 JUMPI DUP2 MLOAD DUP1 MLOAD PUSH1 0x1 PUSH1 0x1 PUSH1 0xA0 SHL SUB AND DUP6 MSTORE DUP7 DUP2 ADD MLOAD DUP8 DUP7 ADD MSTORE DUP6 DUP2 ADD MLOAD DUP7 DUP7 ADD MSTORE PUSH1 0x60 SWAP1 DUP2 ADD MLOAD SWAP1 DUP6 ADD MSTORE PUSH1 0x80 SWAP1 SWAP4 ADD SWAP3 SWAP1 DUP6 ADD SWAP1 PUSH1 0x1 ADD PUSH2 0x2094 JUMP JUMPDEST POP SWAP2 SWAP8 SWAP7 POP POP POP POP POP POP POP JUMP JUMPDEST PUSH1 0x0 DUP1 PUSH1 0x0 PUSH1 0x60 DUP5 DUP7 SUB SLT ISZERO PUSH2 0x20F9 JUMPI PUSH1 0x0 DUP1 REVERT JUMPDEST DUP4 CALLDATALOAD PUSH2 0x2104 DUP2 PUSH2 0x1FAB JUMP JUMPDEST SWAP3 POP PUSH1 0x20 DUP5 ADD CALLDATALOAD PUSH2 0x2114 DUP2 PUSH2 0x1FAB JUMP JUMPDEST SWAP3 SWAP6 SWAP3 SWAP5 POP POP POP PUSH1 0x40 SWAP2 SWAP1 SWAP2 ADD CALLDATALOAD SWAP1 JUMP JUMPDEST PUSH1 0x20 DUP1 DUP3 MSTORE PUSH1 0xC SWAP1 DUP3 ADD MSTORE PUSH12 0x155B985D5D1A1BDC9A5E9959 PUSH1 0xA2 SHL PUSH1 0x40 DUP3 ADD MSTORE PUSH1 0x60 ADD SWAP1 JUMP JUMPDEST PUSH1 0x0 PUSH1 0x20 DUP3 DUP5 SUB SLT ISZERO PUSH2 0x215D JUMPI PUSH1 0x0 DUP1 REVERT JUMPDEST POP MLOAD SWAP2 SWAP1 POP JUMP JUMPDEST PUSH1 0x1 PUSH1 0x1 PUSH1 0xA0 SHL SUB SWAP3 SWAP1 SWAP3 AND DUP3 MSTORE PUSH1 0x20 DUP3 ADD MSTORE PUSH1 0x40 ADD SWAP1 JUMP JUMPDEST PUSH4 0x4E487B71 PUSH1 0xE0 SHL PUSH1 0x0 MSTORE PUSH1 0x11 PUSH1 0x4 MSTORE PUSH1 0x24 PUSH1 0x0 REVERT JUMPDEST DUP1 DUP3 ADD DUP1 DUP3 GT ISZERO PUSH2 0xA81 JUMPI PUSH2 0xA81 PUSH2 0x217D JUMP JUMPDEST PUSH4 0x4E487B71 PUSH1 0xE0 SHL PUSH1 0x0 MSTORE PUSH1 0x32 PUSH1 0x4 MSTORE PUSH1 0x24 PUSH1 0x0 REVERT JUMPDEST PUSH1 0x0 PUSH1 0x1 DUP3 ADD PUSH2 0x21CE JUMPI PUSH2 0x21CE PUSH2 0x217D JUMP JUMPDEST POP PUSH1 0x1 ADD SWAP1 JUMP JUMPDEST DUP1 DUP3 MUL DUP2 ISZERO DUP3 DUP3 DIV DUP5 EQ OR PUSH2 0xA81 JUMPI PUSH2 0xA81 PUSH2 0x217D JUMP JUMPDEST PUSH4 0x4E487B71 PUSH1 0xE0 SHL PUSH1 0x0 MSTORE PUSH1 0x12 PUSH1 0x4 MSTORE PUSH1 0x24 PUSH1 0x0 REVERT JUMPDEST PUSH1 0x0 DUP3 PUSH2 0x2211 JUMPI PUSH2 0x2211 PUSH2 0x21EC JUMP JUMPDEST POP DIV SWAP1 JUMP JUMPDEST PUSH1 0x1 DUP2 DUP2 JUMPDEST DUP1 DUP6 GT ISZERO PUSH2 0x2251 JUMPI DUP2 PUSH1 0x0 NOT DIV DUP3 GT ISZERO PUSH2 0x2237 JUMPI PUSH2 0x2237 PUSH2 0x217D JUMP JUMPDEST DUP1 DUP6 AND ISZERO PUSH2 0x2244 JUMPI SWAP2 DUP2 MUL SWAP2 JUMPDEST SWAP4 DUP5 SHR SWAP4 SWAP1 DUP1 MUL SWAP1 PUSH2 0x221B JUMP JUMPDEST POP SWAP3 POP SWAP3 SWAP1 POP JUMP JUMPDEST PUSH1 0x0 DUP3 PUSH2 0x2268 JUMPI POP PUSH1 0x1 PUSH2 0xA81 JUMP JUMPDEST DUP2 PUSH2 0x2275 JUMPI POP PUSH1 0x0 PUSH2 0xA81 JUMP JUMPDEST DUP2 PUSH1 0x1 DUP2 EQ PUSH2 0x228B JUMPI PUSH1 0x2 DUP2 EQ PUSH2 0x2295 JUMPI PUSH2 0x22B1 JUMP JUMPDEST PUSH1 0x1 SWAP2 POP POP PUSH2 0xA81 JUMP JUMPDEST PUSH1 0xFF DUP5 GT ISZERO PUSH2 0x22A6 JUMPI PUSH2 0x22A6 PUSH2 0x217D JUMP JUMPDEST POP POP PUSH1 0x1 DUP3 SHL PUSH2 0xA81 JUMP JUMPDEST POP PUSH1 0x20 DUP4 LT PUSH2 0x133 DUP4 LT AND PUSH1 0x4E DUP5 LT PUSH1 0xB DUP5 LT AND OR ISZERO PUSH2 0x22D4 JUMPI POP DUP2 DUP2 EXP PUSH2 0xA81 JUMP JUMPDEST PUSH2 0x22DE DUP4 DUP4 PUSH2 0x2216 JUMP JUMPDEST DUP1 PUSH1 0x0 NOT DIV DUP3 GT ISZERO PUSH2 0x22F2 JUMPI PUSH2 0x22F2 PUSH2 0x217D JUMP JUMPDEST MUL SWAP4 SWAP3 POP POP POP JUMP JUMPDEST PUSH1 0x0 PUSH2 0x1EC7 PUSH1 0xFF DUP5 AND DUP4 PUSH2 0x2259 JUMP JUMPDEST PUSH1 0x0 PUSH1 0x20 DUP3 DUP5 SUB SLT ISZERO PUSH2 0x231B JUMPI PUSH1 0x0 DUP1 REVERT JUMPDEST DUP2 MLOAD PUSH4 0xFFFFFFFF DUP2 AND DUP2 EQ PUSH2 0x1EC7 JUMPI PUSH1 0x0 DUP1 REVERT JUMPDEST PUSH4 0x4E487B71 PUSH1 0xE0 SHL PUSH1 0x0 MSTORE PUSH1 0x41 PUSH1 0x4 MSTORE PUSH1 0x24 PUSH1 0x0 REVERT JUMPDEST PUSH1 0x0 PUSH1 0x20 DUP3 DUP5 SUB SLT ISZERO PUSH2 0x2357 JUMPI PUSH1 0x0 DUP1 REVERT JUMPDEST DUP2 MLOAD DUP1 ISZERO ISZERO DUP2 EQ PUSH2 0x1EC7 JUMPI PUSH1 0x0 DUP1 REVERT JUMPDEST DUP2 MLOAD DUP2 MSTORE PUSH1 0x20 DUP1 DUP4 ADD MLOAD DUP2 DUP4 ADD MSTORE PUSH1 0x40 DUP1 DUP5 ADD MLOAD PUSH2 0x3C0 DUP5 ADD SWAP3 SWAP2 DUP5 ADD PUSH1 0x0 JUMPDEST PUSH1 0x18 DUP2 LT ISZERO PUSH2 0x23A4 JUMPI DUP3 MLOAD DUP3 MSTORE SWAP2 DUP4 ADD SWAP2 SWAP1 DUP4 ADD SWAP1 PUSH1 0x1 ADD PUSH2 0x2387 JUMP JUMPDEST POP POP POP PUSH1 0x60 SWAP4 DUP5 ADD MLOAD DUP1 MLOAD PUSH2 0xFFFF SWAP1 DUP2 AND PUSH2 0x340 DUP7 ADD MSTORE SWAP2 DUP2 ADD MLOAD SWAP1 SWAP2 AND PUSH2 0x360 DUP5 ADD MSTORE PUSH1 0x40 DUP2 ADD MLOAD PUSH2 0x380 DUP5 ADD MSTORE SWAP1 SWAP3 ADD MLOAD PUSH2 0x3A0 SWAP1 SWAP2 ADD MSTORE SWAP1 JUMP JUMPDEST DUP1 MLOAD PUSH10 0xFFFFFFFFFFFFFFFFFFFF DUP2 AND DUP2 EQ PUSH2 0x23FB JUMPI PUSH1 0x0 DUP1 REVERT JUMPDEST SWAP2 SWAP1 POP JUMP JUMPDEST PUSH1 0x0 DUP1 PUSH1 0x0 DUP1 PUSH1 0x0 PUSH1 0xA0 DUP7 DUP9 SUB SLT ISZERO PUSH2 0x2418 JUMPI PUSH1 0x0 DUP1 REVERT JUMPDEST PUSH2 0x2421 DUP7 PUSH2 0x23E1 JUMP JUMPDEST SWAP5 POP PUSH1 0x20 DUP7 ADD MLOAD SWAP4 POP PUSH1 0x40 DUP7 ADD MLOAD SWAP3 POP PUSH1 0x60 DUP7 ADD MLOAD SWAP2 POP PUSH2 0x2444 PUSH1 0x80 DUP8 ADD PUSH2 0x23E1 JUMP JUMPDEST SWAP1 POP SWAP3 SWAP6 POP SWAP3 SWAP6 SWAP1 SWAP4 POP JUMP JUMPDEST DUP2 DUP2 SUB DUP2 DUP2 GT ISZERO PUSH2 0xA81 JUMPI PUSH2 0xA81 PUSH2 0x217D JUMP JUMPDEST PUSH1 0x0 DUP3 PUSH2 0x2472 JUMPI PUSH2 0x2472 PUSH2 0x21EC JUMP JUMPDEST POP MOD SWAP1 JUMP JUMPDEST PUSH1 0x0 JUMPDEST DUP4 DUP2 LT ISZERO PUSH2 0x2492 JUMPI DUP2 DUP2 ADD MLOAD DUP4 DUP3 ADD MSTORE PUSH1 0x20 ADD PUSH2 0x247A JUMP JUMPDEST POP POP PUSH1 0x0 SWAP2 ADD MSTORE JUMP JUMPDEST PUSH1 0x0 DUP3 MLOAD PUSH2 0x24AD DUP2 DUP5 PUSH1 0x20 DUP8 ADD PUSH2 0x2477 JUMP JUMPDEST SWAP2 SWAP1 SWAP2 ADD SWAP3 SWAP2 POP POP JUMP JUMPDEST PUSH1 0x20 DUP2 MSTORE PUSH1 0x0 DUP3 MLOAD DUP1 PUSH1 0x20 DUP5 ADD MSTORE PUSH2 0x24D6 DUP2 PUSH1 0x40 DUP6 ADD PUSH1 0x20 DUP8 ADD PUSH2 0x2477 JUMP JUMPDEST PUSH1 0x1F ADD PUSH1 0x1F NOT AND SWAP2 SWAP1 SWAP2 ADD PUSH1 0x40 ADD SWAP3 SWAP2 POP POP JUMP INVALID LOG2 PUSH5 0x6970667358 0x22 SLT KECCAK256 MSTORE8 NOT 0x4C 0xC3 CODECOPY DELEGATECALL CREATE 0xD0 0xA9 0x5E OR 0x2E EXTCODEHASH EXTCODESIZE 0x5F LOG4 0xC7 0x4C JUMPI PUSH16 0xE79D318535EAF5423C5DD02764736F6C PUSH4 0x43000811 STOP CALLER "},"gasEstimates":{"creation":{"codeDepositCost":"1900800","executionCost":"infinite","totalCost":"infinite"},"external":{"adminMultiSig()":"2527","assets()":"infinite","aumUSD()":"infinite","baseMintThreshold()":"2481","canMigrate()":"6779","cancelMigration()":"infinite","computeVolumeUSD(address,uint256)":"infinite","configureContracts(address,address)":"infinite","convertGasToFeeToken(address,uint256)":"infinite","currentMintRateUSD()":"infinite","currentNavUSD()":"infinite","dailyVolumeUSD()":"2370","dexible()":"2477","discountBps()":"infinite","dxbl()":"2478","estimateRedemption(address,uint256)":"infinite","feeTokenPriceUSD(address)":"infinite","isFeeTokenAllowed(address)":"2645","migrateV1()":"infinite","pause()":"infinite","paused()":"2509","redeemDXBL(address,uint256,uint256)":"infinite","resume()":"infinite","rewardTrader(address,address,uint256)":"infinite","scheduleMigration(address)":"infinite","timelockSeconds()":"2469","wrappedNativeToken()":"2479"},"internal":{"_initializeFeeTokens(struct VaultStorage.VaultData storage pointer,struct VaultStorage.FeeTokenConfig memory)":"infinite","_initializeMintRates(struct VaultStorage.VaultData storage pointer,struct VaultStorage.MintRateRangeConfig memory[] memory)":"infinite"}},"methodIdentifiers":{"adminMultiSig()":"45c6a874","assets()":"71a97305","aumUSD()":"20529bb1","baseMintThreshold()":"56168843","canMigrate()":"19ed21bd","cancelMigration()":"10639ea0","computeVolumeUSD(address,uint256)":"f7406fc3","configureContracts(address,address)":"288cbb5d","convertGasToFeeToken(address,uint256)":"3931f45d","currentMintRateUSD()":"41b5774a","currentNavUSD()":"5de11890","dailyVolumeUSD()":"82131470","dexible()":"a74aa566","discountBps()":"6c1f5633","dxbl()":"6162cb91","estimateRedemption(address,uint256)":"7262f557","feeTokenPriceUSD(address)":"ce25cb4d","isFeeTokenAllowed(address)":"5d204718","migrateV1()":"df2fb8d6","pause()":"8456cb59","paused()":"5c975abb","redeemDXBL(address,uint256,uint256)":"18ac3b15","resume()":"046f7da2","rewardTrader(address,address,uint256)":"ab1094c0","scheduleMigration(address)":"1dfc2ecf","timelockSeconds()":"65a1f3c3","wrappedNativeToken()":"17fcb39b"}},"storageLayout":{"storage":[],"types":null},"userdoc":{"kind":"user","methods":{"configureContracts(address,address)":{"notice":"Called to either initially set or change the dexible and token contract addresses. The token contract address can only be set once."},"migrateV1()":{"notice":"Migrate the state of the vault to a new version. This will transfer all current state and transfer fee token balances as well. Note that "},"pause()":{"notice":"Used in emergency situations when we need to hault operations."},"rewardTrader(address,address,uint256)":{"notice":"Modification functions"}},"notice":"The community vault controls the supply of DXBL tokens. It has minting authority on the  token contract so it can request mints/burns on behalf of traders. The Dexible contract is the only address able to request DXBL rewards for trades being made through the protocol. This contract is not upgradeable or modifiable. However, if an upgrade/fork is necessary, the contract can be paused and migrated to a new version after a grace period and only  initiated from the admin multi-sig assigned to the vault.","version":1}}}}