{"contracts/vault/baseContracts/ComputationalView.sol":{"ComputationalView":{"abi":[{"inputs":[],"name":"assets","outputs":[{"components":[{"internalType":"address","name":"token","type":"address"},{"internalType":"uint256","name":"balance","type":"uint256"},{"internalType":"uint256","name":"usdValue","type":"uint256"},{"internalType":"uint256","name":"usdPrice","type":"uint256"}],"internalType":"struct IComputationalView.AssetInfo[]","name":"tokens","type":"tuple[]"}],"stateMutability":"view","type":"function"},{"inputs":[],"name":"aumUSD","outputs":[{"internalType":"uint256","name":"usd","type":"uint256"}],"stateMutability":"view","type":"function"},{"inputs":[{"internalType":"address","name":"feeToken","type":"address"},{"internalType":"uint256","name":"amount","type":"uint256"}],"name":"computeVolumeUSD","outputs":[{"internalType":"uint256","name":"volumeUSD","type":"uint256"}],"stateMutability":"view","type":"function"},{"inputs":[{"internalType":"address","name":"feeToken","type":"address"},{"internalType":"uint256","name":"gasCost","type":"uint256"}],"name":"convertGasToFeeToken","outputs":[{"internalType":"uint256","name":"","type":"uint256"}],"stateMutability":"view","type":"function"},{"inputs":[],"name":"currentMintRateUSD","outputs":[{"internalType":"uint256","name":"rate","type":"uint256"}],"stateMutability":"view","type":"function"},{"inputs":[],"name":"currentNavUSD","outputs":[{"internalType":"uint256","name":"nav","type":"uint256"}],"stateMutability":"view","type":"function"},{"inputs":[{"internalType":"address","name":"rewardToken","type":"address"},{"internalType":"uint256","name":"dxblAmount","type":"uint256"}],"name":"estimateRedemption","outputs":[{"internalType":"uint256","name":"","type":"uint256"}],"stateMutability":"view","type":"function"},{"inputs":[{"internalType":"address","name":"feeToken","type":"address"}],"name":"feeTokenPriceUSD","outputs":[{"internalType":"uint256","name":"","type":"uint256"}],"stateMutability":"view","type":"function"}],"devdoc":{"kind":"dev","methods":{},"version":1},"evm":{"bytecode":{"linkReferences":{},"object":"608060405234801561001057600080fd5b50610d8b806100206000396000f3fe608060405234801561001057600080fd5b50600436106100785760003560e01c806320529bb11461007d5780633931f45d1461009857806341b5774a146100ab5780635de11890146100b357806371a97305146100bb5780637262f557146100d0578063ce25cb4d146100e3578063f7406fc3146100f6575b600080fd5b610085610109565b6040519081526020015b60405180910390f35b6100856100a6366004610a6c565b610205565b610085610324565b61008561039f565b6100c361046c565b60405161008f9190610a96565b6100856100de366004610a6c565b610660565b6100856100f1366004610b03565b610703565b610085610104366004610a6c565b61078a565b6000806101146107d7565b905060008160090180548060200260200160405190810160405280929190818152602001828054801561017057602002820191906000526020600020905b81546001600160a01b03168152600190910190602001808311610152575b5050505050905060005b81518110156101ff57600082828151811061019757610197610b25565b6020908102919091018101516001600160a01b03811660009081526027870190925260408220909250906101ca826107fb565b905060006101db878584600061096a565b5090506101e88189610b51565b975050505050806101f890610b64565b905061017a565b50505090565b6000806102106107d7565b60038101549091506001600160a01b0390811690851603610234578291505061031e565b60038101546001600160a01b03166000908152602782016020526040812061025b906107fb565b6001600160a01b0386166000908152602784016020526040812091925090610282906107fb565b905060008161029d68327cb2734119d3b7a9601e1b85610b7d565b6102a79190610b94565b9050600068327cb2734119d3b7a9601e1b6102c28884610b7d565b6102cc9190610b94565b6001600160a01b0389166000908152602687016020526040902054909150670de0b6b3a7640000906103029060ff16600a610c9a565b61030c9083610b7d565b6103169190610b94565b955050505050505b92915050565b60008061032f6107d7565b9050600064e8d4a5100082600601546103489190610b94565b905060008161ffff1683600a01600101546103639190610b7d565b9050670de0b6b3a764000081846005015461037e9190610b7d565b6103889190610b94565b83600501546103979190610b51565b935050505090565b6000806103aa6107d7565b905060008160010160009054906101000a90046001600160a01b03166001600160a01b03166318160ddd6040518163ffffffff1660e01b8152600401602060405180830381865afa158015610403573d6000803e3d6000fd5b505050506040513d601f19601f820116820180604052508101906104279190610ca9565b90506000610433610109565b9050811580610440575080155b1561044f576000935050505090565b8161046282670de0b6b3a7640000610b7d565b6103979190610b94565b606060006104786107d7565b600981015490915067ffffffffffffffff81111561049857610498610cc2565b6040519080825280602002602001820160405280156104fd57816020015b6104ea604051806080016040528060006001600160a01b031681526020016000815260200160008152602001600081525090565b8152602001906001900390816104b65790505b5091506000808260090180548060200260200160405190810160405280929190818152602001828054801561055b57602002820191906000526020600020905b81546001600160a01b0316815260019091019060200180831161053d575b5050505050905060005b815181101561065957600082828151811061058257610582610b25565b6020908102919091018101516001600160a01b03811660009081526027880190925260408220909250906105b5826107fb565b90506000806105c7898685600061096a565b915091506040518060800160405280866001600160a01b0316815260200182815260200183815260200168327cb2734119d3b7a9601e1b620f42408661060d9190610b7d565b6106179190610b94565b8152508a898151811061062c5761062c610b25565b60200260200101819052508761064190610b64565b975050505050508061065290610b64565b9050610565565b5050505090565b60008061066b6107d7565b9050600061067761039f565b9050620f424061069368327cb2734119d3b7a9601e1b83610b7d565b61069d9190610b94565b905060006106aa86610703565b6001600160a01b038716600090815260268501602052604081205491925060ff90911690826106da83600a610c9a565b6106e49086610b7d565b6106ee9190610b94565b9050670de0b6b3a764000061030c8289610b7d565b60008061070e6107d7565b6001600160a01b0380851660009081526027830160205260409020805492935091166107795760405162461bcd60e51b81526020600482015260156024820152742ab739bab83837b93a32b2103332b2903a37b5b2b760591b60448201526064015b60405180910390fd5b610782816107fb565b949350505050565b6000806107956107d7565b6001600160a01b038516600090815260278201602052604081209192506107bb826107fb565b905060006107cb8488848961096a565b50979650505050505050565b7fbfa76ec2967ed7f8d3d40cd552f1451ab03573b596bfce931a6a016f7733078c90565b60008060008360000160009054906101000a90046001600160a01b03166001600160a01b031663feaf968c6040518163ffffffff1660e01b815260040160a060405180830381865afa158015610855573d6000803e3d6000fd5b505050506040513d601f19601f820116820180604052508101906108799190610cf2565b50935050925050600082136108ca5760405162461bcd60e51b81526020600482015260176024820152764e6f207072696365206461746120617661696c61626c6560481b6044820152606401610770565b60006102586108dc6201518042610d42565b6108e69190610d42565b905080821161092a5760405162461bcd60e51b815260206004820152601060248201526f5374616c65207072696365206461746160801b6044820152606401610770565b845461094190600160a01b900460ff16600a610c9a565b61095768327cb2734119d3b7a9601e1b85610b7d565b6109619190610b94565b95945050505050565b6000818082036109df576040516370a0823160e01b81523060048201526001600160a01b038616906370a0823190602401602060405180830381865afa1580156109b8573d6000803e3d6000fd5b505050506040513d601f19601f820116820180604052508101906109dc9190610ca9565b90505b620f42406109ed8583610b7d565b6109f79190610b7d565b6001600160a01b038616600090815260268801602052604090205490925068327cb2734119d3b7a9601e1b90610a319060ff16600a610c9a565b610a3b9190610b7d565b610a459083610b94565b915094509492505050565b80356001600160a01b0381168114610a6757600080fd5b919050565b60008060408385031215610a7f57600080fd5b610a8883610a50565b946020939093013593505050565b602080825282518282018190526000919060409081850190868401855b82811015610af657815180516001600160a01b03168552868101518786015285810151868601526060908101519085015260809093019290850190600101610ab3565b5091979650505050505050565b600060208284031215610b1557600080fd5b610b1e82610a50565b9392505050565b634e487b7160e01b600052603260045260246000fd5b634e487b7160e01b600052601160045260246000fd5b8082018082111561031e5761031e610b3b565b600060018201610b7657610b76610b3b565b5060010190565b808202811582820484141761031e5761031e610b3b565b600082610bb157634e487b7160e01b600052601260045260246000fd5b500490565b600181815b80851115610bf1578160001904821115610bd757610bd7610b3b565b80851615610be457918102915b93841c9390800290610bbb565b509250929050565b600082610c085750600161031e565b81610c155750600061031e565b8160018114610c2b5760028114610c3557610c51565b600191505061031e565b60ff841115610c4657610c46610b3b565b50506001821b61031e565b5060208310610133831016604e8410600b8410161715610c74575081810a61031e565b610c7e8383610bb6565b8060001904821115610c9257610c92610b3b565b029392505050565b6000610b1e60ff841683610bf9565b600060208284031215610cbb57600080fd5b5051919050565b634e487b7160e01b600052604160045260246000fd5b805169ffffffffffffffffffff81168114610a6757600080fd5b600080600080600060a08688031215610d0a57600080fd5b610d1386610cd8565b9450602086015193506040860151925060608601519150610d3660808701610cd8565b90509295509295909350565b8181038181111561031e5761031e610b3b56fea2646970667358221220c8ea72445766b5f0390eefe48aa05936e4ac3c4d0a56dc50700f020159fc48b164736f6c63430008110033","opcodes":"PUSH1 0x80 PUSH1 0x40 MSTORE CALLVALUE DUP1 ISZERO PUSH2 0x10 JUMPI PUSH1 0x0 DUP1 REVERT JUMPDEST POP PUSH2 0xD8B DUP1 PUSH2 0x20 PUSH1 0x0 CODECOPY PUSH1 0x0 RETURN INVALID PUSH1 0x80 PUSH1 0x40 MSTORE CALLVALUE DUP1 ISZERO PUSH2 0x10 JUMPI PUSH1 0x0 DUP1 REVERT JUMPDEST POP PUSH1 0x4 CALLDATASIZE LT PUSH2 0x78 JUMPI PUSH1 0x0 CALLDATALOAD PUSH1 0xE0 SHR DUP1 PUSH4 0x20529BB1 EQ PUSH2 0x7D JUMPI DUP1 PUSH4 0x3931F45D EQ PUSH2 0x98 JUMPI DUP1 PUSH4 0x41B5774A EQ PUSH2 0xAB JUMPI DUP1 PUSH4 0x5DE11890 EQ PUSH2 0xB3 JUMPI DUP1 PUSH4 0x71A97305 EQ PUSH2 0xBB JUMPI DUP1 PUSH4 0x7262F557 EQ PUSH2 0xD0 JUMPI DUP1 PUSH4 0xCE25CB4D EQ PUSH2 0xE3 JUMPI DUP1 PUSH4 0xF7406FC3 EQ PUSH2 0xF6 JUMPI JUMPDEST PUSH1 0x0 DUP1 REVERT JUMPDEST PUSH2 0x85 PUSH2 0x109 JUMP JUMPDEST PUSH1 0x40 MLOAD SWAP1 DUP2 MSTORE PUSH1 0x20 ADD JUMPDEST PUSH1 0x40 MLOAD DUP1 SWAP2 SUB SWAP1 RETURN JUMPDEST PUSH2 0x85 PUSH2 0xA6 CALLDATASIZE PUSH1 0x4 PUSH2 0xA6C JUMP JUMPDEST PUSH2 0x205 JUMP JUMPDEST PUSH2 0x85 PUSH2 0x324 JUMP JUMPDEST PUSH2 0x85 PUSH2 0x39F JUMP JUMPDEST PUSH2 0xC3 PUSH2 0x46C JUMP JUMPDEST PUSH1 0x40 MLOAD PUSH2 0x8F SWAP2 SWAP1 PUSH2 0xA96 JUMP JUMPDEST PUSH2 0x85 PUSH2 0xDE CALLDATASIZE PUSH1 0x4 PUSH2 0xA6C JUMP JUMPDEST PUSH2 0x660 JUMP JUMPDEST PUSH2 0x85 PUSH2 0xF1 CALLDATASIZE PUSH1 0x4 PUSH2 0xB03 JUMP JUMPDEST PUSH2 0x703 JUMP JUMPDEST PUSH2 0x85 PUSH2 0x104 CALLDATASIZE PUSH1 0x4 PUSH2 0xA6C JUMP JUMPDEST PUSH2 0x78A JUMP JUMPDEST PUSH1 0x0 DUP1 PUSH2 0x114 PUSH2 0x7D7 JUMP JUMPDEST SWAP1 POP PUSH1 0x0 DUP2 PUSH1 0x9 ADD DUP1 SLOAD DUP1 PUSH1 0x20 MUL PUSH1 0x20 ADD PUSH1 0x40 MLOAD SWAP1 DUP2 ADD PUSH1 0x40 MSTORE DUP1 SWAP3 SWAP2 SWAP1 DUP2 DUP2 MSTORE PUSH1 0x20 ADD DUP3 DUP1 SLOAD DUP1 ISZERO PUSH2 0x170 JUMPI PUSH1 0x20 MUL DUP3 ADD SWAP2 SWAP1 PUSH1 0x0 MSTORE PUSH1 0x20 PUSH1 0x0 KECCAK256 SWAP1 JUMPDEST DUP2 SLOAD PUSH1 0x1 PUSH1 0x1 PUSH1 0xA0 SHL SUB AND DUP2 MSTORE PUSH1 0x1 SWAP1 SWAP2 ADD SWAP1 PUSH1 0x20 ADD DUP1 DUP4 GT PUSH2 0x152 JUMPI JUMPDEST POP POP POP POP POP SWAP1 POP PUSH1 0x0 JUMPDEST DUP2 MLOAD DUP2 LT ISZERO PUSH2 0x1FF JUMPI PUSH1 0x0 DUP3 DUP3 DUP2 MLOAD DUP2 LT PUSH2 0x197 JUMPI PUSH2 0x197 PUSH2 0xB25 JUMP JUMPDEST PUSH1 0x20 SWAP1 DUP2 MUL SWAP2 SWAP1 SWAP2 ADD DUP2 ADD MLOAD PUSH1 0x1 PUSH1 0x1 PUSH1 0xA0 SHL SUB DUP2 AND PUSH1 0x0 SWAP1 DUP2 MSTORE PUSH1 0x27 DUP8 ADD SWAP1 SWAP3 MSTORE PUSH1 0x40 DUP3 KECCAK256 SWAP1 SWAP3 POP SWAP1 PUSH2 0x1CA DUP3 PUSH2 0x7FB JUMP JUMPDEST SWAP1 POP PUSH1 0x0 PUSH2 0x1DB DUP8 DUP6 DUP5 PUSH1 0x0 PUSH2 0x96A JUMP JUMPDEST POP SWAP1 POP PUSH2 0x1E8 DUP2 DUP10 PUSH2 0xB51 JUMP JUMPDEST SWAP8 POP POP POP POP POP DUP1 PUSH2 0x1F8 SWAP1 PUSH2 0xB64 JUMP JUMPDEST SWAP1 POP PUSH2 0x17A JUMP JUMPDEST POP POP POP SWAP1 JUMP JUMPDEST PUSH1 0x0 DUP1 PUSH2 0x210 PUSH2 0x7D7 JUMP JUMPDEST PUSH1 0x3 DUP2 ADD SLOAD SWAP1 SWAP2 POP PUSH1 0x1 PUSH1 0x1 PUSH1 0xA0 SHL SUB SWAP1 DUP2 AND SWAP1 DUP6 AND SUB PUSH2 0x234 JUMPI DUP3 SWAP2 POP POP PUSH2 0x31E JUMP JUMPDEST PUSH1 0x3 DUP2 ADD SLOAD PUSH1 0x1 PUSH1 0x1 PUSH1 0xA0 SHL SUB AND PUSH1 0x0 SWAP1 DUP2 MSTORE PUSH1 0x27 DUP3 ADD PUSH1 0x20 MSTORE PUSH1 0x40 DUP2 KECCAK256 PUSH2 0x25B SWAP1 PUSH2 0x7FB JUMP JUMPDEST PUSH1 0x1 PUSH1 0x1 PUSH1 0xA0 SHL SUB DUP7 AND PUSH1 0x0 SWAP1 DUP2 MSTORE PUSH1 0x27 DUP5 ADD PUSH1 0x20 MSTORE PUSH1 0x40 DUP2 KECCAK256 SWAP2 SWAP3 POP SWAP1 PUSH2 0x282 SWAP1 PUSH2 0x7FB JUMP JUMPDEST SWAP1 POP PUSH1 0x0 DUP2 PUSH2 0x29D PUSH9 0x327CB2734119D3B7A9 PUSH1 0x1E SHL DUP6 PUSH2 0xB7D JUMP JUMPDEST PUSH2 0x2A7 SWAP2 SWAP1 PUSH2 0xB94 JUMP JUMPDEST SWAP1 POP PUSH1 0x0 PUSH9 0x327CB2734119D3B7A9 PUSH1 0x1E SHL PUSH2 0x2C2 DUP9 DUP5 PUSH2 0xB7D JUMP JUMPDEST PUSH2 0x2CC SWAP2 SWAP1 PUSH2 0xB94 JUMP JUMPDEST PUSH1 0x1 PUSH1 0x1 PUSH1 0xA0 SHL SUB DUP10 AND PUSH1 0x0 SWAP1 DUP2 MSTORE PUSH1 0x26 DUP8 ADD PUSH1 0x20 MSTORE PUSH1 0x40 SWAP1 KECCAK256 SLOAD SWAP1 SWAP2 POP PUSH8 0xDE0B6B3A7640000 SWAP1 PUSH2 0x302 SWAP1 PUSH1 0xFF AND PUSH1 0xA PUSH2 0xC9A JUMP JUMPDEST PUSH2 0x30C SWAP1 DUP4 PUSH2 0xB7D JUMP JUMPDEST PUSH2 0x316 SWAP2 SWAP1 PUSH2 0xB94 JUMP JUMPDEST SWAP6 POP POP POP POP POP POP JUMPDEST SWAP3 SWAP2 POP POP JUMP JUMPDEST PUSH1 0x0 DUP1 PUSH2 0x32F PUSH2 0x7D7 JUMP JUMPDEST SWAP1 POP PUSH1 0x0 PUSH5 0xE8D4A51000 DUP3 PUSH1 0x6 ADD SLOAD PUSH2 0x348 SWAP2 SWAP1 PUSH2 0xB94 JUMP JUMPDEST SWAP1 POP PUSH1 0x0 DUP2 PUSH2 0xFFFF AND DUP4 PUSH1 0xA ADD PUSH1 0x1 ADD SLOAD PUSH2 0x363 SWAP2 SWAP1 PUSH2 0xB7D JUMP JUMPDEST SWAP1 POP PUSH8 0xDE0B6B3A7640000 DUP2 DUP5 PUSH1 0x5 ADD SLOAD PUSH2 0x37E SWAP2 SWAP1 PUSH2 0xB7D JUMP JUMPDEST PUSH2 0x388 SWAP2 SWAP1 PUSH2 0xB94 JUMP JUMPDEST DUP4 PUSH1 0x5 ADD SLOAD PUSH2 0x397 SWAP2 SWAP1 PUSH2 0xB51 JUMP JUMPDEST SWAP4 POP POP POP POP SWAP1 JUMP JUMPDEST PUSH1 0x0 DUP1 PUSH2 0x3AA PUSH2 0x7D7 JUMP JUMPDEST SWAP1 POP PUSH1 0x0 DUP2 PUSH1 0x1 ADD PUSH1 0x0 SWAP1 SLOAD SWAP1 PUSH2 0x100 EXP SWAP1 DIV PUSH1 0x1 PUSH1 0x1 PUSH1 0xA0 SHL SUB AND PUSH1 0x1 PUSH1 0x1 PUSH1 0xA0 SHL SUB AND PUSH4 0x18160DDD PUSH1 0x40 MLOAD DUP2 PUSH4 0xFFFFFFFF AND PUSH1 0xE0 SHL DUP2 MSTORE PUSH1 0x4 ADD PUSH1 0x20 PUSH1 0x40 MLOAD DUP1 DUP4 SUB DUP2 DUP7 GAS STATICCALL ISZERO DUP1 ISZERO PUSH2 0x403 JUMPI RETURNDATASIZE PUSH1 0x0 DUP1 RETURNDATACOPY RETURNDATASIZE PUSH1 0x0 REVERT JUMPDEST POP POP POP POP PUSH1 0x40 MLOAD RETURNDATASIZE PUSH1 0x1F NOT PUSH1 0x1F DUP3 ADD AND DUP3 ADD DUP1 PUSH1 0x40 MSTORE POP DUP2 ADD SWAP1 PUSH2 0x427 SWAP2 SWAP1 PUSH2 0xCA9 JUMP JUMPDEST SWAP1 POP PUSH1 0x0 PUSH2 0x433 PUSH2 0x109 JUMP JUMPDEST SWAP1 POP DUP2 ISZERO DUP1 PUSH2 0x440 JUMPI POP DUP1 ISZERO JUMPDEST ISZERO PUSH2 0x44F JUMPI PUSH1 0x0 SWAP4 POP POP POP POP SWAP1 JUMP JUMPDEST DUP2 PUSH2 0x462 DUP3 PUSH8 0xDE0B6B3A7640000 PUSH2 0xB7D JUMP JUMPDEST PUSH2 0x397 SWAP2 SWAP1 PUSH2 0xB94 JUMP JUMPDEST PUSH1 0x60 PUSH1 0x0 PUSH2 0x478 PUSH2 0x7D7 JUMP JUMPDEST PUSH1 0x9 DUP2 ADD SLOAD SWAP1 SWAP2 POP PUSH8 0xFFFFFFFFFFFFFFFF DUP2 GT ISZERO PUSH2 0x498 JUMPI PUSH2 0x498 PUSH2 0xCC2 JUMP JUMPDEST PUSH1 0x40 MLOAD SWAP1 DUP1 DUP3 MSTORE DUP1 PUSH1 0x20 MUL PUSH1 0x20 ADD DUP3 ADD PUSH1 0x40 MSTORE DUP1 ISZERO PUSH2 0x4FD JUMPI DUP2 PUSH1 0x20 ADD JUMPDEST PUSH2 0x4EA PUSH1 0x40 MLOAD DUP1 PUSH1 0x80 ADD PUSH1 0x40 MSTORE DUP1 PUSH1 0x0 PUSH1 0x1 PUSH1 0x1 PUSH1 0xA0 SHL SUB AND DUP2 MSTORE PUSH1 0x20 ADD PUSH1 0x0 DUP2 MSTORE PUSH1 0x20 ADD PUSH1 0x0 DUP2 MSTORE PUSH1 0x20 ADD PUSH1 0x0 DUP2 MSTORE POP SWAP1 JUMP JUMPDEST DUP2 MSTORE PUSH1 0x20 ADD SWAP1 PUSH1 0x1 SWAP1 SUB SWAP1 DUP2 PUSH2 0x4B6 JUMPI SWAP1 POP JUMPDEST POP SWAP2 POP PUSH1 0x0 DUP1 DUP3 PUSH1 0x9 ADD DUP1 SLOAD DUP1 PUSH1 0x20 MUL PUSH1 0x20 ADD PUSH1 0x40 MLOAD SWAP1 DUP2 ADD PUSH1 0x40 MSTORE DUP1 SWAP3 SWAP2 SWAP1 DUP2 DUP2 MSTORE PUSH1 0x20 ADD DUP3 DUP1 SLOAD DUP1 ISZERO PUSH2 0x55B JUMPI PUSH1 0x20 MUL DUP3 ADD SWAP2 SWAP1 PUSH1 0x0 MSTORE PUSH1 0x20 PUSH1 0x0 KECCAK256 SWAP1 JUMPDEST DUP2 SLOAD PUSH1 0x1 PUSH1 0x1 PUSH1 0xA0 SHL SUB AND DUP2 MSTORE PUSH1 0x1 SWAP1 SWAP2 ADD SWAP1 PUSH1 0x20 ADD DUP1 DUP4 GT PUSH2 0x53D JUMPI JUMPDEST POP POP POP POP POP SWAP1 POP PUSH1 0x0 JUMPDEST DUP2 MLOAD DUP2 LT ISZERO PUSH2 0x659 JUMPI PUSH1 0x0 DUP3 DUP3 DUP2 MLOAD DUP2 LT PUSH2 0x582 JUMPI PUSH2 0x582 PUSH2 0xB25 JUMP JUMPDEST PUSH1 0x20 SWAP1 DUP2 MUL SWAP2 SWAP1 SWAP2 ADD DUP2 ADD MLOAD PUSH1 0x1 PUSH1 0x1 PUSH1 0xA0 SHL SUB DUP2 AND PUSH1 0x0 SWAP1 DUP2 MSTORE PUSH1 0x27 DUP9 ADD SWAP1 SWAP3 MSTORE PUSH1 0x40 DUP3 KECCAK256 SWAP1 SWAP3 POP SWAP1 PUSH2 0x5B5 DUP3 PUSH2 0x7FB JUMP JUMPDEST SWAP1 POP PUSH1 0x0 DUP1 PUSH2 0x5C7 DUP10 DUP7 DUP6 PUSH1 0x0 PUSH2 0x96A JUMP JUMPDEST SWAP2 POP SWAP2 POP PUSH1 0x40 MLOAD DUP1 PUSH1 0x80 ADD PUSH1 0x40 MSTORE DUP1 DUP7 PUSH1 0x1 PUSH1 0x1 PUSH1 0xA0 SHL SUB AND DUP2 MSTORE PUSH1 0x20 ADD DUP3 DUP2 MSTORE PUSH1 0x20 ADD DUP4 DUP2 MSTORE PUSH1 0x20 ADD PUSH9 0x327CB2734119D3B7A9 PUSH1 0x1E SHL PUSH3 0xF4240 DUP7 PUSH2 0x60D SWAP2 SWAP1 PUSH2 0xB7D JUMP JUMPDEST PUSH2 0x617 SWAP2 SWAP1 PUSH2 0xB94 JUMP JUMPDEST DUP2 MSTORE POP DUP11 DUP10 DUP2 MLOAD DUP2 LT PUSH2 0x62C JUMPI PUSH2 0x62C PUSH2 0xB25 JUMP JUMPDEST PUSH1 0x20 MUL PUSH1 0x20 ADD ADD DUP2 SWAP1 MSTORE POP DUP8 PUSH2 0x641 SWAP1 PUSH2 0xB64 JUMP JUMPDEST SWAP8 POP POP POP POP POP POP DUP1 PUSH2 0x652 SWAP1 PUSH2 0xB64 JUMP JUMPDEST SWAP1 POP PUSH2 0x565 JUMP JUMPDEST POP POP POP POP SWAP1 JUMP JUMPDEST PUSH1 0x0 DUP1 PUSH2 0x66B PUSH2 0x7D7 JUMP JUMPDEST SWAP1 POP PUSH1 0x0 PUSH2 0x677 PUSH2 0x39F JUMP JUMPDEST SWAP1 POP PUSH3 0xF4240 PUSH2 0x693 PUSH9 0x327CB2734119D3B7A9 PUSH1 0x1E SHL DUP4 PUSH2 0xB7D JUMP JUMPDEST PUSH2 0x69D SWAP2 SWAP1 PUSH2 0xB94 JUMP JUMPDEST SWAP1 POP PUSH1 0x0 PUSH2 0x6AA DUP7 PUSH2 0x703 JUMP JUMPDEST PUSH1 0x1 PUSH1 0x1 PUSH1 0xA0 SHL SUB DUP8 AND PUSH1 0x0 SWAP1 DUP2 MSTORE PUSH1 0x26 DUP6 ADD PUSH1 0x20 MSTORE PUSH1 0x40 DUP2 KECCAK256 SLOAD SWAP2 SWAP3 POP PUSH1 0xFF SWAP1 SWAP2 AND SWAP1 DUP3 PUSH2 0x6DA DUP4 PUSH1 0xA PUSH2 0xC9A JUMP JUMPDEST PUSH2 0x6E4 SWAP1 DUP7 PUSH2 0xB7D JUMP JUMPDEST PUSH2 0x6EE SWAP2 SWAP1 PUSH2 0xB94 JUMP JUMPDEST SWAP1 POP PUSH8 0xDE0B6B3A7640000 PUSH2 0x30C DUP3 DUP10 PUSH2 0xB7D JUMP JUMPDEST PUSH1 0x0 DUP1 PUSH2 0x70E PUSH2 0x7D7 JUMP JUMPDEST PUSH1 0x1 PUSH1 0x1 PUSH1 0xA0 SHL SUB DUP1 DUP6 AND PUSH1 0x0 SWAP1 DUP2 MSTORE PUSH1 0x27 DUP4 ADD PUSH1 0x20 MSTORE PUSH1 0x40 SWAP1 KECCAK256 DUP1 SLOAD SWAP3 SWAP4 POP SWAP2 AND PUSH2 0x779 JUMPI PUSH1 0x40 MLOAD PUSH3 0x461BCD PUSH1 0xE5 SHL DUP2 MSTORE PUSH1 0x20 PUSH1 0x4 DUP3 ADD MSTORE PUSH1 0x15 PUSH1 0x24 DUP3 ADD MSTORE PUSH21 0x2AB739BAB83837B93A32B2103332B2903A37B5B2B7 PUSH1 0x59 SHL PUSH1 0x44 DUP3 ADD MSTORE PUSH1 0x64 ADD JUMPDEST PUSH1 0x40 MLOAD DUP1 SWAP2 SUB SWAP1 REVERT JUMPDEST PUSH2 0x782 DUP2 PUSH2 0x7FB JUMP JUMPDEST SWAP5 SWAP4 POP POP POP POP JUMP JUMPDEST PUSH1 0x0 DUP1 PUSH2 0x795 PUSH2 0x7D7 JUMP JUMPDEST PUSH1 0x1 PUSH1 0x1 PUSH1 0xA0 SHL SUB DUP6 AND PUSH1 0x0 SWAP1 DUP2 MSTORE PUSH1 0x27 DUP3 ADD PUSH1 0x20 MSTORE PUSH1 0x40 DUP2 KECCAK256 SWAP2 SWAP3 POP PUSH2 0x7BB DUP3 PUSH2 0x7FB JUMP JUMPDEST SWAP1 POP PUSH1 0x0 PUSH2 0x7CB DUP5 DUP9 DUP5 DUP10 PUSH2 0x96A JUMP JUMPDEST POP SWAP8 SWAP7 POP POP POP POP POP POP POP JUMP JUMPDEST PUSH32 0xBFA76EC2967ED7F8D3D40CD552F1451AB03573B596BFCE931A6A016F7733078C SWAP1 JUMP JUMPDEST PUSH1 0x0 DUP1 PUSH1 0x0 DUP4 PUSH1 0x0 ADD PUSH1 0x0 SWAP1 SLOAD SWAP1 PUSH2 0x100 EXP SWAP1 DIV PUSH1 0x1 PUSH1 0x1 PUSH1 0xA0 SHL SUB AND PUSH1 0x1 PUSH1 0x1 PUSH1 0xA0 SHL SUB AND PUSH4 0xFEAF968C PUSH1 0x40 MLOAD DUP2 PUSH4 0xFFFFFFFF AND PUSH1 0xE0 SHL DUP2 MSTORE PUSH1 0x4 ADD PUSH1 0xA0 PUSH1 0x40 MLOAD DUP1 DUP4 SUB DUP2 DUP7 GAS STATICCALL ISZERO DUP1 ISZERO PUSH2 0x855 JUMPI RETURNDATASIZE PUSH1 0x0 DUP1 RETURNDATACOPY RETURNDATASIZE PUSH1 0x0 REVERT JUMPDEST POP POP POP POP PUSH1 0x40 MLOAD RETURNDATASIZE PUSH1 0x1F NOT PUSH1 0x1F DUP3 ADD AND DUP3 ADD DUP1 PUSH1 0x40 MSTORE POP DUP2 ADD SWAP1 PUSH2 0x879 SWAP2 SWAP1 PUSH2 0xCF2 JUMP JUMPDEST POP SWAP4 POP POP SWAP3 POP POP PUSH1 0x0 DUP3 SGT PUSH2 0x8CA JUMPI PUSH1 0x40 MLOAD PUSH3 0x461BCD PUSH1 0xE5 SHL DUP2 MSTORE PUSH1 0x20 PUSH1 0x4 DUP3 ADD MSTORE PUSH1 0x17 PUSH1 0x24 DUP3 ADD MSTORE PUSH23 0x4E6F207072696365206461746120617661696C61626C65 PUSH1 0x48 SHL PUSH1 0x44 DUP3 ADD MSTORE PUSH1 0x64 ADD PUSH2 0x770 JUMP JUMPDEST PUSH1 0x0 PUSH2 0x258 PUSH2 0x8DC PUSH3 0x15180 TIMESTAMP PUSH2 0xD42 JUMP JUMPDEST PUSH2 0x8E6 SWAP2 SWAP1 PUSH2 0xD42 JUMP JUMPDEST SWAP1 POP DUP1 DUP3 GT PUSH2 0x92A JUMPI PUSH1 0x40 MLOAD PUSH3 0x461BCD PUSH1 0xE5 SHL DUP2 MSTORE PUSH1 0x20 PUSH1 0x4 DUP3 ADD MSTORE PUSH1 0x10 PUSH1 0x24 DUP3 ADD MSTORE PUSH16 0x5374616C652070726963652064617461 PUSH1 0x80 SHL PUSH1 0x44 DUP3 ADD MSTORE PUSH1 0x64 ADD PUSH2 0x770 JUMP JUMPDEST DUP5 SLOAD PUSH2 0x941 SWAP1 PUSH1 0x1 PUSH1 0xA0 SHL SWAP1 DIV PUSH1 0xFF AND PUSH1 0xA PUSH2 0xC9A JUMP JUMPDEST PUSH2 0x957 PUSH9 0x327CB2734119D3B7A9 PUSH1 0x1E SHL DUP6 PUSH2 0xB7D JUMP JUMPDEST PUSH2 0x961 SWAP2 SWAP1 PUSH2 0xB94 JUMP JUMPDEST SWAP6 SWAP5 POP POP POP POP POP JUMP JUMPDEST PUSH1 0x0 DUP2 DUP1 DUP3 SUB PUSH2 0x9DF JUMPI PUSH1 0x40 MLOAD PUSH4 0x70A08231 PUSH1 0xE0 SHL DUP2 MSTORE ADDRESS PUSH1 0x4 DUP3 ADD MSTORE PUSH1 0x1 PUSH1 0x1 PUSH1 0xA0 SHL SUB DUP7 AND SWAP1 PUSH4 0x70A08231 SWAP1 PUSH1 0x24 ADD PUSH1 0x20 PUSH1 0x40 MLOAD DUP1 DUP4 SUB DUP2 DUP7 GAS STATICCALL ISZERO DUP1 ISZERO PUSH2 0x9B8 JUMPI RETURNDATASIZE PUSH1 0x0 DUP1 RETURNDATACOPY RETURNDATASIZE PUSH1 0x0 REVERT JUMPDEST POP POP POP POP PUSH1 0x40 MLOAD RETURNDATASIZE PUSH1 0x1F NOT PUSH1 0x1F DUP3 ADD AND DUP3 ADD DUP1 PUSH1 0x40 MSTORE POP DUP2 ADD SWAP1 PUSH2 0x9DC SWAP2 SWAP1 PUSH2 0xCA9 JUMP JUMPDEST SWAP1 POP JUMPDEST PUSH3 0xF4240 PUSH2 0x9ED DUP6 DUP4 PUSH2 0xB7D JUMP JUMPDEST PUSH2 0x9F7 SWAP2 SWAP1 PUSH2 0xB7D JUMP JUMPDEST PUSH1 0x1 PUSH1 0x1 PUSH1 0xA0 SHL SUB DUP7 AND PUSH1 0x0 SWAP1 DUP2 MSTORE PUSH1 0x26 DUP9 ADD PUSH1 0x20 MSTORE PUSH1 0x40 SWAP1 KECCAK256 SLOAD SWAP1 SWAP3 POP PUSH9 0x327CB2734119D3B7A9 PUSH1 0x1E SHL SWAP1 PUSH2 0xA31 SWAP1 PUSH1 0xFF AND PUSH1 0xA PUSH2 0xC9A JUMP JUMPDEST PUSH2 0xA3B SWAP2 SWAP1 PUSH2 0xB7D JUMP JUMPDEST PUSH2 0xA45 SWAP1 DUP4 PUSH2 0xB94 JUMP JUMPDEST SWAP2 POP SWAP5 POP SWAP5 SWAP3 POP POP POP JUMP JUMPDEST DUP1 CALLDATALOAD PUSH1 0x1 PUSH1 0x1 PUSH1 0xA0 SHL SUB DUP2 AND DUP2 EQ PUSH2 0xA67 JUMPI PUSH1 0x0 DUP1 REVERT JUMPDEST SWAP2 SWAP1 POP JUMP JUMPDEST PUSH1 0x0 DUP1 PUSH1 0x40 DUP4 DUP6 SUB SLT ISZERO PUSH2 0xA7F JUMPI PUSH1 0x0 DUP1 REVERT JUMPDEST PUSH2 0xA88 DUP4 PUSH2 0xA50 JUMP JUMPDEST SWAP5 PUSH1 0x20 SWAP4 SWAP1 SWAP4 ADD CALLDATALOAD SWAP4 POP POP POP JUMP JUMPDEST PUSH1 0x20 DUP1 DUP3 MSTORE DUP3 MLOAD DUP3 DUP3 ADD DUP2 SWAP1 MSTORE PUSH1 0x0 SWAP2 SWAP1 PUSH1 0x40 SWAP1 DUP2 DUP6 ADD SWAP1 DUP7 DUP5 ADD DUP6 JUMPDEST DUP3 DUP2 LT ISZERO PUSH2 0xAF6 JUMPI DUP2 MLOAD DUP1 MLOAD PUSH1 0x1 PUSH1 0x1 PUSH1 0xA0 SHL SUB AND DUP6 MSTORE DUP7 DUP2 ADD MLOAD DUP8 DUP7 ADD MSTORE DUP6 DUP2 ADD MLOAD DUP7 DUP7 ADD MSTORE PUSH1 0x60 SWAP1 DUP2 ADD MLOAD SWAP1 DUP6 ADD MSTORE PUSH1 0x80 SWAP1 SWAP4 ADD SWAP3 SWAP1 DUP6 ADD SWAP1 PUSH1 0x1 ADD PUSH2 0xAB3 JUMP JUMPDEST POP SWAP2 SWAP8 SWAP7 POP POP POP POP POP POP POP JUMP JUMPDEST PUSH1 0x0 PUSH1 0x20 DUP3 DUP5 SUB SLT ISZERO PUSH2 0xB15 JUMPI PUSH1 0x0 DUP1 REVERT JUMPDEST PUSH2 0xB1E DUP3 PUSH2 0xA50 JUMP JUMPDEST SWAP4 SWAP3 POP POP POP JUMP JUMPDEST PUSH4 0x4E487B71 PUSH1 0xE0 SHL PUSH1 0x0 MSTORE PUSH1 0x32 PUSH1 0x4 MSTORE PUSH1 0x24 PUSH1 0x0 REVERT JUMPDEST PUSH4 0x4E487B71 PUSH1 0xE0 SHL PUSH1 0x0 MSTORE PUSH1 0x11 PUSH1 0x4 MSTORE PUSH1 0x24 PUSH1 0x0 REVERT JUMPDEST DUP1 DUP3 ADD DUP1 DUP3 GT ISZERO PUSH2 0x31E JUMPI PUSH2 0x31E PUSH2 0xB3B JUMP JUMPDEST PUSH1 0x0 PUSH1 0x1 DUP3 ADD PUSH2 0xB76 JUMPI PUSH2 0xB76 PUSH2 0xB3B JUMP JUMPDEST POP PUSH1 0x1 ADD SWAP1 JUMP JUMPDEST DUP1 DUP3 MUL DUP2 ISZERO DUP3 DUP3 DIV DUP5 EQ OR PUSH2 0x31E JUMPI PUSH2 0x31E PUSH2 0xB3B JUMP JUMPDEST PUSH1 0x0 DUP3 PUSH2 0xBB1 JUMPI PUSH4 0x4E487B71 PUSH1 0xE0 SHL PUSH1 0x0 MSTORE PUSH1 0x12 PUSH1 0x4 MSTORE PUSH1 0x24 PUSH1 0x0 REVERT JUMPDEST POP DIV SWAP1 JUMP JUMPDEST PUSH1 0x1 DUP2 DUP2 JUMPDEST DUP1 DUP6 GT ISZERO PUSH2 0xBF1 JUMPI DUP2 PUSH1 0x0 NOT DIV DUP3 GT ISZERO PUSH2 0xBD7 JUMPI PUSH2 0xBD7 PUSH2 0xB3B JUMP JUMPDEST DUP1 DUP6 AND ISZERO PUSH2 0xBE4 JUMPI SWAP2 DUP2 MUL SWAP2 JUMPDEST SWAP4 DUP5 SHR SWAP4 SWAP1 DUP1 MUL SWAP1 PUSH2 0xBBB JUMP JUMPDEST POP SWAP3 POP SWAP3 SWAP1 POP JUMP JUMPDEST PUSH1 0x0 DUP3 PUSH2 0xC08 JUMPI POP PUSH1 0x1 PUSH2 0x31E JUMP JUMPDEST DUP2 PUSH2 0xC15 JUMPI POP PUSH1 0x0 PUSH2 0x31E JUMP JUMPDEST DUP2 PUSH1 0x1 DUP2 EQ PUSH2 0xC2B JUMPI PUSH1 0x2 DUP2 EQ PUSH2 0xC35 JUMPI PUSH2 0xC51 JUMP JUMPDEST PUSH1 0x1 SWAP2 POP POP PUSH2 0x31E JUMP JUMPDEST PUSH1 0xFF DUP5 GT ISZERO PUSH2 0xC46 JUMPI PUSH2 0xC46 PUSH2 0xB3B JUMP JUMPDEST POP POP PUSH1 0x1 DUP3 SHL PUSH2 0x31E JUMP JUMPDEST POP PUSH1 0x20 DUP4 LT PUSH2 0x133 DUP4 LT AND PUSH1 0x4E DUP5 LT PUSH1 0xB DUP5 LT AND OR ISZERO PUSH2 0xC74 JUMPI POP DUP2 DUP2 EXP PUSH2 0x31E JUMP JUMPDEST PUSH2 0xC7E DUP4 DUP4 PUSH2 0xBB6 JUMP JUMPDEST DUP1 PUSH1 0x0 NOT DIV DUP3 GT ISZERO PUSH2 0xC92 JUMPI PUSH2 0xC92 PUSH2 0xB3B JUMP JUMPDEST MUL SWAP4 SWAP3 POP POP POP JUMP JUMPDEST PUSH1 0x0 PUSH2 0xB1E PUSH1 0xFF DUP5 AND DUP4 PUSH2 0xBF9 JUMP JUMPDEST PUSH1 0x0 PUSH1 0x20 DUP3 DUP5 SUB SLT ISZERO PUSH2 0xCBB JUMPI PUSH1 0x0 DUP1 REVERT JUMPDEST POP MLOAD SWAP2 SWAP1 POP JUMP JUMPDEST PUSH4 0x4E487B71 PUSH1 0xE0 SHL PUSH1 0x0 MSTORE PUSH1 0x41 PUSH1 0x4 MSTORE PUSH1 0x24 PUSH1 0x0 REVERT JUMPDEST DUP1 MLOAD PUSH10 0xFFFFFFFFFFFFFFFFFFFF DUP2 AND DUP2 EQ PUSH2 0xA67 JUMPI PUSH1 0x0 DUP1 REVERT JUMPDEST PUSH1 0x0 DUP1 PUSH1 0x0 DUP1 PUSH1 0x0 PUSH1 0xA0 DUP7 DUP9 SUB SLT ISZERO PUSH2 0xD0A JUMPI PUSH1 0x0 DUP1 REVERT JUMPDEST PUSH2 0xD13 DUP7 PUSH2 0xCD8 JUMP JUMPDEST SWAP5 POP PUSH1 0x20 DUP7 ADD MLOAD SWAP4 POP PUSH1 0x40 DUP7 ADD MLOAD SWAP3 POP PUSH1 0x60 DUP7 ADD MLOAD SWAP2 POP PUSH2 0xD36 PUSH1 0x80 DUP8 ADD PUSH2 0xCD8 JUMP JUMPDEST SWAP1 POP SWAP3 SWAP6 POP SWAP3 SWAP6 SWAP1 SWAP4 POP JUMP JUMPDEST DUP2 DUP2 SUB DUP2 DUP2 GT ISZERO PUSH2 0x31E JUMPI PUSH2 0x31E PUSH2 0xB3B JUMP INVALID LOG2 PUSH5 0x6970667358 0x22 SLT KECCAK256 0xC8 0xEA PUSH19 0x445766B5F0390EEFE48AA05936E4AC3C4D0A56 0xDC POP PUSH17 0xF020159FC48B164736F6C634300081100 CALLER "},"gasEstimates":{"creation":{"codeDepositCost":"693400","executionCost":"728","totalCost":"694128"},"external":{"assets()":"infinite","aumUSD()":"infinite","computeVolumeUSD(address,uint256)":"infinite","convertGasToFeeToken(address,uint256)":"infinite","currentMintRateUSD()":"infinite","currentNavUSD()":"infinite","estimateRedemption(address,uint256)":"infinite","feeTokenPriceUSD(address)":"infinite"},"internal":{"_getPrice(struct VaultStorage.PriceFeed storage pointer)":"infinite","_toUSD(struct VaultStorage.VaultData storage pointer,contract IERC20,uint256,uint256)":"infinite"}},"methodIdentifiers":{"assets()":"71a97305","aumUSD()":"20529bb1","computeVolumeUSD(address,uint256)":"f7406fc3","convertGasToFeeToken(address,uint256)":"3931f45d","currentMintRateUSD()":"41b5774a","currentNavUSD()":"5de11890","estimateRedemption(address,uint256)":"7262f557","feeTokenPriceUSD(address)":"ce25cb4d"}},"storageLayout":{"storage":[],"types":null},"userdoc":{"kind":"user","methods":{},"version":1}}}}