{"contracts/vault/baseContracts/StorageView.sol":{"StorageView":{"abi":[{"inputs":[],"name":"adminMultiSig","outputs":[{"internalType":"address","name":"","type":"address"}],"stateMutability":"view","type":"function"},{"inputs":[],"name":"baseMintThreshold","outputs":[{"internalType":"uint256","name":"","type":"uint256"}],"stateMutability":"view","type":"function"},{"inputs":[],"name":"dailyVolumeUSD","outputs":[{"internalType":"uint256","name":"","type":"uint256"}],"stateMutability":"view","type":"function"},{"inputs":[],"name":"dexible","outputs":[{"internalType":"address","name":"","type":"address"}],"stateMutability":"view","type":"function"},{"inputs":[],"name":"discountBps","outputs":[{"internalType":"uint32","name":"","type":"uint32"}],"stateMutability":"view","type":"function"},{"inputs":[],"name":"dxbl","outputs":[{"internalType":"address","name":"","type":"address"}],"stateMutability":"view","type":"function"},{"inputs":[{"internalType":"address","name":"token","type":"address"}],"name":"isFeeTokenAllowed","outputs":[{"internalType":"bool","name":"","type":"bool"}],"stateMutability":"view","type":"function"},{"inputs":[],"name":"paused","outputs":[{"internalType":"bool","name":"","type":"bool"}],"stateMutability":"view","type":"function"},{"inputs":[],"name":"timelockSeconds","outputs":[{"internalType":"uint32","name":"","type":"uint32"}],"stateMutability":"view","type":"function"},{"inputs":[],"name":"wrappedNativeToken","outputs":[{"internalType":"address","name":"","type":"address"}],"stateMutability":"view","type":"function"}],"devdoc":{"kind":"dev","methods":{},"version":1},"evm":{"bytecode":{"linkReferences":{},"object":"608060405234801561001057600080fd5b50610383806100206000396000f3fe608060405234801561001057600080fd5b506004361061009e5760003560e01c80636162cb91116100665780636162cb911461011157806365a1f3c3146101195780636c1f563314610136578063821314701461013e578063a74aa5661461014657600080fd5b806317fcb39b146100a357806345c6a874146100c857806356168843146100d05780635c975abb146100e65780635d204718146100fe575b600080fd5b6100ab61014e565b6040516001600160a01b0390911681526020015b60405180910390f35b6100ab61016a565b6100d8610188565b6040519081526020016100bf565b6100ee61019b565b60405190151581526020016100bf565b6100ee61010c3660046102f7565b6101ae565b6100ab6101e1565b6101216101fd565b60405163ffffffff90911681526020016100bf565b61012161021d565b6100d86102a4565b6100ab6102b7565b60006101586102d3565b600301546001600160a01b0316919050565b60006101746102d3565b5461010090046001600160a01b0316919050565b60006101926102d3565b60050154905090565b60006101a56102d3565b5460ff16919050565b6000806101b96102d3565b6001600160a01b03938416600090815260279091016020526040902054909216151592915050565b60006101eb6102d3565b600101546001600160a01b0316919050565b60006102076102d3565b60040154600160a01b900463ffffffff16919050565b60006102276102d3565b60010160009054906101000a90046001600160a01b03166001600160a01b031663566826d16040518163ffffffff1660e01b8152600401602060405180830381865afa15801561027b573d6000803e3d6000fd5b505050506040513d601f19601f8201168201806040525081019061029f9190610327565b905090565b60006102ae6102d3565b60060154905090565b60006102c16102d3565b600201546001600160a01b0316919050565b7fbfa76ec2967ed7f8d3d40cd552f1451ab03573b596bfce931a6a016f7733078c90565b60006020828403121561030957600080fd5b81356001600160a01b038116811461032057600080fd5b9392505050565b60006020828403121561033957600080fd5b815163ffffffff8116811461032057600080fdfea2646970667358221220e58fcf8783e20dfbb2aa74679d05a4e4592bc9c2416ee355d0d45b407d0abdbc64736f6c63430008110033","opcodes":"PUSH1 0x80 PUSH1 0x40 MSTORE CALLVALUE DUP1 ISZERO PUSH2 0x10 JUMPI PUSH1 0x0 DUP1 REVERT JUMPDEST POP PUSH2 0x383 DUP1 PUSH2 0x20 PUSH1 0x0 CODECOPY PUSH1 0x0 RETURN INVALID PUSH1 0x80 PUSH1 0x40 MSTORE CALLVALUE DUP1 ISZERO PUSH2 0x10 JUMPI PUSH1 0x0 DUP1 REVERT JUMPDEST POP PUSH1 0x4 CALLDATASIZE LT PUSH2 0x9E JUMPI PUSH1 0x0 CALLDATALOAD PUSH1 0xE0 SHR DUP1 PUSH4 0x6162CB91 GT PUSH2 0x66 JUMPI DUP1 PUSH4 0x6162CB91 EQ PUSH2 0x111 JUMPI DUP1 PUSH4 0x65A1F3C3 EQ PUSH2 0x119 JUMPI DUP1 PUSH4 0x6C1F5633 EQ PUSH2 0x136 JUMPI DUP1 PUSH4 0x82131470 EQ PUSH2 0x13E JUMPI DUP1 PUSH4 0xA74AA566 EQ PUSH2 0x146 JUMPI PUSH1 0x0 DUP1 REVERT JUMPDEST DUP1 PUSH4 0x17FCB39B EQ PUSH2 0xA3 JUMPI DUP1 PUSH4 0x45C6A874 EQ PUSH2 0xC8 JUMPI DUP1 PUSH4 0x56168843 EQ PUSH2 0xD0 JUMPI DUP1 PUSH4 0x5C975ABB EQ PUSH2 0xE6 JUMPI DUP1 PUSH4 0x5D204718 EQ PUSH2 0xFE JUMPI JUMPDEST PUSH1 0x0 DUP1 REVERT JUMPDEST PUSH2 0xAB PUSH2 0x14E JUMP JUMPDEST PUSH1 0x40 MLOAD PUSH1 0x1 PUSH1 0x1 PUSH1 0xA0 SHL SUB SWAP1 SWAP2 AND DUP2 MSTORE PUSH1 0x20 ADD JUMPDEST PUSH1 0x40 MLOAD DUP1 SWAP2 SUB SWAP1 RETURN JUMPDEST PUSH2 0xAB PUSH2 0x16A JUMP JUMPDEST PUSH2 0xD8 PUSH2 0x188 JUMP JUMPDEST PUSH1 0x40 MLOAD SWAP1 DUP2 MSTORE PUSH1 0x20 ADD PUSH2 0xBF JUMP JUMPDEST PUSH2 0xEE PUSH2 0x19B JUMP JUMPDEST PUSH1 0x40 MLOAD SWAP1 ISZERO ISZERO DUP2 MSTORE PUSH1 0x20 ADD PUSH2 0xBF JUMP JUMPDEST PUSH2 0xEE PUSH2 0x10C CALLDATASIZE PUSH1 0x4 PUSH2 0x2F7 JUMP JUMPDEST PUSH2 0x1AE JUMP JUMPDEST PUSH2 0xAB PUSH2 0x1E1 JUMP JUMPDEST PUSH2 0x121 PUSH2 0x1FD JUMP JUMPDEST PUSH1 0x40 MLOAD PUSH4 0xFFFFFFFF SWAP1 SWAP2 AND DUP2 MSTORE PUSH1 0x20 ADD PUSH2 0xBF JUMP JUMPDEST PUSH2 0x121 PUSH2 0x21D JUMP JUMPDEST PUSH2 0xD8 PUSH2 0x2A4 JUMP JUMPDEST PUSH2 0xAB PUSH2 0x2B7 JUMP JUMPDEST PUSH1 0x0 PUSH2 0x158 PUSH2 0x2D3 JUMP JUMPDEST PUSH1 0x3 ADD SLOAD PUSH1 0x1 PUSH1 0x1 PUSH1 0xA0 SHL SUB AND SWAP2 SWAP1 POP JUMP JUMPDEST PUSH1 0x0 PUSH2 0x174 PUSH2 0x2D3 JUMP JUMPDEST SLOAD PUSH2 0x100 SWAP1 DIV PUSH1 0x1 PUSH1 0x1 PUSH1 0xA0 SHL SUB AND SWAP2 SWAP1 POP JUMP JUMPDEST PUSH1 0x0 PUSH2 0x192 PUSH2 0x2D3 JUMP JUMPDEST PUSH1 0x5 ADD SLOAD SWAP1 POP SWAP1 JUMP JUMPDEST PUSH1 0x0 PUSH2 0x1A5 PUSH2 0x2D3 JUMP JUMPDEST SLOAD PUSH1 0xFF AND SWAP2 SWAP1 POP JUMP JUMPDEST PUSH1 0x0 DUP1 PUSH2 0x1B9 PUSH2 0x2D3 JUMP JUMPDEST PUSH1 0x1 PUSH1 0x1 PUSH1 0xA0 SHL SUB SWAP4 DUP5 AND PUSH1 0x0 SWAP1 DUP2 MSTORE PUSH1 0x27 SWAP1 SWAP2 ADD PUSH1 0x20 MSTORE PUSH1 0x40 SWAP1 KECCAK256 SLOAD SWAP1 SWAP3 AND ISZERO ISZERO SWAP3 SWAP2 POP POP JUMP JUMPDEST PUSH1 0x0 PUSH2 0x1EB PUSH2 0x2D3 JUMP JUMPDEST PUSH1 0x1 ADD SLOAD PUSH1 0x1 PUSH1 0x1 PUSH1 0xA0 SHL SUB AND SWAP2 SWAP1 POP JUMP JUMPDEST PUSH1 0x0 PUSH2 0x207 PUSH2 0x2D3 JUMP JUMPDEST PUSH1 0x4 ADD SLOAD PUSH1 0x1 PUSH1 0xA0 SHL SWAP1 DIV PUSH4 0xFFFFFFFF AND SWAP2 SWAP1 POP JUMP JUMPDEST PUSH1 0x0 PUSH2 0x227 PUSH2 0x2D3 JUMP JUMPDEST PUSH1 0x1 ADD PUSH1 0x0 SWAP1 SLOAD SWAP1 PUSH2 0x100 EXP SWAP1 DIV PUSH1 0x1 PUSH1 0x1 PUSH1 0xA0 SHL SUB AND PUSH1 0x1 PUSH1 0x1 PUSH1 0xA0 SHL SUB AND PUSH4 0x566826D1 PUSH1 0x40 MLOAD DUP2 PUSH4 0xFFFFFFFF AND PUSH1 0xE0 SHL DUP2 MSTORE PUSH1 0x4 ADD PUSH1 0x20 PUSH1 0x40 MLOAD DUP1 DUP4 SUB DUP2 DUP7 GAS STATICCALL ISZERO DUP1 ISZERO PUSH2 0x27B JUMPI RETURNDATASIZE PUSH1 0x0 DUP1 RETURNDATACOPY RETURNDATASIZE PUSH1 0x0 REVERT JUMPDEST POP POP POP POP PUSH1 0x40 MLOAD RETURNDATASIZE PUSH1 0x1F NOT PUSH1 0x1F DUP3 ADD AND DUP3 ADD DUP1 PUSH1 0x40 MSTORE POP DUP2 ADD SWAP1 PUSH2 0x29F SWAP2 SWAP1 PUSH2 0x327 JUMP JUMPDEST SWAP1 POP SWAP1 JUMP JUMPDEST PUSH1 0x0 PUSH2 0x2AE PUSH2 0x2D3 JUMP JUMPDEST PUSH1 0x6 ADD SLOAD SWAP1 POP SWAP1 JUMP JUMPDEST PUSH1 0x0 PUSH2 0x2C1 PUSH2 0x2D3 JUMP JUMPDEST PUSH1 0x2 ADD SLOAD PUSH1 0x1 PUSH1 0x1 PUSH1 0xA0 SHL SUB AND SWAP2 SWAP1 POP JUMP JUMPDEST PUSH32 0xBFA76EC2967ED7F8D3D40CD552F1451AB03573B596BFCE931A6A016F7733078C SWAP1 JUMP JUMPDEST PUSH1 0x0 PUSH1 0x20 DUP3 DUP5 SUB SLT ISZERO PUSH2 0x309 JUMPI PUSH1 0x0 DUP1 REVERT JUMPDEST DUP2 CALLDATALOAD PUSH1 0x1 PUSH1 0x1 PUSH1 0xA0 SHL SUB DUP2 AND DUP2 EQ PUSH2 0x320 JUMPI PUSH1 0x0 DUP1 REVERT JUMPDEST SWAP4 SWAP3 POP POP POP JUMP JUMPDEST PUSH1 0x0 PUSH1 0x20 DUP3 DUP5 SUB SLT ISZERO PUSH2 0x339 JUMPI PUSH1 0x0 DUP1 REVERT JUMPDEST DUP2 MLOAD PUSH4 0xFFFFFFFF DUP2 AND DUP2 EQ PUSH2 0x320 JUMPI PUSH1 0x0 DUP1 REVERT INVALID LOG2 PUSH5 0x6970667358 0x22 SLT KECCAK256 0xE5 DUP16 0xCF DUP8 DUP4 0xE2 0xD 0xFB 0xB2 0xAA PUSH21 0x679D05A4E4592BC9C2416EE355D0D45B407D0ABDBC PUSH5 0x736F6C6343 STOP ADDMOD GT STOP CALLER "},"gasEstimates":{"creation":{"codeDepositCost":"179800","executionCost":"226","totalCost":"180026"},"external":{"adminMultiSig()":"2404","baseMintThreshold()":"2393","dailyVolumeUSD()":"2414","dexible()":"2464","discountBps()":"infinite","dxbl()":"2376","isFeeTokenAllowed(address)":"2682","paused()":"2421","timelockSeconds()":"2402","wrappedNativeToken()":"2377"}},"methodIdentifiers":{"adminMultiSig()":"45c6a874","baseMintThreshold()":"56168843","dailyVolumeUSD()":"82131470","dexible()":"a74aa566","discountBps()":"6c1f5633","dxbl()":"6162cb91","isFeeTokenAllowed(address)":"5d204718","paused()":"5c975abb","timelockSeconds()":"65a1f3c3","wrappedNativeToken()":"17fcb39b"}},"storageLayout":{"storage":[],"types":null},"userdoc":{"kind":"user","methods":{},"version":1}}}}