{"contracts/common/LibConstants.sol":{"LibConstants":{"abi":[{"inputs":[],"name":"RELAY","outputs":[{"internalType":"string","name":"","type":"string"}],"stateMutability":"view","type":"function"},{"inputs":[],"name":"ROLE_MGR","outputs":[{"internalType":"string","name":"","type":"string"}],"stateMutability":"view","type":"function"}],"devdoc":{"kind":"dev","methods":{},"version":1},"evm":{"bytecode":{"linkReferences":{},"object":"61012561003a600b82828239805160001a60731461002d57634e487b7160e01b600052600060045260246000fd5b30600052607381538281f3fe7300000000000000000000000000000000000000003014608060405260043610603d5760003560e01c8063423154c91460425780638ac4524f146079575b600080fd5b60656040518060400160405280600581526020016452454c415960d81b81525081565b6040516070919060a3565b60405180910390f35b60656040518060400160405280600c81526020016b2927a622afa6a0a720a3a2a960a11b81525081565b600060208083528351808285015260005b8181101560ce5785810183015185820160400152820160b4565b506000604082860101526040601f19601f830116850101925050509291505056fea26469706673582212204a4dfb039f9bc7802f4f0244c127d34328fd011ca23b7c07338205dc905c213e64736f6c63430008110033","opcodes":"PUSH2 0x125 PUSH2 0x3A PUSH1 0xB DUP3 DUP3 DUP3 CODECOPY DUP1 MLOAD PUSH1 0x0 BYTE PUSH1 0x73 EQ PUSH2 0x2D JUMPI PUSH4 0x4E487B71 PUSH1 0xE0 SHL PUSH1 0x0 MSTORE PUSH1 0x0 PUSH1 0x4 MSTORE PUSH1 0x24 PUSH1 0x0 REVERT JUMPDEST ADDRESS PUSH1 0x0 MSTORE PUSH1 0x73 DUP2 MSTORE8 DUP3 DUP2 RETURN INVALID PUSH20 0x0 ADDRESS EQ PUSH1 0x80 PUSH1 0x40 MSTORE PUSH1 0x4 CALLDATASIZE LT PUSH1 0x3D JUMPI PUSH1 0x0 CALLDATALOAD PUSH1 0xE0 SHR DUP1 PUSH4 0x423154C9 EQ PUSH1 0x42 JUMPI DUP1 PUSH4 0x8AC4524F EQ PUSH1 0x79 JUMPI JUMPDEST PUSH1 0x0 DUP1 REVERT JUMPDEST PUSH1 0x65 PUSH1 0x40 MLOAD DUP1 PUSH1 0x40 ADD PUSH1 0x40 MSTORE DUP1 PUSH1 0x5 DUP2 MSTORE PUSH1 0x20 ADD PUSH5 0x52454C4159 PUSH1 0xD8 SHL DUP2 MSTORE POP DUP2 JUMP JUMPDEST PUSH1 0x40 MLOAD PUSH1 0x70 SWAP2 SWAP1 PUSH1 0xA3 JUMP JUMPDEST PUSH1 0x40 MLOAD DUP1 SWAP2 SUB SWAP1 RETURN JUMPDEST PUSH1 0x65 PUSH1 0x40 MLOAD DUP1 PUSH1 0x40 ADD PUSH1 0x40 MSTORE DUP1 PUSH1 0xC DUP2 MSTORE PUSH1 0x20 ADD PUSH12 0x2927A622AFA6A0A720A3A2A9 PUSH1 0xA1 SHL DUP2 MSTORE POP DUP2 JUMP JUMPDEST PUSH1 0x0 PUSH1 0x20 DUP1 DUP4 MSTORE DUP4 MLOAD DUP1 DUP3 DUP6 ADD MSTORE PUSH1 0x0 JUMPDEST DUP2 DUP2 LT ISZERO PUSH1 0xCE JUMPI DUP6 DUP2 ADD DUP4 ADD MLOAD DUP6 DUP3 ADD PUSH1 0x40 ADD MSTORE DUP3 ADD PUSH1 0xB4 JUMP JUMPDEST POP PUSH1 0x0 PUSH1 0x40 DUP3 DUP7 ADD ADD MSTORE PUSH1 0x40 PUSH1 0x1F NOT PUSH1 0x1F DUP4 ADD AND DUP6 ADD ADD SWAP3 POP POP POP SWAP3 SWAP2 POP POP JUMP INVALID LOG2 PUSH5 0x6970667358 0x22 SLT KECCAK256 0x4A 0x4D 0xFB SUB SWAP16 SWAP12 0xC7 DUP1 0x2F 0x4F MUL DIFFICULTY 0xC1 0x27 0xD3 NUMBER 0x28 REVERT ADD SHR LOG2 EXTCODESIZE PUSH29 0x7338205DC905C213E64736F6C63430008110033000000000000000000 "},"gasEstimates":{"creation":{"codeDepositCost":"58600","executionCost":"142","totalCost":"58742"},"external":{"RELAY()":"infinite","ROLE_MGR()":"infinite"}},"methodIdentifiers":{"RELAY()":"423154c9","ROLE_MGR()":"8ac4524f"}},"storageLayout":{"storage":[],"types":null},"userdoc":{"kind":"user","methods":{},"notice":"Constant values used elsewhere","version":1}}}}