{"contracts/dexible/oracle/ArbitrumGasOracle.sol":{"ArbitrumGasOracle":{"abi":[{"inputs":[{"internalType":"uint256","name":"m","type":"uint256"}],"stateMutability":"nonpayable","type":"constructor"},{"anonymous":false,"inputs":[{"indexed":false,"internalType":"uint256","name":"multiplier","type":"uint256"}],"name":"MultiplierChanged","type":"event"},{"inputs":[{"internalType":"uint256","name":"callDataSize","type":"uint256"},{"internalType":"uint256","name":"l2GasUsed","type":"uint256"}],"name":"calculateGasCost","outputs":[{"internalType":"uint256","name":"","type":"uint256"}],"stateMutability":"view","type":"function"},{"inputs":[{"internalType":"uint256","name":"m","type":"uint256"}],"name":"setMultiplier","outputs":[],"stateMutability":"nonpayable","type":"function"}],"devdoc":{"kind":"dev","methods":{},"version":1},"evm":{"bytecode":{"linkReferences":{},"object":"608060405234801561001057600080fd5b5060405161034238038061034283398101604081905261002f91610049565b600080546001600160a01b03191633179055600155610062565b60006020828403121561005b57600080fd5b5051919050565b6102d1806100716000396000f3fe608060405234801561001057600080fd5b50600436106100365760003560e01c8063641579a61461003b578063852b66a514610050575b600080fd5b61004e6100493660046101b4565b610075565b005b61006361005e3660046101cd565b6100fd565b60405190815260200160405180910390f35b6000546001600160a01b031633146100c25760405162461bcd60e51b815260206004820152600c60248201526b155b985d5d1a1bdc9a5e995960a21b604482015260640160405180910390fd5b60018190556040518181527f0e17105029b990538e803a7a35f7c4fb0df74fcf27a15b12c46d0c6a59f827609060200160405180910390a150565b600080606c6001600160a01b03166341b247a86040518163ffffffff1660e01b815260040160c060405180830381865afa15801561013f573d6000803e3d6000fd5b505050506040513d601f19601f8201168201806040525081019061016391906101ef565b50505050915050670de0b6b3a76400008482600154610182919061024f565b61018c919061024f565b6101969190610266565b6101a03a8561024f565b6101aa9190610288565b9150505b92915050565b6000602082840312156101c657600080fd5b5035919050565b600080604083850312156101e057600080fd5b50508035926020909101359150565b60008060008060008060c0878903121561020857600080fd5b865195506020870151945060408701519350606087015192506080870151915060a087015190509295509295509295565b634e487b7160e01b600052601160045260246000fd5b80820281158282048414176101ae576101ae610239565b60008261028357634e487b7160e01b600052601260045260246000fd5b500490565b808201808211156101ae576101ae61023956fea26469706673582212200d49f13ed0ca297ea5d98d805aa25b861e81e9852eb928804fd7d4c787fee61364736f6c63430008110033","opcodes":"PUSH1 0x80 PUSH1 0x40 MSTORE CALLVALUE DUP1 ISZERO PUSH2 0x10 JUMPI PUSH1 0x0 DUP1 REVERT JUMPDEST POP PUSH1 0x40 MLOAD PUSH2 0x342 CODESIZE SUB DUP1 PUSH2 0x342 DUP4 CODECOPY DUP2 ADD PUSH1 0x40 DUP2 SWAP1 MSTORE PUSH2 0x2F SWAP2 PUSH2 0x49 JUMP JUMPDEST PUSH1 0x0 DUP1 SLOAD PUSH1 0x1 PUSH1 0x1 PUSH1 0xA0 SHL SUB NOT AND CALLER OR SWAP1 SSTORE PUSH1 0x1 SSTORE PUSH2 0x62 JUMP JUMPDEST PUSH1 0x0 PUSH1 0x20 DUP3 DUP5 SUB SLT ISZERO PUSH2 0x5B JUMPI PUSH1 0x0 DUP1 REVERT JUMPDEST POP MLOAD SWAP2 SWAP1 POP JUMP JUMPDEST PUSH2 0x2D1 DUP1 PUSH2 0x71 PUSH1 0x0 CODECOPY PUSH1 0x0 RETURN INVALID PUSH1 0x80 PUSH1 0x40 MSTORE CALLVALUE DUP1 ISZERO PUSH2 0x10 JUMPI PUSH1 0x0 DUP1 REVERT JUMPDEST POP PUSH1 0x4 CALLDATASIZE LT PUSH2 0x36 JUMPI PUSH1 0x0 CALLDATALOAD PUSH1 0xE0 SHR DUP1 PUSH4 0x641579A6 EQ PUSH2 0x3B JUMPI DUP1 PUSH4 0x852B66A5 EQ PUSH2 0x50 JUMPI JUMPDEST PUSH1 0x0 DUP1 REVERT JUMPDEST PUSH2 0x4E PUSH2 0x49 CALLDATASIZE PUSH1 0x4 PUSH2 0x1B4 JUMP JUMPDEST PUSH2 0x75 JUMP JUMPDEST STOP JUMPDEST PUSH2 0x63 PUSH2 0x5E CALLDATASIZE PUSH1 0x4 PUSH2 0x1CD JUMP JUMPDEST PUSH2 0xFD JUMP JUMPDEST PUSH1 0x40 MLOAD SWAP1 DUP2 MSTORE PUSH1 0x20 ADD PUSH1 0x40 MLOAD DUP1 SWAP2 SUB SWAP1 RETURN JUMPDEST PUSH1 0x0 SLOAD PUSH1 0x1 PUSH1 0x1 PUSH1 0xA0 SHL SUB AND CALLER EQ PUSH2 0xC2 JUMPI PUSH1 0x40 MLOAD PUSH3 0x461BCD PUSH1 0xE5 SHL DUP2 MSTORE PUSH1 0x20 PUSH1 0x4 DUP3 ADD MSTORE PUSH1 0xC PUSH1 0x24 DUP3 ADD MSTORE PUSH12 0x155B985D5D1A1BDC9A5E9959 PUSH1 0xA2 SHL PUSH1 0x44 DUP3 ADD MSTORE PUSH1 0x64 ADD PUSH1 0x40 MLOAD DUP1 SWAP2 SUB SWAP1 REVERT JUMPDEST PUSH1 0x1 DUP2 SWAP1 SSTORE PUSH1 0x40 MLOAD DUP2 DUP2 MSTORE PUSH32 0xE17105029B990538E803A7A35F7C4FB0DF74FCF27A15B12C46D0C6A59F82760 SWAP1 PUSH1 0x20 ADD PUSH1 0x40 MLOAD DUP1 SWAP2 SUB SWAP1 LOG1 POP JUMP JUMPDEST PUSH1 0x0 DUP1 PUSH1 0x6C PUSH1 0x1 PUSH1 0x1 PUSH1 0xA0 SHL SUB AND PUSH4 0x41B247A8 PUSH1 0x40 MLOAD DUP2 PUSH4 0xFFFFFFFF AND PUSH1 0xE0 SHL DUP2 MSTORE PUSH1 0x4 ADD PUSH1 0xC0 PUSH1 0x40 MLOAD DUP1 DUP4 SUB DUP2 DUP7 GAS STATICCALL ISZERO DUP1 ISZERO PUSH2 0x13F JUMPI RETURNDATASIZE PUSH1 0x0 DUP1 RETURNDATACOPY RETURNDATASIZE PUSH1 0x0 REVERT JUMPDEST POP POP POP POP PUSH1 0x40 MLOAD RETURNDATASIZE PUSH1 0x1F NOT PUSH1 0x1F DUP3 ADD AND DUP3 ADD DUP1 PUSH1 0x40 MSTORE POP DUP2 ADD SWAP1 PUSH2 0x163 SWAP2 SWAP1 PUSH2 0x1EF JUMP JUMPDEST POP POP POP POP SWAP2 POP POP PUSH8 0xDE0B6B3A7640000 DUP5 DUP3 PUSH1 0x1 SLOAD PUSH2 0x182 SWAP2 SWAP1 PUSH2 0x24F JUMP JUMPDEST PUSH2 0x18C SWAP2 SWAP1 PUSH2 0x24F JUMP JUMPDEST PUSH2 0x196 SWAP2 SWAP1 PUSH2 0x266 JUMP JUMPDEST PUSH2 0x1A0 GASPRICE DUP6 PUSH2 0x24F JUMP JUMPDEST PUSH2 0x1AA SWAP2 SWAP1 PUSH2 0x288 JUMP JUMPDEST SWAP2 POP POP JUMPDEST SWAP3 SWAP2 POP POP JUMP JUMPDEST PUSH1 0x0 PUSH1 0x20 DUP3 DUP5 SUB SLT ISZERO PUSH2 0x1C6 JUMPI PUSH1 0x0 DUP1 REVERT JUMPDEST POP CALLDATALOAD SWAP2 SWAP1 POP JUMP JUMPDEST PUSH1 0x0 DUP1 PUSH1 0x40 DUP4 DUP6 SUB SLT ISZERO PUSH2 0x1E0 JUMPI PUSH1 0x0 DUP1 REVERT JUMPDEST POP POP DUP1 CALLDATALOAD SWAP3 PUSH1 0x20 SWAP1 SWAP2 ADD CALLDATALOAD SWAP2 POP JUMP JUMPDEST PUSH1 0x0 DUP1 PUSH1 0x0 DUP1 PUSH1 0x0 DUP1 PUSH1 0xC0 DUP8 DUP10 SUB SLT ISZERO PUSH2 0x208 JUMPI PUSH1 0x0 DUP1 REVERT JUMPDEST DUP7 MLOAD SWAP6 POP PUSH1 0x20 DUP8 ADD MLOAD SWAP5 POP PUSH1 0x40 DUP8 ADD MLOAD SWAP4 POP PUSH1 0x60 DUP8 ADD MLOAD SWAP3 POP PUSH1 0x80 DUP8 ADD MLOAD SWAP2 POP PUSH1 0xA0 DUP8 ADD MLOAD SWAP1 POP SWAP3 SWAP6 POP SWAP3 SWAP6 POP SWAP3 SWAP6 JUMP JUMPDEST PUSH4 0x4E487B71 PUSH1 0xE0 SHL PUSH1 0x0 MSTORE PUSH1 0x11 PUSH1 0x4 MSTORE PUSH1 0x24 PUSH1 0x0 REVERT JUMPDEST DUP1 DUP3 MUL DUP2 ISZERO DUP3 DUP3 DIV DUP5 EQ OR PUSH2 0x1AE JUMPI PUSH2 0x1AE PUSH2 0x239 JUMP JUMPDEST PUSH1 0x0 DUP3 PUSH2 0x283 JUMPI PUSH4 0x4E487B71 PUSH1 0xE0 SHL PUSH1 0x0 MSTORE PUSH1 0x12 PUSH1 0x4 MSTORE PUSH1 0x24 PUSH1 0x0 REVERT JUMPDEST POP DIV SWAP1 JUMP JUMPDEST DUP1 DUP3 ADD DUP1 DUP3 GT ISZERO PUSH2 0x1AE JUMPI PUSH2 0x1AE PUSH2 0x239 JUMP INVALID LOG2 PUSH5 0x6970667358 0x22 SLT KECCAK256 0xD 0x49 CALL RETURNDATACOPY 0xD0 0xCA 0x29 PUSH31 0xA5D98D805AA25B861E81E9852EB928804FD7D4C787FEE61364736F6C634300 ADDMOD GT STOP CALLER "},"gasEstimates":{"creation":{"codeDepositCost":"144200","executionCost":"infinite","totalCost":"infinite"},"external":{"calculateGasCost(uint256,uint256)":"infinite","setMultiplier(uint256)":"25507"}},"methodIdentifiers":{"calculateGasCost(uint256,uint256)":"852b66a5","setMultiplier(uint256)":"641579a6"}},"storageLayout":{"storage":[{"astId":16,"contract":"contracts/dexible/oracle/ArbitrumGasOracle.sol:ArbitrumGasOracle","label":"admin","offset":0,"slot":"0","type":"t_address"},{"astId":18,"contract":"contracts/dexible/oracle/ArbitrumGasOracle.sol:ArbitrumGasOracle","label":"multiplier","offset":0,"slot":"1","type":"t_uint256"}],"types":{"t_address":{"encoding":"inplace","label":"address","numberOfBytes":"20"},"t_uint256":{"encoding":"inplace","label":"uint256","numberOfBytes":"32"}}},"userdoc":{"kind":"user","methods":{"calculateGasCost(uint256,uint256)":{"notice":"Calculate the gas cost for an arbitrum txn. This is needed for contracts that  compute gas costs using gasleft() calls in solidity. The Arbitrum nodes do not accurately reflect actual gas used yet. So given the mis-calculated gasused and call data size this function will apply a multipler to the L1 gas fee to compute the estimated gas  cost for the txn."}},"version":1}}}}