{"contracts/vault/CommunityVault.sol":{"CommunityVault":{"abi":[{"anonymous":false,"inputs":[{"indexed":false,"internalType":"uint256","name":"newVolume","type":"uint256"}],"name":"AppliedVolumeGoal","type":"event"},{"anonymous":false,"inputs":[{"indexed":false,"internalType":"uint32","name":"stdRate","type":"uint32"},{"indexed":false,"internalType":"uint32","name":"minRate","type":"uint32"}],"name":"BpsChanged","type":"event"},{"anonymous":false,"inputs":[{"indexed":false,"internalType":"address","name":"holder","type":"address"},{"indexed":false,"internalType":"uint256","name":"dxblAmount","type":"uint256"},{"indexed":false,"internalType":"address","name":"rewardToken","type":"address"},{"indexed":false,"internalType":"uint256","name":"rewardAmount","type":"uint256"}],"name":"DXBLRedeemed","type":"event"},{"anonymous":false,"inputs":[{"indexed":false,"internalType":"uint32","name":"newRate","type":"uint32"}],"name":"DiscountChanged","type":"event"},{"anonymous":false,"inputs":[{"indexed":true,"internalType":"address","name":"token","type":"address"},{"indexed":true,"internalType":"address","name":"priceFeed","type":"address"}],"name":"FeeTokenAdded","type":"event"},{"anonymous":false,"inputs":[{"indexed":true,"internalType":"address","name":"token","type":"address"}],"name":"FeeTokenRemoved","type":"event"},{"anonymous":false,"inputs":[{"indexed":false,"internalType":"uint16","name":"minThreshold","type":"uint16"},{"indexed":false,"internalType":"uint16","name":"maxThreshold","type":"uint16"},{"indexed":false,"internalType":"uint256","name":"percentage","type":"uint256"}],"name":"MintRateChange","type":"event"},{"anonymous":false,"inputs":[{"indexed":false,"internalType":"uint32","name":"oldStdRate","type":"uint32"},{"indexed":false,"internalType":"uint32","name":"newStdRate","type":"uint32"},{"indexed":false,"internalType":"uint32","name":"oldMinRate","type":"uint32"},{"indexed":false,"internalType":"uint32","name":"newMinRate","type":"uint32"},{"indexed":false,"internalType":"uint256","name":"allowedAfterTime","type":"uint256"}],"name":"ProposedBpsChange","type":"event"},{"anonymous":false,"inputs":[{"indexed":false,"internalType":"uint32","name":"oldRate","type":"uint32"},{"indexed":false,"internalType":"uint32","name":"newRate","type":"uint32"},{"indexed":false,"internalType":"uint256","name":"allowedAfterTime","type":"uint256"}],"name":"ProposedDiscountChange","type":"event"},{"anonymous":false,"inputs":[{"indexed":true,"internalType":"address","name":"token","type":"address"},{"indexed":true,"internalType":"address","name":"priceFeed","type":"address"},{"indexed":false,"internalType":"bool","name":"removal","type":"bool"},{"indexed":false,"internalType":"uint256","name":"allowedAfterTime","type":"uint256"}],"name":"ProposedFeeToken","type":"event"},{"anonymous":false,"inputs":[{"indexed":false,"internalType":"uint16","name":"minThreshold","type":"uint16"},{"indexed":false,"internalType":"uint16","name":"maxThreshold","type":"uint16"},{"indexed":false,"internalType":"uint256","name":"percentage","type":"uint256"},{"indexed":false,"internalType":"uint256","name":"allowedAfterTime","type":"uint256"}],"name":"ProposedMintRateChange","type":"event"},{"anonymous":false,"inputs":[{"indexed":false,"internalType":"uint256","name":"oldVolume","type":"uint256"},{"indexed":false,"internalType":"uint256","name":"newVolume","type":"uint256"},{"indexed":false,"internalType":"uint256","name":"allowedAfterTime","type":"uint256"}],"name":"ProposedVolumeGoal","type":"event"},{"inputs":[],"name":"adminMultiSig","outputs":[{"internalType":"address","name":"","type":"address"}],"stateMutability":"view","type":"function"},{"inputs":[],"name":"assets","outputs":[{"components":[{"internalType":"address","name":"token","type":"address"},{"internalType":"uint256","name":"balance","type":"uint256"},{"internalType":"uint256","name":"usdValue","type":"uint256"},{"internalType":"uint256","name":"usdPrice","type":"uint256"}],"internalType":"struct IComputationalView.AssetInfo[]","name":"tokens","type":"tuple[]"}],"stateMutability":"view","type":"function"},{"inputs":[],"name":"aumUSD","outputs":[{"internalType":"uint256","name":"usd","type":"uint256"}],"stateMutability":"view","type":"function"},{"inputs":[],"name":"baseMintThreshold","outputs":[{"internalType":"uint256","name":"","type":"uint256"}],"stateMutability":"view","type":"function"},{"inputs":[{"internalType":"address","name":"feeToken","type":"address"},{"internalType":"uint256","name":"amount","type":"uint256"}],"name":"computeVolumeUSD","outputs":[{"internalType":"uint256","name":"volumeUSD","type":"uint256"}],"stateMutability":"view","type":"function"},{"inputs":[{"internalType":"address","name":"feeToken","type":"address"},{"internalType":"uint256","name":"gasCost","type":"uint256"}],"name":"convertGasToFeeToken","outputs":[{"internalType":"uint256","name":"","type":"uint256"}],"stateMutability":"view","type":"function"},{"inputs":[],"name":"currentMintRateUSD","outputs":[{"internalType":"uint256","name":"rate","type":"uint256"}],"stateMutability":"view","type":"function"},{"inputs":[],"name":"currentNavUSD","outputs":[{"internalType":"uint256","name":"nav","type":"uint256"}],"stateMutability":"view","type":"function"},{"inputs":[],"name":"dailyVolumeUSD","outputs":[{"internalType":"uint256","name":"","type":"uint256"}],"stateMutability":"view","type":"function"},{"inputs":[],"name":"dexible","outputs":[{"internalType":"address","name":"","type":"address"}],"stateMutability":"view","type":"function"},{"inputs":[],"name":"discountBps","outputs":[{"internalType":"uint32","name":"","type":"uint32"}],"stateMutability":"view","type":"function"},{"inputs":[],"name":"dxbl","outputs":[{"internalType":"address","name":"","type":"address"}],"stateMutability":"view","type":"function"},{"inputs":[{"internalType":"address","name":"rewardToken","type":"address"},{"internalType":"uint256","name":"dxblAmount","type":"uint256"}],"name":"estimateRedemption","outputs":[{"internalType":"uint256","name":"","type":"uint256"}],"stateMutability":"view","type":"function"},{"inputs":[{"internalType":"address","name":"feeToken","type":"address"}],"name":"feeTokenPriceUSD","outputs":[{"internalType":"uint256","name":"","type":"uint256"}],"stateMutability":"view","type":"function"},{"inputs":[{"internalType":"address","name":"token","type":"address"}],"name":"isFeeTokenAllowed","outputs":[{"internalType":"bool","name":"","type":"bool"}],"stateMutability":"view","type":"function"},{"inputs":[{"internalType":"contract V1MigrationTarget","name":"target","type":"address"}],"name":"migrateV1","outputs":[],"stateMutability":"nonpayable","type":"function"},{"inputs":[],"name":"pause","outputs":[],"stateMutability":"nonpayable","type":"function"},{"inputs":[],"name":"paused","outputs":[{"internalType":"bool","name":"","type":"bool"}],"stateMutability":"view","type":"function"},{"inputs":[{"internalType":"address","name":"rewardToken","type":"address"},{"internalType":"uint256","name":"dxblAmount","type":"uint256"},{"internalType":"uint256","name":"minOutAmount","type":"uint256"}],"name":"redeemDXBL","outputs":[],"stateMutability":"nonpayable","type":"function"},{"inputs":[],"name":"resume","outputs":[],"stateMutability":"nonpayable","type":"function"},{"inputs":[{"internalType":"address","name":"trader","type":"address"},{"internalType":"address","name":"feeToken","type":"address"},{"internalType":"uint256","name":"amount","type":"uint256"}],"name":"rewardTrader","outputs":[],"stateMutability":"nonpayable","type":"function"},{"inputs":[],"name":"timelockSeconds","outputs":[{"internalType":"uint32","name":"","type":"uint32"}],"stateMutability":"view","type":"function"},{"inputs":[],"name":"wrappedNativeToken","outputs":[{"internalType":"address","name":"","type":"address"}],"stateMutability":"view","type":"function"}],"devdoc":{"kind":"dev","methods":{},"version":1},"evm":{"bytecode":{"linkReferences":{},"object":"608060405234801561001057600080fd5b50611e3d806100206000396000f3fe608060405234801561001057600080fd5b506004361061014d5760003560e01c80636162cb91116100c35780638456cb591161007c5780638456cb591461025e578063a74aa56614610266578063ab1094c01461026e578063c76380b714610281578063ce25cb4d14610292578063f7406fc3146102a557600080fd5b80636162cb911461020157806365a1f3c3146102095780636c1f56331461022657806371a973051461022e5780637262f55714610243578063821314701461025657600080fd5b806341b5774a1161011557806341b5774a146101b657806345c6a874146101be57806356168843146101c65780635c975abb146101ce5780635d204718146101e65780635de11890146101f957600080fd5b8063046f7da21461015257806317fcb39b1461015c57806318ac3b151461017a57806320529bb11461018d5780633931f45d146101a3575b600080fd5b61015a6102b8565b005b610164610312565b6040516101719190611967565b60405180910390f35b61015a610188366004611990565b61032e565b6101956105e6565b604051908152602001610171565b6101956101b13660046119c5565b6106e2565b610195610801565b61016461087c565b61019561089a565b6101d66108ad565b6040519015158152602001610171565b6101d66101f43660046119f1565b6108c0565b6101956108f3565b6101646109c0565b6102116109dc565b60405163ffffffff9091168152602001610171565b6102116109fc565b610236610a83565b6040516101719190611a0e565b6101956102513660046119c5565b610c77565b610195610d1a565b61015a610d2d565b610164610d81565b61015a61027c366004611a7b565b610d9d565b61015a61028f3660046119f1565b50565b6101956102a03660046119f1565b610f4d565b6101956102b33660046119c5565b610fcf565b60006102c261101c565b805490915061010090046001600160a01b031633146102fc5760405162461bcd60e51b81526004016102f390611abc565b60405180910390fd5b600061030661101c565b805460ff191690555050565b600061031c61101c565b600301546001600160a01b0316919050565b600061033861101c565b60018101546040516370a0823160e01b81529192506000916001600160a01b03909116906370a0823190610370903390600401611967565b602060405180830381865afa15801561038d573d6000803e3d6000fd5b505050506040513d601f19601f820116820180604052508101906103b19190611ae2565b90508381101561040f5760405162461bcd60e51b815260206004820152602360248201527f496e73756666696369656e74204458424c2062616c616e636520746f2072656460448201526265656d60e81b60648201526084016102f3565b600061041b8686610c77565b90506000866001600160a01b03166370a08231306040518263ffffffff1660e01b815260040161044b9190611967565b602060405180830381865afa158015610468573d6000803e3d6000fd5b505050506040513d601f19601f8201168201806040525081019061048c9190611ae2565b905080821115610513578481106104a557809150610513565b60405162461bcd60e51b815260206004820152603e60248201527f496e73756666696369656e742061737365742062616c616e636520746f20707260448201527f6f6475636520657870656374656420776974686472617720616d6f756e74000060648201526084016102f3565b6105276001600160a01b0388163384611040565b6001840154604051632770a7eb60e21b81526001600160a01b0390911690639dc29fac9061055b9033908a90600401611afb565b600060405180830381600087803b15801561057557600080fd5b505af1158015610589573d6000803e3d6000fd5b505060408051338152602081018a90526001600160a01b038b16818301526060810186905290517f5fe85dc899e158274a44abab0e6df5434416f0ce11df30d42e02f229b8fc8a419350908190036080019150a150505050505050565b6000806105f161101c565b905060008160080180548060200260200160405190810160405280929190818152602001828054801561064d57602002820191906000526020600020905b81546001600160a01b0316815260019091019060200180831161062f575b5050505050905060005b81518110156106dc57600082828151811061067457610674611b14565b6020908102919091018101516001600160a01b03811660009081526026870190925260408220909250906106a78261109b565b905060006106b8878584600061120a565b5090506106c58189611b40565b975050505050806106d590611b53565b9050610657565b50505090565b6000806106ed61101c565b60038101549091506001600160a01b039081169085160361071157829150506107fb565b60038101546001600160a01b0316600090815260268201602052604081206107389061109b565b6001600160a01b038616600090815260268401602052604081209192509061075f9061109b565b905060008161077a68327cb2734119d3b7a9601e1b85611b6c565b6107849190611b99565b9050600068327cb2734119d3b7a9601e1b61079f8884611b6c565b6107a99190611b99565b6001600160a01b0389166000908152602587016020526040902054909150670de0b6b3a7640000906107df9060ff16600a611c91565b6107e99083611b6c565b6107f39190611b99565b955050505050505b92915050565b60008061080c61101c565b9050600064e8d4a5100082600501546108259190611b99565b905060008161ffff1683600901600101546108409190611b6c565b9050670de0b6b3a764000081846004015461085b9190611b6c565b6108659190611b99565b83600401546108749190611b40565b935050505090565b600061088661101c565b5461010090046001600160a01b0316919050565b60006108a461101c565b60040154905090565b60006108b761101c565b5460ff16919050565b6000806108cb61101c565b6001600160a01b03938416600090815260269091016020526040902054909216151592915050565b6000806108fe61101c565b905060008160010160009054906101000a90046001600160a01b03166001600160a01b03166318160ddd6040518163ffffffff1660e01b8152600401602060405180830381865afa158015610957573d6000803e3d6000fd5b505050506040513d601f19601f8201168201806040525081019061097b9190611ae2565b905060006109876105e6565b9050811580610994575080155b156109a3576000935050505090565b816109b682670de0b6b3a7640000611b6c565b6108749190611b99565b60006109ca61101c565b600101546001600160a01b0316919050565b60006109e661101c565b60030154600160a01b900463ffffffff16919050565b6000610a0661101c565b60010160009054906101000a90046001600160a01b03166001600160a01b031663566826d16040518163ffffffff1660e01b8152600401602060405180830381865afa158015610a5a573d6000803e3d6000fd5b505050506040513d601f19601f82011682018060405250810190610a7e9190611ca0565b905090565b60606000610a8f61101c565b600881015490915067ffffffffffffffff811115610aaf57610aaf611cc6565b604051908082528060200260200182016040528015610b1457816020015b610b01604051806080016040528060006001600160a01b031681526020016000815260200160008152602001600081525090565b815260200190600190039081610acd5790505b50915060008082600801805480602002602001604051908101604052809291908181526020018280548015610b7257602002820191906000526020600020905b81546001600160a01b03168152600190910190602001808311610b54575b5050505050905060005b8151811015610c70576000828281518110610b9957610b99611b14565b6020908102919091018101516001600160a01b0381166000908152602688019092526040822090925090610bcc8261109b565b9050600080610bde898685600061120a565b915091506040518060800160405280866001600160a01b0316815260200182815260200183815260200168327cb2734119d3b7a9601e1b620f424086610c249190611b6c565b610c2e9190611b99565b8152508a8981518110610c4357610c43611b14565b602002602001018190525087610c5890611b53565b9750505050505080610c6990611b53565b9050610b7c565b5050505090565b600080610c8261101c565b90506000610c8e6108f3565b9050620f4240610caa68327cb2734119d3b7a9601e1b83611b6c565b610cb49190611b99565b90506000610cc186610f4d565b6001600160a01b038716600090815260258501602052604081205491925060ff9091169082610cf183600a611c91565b610cfb9086611b6c565b610d059190611b99565b9050670de0b6b3a76400006107e98289611b6c565b6000610d2461101c565b60050154905090565b6000610d3761101c565b805490915061010090046001600160a01b03163314610d685760405162461bcd60e51b81526004016102f390611abc565b6000610d7261101c565b805460ff191660011790555050565b6000610d8b61101c565b600201546001600160a01b0316919050565b6000610da761101c565b60028101549091506001600160a01b03163314610dd65760405162461bcd60e51b81526004016102f390611abc565b6000610de061101c565b60405163f7406fc360e01b8152909150600090309063f7406fc390610e0b9088908890600401611afb565b602060405180830381865afa158015610e28573d6000803e3d6000fd5b505050506040513d601f19601f82011682018060405250810190610e4c9190611ae2565b90506000306001600160a01b03166341b5774a6040518163ffffffff1660e01b8152600401602060405180830381865afa158015610e8e573d6000803e3d6000fd5b505050506040513d601f19601f82011682018060405250810190610eb29190611ae2565b9050610ebd826112f5565b600081610ed284670de0b6b3a7640000611b6c565b610edc9190611b99565b60018501546040516340c10f1960e01b81529192506001600160a01b0316906340c10f1990610f11908b908590600401611afb565b600060405180830381600087803b158015610f2b57600080fd5b505af1158015610f3f573d6000803e3d6000fd5b505050505050505050505050565b600080610f5861101c565b6001600160a01b038085166000908152602683016020526040902080549293509116610fbe5760405162461bcd60e51b81526020600482015260156024820152742ab739bab83837b93a32b2103332b2903a37b5b2b760591b60448201526064016102f3565b610fc78161109b565b949350505050565b600080610fda61101c565b6001600160a01b038516600090815260268201602052604081209192506110008261109b565b905060006110108488848961120a565b50979650505050505050565b7fbfa76ec2967ed7f8d3d40cd552f1451ab03573b596bfce931a6a016f7733078c90565b6110968363a9059cbb60e01b848460405160240161105f929190611afb565b60408051601f198184030181529190526020810180516001600160e01b03166001600160e01b031990931692909217909152611416565b505050565b60008060008360000160009054906101000a90046001600160a01b03166001600160a01b031663feaf968c6040518163ffffffff1660e01b815260040160a060405180830381865afa1580156110f5573d6000803e3d6000fd5b505050506040513d601f19601f820116820180604052508101906111199190611cfb565b509350509250506000821361116a5760405162461bcd60e51b81526020600482015260176024820152764e6f207072696365206461746120617661696c61626c6560481b60448201526064016102f3565b600061025861117c6201518042611d4b565b6111869190611d4b565b90508082116111ca5760405162461bcd60e51b815260206004820152601060248201526f5374616c65207072696365206461746160801b60448201526064016102f3565b84546111e190600160a01b900460ff16600a611c91565b6111f768327cb2734119d3b7a9601e1b85611b6c565b6112019190611b99565b95945050505050565b600081808203611284576040516370a0823160e01b81526001600160a01b038616906370a0823190611240903090600401611967565b602060405180830381865afa15801561125d573d6000803e3d6000fd5b505050506040513d601f19601f820116820180604052508101906112819190611ae2565b90505b620f42406112928583611b6c565b61129c9190611b6c565b6001600160a01b038616600090815260258801602052604090205490925068327cb2734119d3b7a9601e1b906112d69060ff16600a611c91565b6112e09190611b6c565b6112ea9083611b99565b915094509492505050565b60006112ff61101c565b6006810180544290915590915082811580159061132857506113246201518042611d4b565b8211155b156113405761133b600d84016000611944565b6113f1565b6000610e106113526201518042611d5e565b61135c9190611b99565b90506000601860018301069050600085600d01826018811061138057611380611b14565b01549050600086600d01836018811061139b5761139b611b14565b015586600d870184601881106113b3576113b3611b14565b0160008282546113c39190611b40565b909155505060058601546113d8908890611b40565b935080156113ed576113ea8185611d4b565b93505b5050505b600583018190556114108361140b64e8d4a5100084611b99565b6114e8565b50505050565b600061146b826040518060400160405280602081526020017f5361666545524332303a206c6f772d6c6576656c2063616c6c206661696c6564815250856001600160a01b03166115529092919063ffffffff16565b80519091501561109657808060200190518101906114899190611d72565b6110965760405162461bcd60e51b815260206004820152602a60248201527f5361666545524332303a204552433230206f7065726174696f6e20646964206e6044820152691bdd081cdd58d8d9595960b21b60648201526084016102f3565b60408051608081018252600984015461ffff808216835262010000909104811660208301819052600a86015493830193909352600b8501546060830152909190831610611539576110968383611561565b805161ffff808416911610611096576110968383611687565b6060610fc7848460008561179b565b60408051608081018252600984015461ffff808216835262010000909104166020820152600a84015491810191909152600b83015460608201525b6115a68183611876565b61163257600083600c01826060015160016115c19190611b40565b815481106115d1576115d1611b14565b9060005260206000209060030201905080600101546000036115f35750611632565b60408051608081018252825461ffff8082168352620100009091041660208201526001830154918101919091526002909101546060820152905061159c565b6040810151600a84015414611096578051600984018054602084015161ffff908116620100000263ffffffff199092169316929092179190911790556040810151600a8401556060810151600b840155505050565b60408051608081018252600984015461ffff808216835262010000909104166020820152600a84015491810191909152600b83015460608201525b6116cc8183611876565b6117545760608101511561175457600083600c01600183606001516116f19190611d4b565b8154811061170157611701611b14565b6000918252602091829020604080516080810182526003909302909101805461ffff8082168552620100009091041693830193909352600183015490820152600290910154606082015291506116c29050565b8051600984018054602084015161ffff908116620100000263ffffffff199092169316929092179190911790556040810151600a84015560600151600b9092019190915550565b6060824710156117fc5760405162461bcd60e51b815260206004820152602660248201527f416464726573733a20696e73756666696369656e742062616c616e636520666f6044820152651c8818d85b1b60d21b60648201526084016102f3565b600080866001600160a01b031685876040516118189190611db8565b60006040518083038185875af1925050503d8060008114611855576040519150601f19603f3d011682016040523d82523d6000602084013e61185a565b606091505b509150915061186b878383876118a6565b979650505050505050565b60008161ffff16836000015161ffff161115801561189f5750826020015161ffff168261ffff16105b9392505050565b6060831561191557825160000361190e576001600160a01b0385163b61190e5760405162461bcd60e51b815260206004820152601d60248201527f416464726573733a2063616c6c20746f206e6f6e2d636f6e747261637400000060448201526064016102f3565b5081610fc7565b610fc7838381511561192a5781518083602001fd5b8060405162461bcd60e51b81526004016102f39190611dd4565b5061028f9060188101905b80821115611963576000815560010161194f565b5090565b6001600160a01b0391909116815260200190565b6001600160a01b038116811461028f57600080fd5b6000806000606084860312156119a557600080fd5b83356119b08161197b565b95602085013595506040909401359392505050565b600080604083850312156119d857600080fd5b82356119e38161197b565b946020939093013593505050565b600060208284031215611a0357600080fd5b813561189f8161197b565b602080825282518282018190526000919060409081850190868401855b82811015611a6e57815180516001600160a01b03168552868101518786015285810151868601526060908101519085015260809093019290850190600101611a2b565b5091979650505050505050565b600080600060608486031215611a9057600080fd5b8335611a9b8161197b565b92506020840135611aab8161197b565b929592945050506040919091013590565b6020808252600c908201526b155b985d5d1a1bdc9a5e995960a21b604082015260600190565b600060208284031215611af457600080fd5b5051919050565b6001600160a01b03929092168252602082015260400190565b634e487b7160e01b600052603260045260246000fd5b634e487b7160e01b600052601160045260246000fd5b808201808211156107fb576107fb611b2a565b600060018201611b6557611b65611b2a565b5060010190565b80820281158282048414176107fb576107fb611b2a565b634e487b7160e01b600052601260045260246000fd5b600082611ba857611ba8611b83565b500490565b600181815b80851115611be8578160001904821115611bce57611bce611b2a565b80851615611bdb57918102915b93841c9390800290611bb2565b509250929050565b600082611bff575060016107fb565b81611c0c575060006107fb565b8160018114611c225760028114611c2c57611c48565b60019150506107fb565b60ff841115611c3d57611c3d611b2a565b50506001821b6107fb565b5060208310610133831016604e8410600b8410161715611c6b575081810a6107fb565b611c758383611bad565b8060001904821115611c8957611c89611b2a565b029392505050565b600061189f60ff841683611bf0565b600060208284031215611cb257600080fd5b815163ffffffff8116811461189f57600080fd5b634e487b7160e01b600052604160045260246000fd5b805169ffffffffffffffffffff81168114611cf657600080fd5b919050565b600080600080600060a08688031215611d1357600080fd5b611d1c86611cdc565b9450602086015193506040860151925060608601519150611d3f60808701611cdc565b90509295509295909350565b818103818111156107fb576107fb611b2a565b600082611d6d57611d6d611b83565b500690565b600060208284031215611d8457600080fd5b8151801515811461189f57600080fd5b60005b83811015611daf578181015183820152602001611d97565b50506000910152565b60008251611dca818460208701611d94565b9190910192915050565b6020815260008251806020840152611df3816040850160208701611d94565b601f01601f1916919091016040019291505056fea26469706673582212206101120e3e1a8e9ed087dffe70b08277dfd2b47d53b88e9e2a9c6949c84efe6064736f6c63430008110033","opcodes":"PUSH1 0x80 PUSH1 0x40 MSTORE CALLVALUE DUP1 ISZERO PUSH2 0x10 JUMPI PUSH1 0x0 DUP1 REVERT JUMPDEST POP PUSH2 0x1E3D DUP1 PUSH2 0x20 PUSH1 0x0 CODECOPY PUSH1 0x0 RETURN INVALID PUSH1 0x80 PUSH1 0x40 MSTORE CALLVALUE DUP1 ISZERO PUSH2 0x10 JUMPI PUSH1 0x0 DUP1 REVERT JUMPDEST POP PUSH1 0x4 CALLDATASIZE LT PUSH2 0x14D JUMPI PUSH1 0x0 CALLDATALOAD PUSH1 0xE0 SHR DUP1 PUSH4 0x6162CB91 GT PUSH2 0xC3 JUMPI DUP1 PUSH4 0x8456CB59 GT PUSH2 0x7C JUMPI DUP1 PUSH4 0x8456CB59 EQ PUSH2 0x25E JUMPI DUP1 PUSH4 0xA74AA566 EQ PUSH2 0x266 JUMPI DUP1 PUSH4 0xAB1094C0 EQ PUSH2 0x26E JUMPI DUP1 PUSH4 0xC76380B7 EQ PUSH2 0x281 JUMPI DUP1 PUSH4 0xCE25CB4D EQ PUSH2 0x292 JUMPI DUP1 PUSH4 0xF7406FC3 EQ PUSH2 0x2A5 JUMPI PUSH1 0x0 DUP1 REVERT JUMPDEST DUP1 PUSH4 0x6162CB91 EQ PUSH2 0x201 JUMPI DUP1 PUSH4 0x65A1F3C3 EQ PUSH2 0x209 JUMPI DUP1 PUSH4 0x6C1F5633 EQ PUSH2 0x226 JUMPI DUP1 PUSH4 0x71A97305 EQ PUSH2 0x22E JUMPI DUP1 PUSH4 0x7262F557 EQ PUSH2 0x243 JUMPI DUP1 PUSH4 0x82131470 EQ PUSH2 0x256 JUMPI PUSH1 0x0 DUP1 REVERT JUMPDEST DUP1 PUSH4 0x41B5774A GT PUSH2 0x115 JUMPI DUP1 PUSH4 0x41B5774A EQ PUSH2 0x1B6 JUMPI DUP1 PUSH4 0x45C6A874 EQ PUSH2 0x1BE JUMPI DUP1 PUSH4 0x56168843 EQ PUSH2 0x1C6 JUMPI DUP1 PUSH4 0x5C975ABB EQ PUSH2 0x1CE JUMPI DUP1 PUSH4 0x5D204718 EQ PUSH2 0x1E6 JUMPI DUP1 PUSH4 0x5DE11890 EQ PUSH2 0x1F9 JUMPI PUSH1 0x0 DUP1 REVERT JUMPDEST DUP1 PUSH4 0x46F7DA2 EQ PUSH2 0x152 JUMPI DUP1 PUSH4 0x17FCB39B EQ PUSH2 0x15C JUMPI DUP1 PUSH4 0x18AC3B15 EQ PUSH2 0x17A JUMPI DUP1 PUSH4 0x20529BB1 EQ PUSH2 0x18D JUMPI DUP1 PUSH4 0x3931F45D EQ PUSH2 0x1A3 JUMPI JUMPDEST PUSH1 0x0 DUP1 REVERT JUMPDEST PUSH2 0x15A PUSH2 0x2B8 JUMP JUMPDEST STOP JUMPDEST PUSH2 0x164 PUSH2 0x312 JUMP JUMPDEST PUSH1 0x40 MLOAD PUSH2 0x171 SWAP2 SWAP1 PUSH2 0x1967 JUMP JUMPDEST PUSH1 0x40 MLOAD DUP1 SWAP2 SUB SWAP1 RETURN JUMPDEST PUSH2 0x15A PUSH2 0x188 CALLDATASIZE PUSH1 0x4 PUSH2 0x1990 JUMP JUMPDEST PUSH2 0x32E JUMP JUMPDEST PUSH2 0x195 PUSH2 0x5E6 JUMP JUMPDEST PUSH1 0x40 MLOAD SWAP1 DUP2 MSTORE PUSH1 0x20 ADD PUSH2 0x171 JUMP JUMPDEST PUSH2 0x195 PUSH2 0x1B1 CALLDATASIZE PUSH1 0x4 PUSH2 0x19C5 JUMP JUMPDEST PUSH2 0x6E2 JUMP JUMPDEST PUSH2 0x195 PUSH2 0x801 JUMP JUMPDEST PUSH2 0x164 PUSH2 0x87C JUMP JUMPDEST PUSH2 0x195 PUSH2 0x89A JUMP JUMPDEST PUSH2 0x1D6 PUSH2 0x8AD JUMP JUMPDEST PUSH1 0x40 MLOAD SWAP1 ISZERO ISZERO DUP2 MSTORE PUSH1 0x20 ADD PUSH2 0x171 JUMP JUMPDEST PUSH2 0x1D6 PUSH2 0x1F4 CALLDATASIZE PUSH1 0x4 PUSH2 0x19F1 JUMP JUMPDEST PUSH2 0x8C0 JUMP JUMPDEST PUSH2 0x195 PUSH2 0x8F3 JUMP JUMPDEST PUSH2 0x164 PUSH2 0x9C0 JUMP JUMPDEST PUSH2 0x211 PUSH2 0x9DC JUMP JUMPDEST PUSH1 0x40 MLOAD PUSH4 0xFFFFFFFF SWAP1 SWAP2 AND DUP2 MSTORE PUSH1 0x20 ADD PUSH2 0x171 JUMP JUMPDEST PUSH2 0x211 PUSH2 0x9FC JUMP JUMPDEST PUSH2 0x236 PUSH2 0xA83 JUMP JUMPDEST PUSH1 0x40 MLOAD PUSH2 0x171 SWAP2 SWAP1 PUSH2 0x1A0E JUMP JUMPDEST PUSH2 0x195 PUSH2 0x251 CALLDATASIZE PUSH1 0x4 PUSH2 0x19C5 JUMP JUMPDEST PUSH2 0xC77 JUMP JUMPDEST PUSH2 0x195 PUSH2 0xD1A JUMP JUMPDEST PUSH2 0x15A PUSH2 0xD2D JUMP JUMPDEST PUSH2 0x164 PUSH2 0xD81 JUMP JUMPDEST PUSH2 0x15A PUSH2 0x27C CALLDATASIZE PUSH1 0x4 PUSH2 0x1A7B JUMP JUMPDEST PUSH2 0xD9D JUMP JUMPDEST PUSH2 0x15A PUSH2 0x28F CALLDATASIZE PUSH1 0x4 PUSH2 0x19F1 JUMP JUMPDEST POP JUMP JUMPDEST PUSH2 0x195 PUSH2 0x2A0 CALLDATASIZE PUSH1 0x4 PUSH2 0x19F1 JUMP JUMPDEST PUSH2 0xF4D JUMP JUMPDEST PUSH2 0x195 PUSH2 0x2B3 CALLDATASIZE PUSH1 0x4 PUSH2 0x19C5 JUMP JUMPDEST PUSH2 0xFCF JUMP JUMPDEST PUSH1 0x0 PUSH2 0x2C2 PUSH2 0x101C JUMP JUMPDEST DUP1 SLOAD SWAP1 SWAP2 POP PUSH2 0x100 SWAP1 DIV PUSH1 0x1 PUSH1 0x1 PUSH1 0xA0 SHL SUB AND CALLER EQ PUSH2 0x2FC JUMPI PUSH1 0x40 MLOAD PUSH3 0x461BCD PUSH1 0xE5 SHL DUP2 MSTORE PUSH1 0x4 ADD PUSH2 0x2F3 SWAP1 PUSH2 0x1ABC JUMP JUMPDEST PUSH1 0x40 MLOAD DUP1 SWAP2 SUB SWAP1 REVERT JUMPDEST PUSH1 0x0 PUSH2 0x306 PUSH2 0x101C JUMP JUMPDEST DUP1 SLOAD PUSH1 0xFF NOT AND SWAP1 SSTORE POP POP JUMP JUMPDEST PUSH1 0x0 PUSH2 0x31C PUSH2 0x101C JUMP JUMPDEST PUSH1 0x3 ADD SLOAD PUSH1 0x1 PUSH1 0x1 PUSH1 0xA0 SHL SUB AND SWAP2 SWAP1 POP JUMP JUMPDEST PUSH1 0x0 PUSH2 0x338 PUSH2 0x101C JUMP JUMPDEST PUSH1 0x1 DUP2 ADD SLOAD PUSH1 0x40 MLOAD PUSH4 0x70A08231 PUSH1 0xE0 SHL DUP2 MSTORE SWAP2 SWAP3 POP PUSH1 0x0 SWAP2 PUSH1 0x1 PUSH1 0x1 PUSH1 0xA0 SHL SUB SWAP1 SWAP2 AND SWAP1 PUSH4 0x70A08231 SWAP1 PUSH2 0x370 SWAP1 CALLER SWAP1 PUSH1 0x4 ADD PUSH2 0x1967 JUMP JUMPDEST PUSH1 0x20 PUSH1 0x40 MLOAD DUP1 DUP4 SUB DUP2 DUP7 GAS STATICCALL ISZERO DUP1 ISZERO PUSH2 0x38D JUMPI RETURNDATASIZE PUSH1 0x0 DUP1 RETURNDATACOPY RETURNDATASIZE PUSH1 0x0 REVERT JUMPDEST POP POP POP POP PUSH1 0x40 MLOAD RETURNDATASIZE PUSH1 0x1F NOT PUSH1 0x1F DUP3 ADD AND DUP3 ADD DUP1 PUSH1 0x40 MSTORE POP DUP2 ADD SWAP1 PUSH2 0x3B1 SWAP2 SWAP1 PUSH2 0x1AE2 JUMP JUMPDEST SWAP1 POP DUP4 DUP2 LT ISZERO PUSH2 0x40F JUMPI PUSH1 0x40 MLOAD PUSH3 0x461BCD PUSH1 0xE5 SHL DUP2 MSTORE PUSH1 0x20 PUSH1 0x4 DUP3 ADD MSTORE PUSH1 0x23 PUSH1 0x24 DUP3 ADD MSTORE PUSH32 0x496E73756666696369656E74204458424C2062616C616E636520746F20726564 PUSH1 0x44 DUP3 ADD MSTORE PUSH3 0x65656D PUSH1 0xE8 SHL PUSH1 0x64 DUP3 ADD MSTORE PUSH1 0x84 ADD PUSH2 0x2F3 JUMP JUMPDEST PUSH1 0x0 PUSH2 0x41B DUP7 DUP7 PUSH2 0xC77 JUMP JUMPDEST SWAP1 POP PUSH1 0x0 DUP7 PUSH1 0x1 PUSH1 0x1 PUSH1 0xA0 SHL SUB AND PUSH4 0x70A08231 ADDRESS PUSH1 0x40 MLOAD DUP3 PUSH4 0xFFFFFFFF AND PUSH1 0xE0 SHL DUP2 MSTORE PUSH1 0x4 ADD PUSH2 0x44B SWAP2 SWAP1 PUSH2 0x1967 JUMP JUMPDEST PUSH1 0x20 PUSH1 0x40 MLOAD DUP1 DUP4 SUB DUP2 DUP7 GAS STATICCALL ISZERO DUP1 ISZERO PUSH2 0x468 JUMPI RETURNDATASIZE PUSH1 0x0 DUP1 RETURNDATACOPY RETURNDATASIZE PUSH1 0x0 REVERT JUMPDEST POP POP POP POP PUSH1 0x40 MLOAD RETURNDATASIZE PUSH1 0x1F NOT PUSH1 0x1F DUP3 ADD AND DUP3 ADD DUP1 PUSH1 0x40 MSTORE POP DUP2 ADD SWAP1 PUSH2 0x48C SWAP2 SWAP1 PUSH2 0x1AE2 JUMP JUMPDEST SWAP1 POP DUP1 DUP3 GT ISZERO PUSH2 0x513 JUMPI DUP5 DUP2 LT PUSH2 0x4A5 JUMPI DUP1 SWAP2 POP PUSH2 0x513 JUMP JUMPDEST PUSH1 0x40 MLOAD PUSH3 0x461BCD PUSH1 0xE5 SHL DUP2 MSTORE PUSH1 0x20 PUSH1 0x4 DUP3 ADD MSTORE PUSH1 0x3E PUSH1 0x24 DUP3 ADD MSTORE PUSH32 0x496E73756666696369656E742061737365742062616C616E636520746F207072 PUSH1 0x44 DUP3 ADD MSTORE PUSH32 0x6F6475636520657870656374656420776974686472617720616D6F756E740000 PUSH1 0x64 DUP3 ADD MSTORE PUSH1 0x84 ADD PUSH2 0x2F3 JUMP JUMPDEST PUSH2 0x527 PUSH1 0x1 PUSH1 0x1 PUSH1 0xA0 SHL SUB DUP9 AND CALLER DUP5 PUSH2 0x1040 JUMP JUMPDEST PUSH1 0x1 DUP5 ADD SLOAD PUSH1 0x40 MLOAD PUSH4 0x2770A7EB PUSH1 0xE2 SHL DUP2 MSTORE PUSH1 0x1 PUSH1 0x1 PUSH1 0xA0 SHL SUB SWAP1 SWAP2 AND SWAP1 PUSH4 0x9DC29FAC SWAP1 PUSH2 0x55B SWAP1 CALLER SWAP1 DUP11 SWAP1 PUSH1 0x4 ADD PUSH2 0x1AFB JUMP JUMPDEST PUSH1 0x0 PUSH1 0x40 MLOAD DUP1 DUP4 SUB DUP2 PUSH1 0x0 DUP8 DUP1 EXTCODESIZE ISZERO DUP1 ISZERO PUSH2 0x575 JUMPI PUSH1 0x0 DUP1 REVERT JUMPDEST POP GAS CALL ISZERO DUP1 ISZERO PUSH2 0x589 JUMPI RETURNDATASIZE PUSH1 0x0 DUP1 RETURNDATACOPY RETURNDATASIZE PUSH1 0x0 REVERT JUMPDEST POP POP PUSH1 0x40 DUP1 MLOAD CALLER DUP2 MSTORE PUSH1 0x20 DUP2 ADD DUP11 SWAP1 MSTORE PUSH1 0x1 PUSH1 0x1 PUSH1 0xA0 SHL SUB DUP12 AND DUP2 DUP4 ADD MSTORE PUSH1 0x60 DUP2 ADD DUP7 SWAP1 MSTORE SWAP1 MLOAD PUSH32 0x5FE85DC899E158274A44ABAB0E6DF5434416F0CE11DF30D42E02F229B8FC8A41 SWAP4 POP SWAP1 DUP2 SWAP1 SUB PUSH1 0x80 ADD SWAP2 POP LOG1 POP POP POP POP POP POP POP JUMP JUMPDEST PUSH1 0x0 DUP1 PUSH2 0x5F1 PUSH2 0x101C JUMP JUMPDEST SWAP1 POP PUSH1 0x0 DUP2 PUSH1 0x8 ADD DUP1 SLOAD DUP1 PUSH1 0x20 MUL PUSH1 0x20 ADD PUSH1 0x40 MLOAD SWAP1 DUP2 ADD PUSH1 0x40 MSTORE DUP1 SWAP3 SWAP2 SWAP1 DUP2 DUP2 MSTORE PUSH1 0x20 ADD DUP3 DUP1 SLOAD DUP1 ISZERO PUSH2 0x64D JUMPI PUSH1 0x20 MUL DUP3 ADD SWAP2 SWAP1 PUSH1 0x0 MSTORE PUSH1 0x20 PUSH1 0x0 KECCAK256 SWAP1 JUMPDEST DUP2 SLOAD PUSH1 0x1 PUSH1 0x1 PUSH1 0xA0 SHL SUB AND DUP2 MSTORE PUSH1 0x1 SWAP1 SWAP2 ADD SWAP1 PUSH1 0x20 ADD DUP1 DUP4 GT PUSH2 0x62F JUMPI JUMPDEST POP POP POP POP POP SWAP1 POP PUSH1 0x0 JUMPDEST DUP2 MLOAD DUP2 LT ISZERO PUSH2 0x6DC JUMPI PUSH1 0x0 DUP3 DUP3 DUP2 MLOAD DUP2 LT PUSH2 0x674 JUMPI PUSH2 0x674 PUSH2 0x1B14 JUMP JUMPDEST PUSH1 0x20 SWAP1 DUP2 MUL SWAP2 SWAP1 SWAP2 ADD DUP2 ADD MLOAD PUSH1 0x1 PUSH1 0x1 PUSH1 0xA0 SHL SUB DUP2 AND PUSH1 0x0 SWAP1 DUP2 MSTORE PUSH1 0x26 DUP8 ADD SWAP1 SWAP3 MSTORE PUSH1 0x40 DUP3 KECCAK256 SWAP1 SWAP3 POP SWAP1 PUSH2 0x6A7 DUP3 PUSH2 0x109B JUMP JUMPDEST SWAP1 POP PUSH1 0x0 PUSH2 0x6B8 DUP8 DUP6 DUP5 PUSH1 0x0 PUSH2 0x120A JUMP JUMPDEST POP SWAP1 POP PUSH2 0x6C5 DUP2 DUP10 PUSH2 0x1B40 JUMP JUMPDEST SWAP8 POP POP POP POP POP DUP1 PUSH2 0x6D5 SWAP1 PUSH2 0x1B53 JUMP JUMPDEST SWAP1 POP PUSH2 0x657 JUMP JUMPDEST POP POP POP SWAP1 JUMP JUMPDEST PUSH1 0x0 DUP1 PUSH2 0x6ED PUSH2 0x101C JUMP JUMPDEST PUSH1 0x3 DUP2 ADD SLOAD SWAP1 SWAP2 POP PUSH1 0x1 PUSH1 0x1 PUSH1 0xA0 SHL SUB SWAP1 DUP2 AND SWAP1 DUP6 AND SUB PUSH2 0x711 JUMPI DUP3 SWAP2 POP POP PUSH2 0x7FB JUMP JUMPDEST PUSH1 0x3 DUP2 ADD SLOAD PUSH1 0x1 PUSH1 0x1 PUSH1 0xA0 SHL SUB AND PUSH1 0x0 SWAP1 DUP2 MSTORE PUSH1 0x26 DUP3 ADD PUSH1 0x20 MSTORE PUSH1 0x40 DUP2 KECCAK256 PUSH2 0x738 SWAP1 PUSH2 0x109B JUMP JUMPDEST PUSH1 0x1 PUSH1 0x1 PUSH1 0xA0 SHL SUB DUP7 AND PUSH1 0x0 SWAP1 DUP2 MSTORE PUSH1 0x26 DUP5 ADD PUSH1 0x20 MSTORE PUSH1 0x40 DUP2 KECCAK256 SWAP2 SWAP3 POP SWAP1 PUSH2 0x75F SWAP1 PUSH2 0x109B JUMP JUMPDEST SWAP1 POP PUSH1 0x0 DUP2 PUSH2 0x77A PUSH9 0x327CB2734119D3B7A9 PUSH1 0x1E SHL DUP6 PUSH2 0x1B6C JUMP JUMPDEST PUSH2 0x784 SWAP2 SWAP1 PUSH2 0x1B99 JUMP JUMPDEST SWAP1 POP PUSH1 0x0 PUSH9 0x327CB2734119D3B7A9 PUSH1 0x1E SHL PUSH2 0x79F DUP9 DUP5 PUSH2 0x1B6C JUMP JUMPDEST PUSH2 0x7A9 SWAP2 SWAP1 PUSH2 0x1B99 JUMP JUMPDEST PUSH1 0x1 PUSH1 0x1 PUSH1 0xA0 SHL SUB DUP10 AND PUSH1 0x0 SWAP1 DUP2 MSTORE PUSH1 0x25 DUP8 ADD PUSH1 0x20 MSTORE PUSH1 0x40 SWAP1 KECCAK256 SLOAD SWAP1 SWAP2 POP PUSH8 0xDE0B6B3A7640000 SWAP1 PUSH2 0x7DF SWAP1 PUSH1 0xFF AND PUSH1 0xA PUSH2 0x1C91 JUMP JUMPDEST PUSH2 0x7E9 SWAP1 DUP4 PUSH2 0x1B6C JUMP JUMPDEST PUSH2 0x7F3 SWAP2 SWAP1 PUSH2 0x1B99 JUMP JUMPDEST SWAP6 POP POP POP POP POP POP JUMPDEST SWAP3 SWAP2 POP POP JUMP JUMPDEST PUSH1 0x0 DUP1 PUSH2 0x80C PUSH2 0x101C JUMP JUMPDEST SWAP1 POP PUSH1 0x0 PUSH5 0xE8D4A51000 DUP3 PUSH1 0x5 ADD SLOAD PUSH2 0x825 SWAP2 SWAP1 PUSH2 0x1B99 JUMP JUMPDEST SWAP1 POP PUSH1 0x0 DUP2 PUSH2 0xFFFF AND DUP4 PUSH1 0x9 ADD PUSH1 0x1 ADD SLOAD PUSH2 0x840 SWAP2 SWAP1 PUSH2 0x1B6C JUMP JUMPDEST SWAP1 POP PUSH8 0xDE0B6B3A7640000 DUP2 DUP5 PUSH1 0x4 ADD SLOAD PUSH2 0x85B SWAP2 SWAP1 PUSH2 0x1B6C JUMP JUMPDEST PUSH2 0x865 SWAP2 SWAP1 PUSH2 0x1B99 JUMP JUMPDEST DUP4 PUSH1 0x4 ADD SLOAD PUSH2 0x874 SWAP2 SWAP1 PUSH2 0x1B40 JUMP JUMPDEST SWAP4 POP POP POP POP SWAP1 JUMP JUMPDEST PUSH1 0x0 PUSH2 0x886 PUSH2 0x101C JUMP JUMPDEST SLOAD PUSH2 0x100 SWAP1 DIV PUSH1 0x1 PUSH1 0x1 PUSH1 0xA0 SHL SUB AND SWAP2 SWAP1 POP JUMP JUMPDEST PUSH1 0x0 PUSH2 0x8A4 PUSH2 0x101C JUMP JUMPDEST PUSH1 0x4 ADD SLOAD SWAP1 POP SWAP1 JUMP JUMPDEST PUSH1 0x0 PUSH2 0x8B7 PUSH2 0x101C JUMP JUMPDEST SLOAD PUSH1 0xFF AND SWAP2 SWAP1 POP JUMP JUMPDEST PUSH1 0x0 DUP1 PUSH2 0x8CB PUSH2 0x101C JUMP JUMPDEST PUSH1 0x1 PUSH1 0x1 PUSH1 0xA0 SHL SUB SWAP4 DUP5 AND PUSH1 0x0 SWAP1 DUP2 MSTORE PUSH1 0x26 SWAP1 SWAP2 ADD PUSH1 0x20 MSTORE PUSH1 0x40 SWAP1 KECCAK256 SLOAD SWAP1 SWAP3 AND ISZERO ISZERO SWAP3 SWAP2 POP POP JUMP JUMPDEST PUSH1 0x0 DUP1 PUSH2 0x8FE PUSH2 0x101C JUMP JUMPDEST SWAP1 POP PUSH1 0x0 DUP2 PUSH1 0x1 ADD PUSH1 0x0 SWAP1 SLOAD SWAP1 PUSH2 0x100 EXP SWAP1 DIV PUSH1 0x1 PUSH1 0x1 PUSH1 0xA0 SHL SUB AND PUSH1 0x1 PUSH1 0x1 PUSH1 0xA0 SHL SUB AND PUSH4 0x18160DDD PUSH1 0x40 MLOAD DUP2 PUSH4 0xFFFFFFFF AND PUSH1 0xE0 SHL DUP2 MSTORE PUSH1 0x4 ADD PUSH1 0x20 PUSH1 0x40 MLOAD DUP1 DUP4 SUB DUP2 DUP7 GAS STATICCALL ISZERO DUP1 ISZERO PUSH2 0x957 JUMPI RETURNDATASIZE PUSH1 0x0 DUP1 RETURNDATACOPY RETURNDATASIZE PUSH1 0x0 REVERT JUMPDEST POP POP POP POP PUSH1 0x40 MLOAD RETURNDATASIZE PUSH1 0x1F NOT PUSH1 0x1F DUP3 ADD AND DUP3 ADD DUP1 PUSH1 0x40 MSTORE POP DUP2 ADD SWAP1 PUSH2 0x97B SWAP2 SWAP1 PUSH2 0x1AE2 JUMP JUMPDEST SWAP1 POP PUSH1 0x0 PUSH2 0x987 PUSH2 0x5E6 JUMP JUMPDEST SWAP1 POP DUP2 ISZERO DUP1 PUSH2 0x994 JUMPI POP DUP1 ISZERO JUMPDEST ISZERO PUSH2 0x9A3 JUMPI PUSH1 0x0 SWAP4 POP POP POP POP SWAP1 JUMP JUMPDEST DUP2 PUSH2 0x9B6 DUP3 PUSH8 0xDE0B6B3A7640000 PUSH2 0x1B6C JUMP JUMPDEST PUSH2 0x874 SWAP2 SWAP1 PUSH2 0x1B99 JUMP JUMPDEST PUSH1 0x0 PUSH2 0x9CA PUSH2 0x101C JUMP JUMPDEST PUSH1 0x1 ADD SLOAD PUSH1 0x1 PUSH1 0x1 PUSH1 0xA0 SHL SUB AND SWAP2 SWAP1 POP JUMP JUMPDEST PUSH1 0x0 PUSH2 0x9E6 PUSH2 0x101C JUMP JUMPDEST PUSH1 0x3 ADD SLOAD PUSH1 0x1 PUSH1 0xA0 SHL SWAP1 DIV PUSH4 0xFFFFFFFF AND SWAP2 SWAP1 POP JUMP JUMPDEST PUSH1 0x0 PUSH2 0xA06 PUSH2 0x101C JUMP JUMPDEST PUSH1 0x1 ADD PUSH1 0x0 SWAP1 SLOAD SWAP1 PUSH2 0x100 EXP SWAP1 DIV PUSH1 0x1 PUSH1 0x1 PUSH1 0xA0 SHL SUB AND PUSH1 0x1 PUSH1 0x1 PUSH1 0xA0 SHL SUB AND PUSH4 0x566826D1 PUSH1 0x40 MLOAD DUP2 PUSH4 0xFFFFFFFF AND PUSH1 0xE0 SHL DUP2 MSTORE PUSH1 0x4 ADD PUSH1 0x20 PUSH1 0x40 MLOAD DUP1 DUP4 SUB DUP2 DUP7 GAS STATICCALL ISZERO DUP1 ISZERO PUSH2 0xA5A JUMPI RETURNDATASIZE PUSH1 0x0 DUP1 RETURNDATACOPY RETURNDATASIZE PUSH1 0x0 REVERT JUMPDEST POP POP POP POP PUSH1 0x40 MLOAD RETURNDATASIZE PUSH1 0x1F NOT PUSH1 0x1F DUP3 ADD AND DUP3 ADD DUP1 PUSH1 0x40 MSTORE POP DUP2 ADD SWAP1 PUSH2 0xA7E SWAP2 SWAP1 PUSH2 0x1CA0 JUMP JUMPDEST SWAP1 POP SWAP1 JUMP JUMPDEST PUSH1 0x60 PUSH1 0x0 PUSH2 0xA8F PUSH2 0x101C JUMP JUMPDEST PUSH1 0x8 DUP2 ADD SLOAD SWAP1 SWAP2 POP PUSH8 0xFFFFFFFFFFFFFFFF DUP2 GT ISZERO PUSH2 0xAAF JUMPI PUSH2 0xAAF PUSH2 0x1CC6 JUMP JUMPDEST PUSH1 0x40 MLOAD SWAP1 DUP1 DUP3 MSTORE DUP1 PUSH1 0x20 MUL PUSH1 0x20 ADD DUP3 ADD PUSH1 0x40 MSTORE DUP1 ISZERO PUSH2 0xB14 JUMPI DUP2 PUSH1 0x20 ADD JUMPDEST PUSH2 0xB01 PUSH1 0x40 MLOAD DUP1 PUSH1 0x80 ADD PUSH1 0x40 MSTORE DUP1 PUSH1 0x0 PUSH1 0x1 PUSH1 0x1 PUSH1 0xA0 SHL SUB AND DUP2 MSTORE PUSH1 0x20 ADD PUSH1 0x0 DUP2 MSTORE PUSH1 0x20 ADD PUSH1 0x0 DUP2 MSTORE PUSH1 0x20 ADD PUSH1 0x0 DUP2 MSTORE POP SWAP1 JUMP JUMPDEST DUP2 MSTORE PUSH1 0x20 ADD SWAP1 PUSH1 0x1 SWAP1 SUB SWAP1 DUP2 PUSH2 0xACD JUMPI SWAP1 POP JUMPDEST POP SWAP2 POP PUSH1 0x0 DUP1 DUP3 PUSH1 0x8 ADD DUP1 SLOAD DUP1 PUSH1 0x20 MUL PUSH1 0x20 ADD PUSH1 0x40 MLOAD SWAP1 DUP2 ADD PUSH1 0x40 MSTORE DUP1 SWAP3 SWAP2 SWAP1 DUP2 DUP2 MSTORE PUSH1 0x20 ADD DUP3 DUP1 SLOAD DUP1 ISZERO PUSH2 0xB72 JUMPI PUSH1 0x20 MUL DUP3 ADD SWAP2 SWAP1 PUSH1 0x0 MSTORE PUSH1 0x20 PUSH1 0x0 KECCAK256 SWAP1 JUMPDEST DUP2 SLOAD PUSH1 0x1 PUSH1 0x1 PUSH1 0xA0 SHL SUB AND DUP2 MSTORE PUSH1 0x1 SWAP1 SWAP2 ADD SWAP1 PUSH1 0x20 ADD DUP1 DUP4 GT PUSH2 0xB54 JUMPI JUMPDEST POP POP POP POP POP SWAP1 POP PUSH1 0x0 JUMPDEST DUP2 MLOAD DUP2 LT ISZERO PUSH2 0xC70 JUMPI PUSH1 0x0 DUP3 DUP3 DUP2 MLOAD DUP2 LT PUSH2 0xB99 JUMPI PUSH2 0xB99 PUSH2 0x1B14 JUMP JUMPDEST PUSH1 0x20 SWAP1 DUP2 MUL SWAP2 SWAP1 SWAP2 ADD DUP2 ADD MLOAD PUSH1 0x1 PUSH1 0x1 PUSH1 0xA0 SHL SUB DUP2 AND PUSH1 0x0 SWAP1 DUP2 MSTORE PUSH1 0x26 DUP9 ADD SWAP1 SWAP3 MSTORE PUSH1 0x40 DUP3 KECCAK256 SWAP1 SWAP3 POP SWAP1 PUSH2 0xBCC DUP3 PUSH2 0x109B JUMP JUMPDEST SWAP1 POP PUSH1 0x0 DUP1 PUSH2 0xBDE DUP10 DUP7 DUP6 PUSH1 0x0 PUSH2 0x120A JUMP JUMPDEST SWAP2 POP SWAP2 POP PUSH1 0x40 MLOAD DUP1 PUSH1 0x80 ADD PUSH1 0x40 MSTORE DUP1 DUP7 PUSH1 0x1 PUSH1 0x1 PUSH1 0xA0 SHL SUB AND DUP2 MSTORE PUSH1 0x20 ADD DUP3 DUP2 MSTORE PUSH1 0x20 ADD DUP4 DUP2 MSTORE PUSH1 0x20 ADD PUSH9 0x327CB2734119D3B7A9 PUSH1 0x1E SHL PUSH3 0xF4240 DUP7 PUSH2 0xC24 SWAP2 SWAP1 PUSH2 0x1B6C JUMP JUMPDEST PUSH2 0xC2E SWAP2 SWAP1 PUSH2 0x1B99 JUMP JUMPDEST DUP2 MSTORE POP DUP11 DUP10 DUP2 MLOAD DUP2 LT PUSH2 0xC43 JUMPI PUSH2 0xC43 PUSH2 0x1B14 JUMP JUMPDEST PUSH1 0x20 MUL PUSH1 0x20 ADD ADD DUP2 SWAP1 MSTORE POP DUP8 PUSH2 0xC58 SWAP1 PUSH2 0x1B53 JUMP JUMPDEST SWAP8 POP POP POP POP POP POP DUP1 PUSH2 0xC69 SWAP1 PUSH2 0x1B53 JUMP JUMPDEST SWAP1 POP PUSH2 0xB7C JUMP JUMPDEST POP POP POP POP SWAP1 JUMP JUMPDEST PUSH1 0x0 DUP1 PUSH2 0xC82 PUSH2 0x101C JUMP JUMPDEST SWAP1 POP PUSH1 0x0 PUSH2 0xC8E PUSH2 0x8F3 JUMP JUMPDEST SWAP1 POP PUSH3 0xF4240 PUSH2 0xCAA PUSH9 0x327CB2734119D3B7A9 PUSH1 0x1E SHL DUP4 PUSH2 0x1B6C JUMP JUMPDEST PUSH2 0xCB4 SWAP2 SWAP1 PUSH2 0x1B99 JUMP JUMPDEST SWAP1 POP PUSH1 0x0 PUSH2 0xCC1 DUP7 PUSH2 0xF4D JUMP JUMPDEST PUSH1 0x1 PUSH1 0x1 PUSH1 0xA0 SHL SUB DUP8 AND PUSH1 0x0 SWAP1 DUP2 MSTORE PUSH1 0x25 DUP6 ADD PUSH1 0x20 MSTORE PUSH1 0x40 DUP2 KECCAK256 SLOAD SWAP2 SWAP3 POP PUSH1 0xFF SWAP1 SWAP2 AND SWAP1 DUP3 PUSH2 0xCF1 DUP4 PUSH1 0xA PUSH2 0x1C91 JUMP JUMPDEST PUSH2 0xCFB SWAP1 DUP7 PUSH2 0x1B6C JUMP JUMPDEST PUSH2 0xD05 SWAP2 SWAP1 PUSH2 0x1B99 JUMP JUMPDEST SWAP1 POP PUSH8 0xDE0B6B3A7640000 PUSH2 0x7E9 DUP3 DUP10 PUSH2 0x1B6C JUMP JUMPDEST PUSH1 0x0 PUSH2 0xD24 PUSH2 0x101C JUMP JUMPDEST PUSH1 0x5 ADD SLOAD SWAP1 POP SWAP1 JUMP JUMPDEST PUSH1 0x0 PUSH2 0xD37 PUSH2 0x101C JUMP JUMPDEST DUP1 SLOAD SWAP1 SWAP2 POP PUSH2 0x100 SWAP1 DIV PUSH1 0x1 PUSH1 0x1 PUSH1 0xA0 SHL SUB AND CALLER EQ PUSH2 0xD68 JUMPI PUSH1 0x40 MLOAD PUSH3 0x461BCD PUSH1 0xE5 SHL DUP2 MSTORE PUSH1 0x4 ADD PUSH2 0x2F3 SWAP1 PUSH2 0x1ABC JUMP JUMPDEST PUSH1 0x0 PUSH2 0xD72 PUSH2 0x101C JUMP JUMPDEST DUP1 SLOAD PUSH1 0xFF NOT AND PUSH1 0x1 OR SWAP1 SSTORE POP POP JUMP JUMPDEST PUSH1 0x0 PUSH2 0xD8B PUSH2 0x101C JUMP JUMPDEST PUSH1 0x2 ADD SLOAD PUSH1 0x1 PUSH1 0x1 PUSH1 0xA0 SHL SUB AND SWAP2 SWAP1 POP JUMP JUMPDEST PUSH1 0x0 PUSH2 0xDA7 PUSH2 0x101C JUMP JUMPDEST PUSH1 0x2 DUP2 ADD SLOAD SWAP1 SWAP2 POP PUSH1 0x1 PUSH1 0x1 PUSH1 0xA0 SHL SUB AND CALLER EQ PUSH2 0xDD6 JUMPI PUSH1 0x40 MLOAD PUSH3 0x461BCD PUSH1 0xE5 SHL DUP2 MSTORE PUSH1 0x4 ADD PUSH2 0x2F3 SWAP1 PUSH2 0x1ABC JUMP JUMPDEST PUSH1 0x0 PUSH2 0xDE0 PUSH2 0x101C JUMP JUMPDEST PUSH1 0x40 MLOAD PUSH4 0xF7406FC3 PUSH1 0xE0 SHL DUP2 MSTORE SWAP1 SWAP2 POP PUSH1 0x0 SWAP1 ADDRESS SWAP1 PUSH4 0xF7406FC3 SWAP1 PUSH2 0xE0B SWAP1 DUP9 SWAP1 DUP9 SWAP1 PUSH1 0x4 ADD PUSH2 0x1AFB JUMP JUMPDEST PUSH1 0x20 PUSH1 0x40 MLOAD DUP1 DUP4 SUB DUP2 DUP7 GAS STATICCALL ISZERO DUP1 ISZERO PUSH2 0xE28 JUMPI RETURNDATASIZE PUSH1 0x0 DUP1 RETURNDATACOPY RETURNDATASIZE PUSH1 0x0 REVERT JUMPDEST POP POP POP POP PUSH1 0x40 MLOAD RETURNDATASIZE PUSH1 0x1F NOT PUSH1 0x1F DUP3 ADD AND DUP3 ADD DUP1 PUSH1 0x40 MSTORE POP DUP2 ADD SWAP1 PUSH2 0xE4C SWAP2 SWAP1 PUSH2 0x1AE2 JUMP JUMPDEST SWAP1 POP PUSH1 0x0 ADDRESS PUSH1 0x1 PUSH1 0x1 PUSH1 0xA0 SHL SUB AND PUSH4 0x41B5774A PUSH1 0x40 MLOAD DUP2 PUSH4 0xFFFFFFFF AND PUSH1 0xE0 SHL DUP2 MSTORE PUSH1 0x4 ADD PUSH1 0x20 PUSH1 0x40 MLOAD DUP1 DUP4 SUB DUP2 DUP7 GAS STATICCALL ISZERO DUP1 ISZERO PUSH2 0xE8E JUMPI RETURNDATASIZE PUSH1 0x0 DUP1 RETURNDATACOPY RETURNDATASIZE PUSH1 0x0 REVERT JUMPDEST POP POP POP POP PUSH1 0x40 MLOAD RETURNDATASIZE PUSH1 0x1F NOT PUSH1 0x1F DUP3 ADD AND DUP3 ADD DUP1 PUSH1 0x40 MSTORE POP DUP2 ADD SWAP1 PUSH2 0xEB2 SWAP2 SWAP1 PUSH2 0x1AE2 JUMP JUMPDEST SWAP1 POP PUSH2 0xEBD DUP3 PUSH2 0x12F5 JUMP JUMPDEST PUSH1 0x0 DUP2 PUSH2 0xED2 DUP5 PUSH8 0xDE0B6B3A7640000 PUSH2 0x1B6C JUMP JUMPDEST PUSH2 0xEDC SWAP2 SWAP1 PUSH2 0x1B99 JUMP JUMPDEST PUSH1 0x1 DUP6 ADD SLOAD PUSH1 0x40 MLOAD PUSH4 0x40C10F19 PUSH1 0xE0 SHL DUP2 MSTORE SWAP2 SWAP3 POP PUSH1 0x1 PUSH1 0x1 PUSH1 0xA0 SHL SUB AND SWAP1 PUSH4 0x40C10F19 SWAP1 PUSH2 0xF11 SWAP1 DUP12 SWAP1 DUP6 SWAP1 PUSH1 0x4 ADD PUSH2 0x1AFB JUMP JUMPDEST PUSH1 0x0 PUSH1 0x40 MLOAD DUP1 DUP4 SUB DUP2 PUSH1 0x0 DUP8 DUP1 EXTCODESIZE ISZERO DUP1 ISZERO PUSH2 0xF2B JUMPI PUSH1 0x0 DUP1 REVERT JUMPDEST POP GAS CALL ISZERO DUP1 ISZERO PUSH2 0xF3F JUMPI RETURNDATASIZE PUSH1 0x0 DUP1 RETURNDATACOPY RETURNDATASIZE PUSH1 0x0 REVERT JUMPDEST POP POP POP POP POP POP POP POP POP POP POP POP JUMP JUMPDEST PUSH1 0x0 DUP1 PUSH2 0xF58 PUSH2 0x101C JUMP JUMPDEST PUSH1 0x1 PUSH1 0x1 PUSH1 0xA0 SHL SUB DUP1 DUP6 AND PUSH1 0x0 SWAP1 DUP2 MSTORE PUSH1 0x26 DUP4 ADD PUSH1 0x20 MSTORE PUSH1 0x40 SWAP1 KECCAK256 DUP1 SLOAD SWAP3 SWAP4 POP SWAP2 AND PUSH2 0xFBE JUMPI PUSH1 0x40 MLOAD PUSH3 0x461BCD PUSH1 0xE5 SHL DUP2 MSTORE PUSH1 0x20 PUSH1 0x4 DUP3 ADD MSTORE PUSH1 0x15 PUSH1 0x24 DUP3 ADD MSTORE PUSH21 0x2AB739BAB83837B93A32B2103332B2903A37B5B2B7 PUSH1 0x59 SHL PUSH1 0x44 DUP3 ADD MSTORE PUSH1 0x64 ADD PUSH2 0x2F3 JUMP JUMPDEST PUSH2 0xFC7 DUP2 PUSH2 0x109B JUMP JUMPDEST SWAP5 SWAP4 POP POP POP POP JUMP JUMPDEST PUSH1 0x0 DUP1 PUSH2 0xFDA PUSH2 0x101C JUMP JUMPDEST PUSH1 0x1 PUSH1 0x1 PUSH1 0xA0 SHL SUB DUP6 AND PUSH1 0x0 SWAP1 DUP2 MSTORE PUSH1 0x26 DUP3 ADD PUSH1 0x20 MSTORE PUSH1 0x40 DUP2 KECCAK256 SWAP2 SWAP3 POP PUSH2 0x1000 DUP3 PUSH2 0x109B JUMP JUMPDEST SWAP1 POP PUSH1 0x0 PUSH2 0x1010 DUP5 DUP9 DUP5 DUP10 PUSH2 0x120A JUMP JUMPDEST POP SWAP8 SWAP7 POP POP POP POP POP POP POP JUMP JUMPDEST PUSH32 0xBFA76EC2967ED7F8D3D40CD552F1451AB03573B596BFCE931A6A016F7733078C SWAP1 JUMP JUMPDEST PUSH2 0x1096 DUP4 PUSH4 0xA9059CBB PUSH1 0xE0 SHL DUP5 DUP5 PUSH1 0x40 MLOAD PUSH1 0x24 ADD PUSH2 0x105F SWAP3 SWAP2 SWAP1 PUSH2 0x1AFB JUMP JUMPDEST PUSH1 0x40 DUP1 MLOAD PUSH1 0x1F NOT DUP2 DUP5 SUB ADD DUP2 MSTORE SWAP2 SWAP1 MSTORE PUSH1 0x20 DUP2 ADD DUP1 MLOAD PUSH1 0x1 PUSH1 0x1 PUSH1 0xE0 SHL SUB AND PUSH1 0x1 PUSH1 0x1 PUSH1 0xE0 SHL SUB NOT SWAP1 SWAP4 AND SWAP3 SWAP1 SWAP3 OR SWAP1 SWAP2 MSTORE PUSH2 0x1416 JUMP JUMPDEST POP POP POP JUMP JUMPDEST PUSH1 0x0 DUP1 PUSH1 0x0 DUP4 PUSH1 0x0 ADD PUSH1 0x0 SWAP1 SLOAD SWAP1 PUSH2 0x100 EXP SWAP1 DIV PUSH1 0x1 PUSH1 0x1 PUSH1 0xA0 SHL SUB AND PUSH1 0x1 PUSH1 0x1 PUSH1 0xA0 SHL SUB AND PUSH4 0xFEAF968C PUSH1 0x40 MLOAD DUP2 PUSH4 0xFFFFFFFF AND PUSH1 0xE0 SHL DUP2 MSTORE PUSH1 0x4 ADD PUSH1 0xA0 PUSH1 0x40 MLOAD DUP1 DUP4 SUB DUP2 DUP7 GAS STATICCALL ISZERO DUP1 ISZERO PUSH2 0x10F5 JUMPI RETURNDATASIZE PUSH1 0x0 DUP1 RETURNDATACOPY RETURNDATASIZE PUSH1 0x0 REVERT JUMPDEST POP POP POP POP PUSH1 0x40 MLOAD RETURNDATASIZE PUSH1 0x1F NOT PUSH1 0x1F DUP3 ADD AND DUP3 ADD DUP1 PUSH1 0x40 MSTORE POP DUP2 ADD SWAP1 PUSH2 0x1119 SWAP2 SWAP1 PUSH2 0x1CFB JUMP JUMPDEST POP SWAP4 POP POP SWAP3 POP POP PUSH1 0x0 DUP3 SGT PUSH2 0x116A JUMPI PUSH1 0x40 MLOAD PUSH3 0x461BCD PUSH1 0xE5 SHL DUP2 MSTORE PUSH1 0x20 PUSH1 0x4 DUP3 ADD MSTORE PUSH1 0x17 PUSH1 0x24 DUP3 ADD MSTORE PUSH23 0x4E6F207072696365206461746120617661696C61626C65 PUSH1 0x48 SHL PUSH1 0x44 DUP3 ADD MSTORE PUSH1 0x64 ADD PUSH2 0x2F3 JUMP JUMPDEST PUSH1 0x0 PUSH2 0x258 PUSH2 0x117C PUSH3 0x15180 TIMESTAMP PUSH2 0x1D4B JUMP JUMPDEST PUSH2 0x1186 SWAP2 SWAP1 PUSH2 0x1D4B JUMP JUMPDEST SWAP1 POP DUP1 DUP3 GT PUSH2 0x11CA JUMPI PUSH1 0x40 MLOAD PUSH3 0x461BCD PUSH1 0xE5 SHL DUP2 MSTORE PUSH1 0x20 PUSH1 0x4 DUP3 ADD MSTORE PUSH1 0x10 PUSH1 0x24 DUP3 ADD MSTORE PUSH16 0x5374616C652070726963652064617461 PUSH1 0x80 SHL PUSH1 0x44 DUP3 ADD MSTORE PUSH1 0x64 ADD PUSH2 0x2F3 JUMP JUMPDEST DUP5 SLOAD PUSH2 0x11E1 SWAP1 PUSH1 0x1 PUSH1 0xA0 SHL SWAP1 DIV PUSH1 0xFF AND PUSH1 0xA PUSH2 0x1C91 JUMP JUMPDEST PUSH2 0x11F7 PUSH9 0x327CB2734119D3B7A9 PUSH1 0x1E SHL DUP6 PUSH2 0x1B6C JUMP JUMPDEST PUSH2 0x1201 SWAP2 SWAP1 PUSH2 0x1B99 JUMP JUMPDEST SWAP6 SWAP5 POP POP POP POP POP JUMP JUMPDEST PUSH1 0x0 DUP2 DUP1 DUP3 SUB PUSH2 0x1284 JUMPI PUSH1 0x40 MLOAD PUSH4 0x70A08231 PUSH1 0xE0 SHL DUP2 MSTORE PUSH1 0x1 PUSH1 0x1 PUSH1 0xA0 SHL SUB DUP7 AND SWAP1 PUSH4 0x70A08231 SWAP1 PUSH2 0x1240 SWAP1 ADDRESS SWAP1 PUSH1 0x4 ADD PUSH2 0x1967 JUMP JUMPDEST PUSH1 0x20 PUSH1 0x40 MLOAD DUP1 DUP4 SUB DUP2 DUP7 GAS STATICCALL ISZERO DUP1 ISZERO PUSH2 0x125D JUMPI RETURNDATASIZE PUSH1 0x0 DUP1 RETURNDATACOPY RETURNDATASIZE PUSH1 0x0 REVERT JUMPDEST POP POP POP POP PUSH1 0x40 MLOAD RETURNDATASIZE PUSH1 0x1F NOT PUSH1 0x1F DUP3 ADD AND DUP3 ADD DUP1 PUSH1 0x40 MSTORE POP DUP2 ADD SWAP1 PUSH2 0x1281 SWAP2 SWAP1 PUSH2 0x1AE2 JUMP JUMPDEST SWAP1 POP JUMPDEST PUSH3 0xF4240 PUSH2 0x1292 DUP6 DUP4 PUSH2 0x1B6C JUMP JUMPDEST PUSH2 0x129C SWAP2 SWAP1 PUSH2 0x1B6C JUMP JUMPDEST PUSH1 0x1 PUSH1 0x1 PUSH1 0xA0 SHL SUB DUP7 AND PUSH1 0x0 SWAP1 DUP2 MSTORE PUSH1 0x25 DUP9 ADD PUSH1 0x20 MSTORE PUSH1 0x40 SWAP1 KECCAK256 SLOAD SWAP1 SWAP3 POP PUSH9 0x327CB2734119D3B7A9 PUSH1 0x1E SHL SWAP1 PUSH2 0x12D6 SWAP1 PUSH1 0xFF AND PUSH1 0xA PUSH2 0x1C91 JUMP JUMPDEST PUSH2 0x12E0 SWAP2 SWAP1 PUSH2 0x1B6C JUMP JUMPDEST PUSH2 0x12EA SWAP1 DUP4 PUSH2 0x1B99 JUMP JUMPDEST SWAP2 POP SWAP5 POP SWAP5 SWAP3 POP POP POP JUMP JUMPDEST PUSH1 0x0 PUSH2 0x12FF PUSH2 0x101C JUMP JUMPDEST PUSH1 0x6 DUP2 ADD DUP1 SLOAD TIMESTAMP SWAP1 SWAP2 SSTORE SWAP1 SWAP2 POP DUP3 DUP2 ISZERO DUP1 ISZERO SWAP1 PUSH2 0x1328 JUMPI POP PUSH2 0x1324 PUSH3 0x15180 TIMESTAMP PUSH2 0x1D4B JUMP JUMPDEST DUP3 GT ISZERO JUMPDEST ISZERO PUSH2 0x1340 JUMPI PUSH2 0x133B PUSH1 0xD DUP5 ADD PUSH1 0x0 PUSH2 0x1944 JUMP JUMPDEST PUSH2 0x13F1 JUMP JUMPDEST PUSH1 0x0 PUSH2 0xE10 PUSH2 0x1352 PUSH3 0x15180 TIMESTAMP PUSH2 0x1D5E JUMP JUMPDEST PUSH2 0x135C SWAP2 SWAP1 PUSH2 0x1B99 JUMP JUMPDEST SWAP1 POP PUSH1 0x0 PUSH1 0x18 PUSH1 0x1 DUP4 ADD MOD SWAP1 POP PUSH1 0x0 DUP6 PUSH1 0xD ADD DUP3 PUSH1 0x18 DUP2 LT PUSH2 0x1380 JUMPI PUSH2 0x1380 PUSH2 0x1B14 JUMP JUMPDEST ADD SLOAD SWAP1 POP PUSH1 0x0 DUP7 PUSH1 0xD ADD DUP4 PUSH1 0x18 DUP2 LT PUSH2 0x139B JUMPI PUSH2 0x139B PUSH2 0x1B14 JUMP JUMPDEST ADD SSTORE DUP7 PUSH1 0xD DUP8 ADD DUP5 PUSH1 0x18 DUP2 LT PUSH2 0x13B3 JUMPI PUSH2 0x13B3 PUSH2 0x1B14 JUMP JUMPDEST ADD PUSH1 0x0 DUP3 DUP3 SLOAD PUSH2 0x13C3 SWAP2 SWAP1 PUSH2 0x1B40 JUMP JUMPDEST SWAP1 SWAP2 SSTORE POP POP PUSH1 0x5 DUP7 ADD SLOAD PUSH2 0x13D8 SWAP1 DUP9 SWAP1 PUSH2 0x1B40 JUMP JUMPDEST SWAP4 POP DUP1 ISZERO PUSH2 0x13ED JUMPI PUSH2 0x13EA DUP2 DUP6 PUSH2 0x1D4B JUMP JUMPDEST SWAP4 POP JUMPDEST POP POP POP JUMPDEST PUSH1 0x5 DUP4 ADD DUP2 SWAP1 SSTORE PUSH2 0x1410 DUP4 PUSH2 0x140B PUSH5 0xE8D4A51000 DUP5 PUSH2 0x1B99 JUMP JUMPDEST PUSH2 0x14E8 JUMP JUMPDEST POP POP POP POP JUMP JUMPDEST PUSH1 0x0 PUSH2 0x146B DUP3 PUSH1 0x40 MLOAD DUP1 PUSH1 0x40 ADD PUSH1 0x40 MSTORE DUP1 PUSH1 0x20 DUP2 MSTORE PUSH1 0x20 ADD PUSH32 0x5361666545524332303A206C6F772D6C6576656C2063616C6C206661696C6564 DUP2 MSTORE POP DUP6 PUSH1 0x1 PUSH1 0x1 PUSH1 0xA0 SHL SUB AND PUSH2 0x1552 SWAP1 SWAP3 SWAP2 SWAP1 PUSH4 0xFFFFFFFF AND JUMP JUMPDEST DUP1 MLOAD SWAP1 SWAP2 POP ISZERO PUSH2 0x1096 JUMPI DUP1 DUP1 PUSH1 0x20 ADD SWAP1 MLOAD DUP2 ADD SWAP1 PUSH2 0x1489 SWAP2 SWAP1 PUSH2 0x1D72 JUMP JUMPDEST PUSH2 0x1096 JUMPI PUSH1 0x40 MLOAD PUSH3 0x461BCD PUSH1 0xE5 SHL DUP2 MSTORE PUSH1 0x20 PUSH1 0x4 DUP3 ADD MSTORE PUSH1 0x2A PUSH1 0x24 DUP3 ADD MSTORE PUSH32 0x5361666545524332303A204552433230206F7065726174696F6E20646964206E PUSH1 0x44 DUP3 ADD MSTORE PUSH10 0x1BDD081CDD58D8D95959 PUSH1 0xB2 SHL PUSH1 0x64 DUP3 ADD MSTORE PUSH1 0x84 ADD PUSH2 0x2F3 JUMP JUMPDEST PUSH1 0x40 DUP1 MLOAD PUSH1 0x80 DUP2 ADD DUP3 MSTORE PUSH1 0x9 DUP5 ADD SLOAD PUSH2 0xFFFF DUP1 DUP3 AND DUP4 MSTORE PUSH3 0x10000 SWAP1 SWAP2 DIV DUP2 AND PUSH1 0x20 DUP4 ADD DUP2 SWAP1 MSTORE PUSH1 0xA DUP7 ADD SLOAD SWAP4 DUP4 ADD SWAP4 SWAP1 SWAP4 MSTORE PUSH1 0xB DUP6 ADD SLOAD PUSH1 0x60 DUP4 ADD MSTORE SWAP1 SWAP2 SWAP1 DUP4 AND LT PUSH2 0x1539 JUMPI PUSH2 0x1096 DUP4 DUP4 PUSH2 0x1561 JUMP JUMPDEST DUP1 MLOAD PUSH2 0xFFFF DUP1 DUP5 AND SWAP2 AND LT PUSH2 0x1096 JUMPI PUSH2 0x1096 DUP4 DUP4 PUSH2 0x1687 JUMP JUMPDEST PUSH1 0x60 PUSH2 0xFC7 DUP5 DUP5 PUSH1 0x0 DUP6 PUSH2 0x179B JUMP JUMPDEST PUSH1 0x40 DUP1 MLOAD PUSH1 0x80 DUP2 ADD DUP3 MSTORE PUSH1 0x9 DUP5 ADD SLOAD PUSH2 0xFFFF DUP1 DUP3 AND DUP4 MSTORE PUSH3 0x10000 SWAP1 SWAP2 DIV AND PUSH1 0x20 DUP3 ADD MSTORE PUSH1 0xA DUP5 ADD SLOAD SWAP2 DUP2 ADD SWAP2 SWAP1 SWAP2 MSTORE PUSH1 0xB DUP4 ADD SLOAD PUSH1 0x60 DUP3 ADD MSTORE JUMPDEST PUSH2 0x15A6 DUP2 DUP4 PUSH2 0x1876 JUMP JUMPDEST PUSH2 0x1632 JUMPI PUSH1 0x0 DUP4 PUSH1 0xC ADD DUP3 PUSH1 0x60 ADD MLOAD PUSH1 0x1 PUSH2 0x15C1 SWAP2 SWAP1 PUSH2 0x1B40 JUMP JUMPDEST DUP2 SLOAD DUP2 LT PUSH2 0x15D1 JUMPI PUSH2 0x15D1 PUSH2 0x1B14 JUMP JUMPDEST SWAP1 PUSH1 0x0 MSTORE PUSH1 0x20 PUSH1 0x0 KECCAK256 SWAP1 PUSH1 0x3 MUL ADD SWAP1 POP DUP1 PUSH1 0x1 ADD SLOAD PUSH1 0x0 SUB PUSH2 0x15F3 JUMPI POP PUSH2 0x1632 JUMP JUMPDEST PUSH1 0x40 DUP1 MLOAD PUSH1 0x80 DUP2 ADD DUP3 MSTORE DUP3 SLOAD PUSH2 0xFFFF DUP1 DUP3 AND DUP4 MSTORE PUSH3 0x10000 SWAP1 SWAP2 DIV AND PUSH1 0x20 DUP3 ADD MSTORE PUSH1 0x1 DUP4 ADD SLOAD SWAP2 DUP2 ADD SWAP2 SWAP1 SWAP2 MSTORE PUSH1 0x2 SWAP1 SWAP2 ADD SLOAD PUSH1 0x60 DUP3 ADD MSTORE SWAP1 POP PUSH2 0x159C JUMP JUMPDEST PUSH1 0x40 DUP2 ADD MLOAD PUSH1 0xA DUP5 ADD SLOAD EQ PUSH2 0x1096 JUMPI DUP1 MLOAD PUSH1 0x9 DUP5 ADD DUP1 SLOAD PUSH1 0x20 DUP5 ADD MLOAD PUSH2 0xFFFF SWAP1 DUP2 AND PUSH3 0x10000 MUL PUSH4 0xFFFFFFFF NOT SWAP1 SWAP3 AND SWAP4 AND SWAP3 SWAP1 SWAP3 OR SWAP2 SWAP1 SWAP2 OR SWAP1 SSTORE PUSH1 0x40 DUP2 ADD MLOAD PUSH1 0xA DUP5 ADD SSTORE PUSH1 0x60 DUP2 ADD MLOAD PUSH1 0xB DUP5 ADD SSTORE POP POP POP JUMP JUMPDEST PUSH1 0x40 DUP1 MLOAD PUSH1 0x80 DUP2 ADD DUP3 MSTORE PUSH1 0x9 DUP5 ADD SLOAD PUSH2 0xFFFF DUP1 DUP3 AND DUP4 MSTORE PUSH3 0x10000 SWAP1 SWAP2 DIV AND PUSH1 0x20 DUP3 ADD MSTORE PUSH1 0xA DUP5 ADD SLOAD SWAP2 DUP2 ADD SWAP2 SWAP1 SWAP2 MSTORE PUSH1 0xB DUP4 ADD SLOAD PUSH1 0x60 DUP3 ADD MSTORE JUMPDEST PUSH2 0x16CC DUP2 DUP4 PUSH2 0x1876 JUMP JUMPDEST PUSH2 0x1754 JUMPI PUSH1 0x60 DUP2 ADD MLOAD ISZERO PUSH2 0x1754 JUMPI PUSH1 0x0 DUP4 PUSH1 0xC ADD PUSH1 0x1 DUP4 PUSH1 0x60 ADD MLOAD PUSH2 0x16F1 SWAP2 SWAP1 PUSH2 0x1D4B JUMP JUMPDEST DUP2 SLOAD DUP2 LT PUSH2 0x1701 JUMPI PUSH2 0x1701 PUSH2 0x1B14 JUMP JUMPDEST PUSH1 0x0 SWAP2 DUP3 MSTORE PUSH1 0x20 SWAP2 DUP3 SWAP1 KECCAK256 PUSH1 0x40 DUP1 MLOAD PUSH1 0x80 DUP2 ADD DUP3 MSTORE PUSH1 0x3 SWAP1 SWAP4 MUL SWAP1 SWAP2 ADD DUP1 SLOAD PUSH2 0xFFFF DUP1 DUP3 AND DUP6 MSTORE PUSH3 0x10000 SWAP1 SWAP2 DIV AND SWAP4 DUP4 ADD SWAP4 SWAP1 SWAP4 MSTORE PUSH1 0x1 DUP4 ADD SLOAD SWAP1 DUP3 ADD MSTORE PUSH1 0x2 SWAP1 SWAP2 ADD SLOAD PUSH1 0x60 DUP3 ADD MSTORE SWAP2 POP PUSH2 0x16C2 SWAP1 POP JUMP JUMPDEST DUP1 MLOAD PUSH1 0x9 DUP5 ADD DUP1 SLOAD PUSH1 0x20 DUP5 ADD MLOAD PUSH2 0xFFFF SWAP1 DUP2 AND PUSH3 0x10000 MUL PUSH4 0xFFFFFFFF NOT SWAP1 SWAP3 AND SWAP4 AND SWAP3 SWAP1 SWAP3 OR SWAP2 SWAP1 SWAP2 OR SWAP1 SSTORE PUSH1 0x40 DUP2 ADD MLOAD PUSH1 0xA DUP5 ADD SSTORE PUSH1 0x60 ADD MLOAD PUSH1 0xB SWAP1 SWAP3 ADD SWAP2 SWAP1 SWAP2 SSTORE POP JUMP JUMPDEST PUSH1 0x60 DUP3 SELFBALANCE LT ISZERO PUSH2 0x17FC JUMPI PUSH1 0x40 MLOAD PUSH3 0x461BCD PUSH1 0xE5 SHL DUP2 MSTORE PUSH1 0x20 PUSH1 0x4 DUP3 ADD MSTORE PUSH1 0x26 PUSH1 0x24 DUP3 ADD MSTORE PUSH32 0x416464726573733A20696E73756666696369656E742062616C616E636520666F PUSH1 0x44 DUP3 ADD MSTORE PUSH6 0x1C8818D85B1B PUSH1 0xD2 SHL PUSH1 0x64 DUP3 ADD MSTORE PUSH1 0x84 ADD PUSH2 0x2F3 JUMP JUMPDEST PUSH1 0x0 DUP1 DUP7 PUSH1 0x1 PUSH1 0x1 PUSH1 0xA0 SHL SUB AND DUP6 DUP8 PUSH1 0x40 MLOAD PUSH2 0x1818 SWAP2 SWAP1 PUSH2 0x1DB8 JUMP JUMPDEST PUSH1 0x0 PUSH1 0x40 MLOAD DUP1 DUP4 SUB DUP2 DUP6 DUP8 GAS CALL SWAP3 POP POP POP RETURNDATASIZE DUP1 PUSH1 0x0 DUP2 EQ PUSH2 0x1855 JUMPI PUSH1 0x40 MLOAD SWAP2 POP PUSH1 0x1F NOT PUSH1 0x3F RETURNDATASIZE ADD AND DUP3 ADD PUSH1 0x40 MSTORE RETURNDATASIZE DUP3 MSTORE RETURNDATASIZE PUSH1 0x0 PUSH1 0x20 DUP5 ADD RETURNDATACOPY PUSH2 0x185A JUMP JUMPDEST PUSH1 0x60 SWAP2 POP JUMPDEST POP SWAP2 POP SWAP2 POP PUSH2 0x186B DUP8 DUP4 DUP4 DUP8 PUSH2 0x18A6 JUMP JUMPDEST SWAP8 SWAP7 POP POP POP POP POP POP POP JUMP JUMPDEST PUSH1 0x0 DUP2 PUSH2 0xFFFF AND DUP4 PUSH1 0x0 ADD MLOAD PUSH2 0xFFFF AND GT ISZERO DUP1 ISZERO PUSH2 0x189F JUMPI POP DUP3 PUSH1 0x20 ADD MLOAD PUSH2 0xFFFF AND DUP3 PUSH2 0xFFFF AND LT JUMPDEST SWAP4 SWAP3 POP POP POP JUMP JUMPDEST PUSH1 0x60 DUP4 ISZERO PUSH2 0x1915 JUMPI DUP3 MLOAD PUSH1 0x0 SUB PUSH2 0x190E JUMPI PUSH1 0x1 PUSH1 0x1 PUSH1 0xA0 SHL SUB DUP6 AND EXTCODESIZE PUSH2 0x190E JUMPI PUSH1 0x40 MLOAD PUSH3 0x461BCD PUSH1 0xE5 SHL DUP2 MSTORE PUSH1 0x20 PUSH1 0x4 DUP3 ADD MSTORE PUSH1 0x1D PUSH1 0x24 DUP3 ADD MSTORE PUSH32 0x416464726573733A2063616C6C20746F206E6F6E2D636F6E7472616374000000 PUSH1 0x44 DUP3 ADD MSTORE PUSH1 0x64 ADD PUSH2 0x2F3 JUMP JUMPDEST POP DUP2 PUSH2 0xFC7 JUMP JUMPDEST PUSH2 0xFC7 DUP4 DUP4 DUP2 MLOAD ISZERO PUSH2 0x192A JUMPI DUP2 MLOAD DUP1 DUP4 PUSH1 0x20 ADD REVERT JUMPDEST DUP1 PUSH1 0x40 MLOAD PUSH3 0x461BCD PUSH1 0xE5 SHL DUP2 MSTORE PUSH1 0x4 ADD PUSH2 0x2F3 SWAP2 SWAP1 PUSH2 0x1DD4 JUMP JUMPDEST POP PUSH2 0x28F SWAP1 PUSH1 0x18 DUP2 ADD SWAP1 JUMPDEST DUP1 DUP3 GT ISZERO PUSH2 0x1963 JUMPI PUSH1 0x0 DUP2 SSTORE PUSH1 0x1 ADD PUSH2 0x194F JUMP JUMPDEST POP SWAP1 JUMP JUMPDEST PUSH1 0x1 PUSH1 0x1 PUSH1 0xA0 SHL SUB SWAP2 SWAP1 SWAP2 AND DUP2 MSTORE PUSH1 0x20 ADD SWAP1 JUMP JUMPDEST PUSH1 0x1 PUSH1 0x1 PUSH1 0xA0 SHL SUB DUP2 AND DUP2 EQ PUSH2 0x28F JUMPI PUSH1 0x0 DUP1 REVERT JUMPDEST PUSH1 0x0 DUP1 PUSH1 0x0 PUSH1 0x60 DUP5 DUP7 SUB SLT ISZERO PUSH2 0x19A5 JUMPI PUSH1 0x0 DUP1 REVERT JUMPDEST DUP4 CALLDATALOAD PUSH2 0x19B0 DUP2 PUSH2 0x197B JUMP JUMPDEST SWAP6 PUSH1 0x20 DUP6 ADD CALLDATALOAD SWAP6 POP PUSH1 0x40 SWAP1 SWAP5 ADD CALLDATALOAD SWAP4 SWAP3 POP POP POP JUMP JUMPDEST PUSH1 0x0 DUP1 PUSH1 0x40 DUP4 DUP6 SUB SLT ISZERO PUSH2 0x19D8 JUMPI PUSH1 0x0 DUP1 REVERT JUMPDEST DUP3 CALLDATALOAD PUSH2 0x19E3 DUP2 PUSH2 0x197B JUMP JUMPDEST SWAP5 PUSH1 0x20 SWAP4 SWAP1 SWAP4 ADD CALLDATALOAD SWAP4 POP POP POP JUMP JUMPDEST PUSH1 0x0 PUSH1 0x20 DUP3 DUP5 SUB SLT ISZERO PUSH2 0x1A03 JUMPI PUSH1 0x0 DUP1 REVERT JUMPDEST DUP2 CALLDATALOAD PUSH2 0x189F DUP2 PUSH2 0x197B JUMP JUMPDEST PUSH1 0x20 DUP1 DUP3 MSTORE DUP3 MLOAD DUP3 DUP3 ADD DUP2 SWAP1 MSTORE PUSH1 0x0 SWAP2 SWAP1 PUSH1 0x40 SWAP1 DUP2 DUP6 ADD SWAP1 DUP7 DUP5 ADD DUP6 JUMPDEST DUP3 DUP2 LT ISZERO PUSH2 0x1A6E JUMPI DUP2 MLOAD DUP1 MLOAD PUSH1 0x1 PUSH1 0x1 PUSH1 0xA0 SHL SUB AND DUP6 MSTORE DUP7 DUP2 ADD MLOAD DUP8 DUP7 ADD MSTORE DUP6 DUP2 ADD MLOAD DUP7 DUP7 ADD MSTORE PUSH1 0x60 SWAP1 DUP2 ADD MLOAD SWAP1 DUP6 ADD MSTORE PUSH1 0x80 SWAP1 SWAP4 ADD SWAP3 SWAP1 DUP6 ADD SWAP1 PUSH1 0x1 ADD PUSH2 0x1A2B JUMP JUMPDEST POP SWAP2 SWAP8 SWAP7 POP POP POP POP POP POP POP JUMP JUMPDEST PUSH1 0x0 DUP1 PUSH1 0x0 PUSH1 0x60 DUP5 DUP7 SUB SLT ISZERO PUSH2 0x1A90 JUMPI PUSH1 0x0 DUP1 REVERT JUMPDEST DUP4 CALLDATALOAD PUSH2 0x1A9B DUP2 PUSH2 0x197B JUMP JUMPDEST SWAP3 POP PUSH1 0x20 DUP5 ADD CALLDATALOAD PUSH2 0x1AAB DUP2 PUSH2 0x197B JUMP JUMPDEST SWAP3 SWAP6 SWAP3 SWAP5 POP POP POP PUSH1 0x40 SWAP2 SWAP1 SWAP2 ADD CALLDATALOAD SWAP1 JUMP JUMPDEST PUSH1 0x20 DUP1 DUP3 MSTORE PUSH1 0xC SWAP1 DUP3 ADD MSTORE PUSH12 0x155B985D5D1A1BDC9A5E9959 PUSH1 0xA2 SHL PUSH1 0x40 DUP3 ADD MSTORE PUSH1 0x60 ADD SWAP1 JUMP JUMPDEST PUSH1 0x0 PUSH1 0x20 DUP3 DUP5 SUB SLT ISZERO PUSH2 0x1AF4 JUMPI PUSH1 0x0 DUP1 REVERT JUMPDEST POP MLOAD SWAP2 SWAP1 POP JUMP JUMPDEST PUSH1 0x1 PUSH1 0x1 PUSH1 0xA0 SHL SUB SWAP3 SWAP1 SWAP3 AND DUP3 MSTORE PUSH1 0x20 DUP3 ADD MSTORE PUSH1 0x40 ADD SWAP1 JUMP JUMPDEST PUSH4 0x4E487B71 PUSH1 0xE0 SHL PUSH1 0x0 MSTORE PUSH1 0x32 PUSH1 0x4 MSTORE PUSH1 0x24 PUSH1 0x0 REVERT JUMPDEST PUSH4 0x4E487B71 PUSH1 0xE0 SHL PUSH1 0x0 MSTORE PUSH1 0x11 PUSH1 0x4 MSTORE PUSH1 0x24 PUSH1 0x0 REVERT JUMPDEST DUP1 DUP3 ADD DUP1 DUP3 GT ISZERO PUSH2 0x7FB JUMPI PUSH2 0x7FB PUSH2 0x1B2A JUMP JUMPDEST PUSH1 0x0 PUSH1 0x1 DUP3 ADD PUSH2 0x1B65 JUMPI PUSH2 0x1B65 PUSH2 0x1B2A JUMP JUMPDEST POP PUSH1 0x1 ADD SWAP1 JUMP JUMPDEST DUP1 DUP3 MUL DUP2 ISZERO DUP3 DUP3 DIV DUP5 EQ OR PUSH2 0x7FB JUMPI PUSH2 0x7FB PUSH2 0x1B2A JUMP JUMPDEST PUSH4 0x4E487B71 PUSH1 0xE0 SHL PUSH1 0x0 MSTORE PUSH1 0x12 PUSH1 0x4 MSTORE PUSH1 0x24 PUSH1 0x0 REVERT JUMPDEST PUSH1 0x0 DUP3 PUSH2 0x1BA8 JUMPI PUSH2 0x1BA8 PUSH2 0x1B83 JUMP JUMPDEST POP DIV SWAP1 JUMP JUMPDEST PUSH1 0x1 DUP2 DUP2 JUMPDEST DUP1 DUP6 GT ISZERO PUSH2 0x1BE8 JUMPI DUP2 PUSH1 0x0 NOT DIV DUP3 GT ISZERO PUSH2 0x1BCE JUMPI PUSH2 0x1BCE PUSH2 0x1B2A JUMP JUMPDEST DUP1 DUP6 AND ISZERO PUSH2 0x1BDB JUMPI SWAP2 DUP2 MUL SWAP2 JUMPDEST SWAP4 DUP5 SHR SWAP4 SWAP1 DUP1 MUL SWAP1 PUSH2 0x1BB2 JUMP JUMPDEST POP SWAP3 POP SWAP3 SWAP1 POP JUMP JUMPDEST PUSH1 0x0 DUP3 PUSH2 0x1BFF JUMPI POP PUSH1 0x1 PUSH2 0x7FB JUMP JUMPDEST DUP2 PUSH2 0x1C0C JUMPI POP PUSH1 0x0 PUSH2 0x7FB JUMP JUMPDEST DUP2 PUSH1 0x1 DUP2 EQ PUSH2 0x1C22 JUMPI PUSH1 0x2 DUP2 EQ PUSH2 0x1C2C JUMPI PUSH2 0x1C48 JUMP JUMPDEST PUSH1 0x1 SWAP2 POP POP PUSH2 0x7FB JUMP JUMPDEST PUSH1 0xFF DUP5 GT ISZERO PUSH2 0x1C3D JUMPI PUSH2 0x1C3D PUSH2 0x1B2A JUMP JUMPDEST POP POP PUSH1 0x1 DUP3 SHL PUSH2 0x7FB JUMP JUMPDEST POP PUSH1 0x20 DUP4 LT PUSH2 0x133 DUP4 LT AND PUSH1 0x4E DUP5 LT PUSH1 0xB DUP5 LT AND OR ISZERO PUSH2 0x1C6B JUMPI POP DUP2 DUP2 EXP PUSH2 0x7FB JUMP JUMPDEST PUSH2 0x1C75 DUP4 DUP4 PUSH2 0x1BAD JUMP JUMPDEST DUP1 PUSH1 0x0 NOT DIV DUP3 GT ISZERO PUSH2 0x1C89 JUMPI PUSH2 0x1C89 PUSH2 0x1B2A JUMP JUMPDEST MUL SWAP4 SWAP3 POP POP POP JUMP JUMPDEST PUSH1 0x0 PUSH2 0x189F PUSH1 0xFF DUP5 AND DUP4 PUSH2 0x1BF0 JUMP JUMPDEST PUSH1 0x0 PUSH1 0x20 DUP3 DUP5 SUB SLT ISZERO PUSH2 0x1CB2 JUMPI PUSH1 0x0 DUP1 REVERT JUMPDEST DUP2 MLOAD PUSH4 0xFFFFFFFF DUP2 AND DUP2 EQ PUSH2 0x189F JUMPI PUSH1 0x0 DUP1 REVERT JUMPDEST PUSH4 0x4E487B71 PUSH1 0xE0 SHL PUSH1 0x0 MSTORE PUSH1 0x41 PUSH1 0x4 MSTORE PUSH1 0x24 PUSH1 0x0 REVERT JUMPDEST DUP1 MLOAD PUSH10 0xFFFFFFFFFFFFFFFFFFFF DUP2 AND DUP2 EQ PUSH2 0x1CF6 JUMPI PUSH1 0x0 DUP1 REVERT JUMPDEST SWAP2 SWAP1 POP JUMP JUMPDEST PUSH1 0x0 DUP1 PUSH1 0x0 DUP1 PUSH1 0x0 PUSH1 0xA0 DUP7 DUP9 SUB SLT ISZERO PUSH2 0x1D13 JUMPI PUSH1 0x0 DUP1 REVERT JUMPDEST PUSH2 0x1D1C DUP7 PUSH2 0x1CDC JUMP JUMPDEST SWAP5 POP PUSH1 0x20 DUP7 ADD MLOAD SWAP4 POP PUSH1 0x40 DUP7 ADD MLOAD SWAP3 POP PUSH1 0x60 DUP7 ADD MLOAD SWAP2 POP PUSH2 0x1D3F PUSH1 0x80 DUP8 ADD PUSH2 0x1CDC JUMP JUMPDEST SWAP1 POP SWAP3 SWAP6 POP SWAP3 SWAP6 SWAP1 SWAP4 POP JUMP JUMPDEST DUP2 DUP2 SUB DUP2 DUP2 GT ISZERO PUSH2 0x7FB JUMPI PUSH2 0x7FB PUSH2 0x1B2A JUMP JUMPDEST PUSH1 0x0 DUP3 PUSH2 0x1D6D JUMPI PUSH2 0x1D6D PUSH2 0x1B83 JUMP JUMPDEST POP MOD SWAP1 JUMP JUMPDEST PUSH1 0x0 PUSH1 0x20 DUP3 DUP5 SUB SLT ISZERO PUSH2 0x1D84 JUMPI PUSH1 0x0 DUP1 REVERT JUMPDEST DUP2 MLOAD DUP1 ISZERO ISZERO DUP2 EQ PUSH2 0x189F JUMPI PUSH1 0x0 DUP1 REVERT JUMPDEST PUSH1 0x0 JUMPDEST DUP4 DUP2 LT ISZERO PUSH2 0x1DAF JUMPI DUP2 DUP2 ADD MLOAD DUP4 DUP3 ADD MSTORE PUSH1 0x20 ADD PUSH2 0x1D97 JUMP JUMPDEST POP POP PUSH1 0x0 SWAP2 ADD MSTORE JUMP JUMPDEST PUSH1 0x0 DUP3 MLOAD PUSH2 0x1DCA DUP2 DUP5 PUSH1 0x20 DUP8 ADD PUSH2 0x1D94 JUMP JUMPDEST SWAP2 SWAP1 SWAP2 ADD SWAP3 SWAP2 POP POP JUMP JUMPDEST PUSH1 0x20 DUP2 MSTORE PUSH1 0x0 DUP3 MLOAD DUP1 PUSH1 0x20 DUP5 ADD MSTORE PUSH2 0x1DF3 DUP2 PUSH1 0x40 DUP6 ADD PUSH1 0x20 DUP8 ADD PUSH2 0x1D94 JUMP JUMPDEST PUSH1 0x1F ADD PUSH1 0x1F NOT AND SWAP2 SWAP1 SWAP2 ADD PUSH1 0x40 ADD SWAP3 SWAP2 POP POP JUMP INVALID LOG2 PUSH5 0x6970667358 0x22 SLT KECCAK256 PUSH2 0x112 0xE RETURNDATACOPY BYTE DUP15 SWAP15 0xD0 DUP8 0xDF INVALID PUSH17 0xB08277DFD2B47D53B88E9E2A9C6949C84E INVALID PUSH1 0x64 PUSH20 0x6F6C634300081100330000000000000000000000 "},"gasEstimates":{"creation":{"codeDepositCost":"1548200","executionCost":"1617","totalCost":"1549817"},"external":{"adminMultiSig()":"2461","assets()":"infinite","aumUSD()":"infinite","baseMintThreshold()":"2415","computeVolumeUSD(address,uint256)":"infinite","convertGasToFeeToken(address,uint256)":"infinite","currentMintRateUSD()":"infinite","currentNavUSD()":"infinite","dailyVolumeUSD()":"2481","dexible()":"2455","discountBps()":"infinite","dxbl()":"2434","estimateRedemption(address,uint256)":"infinite","feeTokenPriceUSD(address)":"infinite","isFeeTokenAllowed(address)":"2733","migrateV1(address)":"infinite","pause()":"infinite","paused()":"2443","redeemDXBL(address,uint256,uint256)":"infinite","resume()":"infinite","rewardTrader(address,address,uint256)":"infinite","timelockSeconds()":"2425","wrappedNativeToken()":"2457"}},"methodIdentifiers":{"adminMultiSig()":"45c6a874","assets()":"71a97305","aumUSD()":"20529bb1","baseMintThreshold()":"56168843","computeVolumeUSD(address,uint256)":"f7406fc3","convertGasToFeeToken(address,uint256)":"3931f45d","currentMintRateUSD()":"41b5774a","currentNavUSD()":"5de11890","dailyVolumeUSD()":"82131470","dexible()":"a74aa566","discountBps()":"6c1f5633","dxbl()":"6162cb91","estimateRedemption(address,uint256)":"7262f557","feeTokenPriceUSD(address)":"ce25cb4d","isFeeTokenAllowed(address)":"5d204718","migrateV1(address)":"c76380b7","pause()":"8456cb59","paused()":"5c975abb","redeemDXBL(address,uint256,uint256)":"18ac3b15","resume()":"046f7da2","rewardTrader(address,address,uint256)":"ab1094c0","timelockSeconds()":"65a1f3c3","wrappedNativeToken()":"17fcb39b"}},"storageLayout":{"storage":[],"types":null},"userdoc":{"kind":"user","methods":{"discountBps()":{"notice":"Storage variable view functions"},"migrateV1(address)":{"notice":"Migrate the state of the vault to a new version. This will transfer all current state and transfer fee token balances as well. Note that "},"pause()":{"notice":"Used in emergency situations when we need to hault operations."},"rewardTrader(address,address,uint256)":{"notice":"Modification functions"}},"notice":"The community vault controls the supply of DXBL tokens. It has minting authority on the  token contract so it can request mints/burns on behalf of traders. The Dexible contract is the only address able to request DXBL rewards for trades being made through the protocol. This contract is not upgradeable or modifiable. However, if an upgrade/fork is necessary, the contract can be paused and migrated to a new version after a grace period and only  initiated from the admin multi-sig assigned to the vault.","version":1}}}}