{"contracts/vault/baseContracts/StorageView.sol":{"StorageView":{"abi":[{"inputs":[],"name":"adminMultiSig","outputs":[{"internalType":"address","name":"","type":"address"}],"stateMutability":"view","type":"function"},{"inputs":[],"name":"baseMintThreshold","outputs":[{"internalType":"uint256","name":"","type":"uint256"}],"stateMutability":"view","type":"function"},{"inputs":[],"name":"dailyVolumeUSD","outputs":[{"internalType":"uint256","name":"","type":"uint256"}],"stateMutability":"view","type":"function"},{"inputs":[],"name":"dexible","outputs":[{"internalType":"address","name":"","type":"address"}],"stateMutability":"view","type":"function"},{"inputs":[],"name":"discountBps","outputs":[{"internalType":"uint32","name":"","type":"uint32"}],"stateMutability":"view","type":"function"},{"inputs":[],"name":"dxbl","outputs":[{"internalType":"address","name":"","type":"address"}],"stateMutability":"view","type":"function"},{"inputs":[],"name":"paused","outputs":[{"internalType":"bool","name":"","type":"bool"}],"stateMutability":"view","type":"function"},{"inputs":[],"name":"timelockSeconds","outputs":[{"internalType":"uint32","name":"","type":"uint32"}],"stateMutability":"view","type":"function"},{"inputs":[],"name":"wrappedNativeToken","outputs":[{"internalType":"address","name":"","type":"address"}],"stateMutability":"view","type":"function"}],"devdoc":{"kind":"dev","methods":{},"version":1},"evm":{"bytecode":{"linkReferences":{},"object":"608060405234801561001057600080fd5b506102f9806100206000396000f3fe608060405234801561001057600080fd5b50600436106100835760003560e01c806317fcb39b1461008857806345c6a874146100ad57806356168843146100b55780635c975abb146100cb5780636162cb91146100e357806365a1f3c3146100eb5780636c1f5633146101085780638213147014610110578063a74aa56614610118575b600080fd5b610090610120565b6040516001600160a01b0390911681526020015b60405180910390f35b61009061013c565b6100bd61015a565b6040519081526020016100a4565b6100d361016d565b60405190151581526020016100a4565b610090610180565b6100f361019c565b60405163ffffffff90911681526020016100a4565b6100f36101bc565b6100bd610243565b610090610256565b600061012a610272565b600301546001600160a01b0316919050565b6000610146610272565b5461010090046001600160a01b0316919050565b6000610164610272565b60040154905090565b6000610177610272565b5460ff16919050565b600061018a610272565b600101546001600160a01b0316919050565b60006101a6610272565b60030154600160a01b900463ffffffff16919050565b60006101c6610272565b60010160009054906101000a90046001600160a01b03166001600160a01b031663566826d16040518163ffffffff1660e01b8152600401602060405180830381865afa15801561021a573d6000803e3d6000fd5b505050506040513d601f19601f8201168201806040525081019061023e9190610296565b905090565b600061024d610272565b60050154905090565b6000610260610272565b600201546001600160a01b0316919050565b7fbfa76ec2967ed7f8d3d40cd552f1451ab03573b596bfce931a6a016f7733078c90565b6000602082840312156102a857600080fd5b815163ffffffff811681146102bc57600080fd5b939250505056fea2646970667358221220d9ae53243357a295490367d624e1c6841231e7b8e55dd6fe890239e4bc4701c564736f6c63430008110033","opcodes":"PUSH1 0x80 PUSH1 0x40 MSTORE CALLVALUE DUP1 ISZERO PUSH2 0x10 JUMPI PUSH1 0x0 DUP1 REVERT JUMPDEST POP PUSH2 0x2F9 DUP1 PUSH2 0x20 PUSH1 0x0 CODECOPY PUSH1 0x0 RETURN INVALID PUSH1 0x80 PUSH1 0x40 MSTORE CALLVALUE DUP1 ISZERO PUSH2 0x10 JUMPI PUSH1 0x0 DUP1 REVERT JUMPDEST POP PUSH1 0x4 CALLDATASIZE LT PUSH2 0x83 JUMPI PUSH1 0x0 CALLDATALOAD PUSH1 0xE0 SHR DUP1 PUSH4 0x17FCB39B EQ PUSH2 0x88 JUMPI DUP1 PUSH4 0x45C6A874 EQ PUSH2 0xAD JUMPI DUP1 PUSH4 0x56168843 EQ PUSH2 0xB5 JUMPI DUP1 PUSH4 0x5C975ABB EQ PUSH2 0xCB JUMPI DUP1 PUSH4 0x6162CB91 EQ PUSH2 0xE3 JUMPI DUP1 PUSH4 0x65A1F3C3 EQ PUSH2 0xEB JUMPI DUP1 PUSH4 0x6C1F5633 EQ PUSH2 0x108 JUMPI DUP1 PUSH4 0x82131470 EQ PUSH2 0x110 JUMPI DUP1 PUSH4 0xA74AA566 EQ PUSH2 0x118 JUMPI JUMPDEST PUSH1 0x0 DUP1 REVERT JUMPDEST PUSH2 0x90 PUSH2 0x120 JUMP JUMPDEST PUSH1 0x40 MLOAD PUSH1 0x1 PUSH1 0x1 PUSH1 0xA0 SHL SUB SWAP1 SWAP2 AND DUP2 MSTORE PUSH1 0x20 ADD JUMPDEST PUSH1 0x40 MLOAD DUP1 SWAP2 SUB SWAP1 RETURN JUMPDEST PUSH2 0x90 PUSH2 0x13C JUMP JUMPDEST PUSH2 0xBD PUSH2 0x15A JUMP JUMPDEST PUSH1 0x40 MLOAD SWAP1 DUP2 MSTORE PUSH1 0x20 ADD PUSH2 0xA4 JUMP JUMPDEST PUSH2 0xD3 PUSH2 0x16D JUMP JUMPDEST PUSH1 0x40 MLOAD SWAP1 ISZERO ISZERO DUP2 MSTORE PUSH1 0x20 ADD PUSH2 0xA4 JUMP JUMPDEST PUSH2 0x90 PUSH2 0x180 JUMP JUMPDEST PUSH2 0xF3 PUSH2 0x19C JUMP JUMPDEST PUSH1 0x40 MLOAD PUSH4 0xFFFFFFFF SWAP1 SWAP2 AND DUP2 MSTORE PUSH1 0x20 ADD PUSH2 0xA4 JUMP JUMPDEST PUSH2 0xF3 PUSH2 0x1BC JUMP JUMPDEST PUSH2 0xBD PUSH2 0x243 JUMP JUMPDEST PUSH2 0x90 PUSH2 0x256 JUMP JUMPDEST PUSH1 0x0 PUSH2 0x12A PUSH2 0x272 JUMP JUMPDEST PUSH1 0x3 ADD SLOAD PUSH1 0x1 PUSH1 0x1 PUSH1 0xA0 SHL SUB AND SWAP2 SWAP1 POP JUMP JUMPDEST PUSH1 0x0 PUSH2 0x146 PUSH2 0x272 JUMP JUMPDEST SLOAD PUSH2 0x100 SWAP1 DIV PUSH1 0x1 PUSH1 0x1 PUSH1 0xA0 SHL SUB AND SWAP2 SWAP1 POP JUMP JUMPDEST PUSH1 0x0 PUSH2 0x164 PUSH2 0x272 JUMP JUMPDEST PUSH1 0x4 ADD SLOAD SWAP1 POP SWAP1 JUMP JUMPDEST PUSH1 0x0 PUSH2 0x177 PUSH2 0x272 JUMP JUMPDEST SLOAD PUSH1 0xFF AND SWAP2 SWAP1 POP JUMP JUMPDEST PUSH1 0x0 PUSH2 0x18A PUSH2 0x272 JUMP JUMPDEST PUSH1 0x1 ADD SLOAD PUSH1 0x1 PUSH1 0x1 PUSH1 0xA0 SHL SUB AND SWAP2 SWAP1 POP JUMP JUMPDEST PUSH1 0x0 PUSH2 0x1A6 PUSH2 0x272 JUMP JUMPDEST PUSH1 0x3 ADD SLOAD PUSH1 0x1 PUSH1 0xA0 SHL SWAP1 DIV PUSH4 0xFFFFFFFF AND SWAP2 SWAP1 POP JUMP JUMPDEST PUSH1 0x0 PUSH2 0x1C6 PUSH2 0x272 JUMP JUMPDEST PUSH1 0x1 ADD PUSH1 0x0 SWAP1 SLOAD SWAP1 PUSH2 0x100 EXP SWAP1 DIV PUSH1 0x1 PUSH1 0x1 PUSH1 0xA0 SHL SUB AND PUSH1 0x1 PUSH1 0x1 PUSH1 0xA0 SHL SUB AND PUSH4 0x566826D1 PUSH1 0x40 MLOAD DUP2 PUSH4 0xFFFFFFFF AND PUSH1 0xE0 SHL DUP2 MSTORE PUSH1 0x4 ADD PUSH1 0x20 PUSH1 0x40 MLOAD DUP1 DUP4 SUB DUP2 DUP7 GAS STATICCALL ISZERO DUP1 ISZERO PUSH2 0x21A JUMPI RETURNDATASIZE PUSH1 0x0 DUP1 RETURNDATACOPY RETURNDATASIZE PUSH1 0x0 REVERT JUMPDEST POP POP POP POP PUSH1 0x40 MLOAD RETURNDATASIZE PUSH1 0x1F NOT PUSH1 0x1F DUP3 ADD AND DUP3 ADD DUP1 PUSH1 0x40 MSTORE POP DUP2 ADD SWAP1 PUSH2 0x23E SWAP2 SWAP1 PUSH2 0x296 JUMP JUMPDEST SWAP1 POP SWAP1 JUMP JUMPDEST PUSH1 0x0 PUSH2 0x24D PUSH2 0x272 JUMP JUMPDEST PUSH1 0x5 ADD SLOAD SWAP1 POP SWAP1 JUMP JUMPDEST PUSH1 0x0 PUSH2 0x260 PUSH2 0x272 JUMP JUMPDEST PUSH1 0x2 ADD SLOAD PUSH1 0x1 PUSH1 0x1 PUSH1 0xA0 SHL SUB AND SWAP2 SWAP1 POP JUMP JUMPDEST PUSH32 0xBFA76EC2967ED7F8D3D40CD552F1451AB03573B596BFCE931A6A016F7733078C SWAP1 JUMP JUMPDEST PUSH1 0x0 PUSH1 0x20 DUP3 DUP5 SUB SLT ISZERO PUSH2 0x2A8 JUMPI PUSH1 0x0 DUP1 REVERT JUMPDEST DUP2 MLOAD PUSH4 0xFFFFFFFF DUP2 AND DUP2 EQ PUSH2 0x2BC JUMPI PUSH1 0x0 DUP1 REVERT JUMPDEST SWAP4 SWAP3 POP POP POP JUMP INVALID LOG2 PUSH5 0x6970667358 0x22 SLT KECCAK256 0xD9 0xAE MSTORE8 0x24 CALLER JUMPI LOG2 SWAP6 0x49 SUB PUSH8 0xD624E1C6841231E7 0xB8 0xE5 0x5D 0xD6 INVALID DUP10 MUL CODECOPY 0xE4 0xBC SELFBALANCE ADD 0xC5 PUSH5 0x736F6C6343 STOP ADDMOD GT STOP CALLER "},"gasEstimates":{"creation":{"codeDepositCost":"152200","executionCost":"196","totalCost":"152396"},"external":{"adminMultiSig()":"2381","baseMintThreshold()":"2370","dailyVolumeUSD()":"2480","dexible()":"2530","discountBps()":"infinite","dxbl()":"2442","paused()":"2398","timelockSeconds()":"2468","wrappedNativeToken()":"2354"}},"methodIdentifiers":{"adminMultiSig()":"45c6a874","baseMintThreshold()":"56168843","dailyVolumeUSD()":"82131470","dexible()":"a74aa566","discountBps()":"6c1f5633","dxbl()":"6162cb91","paused()":"5c975abb","timelockSeconds()":"65a1f3c3","wrappedNativeToken()":"17fcb39b"}},"storageLayout":{"storage":[],"types":null},"userdoc":{"kind":"user","methods":{"discountBps()":{"notice":"Storage variable view functions"}},"version":1}}}}