{
  "_format": "hh-sol-artifact-1",
  "contractName": "DexibleProxy",
  "sourceName": "contracts/dexible/DexibleProxy.sol",
  "abi": [
    {
      "inputs": [
        {
          "internalType": "address",
          "name": "_impl",
          "type": "address"
        },
        {
          "internalType": "bytes",
          "name": "initData",
          "type": "bytes"
        }
      ],
      "stateMutability": "nonpayable",
      "type": "constructor"
    },
    {
      "anonymous": false,
      "inputs": [
        {
          "indexed": true,
          "internalType": "address",
          "name": "approver",
          "type": "address"
        },
        {
          "indexed": false,
          "internalType": "bytes4",
          "name": "selector",
          "type": "bytes4"
        },
        {
          "indexed": false,
          "internalType": "bytes32",
          "name": "sigHash",
          "type": "bytes32"
        },
        {
          "indexed": false,
          "internalType": "uint256",
          "name": "nonce",
          "type": "uint256"
        },
        {
          "indexed": false,
          "internalType": "uint256",
          "name": "timelockExpiration",
          "type": "uint256"
        }
      ],
      "name": "ChangeRequested",
      "type": "event"
    },
    {
      "anonymous": false,
      "inputs": [
        {
          "indexed": true,
          "internalType": "address",
          "name": "newLogic",
          "type": "address"
        }
      ],
      "name": "LogicUpgraded",
      "type": "event"
    },
    {
      "anonymous": false,
      "inputs": [
        {
          "indexed": true,
          "internalType": "address",
          "name": "caller",
          "type": "address"
        }
      ],
      "name": "Paused",
      "type": "event"
    },
    {
      "anonymous": false,
      "inputs": [
        {
          "indexed": false,
          "internalType": "uint256",
          "name": "newReq",
          "type": "uint256"
        }
      ],
      "name": "RequiredSigChanged",
      "type": "event"
    },
    {
      "anonymous": false,
      "inputs": [
        {
          "indexed": true,
          "internalType": "address",
          "name": "approvder",
          "type": "address"
        },
        {
          "indexed": false,
          "internalType": "bytes32",
          "name": "sigHash",
          "type": "bytes32"
        }
      ],
      "name": "ResumeRequested",
      "type": "event"
    },
    {
      "anonymous": false,
      "inputs": [],
      "name": "ResumedOperations",
      "type": "event"
    },
    {
      "anonymous": false,
      "inputs": [
        {
          "indexed": true,
          "internalType": "address",
          "name": "signer",
          "type": "address"
        }
      ],
      "name": "SignerAdded",
      "type": "event"
    },
    {
      "anonymous": false,
      "inputs": [
        {
          "indexed": true,
          "internalType": "address",
          "name": "signer",
          "type": "address"
        }
      ],
      "name": "SignerRemoved",
      "type": "event"
    },
    {
      "anonymous": false,
      "inputs": [
        {
          "indexed": true,
          "internalType": "address",
          "name": "approver",
          "type": "address"
        },
        {
          "indexed": false,
          "internalType": "address",
          "name": "logic",
          "type": "address"
        },
        {
          "indexed": false,
          "internalType": "bytes32",
          "name": "sigHash",
          "type": "bytes32"
        },
        {
          "indexed": false,
          "internalType": "uint256",
          "name": "timelockExpiration",
          "type": "uint256"
        }
      ],
      "name": "UpgradeRequested",
      "type": "event"
    },
    {
      "stateMutability": "nonpayable",
      "type": "fallback"
    },
    {
      "inputs": [
        {
          "internalType": "address",
          "name": "signer",
          "type": "address"
        }
      ],
      "name": "addSigner",
      "outputs": [],
      "stateMutability": "nonpayable",
      "type": "function"
    },
    {
      "inputs": [
        {
          "internalType": "uint256",
          "name": "nonce",
          "type": "uint256"
        }
      ],
      "name": "approveChange",
      "outputs": [],
      "stateMutability": "nonpayable",
      "type": "function"
    },
    {
      "inputs": [],
      "name": "approveResume",
      "outputs": [],
      "stateMutability": "nonpayable",
      "type": "function"
    },
    {
      "inputs": [],
      "name": "approveUpgrade",
      "outputs": [],
      "stateMutability": "nonpayable",
      "type": "function"
    },
    {
      "inputs": [
        {
          "internalType": "uint256",
          "name": "nonce",
          "type": "uint256"
        }
      ],
      "name": "canApplyChange",
      "outputs": [],
      "stateMutability": "view",
      "type": "function"
    },
    {
      "inputs": [],
      "name": "canUpgrade",
      "outputs": [
        {
          "internalType": "bool",
          "name": "",
          "type": "bool"
        }
      ],
      "stateMutability": "view",
      "type": "function"
    },
    {
      "inputs": [
        {
          "internalType": "uint256",
          "name": "nonce",
          "type": "uint256"
        }
      ],
      "name": "cancelChange",
      "outputs": [],
      "stateMutability": "nonpayable",
      "type": "function"
    },
    {
      "inputs": [],
      "name": "cancelResume",
      "outputs": [],
      "stateMutability": "nonpayable",
      "type": "function"
    },
    {
      "inputs": [
        {
          "internalType": "uint256",
          "name": "nonce",
          "type": "uint256"
        }
      ],
      "name": "changeSigsNeeded",
      "outputs": [
        {
          "internalType": "uint256",
          "name": "",
          "type": "uint256"
        }
      ],
      "stateMutability": "view",
      "type": "function"
    },
    {
      "inputs": [
        {
          "internalType": "uint256",
          "name": "nonce",
          "type": "uint256"
        },
        {
          "internalType": "address",
          "name": "signer",
          "type": "address"
        },
        {
          "internalType": "bytes",
          "name": "sig",
          "type": "bytes"
        }
      ],
      "name": "delegatedApproveChange",
      "outputs": [],
      "stateMutability": "nonpayable",
      "type": "function"
    },
    {
      "inputs": [
        {
          "internalType": "address",
          "name": "signer",
          "type": "address"
        },
        {
          "internalType": "bytes",
          "name": "sig",
          "type": "bytes"
        }
      ],
      "name": "delegatedApproveResume",
      "outputs": [],
      "stateMutability": "nonpayable",
      "type": "function"
    },
    {
      "inputs": [
        {
          "internalType": "address",
          "name": "signer",
          "type": "address"
        },
        {
          "internalType": "bytes",
          "name": "sig",
          "type": "bytes"
        }
      ],
      "name": "delegatedApproveUpgrade",
      "outputs": [],
      "stateMutability": "nonpayable",
      "type": "function"
    },
    {
      "inputs": [
        {
          "components": [
            {
              "internalType": "uint8",
              "name": "requiredSigs",
              "type": "uint8"
            },
            {
              "internalType": "uint32",
              "name": "timelockSeconds",
              "type": "uint32"
            },
            {
              "internalType": "address",
              "name": "logic",
              "type": "address"
            },
            {
              "internalType": "address[]",
              "name": "approvers",
              "type": "address[]"
            }
          ],
          "internalType": "struct LibMultiSig.MultiSigConfig",
          "name": "config",
          "type": "tuple"
        }
      ],
      "name": "initializeMSConfigurable",
      "outputs": [],
      "stateMutability": "nonpayable",
      "type": "function"
    },
    {
      "inputs": [],
      "name": "isPaused",
      "outputs": [
        {
          "internalType": "bool",
          "name": "",
          "type": "bool"
        }
      ],
      "stateMutability": "view",
      "type": "function"
    },
    {
      "inputs": [],
      "name": "logic",
      "outputs": [
        {
          "internalType": "address",
          "name": "",
          "type": "address"
        }
      ],
      "stateMutability": "view",
      "type": "function"
    },
    {
      "inputs": [],
      "name": "pause",
      "outputs": [],
      "stateMutability": "nonpayable",
      "type": "function"
    },
    {
      "inputs": [],
      "name": "proxyName",
      "outputs": [
        {
          "internalType": "string",
          "name": "",
          "type": "string"
        }
      ],
      "stateMutability": "view",
      "type": "function"
    },
    {
      "inputs": [
        {
          "internalType": "address",
          "name": "signer",
          "type": "address"
        }
      ],
      "name": "removeSigner",
      "outputs": [],
      "stateMutability": "nonpayable",
      "type": "function"
    },
    {
      "inputs": [
        {
          "internalType": "bytes",
          "name": "data",
          "type": "bytes"
        }
      ],
      "name": "requestChange",
      "outputs": [],
      "stateMutability": "nonpayable",
      "type": "function"
    },
    {
      "inputs": [],
      "name": "requestResume",
      "outputs": [],
      "stateMutability": "nonpayable",
      "type": "function"
    },
    {
      "inputs": [
        {
          "internalType": "address",
          "name": "logic",
          "type": "address"
        }
      ],
      "name": "requestUpgrade",
      "outputs": [],
      "stateMutability": "nonpayable",
      "type": "function"
    },
    {
      "inputs": [],
      "name": "resumeSigsNeeded",
      "outputs": [
        {
          "internalType": "uint8",
          "name": "",
          "type": "uint8"
        }
      ],
      "stateMutability": "view",
      "type": "function"
    },
    {
      "inputs": [
        {
          "internalType": "uint8",
          "name": "sigs",
          "type": "uint8"
        }
      ],
      "name": "setRequiredSigs",
      "outputs": [],
      "stateMutability": "nonpayable",
      "type": "function"
    },
    {
      "inputs": [],
      "name": "upgradeSignaturesNeeded",
      "outputs": [
        {
          "internalType": "uint256",
          "name": "",
          "type": "uint256"
        }
      ],
      "stateMutability": "view",
      "type": "function"
    }
  ],
  "bytecode": "0x60806040523480156200001157600080fd5b5060405162001c5c38038062001c5c833981016040819052620000349162000297565b60408051808201909152600c81526b44657869626c6550726f787960a01b60208201528282600062000067848262000401565b508051156200019657600080836001600160a01b0316836040516200008d9190620004cd565b600060405180830381855af49150503d8060008114620000ca576040519150601f19603f3d011682016040523d82523d6000602084013e620000cf565b606091505b5091509150816200019357620001256040518060400160405280601481526020017f4641494c454420544f20494e495449414c495a45000000000000000000000000815250620001a160201b6200109a1760201c565b6200013b81620001ef60201b620010e01760201c565b60405162461bcd60e51b815260206004820152602360248201527f4661696c656420746f20696e697469616c697a6520696d706c656d656e74617460448201526234b7b760e91b606482015260840160405180910390fd5b50505b505050505062000535565b620001ec81604051602401620001b8919062000519565b60408051601f198184030181529190526020810180516001600160e01b0390811663104c13eb60e21b179091526200023a16565b50565b620001ec8160405160240162000206919062000519565b60408051601f198184030181529190526020810180516001600160e01b039081166305f3bfab60e11b179091526200023a16565b80516a636f6e736f6c652e6c6f67602083016000808483855afa5050505050565b634e487b7160e01b600052604160045260246000fd5b60005b838110156200028e57818101518382015260200162000274565b50506000910152565b60008060408385031215620002ab57600080fd5b82516001600160a01b0381168114620002c357600080fd5b60208401519092506001600160401b0380821115620002e157600080fd5b818501915085601f830112620002f657600080fd5b8151818111156200030b576200030b6200025b565b604051601f8201601f19908116603f011681019083821181831017156200033657620003366200025b565b816040528281528860208487010111156200035057600080fd5b6200036383602083016020880162000271565b80955050505050509250929050565b600181811c908216806200038757607f821691505b602082108103620003a857634e487b7160e01b600052602260045260246000fd5b50919050565b601f821115620003fc57600081815260208120601f850160051c81016020861015620003d75750805b601f850160051c820191505b81811015620003f857828155600101620003e3565b5050505b505050565b81516001600160401b038111156200041d576200041d6200025b565b62000435816200042e845462000372565b84620003ae565b602080601f8311600181146200046d5760008415620004545750858301515b600019600386901b1c1916600185901b178555620003f8565b600085815260208120601f198616915b828110156200049e578886015182559484019460019091019084016200047d565b5085821015620004bd5787850151600019600388901b60f8161c191681555b5050505050600190811b01905550565b60008251620004e181846020870162000271565b9190910192915050565b600081518084526200050581602086016020860162000271565b601f01601f19169290920160200192915050565b6020815260006200052e6020830184620004eb565b9392505050565b61171780620005456000396000f3fe608060405234801561001057600080fd5b50600436106101585760003560e01c80636b9f97ef116100c3578063c94fbd271161007c578063c94fbd27146102e3578063d514beaa146102eb578063d7dfa0dd146102fe578063dc5881411461031e578063dcf52a8014610331578063eb12d61e1461033957610158565b80636b9f97ef1461028d5780637a393ff5146102a05780638456cb59146102b35780638957a7e5146102bb5780639738968c146102c3578063b187bd26146102db57610158565b806335e3aa211161011557806335e3aa211461021b578063486bdd9d1461022e5780635b57a2ed146102415780635cd0b3ee146102545780636161791e14610267578063649279841461027a57610158565b80630e316ab71461019f57806326964b0f146101b25780632807978e146101d05780632b9f73e1146101e357806333e5614f146101eb5780633435775514610201575b600061016261034c565b546201000090046001600160a01b031690503660008037600080366000846127105a03f43d806000803e81801561019857816000f35b816000fd5b005b61019d6101ad36600461115c565b610370565b6101ba61045d565b6040516101c791906111c4565b60405180910390f35b61019d6101de3660046111e6565b6104eb565b61019d6105bf565b6101f361066d565b6040519081526020016101c7565b6102096106f4565b60405160ff90911681526020016101c7565b61019d610229366004611203565b610778565b61019d61023c366004611265565b61082e565b61019d61024f366004611203565b6108e9565b61019d6102623660046112bf565b61096f565b61019d610275366004611203565b610a27565b61019d6102883660046112bf565b610a6f565b61019d61029b36600461115c565b610af1565b61019d6102ae366004611312565b610b7f565b61019d610c34565b61019d610cb9565b6102cb610d38565b60405190151581526020016101c7565b6102cb610db7565b61019d610dca565b61019d6102f93660046113c4565b610e49565b610306610e89565b6040516001600160a01b0390911681526020016101c7565b6101f361032c366004611203565b610ea8565b61019d610f34565b61019d61034736600461115c565b610fb3565b7f95345cad9ec96dfc8c5b0a875a5c498451c293011b6404d5fac2627c08bc661c90565b600061037a61034c565b336000908152600d8201602052604090205490915060ff166103b75760405162461bcd60e51b81526004016103ae906114de565b60405180910390fd5b6001600160a01b0382166000036104015760405162461bcd60e51b815260206004820152600e60248201526d24b73b30b634b21039b4b3b732b960911b60448201526064016103ae565b600061040b61034c565b6001600160a01b0384166000818152600d83016020526040808220805460ff191690555192935090917f3525e22824a8a7df2c9a6029941c824cf95b6447f1e13d5128fd3826d35afe8b9190a2505050565b6000805461046a90611504565b80601f016020809104026020016040519081016040528092919081815260200182805461049690611504565b80156104e35780601f106104b8576101008083540402835291602001916104e3565b820191906000526020600020905b8154815290600101906020018083116104c657829003601f168201915b505050505081565b631403cbc760e11b60006104fd61034c565b6001600160e01b031983166000908152600c8201602052604090205490915060ff166105625760405162461bcd60e51b8152602060048201526014602482015273139bdd08185c1c1c9bdd9959081d1bc818d85b1b60621b60448201526064016103ae565b600061056c61034c565b805461ff00191661010060ff87169081029190911782556040519081529091507f996d24db4a86034b8a07339305b06563c6b9e34fc887a6f84dbba1d64f690fd79060200160405180910390a150505050565b60006105c961034c565b336000908152600d8201602052604090205490915060ff166105fd5760405162461bcd60e51b81526004016103ae906114de565b61060561034c565b60405163b5c1a4bd60e01b8152600481019190915273__$a1eb5e9a06dc78666997fa26b97107c1d0$__9063b5c1a4bd906024015b60006040518083038186803b15801561065257600080fd5b505af4158015610666573d6000803e3d6000fd5b5050505050565b600061067761034c565b6040516396deafed60e01b8152600481019190915273__$a1eb5e9a06dc78666997fa26b97107c1d0$__906396deafed90602401602060405180830381865af41580156106c8573d6000803e3d6000fd5b505050506040513d601f19601f820116820180604052508101906106ec919061153e565b60ff16905090565b60006106fe61034c565b6040516319477f2b60e11b8152600481019190915273__$a1eb5e9a06dc78666997fa26b97107c1d0$__9063328efe5690602401602060405180830381865af415801561074f573d6000803e3d6000fd5b505050506040513d601f19601f82011682018060405250810190610773919061153e565b905090565b600061078261034c565b336000908152600d8201602052604090205490915060ff166107b65760405162461bcd60e51b81526004016103ae906114de565b6107be61034c565b604051633cf6e7e560e11b815260048101919091526024810183905273__$a1eb5e9a06dc78666997fa26b97107c1d0$__906379edcfca906044015b60006040518083038186803b15801561081257600080fd5b505af4158015610826573d6000803e3d6000fd5b505050505050565b600061083861034c565b336000908152600d8201602052604090205490915060ff1661086c5760405162461bcd60e51b81526004016103ae906114de565b61087461034c565b60405163b190721f60e01b815273__$a1eb5e9a06dc78666997fa26b97107c1d0$__9163b190721f916108b291908990899089908990600401611584565b60006040518083038186803b1580156108ca57600080fd5b505af41580156108de573d6000803e3d6000fd5b505050505050505050565b60006108f361034c565b336000908152600d8201602052604090205490915060ff166109275760405162461bcd60e51b81526004016103ae906114de565b61092f61034c565b6040516341ae60fd60e01b815260048101919091526024810183905273__$a1eb5e9a06dc78666997fa26b97107c1d0$__906341ae60fd906044016107fa565b600061097961034c565b336000908152600d8201602052604090205490915060ff166109ad5760405162461bcd60e51b81526004016103ae906114de565b6109b561034c565b604051634552300560e11b815273__$a1eb5e9a06dc78666997fa26b97107c1d0$__91638aa4600a916109f191908890889088906004016115bd565b60006040518083038186803b158015610a0957600080fd5b505af4158015610a1d573d6000803e3d6000fd5b5050505050505050565b610a2f61034c565b6040516366c373c960e01b815260048101919091526024810182905273__$a1eb5e9a06dc78666997fa26b97107c1d0$__906366c373c99060440161063a565b6000610a7961034c565b336000908152600d8201602052604090205490915060ff16610aad5760405162461bcd60e51b81526004016103ae906114de565b610ab561034c565b604051633b32d55d60e21b815273__$a1eb5e9a06dc78666997fa26b97107c1d0$__9163eccb5574916109f191908890889088906004016115bd565b6000610afb61034c565b336000908152600d8201602052604090205490915060ff16610b2f5760405162461bcd60e51b81526004016103ae906114de565b610b3761034c565b604051632791078760e21b815260048101919091526001600160a01b038316602482015273__$a1eb5e9a06dc78666997fa26b97107c1d0$__90639e441e1c906044016107fa565b6000610b8961034c565b336000908152600d8201602052604090205490915060ff16610bbd5760405162461bcd60e51b81526004016103ae906114de565b610bc561034c565b6040516326373dcf60e21b815273__$a1eb5e9a06dc78666997fa26b97107c1d0$__916398dcf73c91610bff9190879087906004016115f2565b60006040518083038186803b158015610c1757600080fd5b505af4158015610c2b573d6000803e3d6000fd5b50505050505050565b6000610c3e61034c565b336000908152600d8201602052604090205490915060ff16610c725760405162461bcd60e51b81526004016103ae906114de565b6000610c7c61034c565b805460ff1916600117815560405190915033907f62e78cea01bee320cd4e420270b5ea74000d11b0c9f74754ebdbfc544b05a25890600090a25050565b6000610cc361034c565b336000908152600d8201602052604090205490915060ff16610cf75760405162461bcd60e51b81526004016103ae906114de565b610cff61034c565b60405163dc02380960e01b8152600481019190915273__$a1eb5e9a06dc78666997fa26b97107c1d0$__9063dc0238099060240161063a565b6000610d4261034c565b6040516330a340ab60e21b8152600481019190915273__$a1eb5e9a06dc78666997fa26b97107c1d0$__9063c28d02ac90602401602060405180830381865af4158015610d93573d6000803e3d6000fd5b505050506040513d601f19601f820116820180604052508101906107739190611615565b6000610dc161034c565b5460ff16919050565b6000610dd461034c565b336000908152600d8201602052604090205490915060ff16610e085760405162461bcd60e51b81526004016103ae906114de565b610e1061034c565b604051634e3e101b60e01b8152600481019190915273__$a1eb5e9a06dc78666997fa26b97107c1d0$__90634e3e101b9060240161063a565b610e5161034c565b60405163e84ba0a360e01b815273__$a1eb5e9a06dc78666997fa26b97107c1d0$__9163e84ba0a39161063a91908590600401611637565b6000610e9361034c565b546201000090046001600160a01b0316919050565b6000610eb261034c565b6040516384c81e4d60e01b815260048101919091526024810183905273__$a1eb5e9a06dc78666997fa26b97107c1d0$__906384c81e4d90604401602060405180830381865af4158015610f0a573d6000803e3d6000fd5b505050506040513d601f19601f82011682018060405250810190610f2e91906116c8565b92915050565b6000610f3e61034c565b336000908152600d8201602052604090205490915060ff16610f725760405162461bcd60e51b81526004016103ae906114de565b610f7a61034c565b604051630cb8674760e01b8152600481019190915273__$a1eb5e9a06dc78666997fa26b97107c1d0$__90630cb867479060240161063a565b6000610fbd61034c565b336000908152600d8201602052604090205490915060ff16610ff15760405162461bcd60e51b81526004016103ae906114de565b6001600160a01b03821660000361103b5760405162461bcd60e51b815260206004820152600e60248201526d24b73b30b634b21039b4b3b732b960911b60448201526064016103ae565b600061104561034c565b6001600160a01b0384166000818152600d83016020526040808220805460ff191660011790555192935090917f47d1c22a25bb3a5d4e481b9b1e6944c2eade3181a0a20b495ed61d35b5323f249190a2505050565b6110dd816040516024016110ae91906111c4565b60408051601f198184030181529190526020810180516001600160e01b031663104c13eb60e21b17905261111f565b50565b6110dd816040516024016110f491906111c4565b60408051601f198184030181529190526020810180516001600160e01b03166305f3bfab60e11b1790525b80516a636f6e736f6c652e6c6f67602083016000808483855afa5050505050565b80356001600160a01b038116811461115757600080fd5b919050565b60006020828403121561116e57600080fd5b61117782611140565b9392505050565b6000815180845260005b818110156111a457602081850181015186830182015201611188565b506000602082860101526020601f19601f83011685010191505092915050565b602081526000611177602083018461117e565b60ff811681146110dd57600080fd5b6000602082840312156111f857600080fd5b8135611177816111d7565b60006020828403121561121557600080fd5b5035919050565b60008083601f84011261122e57600080fd5b50813567ffffffffffffffff81111561124657600080fd5b60208301915083602082850101111561125e57600080fd5b9250929050565b6000806000806060858703121561127b57600080fd5b8435935061128b60208601611140565b9250604085013567ffffffffffffffff8111156112a757600080fd5b6112b38782880161121c565b95989497509550505050565b6000806000604084860312156112d457600080fd5b6112dd84611140565b9250602084013567ffffffffffffffff8111156112f957600080fd5b6113058682870161121c565b9497909650939450505050565b6000806020838503121561132557600080fd5b823567ffffffffffffffff81111561133c57600080fd5b6113488582860161121c565b90969095509350505050565b634e487b7160e01b600052604160045260246000fd5b6040516080810167ffffffffffffffff8111828210171561138d5761138d611354565b60405290565b604051601f8201601f1916810167ffffffffffffffff811182821017156113bc576113bc611354565b604052919050565b600060208083850312156113d757600080fd5b823567ffffffffffffffff808211156113ef57600080fd5b908401906080828703121561140357600080fd5b61140b61136a565b8235611416816111d7565b81528284013563ffffffff8116811461142e57600080fd5b8185015261143e60408401611140565b604082015260608301358281111561145557600080fd5b80840193505086601f84011261146a57600080fd5b82358281111561147c5761147c611354565b8060051b925061148d858401611393565b81815292840185019285810190898511156114a757600080fd5b948601945b848610156114cc576114bd86611140565b825294860194908601906114ac565b60608401525090979650505050505050565b6020808252600c908201526b155b985d5d1a1bdc9a5e995960a21b604082015260600190565b600181811c9082168061151857607f821691505b60208210810361153857634e487b7160e01b600052602260045260246000fd5b50919050565b60006020828403121561155057600080fd5b8151611177816111d7565b81835281816020850137506000828201602090810191909152601f909101601f19169091010190565b85815284602082015260018060a01b03841660408201526080606082015260006115b260808301848661155b565b979650505050505050565b8481526001600160a01b03841660208201526060604082018190526000906115e8908301848661155b565b9695505050505050565b83815260406020820152600061160c60408301848661155b565b95945050505050565b60006020828403121561162757600080fd5b8151801515811461117757600080fd5b8281526000602060408184015260c0830160ff855116604085015263ffffffff82860151166060850152604085015160018060a01b03808216608087015260608701519150608060a087015282825180855260e0880191508584019450600093505b808410156116bb57845183168252938501936001939093019290850190611699565b5098975050505050505050565b6000602082840312156116da57600080fd5b505191905056fea26469706673582212205a7791b2c6dc1c1ec630e106c09801a445a9ebe7bb2b3b927139e496ad5b2ec964736f6c63430008110033",
  "linkReferences": {
    "contracts/libraries/LibMultiSig.sol": {
      "LibMultiSig": [
        {
          "length": 20,
          "start": 2913
        },
        {
          "length": 20,
          "start": 3027
        },
        {
          "length": 20,
          "start": 3162
        },
        {
          "length": 20,
          "start": 3361
        },
        {
          "length": 20,
          "start": 3528
        },
        {
          "length": 20,
          "start": 3730
        },
        {
          "length": 20,
          "start": 3849
        },
        {
          "length": 20,
          "start": 3986
        },
        {
          "length": 20,
          "start": 4105
        },
        {
          "length": 20,
          "start": 4258
        },
        {
          "length": 20,
          "start": 4377
        },
        {
          "length": 20,
          "start": 4699
        },
        {
          "length": 20,
          "start": 4766
        },
        {
          "length": 20,
          "start": 4972
        },
        {
          "length": 20,
          "start": 5029
        },
        {
          "length": 20,
          "start": 5141
        },
        {
          "length": 20,
          "start": 5334
        }
      ]
    }
  },
  "deployedLinkReferences": {
    "contracts/libraries/LibMultiSig.sol": {
      "LibMultiSig": [
        {
          "length": 20,
          "start": 1564
        },
        {
          "length": 20,
          "start": 1678
        },
        {
          "length": 20,
          "start": 1813
        },
        {
          "length": 20,
          "start": 2012
        },
        {
          "length": 20,
          "start": 2179
        },
        {
          "length": 20,
          "start": 2381
        },
        {
          "length": 20,
          "start": 2500
        },
        {
          "length": 20,
          "start": 2637
        },
        {
          "length": 20,
          "start": 2756
        },
        {
          "length": 20,
          "start": 2909
        },
        {
          "length": 20,
          "start": 3028
        },
        {
          "length": 20,
          "start": 3350
        },
        {
          "length": 20,
          "start": 3417
        },
        {
          "length": 20,
          "start": 3623
        },
        {
          "length": 20,
          "start": 3680
        },
        {
          "length": 20,
          "start": 3792
        },
        {
          "length": 20,
          "start": 3985
        }
      ]
    }
  }
}