{
  "_format": "hh-sol-artifact-1",
  "contractName": "DexibleProxy",
  "sourceName": "contracts/dexible/DexibleProxy.sol",
  "abi": [
    {
      "inputs": [
        {
          "internalType": "address",
          "name": "_logic",
          "type": "address"
        },
        {
          "internalType": "uint32",
          "name": "timelock",
          "type": "uint32"
        },
        {
          "internalType": "bytes",
          "name": "initData",
          "type": "bytes"
        }
      ],
      "stateMutability": "nonpayable",
      "type": "constructor"
    },
    {
      "anonymous": false,
      "inputs": [
        {
          "indexed": false,
          "internalType": "address",
          "name": "newLogic",
          "type": "address"
        },
        {
          "indexed": false,
          "internalType": "uint256",
          "name": "upgradeAfter",
          "type": "uint256"
        }
      ],
      "name": "UpgradeProposed",
      "type": "event"
    },
    {
      "anonymous": false,
      "inputs": [
        {
          "indexed": false,
          "internalType": "address",
          "name": "newLogic",
          "type": "address"
        }
      ],
      "name": "UpgradedLogic",
      "type": "event"
    },
    {
      "stateMutability": "nonpayable",
      "type": "fallback"
    },
    {
      "inputs": [],
      "name": "canUpgrade",
      "outputs": [
        {
          "internalType": "bool",
          "name": "",
          "type": "bool"
        }
      ],
      "stateMutability": "view",
      "type": "function"
    },
    {
      "inputs": [],
      "name": "logic",
      "outputs": [
        {
          "internalType": "address",
          "name": "",
          "type": "address"
        }
      ],
      "stateMutability": "view",
      "type": "function"
    },
    {
      "inputs": [
        {
          "internalType": "address",
          "name": "_logic",
          "type": "address"
        },
        {
          "internalType": "bytes",
          "name": "upgradeInit",
          "type": "bytes"
        }
      ],
      "name": "proposeUpgrade",
      "outputs": [],
      "stateMutability": "nonpayable",
      "type": "function"
    },
    {
      "inputs": [],
      "name": "upgradeLogic",
      "outputs": [],
      "stateMutability": "nonpayable",
      "type": "function"
    }
  ],
  "bytecode": "0x608060405234801561001057600080fd5b5060405162000abd38038062000abd833981016040819052610031916101a1565b8051156100f5576000836001600160a01b031682604051610052919061028b565b600060405180830381855af49150503d806000811461008d576040519150601f19603f3d011682016040523d82523d6000602084013e610092565b606091505b50509050806100f35760405162461bcd60e51b815260206004820152602360248201527f4661696c656420746f20696e697469616c697a6520696d706c656d656e74617460448201526234b7b760e91b606482015260840160405180910390fd5b505b600061010961014360201b6102f11760201c565b805463ffffffff909416600160a01b026001600160c01b03199094166001600160a01b039095169490941792909217909255506102a79050565b7f21b00fb42ba9970a2143fc9fb216ce19c58db008c8d83ff3a715bbc79598d7f090565b634e487b7160e01b600052604160045260246000fd5b60005b83811015610198578181015183820152602001610180565b50506000910152565b6000806000606084860312156101b657600080fd5b83516001600160a01b03811681146101cd57600080fd5b602085015190935063ffffffff811681146101e757600080fd5b60408501519092506001600160401b038082111561020457600080fd5b818601915086601f83011261021857600080fd5b81518181111561022a5761022a610167565b604051601f8201601f19908116603f0116810190838211818310171561025257610252610167565b8160405282815289602084870101111561026b57600080fd5b61027c83602083016020880161017d565b80955050505050509250925092565b6000825161029d81846020870161017d565b9190910192915050565b61080680620002b76000396000f3fe608060405234801561001057600080fd5b506004361061004c5760003560e01c806394a319c7146100a25780639738968c146100b5578063aca0908f146100d2578063d7dfa0dd146100da575b6100546100fa565b156100615761006161012d565b600061006b6102f1565b546001600160a01b031690503660008037600080366000846127105a03f43d806000803e81801561009b57816000f35b816000fd5b005b6100a06100b0366004610543565b610315565b6100bd6100fa565b60405190151581526020015b60405180910390f35b6100a061012d565b6100e26104d4565b6040516001600160a01b0390911681526020016100c9565b6000806101056102f1565b60018101549091506001600160a01b0316158015906101275750600381015442115b91505090565b6101356100fa565b61017b5760405162461bcd60e51b815260206004820152601260248201527110d85b9b9bdd081d5c19dc985919481e595d60721b60448201526064015b60405180910390fd5b60006101856102f1565b600181015481546001600160a01b0319166001600160a01b039091161781556002810180549192506000916101b9906105d4565b905011156102845780546040516000916001600160a01b0316906101e190600285019061060e565b600060405180830381855af49150503d806000811461021c576040519150601f19603f3d011682016040523d82523d6000602084013e610221565b606091505b50509050806102825760405162461bcd60e51b815260206004820152602760248201527f4661696c656420746f20696e697469616c697a65206e657720696d706c656d65604482015266373a30ba34b7b760c91b6064820152608401610172565b505b6001810180546001600160a01b031916815560006102a560028401826104ed565b5060006002919091015580546040516001600160a01b0390911681527f1a4da05121982d37257d53a23bf3cca37304d5a334a4af21298bee6b7cd989129060200160405180910390a150565b7f21b00fb42ba9970a2143fc9fb216ce19c58db008c8d83ff3a715bbc79598d7f090565b7f949817a987a8e038ef345d3c9d4fd28e49d8e4e09456e57c05a8b2ce2e62866f546001600160a01b0316331461037d5760405162461bcd60e51b815260206004820152600c60248201526b155b985d5d1a1bdc9a5e995960a21b6044820152606401610172565b60006103876102f1565b90506001600160a01b0384166103cf5760405162461bcd60e51b815260206004820152600d60248201526c496e76616c6964206c6f67696360981b6044820152606401610172565b6040518060600160405280856001600160a01b0316815260200184848080601f016020809104026020016040519081016040528093929190818152602001838380828437600092019190915250505090825250825460209091019061044190600160a01b900463ffffffff1642610684565b905280516001830180546001600160a01b0319166001600160a01b039092169190911781556020820151600284019061047a9082610710565b5060409182015160029190910155600382015481516001600160a01b038716815260208101919091527fea80d7bcdb5b960a75976c0e94d2d4b2077378cfea983c73b49501b8613da224910160405180910390a150505050565b60006104de6102f1565b546001600160a01b0316919050565b5080546104f9906105d4565b6000825580601f10610509575050565b601f016020900490600052602060002090810190610527919061052a565b50565b5b8082111561053f576000815560010161052b565b5090565b60008060006040848603121561055857600080fd5b83356001600160a01b038116811461056f57600080fd5b9250602084013567ffffffffffffffff8082111561058c57600080fd5b818601915086601f8301126105a057600080fd5b8135818111156105af57600080fd5b8760208285010111156105c157600080fd5b6020830194508093505050509250925092565b600181811c908216806105e857607f821691505b60208210810361060857634e487b7160e01b600052602260045260246000fd5b50919050565b600080835461061c816105d4565b60018281168015610634576001811461064957610678565b60ff1984168752821515830287019450610678565b8760005260208060002060005b8581101561066f5781548a820152908401908201610656565b50505082870194505b50929695505050505050565b808201808211156106a557634e487b7160e01b600052601160045260246000fd5b92915050565b634e487b7160e01b600052604160045260246000fd5b601f82111561070b57600081815260208120601f850160051c810160208610156106e85750805b601f850160051c820191505b81811015610707578281556001016106f4565b5050505b505050565b815167ffffffffffffffff81111561072a5761072a6106ab565b61073e8161073884546105d4565b846106c1565b602080601f831160018114610773576000841561075b5750858301515b600019600386901b1c1916600185901b178555610707565b600085815260208120601f198616915b828110156107a257888601518255948401946001909101908401610783565b50858210156107c05787850151600019600388901b60f8161c191681555b5050505050600190811b0190555056fea2646970667358221220f82a449bfd69239e0fc70aa6a5f70cab3997ad4e92a46243e2f6bcf3cc81eb9a64736f6c63430008110033",
  "linkReferences": {},
  "deployedLinkReferences": {}
}