{
  "_format": "hh-sol-artifact-1",
  "contractName": "SwapExtension",
  "sourceName": "contracts/dexible/extensions/SwapExtension.sol",
  "abi": [
    {
      "anonymous": false,
      "inputs": [
        {
          "indexed": true,
          "internalType": "address",
          "name": "affiliate",
          "type": "address"
        },
        {
          "indexed": false,
          "internalType": "contract IERC20",
          "name": "token",
          "type": "address"
        },
        {
          "indexed": false,
          "internalType": "uint256",
          "name": "amount",
          "type": "uint256"
        }
      ],
      "name": "AffiliatePaid",
      "type": "event"
    },
    {
      "anonymous": false,
      "inputs": [
        {
          "indexed": true,
          "internalType": "address",
          "name": "relay",
          "type": "address"
        },
        {
          "indexed": false,
          "internalType": "uint256",
          "name": "amount",
          "type": "uint256"
        }
      ],
      "name": "InsufficientGasFunds",
      "type": "event"
    },
    {
      "anonymous": false,
      "inputs": [
        {
          "indexed": true,
          "internalType": "address",
          "name": "relay",
          "type": "address"
        },
        {
          "indexed": false,
          "internalType": "uint256",
          "name": "amount",
          "type": "uint256"
        }
      ],
      "name": "PaidGasFunds",
      "type": "event"
    },
    {
      "anonymous": false,
      "inputs": [
        {
          "indexed": true,
          "internalType": "address",
          "name": "trader",
          "type": "address"
        },
        {
          "indexed": false,
          "internalType": "contract IERC20",
          "name": "feeToken",
          "type": "address"
        },
        {
          "indexed": false,
          "internalType": "uint256",
          "name": "gasFeePaid",
          "type": "uint256"
        }
      ],
      "name": "SwapFailed",
      "type": "event"
    },
    {
      "anonymous": false,
      "inputs": [
        {
          "indexed": true,
          "internalType": "address",
          "name": "trader",
          "type": "address"
        },
        {
          "indexed": true,
          "internalType": "address",
          "name": "affiliate",
          "type": "address"
        },
        {
          "indexed": false,
          "internalType": "uint256",
          "name": "inputAmount",
          "type": "uint256"
        },
        {
          "indexed": false,
          "internalType": "uint256",
          "name": "outputAmount",
          "type": "uint256"
        },
        {
          "indexed": false,
          "internalType": "contract IERC20",
          "name": "feeToken",
          "type": "address"
        },
        {
          "indexed": false,
          "internalType": "uint256",
          "name": "gasFee",
          "type": "uint256"
        },
        {
          "indexed": false,
          "internalType": "uint256",
          "name": "affiliateFee",
          "type": "uint256"
        },
        {
          "indexed": false,
          "internalType": "uint256",
          "name": "dexibleFee",
          "type": "uint256"
        }
      ],
      "name": "SwapSuccess",
      "type": "event"
    },
    {
      "inputs": [
        {
          "components": [
            {
              "components": [
                {
                  "internalType": "address",
                  "name": "requester",
                  "type": "address"
                },
                {
                  "components": [
                    {
                      "internalType": "contract IERC20",
                      "name": "feeToken",
                      "type": "IERC20"
                    },
                    {
                      "internalType": "address",
                      "name": "affiliate",
                      "type": "address"
                    },
                    {
                      "internalType": "uint256",
                      "name": "affiliatePortion",
                      "type": "uint256"
                    }
                  ],
                  "internalType": "struct ExecutionTypes.FeeDetails",
                  "name": "fee",
                  "type": "tuple"
                }
              ],
              "internalType": "struct ExecutionTypes.ExecutionRequest",
              "name": "executionRequest",
              "type": "tuple"
            },
            {
              "components": [
                {
                  "internalType": "uint112",
                  "name": "amount",
                  "type": "uint112"
                },
                {
                  "internalType": "contract IERC20",
                  "name": "token",
                  "type": "IERC20"
                }
              ],
              "internalType": "struct TokenTypes.TokenAmount",
              "name": "tokenIn",
              "type": "tuple"
            },
            {
              "components": [
                {
                  "internalType": "uint112",
                  "name": "amount",
                  "type": "uint112"
                },
                {
                  "internalType": "contract IERC20",
                  "name": "token",
                  "type": "IERC20"
                }
              ],
              "internalType": "struct TokenTypes.TokenAmount",
              "name": "tokenOut",
              "type": "tuple"
            },
            {
              "components": [
                {
                  "internalType": "address",
                  "name": "router",
                  "type": "address"
                },
                {
                  "internalType": "address",
                  "name": "spender",
                  "type": "address"
                },
                {
                  "components": [
                    {
                      "internalType": "uint112",
                      "name": "amount",
                      "type": "uint112"
                    },
                    {
                      "internalType": "contract IERC20",
                      "name": "token",
                      "type": "IERC20"
                    }
                  ],
                  "internalType": "struct TokenTypes.TokenAmount",
                  "name": "routeAmount",
                  "type": "tuple"
                },
                {
                  "internalType": "bytes",
                  "name": "routerData",
                  "type": "bytes"
                }
              ],
              "internalType": "struct SwapTypes.RouterRequest[]",
              "name": "routes",
              "type": "tuple[]"
            }
          ],
          "internalType": "struct SwapTypes.SwapRequest",
          "name": "request",
          "type": "tuple"
        },
        {
          "components": [
            {
              "internalType": "bool",
              "name": "feeIsInput",
              "type": "bool"
            },
            {
              "internalType": "bool",
              "name": "isSelfSwap",
              "type": "bool"
            },
            {
              "internalType": "uint256",
              "name": "startGas",
              "type": "uint256"
            },
            {
              "internalType": "uint256",
              "name": "toProtocol",
              "type": "uint256"
            },
            {
              "internalType": "uint256",
              "name": "toRevshare",
              "type": "uint256"
            },
            {
              "internalType": "uint256",
              "name": "outToTrader",
              "type": "uint256"
            },
            {
              "internalType": "uint256",
              "name": "outAmount",
              "type": "uint256"
            },
            {
              "internalType": "uint256",
              "name": "bpsAmount",
              "type": "uint256"
            },
            {
              "internalType": "uint256",
              "name": "gasAmount",
              "type": "uint256"
            },
            {
              "internalType": "uint256",
              "name": "nativeGasAmount",
              "type": "uint256"
            },
            {
              "internalType": "uint256",
              "name": "preDXBLBalance",
              "type": "uint256"
            },
            {
              "internalType": "uint256",
              "name": "remainingInBalance",
              "type": "uint256"
            }
          ],
          "internalType": "struct SwapExtension.SwapDetails",
          "name": "details",
          "type": "tuple"
        }
      ],
      "name": "preCheck",
      "outputs": [],
      "stateMutability": "view",
      "type": "function"
    }
  ],
  "bytecode": "0x612c5e61003a600b82828239805160001a60731461002d57634e487b7160e01b600052600060045260246000fd5b30600052607381538281f3fe73000000000000000000000000000000000000000030146080604052600436106100b35760003560e01c80635ef7891b1161007b5780635ef7891b1461017057806394ddba6714610190578063ac33c380146101b0578063bfb8e5b1146101d0578063cad816c1146101f0578063cf6d0ae91461021057600080fd5b806304e9816e146100b857806335592b25146100da5780633e7a86fa146100fa57806351b5ef7e1461011a5780635336edb41461013a575b600080fd5b8180156100c457600080fd5b506100d86100d3366004611fa0565b610223565b005b8180156100e657600080fd5b506100d86100f5366004612004565b61033f565b81801561010657600080fd5b506100d8610115366004612310565b61036d565b81801561012657600080fd5b506100d8610135366004612346565b61075f565b81801561014657600080fd5b5061015a610155366004612004565b6108ac565b604051610167919061235f565b60405180910390f35b81801561017c57600080fd5b506100d861018b366004612004565b610c95565b81801561019c57600080fd5b506100d86101ab3660046123f0565b610f3d565b8180156101bc57600080fd5b506100d86101cb366004612310565b611007565b8180156101dc57600080fd5b506100d86101eb366004612310565b61101b565b8180156101fc57600080fd5b506100d861020b366004612424565b61146f565b6100d861021e366004612004565b61151d565b600061023560c0850160a0860161247d565b6040516370a0823160e01b81523060048201526001600160a01b0391909116906370a0823190602401602060405180830381865afa15801561027b573d6000803e3d6000fd5b505050506040513d601f19601f8201168201806040525081019061029f91906124a1565b905082610160015181116102b45760006102c4565b6101608301516102c490826124d0565b610160840190815260408051808201909152601781527f52656d61696e696e6720696e7075742062616c616e63650000000000000000006020820152905161030c91906118e5565b81156103215761031c848461033f565b61032b565b61032b8484610c95565b61033983610120015161075f565b50505050565b61035761034b836124e3565b825160c084015161146f565b610369610363836124e3565b82611007565b5050565b8060200151610622576103c36040518060400160405280600981526020016853746172742067617360b81b8152508260400151604051806040016040528060048152602001631319599d60e21b8152505a61192a565b6000620138805a8360400151030190506103f5604051806060016040528060298152602001612b3860299139826118e5565b3a026101208201819052604051631c44e41360e21b815273__$1612f60132fc398380ea4a6f07b5643658$__91637113904c9161043691869160040161266a565b602060405180830381865af4158015610453573d6000803e3d6000fd5b505050506040513d601f19601f8201168201806040525081019061047791906124a1565b610100820190815260408051808201909152601f81527f47617320706169642062792074726164657220696e2066656520746f6b656e00602082015290516104bf91906118e5565b806101000151816060018181516104d6919061268c565b90525060408051808201909152601381527214185e5b595b9d081d1bc81c1c9bdd1bd8dbdb606a1b6020820152606082015161051291906118e5565b80516105a1578061010001518160a0015110156105825760405162461bcd60e51b815260206004820152602360248201527f496e73756666696369656e74206f757470757420746f2070617920676173206660448201526265657360e81b60648201526084015b60405180910390fd5b8061010001518160a00181815161059991906124d0565b905250610622565b80610100015181610160015110156106065760405162461bcd60e51b815260206004820152602260248201527f496e73756666696369656e7420696e70757420746f2070617920676173206665604482015261657360f01b6064820152608401610579565b806101000151816101600181815161061e91906124d0565b9052505b81516020015151610657600080516020612b8b8339815191526002015460608401516001600160a01b03848116921690611973565b82515160a083015160408501516020015161067d926001600160a01b0390911691611973565b610160820151156106ae5782515161016083015160208086015101516106ae926001600160a01b0390911691611973565b82516020808201519081015191516040808701515160a087015184516101008901519584015160e08a015194516001600160a01b039889169896909616967f37d5b664bdbba33c8c4138fa893bae32fef34e9a60d60d7cba0cb46eadb767519661075296919291906001600160701b0396909616865260208601949094526001600160a01b039290921660408501526060840152608083015260a082015260c00190565b60405180910390a3505050565b8060000361076a5750565b6107a96040518060400160405280601781526020017f52656c617920476173205265696d62757273656d656e74000000000000000000815250826118e5565b8047101561080b576107d2604051806060016040528060358152602001612bab603591396119d6565b60405181815233907f4c0d6a438f19dfe41befe161c0bfdfca9f674028133bbaf37749b2d12f8f0dda906020015b60405180910390a250565b6108496040518060400160405280601c81526020017f5472616e73666572696e67206761732066656520746f2072656c6179000000008152506119d6565b604051339082156108fc029083906000818181858888f19350505050158015610876573d6000803e3d6000fd5b5060405181815233907f91d09af90b128f3fb2907042440a531bca49791232cd8f59e1c629d96247d05790602001610800565b50565b610914604051806101800160405280600015158152602001600015158152602001600081526020016000815260200160008152602001600081526020016000815260200160008152602001600081526020016000815260200160008152602001600081525090565b61091e838361151d565b61092f610100840160e0850161247d565b6040516370a0823160e01b81523060048201526001600160a01b0391909116906370a0823190602401602060405180830381865afa158015610975573d6000803e3d6000fd5b505050506040513d601f19601f8201168201806040525081019061099991906124a1565b60c08301526109a783610f3d565b60005b6109b861010085018561269f565b9050811015610b0a57366109d061010086018661269f565b838181106109e0576109e06126ef565b90506020028101906109f29190612705565b9050610a40610a07604083016020840161247d565b610a176060840160408501612725565b6001600160701b0316610a30608085016060860161247d565b6001600160a01b03169190611a19565b6000610a4f602083018361247d565b6001600160a01b0316610a656080840184612740565b604051610a73929190612786565b6000604051808303816000865af19150503d8060008114610ab0576040519150601f19603f3d011682016040523d82523d6000602084013e610ab5565b606091505b5050905080610af75760405162461bcd60e51b815260206004820152600e60248201526d04661696c656420746f20737761760941b6044820152606401610579565b505080610b0390612796565b90506109aa565b506000610b1e610100850160e0860161247d565b6040516370a0823160e01b81523060048201526001600160a01b0391909116906370a0823190602401602060405180830381865afa158015610b64573d6000803e3d6000fd5b505050506040513d601f19601f82011682018060405250810190610b8891906124a1565b9050808360c001511015610baf5760c0830151610ba590826124d0565b60c0840152610bb7565b600060c08401525b604080518082019091526008815267115e1c1958dd195960c21b6020820152610c1e90610bea60e0870160c08801612725565b6001600160701b031660405180604001604052806008815260200167149958d95a5d995960c21b8152508660c0015161192a565b610c2e60e0850160c08601612725565b6001600160701b03168360c001511015610c8a5760405162461bcd60e51b815260206004820152601d60248201527f496e73756666696369656e74206f75747075742067656e6572617465640000006044820152606401610579565b829150505b92915050565b806020015115610cd55760405162461bcd60e51b815260206004820152600b60248201526a14ddd85c0819985a5b195960aa1b6044820152606401610579565b60005a826040015103619c40019050610d06604051806060016040528060298152602001612b3860299139826118e5565b3a026101208201819052604051631c44e41360e21b815260009173__$1612f60132fc398380ea4a6f07b5643658$__91637113904c91610d4b91879190600401612949565b602060405180830381865af4158015610d68573d6000803e3d6000fd5b505050506040513d601f19601f82011682018060405250810190610d8c91906124a1565b825190915015610eb257610db7604051806060016040528060408152602001612af8604091396119d6565b610de76040518060400160405280600e81526020016d4661696c6564206761732066656560901b815250826118e5565b610e44610df7602085018561247d565b7f949817a987a8e038ef345d3c9d4fd28e49d8e4e09456e57c05a8b2ce2e62866e546001600160a01b031683610e33604088016020890161247d565b6001600160a01b0316929190611b2e565b610e51602084018461247d565b6001600160a01b03167f6930176329c33f663176f0f242132119497db425bb44d32f9ffef8683d10b0c0610e8b604086016020870161247d565b604080516001600160a01b03909216825260208201859052015b60405180910390a2505050565b610ed3604051806080016040528060498152602001612be0604991396119d6565b610ee0602084018461247d565b6001600160a01b03167f6930176329c33f663176f0f242132119497db425bb44d32f9ffef8683d10b0c0610f1a604086016020870161247d565b604080516001600160a01b0390921682526000602083015201610ea5565b505050565b60408051808201909152601e81527f5472616e73666572696e6720696e70757420666f722074726164696e673a00006020820152610f9390610f8560a0840160808501612725565b6001600160701b03166118e5565b610fcd610fa3602083018361247d565b30610fb460a0850160808601612725565b6001600160701b0316610e3360c0860160a0870161247d565b60408051808201909152600f81526e115e1c1958dd1959081bdd5d1c1d5d608a1b60208201526108a990610f8560e0840160c08501612725565b611011828261101b565b610369828261036d565b60c081015160a08201819052815161014083015160405163014ada7b60e31b815273__$1612f60132fc398380ea4a6f07b5643658$__93630a56d3d89361106a938893919290916004016129fd565b602060405180830381865af4158015611087573d6000803e3d6000fd5b505050506040513d601f19601f820116820180604052508101906110ab91906124a1565b60e08201528151602001515160405163b1687fc760e01b81526001600160a01b03909116600482015260009073__$1612f60132fc398380ea4a6f07b5643658$__9063b1687fc790602401602060405180830381865af4158015611113573d6000803e3d6000fd5b505050506040513d601f19601f8201168201806040525081019061113791906124a1565b90508160e0015181111561116f576111676040518060600160405280602a8152602001612b61602a9139826118e5565b60e082018190525b6064600080516020612b8b8339815191525460e08401516111939160ff1690612a2c565b61119d9190612a43565b6080830190815260408051808201909152600b81526a546f20726576736861726560a81b602082015290516111d291906118e5565b82516020015160400151608083015160e08401516111f091906124d0565b6111fa91906124d0565b6060830190815260408051808201909152601081526f50726f746f636f6c207072652d67617360801b6020820152905161123491906118e5565b8251602001516040015160608301516080840151600092916112559161268c565b61125f919061268c565b8351909150611330576112c36040518060400160405280600a81526020016913dd5d08185b5bdd5b9d60b21b8152508460c00151604051806040016040528060118152602001702a37ba30b6103332b2b99039b7903330b960791b8152508461192a565b808360c00151116113165760405162461bcd60e51b815260206004820152601f60248201527f496e73756666696369656e74206f757470757420746f207061792066656573006044820152606401610579565b808360c0015161132691906124d0565b60a08401526113a7565b80836101600151116113905760405162461bcd60e51b8152602060048201526024808201527f496e73756666696369656e7420696e7075742066756e647320746f20706179206044820152636665657360e01b6064820152608401610579565b8083610160018181516113a391906124d0565b9052505b835160200151516113dc600080516020612b8b8339815191526001015460808601516001600160a01b03848116921690611973565b845160200151604001511561146857845160209081015190810151604090910151611411916001600160a01b03841691611973565b84516020908101518082015160409182015182516001600160a01b038681168252948101919091529216917f1fd11cde99de9e2e6d2bc710c225ae2e03d1e8eece69b0c552c7ae2bb3499a70910160405180910390a25b5050505050565b6000821561148c57506020830151516001600160701b031661148f565b50805b600080516020612b8b8339815191526001015484518051602090910151516040516302ac425360e61b81526001600160a01b03928316600482015290821660248201526044810184905291169063ab1094c090606401600060405180830381600087803b1580156114ff57600080fd5b505af1158015611513573d6000803e3d6000fd5b5050505050505050565b600061152f604084016020850161247d565b90506000600080516020612b8b83398151915260010154604051630ba408e360e31b81526001600160a01b03848116600483015290911690635d20471890602401602060405180830381865afa15801561158d573d6000803e3d6000fd5b505050506040513d601f19601f820116820180604052508101906115b19190612a65565b9050806116005760405162461bcd60e51b815260206004820152601860248201527f46656520746f6b656e206973206e6f7420616c6c6f77656400000000000000006044820152606401610579565b61161060c0850160a0860161247d565b6001600160a01b0316826001600160a01b03161480611650575061163b610100850160e0860161247d565b6001600160a01b0316826001600160a01b0316145b6116ac5760405162461bcd60e51b815260206004820152602760248201527f46656520746f6b656e206d75737420626520696e707574206f72206f757470756044820152663a103a37b5b2b760c91b6064820152608401610579565b7f949817a987a8e038ef345d3c9d4fd28e49d8e4e09456e57c05a8b2ce2e62866f546001600160a01b03166370a082316116e9602087018761247d565b6040516001600160e01b031960e084901b1681526001600160a01b039091166004820152602401602060405180830381865afa15801561172d573d6000803e3d6000fd5b505050506040513d601f19601f8201168201806040525081019061175191906124a1565b610140840152611767604085016020860161247d565b6001600160a01b031661178060c0860160a0870161247d565b6001600160a01b0316148084521561185c576117a061010085018561269f565b60008181106117b1576117b16126ef565b90506020028101906117c39190612705565b6117d4906060810190604001612725565b6001600160701b03166117ed60a0860160808701612725565b6001600160701b03161161185c5760405162461bcd60e51b815260206004820152603060248201527f496e7075742066656520746f6b656e20616d6f756e7420646f6573206e6f742060448201526f6163636f756e7420666f72206665657360801b6064820152608401610579565b61186c60c0850160a0860161247d565b6040516370a0823160e01b81523060048201526001600160a01b0391909116906370a0823190602401602060405180830381865afa1580156118b2573d6000803e3d6000fd5b505050506040513d601f19601f820116820180604052508101906118d691906124a1565b61016090930192909252505050565b61036982826040516024016118fb929190612a82565b60408051601f198184030181529190526020810180516001600160e01b0316632d839cb360e21b179052611b66565b610339848484846040516024016119449493929190612a95565b60408051601f198184030181529190526020810180516001600160e01b031663c67ea9d160e01b179052611b66565b6040516001600160a01b038316602482015260448101829052610f3890849063a9059cbb60e01b906064015b60408051601f198184030181529190526020810180516001600160e01b03166001600160e01b031990931692909217909152611b87565b6108a9816040516024016119ea9190612ad2565b60408051601f198184030181529190526020810180516001600160e01b031663104c13eb60e21b179052611b66565b801580611a935750604051636eb1769f60e11b81523060048201526001600160a01b03838116602483015284169063dd62ed3e90604401602060405180830381865afa158015611a6d573d6000803e3d6000fd5b505050506040513d601f19601f82011682018060405250810190611a9191906124a1565b155b611afe5760405162461bcd60e51b815260206004820152603660248201527f5361666545524332303a20617070726f76652066726f6d206e6f6e2d7a65726f60448201527520746f206e6f6e2d7a65726f20616c6c6f77616e636560501b6064820152608401610579565b6040516001600160a01b038316602482015260448101829052610f3890849063095ea7b360e01b9060640161199f565b6040516001600160a01b03808516602483015283166044820152606481018290526103399085906323b872dd60e01b9060840161199f565b80516a636f6e736f6c652e6c6f67602083016000808483855afa5050505050565b6000611bdc826040518060400160405280602081526020017f5361666545524332303a206c6f772d6c6576656c2063616c6c206661696c6564815250856001600160a01b0316611c599092919063ffffffff16565b805190915015610f385780806020019051810190611bfa9190612a65565b610f385760405162461bcd60e51b815260206004820152602a60248201527f5361666545524332303a204552433230206f7065726174696f6e20646964206e6044820152691bdd081cdd58d8d9595960b21b6064820152608401610579565b6060611c688484600085611c70565b949350505050565b606082471015611cd15760405162461bcd60e51b815260206004820152602660248201527f416464726573733a20696e73756666696369656e742062616c616e636520666f6044820152651c8818d85b1b60d21b6064820152608401610579565b600080866001600160a01b03168587604051611ced9190612ae5565b60006040518083038185875af1925050503d8060008114611d2a576040519150601f19603f3d011682016040523d82523d6000602084013e611d2f565b606091505b5091509150611d4087838387611d4b565b979650505050505050565b60608315611dba578251600003611db3576001600160a01b0385163b611db35760405162461bcd60e51b815260206004820152601d60248201527f416464726573733a2063616c6c20746f206e6f6e2d636f6e74726163740000006044820152606401610579565b5081611c68565b611c688383815115611dcf5781518083602001fd5b8060405162461bcd60e51b81526004016105799190612ad2565b60006101208284031215611dfc57600080fd5b50919050565b634e487b7160e01b600052604160045260246000fd5b60405161018081016001600160401b0381118282101715611e3b57611e3b611e02565b60405290565b604080519081016001600160401b0381118282101715611e3b57611e3b611e02565b604051608081016001600160401b0381118282101715611e3b57611e3b611e02565b604051606081016001600160401b0381118282101715611e3b57611e3b611e02565b604051601f8201601f191681016001600160401b0381118282101715611ecf57611ecf611e02565b604052919050565b80151581146108a957600080fd5b8035611ef081611ed7565b919050565b60006101808284031215611f0857600080fd5b611f10611e18565b9050611f1b82611ee5565b8152611f2960208301611ee5565b602082015260408201356040820152606082013560608201526080820135608082015260a082013560a082015260c082013560c082015260e082013560e082015261010080830135818301525061012080830135818301525061014080830135818301525061016080830135818301525092915050565b60008060006101c08486031215611fb657600080fd5b83356001600160401b03811115611fcc57600080fd5b611fd886828701611de9565b935050611fe88560208601611ef5565b91506101a0840135611ff981611ed7565b809150509250925092565b6000806101a0838503121561201857600080fd5b82356001600160401b0381111561202e57600080fd5b61203a85828601611de9565b92505061204a8460208501611ef5565b90509250929050565b6001600160a01b03811681146108a957600080fd5b80356001600160701b0381168114611ef057600080fd5b60006040828403121561209157600080fd5b612099611e41565b90506120a482612068565b815260208201356120b481612053565b602082015292915050565b600082601f8301126120d057600080fd5b813560206001600160401b03808311156120ec576120ec611e02565b8260051b6120fb838201611ea7565b938452858101830193838101908886111561211557600080fd5b84880192505b85831015612217578235848111156121335760008081fd5b880160a0601f19828c03810182131561214c5760008081fd5b612154611e63565b8884013561216181612053565b815260408481013561217281612053565b828b015260606121848f87830161207f565b8383015293850135938985111561219b5760008081fd5b84860195508e603f8701126121b257600094508485fd5b8a8601359450898511156121c8576121c8611e02565b6121d88b85601f88011601611ea7565b93508484528e828688010111156121ef5760008081fd5b848287018c86013760009484018b01949094525091820152835250918401919084019061211b565b98975050505050505050565b600081830361012081121561223757600080fd5b61223f611e63565b9150608081121561224f57600080fd5b612257611e41565b833561226281612053565b81526060601f198301121561227657600080fd5b61227e611e85565b9150602084013561228e81612053565b8252604084013561229e81612053565b806020840152506060840135604083015281602082015280835250506122c7836080840161207f565b60208201526122d98360c0840161207f565b60408201526101008201356001600160401b038111156122f857600080fd5b612304848285016120bf565b60608301525092915050565b6000806101a0838503121561232457600080fd5b82356001600160401b0381111561233a57600080fd5b61203a85828601612223565b60006020828403121561235857600080fd5b5035919050565b8151151581526101808101602083015161237d602084018215159052565b5060408301516040830152606083015160608301526080830151608083015260a083015160a083015260c083015160c083015260e083015160e083015261010080840151818401525061012080840151818401525061014080840151818401525061016080840151818401525092915050565b60006020828403121561240257600080fd5b81356001600160401b0381111561241857600080fd5b611c6884828501611de9565b60008060006060848603121561243957600080fd5b83356001600160401b0381111561244f57600080fd5b61245b86828701612223565b935050602084013561246c81611ed7565b929592945050506040919091013590565b60006020828403121561248f57600080fd5b813561249a81612053565b9392505050565b6000602082840312156124b357600080fd5b5051919050565b634e487b7160e01b600052601160045260246000fd5b81810381811115610c8f57610c8f6124ba565b6000610c8f3683612223565b80516001600160701b031682526020908101516001600160a01b0316910152565b60005b8381101561252b578181015183820152602001612513565b50506000910152565b6000815180845261254c816020860160208601612510565b601f01601f19169290920160200192915050565b6000610120808401835160018060a01b0380825116875260208083015192508183511681890152808301516040838216818b01528085015194506060915084828b015282890151945060806125b7818c01876124ef565b818a015195506125ca60c08c01876124ef565b898301516101008c0198909852875196879052610140808c0198600589901b8d0190910197908501965060005b818110156126595761013f198d8a03018a52875160a0888251168b52888883015116888c01528582015161262d878d01826124ef565b5086820151915080858c0152612645818c0183612534565b9b88019b9a505050968501966001016125f7565b50969b9a5050505050505050505050565b60408152600061267d6040830185612560565b90508260208301529392505050565b80820180821115610c8f57610c8f6124ba565b6000808335601e198436030181126126b657600080fd5b8301803591506001600160401b038211156126d057600080fd5b6020019150600581901b36038213156126e857600080fd5b9250929050565b634e487b7160e01b600052603260045260246000fd5b60008235609e1983360301811261271b57600080fd5b9190910192915050565b60006020828403121561273757600080fd5b61249a82612068565b6000808335601e1984360301811261275757600080fd5b8301803591506001600160401b0382111561277157600080fd5b6020019150368190038213156126e857600080fd5b8183823760009101908152919050565b6000600182016127a8576127a86124ba565b5060010190565b6001600160701b036127c082612068565b16825260208101356127d181612053565b6001600160a01b03166020929092019190915250565b6000808335601e198436030181126127fe57600080fd5b83016020810192503590506001600160401b0381111561281d57600080fd5b8060051b36038213156126e857600080fd5b81835281816020850137506000828201602090810191909152601f909101601f19169091010190565b818352600060208085019450848460051b86018460005b8781101561293c5783830389528135609e1988360301811261289057600080fd5b870160a0813561289f81612053565b6001600160a01b03908116865282880135906128ba82612053565b168588015260406128cf8187018483016127af565b50608080830135601e198436030181126128e857600080fd5b9092018781019290356001600160401b0381111561290557600080fd5b80360384131561291457600080fd5b8282880152612926838801828661282f565b9c89019c9650505092860192505060010161286f565b5090979650505050505050565b604081526000833561295a81612053565b6001600160a01b03908116604084015260208501359061297982612053565b908116606084015260408501359061299082612053565b80821660808501525050606084013560a08301526129b460c08301608086016127af565b6101006129c681840160c087016127af565b6129d2818601866127e7565b91506101206101408501526129ec61016085018383612858565b925050508260208301529392505050565b608081526000612a106080830187612560565b9415156020830152506040810192909252606090910152919050565b8082028115828204841417610c8f57610c8f6124ba565b600082612a6057634e487b7160e01b600052601260045260246000fd5b500490565b600060208284031215612a7757600080fd5b815161249a81611ed7565b60408152600061267d6040830185612534565b608081526000612aa86080830187612534565b8560208401528281036040840152612ac08186612534565b91505082606083015295945050505050565b60208152600061249a6020830184612534565b6000825161271b81846020870161251056fe5472616e7366657272696e67207061727469616c20696e70757420746f6b656e20746f206465767465616d20666f72206661696c757265206761732066656573457374696d6174656420676173207573656420666f722074726164657220676173207061796d656e74547261646520746f6f20736d616c6c2e204368617267696e67206d696e696d756d20666c617420666565949817a987a8e038ef345d3c9d4fd28e49d8e4e09456e57c05a8b2ce2e62866c43616e6e6f74207265696d62757273652072656c61792073696e636520646f206e6f74206861766520656e6f7567682066756e647346656520746f6b656e206973206f75747075743b207468657265666f72652063616e6e6f74207265696d6275727365207465616d20666f72206661696c757265206761732066656573a2646970667358221220b4709d4c4e5acdcebd56d8a7dca729449b6d9f8bc27e3acb7b792629209df3c064736f6c63430008110033",
  "linkReferences": {
    "contracts/libraries/LibFees.sol": {
      "LibFees": [
        {
          "length": 20,
          "start": 1096
        },
        {
          "length": 20,
          "start": 3420
        },
        {
          "length": 20,
          "start": 4216
        },
        {
          "length": 20,
          "start": 4371
        }
      ]
    }
  },
  "deployedLinkReferences": {
    "contracts/libraries/LibFees.sol": {
      "LibFees": [
        {
          "length": 20,
          "start": 1038
        },
        {
          "length": 20,
          "start": 3362
        },
        {
          "length": 20,
          "start": 4158
        },
        {
          "length": 20,
          "start": 4313
        }
      ]
    }
  }
}