{
  "_format": "hh-sol-artifact-1",
  "contractName": "ArbitrumGasOracle",
  "sourceName": "contracts/dexible/oracle/ArbitrumGasOracle.sol",
  "abi": [
    {
      "inputs": [
        {
          "internalType": "uint256",
          "name": "m",
          "type": "uint256"
        }
      ],
      "stateMutability": "nonpayable",
      "type": "constructor"
    },
    {
      "anonymous": false,
      "inputs": [
        {
          "indexed": false,
          "internalType": "uint256",
          "name": "multiplier",
          "type": "uint256"
        }
      ],
      "name": "MultiplierChanged",
      "type": "event"
    },
    {
      "inputs": [
        {
          "internalType": "uint256",
          "name": "callDataSize",
          "type": "uint256"
        },
        {
          "internalType": "uint256",
          "name": "l2GasUsed",
          "type": "uint256"
        }
      ],
      "name": "calculateGasCost",
      "outputs": [
        {
          "internalType": "uint256",
          "name": "",
          "type": "uint256"
        }
      ],
      "stateMutability": "view",
      "type": "function"
    },
    {
      "inputs": [
        {
          "internalType": "uint256",
          "name": "m",
          "type": "uint256"
        }
      ],
      "name": "setMultiplier",
      "outputs": [],
      "stateMutability": "nonpayable",
      "type": "function"
    }
  ],
  "bytecode": "0x608060405234801561001057600080fd5b5060405161034238038061034283398101604081905261002f91610049565b600080546001600160a01b03191633179055600155610062565b60006020828403121561005b57600080fd5b5051919050565b6102d1806100716000396000f3fe608060405234801561001057600080fd5b50600436106100365760003560e01c8063641579a61461003b578063852b66a514610050575b600080fd5b61004e6100493660046101b4565b610075565b005b61006361005e3660046101cd565b6100fd565b60405190815260200160405180910390f35b6000546001600160a01b031633146100c25760405162461bcd60e51b815260206004820152600c60248201526b155b985d5d1a1bdc9a5e995960a21b604482015260640160405180910390fd5b60018190556040518181527f0e17105029b990538e803a7a35f7c4fb0df74fcf27a15b12c46d0c6a59f827609060200160405180910390a150565b600080606c6001600160a01b03166341b247a86040518163ffffffff1660e01b815260040160c060405180830381865afa15801561013f573d6000803e3d6000fd5b505050506040513d601f19601f8201168201806040525081019061016391906101ef565b50505050915050670de0b6b3a76400008482600154610182919061024f565b61018c919061024f565b6101969190610266565b6101a03a8561024f565b6101aa9190610288565b9150505b92915050565b6000602082840312156101c657600080fd5b5035919050565b600080604083850312156101e057600080fd5b50508035926020909101359150565b60008060008060008060c0878903121561020857600080fd5b865195506020870151945060408701519350606087015192506080870151915060a087015190509295509295509295565b634e487b7160e01b600052601160045260246000fd5b80820281158282048414176101ae576101ae610239565b60008261028357634e487b7160e01b600052601260045260246000fd5b500490565b808201808211156101ae576101ae61023956fea264697066735822122045394efd56994673880987037c8920dc351b28cb3fa6c9ecac04df67662ea88564736f6c63430008110033",
  "linkReferences": {},
  "deployedLinkReferences": {}
}