{
  "_format": "hh-sol-artifact-1",
  "contractName": "DXBL",
  "sourceName": "contracts/token/DXBL.sol",
  "abi": [
    {
      "inputs": [
        {
          "internalType": "address",
          "name": "_minter",
          "type": "address"
        },
        {
          "internalType": "uint32",
          "name": "discountRate",
          "type": "uint32"
        },
        {
          "internalType": "string",
          "name": "name",
          "type": "string"
        },
        {
          "internalType": "string",
          "name": "symbol",
          "type": "string"
        }
      ],
      "stateMutability": "nonpayable",
      "type": "constructor"
    },
    {
      "anonymous": false,
      "inputs": [
        {
          "indexed": true,
          "internalType": "address",
          "name": "owner",
          "type": "address"
        },
        {
          "indexed": true,
          "internalType": "address",
          "name": "spender",
          "type": "address"
        },
        {
          "indexed": false,
          "internalType": "uint256",
          "name": "value",
          "type": "uint256"
        }
      ],
      "name": "Approval",
      "type": "event"
    },
    {
      "anonymous": false,
      "inputs": [
        {
          "indexed": false,
          "internalType": "uint32",
          "name": "newRate",
          "type": "uint32"
        }
      ],
      "name": "DiscountRateChanged",
      "type": "event"
    },
    {
      "anonymous": false,
      "inputs": [
        {
          "indexed": true,
          "internalType": "address",
          "name": "from",
          "type": "address"
        },
        {
          "indexed": true,
          "internalType": "address",
          "name": "to",
          "type": "address"
        },
        {
          "indexed": false,
          "internalType": "uint256",
          "name": "value",
          "type": "uint256"
        }
      ],
      "name": "Transfer",
      "type": "event"
    },
    {
      "inputs": [
        {
          "internalType": "address",
          "name": "owner",
          "type": "address"
        },
        {
          "internalType": "address",
          "name": "spender",
          "type": "address"
        }
      ],
      "name": "allowance",
      "outputs": [
        {
          "internalType": "uint256",
          "name": "",
          "type": "uint256"
        }
      ],
      "stateMutability": "view",
      "type": "function"
    },
    {
      "inputs": [
        {
          "internalType": "address",
          "name": "spender",
          "type": "address"
        },
        {
          "internalType": "uint256",
          "name": "amount",
          "type": "uint256"
        }
      ],
      "name": "approve",
      "outputs": [
        {
          "internalType": "bool",
          "name": "",
          "type": "bool"
        }
      ],
      "stateMutability": "nonpayable",
      "type": "function"
    },
    {
      "inputs": [
        {
          "internalType": "address",
          "name": "account",
          "type": "address"
        }
      ],
      "name": "balanceOf",
      "outputs": [
        {
          "internalType": "uint256",
          "name": "",
          "type": "uint256"
        }
      ],
      "stateMutability": "view",
      "type": "function"
    },
    {
      "inputs": [
        {
          "internalType": "address",
          "name": "burner",
          "type": "address"
        },
        {
          "internalType": "uint256",
          "name": "amount",
          "type": "uint256"
        }
      ],
      "name": "burn",
      "outputs": [],
      "stateMutability": "nonpayable",
      "type": "function"
    },
    {
      "inputs": [
        {
          "components": [
            {
              "internalType": "bool",
              "name": "referred",
              "type": "bool"
            },
            {
              "internalType": "address",
              "name": "trader",
              "type": "address"
            },
            {
              "internalType": "uint256",
              "name": "amt",
              "type": "uint256"
            },
            {
              "internalType": "uint256",
              "name": "dxblBalance",
              "type": "uint256"
            },
            {
              "internalType": "uint16",
              "name": "stdBpsRate",
              "type": "uint16"
            },
            {
              "internalType": "uint16",
              "name": "minBpsRate",
              "type": "uint16"
            }
          ],
          "internalType": "struct IDXBL.FeeRequest",
          "name": "request",
          "type": "tuple"
        }
      ],
      "name": "computeDiscountedFee",
      "outputs": [
        {
          "internalType": "uint256",
          "name": "",
          "type": "uint256"
        }
      ],
      "stateMutability": "view",
      "type": "function"
    },
    {
      "inputs": [],
      "name": "decimals",
      "outputs": [
        {
          "internalType": "uint8",
          "name": "",
          "type": "uint8"
        }
      ],
      "stateMutability": "view",
      "type": "function"
    },
    {
      "inputs": [
        {
          "internalType": "address",
          "name": "spender",
          "type": "address"
        },
        {
          "internalType": "uint256",
          "name": "subtractedValue",
          "type": "uint256"
        }
      ],
      "name": "decreaseAllowance",
      "outputs": [
        {
          "internalType": "bool",
          "name": "",
          "type": "bool"
        }
      ],
      "stateMutability": "nonpayable",
      "type": "function"
    },
    {
      "inputs": [],
      "name": "discountPerTokenBps",
      "outputs": [
        {
          "internalType": "uint32",
          "name": "",
          "type": "uint32"
        }
      ],
      "stateMutability": "view",
      "type": "function"
    },
    {
      "inputs": [
        {
          "internalType": "address",
          "name": "spender",
          "type": "address"
        },
        {
          "internalType": "uint256",
          "name": "addedValue",
          "type": "uint256"
        }
      ],
      "name": "increaseAllowance",
      "outputs": [
        {
          "internalType": "bool",
          "name": "",
          "type": "bool"
        }
      ],
      "stateMutability": "nonpayable",
      "type": "function"
    },
    {
      "inputs": [
        {
          "internalType": "address",
          "name": "receiver",
          "type": "address"
        },
        {
          "internalType": "uint256",
          "name": "amount",
          "type": "uint256"
        }
      ],
      "name": "mint",
      "outputs": [],
      "stateMutability": "nonpayable",
      "type": "function"
    },
    {
      "inputs": [],
      "name": "minter",
      "outputs": [
        {
          "internalType": "address",
          "name": "",
          "type": "address"
        }
      ],
      "stateMutability": "view",
      "type": "function"
    },
    {
      "inputs": [],
      "name": "name",
      "outputs": [
        {
          "internalType": "string",
          "name": "",
          "type": "string"
        }
      ],
      "stateMutability": "view",
      "type": "function"
    },
    {
      "inputs": [
        {
          "internalType": "uint32",
          "name": "discount",
          "type": "uint32"
        }
      ],
      "name": "setDiscountRate",
      "outputs": [],
      "stateMutability": "nonpayable",
      "type": "function"
    },
    {
      "inputs": [],
      "name": "symbol",
      "outputs": [
        {
          "internalType": "string",
          "name": "",
          "type": "string"
        }
      ],
      "stateMutability": "view",
      "type": "function"
    },
    {
      "inputs": [],
      "name": "totalSupply",
      "outputs": [
        {
          "internalType": "uint256",
          "name": "",
          "type": "uint256"
        }
      ],
      "stateMutability": "view",
      "type": "function"
    },
    {
      "inputs": [
        {
          "internalType": "address",
          "name": "to",
          "type": "address"
        },
        {
          "internalType": "uint256",
          "name": "amount",
          "type": "uint256"
        }
      ],
      "name": "transfer",
      "outputs": [
        {
          "internalType": "bool",
          "name": "",
          "type": "bool"
        }
      ],
      "stateMutability": "nonpayable",
      "type": "function"
    },
    {
      "inputs": [
        {
          "internalType": "address",
          "name": "from",
          "type": "address"
        },
        {
          "internalType": "address",
          "name": "to",
          "type": "address"
        },
        {
          "internalType": "uint256",
          "name": "amount",
          "type": "uint256"
        }
      ],
      "name": "transferFrom",
      "outputs": [
        {
          "internalType": "bool",
          "name": "",
          "type": "bool"
        }
      ],
      "stateMutability": "nonpayable",
      "type": "function"
    }
  ],
  "bytecode": "0x60806040523480156200001157600080fd5b5060405162001269380380620012698339810160408190526200003491620001fc565b8181600362000044838262000333565b50600462000053828262000333565b5050506001600160a01b038416620000a35760405162461bcd60e51b815260206004820152600e60248201526d24b73b30b634b21036b4b73a32b960911b60448201526064015b60405180910390fd5b833b63ffffffff8116620000fa5760405162461bcd60e51b815260206004820152601960248201527f4d696e746572206d757374206265206120636f6e74726163740000000000000060448201526064016200009a565b50506005805463ffffffff909316600160a01b026001600160c01b03199093166001600160a01b03909416939093179190911790915550620003ff565b634e487b7160e01b600052604160045260246000fd5b600082601f8301126200015f57600080fd5b81516001600160401b03808211156200017c576200017c62000137565b604051601f8301601f19908116603f01168101908282118183101715620001a757620001a762000137565b81604052838152602092508683858801011115620001c457600080fd5b600091505b83821015620001e85785820183015181830184015290820190620001c9565b600093810190920192909252949350505050565b600080600080608085870312156200021357600080fd5b84516001600160a01b03811681146200022b57600080fd5b602086015190945063ffffffff811681146200024657600080fd5b60408601519093506001600160401b03808211156200026457600080fd5b62000272888389016200014d565b935060608701519150808211156200028957600080fd5b5062000298878288016200014d565b91505092959194509250565b600181811c90821680620002b957607f821691505b602082108103620002da57634e487b7160e01b600052602260045260246000fd5b50919050565b601f8211156200032e57600081815260208120601f850160051c81016020861015620003095750805b601f850160051c820191505b818110156200032a5782815560010162000315565b5050505b505050565b81516001600160401b038111156200034f576200034f62000137565b6200036781620003608454620002a4565b84620002e0565b602080601f8311600181146200039f5760008415620003865750858301515b600019600386901b1c1916600185901b1785556200032a565b600085815260208120601f198616915b82811015620003d057888601518255948401946001909101908401620003af565b5085821015620003ef5787850151600019600388901b60f8161c191681555b5050505050600190811b01905550565b610e5a806200040f6000396000f3fe608060405234801561001057600080fd5b506004361061010b5760003560e01c8063466a944e116100a25780639dc29fac116100715780639dc29fac14610248578063a015b6391461025b578063a457c2d71461026e578063a9059cbb14610281578063dd62ed3e1461029457600080fd5b8063466a944e146101d8578063566826d1146101eb57806370a082311461021757806395d89b411461024057600080fd5b806323b872dd116100de57806323b872dd1461018e578063313ce567146101a157806339509351146101b057806340c10f19146101c357600080fd5b806306fdde0314610110578063075461721461012e578063095ea7b31461015957806318160ddd1461017c575b600080fd5b6101186102a7565b6040516101259190610bac565b60405180910390f35b600554610141906001600160a01b031681565b6040516001600160a01b039091168152602001610125565b61016c610167366004610c16565b610339565b6040519015158152602001610125565b6002545b604051908152602001610125565b61016c61019c366004610c40565b610353565b60405160128152602001610125565b61016c6101be366004610c16565b610377565b6101d66101d1366004610c16565b610399565b005b6101d66101e6366004610c7c565b6103da565b60055461020290600160a01b900463ffffffff1681565b60405163ffffffff9091168152602001610125565b610180610225366004610ca9565b6001600160a01b031660009081526020819052604090205490565b61011861045e565b6101d6610256366004610c16565b61046d565b610180610269366004610cc4565b6104a1565b61016c61027c366004610c16565b6105cc565b61016c61028f366004610c16565b610647565b6101806102a2366004610cdc565b610655565b6060600380546102b690610d0f565b80601f01602080910402602001604051908101604052809291908181526020018280546102e290610d0f565b801561032f5780601f106103045761010080835404028352916020019161032f565b820191906000526020600020905b81548152906001019060200180831161031257829003601f168201915b5050505050905090565b600033610347818585610680565b60019150505b92915050565b6000336103618582856107a5565b61036c85858561081f565b506001949350505050565b60003361034781858561038a8383610655565b6103949190610d59565b610680565b6005546001600160a01b031633146103cc5760405162461bcd60e51b81526004016103c390610d6c565b60405180910390fd5b6103d682826109c3565b5050565b6005546001600160a01b031633146104045760405162461bcd60e51b81526004016103c390610d6c565b6005805463ffffffff60a01b1916600160a01b63ffffffff8416908102919091179091556040519081527fd6a59f4cefd3102e4c57d8e4b77e77abf06debd3551d4f3bc6d0b8e4674129939060200160405180910390a150565b6060600480546102b690610d0f565b6005546001600160a01b031633146104975760405162461bcd60e51b81526004016103c390610d6c565b6103d68282610a82565b6000806127106104b760a0850160808601610d92565b6104c99061ffff166040860135610db6565b6104d39190610dcd565b90506104e26020840184610def565b156105015760646104f482600a610db6565b6104fe9190610dcd565b90505b60608301356000819003610516575092915050565b6005546000906127109061053790600160a01b900463ffffffff1684610db6565b6105419190610dcd565b9050600061271061055860c0880160a08901610d92565b61056a9061ffff166040890135610db6565b6105749190610dcd565b90506000670de0b6b3a764000061058b8487610db6565b6105959190610dcd565b9050848111156105a9575095945050505050565b6105b38186610e11565b9450818510156105c1578194505b509295945050505050565b600033816105da8286610655565b90508381101561063a5760405162461bcd60e51b815260206004820152602560248201527f45524332303a2064656372656173656420616c6c6f77616e63652062656c6f77604482015264207a65726f60d81b60648201526084016103c3565b61036c8286868403610680565b60003361034781858561081f565b6001600160a01b03918216600090815260016020908152604080832093909416825291909152205490565b6001600160a01b0383166106e25760405162461bcd60e51b8152602060048201526024808201527f45524332303a20617070726f76652066726f6d20746865207a65726f206164646044820152637265737360e01b60648201526084016103c3565b6001600160a01b0382166107435760405162461bcd60e51b815260206004820152602260248201527f45524332303a20617070726f766520746f20746865207a65726f206164647265604482015261737360f01b60648201526084016103c3565b6001600160a01b0383811660008181526001602090815260408083209487168084529482529182902085905590518481527f8c5be1e5ebec7d5bd14f71427d1e84f3dd0314c0f7b2291e5b200ac8c7c3b92591015b60405180910390a3505050565b60006107b18484610655565b90506000198114610819578181101561080c5760405162461bcd60e51b815260206004820152601d60248201527f45524332303a20696e73756666696369656e7420616c6c6f77616e636500000060448201526064016103c3565b6108198484848403610680565b50505050565b6001600160a01b0383166108835760405162461bcd60e51b815260206004820152602560248201527f45524332303a207472616e736665722066726f6d20746865207a65726f206164604482015264647265737360d81b60648201526084016103c3565b6001600160a01b0382166108e55760405162461bcd60e51b815260206004820152602360248201527f45524332303a207472616e7366657220746f20746865207a65726f206164647260448201526265737360e81b60648201526084016103c3565b6001600160a01b0383166000908152602081905260409020548181101561095d5760405162461bcd60e51b815260206004820152602660248201527f45524332303a207472616e7366657220616d6f756e7420657863656564732062604482015265616c616e636560d01b60648201526084016103c3565b6001600160a01b03848116600081815260208181526040808320878703905593871680835291849020805487019055925185815290927fddf252ad1be2c89b69c2b068fc378daa952ba7f163c4a11628f55a4df523b3ef910160405180910390a3610819565b6001600160a01b038216610a195760405162461bcd60e51b815260206004820152601f60248201527f45524332303a206d696e7420746f20746865207a65726f20616464726573730060448201526064016103c3565b8060026000828254610a2b9190610d59565b90915550506001600160a01b038216600081815260208181526040808320805486019055518481527fddf252ad1be2c89b69c2b068fc378daa952ba7f163c4a11628f55a4df523b3ef910160405180910390a35050565b6001600160a01b038216610ae25760405162461bcd60e51b815260206004820152602160248201527f45524332303a206275726e2066726f6d20746865207a65726f206164647265736044820152607360f81b60648201526084016103c3565b6001600160a01b03821660009081526020819052604090205481811015610b565760405162461bcd60e51b815260206004820152602260248201527f45524332303a206275726e20616d6f756e7420657863656564732062616c616e604482015261636560f01b60648201526084016103c3565b6001600160a01b0383166000818152602081815260408083208686039055600280548790039055518581529192917fddf252ad1be2c89b69c2b068fc378daa952ba7f163c4a11628f55a4df523b3ef9101610798565b600060208083528351808285015260005b81811015610bd957858101830151858201604001528201610bbd565b506000604082860101526040601f19601f8301168501019250505092915050565b80356001600160a01b0381168114610c1157600080fd5b919050565b60008060408385031215610c2957600080fd5b610c3283610bfa565b946020939093013593505050565b600080600060608486031215610c5557600080fd5b610c5e84610bfa565b9250610c6c60208501610bfa565b9150604084013590509250925092565b600060208284031215610c8e57600080fd5b813563ffffffff81168114610ca257600080fd5b9392505050565b600060208284031215610cbb57600080fd5b610ca282610bfa565b600060c08284031215610cd657600080fd5b50919050565b60008060408385031215610cef57600080fd5b610cf883610bfa565b9150610d0660208401610bfa565b90509250929050565b600181811c90821680610d2357607f821691505b602082108103610cd657634e487b7160e01b600052602260045260246000fd5b634e487b7160e01b600052601160045260246000fd5b8082018082111561034d5761034d610d43565b6020808252600c908201526b155b985d5d1a1bdc9a5e995960a21b604082015260600190565b600060208284031215610da457600080fd5b813561ffff81168114610ca257600080fd5b808202811582820484141761034d5761034d610d43565b600082610dea57634e487b7160e01b600052601260045260246000fd5b500490565b600060208284031215610e0157600080fd5b81358015158114610ca257600080fd5b8181038181111561034d5761034d610d4356fea264697066735822122092c5dc45e7401e0b905180f889b944f7075e3973f07f060befd78dc9a9c469c164736f6c63430008110033",
  "linkReferences": {},
  "deployedLinkReferences": {}
}