{
  "_format": "hh-sol-artifact-1",
  "contractName": "DXBL",
  "sourceName": "contracts/token/DXBL.sol",
  "abi": [
    {
      "inputs": [
        {
          "internalType": "address",
          "name": "_minter",
          "type": "address"
        },
        {
          "internalType": "uint32",
          "name": "discountRate",
          "type": "uint32"
        },
        {
          "internalType": "string",
          "name": "name",
          "type": "string"
        },
        {
          "internalType": "string",
          "name": "symbol",
          "type": "string"
        }
      ],
      "stateMutability": "nonpayable",
      "type": "constructor"
    },
    {
      "anonymous": false,
      "inputs": [
        {
          "indexed": true,
          "internalType": "address",
          "name": "owner",
          "type": "address"
        },
        {
          "indexed": true,
          "internalType": "address",
          "name": "spender",
          "type": "address"
        },
        {
          "indexed": false,
          "internalType": "uint256",
          "name": "value",
          "type": "uint256"
        }
      ],
      "name": "Approval",
      "type": "event"
    },
    {
      "anonymous": false,
      "inputs": [
        {
          "indexed": false,
          "internalType": "uint32",
          "name": "newRate",
          "type": "uint32"
        }
      ],
      "name": "DiscountRateChanged",
      "type": "event"
    },
    {
      "anonymous": false,
      "inputs": [
        {
          "indexed": false,
          "internalType": "address",
          "name": "newMinter",
          "type": "address"
        }
      ],
      "name": "MinterProposed",
      "type": "event"
    },
    {
      "anonymous": false,
      "inputs": [
        {
          "indexed": false,
          "internalType": "address",
          "name": "minter",
          "type": "address"
        }
      ],
      "name": "NewMinter",
      "type": "event"
    },
    {
      "anonymous": false,
      "inputs": [
        {
          "indexed": true,
          "internalType": "address",
          "name": "from",
          "type": "address"
        },
        {
          "indexed": true,
          "internalType": "address",
          "name": "to",
          "type": "address"
        },
        {
          "indexed": false,
          "internalType": "uint256",
          "name": "value",
          "type": "uint256"
        }
      ],
      "name": "Transfer",
      "type": "event"
    },
    {
      "inputs": [
        {
          "internalType": "address",
          "name": "owner",
          "type": "address"
        },
        {
          "internalType": "address",
          "name": "spender",
          "type": "address"
        }
      ],
      "name": "allowance",
      "outputs": [
        {
          "internalType": "uint256",
          "name": "",
          "type": "uint256"
        }
      ],
      "stateMutability": "view",
      "type": "function"
    },
    {
      "inputs": [
        {
          "internalType": "address",
          "name": "spender",
          "type": "address"
        },
        {
          "internalType": "uint256",
          "name": "amount",
          "type": "uint256"
        }
      ],
      "name": "approve",
      "outputs": [
        {
          "internalType": "bool",
          "name": "",
          "type": "bool"
        }
      ],
      "stateMutability": "nonpayable",
      "type": "function"
    },
    {
      "inputs": [
        {
          "internalType": "address",
          "name": "account",
          "type": "address"
        }
      ],
      "name": "balanceOf",
      "outputs": [
        {
          "internalType": "uint256",
          "name": "",
          "type": "uint256"
        }
      ],
      "stateMutability": "view",
      "type": "function"
    },
    {
      "inputs": [
        {
          "internalType": "address",
          "name": "burner",
          "type": "address"
        },
        {
          "internalType": "uint256",
          "name": "amount",
          "type": "uint256"
        }
      ],
      "name": "burn",
      "outputs": [],
      "stateMutability": "nonpayable",
      "type": "function"
    },
    {
      "inputs": [
        {
          "components": [
            {
              "internalType": "bool",
              "name": "referred",
              "type": "bool"
            },
            {
              "internalType": "address",
              "name": "trader",
              "type": "address"
            },
            {
              "internalType": "uint256",
              "name": "amt",
              "type": "uint256"
            },
            {
              "internalType": "uint256",
              "name": "dxblBalance",
              "type": "uint256"
            },
            {
              "internalType": "uint16",
              "name": "stdBpsRate",
              "type": "uint16"
            },
            {
              "internalType": "uint16",
              "name": "minBpsRate",
              "type": "uint16"
            }
          ],
          "internalType": "struct IDXBL.FeeRequest",
          "name": "request",
          "type": "tuple"
        }
      ],
      "name": "computeDiscountedFee",
      "outputs": [
        {
          "internalType": "uint256",
          "name": "",
          "type": "uint256"
        }
      ],
      "stateMutability": "view",
      "type": "function"
    },
    {
      "inputs": [],
      "name": "decimals",
      "outputs": [
        {
          "internalType": "uint8",
          "name": "",
          "type": "uint8"
        }
      ],
      "stateMutability": "view",
      "type": "function"
    },
    {
      "inputs": [
        {
          "internalType": "address",
          "name": "spender",
          "type": "address"
        },
        {
          "internalType": "uint256",
          "name": "subtractedValue",
          "type": "uint256"
        }
      ],
      "name": "decreaseAllowance",
      "outputs": [
        {
          "internalType": "bool",
          "name": "",
          "type": "bool"
        }
      ],
      "stateMutability": "nonpayable",
      "type": "function"
    },
    {
      "inputs": [],
      "name": "discountPerTokenBps",
      "outputs": [
        {
          "internalType": "uint32",
          "name": "",
          "type": "uint32"
        }
      ],
      "stateMutability": "view",
      "type": "function"
    },
    {
      "inputs": [
        {
          "internalType": "address",
          "name": "spender",
          "type": "address"
        },
        {
          "internalType": "uint256",
          "name": "addedValue",
          "type": "uint256"
        }
      ],
      "name": "increaseAllowance",
      "outputs": [
        {
          "internalType": "bool",
          "name": "",
          "type": "bool"
        }
      ],
      "stateMutability": "nonpayable",
      "type": "function"
    },
    {
      "inputs": [
        {
          "internalType": "address",
          "name": "receiver",
          "type": "address"
        },
        {
          "internalType": "uint256",
          "name": "amount",
          "type": "uint256"
        }
      ],
      "name": "mint",
      "outputs": [],
      "stateMutability": "nonpayable",
      "type": "function"
    },
    {
      "inputs": [],
      "name": "minter",
      "outputs": [
        {
          "internalType": "address",
          "name": "",
          "type": "address"
        }
      ],
      "stateMutability": "view",
      "type": "function"
    },
    {
      "inputs": [],
      "name": "name",
      "outputs": [
        {
          "internalType": "string",
          "name": "",
          "type": "string"
        }
      ],
      "stateMutability": "view",
      "type": "function"
    },
    {
      "inputs": [
        {
          "internalType": "uint32",
          "name": "discount",
          "type": "uint32"
        }
      ],
      "name": "setDiscountRate",
      "outputs": [],
      "stateMutability": "nonpayable",
      "type": "function"
    },
    {
      "inputs": [
        {
          "internalType": "address",
          "name": "newMinter",
          "type": "address"
        }
      ],
      "name": "setNewMinter",
      "outputs": [],
      "stateMutability": "nonpayable",
      "type": "function"
    },
    {
      "inputs": [],
      "name": "symbol",
      "outputs": [
        {
          "internalType": "string",
          "name": "",
          "type": "string"
        }
      ],
      "stateMutability": "view",
      "type": "function"
    },
    {
      "inputs": [],
      "name": "totalSupply",
      "outputs": [
        {
          "internalType": "uint256",
          "name": "",
          "type": "uint256"
        }
      ],
      "stateMutability": "view",
      "type": "function"
    },
    {
      "inputs": [
        {
          "internalType": "address",
          "name": "to",
          "type": "address"
        },
        {
          "internalType": "uint256",
          "name": "amount",
          "type": "uint256"
        }
      ],
      "name": "transfer",
      "outputs": [
        {
          "internalType": "bool",
          "name": "",
          "type": "bool"
        }
      ],
      "stateMutability": "nonpayable",
      "type": "function"
    },
    {
      "inputs": [
        {
          "internalType": "address",
          "name": "from",
          "type": "address"
        },
        {
          "internalType": "address",
          "name": "to",
          "type": "address"
        },
        {
          "internalType": "uint256",
          "name": "amount",
          "type": "uint256"
        }
      ],
      "name": "transferFrom",
      "outputs": [
        {
          "internalType": "bool",
          "name": "",
          "type": "bool"
        }
      ],
      "stateMutability": "nonpayable",
      "type": "function"
    }
  ],
  "bytecode": "0x60806040523480156200001157600080fd5b506040516200137b3803806200137b83398101604081905262000034916200020c565b8181600362000044838262000343565b50600462000053828262000343565b50505062000067846200009f60201b60201c565b50506005805463ffffffff909216600160a01b026001600160c01b03199092166001600160a01b03909316929092171790556200040f565b6001600160a01b038116620000ec5760405162461bcd60e51b815260206004820152600e60248201526d24b73b30b634b21036b4b73a32b960911b60448201526064015b60405180910390fd5b803b63ffffffff8116620001435760405162461bcd60e51b815260206004820152601960248201527f4d696e746572206d757374206265206120636f6e7472616374000000000000006044820152606401620000e3565b5050565b634e487b7160e01b600052604160045260246000fd5b600082601f8301126200016f57600080fd5b81516001600160401b03808211156200018c576200018c62000147565b604051601f8301601f19908116603f01168101908282118183101715620001b757620001b762000147565b81604052838152602092508683858801011115620001d457600080fd5b600091505b83821015620001f85785820183015181830184015290820190620001d9565b600093810190920192909252949350505050565b600080600080608085870312156200022357600080fd5b84516001600160a01b03811681146200023b57600080fd5b602086015190945063ffffffff811681146200025657600080fd5b60408601519093506001600160401b03808211156200027457600080fd5b62000282888389016200015d565b935060608701519150808211156200029957600080fd5b50620002a8878288016200015d565b91505092959194509250565b600181811c90821680620002c957607f821691505b602082108103620002ea57634e487b7160e01b600052602260045260246000fd5b50919050565b601f8211156200033e57600081815260208120601f850160051c81016020861015620003195750805b601f850160051c820191505b818110156200033a5782815560010162000325565b5050505b505050565b81516001600160401b038111156200035f576200035f62000147565b6200037781620003708454620002b4565b84620002f0565b602080601f831160018114620003af5760008415620003965750858301515b600019600386901b1c1916600185901b1785556200033a565b600085815260208120601f198616915b82811015620003e057888601518255948401946001909101908401620003bf565b5085821015620003ff5787850151600019600388901b60f8161c191681555b5050505050600190811b01905550565b610f5c806200041f6000396000f3fe608060405234801561001057600080fd5b50600436106100f65760003560e01c806348af6b151161009257806348af6b15146101d6578063566826d1146101e957806370a082311461021557806395d89b411461023e5780639dc29fac14610246578063a015b63914610259578063a457c2d71461026c578063a9059cbb1461027f578063dd62ed3e1461029257600080fd5b806306fdde03146100fb5780630754617214610119578063095ea7b31461014457806318160ddd1461016757806323b872dd14610179578063313ce5671461018c578063395093511461019b57806340c10f19146101ae578063466a944e146101c3575b600080fd5b6101036102a5565b6040516101109190610c8e565b60405180910390f35b60055461012c906001600160a01b031681565b6040516001600160a01b039091168152602001610110565b610157610152366004610cf8565b610337565b6040519015158152602001610110565b6002545b604051908152602001610110565b610157610187366004610d22565b610351565b60405160128152602001610110565b6101576101a9366004610cf8565b610375565b6101c16101bc366004610cf8565b610397565b005b6101c16101d1366004610d5e565b6103d8565b6101c16101e4366004610d8b565b61045d565b60055461020090600160a01b900463ffffffff1681565b60405163ffffffff9091168152602001610110565b61016b610223366004610d8b565b6001600160a01b031660009081526020819052604090205490565b6101036104de565b6101c1610254366004610cf8565b6104ed565b61016b610267366004610da6565b610521565b61015761027a366004610cf8565b61064c565b61015761028d366004610cf8565b6106c7565b61016b6102a0366004610dbe565b6106d5565b6060600380546102b490610df1565b80601f01602080910402602001604051908101604052809291908181526020018280546102e090610df1565b801561032d5780601f106103025761010080835404028352916020019161032d565b820191906000526020600020905b81548152906001019060200180831161031057829003601f168201915b5050505050905090565b600033610345818585610700565b60019150505b92915050565b60003361035f858285610825565b61036a85858561089f565b506001949350505050565b60003361034581858561038883836106d5565b6103929190610e3b565b610700565b6005546001600160a01b031633146103ca5760405162461bcd60e51b81526004016103c190610e4e565b60405180910390fd5b6103d48282610a31565b5050565b6005546001600160a01b031633146104025760405162461bcd60e51b81526004016103c190610e4e565b6005805463ffffffff60a01b1916600160a01b63ffffffff8416908102919091179091556040519081527fd6a59f4cefd3102e4c57d8e4b77e77abf06debd3551d4f3bc6d0b8e467412993906020015b60405180910390a150565b6005546001600160a01b031633146104875760405162461bcd60e51b81526004016103c190610e4e565b61049081610ade565b600580546001600160a01b0319166001600160a01b0383169081179091556040519081527f6adffd5c93085d835dac6f3b40adf7c242ca4b3284048d20c3d8a501748dc97390602001610452565b6060600480546102b490610df1565b6005546001600160a01b031633146105175760405162461bcd60e51b81526004016103c190610e4e565b6103d48282610b76565b60008061271061053760a0850160808601610e74565b6105499061ffff166040860135610e98565b6105539190610eaf565b90506105626020840184610ed1565b1561058157606461057482600a610e98565b61057e9190610eaf565b90505b60608301356000819003610596575092915050565b600554600090612710906105b790600160a01b900463ffffffff1684610e98565b6105c19190610eaf565b905060006127106105d860c0880160a08901610e74565b6105ea9061ffff166040890135610e98565b6105f49190610eaf565b90506000670de0b6b3a764000061060b8487610e98565b6106159190610eaf565b905084811115610629575095945050505050565b6106338186610ef3565b945081851015610641578194505b509295945050505050565b6000338161065a82866106d5565b9050838110156106ba5760405162461bcd60e51b815260206004820152602560248201527f45524332303a2064656372656173656420616c6c6f77616e63652062656c6f77604482015264207a65726f60d81b60648201526084016103c1565b61036a8286868403610700565b60003361034581858561089f565b6001600160a01b03918216600090815260016020908152604080832093909416825291909152205490565b6001600160a01b0383166107625760405162461bcd60e51b8152602060048201526024808201527f45524332303a20617070726f76652066726f6d20746865207a65726f206164646044820152637265737360e01b60648201526084016103c1565b6001600160a01b0382166107c35760405162461bcd60e51b815260206004820152602260248201527f45524332303a20617070726f766520746f20746865207a65726f206164647265604482015261737360f01b60648201526084016103c1565b6001600160a01b0383811660008181526001602090815260408083209487168084529482529182902085905590518481527f8c5be1e5ebec7d5bd14f71427d1e84f3dd0314c0f7b2291e5b200ac8c7c3b92591015b60405180910390a3505050565b600061083184846106d5565b90506000198114610899578181101561088c5760405162461bcd60e51b815260206004820152601d60248201527f45524332303a20696e73756666696369656e7420616c6c6f77616e636500000060448201526064016103c1565b6108998484848403610700565b50505050565b6001600160a01b0383166109035760405162461bcd60e51b815260206004820152602560248201527f45524332303a207472616e736665722066726f6d20746865207a65726f206164604482015264647265737360d81b60648201526084016103c1565b6001600160a01b0382166109655760405162461bcd60e51b815260206004820152602360248201527f45524332303a207472616e7366657220746f20746865207a65726f206164647260448201526265737360e81b60648201526084016103c1565b6001600160a01b038316600090815260208190526040902054818110156109dd5760405162461bcd60e51b815260206004820152602660248201527f45524332303a207472616e7366657220616d6f756e7420657863656564732062604482015265616c616e636560d01b60648201526084016103c1565b6001600160a01b0384811660008181526020818152604080832087870390559387168083529184902080548701905592518581529092600080516020610f07833981519152910160405180910390a3610899565b6001600160a01b038216610a875760405162461bcd60e51b815260206004820152601f60248201527f45524332303a206d696e7420746f20746865207a65726f20616464726573730060448201526064016103c1565b8060026000828254610a999190610e3b565b90915550506001600160a01b03821660008181526020818152604080832080548601905551848152600080516020610f07833981519152910160405180910390a35050565b6001600160a01b038116610b255760405162461bcd60e51b815260206004820152600e60248201526d24b73b30b634b21036b4b73a32b960911b60448201526064016103c1565b803b63ffffffff81166103d45760405162461bcd60e51b8152602060048201526019602482015278135a5b9d195c881b5d5cdd08189948184818dbdb9d1c9858dd603a1b60448201526064016103c1565b6001600160a01b038216610bd65760405162461bcd60e51b815260206004820152602160248201527f45524332303a206275726e2066726f6d20746865207a65726f206164647265736044820152607360f81b60648201526084016103c1565b6001600160a01b03821660009081526020819052604090205481811015610c4a5760405162461bcd60e51b815260206004820152602260248201527f45524332303a206275726e20616d6f756e7420657863656564732062616c616e604482015261636560f01b60648201526084016103c1565b6001600160a01b038316600081815260208181526040808320868603905560028054879003905551858152919291600080516020610f078339815191529101610818565b600060208083528351808285015260005b81811015610cbb57858101830151858201604001528201610c9f565b506000604082860101526040601f19601f8301168501019250505092915050565b80356001600160a01b0381168114610cf357600080fd5b919050565b60008060408385031215610d0b57600080fd5b610d1483610cdc565b946020939093013593505050565b600080600060608486031215610d3757600080fd5b610d4084610cdc565b9250610d4e60208501610cdc565b9150604084013590509250925092565b600060208284031215610d7057600080fd5b813563ffffffff81168114610d8457600080fd5b9392505050565b600060208284031215610d9d57600080fd5b610d8482610cdc565b600060c08284031215610db857600080fd5b50919050565b60008060408385031215610dd157600080fd5b610dda83610cdc565b9150610de860208401610cdc565b90509250929050565b600181811c90821680610e0557607f821691505b602082108103610db857634e487b7160e01b600052602260045260246000fd5b634e487b7160e01b600052601160045260246000fd5b8082018082111561034b5761034b610e25565b6020808252600c908201526b155b985d5d1a1bdc9a5e995960a21b604082015260600190565b600060208284031215610e8657600080fd5b813561ffff81168114610d8457600080fd5b808202811582820484141761034b5761034b610e25565b600082610ecc57634e487b7160e01b600052601260045260246000fd5b500490565b600060208284031215610ee357600080fd5b81358015158114610d8457600080fd5b8181038181111561034b5761034b610e2556feddf252ad1be2c89b69c2b068fc378daa952ba7f163c4a11628f55a4df523b3efa26469706673582212205dec37eaab63281c184718d64448a63e9a3d28a2226826577fee14f08fcc31e564736f6c63430008110033",
  "linkReferences": {},
  "deployedLinkReferences": {}
}