{
  "_format": "hh-sol-artifact-1",
  "contractName": "ComputationalView",
  "sourceName": "contracts/vault/baseContracts/ComputationalView.sol",
  "abi": [
    {
      "inputs": [],
      "name": "assets",
      "outputs": [
        {
          "components": [
            {
              "internalType": "address",
              "name": "token",
              "type": "address"
            },
            {
              "internalType": "uint256",
              "name": "balance",
              "type": "uint256"
            },
            {
              "internalType": "uint256",
              "name": "usdValue",
              "type": "uint256"
            },
            {
              "internalType": "uint256",
              "name": "usdPrice",
              "type": "uint256"
            }
          ],
          "internalType": "struct IComputationalView.AssetInfo[]",
          "name": "tokens",
          "type": "tuple[]"
        }
      ],
      "stateMutability": "view",
      "type": "function"
    },
    {
      "inputs": [],
      "name": "aumUSD",
      "outputs": [
        {
          "internalType": "uint256",
          "name": "usd",
          "type": "uint256"
        }
      ],
      "stateMutability": "view",
      "type": "function"
    },
    {
      "inputs": [
        {
          "internalType": "address",
          "name": "feeToken",
          "type": "address"
        },
        {
          "internalType": "uint256",
          "name": "amount",
          "type": "uint256"
        }
      ],
      "name": "computeVolumeUSD",
      "outputs": [
        {
          "internalType": "uint256",
          "name": "volumeUSD",
          "type": "uint256"
        }
      ],
      "stateMutability": "view",
      "type": "function"
    },
    {
      "inputs": [
        {
          "internalType": "address",
          "name": "feeToken",
          "type": "address"
        },
        {
          "internalType": "uint256",
          "name": "gasCost",
          "type": "uint256"
        }
      ],
      "name": "convertGasToFeeToken",
      "outputs": [
        {
          "internalType": "uint256",
          "name": "",
          "type": "uint256"
        }
      ],
      "stateMutability": "view",
      "type": "function"
    },
    {
      "inputs": [],
      "name": "currentMintRateUSD",
      "outputs": [
        {
          "internalType": "uint256",
          "name": "rate",
          "type": "uint256"
        }
      ],
      "stateMutability": "view",
      "type": "function"
    },
    {
      "inputs": [],
      "name": "currentNavUSD",
      "outputs": [
        {
          "internalType": "uint256",
          "name": "nav",
          "type": "uint256"
        }
      ],
      "stateMutability": "view",
      "type": "function"
    },
    {
      "inputs": [
        {
          "internalType": "address",
          "name": "rewardToken",
          "type": "address"
        },
        {
          "internalType": "uint256",
          "name": "dxblAmount",
          "type": "uint256"
        }
      ],
      "name": "estimateRedemption",
      "outputs": [
        {
          "internalType": "uint256",
          "name": "",
          "type": "uint256"
        }
      ],
      "stateMutability": "view",
      "type": "function"
    },
    {
      "inputs": [
        {
          "internalType": "address",
          "name": "feeToken",
          "type": "address"
        }
      ],
      "name": "feeTokenPriceUSD",
      "outputs": [
        {
          "internalType": "uint256",
          "name": "",
          "type": "uint256"
        }
      ],
      "stateMutability": "view",
      "type": "function"
    }
  ],
  "bytecode": "0x608060405234801561001057600080fd5b50610db5806100206000396000f3fe608060405234801561001057600080fd5b50600436106100785760003560e01c806320529bb11461007d5780633931f45d1461009857806341b5774a146100ab5780635de11890146100b357806371a97305146100bb5780637262f557146100d0578063ce25cb4d146100e3578063f7406fc3146100f6575b600080fd5b610085610109565b6040519081526020015b60405180910390f35b6100856100a6366004610a6f565b610205565b610085610324565b61008561039f565b6100c361046c565b60405161008f9190610a99565b6100856100de366004610a6f565b610660565b6100856100f1366004610b06565b610703565b610085610104366004610a6f565b61078a565b6000806101146107d7565b905060008160090180548060200260200160405190810160405280929190818152602001828054801561017057602002820191906000526020600020905b81546001600160a01b03168152600190910190602001808311610152575b5050505050905060005b81518110156101ff57600082828151811061019757610197610b28565b6020908102919091018101516001600160a01b03811660009081526027870190925260408220909250906101ca826107fb565b905060006101db878584600061096d565b5090506101e88189610b54565b975050505050806101f890610b67565b905061017a565b50505090565b6000806102106107d7565b60038101549091506001600160a01b0390811690851603610234578291505061031e565b60038101546001600160a01b03166000908152602782016020526040812061025b906107fb565b6001600160a01b0386166000908152602784016020526040812091925090610282906107fb565b905060008161029d68327cb2734119d3b7a9601e1b85610b80565b6102a79190610b97565b9050600068327cb2734119d3b7a9601e1b6102c28884610b80565b6102cc9190610b97565b6001600160a01b0389166000908152602687016020526040902054909150670de0b6b3a7640000906103029060ff16600a610c9d565b61030c9083610b80565b6103169190610b97565b955050505050505b92915050565b60008061032f6107d7565b9050600064e8d4a5100082600601546103489190610b97565b905060008161ffff1683600a01600101546103639190610b80565b9050670de0b6b3a764000081846005015461037e9190610b80565b6103889190610b97565b83600501546103979190610b54565b935050505090565b6000806103aa6107d7565b905060008160010160009054906101000a90046001600160a01b03166001600160a01b03166318160ddd6040518163ffffffff1660e01b8152600401602060405180830381865afa158015610403573d6000803e3d6000fd5b505050506040513d601f19601f820116820180604052508101906104279190610cac565b90506000610433610109565b9050811580610440575080155b1561044f576000935050505090565b8161046282670de0b6b3a7640000610b80565b6103979190610b97565b606060006104786107d7565b600981015490915067ffffffffffffffff81111561049857610498610cc5565b6040519080825280602002602001820160405280156104fd57816020015b6104ea604051806080016040528060006001600160a01b031681526020016000815260200160008152602001600081525090565b8152602001906001900390816104b65790505b5091506000808260090180548060200260200160405190810160405280929190818152602001828054801561055b57602002820191906000526020600020905b81546001600160a01b0316815260019091019060200180831161053d575b5050505050905060005b815181101561065957600082828151811061058257610582610b28565b6020908102919091018101516001600160a01b03811660009081526027880190925260408220909250906105b5826107fb565b90506000806105c7898685600061096d565b915091506040518060800160405280866001600160a01b0316815260200182815260200183815260200168327cb2734119d3b7a9601e1b620f42408661060d9190610b80565b6106179190610b97565b8152508a898151811061062c5761062c610b28565b60200260200101819052508761064190610b67565b975050505050508061065290610b67565b9050610565565b5050505090565b60008061066b6107d7565b9050600061067761039f565b9050620f424061069368327cb2734119d3b7a9601e1b83610b80565b61069d9190610b97565b905060006106aa86610703565b6001600160a01b038716600090815260268501602052604081205491925060ff90911690826106da83600a610c9d565b6106e49086610b80565b6106ee9190610b97565b9050670de0b6b3a764000061030c8289610b80565b60008061070e6107d7565b6001600160a01b0380851660009081526027830160205260409020805492935091166107795760405162461bcd60e51b81526020600482015260156024820152742ab739bab83837b93a32b2103332b2903a37b5b2b760591b60448201526064015b60405180910390fd5b610782816107fb565b949350505050565b6000806107956107d7565b6001600160a01b038516600090815260278201602052604081209192506107bb826107fb565b905060006107cb8488848961096d565b50979650505050505050565b7fbfa76ec2967ed7f8d3d40cd552f1451ab03573b596bfce931a6a016f7733078c90565b60008060008360000160009054906101000a90046001600160a01b03166001600160a01b031663feaf968c6040518163ffffffff1660e01b815260040160a060405180830381865afa158015610855573d6000803e3d6000fd5b505050506040513d601f19601f820116820180604052508101906108799190610cf5565b50935050925050600082136108ca5760405162461bcd60e51b81526020600482015260176024820152764e6f207072696365206461746120617661696c61626c6560481b6044820152606401610770565b60006108da620151806002610d45565b6108e99062ffffff1642610d6c565b905080821161092d5760405162461bcd60e51b815260206004820152601060248201526f5374616c65207072696365206461746160801b6044820152606401610770565b845461094490600160a01b900460ff16600a610c9d565b61095a68327cb2734119d3b7a9601e1b85610b80565b6109649190610b97565b95945050505050565b6000818082036109e2576040516370a0823160e01b81523060048201526001600160a01b038616906370a0823190602401602060405180830381865afa1580156109bb573d6000803e3d6000fd5b505050506040513d601f19601f820116820180604052508101906109df9190610cac565b90505b620f42406109f08583610b80565b6109fa9190610b80565b6001600160a01b038616600090815260268801602052604090205490925068327cb2734119d3b7a9601e1b90610a349060ff16600a610c9d565b610a3e9190610b80565b610a489083610b97565b915094509492505050565b80356001600160a01b0381168114610a6a57600080fd5b919050565b60008060408385031215610a8257600080fd5b610a8b83610a53565b946020939093013593505050565b602080825282518282018190526000919060409081850190868401855b82811015610af957815180516001600160a01b03168552868101518786015285810151868601526060908101519085015260809093019290850190600101610ab6565b5091979650505050505050565b600060208284031215610b1857600080fd5b610b2182610a53565b9392505050565b634e487b7160e01b600052603260045260246000fd5b634e487b7160e01b600052601160045260246000fd5b8082018082111561031e5761031e610b3e565b600060018201610b7957610b79610b3e565b5060010190565b808202811582820484141761031e5761031e610b3e565b600082610bb457634e487b7160e01b600052601260045260246000fd5b500490565b600181815b80851115610bf4578160001904821115610bda57610bda610b3e565b80851615610be757918102915b93841c9390800290610bbe565b509250929050565b600082610c0b5750600161031e565b81610c185750600061031e565b8160018114610c2e5760028114610c3857610c54565b600191505061031e565b60ff841115610c4957610c49610b3e565b50506001821b61031e565b5060208310610133831016604e8410600b8410161715610c77575081810a61031e565b610c818383610bb9565b8060001904821115610c9557610c95610b3e565b029392505050565b6000610b2160ff841683610bfc565b600060208284031215610cbe57600080fd5b5051919050565b634e487b7160e01b600052604160045260246000fd5b805169ffffffffffffffffffff81168114610a6a57600080fd5b600080600080600060a08688031215610d0d57600080fd5b610d1686610cdb565b9450602086015193506040860151925060608601519150610d3960808701610cdb565b90509295509295909350565b62ffffff818116838216028082169190828114610d6457610d64610b3e565b505092915050565b8181038181111561031e5761031e610b3e56fea2646970667358221220eca52e7deefed0ab800537c85ee8d456583c93e078fd8626a52cc06cd21d19ac64736f6c63430008110033",
  "linkReferences": {},
  "deployedLinkReferences": {}
}