{
  "_format": "hh-sol-artifact-1",
  "contractName": "LibFees",
  "sourceName": "contracts/libraries/LibFees.sol",
  "abi": [
    {
      "inputs": [
        {
          "components": [
            {
              "components": [
                {
                  "internalType": "address",
                  "name": "requester",
                  "type": "address"
                },
                {
                  "components": [
                    {
                      "internalType": "contract IERC20",
                      "name": "feeToken",
                      "type": "IERC20"
                    },
                    {
                      "internalType": "address",
                      "name": "affiliate",
                      "type": "address"
                    },
                    {
                      "internalType": "uint256",
                      "name": "affiliatePortion",
                      "type": "uint256"
                    }
                  ],
                  "internalType": "struct ExecutionTypes.FeeDetails",
                  "name": "fee",
                  "type": "tuple"
                }
              ],
              "internalType": "struct ExecutionTypes.ExecutionRequest",
              "name": "executionRequest",
              "type": "tuple"
            },
            {
              "components": [
                {
                  "internalType": "uint112",
                  "name": "amount",
                  "type": "uint112"
                },
                {
                  "internalType": "contract IERC20",
                  "name": "token",
                  "type": "IERC20"
                }
              ],
              "internalType": "struct TokenTypes.TokenAmount",
              "name": "tokenIn",
              "type": "tuple"
            },
            {
              "components": [
                {
                  "internalType": "uint112",
                  "name": "amount",
                  "type": "uint112"
                },
                {
                  "internalType": "contract IERC20",
                  "name": "token",
                  "type": "IERC20"
                }
              ],
              "internalType": "struct TokenTypes.TokenAmount",
              "name": "tokenOut",
              "type": "tuple"
            },
            {
              "components": [
                {
                  "internalType": "address",
                  "name": "router",
                  "type": "address"
                },
                {
                  "internalType": "address",
                  "name": "spender",
                  "type": "address"
                },
                {
                  "components": [
                    {
                      "internalType": "uint112",
                      "name": "amount",
                      "type": "uint112"
                    },
                    {
                      "internalType": "contract IERC20",
                      "name": "token",
                      "type": "IERC20"
                    }
                  ],
                  "internalType": "struct TokenTypes.TokenAmount",
                  "name": "routeAmount",
                  "type": "tuple"
                },
                {
                  "internalType": "bytes",
                  "name": "routerData",
                  "type": "bytes"
                }
              ],
              "internalType": "struct SwapTypes.RouterRequest[]",
              "name": "routes",
              "type": "tuple[]"
            }
          ],
          "internalType": "struct SwapTypes.SwapRequest",
          "name": "request",
          "type": "tuple"
        },
        {
          "internalType": "bool",
          "name": "feeIsInput",
          "type": "bool"
        },
        {
          "internalType": "uint256",
          "name": "preDXBL",
          "type": "uint256"
        },
        {
          "internalType": "uint256",
          "name": "outAmount",
          "type": "uint256"
        }
      ],
      "name": "computeBpsFee",
      "outputs": [
        {
          "internalType": "uint256",
          "name": "",
          "type": "uint256"
        }
      ],
      "stateMutability": "view",
      "type": "function"
    },
    {
      "inputs": [
        {
          "components": [
            {
              "components": [
                {
                  "internalType": "address",
                  "name": "requester",
                  "type": "address"
                },
                {
                  "components": [
                    {
                      "internalType": "contract IERC20",
                      "name": "feeToken",
                      "type": "IERC20"
                    },
                    {
                      "internalType": "address",
                      "name": "affiliate",
                      "type": "address"
                    },
                    {
                      "internalType": "uint256",
                      "name": "affiliatePortion",
                      "type": "uint256"
                    }
                  ],
                  "internalType": "struct ExecutionTypes.FeeDetails",
                  "name": "fee",
                  "type": "tuple"
                }
              ],
              "internalType": "struct ExecutionTypes.ExecutionRequest",
              "name": "executionRequest",
              "type": "tuple"
            },
            {
              "components": [
                {
                  "internalType": "uint112",
                  "name": "amount",
                  "type": "uint112"
                },
                {
                  "internalType": "contract IERC20",
                  "name": "token",
                  "type": "IERC20"
                }
              ],
              "internalType": "struct TokenTypes.TokenAmount",
              "name": "tokenIn",
              "type": "tuple"
            },
            {
              "components": [
                {
                  "internalType": "uint112",
                  "name": "amount",
                  "type": "uint112"
                },
                {
                  "internalType": "contract IERC20",
                  "name": "token",
                  "type": "IERC20"
                }
              ],
              "internalType": "struct TokenTypes.TokenAmount",
              "name": "tokenOut",
              "type": "tuple"
            },
            {
              "components": [
                {
                  "internalType": "address",
                  "name": "router",
                  "type": "address"
                },
                {
                  "internalType": "address",
                  "name": "spender",
                  "type": "address"
                },
                {
                  "components": [
                    {
                      "internalType": "uint112",
                      "name": "amount",
                      "type": "uint112"
                    },
                    {
                      "internalType": "contract IERC20",
                      "name": "token",
                      "type": "IERC20"
                    }
                  ],
                  "internalType": "struct TokenTypes.TokenAmount",
                  "name": "routeAmount",
                  "type": "tuple"
                },
                {
                  "internalType": "bytes",
                  "name": "routerData",
                  "type": "bytes"
                }
              ],
              "internalType": "struct SwapTypes.RouterRequest[]",
              "name": "routes",
              "type": "tuple[]"
            }
          ],
          "internalType": "struct SwapTypes.SwapRequest",
          "name": "request",
          "type": "tuple"
        },
        {
          "internalType": "uint256",
          "name": "gasTotal",
          "type": "uint256"
        }
      ],
      "name": "computeGasFee",
      "outputs": [
        {
          "internalType": "uint256",
          "name": "gasFee",
          "type": "uint256"
        }
      ],
      "stateMutability": "view",
      "type": "function"
    },
    {
      "inputs": [
        {
          "internalType": "address",
          "name": "feeToken",
          "type": "address"
        }
      ],
      "name": "computeMinFeeUnits",
      "outputs": [
        {
          "internalType": "uint256",
          "name": "",
          "type": "uint256"
        }
      ],
      "stateMutability": "view",
      "type": "function"
    }
  ],
  "bytecode": "0x610a5161003a600b82828239805160001a60731461002d57634e487b7160e01b600052600060045260246000fd5b30600052607381538281f3fe730000000000000000000000000000000000000000301460806040526004361061004b5760003560e01c80630a56d3d8146100505780637113904c14610075578063b1687fc714610088575b600080fd5b61006361005e3660046107d0565b61009b565b60405190815260200160405180910390f35b610063610083366004610834565b61020d565b610063610096366004610879565b6102bd565b7f949817a987a8e038ef345d3c9d4fd28e49d8e4e09456e57c05a8b2ce2e62866f546040805160c08101825286516020908101518101516001600160a01b03908116151583528851518116918301919091526000937f949817a987a8e038ef345d3c9d4fd28e49d8e4e09456e57c05a8b2ce2e62866c9391169163a015b639918101886101285786610138565b60208a0151516001600160701b03165b81526020808201899052855461ffff610100820481166040808601919091526301000000909204811660609485015281516001600160e01b031960e088901b168152855115156004820152928501516001600160a01b0316602484015290840151604483015291830151606482015260808301518216608482015260a0909201511660a482015260c401602060405180830381865afa1580156101df573d6000803e3d6000fd5b505050506040513d601f19601f82011682018060405250810190610203919061089d565b9695505050505050565b6000807f949817a987a8e038ef345d3c9d4fd28e49d8e4e09456e57c05a8b2ce2e62866c600181015485516020015151604051633931f45d60e01b81526001600160a01b0391821660048201526024810187905292935016908190633931f45d90604401602060405180830381865afa15801561028e573d6000803e3d6000fd5b505050506040513d601f19601f820116820180604052508101906102b2919061089d565b925050505b92915050565b7f949817a987a8e038ef345d3c9d4fd28e49d8e4e09456e57c05a8b2ce2e62866c8054600091906501000000000090046001600160701b031682036103055750600092915050565b600181015460405163ce25cb4d60e01b81526001600160a01b03858116600483015290911690600090829063ce25cb4d90602401602060405180830381865afa158015610356573d6000803e3d6000fd5b505050506040513d601f19601f8201168201806040525081019061037a919061089d565b90506000856001600160a01b031663313ce5676040518163ffffffff1660e01b8152600401602060405180830381865afa1580156103bc573d6000803e3d6000fd5b505050506040513d601f19601f820116820180604052508101906103e091906108b6565b905060006c0c9f2c9cd04674edea400000008260ff16601203610404576001610422565b670de0b6b3a764000061041884600a6109d3565b61042291906109e2565b865461044091906501000000000090046001600160701b0316610a04565b61044a9190610a04565b905061045683826109e2565b979650505050505050565b634e487b7160e01b600052604160045260246000fd5b6040805190810167ffffffffffffffff8111828210171561049a5761049a610461565b60405290565b6040516080810167ffffffffffffffff8111828210171561049a5761049a610461565b6040516060810167ffffffffffffffff8111828210171561049a5761049a610461565b604051601f8201601f1916810167ffffffffffffffff8111828210171561050f5761050f610461565b604052919050565b6001600160a01b038116811461052c57600080fd5b50565b60006040828403121561054157600080fd5b610549610477565b905081356001600160701b038116811461056257600080fd5b8152602082013561057281610517565b602082015292915050565b600082601f83011261058e57600080fd5b8135602067ffffffffffffffff808311156105ab576105ab610461565b8260051b6105ba8382016104e6565b93845285810183019383810190888611156105d457600080fd5b84880192505b858310156106d6578235848111156105f25760008081fd5b880160a0601f19828c03810182131561060b5760008081fd5b6106136104a0565b8884013561062081610517565b815260408481013561063181610517565b828b015260606106438f87830161052f565b8383015293850135938985111561065a5760008081fd5b84860195508e603f87011261067157600094508485fd5b8a86013594508985111561068757610687610461565b6106978b85601f880116016104e6565b93508484528e828688010111156106ae5760008081fd5b848287018c86013760009484018b0194909452509182015283525091840191908401906105da565b98975050505050505050565b60008183036101208112156106f657600080fd5b6106fe6104a0565b9150608081121561070e57600080fd5b610716610477565b833561072181610517565b81526060601f198301121561073557600080fd5b61073d6104c3565b9150602084013561074d81610517565b8252604084013561075d81610517565b80602084015250606084013560408301528160208201528083525050610786836080840161052f565b60208201526107988360c0840161052f565b604082015261010082013567ffffffffffffffff8111156107b857600080fd5b6107c48482850161057d565b60608301525092915050565b600080600080608085870312156107e657600080fd5b843567ffffffffffffffff8111156107fd57600080fd5b610809878288016106e2565b9450506020850135801515811461081f57600080fd5b93969395505050506040820135916060013590565b6000806040838503121561084757600080fd5b823567ffffffffffffffff81111561085e57600080fd5b61086a858286016106e2565b95602094909401359450505050565b60006020828403121561088b57600080fd5b813561089681610517565b9392505050565b6000602082840312156108af57600080fd5b5051919050565b6000602082840312156108c857600080fd5b815160ff8116811461089657600080fd5b634e487b7160e01b600052601160045260246000fd5b600181815b8085111561092a578160001904821115610910576109106108d9565b8085161561091d57918102915b93841c93908002906108f4565b509250929050565b600082610941575060016102b7565b8161094e575060006102b7565b8160018114610964576002811461096e5761098a565b60019150506102b7565b60ff84111561097f5761097f6108d9565b50506001821b6102b7565b5060208310610133831016604e8410600b84101617156109ad575081810a6102b7565b6109b783836108ef565b80600019048211156109cb576109cb6108d9565b029392505050565b600061089660ff841683610932565b6000826109ff57634e487b7160e01b600052601260045260246000fd5b500490565b80820281158282048414176102b7576102b76108d956fea2646970667358221220af8dfdf4862f88ea03e3af23fdc8c0c88f38908f56f03f7c766ec225e934b96a64736f6c63430008110033",
  "linkReferences": {},
  "deployedLinkReferences": {}
}