{
  "_format": "hh-sol-artifact-1",
  "contractName": "CommunityVault",
  "sourceName": "contracts/vault/CommunityVault.sol",
  "abi": [
    {
      "inputs": [
        {
          "components": [
            {
              "internalType": "address",
              "name": "wrappedNativeToken",
              "type": "address"
            },
            {
              "internalType": "address",
              "name": "adminMultiSig",
              "type": "address"
            },
            {
              "internalType": "uint32",
              "name": "timelockSeconds",
              "type": "uint32"
            },
            {
              "internalType": "uint256",
              "name": "baseMintThreshold",
              "type": "uint256"
            },
            {
              "components": [
                {
                  "internalType": "uint16",
                  "name": "minMMVolume",
                  "type": "uint16"
                },
                {
                  "internalType": "uint16",
                  "name": "maxMMVolume",
                  "type": "uint16"
                },
                {
                  "internalType": "uint256",
                  "name": "rate",
                  "type": "uint256"
                }
              ],
              "internalType": "struct VaultStorage.MintRateRangeConfig[]",
              "name": "rateRanges",
              "type": "tuple[]"
            },
            {
              "components": [
                {
                  "internalType": "address[]",
                  "name": "feeTokens",
                  "type": "address[]"
                },
                {
                  "internalType": "address[]",
                  "name": "priceFeeds",
                  "type": "address[]"
                }
              ],
              "internalType": "struct VaultStorage.FeeTokenConfig",
              "name": "feeTokenConfig",
              "type": "tuple"
            }
          ],
          "internalType": "struct VaultStorage.VaultConfig",
          "name": "config",
          "type": "tuple"
        }
      ],
      "stateMutability": "nonpayable",
      "type": "constructor"
    },
    {
      "anonymous": false,
      "inputs": [
        {
          "indexed": false,
          "internalType": "uint256",
          "name": "newVolume",
          "type": "uint256"
        }
      ],
      "name": "AppliedVolumeGoal",
      "type": "event"
    },
    {
      "anonymous": false,
      "inputs": [
        {
          "indexed": false,
          "internalType": "uint32",
          "name": "stdRate",
          "type": "uint32"
        },
        {
          "indexed": false,
          "internalType": "uint32",
          "name": "minRate",
          "type": "uint32"
        }
      ],
      "name": "BpsChanged",
      "type": "event"
    },
    {
      "anonymous": false,
      "inputs": [
        {
          "indexed": false,
          "internalType": "address",
          "name": "holder",
          "type": "address"
        },
        {
          "indexed": false,
          "internalType": "uint256",
          "name": "dxblAmount",
          "type": "uint256"
        },
        {
          "indexed": false,
          "internalType": "address",
          "name": "rewardToken",
          "type": "address"
        },
        {
          "indexed": false,
          "internalType": "uint256",
          "name": "rewardAmount",
          "type": "uint256"
        }
      ],
      "name": "DXBLRedeemed",
      "type": "event"
    },
    {
      "anonymous": false,
      "inputs": [
        {
          "indexed": false,
          "internalType": "uint32",
          "name": "newRate",
          "type": "uint32"
        }
      ],
      "name": "DiscountChanged",
      "type": "event"
    },
    {
      "anonymous": false,
      "inputs": [
        {
          "indexed": true,
          "internalType": "address",
          "name": "token",
          "type": "address"
        },
        {
          "indexed": true,
          "internalType": "address",
          "name": "priceFeed",
          "type": "address"
        }
      ],
      "name": "FeeTokenAdded",
      "type": "event"
    },
    {
      "anonymous": false,
      "inputs": [
        {
          "indexed": true,
          "internalType": "address",
          "name": "token",
          "type": "address"
        }
      ],
      "name": "FeeTokenRemoved",
      "type": "event"
    },
    {
      "anonymous": false,
      "inputs": [
        {
          "indexed": true,
          "internalType": "address",
          "name": "newVault",
          "type": "address"
        }
      ],
      "name": "MigrationCancelled",
      "type": "event"
    },
    {
      "anonymous": false,
      "inputs": [
        {
          "indexed": true,
          "internalType": "address",
          "name": "newVault",
          "type": "address"
        },
        {
          "indexed": false,
          "internalType": "uint256",
          "name": "afterTime",
          "type": "uint256"
        }
      ],
      "name": "MigrationScheduled",
      "type": "event"
    },
    {
      "anonymous": false,
      "inputs": [
        {
          "indexed": false,
          "internalType": "uint16",
          "name": "minThreshold",
          "type": "uint16"
        },
        {
          "indexed": false,
          "internalType": "uint16",
          "name": "maxThreshold",
          "type": "uint16"
        },
        {
          "indexed": false,
          "internalType": "uint256",
          "name": "percentage",
          "type": "uint256"
        }
      ],
      "name": "MintRateChange",
      "type": "event"
    },
    {
      "anonymous": false,
      "inputs": [],
      "name": "Paused",
      "type": "event"
    },
    {
      "anonymous": false,
      "inputs": [
        {
          "indexed": false,
          "internalType": "uint32",
          "name": "oldStdRate",
          "type": "uint32"
        },
        {
          "indexed": false,
          "internalType": "uint32",
          "name": "newStdRate",
          "type": "uint32"
        },
        {
          "indexed": false,
          "internalType": "uint32",
          "name": "oldMinRate",
          "type": "uint32"
        },
        {
          "indexed": false,
          "internalType": "uint32",
          "name": "newMinRate",
          "type": "uint32"
        },
        {
          "indexed": false,
          "internalType": "uint256",
          "name": "allowedAfterTime",
          "type": "uint256"
        }
      ],
      "name": "ProposedBpsChange",
      "type": "event"
    },
    {
      "anonymous": false,
      "inputs": [
        {
          "indexed": false,
          "internalType": "uint32",
          "name": "oldRate",
          "type": "uint32"
        },
        {
          "indexed": false,
          "internalType": "uint32",
          "name": "newRate",
          "type": "uint32"
        },
        {
          "indexed": false,
          "internalType": "uint256",
          "name": "allowedAfterTime",
          "type": "uint256"
        }
      ],
      "name": "ProposedDiscountChange",
      "type": "event"
    },
    {
      "anonymous": false,
      "inputs": [
        {
          "indexed": true,
          "internalType": "address",
          "name": "token",
          "type": "address"
        },
        {
          "indexed": true,
          "internalType": "address",
          "name": "priceFeed",
          "type": "address"
        },
        {
          "indexed": false,
          "internalType": "bool",
          "name": "removal",
          "type": "bool"
        },
        {
          "indexed": false,
          "internalType": "uint256",
          "name": "allowedAfterTime",
          "type": "uint256"
        }
      ],
      "name": "ProposedFeeToken",
      "type": "event"
    },
    {
      "anonymous": false,
      "inputs": [
        {
          "indexed": false,
          "internalType": "uint16",
          "name": "minThreshold",
          "type": "uint16"
        },
        {
          "indexed": false,
          "internalType": "uint16",
          "name": "maxThreshold",
          "type": "uint16"
        },
        {
          "indexed": false,
          "internalType": "uint256",
          "name": "percentage",
          "type": "uint256"
        },
        {
          "indexed": false,
          "internalType": "uint256",
          "name": "allowedAfterTime",
          "type": "uint256"
        }
      ],
      "name": "ProposedMintRateChange",
      "type": "event"
    },
    {
      "anonymous": false,
      "inputs": [
        {
          "indexed": false,
          "internalType": "uint256",
          "name": "oldVolume",
          "type": "uint256"
        },
        {
          "indexed": false,
          "internalType": "uint256",
          "name": "newVolume",
          "type": "uint256"
        },
        {
          "indexed": false,
          "internalType": "uint256",
          "name": "allowedAfterTime",
          "type": "uint256"
        }
      ],
      "name": "ProposedVolumeGoal",
      "type": "event"
    },
    {
      "anonymous": false,
      "inputs": [],
      "name": "Resumed",
      "type": "event"
    },
    {
      "anonymous": false,
      "inputs": [
        {
          "indexed": true,
          "internalType": "address",
          "name": "newVault",
          "type": "address"
        }
      ],
      "name": "VaultMigrated",
      "type": "event"
    },
    {
      "inputs": [],
      "name": "adminMultiSig",
      "outputs": [
        {
          "internalType": "address",
          "name": "",
          "type": "address"
        }
      ],
      "stateMutability": "view",
      "type": "function"
    },
    {
      "inputs": [],
      "name": "assets",
      "outputs": [
        {
          "components": [
            {
              "internalType": "address",
              "name": "token",
              "type": "address"
            },
            {
              "internalType": "uint256",
              "name": "balance",
              "type": "uint256"
            },
            {
              "internalType": "uint256",
              "name": "usdValue",
              "type": "uint256"
            },
            {
              "internalType": "uint256",
              "name": "usdPrice",
              "type": "uint256"
            }
          ],
          "internalType": "struct IComputationalView.AssetInfo[]",
          "name": "tokens",
          "type": "tuple[]"
        }
      ],
      "stateMutability": "view",
      "type": "function"
    },
    {
      "inputs": [],
      "name": "aumUSD",
      "outputs": [
        {
          "internalType": "uint256",
          "name": "usd",
          "type": "uint256"
        }
      ],
      "stateMutability": "view",
      "type": "function"
    },
    {
      "inputs": [],
      "name": "baseMintThreshold",
      "outputs": [
        {
          "internalType": "uint256",
          "name": "",
          "type": "uint256"
        }
      ],
      "stateMutability": "view",
      "type": "function"
    },
    {
      "inputs": [],
      "name": "canMigrate",
      "outputs": [
        {
          "internalType": "bool",
          "name": "",
          "type": "bool"
        }
      ],
      "stateMutability": "view",
      "type": "function"
    },
    {
      "inputs": [],
      "name": "cancelMigration",
      "outputs": [],
      "stateMutability": "nonpayable",
      "type": "function"
    },
    {
      "inputs": [
        {
          "internalType": "address",
          "name": "feeToken",
          "type": "address"
        },
        {
          "internalType": "uint256",
          "name": "amount",
          "type": "uint256"
        }
      ],
      "name": "computeVolumeUSD",
      "outputs": [
        {
          "internalType": "uint256",
          "name": "volumeUSD",
          "type": "uint256"
        }
      ],
      "stateMutability": "view",
      "type": "function"
    },
    {
      "inputs": [
        {
          "internalType": "address",
          "name": "dexible",
          "type": "address"
        },
        {
          "internalType": "address",
          "name": "token",
          "type": "address"
        }
      ],
      "name": "configureContracts",
      "outputs": [],
      "stateMutability": "nonpayable",
      "type": "function"
    },
    {
      "inputs": [
        {
          "internalType": "address",
          "name": "feeToken",
          "type": "address"
        },
        {
          "internalType": "uint256",
          "name": "gasCost",
          "type": "uint256"
        }
      ],
      "name": "convertGasToFeeToken",
      "outputs": [
        {
          "internalType": "uint256",
          "name": "",
          "type": "uint256"
        }
      ],
      "stateMutability": "view",
      "type": "function"
    },
    {
      "inputs": [],
      "name": "currentMintRateUSD",
      "outputs": [
        {
          "internalType": "uint256",
          "name": "rate",
          "type": "uint256"
        }
      ],
      "stateMutability": "view",
      "type": "function"
    },
    {
      "inputs": [],
      "name": "currentNavUSD",
      "outputs": [
        {
          "internalType": "uint256",
          "name": "nav",
          "type": "uint256"
        }
      ],
      "stateMutability": "view",
      "type": "function"
    },
    {
      "inputs": [],
      "name": "dailyVolumeUSD",
      "outputs": [
        {
          "internalType": "uint256",
          "name": "",
          "type": "uint256"
        }
      ],
      "stateMutability": "view",
      "type": "function"
    },
    {
      "inputs": [],
      "name": "dexibleContract",
      "outputs": [
        {
          "internalType": "address",
          "name": "",
          "type": "address"
        }
      ],
      "stateMutability": "view",
      "type": "function"
    },
    {
      "inputs": [],
      "name": "discountBps",
      "outputs": [
        {
          "internalType": "uint32",
          "name": "",
          "type": "uint32"
        }
      ],
      "stateMutability": "view",
      "type": "function"
    },
    {
      "inputs": [],
      "name": "dxblToken",
      "outputs": [
        {
          "internalType": "address",
          "name": "",
          "type": "address"
        }
      ],
      "stateMutability": "view",
      "type": "function"
    },
    {
      "inputs": [
        {
          "internalType": "address",
          "name": "rewardToken",
          "type": "address"
        },
        {
          "internalType": "uint256",
          "name": "dxblAmount",
          "type": "uint256"
        }
      ],
      "name": "estimateRedemption",
      "outputs": [
        {
          "internalType": "uint256",
          "name": "",
          "type": "uint256"
        }
      ],
      "stateMutability": "view",
      "type": "function"
    },
    {
      "inputs": [
        {
          "internalType": "address",
          "name": "feeToken",
          "type": "address"
        }
      ],
      "name": "feeTokenPriceUSD",
      "outputs": [
        {
          "internalType": "uint256",
          "name": "",
          "type": "uint256"
        }
      ],
      "stateMutability": "view",
      "type": "function"
    },
    {
      "inputs": [
        {
          "internalType": "address",
          "name": "token",
          "type": "address"
        }
      ],
      "name": "isFeeTokenAllowed",
      "outputs": [
        {
          "internalType": "bool",
          "name": "",
          "type": "bool"
        }
      ],
      "stateMutability": "view",
      "type": "function"
    },
    {
      "inputs": [],
      "name": "migrateV1",
      "outputs": [],
      "stateMutability": "nonpayable",
      "type": "function"
    },
    {
      "inputs": [],
      "name": "pause",
      "outputs": [],
      "stateMutability": "nonpayable",
      "type": "function"
    },
    {
      "inputs": [],
      "name": "paused",
      "outputs": [
        {
          "internalType": "bool",
          "name": "",
          "type": "bool"
        }
      ],
      "stateMutability": "view",
      "type": "function"
    },
    {
      "inputs": [
        {
          "internalType": "address",
          "name": "rewardToken",
          "type": "address"
        },
        {
          "internalType": "uint256",
          "name": "dxblAmount",
          "type": "uint256"
        },
        {
          "internalType": "uint256",
          "name": "minOutAmount",
          "type": "uint256"
        }
      ],
      "name": "redeemDXBL",
      "outputs": [],
      "stateMutability": "nonpayable",
      "type": "function"
    },
    {
      "inputs": [],
      "name": "resume",
      "outputs": [],
      "stateMutability": "nonpayable",
      "type": "function"
    },
    {
      "inputs": [
        {
          "internalType": "address",
          "name": "trader",
          "type": "address"
        },
        {
          "internalType": "address",
          "name": "feeToken",
          "type": "address"
        },
        {
          "internalType": "uint256",
          "name": "amount",
          "type": "uint256"
        }
      ],
      "name": "rewardTrader",
      "outputs": [],
      "stateMutability": "nonpayable",
      "type": "function"
    },
    {
      "inputs": [
        {
          "internalType": "contract V1MigrationTarget",
          "name": "newVault",
          "type": "address"
        }
      ],
      "name": "scheduleMigration",
      "outputs": [],
      "stateMutability": "nonpayable",
      "type": "function"
    },
    {
      "inputs": [],
      "name": "timelockSeconds",
      "outputs": [
        {
          "internalType": "uint32",
          "name": "",
          "type": "uint32"
        }
      ],
      "stateMutability": "view",
      "type": "function"
    },
    {
      "inputs": [],
      "name": "wrappedNativeToken",
      "outputs": [
        {
          "internalType": "address",
          "name": "",
          "type": "address"
        }
      ],
      "stateMutability": "view",
      "type": "function"
    }
  ],
  "bytecode": "0x60806040523480156200001157600080fd5b50604051620035af380380620035af833981016040819052620000349162000bab565b60006200004b620002f260201b620017b81760201c565b805490915061010090046001600160a01b031615620000da57805461010090046001600160a01b03163314620000d45760405162461bcd60e51b8152602060048201526024808201527f556e617574686f72697a656420746f206368616e676520636f6e6669677572616044820152633a34b7b760e11b60648201526084015b60405180910390fd5b620000e6565b805460ff191660011781555b6000826060015111620001475760405162461bcd60e51b815260206004820152602260248201527f4d7573742070726f7669646520612062617365206d696e74207468726573686f6044820152611b1960f21b6064820152608401620000cb565b81516001600160a01b0316620001a05760405162461bcd60e51b815260206004820152601c60248201527f496e76616c69642077726170706564206e617469766520746f6b656e000000006044820152606401620000cb565b6000826040015163ffffffff1611620001fc5760405162461bcd60e51b815260206004820152601760248201527f496e76616c69642074696d656c6f636b20706572696f640000000000000000006044820152606401620000cb565b6020828101518254610100600160a81b0319166101006001600160a01b03928316021783556060840151600584015583516003840180546001600160a01b03191691909216179055604080518082018252601381527f53657474696e672074696d656c6f636b20746f000000000000000000000000008184015290840151620002979263ffffffff9091169062000316811b620017dc17901c565b604082015160048201805463ffffffff909216600160a01b0263ffffffff60a01b199092169190911790556080820151620002d490829062000367565b620002ea818360a001516200059f60201b60201c565b505062000d4a565b7fbfa76ec2967ed7f8d3d40cd552f1451ab03573b596bfce931a6a016f7733078c90565b6200036382826040516024016200032f92919062000c89565b60408051601f198184030181529190526020810180516001600160e01b03908116632d839cb360e21b17909152620008c716565b5050565b600d82015415620003bb5760405162461bcd60e51b815260206004820152601f60248201527f416c726561647920696e697469616c697a656420726174652072616e676573006044820152606401620000cb565b60005b815181101562000525576000828281518110620003df57620003df62000ce0565b602002602001015190506000816020015161ffff1611620004435760405162461bcd60e51b815260206004820152601960248201527f4d6178204d4d20566f6c756d65206d757374206265203e2030000000000000006044820152606401620000cb565b60008160400151116200048c5760405162461bcd60e51b815260206004820152601060248201526f052617465206d757374206265203e20360841b6044820152606401620000cb565b60408051608081018252825161ffff908116825260208085015182168184019081529484015193830193845260608301868152600d890180546001818101835560009283529390912094516003909102909401805496518416620100000263ffffffff19909716949093169390931794909417815591519282019290925590516002909101556200051d8162000cf6565b9050620003be565b5081600d016000815481106200053f576200053f62000ce0565b600091825260209091206003909102018054600a8401805461ffff92831661ffff19821681178355845463ffffffff19909216176201000091829004909316029190911790556001810154600b84015560020154600c9092019190915550565b80515115801590620005b75750602081015151815151145b6200062b5760405162461bcd60e51b815260206004820152603f60248201527f4d7573742070726f7669646520657175616c2d6c656e6774682061727261797360448201527f20666f722066656520746f6b656e7320616e64207072696365206665656473006064820152608401620000cb565b60005b815151811015620008385760008260000151828151811062000654576200065462000ce0565b6020026020010151905060008360200151838151811062000679576200067962000ce0565b6020908102919091018101516009870180546001810182556000918252908390200180546001600160a01b0319166001600160a01b0386169081179091556040805163313ce56760e01b81529051929450909263313ce567926004808401938290030181865afa158015620006f2573d6000803e3d6000fd5b505050506040513d601f19601f8201168201806040525081019062000718919062000d1e565b856026016000846001600160a01b03166001600160a01b0316815260200190815260200160002060006101000a81548160ff021916908360ff1602179055506040518060400160405280826001600160a01b03168152602001826001600160a01b031663313ce5676040518163ffffffff1660e01b8152600401602060405180830381865afa158015620007b0573d6000803e3d6000fd5b505050506040513d601f19601f82011682018060405250810190620007d6919062000d1e565b60ff9081169091526001600160a01b0393841660009081526027880160209081526040909120835181549490920151909216600160a01b026001600160a81b03199093169416939093171790915550620008308162000cf6565b90506200062e565b5060038201546001600160a01b03166000908152602783016020526040902054600160a01b900460ff16620003635760405162461bcd60e51b815260206004820152602e60248201527f57726170706564206e6174697665206173736574206d7573742062652061207660448201526d30b634b2103332b2903a37b5b2b760911b6064820152608401620000cb565b80516a636f6e736f6c652e6c6f67602083016000808483855afa5050505050565b634e487b7160e01b600052604160045260246000fd5b604051606081016001600160401b0381118282101715620009235762000923620008e8565b60405290565b60405160c081016001600160401b0381118282101715620009235762000923620008e8565b604051601f8201601f191681016001600160401b0381118282101715620009795762000979620008e8565b604052919050565b80516001600160a01b03811681146200099957600080fd5b919050565b805163ffffffff811681146200099957600080fd5b60006001600160401b03821115620009cf57620009cf620008e8565b5060051b60200190565b805161ffff811681146200099957600080fd5b600082601f830112620009fe57600080fd5b8151602062000a1762000a1183620009b3565b6200094e565b8281526060928302850182019282820191908785111562000a3757600080fd5b8387015b8581101562000a955781818a03121562000a555760008081fd5b62000a5f620008fe565b62000a6a82620009d9565b815262000a79868301620009d9565b8187015260408281015190820152845292840192810162000a3b565b5090979650505050505050565b600082601f83011262000ab457600080fd5b8151602062000ac762000a1183620009b3565b82815260059290921b8401810191818101908684111562000ae757600080fd5b8286015b8481101562000b0d5762000aff8162000981565b835291830191830162000aeb565b509695505050505050565b60006040828403121562000b2b57600080fd5b604080519081016001600160401b03808211838310171562000b515762000b51620008e8565b81604052829350845191508082111562000b6a57600080fd5b62000b788683870162000aa2565b8352602085015191508082111562000b8f57600080fd5b5062000b9e8582860162000aa2565b6020830152505092915050565b60006020828403121562000bbe57600080fd5b81516001600160401b038082111562000bd657600080fd5b9083019060c0828603121562000beb57600080fd5b62000bf562000929565b62000c008362000981565b815262000c106020840162000981565b602082015262000c23604084016200099e565b60408201526060830151606082015260808301518281111562000c4557600080fd5b62000c5387828601620009ec565b60808301525060a08301518281111562000c6c57600080fd5b62000c7a8782860162000b18565b60a08301525095945050505050565b604081526000835180604084015260005b8181101562000cb9576020818701810151606086840101520162000c9a565b506000606082850101526060601f19601f8301168401019150508260208301529392505050565b634e487b7160e01b600052603260045260246000fd5b60006001820162000d1757634e487b7160e01b600052601160045260246000fd5b5060010190565b60006020828403121562000d3157600080fd5b815160ff8116811462000d4357600080fd5b9392505050565b6128558062000d5a6000396000f3fe608060405234801561001057600080fd5b50600436106101795760003560e01c80635d204718116100d95780638456cb59116100875780638456cb59146102b8578063ab1094c0146102c0578063b2eafb55146102d3578063ce25cb4d146102db578063dd81eb98146102ee578063df2fb8d6146102f6578063f7406fc3146102fe57600080fd5b80635d204718146102485780635de118901461025b57806365a1f3c3146102635780636c1f56331461028057806371a97305146102885780637262f5571461029d57806382131470146102b057600080fd5b806320529bb11161013657806320529bb1146101ec578063288cbb5d146102025780633931f45d1461021557806341b5774a1461022857806345c6a8741461023057806356168843146102385780635c975abb1461024057600080fd5b8063046f7da21461017e57806310639ea01461018857806317fcb39b1461019057806318ac3b15146101ae57806319ed21bd146101c15780631dfc2ecf146101d9575b600080fd5b610186610311565b005b61018661036b565b610198610407565b6040516101a5919061223f565b60405180910390f35b6101866101bc366004612268565b610423565b6101c96106db565b60405190151581526020016101a5565b6101866101e736600461229d565b61071e565b6101f46107e2565b6040519081526020016101a5565b6101866102103660046122ba565b6108de565b6101f46102233660046122f3565b61097a565b6101f4610a99565b610198610b14565b6101f4610b32565b6101c9610b45565b6101c961025636600461229d565b610b58565b6101f4610b8b565b61026b610c58565b60405163ffffffff90911681526020016101a5565b61026b610c78565b610290610cff565b6040516101a5919061231f565b6101f46102ab3660046122f3565b610ef3565b6101f4610f96565b610186610fa9565b6101866102ce36600461238c565b610ffd565b6101986111ad565b6101f46102e936600461229d565b6111c9565b61019861124b565b610186611267565b6101f461030c3660046122f3565b61176b565b600061031b6117b8565b805490915061010090046001600160a01b031633146103555760405162461bcd60e51b815260040161034c906123cd565b60405180910390fd5b600061035f6117b8565b805460ff191690555050565b60006103756117b8565b805490915061010090046001600160a01b031633146103a65760405162461bcd60e51b815260040161034c906123cd565b60006103b06117b8565b6000600882018190556004820180546001600160a01b031981169091556040519293506001600160a01b03169182917f7c7cf105c6d2d5b006d910653c90e1ddef1597f52e08f86f4a8aad4e5bdf255e91a2505050565b60006104116117b8565b600301546001600160a01b0316919050565b600061042d6117b8565b60018101546040516370a0823160e01b81529192506000916001600160a01b03909116906370a082319061046590339060040161223f565b602060405180830381865afa158015610482573d6000803e3d6000fd5b505050506040513d601f19601f820116820180604052508101906104a691906123f3565b9050838110156105045760405162461bcd60e51b815260206004820152602360248201527f496e73756666696369656e74204458424c2062616c616e636520746f2072656460448201526265656d60e81b606482015260840161034c565b60006105108686610ef3565b90506000866001600160a01b03166370a08231306040518263ffffffff1660e01b8152600401610540919061223f565b602060405180830381865afa15801561055d573d6000803e3d6000fd5b505050506040513d601f19601f8201168201806040525081019061058191906123f3565b9050808211156106085784811061059a57809150610608565b60405162461bcd60e51b815260206004820152603e60248201527f496e73756666696369656e742061737365742062616c616e636520746f20707260448201527f6f6475636520657870656374656420776974686472617720616d6f756e740000606482015260840161034c565b6001840154604051632770a7eb60e21b81526001600160a01b0390911690639dc29fac9061063c9033908a9060040161240c565b600060405180830381600087803b15801561065657600080fd5b505af115801561066a573d6000803e3d6000fd5b50610683925050506001600160a01b0388163384611825565b60408051338152602081018890526001600160a01b038916818301526060810184905290517f5fe85dc899e158274a44abab0e6df5434416f0ce11df30d42e02f229b8fc8a419181900360800190a150505050505050565b6000806106e66117b8565b60048101549091506001600160a01b031615801590610709575060008160080154115b80156107185750428160080154105b91505090565b60006107286117b8565b805490915061010090046001600160a01b031633146107595760405162461bcd60e51b815260040161034c906123cd565b60006107636117b8565b600481015490915061078290600160a01b900463ffffffff164261243b565b600882018190556004820180546001600160a01b0319166001600160a01b038616908117909155604051918252907ffbf126b8a95ec693e692437a9297a98deec1cfb822b8c650b7d346461efdb2ad9060200160405180910390a2505050565b6000806107ed6117b8565b905060008160090180548060200260200160405190810160405280929190818152602001828054801561084957602002820191906000526020600020905b81546001600160a01b0316815260019091019060200180831161082b575b5050505050905060005b81518110156108d85760008282815181106108705761087061244e565b6020908102919091018101516001600160a01b03811660009081526027870190925260408220909250906108a382611880565b905060006108b487858460006119ef565b5090506108c1818961243b565b975050505050806108d190612464565b9050610853565b50505090565b60006108e86117b8565b60018101549091506001600160a01b0316610927576001810180546001600160a01b0319166001600160a01b038416179055805460ff19168155610955565b805461010090046001600160a01b031633146109555760405162461bcd60e51b815260040161034c906123cd565b60020180546001600160a01b0319166001600160a01b03939093169290921790915550565b6000806109856117b8565b60038101549091506001600160a01b03908116908516036109a95782915050610a93565b60038101546001600160a01b0316600090815260278201602052604081206109d090611880565b6001600160a01b03861660009081526027840160205260408120919250906109f790611880565b9050600081610a1268327cb2734119d3b7a9601e1b8561247d565b610a1c91906124aa565b9050600068327cb2734119d3b7a9601e1b610a37888461247d565b610a4191906124aa565b6001600160a01b0389166000908152602687016020526040902054909150670de0b6b3a764000090610a779060ff16600a6125a2565b610a81908361247d565b610a8b91906124aa565b955050505050505b92915050565b600080610aa46117b8565b9050600064e8d4a510008260060154610abd91906124aa565b905060008161ffff1683600a0160010154610ad8919061247d565b9050670de0b6b3a7640000818460050154610af3919061247d565b610afd91906124aa565b8360050154610b0c919061243b565b935050505090565b6000610b1e6117b8565b5461010090046001600160a01b0316919050565b6000610b3c6117b8565b60050154905090565b6000610b4f6117b8565b5460ff16919050565b600080610b636117b8565b6001600160a01b03938416600090815260279091016020526040902054909216151592915050565b600080610b966117b8565b905060008160010160009054906101000a90046001600160a01b03166001600160a01b03166318160ddd6040518163ffffffff1660e01b8152600401602060405180830381865afa158015610bef573d6000803e3d6000fd5b505050506040513d601f19601f82011682018060405250810190610c1391906123f3565b90506000610c1f6107e2565b9050811580610c2c575080155b15610c3b576000935050505090565b81610c4e82670de0b6b3a764000061247d565b610b0c91906124aa565b6000610c626117b8565b60040154600160a01b900463ffffffff16919050565b6000610c826117b8565b60010160009054906101000a90046001600160a01b03166001600160a01b031663566826d16040518163ffffffff1660e01b8152600401602060405180830381865afa158015610cd6573d6000803e3d6000fd5b505050506040513d601f19601f82011682018060405250810190610cfa91906125b1565b905090565b60606000610d0b6117b8565b600981015490915067ffffffffffffffff811115610d2b57610d2b6125d7565b604051908082528060200260200182016040528015610d9057816020015b610d7d604051806080016040528060006001600160a01b031681526020016000815260200160008152602001600081525090565b815260200190600190039081610d495790505b50915060008082600901805480602002602001604051908101604052809291908181526020018280548015610dee57602002820191906000526020600020905b81546001600160a01b03168152600190910190602001808311610dd0575b5050505050905060005b8151811015610eec576000828281518110610e1557610e1561244e565b6020908102919091018101516001600160a01b0381166000908152602788019092526040822090925090610e4882611880565b9050600080610e5a89868560006119ef565b915091506040518060800160405280866001600160a01b0316815260200182815260200183815260200168327cb2734119d3b7a9601e1b620f424086610ea0919061247d565b610eaa91906124aa565b8152508a8981518110610ebf57610ebf61244e565b602002602001018190525087610ed490612464565b9750505050505080610ee590612464565b9050610df8565b5050505090565b600080610efe6117b8565b90506000610f0a610b8b565b9050620f4240610f2668327cb2734119d3b7a9601e1b8361247d565b610f3091906124aa565b90506000610f3d866111c9565b6001600160a01b038716600090815260268501602052604081205491925060ff9091169082610f6d83600a6125a2565b610f77908661247d565b610f8191906124aa565b9050670de0b6b3a7640000610a81828961247d565b6000610fa06117b8565b60060154905090565b6000610fb36117b8565b805490915061010090046001600160a01b03163314610fe45760405162461bcd60e51b815260040161034c906123cd565b6000610fee6117b8565b805460ff191660011790555050565b60006110076117b8565b60028101549091506001600160a01b031633146110365760405162461bcd60e51b815260040161034c906123cd565b60006110406117b8565b60405163f7406fc360e01b8152909150600090309063f7406fc39061106b908890889060040161240c565b602060405180830381865afa158015611088573d6000803e3d6000fd5b505050506040513d601f19601f820116820180604052508101906110ac91906123f3565b90506000306001600160a01b03166341b5774a6040518163ffffffff1660e01b8152600401602060405180830381865afa1580156110ee573d6000803e3d6000fd5b505050506040513d601f19601f8201168201806040525081019061111291906123f3565b905061111d82611ada565b60008161113284670de0b6b3a764000061247d565b61113c91906124aa565b60018501546040516340c10f1960e01b81529192506001600160a01b0316906340c10f1990611171908b90859060040161240c565b600060405180830381600087803b15801561118b57600080fd5b505af115801561119f573d6000803e3d6000fd5b505050505050505050505050565b60006111b76117b8565b600201546001600160a01b0316919050565b6000806111d46117b8565b6001600160a01b03808516600090815260278301602052604090208054929350911661123a5760405162461bcd60e51b81526020600482015260156024820152742ab739bab83837b93a32b2103332b2903a37b5b2b760591b604482015260640161034c565b61124381611880565b949350505050565b60006112556117b8565b600101546001600160a01b0316919050565b306001600160a01b03166319ed21bd6040518163ffffffff1660e01b8152600401602060405180830381865afa1580156112a5573d6000803e3d6000fd5b505050506040513d601f19601f820116820180604052508101906112c991906125ed565b61130a5760405162461bcd60e51b815260206004820152601260248201527110d85b9b9bdd081b5a59dc985d19481e595d60721b604482015260640161034c565b60006113146117b8565b600481015460408051808201909152600c81526b4d6967726174696e6720746f60a01b60208201529192506001600160a01b0316906113539082611bfb565b815460ff1916600117825560408051808201825260198152782a3930b739b332b93934b733903130b630b731b2b9903337b960391b6020808301919091526009850180548451808601909552600a85526966656520746f6b656e7360b01b92850192909252926113c4929190611c40565b60005b81548110156115095760008282815481106113e4576113e461244e565b6000918252602090912001546040516370a0823160e01b81526001600160a01b03909116906370a082319061141d90309060040161223f565b602060405180830381865afa15801561143a573d6000803e3d6000fd5b505050506040513d601f19601f8201168201806040525081019061145e91906123f3565b905080156114f8578282815481106114785761147861244e565b60009182526020909120015460405163a9059cbb60e01b81526001600160a01b039091169063a9059cbb906114b3908790859060040161240c565b6020604051808303816000875af11580156114d2573d6000803e3d6000fd5b505050506040513d601f19601f820116820180604052508101906114f691906125ed565b505b5061150281612464565b90506113c7565b5060408051808201909152601d81527f53657474696e67204458424c20746f6b656e206e6577206d696e7465720000006020820152600484015461155691906001600160a01b0316611bfb565b60018301546040516348af6b1560e01b81526001600160a01b03909116906348af6b159061158890859060040161223f565b600060405180830381600087803b1580156115a257600080fd5b505af11580156115b6573d6000803e3d6000fd5b505060408051608081018252600687015481526007870154602082015281516103008101808452600095509193509183019190600e88019060189082845b8154815260200190600101908083116115f457505050918352505060408051608081018252600a88015461ffff80821683526201000090910416602082810191909152600b89015482840152600c8901546060830152928301528051808201909152601b81527f43616c6c696e67206d6967726174696f6e207461726765742e2e2e00000000009181019190915290915061168e90611c87565b604051632c326f2760e11b81526001600160a01b03841690635864de4e906116ba90849060040161260f565b600060405180830381600087803b1580156116d457600080fd5b505af11580156116e8573d6000803e3d6000fd5b50506040516001600160a01b03861692507ffce0ac0494aee28941f2c55af2e1b069a1c8c96bce836f3fd7d9404ed662a9dc9150600090a261175e6040518060400160405280601e81526020017f53656c662d6465737472756374696e6720746f206e6577207461726765740000815250611c87565b826001600160a01b038116ff5b6000806117766117b8565b6001600160a01b0385166000908152602782016020526040812091925061179c82611880565b905060006117ac848884896119ef565b50979650505050505050565b7fbfa76ec2967ed7f8d3d40cd552f1451ab03573b596bfce931a6a016f7733078c90565b61182182826040516024016117f29291906126d9565b60408051601f198184030181529190526020810180516001600160e01b0316632d839cb360e21b179052611ccd565b5050565b61187b8363a9059cbb60e01b848460405160240161184492919061240c565b60408051601f198184030181529190526020810180516001600160e01b03166001600160e01b031990931692909217909152611cee565b505050565b60008060008360000160009054906101000a90046001600160a01b03166001600160a01b031663feaf968c6040518163ffffffff1660e01b815260040160a060405180830381865afa1580156118da573d6000803e3d6000fd5b505050506040513d601f19601f820116820180604052508101906118fe919061271a565b509350509250506000821361194f5760405162461bcd60e51b81526020600482015260176024820152764e6f207072696365206461746120617661696c61626c6560481b604482015260640161034c565b6000610258611961620151804261276a565b61196b919061276a565b90508082116119af5760405162461bcd60e51b815260206004820152601060248201526f5374616c65207072696365206461746160801b604482015260640161034c565b84546119c690600160a01b900460ff16600a6125a2565b6119dc68327cb2734119d3b7a9601e1b8561247d565b6119e691906124aa565b95945050505050565b600081808203611a69576040516370a0823160e01b81526001600160a01b038616906370a0823190611a2590309060040161223f565b602060405180830381865afa158015611a42573d6000803e3d6000fd5b505050506040513d601f19601f82011682018060405250810190611a6691906123f3565b90505b620f4240611a77858361247d565b611a81919061247d565b6001600160a01b038616600090815260268801602052604090205490925068327cb2734119d3b7a9601e1b90611abb9060ff16600a6125a2565b611ac5919061247d565b611acf90836124aa565b915094509492505050565b6000611ae46117b8565b60078101805442909155909150828115801590611b0d5750611b09620151804261276a565b8211155b15611b2557611b20600e8401600061221c565b611bd6565b6000610e10611b37620151804261277d565b611b4191906124aa565b90506000601860018301069050600085600e018260188110611b6557611b6561244e565b01549050600086600e018360188110611b8057611b8061244e565b015586600e87018460188110611b9857611b9861244e565b016000828254611ba8919061243b565b90915550506006860154611bbd90889061243b565b93508015611bd257611bcf818561276a565b93505b5050505b60068301819055611bf583611bf064e8d4a51000846124aa565b611dc0565b50505050565b6118218282604051602401611c11929190612791565b60408051601f198184030181529190526020810180516001600160e01b031663319af33360e01b179052611ccd565b61187b838383604051602401611c58939291906127bb565b60408051601f198184030181529190526020810180516001600160e01b0316635970e08960e01b179052611ccd565b611cca81604051602401611c9b91906127f0565b60408051601f198184030181529190526020810180516001600160e01b031663104c13eb60e21b179052611ccd565b50565b80516a636f6e736f6c652e6c6f67602083016000808483855afa5050505050565b6000611d43826040518060400160405280602081526020017f5361666545524332303a206c6f772d6c6576656c2063616c6c206661696c6564815250856001600160a01b0316611e2a9092919063ffffffff16565b80519091501561187b5780806020019051810190611d6191906125ed565b61187b5760405162461bcd60e51b815260206004820152602a60248201527f5361666545524332303a204552433230206f7065726174696f6e20646964206e6044820152691bdd081cdd58d8d9595960b21b606482015260840161034c565b60408051608081018252600a84015461ffff808216835262010000909104811660208301819052600b86015493830193909352600c8501546060830152909190831610611e115761187b8383611e39565b805161ffff80841691161061187b5761187b8383611f5f565b60606112438484600085612073565b60408051608081018252600a84015461ffff808216835262010000909104166020820152600b84015491810191909152600c83015460608201525b611e7e818361214e565b611f0a57600083600d0182606001516001611e99919061243b565b81548110611ea957611ea961244e565b906000526020600020906003020190508060010154600003611ecb5750611f0a565b60408051608081018252825461ffff80821683526201000090910416602082015260018301549181019190915260029091015460608201529050611e74565b6040810151600b8401541461187b578051600a84018054602084015161ffff908116620100000263ffffffff199092169316929092179190911790556040810151600b8401556060810151600c840155505050565b60408051608081018252600a84015461ffff808216835262010000909104166020820152600b84015491810191909152600c83015460608201525b611fa4818361214e565b61202c5760608101511561202c57600083600d0160018360600151611fc9919061276a565b81548110611fd957611fd961244e565b6000918252602091829020604080516080810182526003909302909101805461ffff808216855262010000909104169383019390935260018301549082015260029091015460608201529150611f9a9050565b8051600a84018054602084015161ffff908116620100000263ffffffff199092169316929092179190911790556040810151600b84015560600151600c9092019190915550565b6060824710156120d45760405162461bcd60e51b815260206004820152602660248201527f416464726573733a20696e73756666696369656e742062616c616e636520666f6044820152651c8818d85b1b60d21b606482015260840161034c565b600080866001600160a01b031685876040516120f09190612803565b60006040518083038185875af1925050503d806000811461212d576040519150601f19603f3d011682016040523d82523d6000602084013e612132565b606091505b50915091506121438783838761217e565b979650505050505050565b60008161ffff16836000015161ffff16111580156121775750826020015161ffff168261ffff16105b9392505050565b606083156121ed5782516000036121e6576001600160a01b0385163b6121e65760405162461bcd60e51b815260206004820152601d60248201527f416464726573733a2063616c6c20746f206e6f6e2d636f6e7472616374000000604482015260640161034c565b5081611243565b61124383838151156122025781518083602001fd5b8060405162461bcd60e51b815260040161034c91906127f0565b50611cca9060188101905b8082111561223b5760008155600101612227565b5090565b6001600160a01b0391909116815260200190565b6001600160a01b0381168114611cca57600080fd5b60008060006060848603121561227d57600080fd5b833561228881612253565b95602085013595506040909401359392505050565b6000602082840312156122af57600080fd5b813561217781612253565b600080604083850312156122cd57600080fd5b82356122d881612253565b915060208301356122e881612253565b809150509250929050565b6000806040838503121561230657600080fd5b823561231181612253565b946020939093013593505050565b602080825282518282018190526000919060409081850190868401855b8281101561237f57815180516001600160a01b0316855286810151878601528581015186860152606090810151908501526080909301929085019060010161233c565b5091979650505050505050565b6000806000606084860312156123a157600080fd5b83356123ac81612253565b925060208401356123bc81612253565b929592945050506040919091013590565b6020808252600c908201526b155b985d5d1a1bdc9a5e995960a21b604082015260600190565b60006020828403121561240557600080fd5b5051919050565b6001600160a01b03929092168252602082015260400190565b634e487b7160e01b600052601160045260246000fd5b80820180821115610a9357610a93612425565b634e487b7160e01b600052603260045260246000fd5b60006001820161247657612476612425565b5060010190565b8082028115828204841417610a9357610a93612425565b634e487b7160e01b600052601260045260246000fd5b6000826124b9576124b9612494565b500490565b600181815b808511156124f95781600019048211156124df576124df612425565b808516156124ec57918102915b93841c93908002906124c3565b509250929050565b60008261251057506001610a93565b8161251d57506000610a93565b8160018114612533576002811461253d57612559565b6001915050610a93565b60ff84111561254e5761254e612425565b50506001821b610a93565b5060208310610133831016604e8410600b841016171561257c575081810a610a93565b61258683836124be565b806000190482111561259a5761259a612425565b029392505050565b600061217760ff841683612501565b6000602082840312156125c357600080fd5b815163ffffffff8116811461217757600080fd5b634e487b7160e01b600052604160045260246000fd5b6000602082840312156125ff57600080fd5b8151801515811461217757600080fd5b81518152602080830151818301526040808401516103c084019291840160005b601881101561264c5782518252918301919083019060010161262f565b505050606093840151805161ffff908116610340860152918101519091166103608401526040810151610380840152909201516103a09091015290565b60005b838110156126a457818101518382015260200161268c565b50506000910152565b600081518084526126c5816020860160208601612689565b601f01601f19169290920160200192915050565b6040815260006126ec60408301856126ad565b90508260208301529392505050565b805169ffffffffffffffffffff8116811461271557600080fd5b919050565b600080600080600060a0868803121561273257600080fd5b61273b866126fb565b945060208601519350604086015192506060860151915061275e608087016126fb565b90509295509295909350565b81810381811115610a9357610a93612425565b60008261278c5761278c612494565b500690565b6040815260006127a460408301856126ad565b905060018060a01b03831660208301529392505050565b6060815260006127ce60608301866126ad565b84602084015282810360408401526127e681856126ad565b9695505050505050565b60208152600061217760208301846126ad565b60008251612815818460208701612689565b919091019291505056fea2646970667358221220ef645cda94e5a27692460b7d4edc704f91789a085af4ee5e8b7af18f479a1d3664736f6c63430008110033",
  "linkReferences": {},
  "deployedLinkReferences": {}
}