{
  "_format": "hh-sol-artifact-1",
  "contractName": "CommunityVault",
  "sourceName": "contracts/vault/CommunityVault.sol",
  "abi": [
    {
      "inputs": [
        {
          "components": [
            {
              "internalType": "address",
              "name": "wrappedNativeToken",
              "type": "address"
            },
            {
              "internalType": "address",
              "name": "adminMultiSig",
              "type": "address"
            },
            {
              "internalType": "uint32",
              "name": "timelockSeconds",
              "type": "uint32"
            },
            {
              "internalType": "uint256",
              "name": "baseMintThreshold",
              "type": "uint256"
            },
            {
              "components": [
                {
                  "internalType": "uint16",
                  "name": "minMMVolume",
                  "type": "uint16"
                },
                {
                  "internalType": "uint16",
                  "name": "maxMMVolume",
                  "type": "uint16"
                },
                {
                  "internalType": "uint256",
                  "name": "rate",
                  "type": "uint256"
                }
              ],
              "internalType": "struct VaultStorage.MintRateRangeConfig[]",
              "name": "rateRanges",
              "type": "tuple[]"
            },
            {
              "components": [
                {
                  "internalType": "address[]",
                  "name": "feeTokens",
                  "type": "address[]"
                },
                {
                  "internalType": "address[]",
                  "name": "priceFeeds",
                  "type": "address[]"
                }
              ],
              "internalType": "struct VaultStorage.FeeTokenConfig",
              "name": "feeTokenConfig",
              "type": "tuple"
            }
          ],
          "internalType": "struct VaultStorage.VaultConfig",
          "name": "config",
          "type": "tuple"
        }
      ],
      "stateMutability": "nonpayable",
      "type": "constructor"
    },
    {
      "anonymous": false,
      "inputs": [
        {
          "indexed": false,
          "internalType": "address",
          "name": "holder",
          "type": "address"
        },
        {
          "indexed": false,
          "internalType": "uint256",
          "name": "dxblAmount",
          "type": "uint256"
        },
        {
          "indexed": false,
          "internalType": "address",
          "name": "rewardToken",
          "type": "address"
        },
        {
          "indexed": false,
          "internalType": "uint256",
          "name": "rewardAmount",
          "type": "uint256"
        }
      ],
      "name": "DXBLRedeemed",
      "type": "event"
    },
    {
      "anonymous": false,
      "inputs": [
        {
          "indexed": true,
          "internalType": "address",
          "name": "newVault",
          "type": "address"
        }
      ],
      "name": "MigrationCancelled",
      "type": "event"
    },
    {
      "anonymous": false,
      "inputs": [
        {
          "indexed": true,
          "internalType": "address",
          "name": "newVault",
          "type": "address"
        },
        {
          "indexed": false,
          "internalType": "uint256",
          "name": "afterTime",
          "type": "uint256"
        }
      ],
      "name": "MigrationScheduled",
      "type": "event"
    },
    {
      "anonymous": false,
      "inputs": [],
      "name": "Paused",
      "type": "event"
    },
    {
      "anonymous": false,
      "inputs": [],
      "name": "Resumed",
      "type": "event"
    },
    {
      "anonymous": false,
      "inputs": [
        {
          "indexed": true,
          "internalType": "address",
          "name": "newVault",
          "type": "address"
        }
      ],
      "name": "VaultMigrated",
      "type": "event"
    },
    {
      "inputs": [],
      "name": "adminMultiSig",
      "outputs": [
        {
          "internalType": "address",
          "name": "",
          "type": "address"
        }
      ],
      "stateMutability": "view",
      "type": "function"
    },
    {
      "inputs": [],
      "name": "assets",
      "outputs": [
        {
          "components": [
            {
              "internalType": "address",
              "name": "token",
              "type": "address"
            },
            {
              "internalType": "uint256",
              "name": "balance",
              "type": "uint256"
            },
            {
              "internalType": "uint256",
              "name": "usdValue",
              "type": "uint256"
            },
            {
              "internalType": "uint256",
              "name": "usdPrice",
              "type": "uint256"
            }
          ],
          "internalType": "struct IComputationalView.AssetInfo[]",
          "name": "tokens",
          "type": "tuple[]"
        }
      ],
      "stateMutability": "view",
      "type": "function"
    },
    {
      "inputs": [],
      "name": "aumUSD",
      "outputs": [
        {
          "internalType": "uint256",
          "name": "usd",
          "type": "uint256"
        }
      ],
      "stateMutability": "view",
      "type": "function"
    },
    {
      "inputs": [],
      "name": "baseMintThreshold",
      "outputs": [
        {
          "internalType": "uint256",
          "name": "",
          "type": "uint256"
        }
      ],
      "stateMutability": "view",
      "type": "function"
    },
    {
      "inputs": [],
      "name": "canMigrate",
      "outputs": [
        {
          "internalType": "bool",
          "name": "",
          "type": "bool"
        }
      ],
      "stateMutability": "view",
      "type": "function"
    },
    {
      "inputs": [],
      "name": "cancelMigration",
      "outputs": [],
      "stateMutability": "nonpayable",
      "type": "function"
    },
    {
      "inputs": [
        {
          "internalType": "address",
          "name": "feeToken",
          "type": "address"
        },
        {
          "internalType": "uint256",
          "name": "amount",
          "type": "uint256"
        }
      ],
      "name": "computeVolumeUSD",
      "outputs": [
        {
          "internalType": "uint256",
          "name": "volumeUSD",
          "type": "uint256"
        }
      ],
      "stateMutability": "view",
      "type": "function"
    },
    {
      "inputs": [
        {
          "internalType": "address",
          "name": "dexible",
          "type": "address"
        },
        {
          "internalType": "address",
          "name": "token",
          "type": "address"
        }
      ],
      "name": "configureContracts",
      "outputs": [],
      "stateMutability": "nonpayable",
      "type": "function"
    },
    {
      "inputs": [
        {
          "internalType": "address",
          "name": "feeToken",
          "type": "address"
        },
        {
          "internalType": "uint256",
          "name": "gasCost",
          "type": "uint256"
        }
      ],
      "name": "convertGasToFeeToken",
      "outputs": [
        {
          "internalType": "uint256",
          "name": "",
          "type": "uint256"
        }
      ],
      "stateMutability": "view",
      "type": "function"
    },
    {
      "inputs": [],
      "name": "currentMintRateUSD",
      "outputs": [
        {
          "internalType": "uint256",
          "name": "rate",
          "type": "uint256"
        }
      ],
      "stateMutability": "view",
      "type": "function"
    },
    {
      "inputs": [],
      "name": "currentNavUSD",
      "outputs": [
        {
          "internalType": "uint256",
          "name": "nav",
          "type": "uint256"
        }
      ],
      "stateMutability": "view",
      "type": "function"
    },
    {
      "inputs": [],
      "name": "dailyVolumeUSD",
      "outputs": [
        {
          "internalType": "uint256",
          "name": "",
          "type": "uint256"
        }
      ],
      "stateMutability": "view",
      "type": "function"
    },
    {
      "inputs": [],
      "name": "dexibleContract",
      "outputs": [
        {
          "internalType": "address",
          "name": "",
          "type": "address"
        }
      ],
      "stateMutability": "view",
      "type": "function"
    },
    {
      "inputs": [],
      "name": "discountBps",
      "outputs": [
        {
          "internalType": "uint32",
          "name": "",
          "type": "uint32"
        }
      ],
      "stateMutability": "view",
      "type": "function"
    },
    {
      "inputs": [],
      "name": "dxblToken",
      "outputs": [
        {
          "internalType": "address",
          "name": "",
          "type": "address"
        }
      ],
      "stateMutability": "view",
      "type": "function"
    },
    {
      "inputs": [
        {
          "internalType": "address",
          "name": "rewardToken",
          "type": "address"
        },
        {
          "internalType": "uint256",
          "name": "dxblAmount",
          "type": "uint256"
        }
      ],
      "name": "estimateRedemption",
      "outputs": [
        {
          "internalType": "uint256",
          "name": "",
          "type": "uint256"
        }
      ],
      "stateMutability": "view",
      "type": "function"
    },
    {
      "inputs": [
        {
          "internalType": "address",
          "name": "feeToken",
          "type": "address"
        }
      ],
      "name": "feeTokenPriceUSD",
      "outputs": [
        {
          "internalType": "uint256",
          "name": "",
          "type": "uint256"
        }
      ],
      "stateMutability": "view",
      "type": "function"
    },
    {
      "inputs": [
        {
          "internalType": "address",
          "name": "token",
          "type": "address"
        }
      ],
      "name": "isFeeTokenAllowed",
      "outputs": [
        {
          "internalType": "bool",
          "name": "",
          "type": "bool"
        }
      ],
      "stateMutability": "view",
      "type": "function"
    },
    {
      "inputs": [],
      "name": "migrateV1",
      "outputs": [],
      "stateMutability": "nonpayable",
      "type": "function"
    },
    {
      "inputs": [],
      "name": "pause",
      "outputs": [],
      "stateMutability": "nonpayable",
      "type": "function"
    },
    {
      "inputs": [],
      "name": "paused",
      "outputs": [
        {
          "internalType": "bool",
          "name": "",
          "type": "bool"
        }
      ],
      "stateMutability": "view",
      "type": "function"
    },
    {
      "inputs": [
        {
          "internalType": "address",
          "name": "rewardToken",
          "type": "address"
        },
        {
          "internalType": "uint256",
          "name": "dxblAmount",
          "type": "uint256"
        },
        {
          "internalType": "uint256",
          "name": "minOutAmount",
          "type": "uint256"
        },
        {
          "internalType": "bool",
          "name": "unwrapNative",
          "type": "bool"
        }
      ],
      "name": "redeemDXBL",
      "outputs": [],
      "stateMutability": "nonpayable",
      "type": "function"
    },
    {
      "inputs": [],
      "name": "resume",
      "outputs": [],
      "stateMutability": "nonpayable",
      "type": "function"
    },
    {
      "inputs": [
        {
          "internalType": "address",
          "name": "trader",
          "type": "address"
        },
        {
          "internalType": "address",
          "name": "feeToken",
          "type": "address"
        },
        {
          "internalType": "uint256",
          "name": "amount",
          "type": "uint256"
        }
      ],
      "name": "rewardTrader",
      "outputs": [],
      "stateMutability": "nonpayable",
      "type": "function"
    },
    {
      "inputs": [
        {
          "internalType": "contract V1MigrationTarget",
          "name": "newVault",
          "type": "address"
        }
      ],
      "name": "scheduleMigration",
      "outputs": [],
      "stateMutability": "nonpayable",
      "type": "function"
    },
    {
      "inputs": [],
      "name": "timelockSeconds",
      "outputs": [
        {
          "internalType": "uint32",
          "name": "",
          "type": "uint32"
        }
      ],
      "stateMutability": "view",
      "type": "function"
    },
    {
      "inputs": [],
      "name": "wrappedNativeToken",
      "outputs": [
        {
          "internalType": "address",
          "name": "",
          "type": "address"
        }
      ],
      "stateMutability": "view",
      "type": "function"
    },
    {
      "stateMutability": "payable",
      "type": "receive"
    }
  ],
  "bytecode": "0x60806040523480156200001157600080fd5b50604051620036a9380380620036a9833981016040819052620000349162000bab565b60006200004b620002f260201b620004ed1760201c565b805490915061010090046001600160a01b031615620000da57805461010090046001600160a01b03163314620000d45760405162461bcd60e51b8152602060048201526024808201527f556e617574686f72697a656420746f206368616e676520636f6e6669677572616044820152633a34b7b760e11b60648201526084015b60405180910390fd5b620000e6565b805460ff191660011781555b6000826060015111620001475760405162461bcd60e51b815260206004820152602260248201527f4d7573742070726f7669646520612062617365206d696e74207468726573686f6044820152611b1960f21b6064820152608401620000cb565b81516001600160a01b0316620001a05760405162461bcd60e51b815260206004820152601c60248201527f496e76616c69642077726170706564206e617469766520746f6b656e000000006044820152606401620000cb565b6000826040015163ffffffff1611620001fc5760405162461bcd60e51b815260206004820152601760248201527f496e76616c69642074696d656c6f636b20706572696f640000000000000000006044820152606401620000cb565b6020828101518254610100600160a81b0319166101006001600160a01b03928316021783556060840151600584015583516003840180546001600160a01b03191691909216179055604080518082018252601381527f53657474696e672074696d656c6f636b20746f000000000000000000000000008184015290840151620002979263ffffffff9091169062000316811b6200198817901c565b604082015160048201805463ffffffff909216600160a01b0263ffffffff60a01b199092169190911790556080820151620002d490829062000367565b620002ea818360a001516200059f60201b60201c565b505062000d4a565b7fbfa76ec2967ed7f8d3d40cd552f1451ab03573b596bfce931a6a016f7733078c90565b6200036382826040516024016200032f92919062000c89565b60408051601f198184030181529190526020810180516001600160e01b03908116632d839cb360e21b17909152620008c716565b5050565b600d82015415620003bb5760405162461bcd60e51b815260206004820152601f60248201527f416c726561647920696e697469616c697a656420726174652072616e676573006044820152606401620000cb565b60005b815181101562000525576000828281518110620003df57620003df62000ce0565b602002602001015190506000816020015161ffff1611620004435760405162461bcd60e51b815260206004820152601960248201527f4d6178204d4d20566f6c756d65206d757374206265203e2030000000000000006044820152606401620000cb565b60008160400151116200048c5760405162461bcd60e51b815260206004820152601060248201526f052617465206d757374206265203e20360841b6044820152606401620000cb565b60408051608081018252825161ffff908116825260208085015182168184019081529484015193830193845260608301868152600d890180546001818101835560009283529390912094516003909102909401805496518416620100000263ffffffff19909716949093169390931794909417815591519282019290925590516002909101556200051d8162000cf6565b9050620003be565b5081600d016000815481106200053f576200053f62000ce0565b600091825260209091206003909102018054600a8401805461ffff92831661ffff19821681178355845463ffffffff19909216176201000091829004909316029190911790556001810154600b84015560020154600c9092019190915550565b80515115801590620005b75750602081015151815151145b6200062b5760405162461bcd60e51b815260206004820152603f60248201527f4d7573742070726f7669646520657175616c2d6c656e6774682061727261797360448201527f20666f722066656520746f6b656e7320616e64207072696365206665656473006064820152608401620000cb565b60005b815151811015620008385760008260000151828151811062000654576200065462000ce0565b6020026020010151905060008360200151838151811062000679576200067962000ce0565b6020908102919091018101516009870180546001810182556000918252908390200180546001600160a01b0319166001600160a01b0386169081179091556040805163313ce56760e01b81529051929450909263313ce567926004808401938290030181865afa158015620006f2573d6000803e3d6000fd5b505050506040513d601f19601f8201168201806040525081019062000718919062000d1e565b856026016000846001600160a01b03166001600160a01b0316815260200190815260200160002060006101000a81548160ff021916908360ff1602179055506040518060400160405280826001600160a01b03168152602001826001600160a01b031663313ce5676040518163ffffffff1660e01b8152600401602060405180830381865afa158015620007b0573d6000803e3d6000fd5b505050506040513d601f19601f82011682018060405250810190620007d6919062000d1e565b60ff9081169091526001600160a01b0393841660009081526027880160209081526040909120835181549490920151909216600160a01b026001600160a81b03199093169416939093171790915550620008308162000cf6565b90506200062e565b5060038201546001600160a01b03166000908152602783016020526040902054600160a01b900460ff16620003635760405162461bcd60e51b815260206004820152602e60248201527f57726170706564206e6174697665206173736574206d7573742062652061207660448201526d30b634b2103332b2903a37b5b2b760911b6064820152608401620000cb565b80516a636f6e736f6c652e6c6f67602083016000808483855afa5050505050565b634e487b7160e01b600052604160045260246000fd5b604051606081016001600160401b0381118282101715620009235762000923620008e8565b60405290565b60405160c081016001600160401b0381118282101715620009235762000923620008e8565b604051601f8201601f191681016001600160401b0381118282101715620009795762000979620008e8565b604052919050565b80516001600160a01b03811681146200099957600080fd5b919050565b805163ffffffff811681146200099957600080fd5b60006001600160401b03821115620009cf57620009cf620008e8565b5060051b60200190565b805161ffff811681146200099957600080fd5b600082601f830112620009fe57600080fd5b8151602062000a1762000a1183620009b3565b6200094e565b8281526060928302850182019282820191908785111562000a3757600080fd5b8387015b8581101562000a955781818a03121562000a555760008081fd5b62000a5f620008fe565b62000a6a82620009d9565b815262000a79868301620009d9565b8187015260408281015190820152845292840192810162000a3b565b5090979650505050505050565b600082601f83011262000ab457600080fd5b8151602062000ac762000a1183620009b3565b82815260059290921b8401810191818101908684111562000ae757600080fd5b8286015b8481101562000b0d5762000aff8162000981565b835291830191830162000aeb565b509695505050505050565b60006040828403121562000b2b57600080fd5b604080519081016001600160401b03808211838310171562000b515762000b51620008e8565b81604052829350845191508082111562000b6a57600080fd5b62000b788683870162000aa2565b8352602085015191508082111562000b8f57600080fd5b5062000b9e8582860162000aa2565b6020830152505092915050565b60006020828403121562000bbe57600080fd5b81516001600160401b038082111562000bd657600080fd5b9083019060c0828603121562000beb57600080fd5b62000bf562000929565b62000c008362000981565b815262000c106020840162000981565b602082015262000c23604084016200099e565b60408201526060830151606082015260808301518281111562000c4557600080fd5b62000c5387828601620009ec565b60808301525060a08301518281111562000c6c57600080fd5b62000c7a8782860162000b18565b60a08301525095945050505050565b604081526000835180604084015260005b8181101562000cb9576020818701810151606086840101520162000c9a565b506000606082850101526060601f19601f8301168401019150508260208301529392505050565b634e487b7160e01b600052603260045260246000fd5b60006001820162000d1757634e487b7160e01b600052601160045260246000fd5b5060010190565b60006020828403121562000d3157600080fd5b815160ff8116811462000d4357600080fd5b9392505050565b61294f8062000d5a6000396000f3fe6080604052600436106101705760003560e01c80635d204718116100cc5780638456cb591161007a5780638456cb5914610439578063ab1094c01461044e578063b2eafb551461046e578063ce25cb4d14610483578063dd81eb98146104a3578063df2fb8d6146104b8578063f7406fc3146104cd57600080fd5b80635d2047181461036e5780635de118901461038e57806365a1f3c3146103a35780636c1f5633146103cd57806371a97305146103e25780637262f55714610404578063821314701461042457600080fd5b8063288cbb5d11610129578063288cbb5d146102ba57806331e1a9c6146102da5780633931f45d146102fa57806341b5774a1461031a57806345c6a8741461032f57806356168843146103445780635c975abb1461035957600080fd5b8063046f7da2146101fd57806310639ea01461021257806317fcb39b1461022757806319ed21bd146102525780631dfc2ecf1461027757806320529bb11461029757600080fd5b366101f85761017d6104ed565b600301546001600160a01b031633146101f65760405162461bcd60e51b815260206004820152603060248201527f43616e6e6f7420726563656976652066756e64732065786365707420666f722060448201526f6e61746976652077697468647261777360801b60648201526084015b60405180910390fd5b005b600080fd5b34801561020957600080fd5b506101f6610511565b34801561021e57600080fd5b506101f6610562565b34801561023357600080fd5b5061023c6105fe565b6040516102499190612324565b60405180910390f35b34801561025e57600080fd5b5061026761061a565b6040519015158152602001610249565b34801561028357600080fd5b506101f661029236600461234d565b61065d565b3480156102a357600080fd5b506102ac610721565b604051908152602001610249565b3480156102c657600080fd5b506101f66102d536600461236a565b61081d565b3480156102e657600080fd5b506101f66102f53660046123b1565b6108b9565b34801561030657600080fd5b506102ac6103153660046123fb565b610be0565b34801561032657600080fd5b506102ac610d38565b34801561033b57600080fd5b5061023c610db3565b34801561035057600080fd5b506102ac610dd1565b34801561036557600080fd5b50610267610de4565b34801561037a57600080fd5b5061026761038936600461234d565b610df7565b34801561039a57600080fd5b506102ac610e2a565b3480156103af57600080fd5b506103b8610ef7565b60405163ffffffff9091168152602001610249565b3480156103d957600080fd5b506103b8610f17565b3480156103ee57600080fd5b506103f7610f9e565b6040516102499190612427565b34801561041057600080fd5b506102ac61041f3660046123fb565b611192565b34801561043057600080fd5b506102ac611235565b34801561044557600080fd5b506101f6611248565b34801561045a57600080fd5b506101f6610469366004612494565b61129c565b34801561047a57600080fd5b5061023c611497565b34801561048f57600080fd5b506102ac61049e36600461234d565b6114b3565b3480156104af57600080fd5b5061023c61150d565b3480156104c457600080fd5b506101f6611529565b3480156104d957600080fd5b506102ac6104e83660046123fb565b61193b565b7fbfa76ec2967ed7f8d3d40cd552f1451ab03573b596bfce931a6a016f7733078c90565b600061051b6104ed565b805490915061010090046001600160a01b0316331461054c5760405162461bcd60e51b81526004016101ed906124d5565b60006105566104ed565b805460ff191690555050565b600061056c6104ed565b805490915061010090046001600160a01b0316331461059d5760405162461bcd60e51b81526004016101ed906124d5565b60006105a76104ed565b6000600882018190556004820180546001600160a01b031981169091556040519293506001600160a01b03169182917f7c7cf105c6d2d5b006d910653c90e1ddef1597f52e08f86f4a8aad4e5bdf255e91a2505050565b60006106086104ed565b600301546001600160a01b0316919050565b6000806106256104ed565b60048101549091506001600160a01b031615801590610648575060008160080154115b80156106575750428160080154105b91505090565b60006106676104ed565b805490915061010090046001600160a01b031633146106985760405162461bcd60e51b81526004016101ed906124d5565b60006106a26104ed565b60048101549091506106c190600160a01b900463ffffffff1642612511565b600882018190556004820180546001600160a01b0319166001600160a01b038616908117909155604051918252907ffbf126b8a95ec693e692437a9297a98deec1cfb822b8c650b7d346461efdb2ad9060200160405180910390a2505050565b60008061072c6104ed565b905060008160090180548060200260200160405190810160405280929190818152602001828054801561078857602002820191906000526020600020905b81546001600160a01b0316815260019091019060200180831161076a575b5050505050905060005b81518110156108175760008282815181106107af576107af612524565b6020908102919091018101516001600160a01b03811660009081526027870190925260408220909250906107e2826119d1565b905060006107f38785846000611b43565b5090506108008189612511565b975050505050806108109061253a565b9050610792565b50505090565b60006108276104ed565b60018101549091506001600160a01b0316610866576001810180546001600160a01b0319166001600160a01b038416179055805460ff19168155610894565b805461010090046001600160a01b031633146108945760405162461bcd60e51b81526004016101ed906124d5565b60020180546001600160a01b0319166001600160a01b03939093169290921790915550565b60006108c36104ed565b905060006108d18686611192565b90506000866001600160a01b03166370a08231306040518263ffffffff1660e01b81526004016109019190612324565b602060405180830381865afa15801561091e573d6000803e3d6000fd5b505050506040513d601f19601f820116820180604052508101906109429190612553565b9050808211156109c95784811061095b578091506109c9565b60405162461bcd60e51b815260206004820152603e60248201527f496e73756666696369656e742061737365742062616c616e636520746f20707260448201527f6f6475636520657870656374656420776974686472617720616d6f756e74000060648201526084016101ed565b6001830154604051632770a7eb60e21b81526001600160a01b0390911690639dc29fac906109fd9033908a9060040161256c565b600060405180830381600087803b158015610a1757600080fd5b505af1158015610a2b573d6000803e3d6000fd5b505060408051338152602081018a90526001600160a01b038b16818301526060810186905290517f5fe85dc899e158274a44abab0e6df5434416f0ce11df30d42e02f229b8fc8a419350908190036080019150a1838015610a9b575060038301546001600160a01b038881169116145b15610b62576003830154604051632e1a7d4d60e01b8152600481018490526001600160a01b0390911690632e1a7d4d90602401600060405180830381600087803b158015610ae857600080fd5b505af1158015610afc573d6000803e3d6000fd5b505060405133925082915084156108fc029085906000818181858888f19350505050610b5c5760405162461bcd60e51b815260206004820152600f60248201526e151c985b9cd9995c8819985a5b1959608a1b60448201526064016101ed565b50610b76565b610b766001600160a01b0388163384611c2e565b610b7e61061a565b15610bd757306001600160a01b031663df2fb8d66040518163ffffffff1660e01b8152600401600060405180830381600087803b158015610bbe57600080fd5b505af1158015610bd2573d6000803e3d6000fd5b505050505b50505050505050565b600080610beb6104ed565b6001600160a01b03858116600090815260278301602052604090205491925016610c275760405162461bcd60e51b81526004016101ed90612585565b60038101546001600160a01b0390811690851603610c485782915050610d32565b60038101546001600160a01b031660009081526027820160205260408120610c6f906119d1565b6001600160a01b0386166000908152602784016020526040812091925090610c96906119d1565b9050600081610cb168327cb2734119d3b7a9601e1b856125b4565b610cbb91906125e1565b9050600068327cb2734119d3b7a9601e1b610cd688846125b4565b610ce091906125e1565b6001600160a01b0389166000908152602687016020526040902054909150670de0b6b3a764000090610d169060ff16600a6126d9565b610d2090836125b4565b610d2a91906125e1565b955050505050505b92915050565b600080610d436104ed565b9050600064e8d4a510008260060154610d5c91906125e1565b905060008161ffff1683600a0160010154610d7791906125b4565b9050670de0b6b3a7640000818460050154610d9291906125b4565b610d9c91906125e1565b8360050154610dab9190612511565b935050505090565b6000610dbd6104ed565b5461010090046001600160a01b0316919050565b6000610ddb6104ed565b60050154905090565b6000610dee6104ed565b5460ff16919050565b600080610e026104ed565b6001600160a01b03938416600090815260279091016020526040902054909216151592915050565b600080610e356104ed565b905060008160010160009054906101000a90046001600160a01b03166001600160a01b03166318160ddd6040518163ffffffff1660e01b8152600401602060405180830381865afa158015610e8e573d6000803e3d6000fd5b505050506040513d601f19601f82011682018060405250810190610eb29190612553565b90506000610ebe610721565b9050811580610ecb575080155b15610eda576000935050505090565b81610eed82670de0b6b3a76400006125b4565b610dab91906125e1565b6000610f016104ed565b60040154600160a01b900463ffffffff16919050565b6000610f216104ed565b60010160009054906101000a90046001600160a01b03166001600160a01b031663566826d16040518163ffffffff1660e01b8152600401602060405180830381865afa158015610f75573d6000803e3d6000fd5b505050506040513d601f19601f82011682018060405250810190610f9991906126e8565b905090565b60606000610faa6104ed565b600981015490915067ffffffffffffffff811115610fca57610fca61270e565b60405190808252806020026020018201604052801561102f57816020015b61101c604051806080016040528060006001600160a01b031681526020016000815260200160008152602001600081525090565b815260200190600190039081610fe85790505b5091506000808260090180548060200260200160405190810160405280929190818152602001828054801561108d57602002820191906000526020600020905b81546001600160a01b0316815260019091019060200180831161106f575b5050505050905060005b815181101561118b5760008282815181106110b4576110b4612524565b6020908102919091018101516001600160a01b03811660009081526027880190925260408220909250906110e7826119d1565b90506000806110f98986856000611b43565b915091506040518060800160405280866001600160a01b0316815260200182815260200183815260200168327cb2734119d3b7a9601e1b620f42408661113f91906125b4565b61114991906125e1565b8152508a898151811061115e5761115e612524565b6020026020010181905250876111739061253a565b97505050505050806111849061253a565b9050611097565b5050505090565b60008061119d6104ed565b905060006111a9610e2a565b9050620f42406111c568327cb2734119d3b7a9601e1b836125b4565b6111cf91906125e1565b905060006111dc866114b3565b6001600160a01b038716600090815260268501602052604081205491925060ff909116908261120c83600a6126d9565b61121690866125b4565b61122091906125e1565b9050670de0b6b3a7640000610d2082896125b4565b600061123f6104ed565b60060154905090565b60006112526104ed565b805490915061010090046001600160a01b031633146112835760405162461bcd60e51b81526004016101ed906124d5565b600061128d6104ed565b805460ff191660011790555050565b60006112a66104ed565b60028101549091506001600160a01b031633146112d55760405162461bcd60e51b81526004016101ed906124d5565b60405163f7406fc360e01b8152600090309063f7406fc3906112fd908790879060040161256c565b602060405180830381865afa15801561131a573d6000803e3d6000fd5b505050506040513d601f19601f8201168201806040525081019061133e9190612553565b90506000306001600160a01b03166341b5774a6040518163ffffffff1660e01b8152600401602060405180830381865afa158015611380573d6000803e3d6000fd5b505050506040513d601f19601f820116820180604052508101906113a49190612553565b90506113af82611c89565b6000816113c484670de0b6b3a76400006125b4565b6113ce91906125e1565b60018501546040516340c10f1960e01b81529192506001600160a01b0316906340c10f1990611403908a90859060040161256c565b600060405180830381600087803b15801561141d57600080fd5b505af1158015611431573d6000803e3d6000fd5b50505050306001600160a01b03166319ed21bd6040518163ffffffff1660e01b8152600401602060405180830381865afa158015611473573d6000803e3d6000fd5b505050506040513d601f19601f82011682018060405250810190610b7e9190612724565b60006114a16104ed565b600201546001600160a01b0316919050565b6000806114be6104ed565b6001600160a01b0380851660009081526027830160205260409020805492935091166114fc5760405162461bcd60e51b81526004016101ed90612585565b611505816119d1565b949350505050565b60006115176104ed565b600101546001600160a01b0316919050565b306001600160a01b03166319ed21bd6040518163ffffffff1660e01b8152600401602060405180830381865afa158015611567573d6000803e3d6000fd5b505050506040513d601f19601f8201168201806040525081019061158b9190612724565b6115cc5760405162461bcd60e51b815260206004820152601260248201527110d85b9b9bdd081b5a59dc985d19481e595d60721b60448201526064016101ed565b60006115d66104ed565b6004810154815460ff191660011782559091506001600160a01b03166009820160005b815481101561173b57600082828154811061161657611616612524565b6000918252602090912001546040516370a0823160e01b81526001600160a01b03909116906370a082319061164f903090600401612324565b602060405180830381865afa15801561166c573d6000803e3d6000fd5b505050506040513d601f19601f820116820180604052508101906116909190612553565b9050801561172a578282815481106116aa576116aa612524565b60009182526020909120015460405163a9059cbb60e01b81526001600160a01b039091169063a9059cbb906116e5908790859060040161256c565b6020604051808303816000875af1158015611704573d6000803e3d6000fd5b505050506040513d601f19601f820116820180604052508101906117289190612724565b505b506117348161253a565b90506115f9565b5060018301546040516348af6b1560e01b81526001600160a01b03909116906348af6b159061176e908590600401612324565b600060405180830381600087803b15801561178857600080fd5b505af115801561179c573d6000803e3d6000fd5b505050600284015460405163d8544cf360e01b81526001600160a01b03909116915063d8544cf3906117d2908590600401612324565b600060405180830381600087803b1580156117ec57600080fd5b505af1158015611800573d6000803e3d6000fd5b505060408051608081018252600687015481526007870154602082015281516103008101808452600095509193509183019190600e88019060189082845b81548152602001906001019080831161183e57505050918352505060408051608081018252600a88015461ffff80821683526201000090910416602082810191909152600b89015482840152600c89015460608301529092019190915251632c326f2760e11b81529091506001600160a01b03841690635864de4e906118c8908490600401612741565b600060405180830381600087803b1580156118e257600080fd5b505af11580156118f6573d6000803e3d6000fd5b50506040516001600160a01b03861692507ffce0ac0494aee28941f2c55af2e1b069a1c8c96bce836f3fd7d9404ed662a9dc9150600090a2826001600160a01b038116ff5b6000806119466104ed565b6001600160a01b0385166000908152602782016020526040812091925061196c826119d1565b9050600061197c84888489611b43565b50979650505050505050565b6119cd828260405160240161199e92919061280b565b60408051601f198184030181529190526020810180516001600160e01b0316632d839cb360e21b179052611daa565b5050565b60008060008360000160009054906101000a90046001600160a01b03166001600160a01b031663feaf968c6040518163ffffffff1660e01b815260040160a060405180830381865afa158015611a2b573d6000803e3d6000fd5b505050506040513d601f19601f82011682018060405250810190611a4f919061284c565b5093505092505060008213611aa05760405162461bcd60e51b81526020600482015260176024820152764e6f207072696365206461746120617661696c61626c6560481b60448201526064016101ed565b6000611ab062015180600261289c565b611abf9062ffffff16426128c3565b9050808211611b035760405162461bcd60e51b815260206004820152601060248201526f5374616c65207072696365206461746160801b60448201526064016101ed565b8454611b1a90600160a01b900460ff16600a6126d9565b611b3068327cb2734119d3b7a9601e1b856125b4565b611b3a91906125e1565b95945050505050565b600081808203611bbd576040516370a0823160e01b81526001600160a01b038616906370a0823190611b79903090600401612324565b602060405180830381865afa158015611b96573d6000803e3d6000fd5b505050506040513d601f19601f82011682018060405250810190611bba9190612553565b90505b620f4240611bcb85836125b4565b611bd591906125b4565b6001600160a01b038616600090815260268801602052604090205490925068327cb2734119d3b7a9601e1b90611c0f9060ff16600a6126d9565b611c1991906125b4565b611c2390836125e1565b915094509492505050565b611c848363a9059cbb60e01b8484604051602401611c4d92919061256c565b60408051601f198184030181529190526020810180516001600160e01b03166001600160e01b031990931692909217909152611dcb565b505050565b6000611c936104ed565b60078101805442909155909150828115801590611cbc5750611cb862015180426128c3565b8211155b15611cd457611ccf600e840160006122f9565b611d85565b6000610e10611ce662015180426128d6565b611cf091906125e1565b90506000601860018301069050600085600e018260188110611d1457611d14612524565b01549050600086600e018360188110611d2f57611d2f612524565b015586600e87018460188110611d4757611d47612524565b016000828254611d579190612511565b90915550506006860154611d6c908890612511565b93508015611d8157611d7e81856128c3565b93505b5050505b60068301819055611da483611d9f64e8d4a51000846125e1565b611e9d565b50505050565b80516a636f6e736f6c652e6c6f67602083016000808483855afa5050505050565b6000611e20826040518060400160405280602081526020017f5361666545524332303a206c6f772d6c6576656c2063616c6c206661696c6564815250856001600160a01b0316611f079092919063ffffffff16565b805190915015611c845780806020019051810190611e3e9190612724565b611c845760405162461bcd60e51b815260206004820152602a60248201527f5361666545524332303a204552433230206f7065726174696f6e20646964206e6044820152691bdd081cdd58d8d9595960b21b60648201526084016101ed565b60408051608081018252600a84015461ffff808216835262010000909104811660208301819052600b86015493830193909352600c8501546060830152909190831610611eee57611c848383611f16565b805161ffff808416911610611c8457611c84838361203c565b60606115058484600085612150565b60408051608081018252600a84015461ffff808216835262010000909104166020820152600b84015491810191909152600c83015460608201525b611f5b818361222b565b611fe757600083600d0182606001516001611f769190612511565b81548110611f8657611f86612524565b906000526020600020906003020190508060010154600003611fa85750611fe7565b60408051608081018252825461ffff80821683526201000090910416602082015260018301549181019190915260029091015460608201529050611f51565b6040810151600b84015414611c84578051600a84018054602084015161ffff908116620100000263ffffffff199092169316929092179190911790556040810151600b8401556060810151600c840155505050565b60408051608081018252600a84015461ffff808216835262010000909104166020820152600b84015491810191909152600c83015460608201525b612081818361222b565b6121095760608101511561210957600083600d01600183606001516120a691906128c3565b815481106120b6576120b6612524565b6000918252602091829020604080516080810182526003909302909101805461ffff8082168552620100009091041693830193909352600183015490820152600290910154606082015291506120779050565b8051600a84018054602084015161ffff908116620100000263ffffffff199092169316929092179190911790556040810151600b84015560600151600c9092019190915550565b6060824710156121b15760405162461bcd60e51b815260206004820152602660248201527f416464726573733a20696e73756666696369656e742062616c616e636520666f6044820152651c8818d85b1b60d21b60648201526084016101ed565b600080866001600160a01b031685876040516121cd91906128ea565b60006040518083038185875af1925050503d806000811461220a576040519150601f19603f3d011682016040523d82523d6000602084013e61220f565b606091505b50915091506122208783838761225b565b979650505050505050565b60008161ffff16836000015161ffff16111580156122545750826020015161ffff168261ffff16105b9392505050565b606083156122ca5782516000036122c3576001600160a01b0385163b6122c35760405162461bcd60e51b815260206004820152601d60248201527f416464726573733a2063616c6c20746f206e6f6e2d636f6e747261637400000060448201526064016101ed565b5081611505565b61150583838151156122df5781518083602001fd5b8060405162461bcd60e51b81526004016101ed9190612906565b5061230890601881019061230b565b50565b5b80821115612320576000815560010161230c565b5090565b6001600160a01b0391909116815260200190565b6001600160a01b038116811461230857600080fd5b60006020828403121561235f57600080fd5b813561225481612338565b6000806040838503121561237d57600080fd5b823561238881612338565b9150602083013561239881612338565b809150509250929050565b801515811461230857600080fd5b600080600080608085870312156123c757600080fd5b84356123d281612338565b9350602085013592506040850135915060608501356123f0816123a3565b939692955090935050565b6000806040838503121561240e57600080fd5b823561241981612338565b946020939093013593505050565b602080825282518282018190526000919060409081850190868401855b8281101561248757815180516001600160a01b03168552868101518786015285810151868601526060908101519085015260809093019290850190600101612444565b5091979650505050505050565b6000806000606084860312156124a957600080fd5b83356124b481612338565b925060208401356124c481612338565b929592945050506040919091013590565b6020808252600c908201526b155b985d5d1a1bdc9a5e995960a21b604082015260600190565b634e487b7160e01b600052601160045260246000fd5b80820180821115610d3257610d326124fb565b634e487b7160e01b600052603260045260246000fd5b60006001820161254c5761254c6124fb565b5060010190565b60006020828403121561256557600080fd5b5051919050565b6001600160a01b03929092168252602082015260400190565b6020808252601590820152742ab739bab83837b93a32b2103332b2903a37b5b2b760591b604082015260600190565b8082028115828204841417610d3257610d326124fb565b634e487b7160e01b600052601260045260246000fd5b6000826125f0576125f06125cb565b500490565b600181815b80851115612630578160001904821115612616576126166124fb565b8085161561262357918102915b93841c93908002906125fa565b509250929050565b60008261264757506001610d32565b8161265457506000610d32565b816001811461266a576002811461267457612690565b6001915050610d32565b60ff841115612685576126856124fb565b50506001821b610d32565b5060208310610133831016604e8410600b84101617156126b3575081810a610d32565b6126bd83836125f5565b80600019048211156126d1576126d16124fb565b029392505050565b600061225460ff841683612638565b6000602082840312156126fa57600080fd5b815163ffffffff8116811461225457600080fd5b634e487b7160e01b600052604160045260246000fd5b60006020828403121561273657600080fd5b8151612254816123a3565b81518152602080830151818301526040808401516103c084019291840160005b601881101561277e57825182529183019190830190600101612761565b505050606093840151805161ffff908116610340860152918101519091166103608401526040810151610380840152909201516103a09091015290565b60005b838110156127d65781810151838201526020016127be565b50506000910152565b600081518084526127f78160208601602086016127bb565b601f01601f19169290920160200192915050565b60408152600061281e60408301856127df565b90508260208301529392505050565b805169ffffffffffffffffffff8116811461284757600080fd5b919050565b600080600080600060a0868803121561286457600080fd5b61286d8661282d565b94506020860151935060408601519250606086015191506128906080870161282d565b90509295509295909350565b62ffffff8181168382160280821691908281146128bb576128bb6124fb565b505092915050565b81810381811115610d3257610d326124fb565b6000826128e5576128e56125cb565b500690565b600082516128fc8184602087016127bb565b9190910192915050565b60208152600061225460208301846127df56fea264697066735822122039df25777a64f1f691df7ed4ce137b76132c93af90a1e5b49648849cec89128264736f6c63430008110033",
  "linkReferences": {},
  "deployedLinkReferences": {}
}