{
  "_format": "hh-sol-artifact-1",
  "contractName": "CommunityVault",
  "sourceName": "contracts/vault/CommunityVault.sol",
  "abi": [
    {
      "inputs": [
        {
          "components": [
            {
              "internalType": "address",
              "name": "wrappedNativeToken",
              "type": "address"
            },
            {
              "internalType": "address",
              "name": "adminMultiSig",
              "type": "address"
            },
            {
              "internalType": "uint32",
              "name": "timelockSeconds",
              "type": "uint32"
            },
            {
              "internalType": "uint256",
              "name": "baseMintThreshold",
              "type": "uint256"
            },
            {
              "components": [
                {
                  "internalType": "uint16",
                  "name": "minMMVolume",
                  "type": "uint16"
                },
                {
                  "internalType": "uint16",
                  "name": "maxMMVolume",
                  "type": "uint16"
                },
                {
                  "internalType": "uint256",
                  "name": "rate",
                  "type": "uint256"
                }
              ],
              "internalType": "struct VaultStorage.MintRateRangeConfig[]",
              "name": "rateRanges",
              "type": "tuple[]"
            },
            {
              "components": [
                {
                  "internalType": "address[]",
                  "name": "feeTokens",
                  "type": "address[]"
                },
                {
                  "internalType": "address[]",
                  "name": "priceFeeds",
                  "type": "address[]"
                }
              ],
              "internalType": "struct VaultStorage.FeeTokenConfig",
              "name": "feeTokenConfig",
              "type": "tuple"
            }
          ],
          "internalType": "struct VaultStorage.VaultConfig",
          "name": "config",
          "type": "tuple"
        }
      ],
      "stateMutability": "nonpayable",
      "type": "constructor"
    },
    {
      "anonymous": false,
      "inputs": [
        {
          "indexed": false,
          "internalType": "address",
          "name": "holder",
          "type": "address"
        },
        {
          "indexed": false,
          "internalType": "uint256",
          "name": "dxblAmount",
          "type": "uint256"
        },
        {
          "indexed": false,
          "internalType": "address",
          "name": "rewardToken",
          "type": "address"
        },
        {
          "indexed": false,
          "internalType": "uint256",
          "name": "rewardAmount",
          "type": "uint256"
        }
      ],
      "name": "DXBLRedeemed",
      "type": "event"
    },
    {
      "anonymous": false,
      "inputs": [
        {
          "indexed": true,
          "internalType": "address",
          "name": "newVault",
          "type": "address"
        }
      ],
      "name": "MigrationCancelled",
      "type": "event"
    },
    {
      "anonymous": false,
      "inputs": [
        {
          "indexed": true,
          "internalType": "address",
          "name": "newVault",
          "type": "address"
        },
        {
          "indexed": false,
          "internalType": "uint256",
          "name": "afterTime",
          "type": "uint256"
        }
      ],
      "name": "MigrationScheduled",
      "type": "event"
    },
    {
      "anonymous": false,
      "inputs": [],
      "name": "Paused",
      "type": "event"
    },
    {
      "anonymous": false,
      "inputs": [],
      "name": "Resumed",
      "type": "event"
    },
    {
      "anonymous": false,
      "inputs": [
        {
          "indexed": true,
          "internalType": "address",
          "name": "newVault",
          "type": "address"
        }
      ],
      "name": "VaultMigrated",
      "type": "event"
    },
    {
      "inputs": [],
      "name": "adminMultiSig",
      "outputs": [
        {
          "internalType": "address",
          "name": "",
          "type": "address"
        }
      ],
      "stateMutability": "view",
      "type": "function"
    },
    {
      "inputs": [],
      "name": "assets",
      "outputs": [
        {
          "components": [
            {
              "internalType": "address",
              "name": "token",
              "type": "address"
            },
            {
              "internalType": "uint256",
              "name": "balance",
              "type": "uint256"
            },
            {
              "internalType": "uint256",
              "name": "usdValue",
              "type": "uint256"
            },
            {
              "internalType": "uint256",
              "name": "usdPrice",
              "type": "uint256"
            }
          ],
          "internalType": "struct IComputationalView.AssetInfo[]",
          "name": "tokens",
          "type": "tuple[]"
        }
      ],
      "stateMutability": "view",
      "type": "function"
    },
    {
      "inputs": [],
      "name": "aumUSD",
      "outputs": [
        {
          "internalType": "uint256",
          "name": "usd",
          "type": "uint256"
        }
      ],
      "stateMutability": "view",
      "type": "function"
    },
    {
      "inputs": [],
      "name": "baseMintThreshold",
      "outputs": [
        {
          "internalType": "uint256",
          "name": "",
          "type": "uint256"
        }
      ],
      "stateMutability": "view",
      "type": "function"
    },
    {
      "inputs": [],
      "name": "canMigrate",
      "outputs": [
        {
          "internalType": "bool",
          "name": "",
          "type": "bool"
        }
      ],
      "stateMutability": "view",
      "type": "function"
    },
    {
      "inputs": [],
      "name": "cancelMigration",
      "outputs": [],
      "stateMutability": "nonpayable",
      "type": "function"
    },
    {
      "inputs": [
        {
          "internalType": "address",
          "name": "feeToken",
          "type": "address"
        },
        {
          "internalType": "uint256",
          "name": "amount",
          "type": "uint256"
        }
      ],
      "name": "computeVolumeUSD",
      "outputs": [
        {
          "internalType": "uint256",
          "name": "volumeUSD",
          "type": "uint256"
        }
      ],
      "stateMutability": "view",
      "type": "function"
    },
    {
      "inputs": [
        {
          "internalType": "address",
          "name": "dexible",
          "type": "address"
        },
        {
          "internalType": "address",
          "name": "token",
          "type": "address"
        }
      ],
      "name": "configureContracts",
      "outputs": [],
      "stateMutability": "nonpayable",
      "type": "function"
    },
    {
      "inputs": [
        {
          "internalType": "address",
          "name": "feeToken",
          "type": "address"
        },
        {
          "internalType": "uint256",
          "name": "gasCost",
          "type": "uint256"
        }
      ],
      "name": "convertGasToFeeToken",
      "outputs": [
        {
          "internalType": "uint256",
          "name": "",
          "type": "uint256"
        }
      ],
      "stateMutability": "view",
      "type": "function"
    },
    {
      "inputs": [],
      "name": "currentMintRateUSD",
      "outputs": [
        {
          "internalType": "uint256",
          "name": "rate",
          "type": "uint256"
        }
      ],
      "stateMutability": "view",
      "type": "function"
    },
    {
      "inputs": [],
      "name": "currentNavUSD",
      "outputs": [
        {
          "internalType": "uint256",
          "name": "nav",
          "type": "uint256"
        }
      ],
      "stateMutability": "view",
      "type": "function"
    },
    {
      "inputs": [],
      "name": "dailyVolumeUSD",
      "outputs": [
        {
          "internalType": "uint256",
          "name": "",
          "type": "uint256"
        }
      ],
      "stateMutability": "view",
      "type": "function"
    },
    {
      "inputs": [],
      "name": "dexibleContract",
      "outputs": [
        {
          "internalType": "address",
          "name": "",
          "type": "address"
        }
      ],
      "stateMutability": "view",
      "type": "function"
    },
    {
      "inputs": [],
      "name": "discountBps",
      "outputs": [
        {
          "internalType": "uint32",
          "name": "",
          "type": "uint32"
        }
      ],
      "stateMutability": "view",
      "type": "function"
    },
    {
      "inputs": [],
      "name": "dxblToken",
      "outputs": [
        {
          "internalType": "address",
          "name": "",
          "type": "address"
        }
      ],
      "stateMutability": "view",
      "type": "function"
    },
    {
      "inputs": [
        {
          "internalType": "address",
          "name": "rewardToken",
          "type": "address"
        },
        {
          "internalType": "uint256",
          "name": "dxblAmount",
          "type": "uint256"
        }
      ],
      "name": "estimateRedemption",
      "outputs": [
        {
          "internalType": "uint256",
          "name": "",
          "type": "uint256"
        }
      ],
      "stateMutability": "view",
      "type": "function"
    },
    {
      "inputs": [
        {
          "internalType": "address",
          "name": "feeToken",
          "type": "address"
        }
      ],
      "name": "feeTokenPriceUSD",
      "outputs": [
        {
          "internalType": "uint256",
          "name": "",
          "type": "uint256"
        }
      ],
      "stateMutability": "view",
      "type": "function"
    },
    {
      "inputs": [
        {
          "internalType": "address",
          "name": "token",
          "type": "address"
        }
      ],
      "name": "isFeeTokenAllowed",
      "outputs": [
        {
          "internalType": "bool",
          "name": "",
          "type": "bool"
        }
      ],
      "stateMutability": "view",
      "type": "function"
    },
    {
      "inputs": [],
      "name": "migrateV1",
      "outputs": [],
      "stateMutability": "nonpayable",
      "type": "function"
    },
    {
      "inputs": [],
      "name": "pause",
      "outputs": [],
      "stateMutability": "nonpayable",
      "type": "function"
    },
    {
      "inputs": [],
      "name": "paused",
      "outputs": [
        {
          "internalType": "bool",
          "name": "",
          "type": "bool"
        }
      ],
      "stateMutability": "view",
      "type": "function"
    },
    {
      "inputs": [
        {
          "internalType": "address",
          "name": "rewardToken",
          "type": "address"
        },
        {
          "internalType": "uint256",
          "name": "dxblAmount",
          "type": "uint256"
        },
        {
          "internalType": "uint256",
          "name": "minOutAmount",
          "type": "uint256"
        },
        {
          "internalType": "bool",
          "name": "unwrapNative",
          "type": "bool"
        }
      ],
      "name": "redeemDXBL",
      "outputs": [],
      "stateMutability": "nonpayable",
      "type": "function"
    },
    {
      "inputs": [],
      "name": "resume",
      "outputs": [],
      "stateMutability": "nonpayable",
      "type": "function"
    },
    {
      "inputs": [
        {
          "internalType": "address",
          "name": "trader",
          "type": "address"
        },
        {
          "internalType": "address",
          "name": "feeToken",
          "type": "address"
        },
        {
          "internalType": "uint256",
          "name": "amount",
          "type": "uint256"
        }
      ],
      "name": "rewardTrader",
      "outputs": [],
      "stateMutability": "nonpayable",
      "type": "function"
    },
    {
      "inputs": [
        {
          "internalType": "contract V1MigrationTarget",
          "name": "newVault",
          "type": "address"
        }
      ],
      "name": "scheduleMigration",
      "outputs": [],
      "stateMutability": "nonpayable",
      "type": "function"
    },
    {
      "inputs": [],
      "name": "timelockSeconds",
      "outputs": [
        {
          "internalType": "uint32",
          "name": "",
          "type": "uint32"
        }
      ],
      "stateMutability": "view",
      "type": "function"
    },
    {
      "inputs": [],
      "name": "wrappedNativeToken",
      "outputs": [
        {
          "internalType": "address",
          "name": "",
          "type": "address"
        }
      ],
      "stateMutability": "view",
      "type": "function"
    },
    {
      "stateMutability": "payable",
      "type": "receive"
    }
  ],
  "bytecode": "0x60806040523480156200001157600080fd5b50604051620034f9380380620034f9833981016040819052620000349162000aea565b60006200004b6200029f60201b620004ed1760201c565b805490915061010090046001600160a01b031615620000da57805461010090046001600160a01b03163314620000d45760405162461bcd60e51b8152602060048201526024808201527f556e617574686f72697a656420746f206368616e676520636f6e6669677572616044820152633a34b7b760e11b60648201526084015b60405180910390fd5b620000e6565b805460ff191660011781555b6000826060015111620001475760405162461bcd60e51b815260206004820152602260248201527f4d7573742070726f7669646520612062617365206d696e74207468726573686f6044820152611b1960f21b6064820152608401620000cb565b81516001600160a01b0316620001a05760405162461bcd60e51b815260206004820152601c60248201527f496e76616c69642077726170706564206e617469766520746f6b656e000000006044820152606401620000cb565b6000826040015163ffffffff1611620001fc5760405162461bcd60e51b815260206004820152601760248201527f496e76616c69642074696d656c6f636b20706572696f640000000000000000006044820152606401620000cb565b60208201518154610100600160a81b0319166101006001600160a01b03928316021782556060830151600583015582516003830180546001600160a01b03191691909216179055604082015160048201805463ffffffff60a01b1916600160a01b63ffffffff90931692909202919091179055608082015162000281908290620002c3565b62000297818360a00151620004fb60201b60201c565b505062000c32565b7fbfa76ec2967ed7f8d3d40cd552f1451ab03573b596bfce931a6a016f7733078c90565b600d82015415620003175760405162461bcd60e51b815260206004820152601f60248201527f416c726561647920696e697469616c697a656420726174652072616e676573006044820152606401620000cb565b60005b8151811015620004815760008282815181106200033b576200033b62000bc8565b602002602001015190506000816020015161ffff16116200039f5760405162461bcd60e51b815260206004820152601960248201527f4d6178204d4d20566f6c756d65206d757374206265203e2030000000000000006044820152606401620000cb565b6000816040015111620003e85760405162461bcd60e51b815260206004820152601060248201526f052617465206d757374206265203e20360841b6044820152606401620000cb565b60408051608081018252825161ffff908116825260208085015182168184019081529484015193830193845260608301868152600d890180546001818101835560009283529390912094516003909102909401805496518416620100000263ffffffff1990971694909316939093179490941781559151928201929092559051600290910155620004798162000bde565b90506200031a565b5081600d016000815481106200049b576200049b62000bc8565b600091825260209091206003909102018054600a8401805461ffff92831661ffff19821681178355845463ffffffff19909216176201000091829004909316029190911790556001810154600b84015560020154600c9092019190915550565b80515115801590620005135750602081015151815151145b620005875760405162461bcd60e51b815260206004820152603f60248201527f4d7573742070726f7669646520657175616c2d6c656e6774682061727261797360448201527f20666f722066656520746f6b656e7320616e64207072696365206665656473006064820152608401620000cb565b60005b8151518110156200079457600082600001518281518110620005b057620005b062000bc8565b60200260200101519050600083602001518381518110620005d557620005d562000bc8565b6020908102919091018101516009870180546001810182556000918252908390200180546001600160a01b0319166001600160a01b0386169081179091556040805163313ce56760e01b81529051929450909263313ce567926004808401938290030181865afa1580156200064e573d6000803e3d6000fd5b505050506040513d601f19601f8201168201806040525081019062000674919062000c06565b856026016000846001600160a01b03166001600160a01b0316815260200190815260200160002060006101000a81548160ff021916908360ff1602179055506040518060400160405280826001600160a01b03168152602001826001600160a01b031663313ce5676040518163ffffffff1660e01b8152600401602060405180830381865afa1580156200070c573d6000803e3d6000fd5b505050506040513d601f19601f8201168201806040525081019062000732919062000c06565b60ff9081169091526001600160a01b0393841660009081526027880160209081526040909120835181549490920151909216600160a01b026001600160a81b031990931694169390931717909155506200078c8162000bde565b90506200058a565b5060038201546001600160a01b03166000908152602783016020526040902054600160a01b900460ff16620008235760405162461bcd60e51b815260206004820152602e60248201527f57726170706564206e6174697665206173736574206d7573742062652061207660448201526d30b634b2103332b2903a37b5b2b760911b6064820152608401620000cb565b5050565b634e487b7160e01b600052604160045260246000fd5b604051606081016001600160401b038111828210171562000862576200086262000827565b60405290565b60405160c081016001600160401b038111828210171562000862576200086262000827565b604051601f8201601f191681016001600160401b0381118282101715620008b857620008b862000827565b604052919050565b80516001600160a01b0381168114620008d857600080fd5b919050565b805163ffffffff81168114620008d857600080fd5b60006001600160401b038211156200090e576200090e62000827565b5060051b60200190565b805161ffff81168114620008d857600080fd5b600082601f8301126200093d57600080fd5b81516020620009566200095083620008f2565b6200088d565b828152606092830285018201928282019190878511156200097657600080fd5b8387015b85811015620009d45781818a031215620009945760008081fd5b6200099e6200083d565b620009a98262000918565b8152620009b886830162000918565b818701526040828101519082015284529284019281016200097a565b5090979650505050505050565b600082601f830112620009f357600080fd5b8151602062000a066200095083620008f2565b82815260059290921b8401810191818101908684111562000a2657600080fd5b8286015b8481101562000a4c5762000a3e81620008c0565b835291830191830162000a2a565b509695505050505050565b60006040828403121562000a6a57600080fd5b604080519081016001600160401b03808211838310171562000a905762000a9062000827565b81604052829350845191508082111562000aa957600080fd5b62000ab786838701620009e1565b8352602085015191508082111562000ace57600080fd5b5062000add85828601620009e1565b6020830152505092915050565b60006020828403121562000afd57600080fd5b81516001600160401b038082111562000b1557600080fd5b9083019060c0828603121562000b2a57600080fd5b62000b3462000868565b62000b3f83620008c0565b815262000b4f60208401620008c0565b602082015262000b6260408401620008dd565b60408201526060830151606082015260808301518281111562000b8457600080fd5b62000b92878286016200092b565b60808301525060a08301518281111562000bab57600080fd5b62000bb98782860162000a57565b60a08301525095945050505050565b634e487b7160e01b600052603260045260246000fd5b60006001820162000bff57634e487b7160e01b600052601160045260246000fd5b5060010190565b60006020828403121562000c1957600080fd5b815160ff8116811462000c2b57600080fd5b9392505050565b6128b78062000c426000396000f3fe6080604052600436106101705760003560e01c80635d204718116100cc5780638456cb591161007a5780638456cb5914610439578063ab1094c01461044e578063b2eafb551461046e578063ce25cb4d14610483578063dd81eb98146104a3578063df2fb8d6146104b8578063f7406fc3146104cd57600080fd5b80635d2047181461036e5780635de118901461038e57806365a1f3c3146103a35780636c1f5633146103cd57806371a97305146103e25780637262f55714610404578063821314701461042457600080fd5b8063288cbb5d11610129578063288cbb5d146102ba57806331e1a9c6146102da5780633931f45d146102fa57806341b5774a1461031a57806345c6a8741461032f57806356168843146103445780635c975abb1461035957600080fd5b8063046f7da2146101fd57806310639ea01461021257806317fcb39b1461022757806319ed21bd146102525780631dfc2ecf1461027757806320529bb11461029757600080fd5b366101f85761017d6104ed565b600301546001600160a01b031633146101f65760405162461bcd60e51b815260206004820152603060248201527f43616e6e6f7420726563656976652066756e64732065786365707420666f722060448201526f6e61746976652077697468647261777360801b60648201526084015b60405180910390fd5b005b600080fd5b34801561020957600080fd5b506101f6610511565b34801561021e57600080fd5b506101f6610562565b34801561023357600080fd5b5061023c6105fe565b60405161024991906122ba565b60405180910390f35b34801561025e57600080fd5b5061026761061a565b6040519015158152602001610249565b34801561028357600080fd5b506101f66102923660046122e3565b61065d565b3480156102a357600080fd5b506102ac610721565b604051908152602001610249565b3480156102c657600080fd5b506101f66102d5366004612300565b61081d565b3480156102e657600080fd5b506101f66102f5366004612347565b6108b9565b34801561030657600080fd5b506102ac610315366004612391565b610be0565b34801561032657600080fd5b506102ac610d38565b34801561033b57600080fd5b5061023c610db3565b34801561035057600080fd5b506102ac610dd1565b34801561036557600080fd5b50610267610de4565b34801561037a57600080fd5b506102676103893660046122e3565b610df7565b34801561039a57600080fd5b506102ac610e2a565b3480156103af57600080fd5b506103b8610ef7565b60405163ffffffff9091168152602001610249565b3480156103d957600080fd5b506103b8610f17565b3480156103ee57600080fd5b506103f7610f9e565b60405161024991906123bd565b34801561041057600080fd5b506102ac61041f366004612391565b611192565b34801561043057600080fd5b506102ac611235565b34801561044557600080fd5b506101f6611248565b34801561045a57600080fd5b506101f661046936600461242a565b61129c565b34801561047a57600080fd5b5061023c611497565b34801561048f57600080fd5b506102ac61049e3660046122e3565b6114b3565b3480156104af57600080fd5b5061023c61150d565b3480156104c457600080fd5b506101f6611529565b3480156104d957600080fd5b506102ac6104e8366004612391565b61193b565b7fbfa76ec2967ed7f8d3d40cd552f1451ab03573b596bfce931a6a016f7733078c90565b600061051b6104ed565b805490915061010090046001600160a01b0316331461054c5760405162461bcd60e51b81526004016101ed9061246b565b60006105566104ed565b805460ff191690555050565b600061056c6104ed565b805490915061010090046001600160a01b0316331461059d5760405162461bcd60e51b81526004016101ed9061246b565b60006105a76104ed565b6000600882018190556004820180546001600160a01b031981169091556040519293506001600160a01b03169182917f7c7cf105c6d2d5b006d910653c90e1ddef1597f52e08f86f4a8aad4e5bdf255e91a2505050565b60006106086104ed565b600301546001600160a01b0316919050565b6000806106256104ed565b60048101549091506001600160a01b031615801590610648575060008160080154115b80156106575750428160080154105b91505090565b60006106676104ed565b805490915061010090046001600160a01b031633146106985760405162461bcd60e51b81526004016101ed9061246b565b60006106a26104ed565b60048101549091506106c190600160a01b900463ffffffff16426124a7565b600882018190556004820180546001600160a01b0319166001600160a01b038616908117909155604051918252907ffbf126b8a95ec693e692437a9297a98deec1cfb822b8c650b7d346461efdb2ad9060200160405180910390a2505050565b60008061072c6104ed565b905060008160090180548060200260200160405190810160405280929190818152602001828054801561078857602002820191906000526020600020905b81546001600160a01b0316815260019091019060200180831161076a575b5050505050905060005b81518110156108175760008282815181106107af576107af6124ba565b6020908102919091018101516001600160a01b03811660009081526027870190925260408220909250906107e282611988565b905060006107f38785846000611afa565b50905061080081896124a7565b97505050505080610810906124d0565b9050610792565b50505090565b60006108276104ed565b60018101549091506001600160a01b0316610866576001810180546001600160a01b0319166001600160a01b038416179055805460ff19168155610894565b805461010090046001600160a01b031633146108945760405162461bcd60e51b81526004016101ed9061246b565b60020180546001600160a01b0319166001600160a01b03939093169290921790915550565b60006108c36104ed565b905060006108d18686611192565b90506000866001600160a01b03166370a08231306040518263ffffffff1660e01b815260040161090191906122ba565b602060405180830381865afa15801561091e573d6000803e3d6000fd5b505050506040513d601f19601f8201168201806040525081019061094291906124e9565b9050808211156109c95784811061095b578091506109c9565b60405162461bcd60e51b815260206004820152603e60248201527f496e73756666696369656e742061737365742062616c616e636520746f20707260448201527f6f6475636520657870656374656420776974686472617720616d6f756e74000060648201526084016101ed565b6001830154604051632770a7eb60e21b81526001600160a01b0390911690639dc29fac906109fd9033908a90600401612502565b600060405180830381600087803b158015610a1757600080fd5b505af1158015610a2b573d6000803e3d6000fd5b505060408051338152602081018a90526001600160a01b038b16818301526060810186905290517f5fe85dc899e158274a44abab0e6df5434416f0ce11df30d42e02f229b8fc8a419350908190036080019150a1838015610a9b575060038301546001600160a01b038881169116145b15610b62576003830154604051632e1a7d4d60e01b8152600481018490526001600160a01b0390911690632e1a7d4d90602401600060405180830381600087803b158015610ae857600080fd5b505af1158015610afc573d6000803e3d6000fd5b505060405133925082915084156108fc029085906000818181858888f19350505050610b5c5760405162461bcd60e51b815260206004820152600f60248201526e151c985b9cd9995c8819985a5b1959608a1b60448201526064016101ed565b50610b76565b610b766001600160a01b0388163384611be5565b610b7e61061a565b15610bd757306001600160a01b031663df2fb8d66040518163ffffffff1660e01b8152600401600060405180830381600087803b158015610bbe57600080fd5b505af1158015610bd2573d6000803e3d6000fd5b505050505b50505050505050565b600080610beb6104ed565b6001600160a01b03858116600090815260278301602052604090205491925016610c275760405162461bcd60e51b81526004016101ed9061251b565b60038101546001600160a01b0390811690851603610c485782915050610d32565b60038101546001600160a01b031660009081526027820160205260408120610c6f90611988565b6001600160a01b0386166000908152602784016020526040812091925090610c9690611988565b9050600081610cb168327cb2734119d3b7a9601e1b8561254a565b610cbb9190612577565b9050600068327cb2734119d3b7a9601e1b610cd6888461254a565b610ce09190612577565b6001600160a01b0389166000908152602687016020526040902054909150670de0b6b3a764000090610d169060ff16600a61266f565b610d20908361254a565b610d2a9190612577565b955050505050505b92915050565b600080610d436104ed565b9050600064e8d4a510008260060154610d5c9190612577565b905060008161ffff1683600a0160010154610d77919061254a565b9050670de0b6b3a7640000818460050154610d92919061254a565b610d9c9190612577565b8360050154610dab91906124a7565b935050505090565b6000610dbd6104ed565b5461010090046001600160a01b0316919050565b6000610ddb6104ed565b60050154905090565b6000610dee6104ed565b5460ff16919050565b600080610e026104ed565b6001600160a01b03938416600090815260279091016020526040902054909216151592915050565b600080610e356104ed565b905060008160010160009054906101000a90046001600160a01b03166001600160a01b03166318160ddd6040518163ffffffff1660e01b8152600401602060405180830381865afa158015610e8e573d6000803e3d6000fd5b505050506040513d601f19601f82011682018060405250810190610eb291906124e9565b90506000610ebe610721565b9050811580610ecb575080155b15610eda576000935050505090565b81610eed82670de0b6b3a764000061254a565b610dab9190612577565b6000610f016104ed565b60040154600160a01b900463ffffffff16919050565b6000610f216104ed565b60010160009054906101000a90046001600160a01b03166001600160a01b031663566826d16040518163ffffffff1660e01b8152600401602060405180830381865afa158015610f75573d6000803e3d6000fd5b505050506040513d601f19601f82011682018060405250810190610f99919061267e565b905090565b60606000610faa6104ed565b600981015490915067ffffffffffffffff811115610fca57610fca6126a4565b60405190808252806020026020018201604052801561102f57816020015b61101c604051806080016040528060006001600160a01b031681526020016000815260200160008152602001600081525090565b815260200190600190039081610fe85790505b5091506000808260090180548060200260200160405190810160405280929190818152602001828054801561108d57602002820191906000526020600020905b81546001600160a01b0316815260019091019060200180831161106f575b5050505050905060005b815181101561118b5760008282815181106110b4576110b46124ba565b6020908102919091018101516001600160a01b03811660009081526027880190925260408220909250906110e782611988565b90506000806110f98986856000611afa565b915091506040518060800160405280866001600160a01b0316815260200182815260200183815260200168327cb2734119d3b7a9601e1b620f42408661113f919061254a565b6111499190612577565b8152508a898151811061115e5761115e6124ba565b602002602001018190525087611173906124d0565b9750505050505080611184906124d0565b9050611097565b5050505090565b60008061119d6104ed565b905060006111a9610e2a565b9050620f42406111c568327cb2734119d3b7a9601e1b8361254a565b6111cf9190612577565b905060006111dc866114b3565b6001600160a01b038716600090815260268501602052604081205491925060ff909116908261120c83600a61266f565b611216908661254a565b6112209190612577565b9050670de0b6b3a7640000610d20828961254a565b600061123f6104ed565b60060154905090565b60006112526104ed565b805490915061010090046001600160a01b031633146112835760405162461bcd60e51b81526004016101ed9061246b565b600061128d6104ed565b805460ff191660011790555050565b60006112a66104ed565b60028101549091506001600160a01b031633146112d55760405162461bcd60e51b81526004016101ed9061246b565b60405163f7406fc360e01b8152600090309063f7406fc3906112fd9087908790600401612502565b602060405180830381865afa15801561131a573d6000803e3d6000fd5b505050506040513d601f19601f8201168201806040525081019061133e91906124e9565b905061134981611c40565b6000306001600160a01b03166341b5774a6040518163ffffffff1660e01b8152600401602060405180830381865afa158015611389573d6000803e3d6000fd5b505050506040513d601f19601f820116820180604052508101906113ad91906124e9565b90506000816113c484670de0b6b3a764000061254a565b6113ce9190612577565b60018501546040516340c10f1960e01b81529192506001600160a01b0316906340c10f1990611403908a908590600401612502565b600060405180830381600087803b15801561141d57600080fd5b505af1158015611431573d6000803e3d6000fd5b50505050306001600160a01b03166319ed21bd6040518163ffffffff1660e01b8152600401602060405180830381865afa158015611473573d6000803e3d6000fd5b505050506040513d601f19601f82011682018060405250810190610b7e91906126ba565b60006114a16104ed565b600201546001600160a01b0316919050565b6000806114be6104ed565b6001600160a01b0380851660009081526027830160205260409020805492935091166114fc5760405162461bcd60e51b81526004016101ed9061251b565b61150581611988565b949350505050565b60006115176104ed565b600101546001600160a01b0316919050565b306001600160a01b03166319ed21bd6040518163ffffffff1660e01b8152600401602060405180830381865afa158015611567573d6000803e3d6000fd5b505050506040513d601f19601f8201168201806040525081019061158b91906126ba565b6115cc5760405162461bcd60e51b815260206004820152601260248201527110d85b9b9bdd081b5a59dc985d19481e595d60721b60448201526064016101ed565b60006115d66104ed565b6004810154815460ff191660011782559091506001600160a01b03166009820160005b815481101561173b576000828281548110611616576116166124ba565b6000918252602090912001546040516370a0823160e01b81526001600160a01b03909116906370a082319061164f9030906004016122ba565b602060405180830381865afa15801561166c573d6000803e3d6000fd5b505050506040513d601f19601f8201168201806040525081019061169091906124e9565b9050801561172a578282815481106116aa576116aa6124ba565b60009182526020909120015460405163a9059cbb60e01b81526001600160a01b039091169063a9059cbb906116e59087908590600401612502565b6020604051808303816000875af1158015611704573d6000803e3d6000fd5b505050506040513d601f19601f8201168201806040525081019061172891906126ba565b505b50611734816124d0565b90506115f9565b5060018301546040516348af6b1560e01b81526001600160a01b03909116906348af6b159061176e9085906004016122ba565b600060405180830381600087803b15801561178857600080fd5b505af115801561179c573d6000803e3d6000fd5b505050600284015460405163d8544cf360e01b81526001600160a01b03909116915063d8544cf3906117d29085906004016122ba565b600060405180830381600087803b1580156117ec57600080fd5b505af1158015611800573d6000803e3d6000fd5b505060408051608081018252600687015481526007870154602082015281516103008101808452600095509193509183019190600e88019060189082845b81548152602001906001019080831161183e57505050918352505060408051608081018252600a88015461ffff80821683526201000090910416602082810191909152600b89015482840152600c89015460608301529092019190915251632c326f2760e11b81529091506001600160a01b03841690635864de4e906118c89084906004016126d7565b600060405180830381600087803b1580156118e257600080fd5b505af11580156118f6573d6000803e3d6000fd5b50506040516001600160a01b03861692507ffce0ac0494aee28941f2c55af2e1b069a1c8c96bce836f3fd7d9404ed662a9dc9150600090a2826001600160a01b038116ff5b6000806119466104ed565b6001600160a01b0385166000908152602782016020526040812091925061196c82611988565b9050600061197c84888489611afa565b50979650505050505050565b60008060008360000160009054906101000a90046001600160a01b03166001600160a01b031663feaf968c6040518163ffffffff1660e01b815260040160a060405180830381865afa1580156119e2573d6000803e3d6000fd5b505050506040513d601f19601f82011682018060405250810190611a069190612770565b5093505092505060008213611a575760405162461bcd60e51b81526020600482015260176024820152764e6f207072696365206461746120617661696c61626c6560481b60448201526064016101ed565b6000611a676201518060026127c0565b611a769062ffffff16426127e7565b9050808211611aba5760405162461bcd60e51b815260206004820152601060248201526f5374616c65207072696365206461746160801b60448201526064016101ed565b8454611ad190600160a01b900460ff16600a61266f565b611ae768327cb2734119d3b7a9601e1b8561254a565b611af19190612577565b95945050505050565b600081808203611b74576040516370a0823160e01b81526001600160a01b038616906370a0823190611b309030906004016122ba565b602060405180830381865afa158015611b4d573d6000803e3d6000fd5b505050506040513d601f19601f82011682018060405250810190611b7191906124e9565b90505b620f4240611b82858361254a565b611b8c919061254a565b6001600160a01b038616600090815260268801602052604090205490925068327cb2734119d3b7a9601e1b90611bc69060ff16600a61266f565b611bd0919061254a565b611bda9083612577565b915094509492505050565b611c3b8363a9059cbb60e01b8484604051602401611c04929190612502565b60408051601f198184030181529190526020810180516001600160e01b03166001600160e01b031990931692909217909152611d61565b505050565b6000611c4a6104ed565b60078101805442909155909150828115801590611c735750611c6f62015180426127e7565b8211155b15611c8b57611c86600e8401600061228f565b611d3c565b6000610e10611c9d62015180426127fa565b611ca79190612577565b90506000601860018301069050600085600e018260188110611ccb57611ccb6124ba565b01549050600086600e018360188110611ce657611ce66124ba565b015586600e87018460188110611cfe57611cfe6124ba565b016000828254611d0e91906124a7565b90915550506006860154611d239088906124a7565b93508015611d3857611d3581856127e7565b93505b5050505b60068301819055611d5b83611d5664e8d4a5100084612577565b611e33565b50505050565b6000611db6826040518060400160405280602081526020017f5361666545524332303a206c6f772d6c6576656c2063616c6c206661696c6564815250856001600160a01b0316611e9d9092919063ffffffff16565b805190915015611c3b5780806020019051810190611dd491906126ba565b611c3b5760405162461bcd60e51b815260206004820152602a60248201527f5361666545524332303a204552433230206f7065726174696f6e20646964206e6044820152691bdd081cdd58d8d9595960b21b60648201526084016101ed565b60408051608081018252600a84015461ffff808216835262010000909104811660208301819052600b86015493830193909352600c8501546060830152909190831610611e8457611c3b8383611eac565b805161ffff808416911610611c3b57611c3b8383611fd2565b606061150584846000856120e6565b60408051608081018252600a84015461ffff808216835262010000909104166020820152600b84015491810191909152600c83015460608201525b611ef181836121c1565b611f7d57600083600d0182606001516001611f0c91906124a7565b81548110611f1c57611f1c6124ba565b906000526020600020906003020190508060010154600003611f3e5750611f7d565b60408051608081018252825461ffff80821683526201000090910416602082015260018301549181019190915260029091015460608201529050611ee7565b6040810151600b84015414611c3b578051600a84018054602084015161ffff908116620100000263ffffffff199092169316929092179190911790556040810151600b8401556060810151600c840155505050565b60408051608081018252600a84015461ffff808216835262010000909104166020820152600b84015491810191909152600c83015460608201525b61201781836121c1565b61209f5760608101511561209f57600083600d016001836060015161203c91906127e7565b8154811061204c5761204c6124ba565b6000918252602091829020604080516080810182526003909302909101805461ffff80821685526201000090910416938301939093526001830154908201526002909101546060820152915061200d9050565b8051600a84018054602084015161ffff908116620100000263ffffffff199092169316929092179190911790556040810151600b84015560600151600c9092019190915550565b6060824710156121475760405162461bcd60e51b815260206004820152602660248201527f416464726573733a20696e73756666696369656e742062616c616e636520666f6044820152651c8818d85b1b60d21b60648201526084016101ed565b600080866001600160a01b031685876040516121639190612832565b60006040518083038185875af1925050503d80600081146121a0576040519150601f19603f3d011682016040523d82523d6000602084013e6121a5565b606091505b50915091506121b6878383876121f1565b979650505050505050565b60008161ffff16836000015161ffff16111580156121ea5750826020015161ffff168261ffff16105b9392505050565b60608315612260578251600003612259576001600160a01b0385163b6122595760405162461bcd60e51b815260206004820152601d60248201527f416464726573733a2063616c6c20746f206e6f6e2d636f6e747261637400000060448201526064016101ed565b5081611505565b61150583838151156122755781518083602001fd5b8060405162461bcd60e51b81526004016101ed919061284e565b5061229e9060188101906122a1565b50565b5b808211156122b657600081556001016122a2565b5090565b6001600160a01b0391909116815260200190565b6001600160a01b038116811461229e57600080fd5b6000602082840312156122f557600080fd5b81356121ea816122ce565b6000806040838503121561231357600080fd5b823561231e816122ce565b9150602083013561232e816122ce565b809150509250929050565b801515811461229e57600080fd5b6000806000806080858703121561235d57600080fd5b8435612368816122ce565b93506020850135925060408501359150606085013561238681612339565b939692955090935050565b600080604083850312156123a457600080fd5b82356123af816122ce565b946020939093013593505050565b602080825282518282018190526000919060409081850190868401855b8281101561241d57815180516001600160a01b031685528681015187860152858101518686015260609081015190850152608090930192908501906001016123da565b5091979650505050505050565b60008060006060848603121561243f57600080fd5b833561244a816122ce565b9250602084013561245a816122ce565b929592945050506040919091013590565b6020808252600c908201526b155b985d5d1a1bdc9a5e995960a21b604082015260600190565b634e487b7160e01b600052601160045260246000fd5b80820180821115610d3257610d32612491565b634e487b7160e01b600052603260045260246000fd5b6000600182016124e2576124e2612491565b5060010190565b6000602082840312156124fb57600080fd5b5051919050565b6001600160a01b03929092168252602082015260400190565b6020808252601590820152742ab739bab83837b93a32b2103332b2903a37b5b2b760591b604082015260600190565b8082028115828204841417610d3257610d32612491565b634e487b7160e01b600052601260045260246000fd5b60008261258657612586612561565b500490565b600181815b808511156125c65781600019048211156125ac576125ac612491565b808516156125b957918102915b93841c9390800290612590565b509250929050565b6000826125dd57506001610d32565b816125ea57506000610d32565b8160018114612600576002811461260a57612626565b6001915050610d32565b60ff84111561261b5761261b612491565b50506001821b610d32565b5060208310610133831016604e8410600b8410161715612649575081810a610d32565b612653838361258b565b806000190482111561266757612667612491565b029392505050565b60006121ea60ff8416836125ce565b60006020828403121561269057600080fd5b815163ffffffff811681146121ea57600080fd5b634e487b7160e01b600052604160045260246000fd5b6000602082840312156126cc57600080fd5b81516121ea81612339565b81518152602080830151818301526040808401516103c084019291840160005b6018811015612714578251825291830191908301906001016126f7565b505050606093840151805161ffff908116610340860152918101519091166103608401526040810151610380840152909201516103a09091015290565b805169ffffffffffffffffffff8116811461276b57600080fd5b919050565b600080600080600060a0868803121561278857600080fd5b61279186612751565b94506020860151935060408601519250606086015191506127b460808701612751565b90509295509295909350565b62ffffff8181168382160280821691908281146127df576127df612491565b505092915050565b81810381811115610d3257610d32612491565b60008261280957612809612561565b500690565b60005b83811015612829578181015183820152602001612811565b50506000910152565b6000825161284481846020870161280e565b9190910192915050565b602081526000825180602084015261286d81604085016020870161280e565b601f01601f1916919091016040019291505056fea2646970667358221220b2fff4007a95489bad5edd4ed07d9e87ed0e54173a3c10bc7f5280ff9595ec9d64736f6c63430008110033",
  "linkReferences": {},
  "deployedLinkReferences": {}
}