{
  "_format": "hh-sol-artifact-1",
  "contractName": "ArbitrumGasOracle",
  "sourceName": "contracts/dexible/oracles/ArbitrumGasOracle.sol",
  "abi": [
    {
      "inputs": [
        {
          "internalType": "address",
          "name": "multiSig",
          "type": "address"
        },
        {
          "internalType": "uint256",
          "name": "m",
          "type": "uint256"
        }
      ],
      "stateMutability": "nonpayable",
      "type": "constructor"
    },
    {
      "anonymous": false,
      "inputs": [
        {
          "indexed": false,
          "internalType": "uint256",
          "name": "multiplier",
          "type": "uint256"
        }
      ],
      "name": "MultiplierChanged",
      "type": "event"
    },
    {
      "inputs": [
        {
          "internalType": "uint256",
          "name": "callDataSize",
          "type": "uint256"
        },
        {
          "internalType": "uint256",
          "name": "l2GasUsed",
          "type": "uint256"
        }
      ],
      "name": "calculateGasCost",
      "outputs": [
        {
          "internalType": "uint256",
          "name": "",
          "type": "uint256"
        }
      ],
      "stateMutability": "view",
      "type": "function"
    },
    {
      "inputs": [
        {
          "internalType": "address",
          "name": "newMultiSig",
          "type": "address"
        }
      ],
      "name": "changeAdmin",
      "outputs": [],
      "stateMutability": "nonpayable",
      "type": "function"
    },
    {
      "inputs": [],
      "name": "multiplier",
      "outputs": [
        {
          "internalType": "uint256",
          "name": "",
          "type": "uint256"
        }
      ],
      "stateMutability": "view",
      "type": "function"
    },
    {
      "inputs": [
        {
          "internalType": "uint256",
          "name": "m",
          "type": "uint256"
        }
      ],
      "name": "setMultiplier",
      "outputs": [],
      "stateMutability": "nonpayable",
      "type": "function"
    }
  ],
  "bytecode": "0x608060405234801561001057600080fd5b5060405161042c38038061042c83398101604081905261002f91610058565b600080546001600160a01b0319166001600160a01b039390931692909217909155600155610092565b6000806040838503121561006b57600080fd5b82516001600160a01b038116811461008257600080fd5b6020939093015192949293505050565b61038b806100a16000396000f3fe608060405234801561001057600080fd5b506004361061004c5760003560e01c80631b3ed72214610051578063641579a61461006c578063852b66a5146100815780638f28397014610094575b600080fd5b61005a60015481565b60405190815260200160405180910390f35b61007f61007a366004610218565b6100a7565b005b61005a61008f366004610231565b610115565b61007f6100a2366004610253565b6101cc565b6000546001600160a01b031633146100da5760405162461bcd60e51b81526004016100d190610283565b60405180910390fd5b60018190556040518181527f0e17105029b990538e803a7a35f7c4fb0df74fcf27a15b12c46d0c6a59f827609060200160405180910390a150565b600080606c6001600160a01b03166341b247a86040518163ffffffff1660e01b815260040160c060405180830381865afa158015610157573d6000803e3d6000fd5b505050506040513d601f19601f8201168201806040525081019061017b91906102a9565b50505050915050670de0b6b3a7640000848260015461019a9190610309565b6101a49190610309565b6101ae9190610320565b6101b83a85610309565b6101c29190610342565b9150505b92915050565b6000546001600160a01b031633146101f65760405162461bcd60e51b81526004016100d190610283565b600080546001600160a01b0319166001600160a01b0392909216919091179055565b60006020828403121561022a57600080fd5b5035919050565b6000806040838503121561024457600080fd5b50508035926020909101359150565b60006020828403121561026557600080fd5b81356001600160a01b038116811461027c57600080fd5b9392505050565b6020808252600c908201526b155b985d5d1a1bdc9a5e995960a21b604082015260600190565b60008060008060008060c087890312156102c257600080fd5b865195506020870151945060408701519350606087015192506080870151915060a087015190509295509295509295565b634e487b7160e01b600052601160045260246000fd5b80820281158282048414176101c6576101c66102f3565b60008261033d57634e487b7160e01b600052601260045260246000fd5b500490565b808201808211156101c6576101c66102f356fea2646970667358221220b8cd27dfc63ba2b48816c98f2cccd4591e7f08ab83e8cf7953ffee6b8561855a64736f6c63430008110033",
  "linkReferences": {},
  "deployedLinkReferences": {}
}