{
  "_format": "hh-sol-artifact-1",
  "contractName": "Dexible",
  "sourceName": "contracts/dexible/Dexible.sol",
  "abi": [
    {
      "anonymous": false,
      "inputs": [
        {
          "indexed": true,
          "internalType": "address",
          "name": "affiliate",
          "type": "address"
        },
        {
          "indexed": false,
          "internalType": "contract IERC20",
          "name": "token",
          "type": "address"
        },
        {
          "indexed": false,
          "internalType": "uint256",
          "name": "amount",
          "type": "uint256"
        }
      ],
      "name": "AffiliatePaid",
      "type": "event"
    },
    {
      "anonymous": false,
      "inputs": [
        {
          "indexed": true,
          "internalType": "address",
          "name": "approver",
          "type": "address"
        },
        {
          "indexed": false,
          "internalType": "bytes4",
          "name": "selector",
          "type": "bytes4"
        },
        {
          "indexed": false,
          "internalType": "bytes32",
          "name": "sigHash",
          "type": "bytes32"
        },
        {
          "indexed": false,
          "internalType": "uint256",
          "name": "nonce",
          "type": "uint256"
        },
        {
          "indexed": false,
          "internalType": "uint256",
          "name": "timelockExpiration",
          "type": "uint256"
        }
      ],
      "name": "ChangeRequested",
      "type": "event"
    },
    {
      "anonymous": false,
      "inputs": [
        {
          "indexed": false,
          "internalType": "uint32",
          "name": "stdRate",
          "type": "uint32"
        },
        {
          "indexed": false,
          "internalType": "uint32",
          "name": "minRate",
          "type": "uint32"
        }
      ],
      "name": "ChangedBpsRates",
      "type": "event"
    },
    {
      "anonymous": false,
      "inputs": [
        {
          "indexed": false,
          "internalType": "uint8",
          "name": "split",
          "type": "uint8"
        }
      ],
      "name": "ChangedRevshareSplit",
      "type": "event"
    },
    {
      "anonymous": false,
      "inputs": [
        {
          "indexed": true,
          "internalType": "address",
          "name": "old",
          "type": "address"
        },
        {
          "indexed": true,
          "internalType": "address",
          "name": "newRevshare",
          "type": "address"
        }
      ],
      "name": "ChangedRevshareVault",
      "type": "event"
    },
    {
      "anonymous": false,
      "inputs": [
        {
          "indexed": true,
          "internalType": "address",
          "name": "relay",
          "type": "address"
        },
        {
          "indexed": false,
          "internalType": "uint256",
          "name": "amount",
          "type": "uint256"
        }
      ],
      "name": "InsufficientGasFunds",
      "type": "event"
    },
    {
      "anonymous": false,
      "inputs": [
        {
          "indexed": true,
          "internalType": "address",
          "name": "newLogic",
          "type": "address"
        }
      ],
      "name": "LogicUpgraded",
      "type": "event"
    },
    {
      "anonymous": false,
      "inputs": [
        {
          "indexed": true,
          "internalType": "address",
          "name": "relay",
          "type": "address"
        },
        {
          "indexed": false,
          "internalType": "uint256",
          "name": "amount",
          "type": "uint256"
        }
      ],
      "name": "PaidGasFunds",
      "type": "event"
    },
    {
      "anonymous": false,
      "inputs": [
        {
          "indexed": true,
          "internalType": "address",
          "name": "caller",
          "type": "address"
        }
      ],
      "name": "Paused",
      "type": "event"
    },
    {
      "anonymous": false,
      "inputs": [
        {
          "indexed": false,
          "internalType": "uint256",
          "name": "newReq",
          "type": "uint256"
        }
      ],
      "name": "RequiredSigChanged",
      "type": "event"
    },
    {
      "anonymous": false,
      "inputs": [
        {
          "indexed": true,
          "internalType": "address",
          "name": "approvder",
          "type": "address"
        },
        {
          "indexed": false,
          "internalType": "bytes32",
          "name": "sigHash",
          "type": "bytes32"
        }
      ],
      "name": "ResumeRequested",
      "type": "event"
    },
    {
      "anonymous": false,
      "inputs": [],
      "name": "ResumedOperations",
      "type": "event"
    },
    {
      "anonymous": false,
      "inputs": [
        {
          "indexed": true,
          "internalType": "address",
          "name": "member",
          "type": "address"
        },
        {
          "indexed": false,
          "internalType": "string",
          "name": "role",
          "type": "string"
        }
      ],
      "name": "RoleRevoked",
      "type": "event"
    },
    {
      "anonymous": false,
      "inputs": [
        {
          "indexed": true,
          "internalType": "address",
          "name": "member",
          "type": "address"
        },
        {
          "indexed": false,
          "internalType": "string",
          "name": "role",
          "type": "string"
        }
      ],
      "name": "RoleSet",
      "type": "event"
    },
    {
      "anonymous": false,
      "inputs": [
        {
          "indexed": true,
          "internalType": "address",
          "name": "signer",
          "type": "address"
        }
      ],
      "name": "SignerAdded",
      "type": "event"
    },
    {
      "anonymous": false,
      "inputs": [
        {
          "indexed": true,
          "internalType": "address",
          "name": "signer",
          "type": "address"
        }
      ],
      "name": "SignerRemoved",
      "type": "event"
    },
    {
      "anonymous": false,
      "inputs": [
        {
          "indexed": true,
          "internalType": "address",
          "name": "trader",
          "type": "address"
        },
        {
          "indexed": false,
          "internalType": "contract IERC20",
          "name": "feeToken",
          "type": "address"
        },
        {
          "indexed": false,
          "internalType": "uint256",
          "name": "gasFeePaid",
          "type": "uint256"
        }
      ],
      "name": "SwapFailed",
      "type": "event"
    },
    {
      "anonymous": false,
      "inputs": [
        {
          "indexed": true,
          "internalType": "address",
          "name": "trader",
          "type": "address"
        },
        {
          "indexed": true,
          "internalType": "address",
          "name": "affiliate",
          "type": "address"
        },
        {
          "indexed": false,
          "internalType": "uint256",
          "name": "inputAmount",
          "type": "uint256"
        },
        {
          "indexed": false,
          "internalType": "uint256",
          "name": "outputAmount",
          "type": "uint256"
        },
        {
          "indexed": false,
          "internalType": "contract IERC20",
          "name": "feeToken",
          "type": "address"
        },
        {
          "indexed": false,
          "internalType": "uint256",
          "name": "gasFee",
          "type": "uint256"
        },
        {
          "indexed": false,
          "internalType": "uint256",
          "name": "affiliateFee",
          "type": "uint256"
        },
        {
          "indexed": false,
          "internalType": "uint256",
          "name": "dexibleFee",
          "type": "uint256"
        }
      ],
      "name": "SwapSuccess",
      "type": "event"
    },
    {
      "anonymous": false,
      "inputs": [
        {
          "indexed": true,
          "internalType": "address",
          "name": "approver",
          "type": "address"
        },
        {
          "indexed": false,
          "internalType": "address",
          "name": "logic",
          "type": "address"
        },
        {
          "indexed": false,
          "internalType": "bytes32",
          "name": "sigHash",
          "type": "bytes32"
        },
        {
          "indexed": false,
          "internalType": "uint256",
          "name": "timelockExpiration",
          "type": "uint256"
        }
      ],
      "name": "UpgradeRequested",
      "type": "event"
    },
    {
      "inputs": [
        {
          "components": [
            {
              "components": [
                {
                  "internalType": "address",
                  "name": "requester",
                  "type": "address"
                },
                {
                  "components": [
                    {
                      "internalType": "contract IERC20",
                      "name": "feeToken",
                      "type": "address"
                    },
                    {
                      "internalType": "address",
                      "name": "affiliate",
                      "type": "address"
                    },
                    {
                      "internalType": "uint256",
                      "name": "affiliatePortion",
                      "type": "uint256"
                    }
                  ],
                  "internalType": "struct ExecutionTypes.FeeDetails",
                  "name": "fee",
                  "type": "tuple"
                }
              ],
              "internalType": "struct ExecutionTypes.ExecutionRequest",
              "name": "executionRequest",
              "type": "tuple"
            },
            {
              "components": [
                {
                  "internalType": "uint112",
                  "name": "amount",
                  "type": "uint112"
                },
                {
                  "internalType": "contract IERC20",
                  "name": "token",
                  "type": "address"
                }
              ],
              "internalType": "struct TokenTypes.TokenAmount",
              "name": "tokenIn",
              "type": "tuple"
            },
            {
              "components": [
                {
                  "internalType": "uint112",
                  "name": "amount",
                  "type": "uint112"
                },
                {
                  "internalType": "contract IERC20",
                  "name": "token",
                  "type": "address"
                }
              ],
              "internalType": "struct TokenTypes.TokenAmount",
              "name": "tokenOut",
              "type": "tuple"
            },
            {
              "components": [
                {
                  "internalType": "address",
                  "name": "router",
                  "type": "address"
                },
                {
                  "internalType": "address",
                  "name": "spender",
                  "type": "address"
                },
                {
                  "components": [
                    {
                      "internalType": "uint112",
                      "name": "amount",
                      "type": "uint112"
                    },
                    {
                      "internalType": "contract IERC20",
                      "name": "token",
                      "type": "address"
                    }
                  ],
                  "internalType": "struct TokenTypes.TokenAmount",
                  "name": "routeAmount",
                  "type": "tuple"
                },
                {
                  "internalType": "bytes",
                  "name": "routerData",
                  "type": "bytes"
                }
              ],
              "internalType": "struct SwapTypes.RouterRequest[]",
              "name": "routes",
              "type": "tuple[]"
            }
          ],
          "internalType": "struct SwapTypes.SwapRequest",
          "name": "request",
          "type": "tuple"
        }
      ],
      "name": "_trySwap",
      "outputs": [
        {
          "internalType": "uint256",
          "name": "",
          "type": "uint256"
        }
      ],
      "stateMutability": "nonpayable",
      "type": "function"
    },
    {
      "inputs": [
        {
          "internalType": "address",
          "name": "relay",
          "type": "address"
        }
      ],
      "name": "addRelay",
      "outputs": [],
      "stateMutability": "nonpayable",
      "type": "function"
    },
    {
      "inputs": [
        {
          "internalType": "address",
          "name": "signer",
          "type": "address"
        }
      ],
      "name": "addSigner",
      "outputs": [],
      "stateMutability": "nonpayable",
      "type": "function"
    },
    {
      "inputs": [
        {
          "internalType": "uint256",
          "name": "nonce",
          "type": "uint256"
        }
      ],
      "name": "approveChange",
      "outputs": [],
      "stateMutability": "nonpayable",
      "type": "function"
    },
    {
      "inputs": [],
      "name": "approveResume",
      "outputs": [],
      "stateMutability": "nonpayable",
      "type": "function"
    },
    {
      "inputs": [],
      "name": "approveUpgrade",
      "outputs": [],
      "stateMutability": "nonpayable",
      "type": "function"
    },
    {
      "inputs": [],
      "name": "bpsRates",
      "outputs": [
        {
          "components": [
            {
              "internalType": "uint16",
              "name": "stdBps",
              "type": "uint16"
            },
            {
              "internalType": "uint16",
              "name": "minBps",
              "type": "uint16"
            }
          ],
          "internalType": "struct LibDexible.BpsFeeChange",
          "name": "",
          "type": "tuple"
        }
      ],
      "stateMutability": "view",
      "type": "function"
    },
    {
      "inputs": [
        {
          "internalType": "uint256",
          "name": "nonce",
          "type": "uint256"
        }
      ],
      "name": "canApplyChange",
      "outputs": [],
      "stateMutability": "view",
      "type": "function"
    },
    {
      "inputs": [],
      "name": "canUpgrade",
      "outputs": [
        {
          "internalType": "bool",
          "name": "",
          "type": "bool"
        }
      ],
      "stateMutability": "view",
      "type": "function"
    },
    {
      "inputs": [
        {
          "internalType": "uint256",
          "name": "nonce",
          "type": "uint256"
        }
      ],
      "name": "cancelChange",
      "outputs": [],
      "stateMutability": "nonpayable",
      "type": "function"
    },
    {
      "inputs": [],
      "name": "cancelResume",
      "outputs": [],
      "stateMutability": "nonpayable",
      "type": "function"
    },
    {
      "inputs": [
        {
          "internalType": "uint256",
          "name": "nonce",
          "type": "uint256"
        }
      ],
      "name": "changeSigsNeeded",
      "outputs": [
        {
          "internalType": "uint256",
          "name": "",
          "type": "uint256"
        }
      ],
      "stateMutability": "view",
      "type": "function"
    },
    {
      "inputs": [
        {
          "internalType": "uint256",
          "name": "nonce",
          "type": "uint256"
        },
        {
          "internalType": "address",
          "name": "signer",
          "type": "address"
        },
        {
          "internalType": "bytes",
          "name": "sig",
          "type": "bytes"
        }
      ],
      "name": "delegatedApproveChange",
      "outputs": [],
      "stateMutability": "nonpayable",
      "type": "function"
    },
    {
      "inputs": [
        {
          "internalType": "address",
          "name": "signer",
          "type": "address"
        },
        {
          "internalType": "bytes",
          "name": "sig",
          "type": "bytes"
        }
      ],
      "name": "delegatedApproveResume",
      "outputs": [],
      "stateMutability": "nonpayable",
      "type": "function"
    },
    {
      "inputs": [
        {
          "internalType": "address",
          "name": "signer",
          "type": "address"
        },
        {
          "internalType": "bytes",
          "name": "sig",
          "type": "bytes"
        }
      ],
      "name": "delegatedApproveUpgrade",
      "outputs": [],
      "stateMutability": "nonpayable",
      "type": "function"
    },
    {
      "inputs": [
        {
          "internalType": "address",
          "name": "member",
          "type": "address"
        },
        {
          "internalType": "string",
          "name": "role",
          "type": "string"
        }
      ],
      "name": "hasRole",
      "outputs": [
        {
          "internalType": "bool",
          "name": "",
          "type": "bool"
        }
      ],
      "stateMutability": "view",
      "type": "function"
    },
    {
      "inputs": [
        {
          "components": [
            {
              "internalType": "uint8",
              "name": "revshareSplitRatio",
              "type": "uint8"
            },
            {
              "internalType": "uint16",
              "name": "stdBpsRate",
              "type": "uint16"
            },
            {
              "internalType": "uint16",
              "name": "minBpsRate",
              "type": "uint16"
            },
            {
              "internalType": "address",
              "name": "revshareManager",
              "type": "address"
            },
            {
              "internalType": "address",
              "name": "treasury",
              "type": "address"
            },
            {
              "internalType": "address",
              "name": "dxblToken",
              "type": "address"
            },
            {
              "internalType": "address",
              "name": "roleManager",
              "type": "address"
            },
            {
              "internalType": "uint112",
              "name": "minFeeUSD",
              "type": "uint112"
            },
            {
              "components": [
                {
                  "internalType": "uint8",
                  "name": "requiredSigs",
                  "type": "uint8"
                },
                {
                  "internalType": "uint32",
                  "name": "timelockSeconds",
                  "type": "uint32"
                },
                {
                  "internalType": "address",
                  "name": "logic",
                  "type": "address"
                },
                {
                  "internalType": "address[]",
                  "name": "approvers",
                  "type": "address[]"
                }
              ],
              "internalType": "struct LibMultiSig.MultiSigConfig",
              "name": "multiSigConfig",
              "type": "tuple"
            }
          ],
          "internalType": "struct LibDexible.DexibleConfig",
          "name": "config",
          "type": "tuple"
        }
      ],
      "name": "initialize",
      "outputs": [],
      "stateMutability": "nonpayable",
      "type": "function"
    },
    {
      "inputs": [
        {
          "components": [
            {
              "internalType": "uint8",
              "name": "requiredSigs",
              "type": "uint8"
            },
            {
              "internalType": "uint32",
              "name": "timelockSeconds",
              "type": "uint32"
            },
            {
              "internalType": "address",
              "name": "logic",
              "type": "address"
            },
            {
              "internalType": "address[]",
              "name": "approvers",
              "type": "address[]"
            }
          ],
          "internalType": "struct LibMultiSig.MultiSigConfig",
          "name": "config",
          "type": "tuple"
        }
      ],
      "name": "initializeMSConfigurable",
      "outputs": [],
      "stateMutability": "nonpayable",
      "type": "function"
    },
    {
      "inputs": [],
      "name": "isPaused",
      "outputs": [
        {
          "internalType": "bool",
          "name": "",
          "type": "bool"
        }
      ],
      "stateMutability": "view",
      "type": "function"
    },
    {
      "inputs": [
        {
          "internalType": "address",
          "name": "relay",
          "type": "address"
        }
      ],
      "name": "isRelay",
      "outputs": [
        {
          "internalType": "bool",
          "name": "",
          "type": "bool"
        }
      ],
      "stateMutability": "view",
      "type": "function"
    },
    {
      "inputs": [],
      "name": "pause",
      "outputs": [],
      "stateMutability": "nonpayable",
      "type": "function"
    },
    {
      "inputs": [
        {
          "internalType": "address",
          "name": "relay",
          "type": "address"
        }
      ],
      "name": "removeRelay",
      "outputs": [],
      "stateMutability": "nonpayable",
      "type": "function"
    },
    {
      "inputs": [
        {
          "internalType": "address",
          "name": "member",
          "type": "address"
        },
        {
          "internalType": "string",
          "name": "role",
          "type": "string"
        }
      ],
      "name": "removeRole",
      "outputs": [],
      "stateMutability": "nonpayable",
      "type": "function"
    },
    {
      "inputs": [
        {
          "internalType": "address",
          "name": "member",
          "type": "address"
        },
        {
          "internalType": "string[]",
          "name": "roles",
          "type": "string[]"
        }
      ],
      "name": "removeRoles",
      "outputs": [],
      "stateMutability": "nonpayable",
      "type": "function"
    },
    {
      "inputs": [
        {
          "internalType": "address",
          "name": "signer",
          "type": "address"
        }
      ],
      "name": "removeSigner",
      "outputs": [],
      "stateMutability": "nonpayable",
      "type": "function"
    },
    {
      "inputs": [
        {
          "internalType": "bytes",
          "name": "data",
          "type": "bytes"
        }
      ],
      "name": "requestChange",
      "outputs": [],
      "stateMutability": "nonpayable",
      "type": "function"
    },
    {
      "inputs": [],
      "name": "requestResume",
      "outputs": [],
      "stateMutability": "nonpayable",
      "type": "function"
    },
    {
      "inputs": [
        {
          "internalType": "address",
          "name": "logic",
          "type": "address"
        }
      ],
      "name": "requestUpgrade",
      "outputs": [],
      "stateMutability": "nonpayable",
      "type": "function"
    },
    {
      "inputs": [],
      "name": "resumeSigsNeeded",
      "outputs": [
        {
          "internalType": "uint8",
          "name": "",
          "type": "uint8"
        }
      ],
      "stateMutability": "view",
      "type": "function"
    },
    {
      "inputs": [],
      "name": "revshareSplit",
      "outputs": [
        {
          "internalType": "uint8",
          "name": "",
          "type": "uint8"
        }
      ],
      "stateMutability": "view",
      "type": "function"
    },
    {
      "inputs": [],
      "name": "revshareVault",
      "outputs": [
        {
          "internalType": "address",
          "name": "",
          "type": "address"
        }
      ],
      "stateMutability": "view",
      "type": "function"
    },
    {
      "inputs": [
        {
          "components": [
            {
              "internalType": "contract IERC20",
              "name": "feeToken",
              "type": "address"
            },
            {
              "components": [
                {
                  "internalType": "uint112",
                  "name": "amount",
                  "type": "uint112"
                },
                {
                  "internalType": "contract IERC20",
                  "name": "token",
                  "type": "address"
                }
              ],
              "internalType": "struct TokenTypes.TokenAmount",
              "name": "tokenIn",
              "type": "tuple"
            },
            {
              "components": [
                {
                  "internalType": "uint112",
                  "name": "amount",
                  "type": "uint112"
                },
                {
                  "internalType": "contract IERC20",
                  "name": "token",
                  "type": "address"
                }
              ],
              "internalType": "struct TokenTypes.TokenAmount",
              "name": "tokenOut",
              "type": "tuple"
            },
            {
              "components": [
                {
                  "internalType": "address",
                  "name": "router",
                  "type": "address"
                },
                {
                  "internalType": "address",
                  "name": "spender",
                  "type": "address"
                },
                {
                  "components": [
                    {
                      "internalType": "uint112",
                      "name": "amount",
                      "type": "uint112"
                    },
                    {
                      "internalType": "contract IERC20",
                      "name": "token",
                      "type": "address"
                    }
                  ],
                  "internalType": "struct TokenTypes.TokenAmount",
                  "name": "routeAmount",
                  "type": "tuple"
                },
                {
                  "internalType": "bytes",
                  "name": "routerData",
                  "type": "bytes"
                }
              ],
              "internalType": "struct SwapTypes.RouterRequest[]",
              "name": "routes",
              "type": "tuple[]"
            }
          ],
          "internalType": "struct SwapTypes.SelfSwap",
          "name": "request",
          "type": "tuple"
        }
      ],
      "name": "selfSwap",
      "outputs": [],
      "stateMutability": "nonpayable",
      "type": "function"
    },
    {
      "inputs": [
        {
          "components": [
            {
              "internalType": "uint16",
              "name": "stdBps",
              "type": "uint16"
            },
            {
              "internalType": "uint16",
              "name": "minBps",
              "type": "uint16"
            }
          ],
          "internalType": "struct LibDexible.BpsFeeChange",
          "name": "changes",
          "type": "tuple"
        }
      ],
      "name": "setNewBps",
      "outputs": [],
      "stateMutability": "nonpayable",
      "type": "function"
    },
    {
      "inputs": [
        {
          "internalType": "uint8",
          "name": "sigs",
          "type": "uint8"
        }
      ],
      "name": "setRequiredSigs",
      "outputs": [],
      "stateMutability": "nonpayable",
      "type": "function"
    },
    {
      "inputs": [
        {
          "internalType": "uint8",
          "name": "split",
          "type": "uint8"
        }
      ],
      "name": "setRevshareSplit",
      "outputs": [],
      "stateMutability": "nonpayable",
      "type": "function"
    },
    {
      "inputs": [
        {
          "internalType": "address",
          "name": "t",
          "type": "address"
        }
      ],
      "name": "setRevshareVault",
      "outputs": [],
      "stateMutability": "nonpayable",
      "type": "function"
    },
    {
      "inputs": [
        {
          "internalType": "address",
          "name": "member",
          "type": "address"
        },
        {
          "internalType": "string",
          "name": "role",
          "type": "string"
        }
      ],
      "name": "setRole",
      "outputs": [],
      "stateMutability": "nonpayable",
      "type": "function"
    },
    {
      "inputs": [
        {
          "internalType": "address",
          "name": "member",
          "type": "address"
        },
        {
          "internalType": "string[]",
          "name": "roles",
          "type": "string[]"
        }
      ],
      "name": "setRoles",
      "outputs": [],
      "stateMutability": "nonpayable",
      "type": "function"
    },
    {
      "inputs": [
        {
          "internalType": "address",
          "name": "t",
          "type": "address"
        }
      ],
      "name": "setTreasury",
      "outputs": [],
      "stateMutability": "nonpayable",
      "type": "function"
    },
    {
      "inputs": [
        {
          "components": [
            {
              "components": [
                {
                  "internalType": "address",
                  "name": "requester",
                  "type": "address"
                },
                {
                  "components": [
                    {
                      "internalType": "contract IERC20",
                      "name": "feeToken",
                      "type": "address"
                    },
                    {
                      "internalType": "address",
                      "name": "affiliate",
                      "type": "address"
                    },
                    {
                      "internalType": "uint256",
                      "name": "affiliatePortion",
                      "type": "uint256"
                    }
                  ],
                  "internalType": "struct ExecutionTypes.FeeDetails",
                  "name": "fee",
                  "type": "tuple"
                }
              ],
              "internalType": "struct ExecutionTypes.ExecutionRequest",
              "name": "executionRequest",
              "type": "tuple"
            },
            {
              "components": [
                {
                  "internalType": "uint112",
                  "name": "amount",
                  "type": "uint112"
                },
                {
                  "internalType": "contract IERC20",
                  "name": "token",
                  "type": "address"
                }
              ],
              "internalType": "struct TokenTypes.TokenAmount",
              "name": "tokenIn",
              "type": "tuple"
            },
            {
              "components": [
                {
                  "internalType": "uint112",
                  "name": "amount",
                  "type": "uint112"
                },
                {
                  "internalType": "contract IERC20",
                  "name": "token",
                  "type": "address"
                }
              ],
              "internalType": "struct TokenTypes.TokenAmount",
              "name": "tokenOut",
              "type": "tuple"
            },
            {
              "components": [
                {
                  "internalType": "address",
                  "name": "router",
                  "type": "address"
                },
                {
                  "internalType": "address",
                  "name": "spender",
                  "type": "address"
                },
                {
                  "components": [
                    {
                      "internalType": "uint112",
                      "name": "amount",
                      "type": "uint112"
                    },
                    {
                      "internalType": "contract IERC20",
                      "name": "token",
                      "type": "address"
                    }
                  ],
                  "internalType": "struct TokenTypes.TokenAmount",
                  "name": "routeAmount",
                  "type": "tuple"
                },
                {
                  "internalType": "bytes",
                  "name": "routerData",
                  "type": "bytes"
                }
              ],
              "internalType": "struct SwapTypes.RouterRequest[]",
              "name": "routes",
              "type": "tuple[]"
            }
          ],
          "internalType": "struct SwapTypes.SwapRequest",
          "name": "request",
          "type": "tuple"
        }
      ],
      "name": "swap",
      "outputs": [],
      "stateMutability": "nonpayable",
      "type": "function"
    },
    {
      "inputs": [],
      "name": "upgradeSignaturesNeeded",
      "outputs": [
        {
          "internalType": "uint256",
          "name": "",
          "type": "uint256"
        }
      ],
      "stateMutability": "view",
      "type": "function"
    }
  ],
  "bytecode": "0x608060405234801561001057600080fd5b506147eb806100206000396000f3fe608060405234801561001057600080fd5b50600436106102535760003560e01c80636b9f97ef11610146578063c3d718a4116100c3578063dcf52a8011610087578063dcf52a80146104dc578063e84c5b71146104e4578063eb12d61e14610504578063f0f4426014610517578063f4be37be1461052a578063f832309b1461053d57600080fd5b8063c3d718a414610488578063c94fbd271461049b578063cd151e9a146104a3578063d514beaa146104b6578063dc588141146104c957600080fd5b80639738968c1161010a5780639738968c1461044a578063a03a086d14610452578063adadf22f1461045a578063b072db121461046d578063b187bd261461048057600080fd5b80636b9f97ef146104015780637a393ff5146104145780638456cb59146104275780638957a7e51461042f57806391c558551461043757600080fd5b806334357755116101d45780635b57a2ed116101985780635b57a2ed146103a25780635cd0b3ee146103b5578063602dd026146103c85780636161791e146103db57806364927984146103ee57600080fd5b8063343577551461032557806335e3aa211461033f5780633a88b17814610352578063486bdd9d1461037c57806348e7a26d1461038f57600080fd5b8063217fe6c61161021b578063217fe6c6146102b957806326cb32b7146102e15780632807978e146102f45780632b9f73e11461030757806333e5614f1461030f57600080fd5b80630e316ab714610258578063197544431461026d578063199e5a59146102805780631ae83411146102935780631bfe0308146102a6575b600080fd5b61026b61026636600461324e565b610550565b005b61026b61027b366004613272565b61063d565b61026b61028e366004613313565b610707565b61026b6102a1366004613349565b6107a1565b61026b6102b436600461347f565b6108cc565b6102cc6102c736600461347f565b610993565b60405190151581526020015b60405180910390f35b6102cc6102ef36600461324e565b610a28565b61026b610302366004613313565b610a51565b61026b610afe565b610317610bac565b6040519081526020016102d8565b61032d610c33565b60405160ff90911681526020016102d8565b61026b61034d3660046134e2565b610cb7565b61035a610d3d565b60408051825161ffff90811682526020938401511692810192909252016102d8565b61026b61038a366004613543565b610d8e565b61026b61039d36600461324e565b610e49565b61026b6103b03660046134e2565b610ee9565b61026b6103c336600461359e565b610f6f565b61026b6103d6366004613349565b611027565b61026b6103e93660046134e2565b6115c1565b61026b6103fc36600461359e565b611609565b61026b61040f36600461324e565b61168b565b61026b6104223660046135f2565b611719565b61026b611799565b61026b61181e565b61026b610445366004613272565b61189d565b6102cc611932565b61032d6119b1565b61026b61046836600461324e565b6119c4565b61031761047b3660046138e9565b6119eb565b6102cc611aae565b61026b61049636600461391d565b611ab8565b61026b611bba565b61026b6104b136600461324e565b611c39565b61026b6104c4366004613a58565b611c60565b6103176104d73660046134e2565b611ca0565b61026b611cea565b6104ec611d69565b6040516001600160a01b0390911681526020016102d8565b61026b61051236600461324e565b611d85565b61026b61052536600461324e565b611e6c565b61026b610538366004613a8c565b611f44565b61026b61054b36600461347f565b611fd4565b600061055a612067565b336000908152600d8201602052604090205490915060ff166105975760405162461bcd60e51b815260040161058e90613a9e565b60405180910390fd5b6001600160a01b0382166000036105e15760405162461bcd60e51b815260206004820152600e60248201526d24b73b30b634b21039b4b3b732b960911b604482015260640161058e565b60006105eb612067565b6001600160a01b0384166000818152600d83016020526040808220805460ff191690555192935090917f3525e22824a8a7df2c9a6029941c824cf95b6447f1e13d5128fd3826d35afe8b9190a2505050565b61066b336040518060400160405280600c81526020016b2927a622afa6a0a720a3a2a960a11b815250610993565b6106875760405162461bcd60e51b815260040161058e90613a9e565b60008051602061474d8339815191526040516322ca16b360e21b815273__$b925d86496a269b1892e5d7410f7a2ae03$__91638b285acc916106d29190879087908790600401613b32565b60006040518083038186803b1580156106ea57600080fd5b505af41580156106fe573d6000803e3d6000fd5b50505050505050565b63199e5a5960e01b6000610719612067565b6001600160e01b031983166000908152600c8201602052604090205490915060ff166107575760405162461bcd60e51b815260040161058e90613bb3565b61075f61208b565b604051634dee845560e01b8152600481019190915260ff8416602482015273__$006dcad09e6e3964c227cdfc41f3dd833d$__90634dee8455906044016106d2565b73__$006dcad09e6e3964c227cdfc41f3dd833d$__631183827e6107c361208b565b836040518363ffffffff1660e01b81526004016107e1929190613cfc565b60006040518083038186803b1580156107f957600080fd5b505af415801561080d573d6000803e3d6000fd5b5050505073__$b925d86496a269b1892e5d7410f7a2ae03$__637294c88661084060008051602061474d83398151915290565b61085060e0850160c0860161324e565b6040516001600160e01b031960e085901b16815260048101929092526001600160a01b0316602482015260440160006040518083038186803b15801561089557600080fd5b505af41580156108a9573d6000803e3d6000fd5b506108c992506108c0915050610100830183613e04565b6104c490613e24565b50565b6108fa336040518060400160405280600c81526020016b2927a622afa6a0a720a3a2a960a11b815250610993565b6109165760405162461bcd60e51b815260040161058e90613a9e565b60008051602061474d8339815191526040516306d3e57160e11b815273__$b925d86496a269b1892e5d7410f7a2ae03$__91630da7cae29161095f919086908690600401613e80565b60006040518083038186803b15801561097757600080fd5b505af415801561098b573d6000803e3d6000fd5b505050505050565b600060008051602061474d83398151915260405163776e860360e11b815273__$b925d86496a269b1892e5d7410f7a2ae03$__9163eedd0c06916109de919087908790600401613e80565b602060405180830381865af41580156109fb573d6000803e3d6000fd5b505050506040513d601f19601f82011682018060405250810190610a1f9190613eaa565b90505b92915050565b6000610a22826040518060400160405280600581526020016452454c415960d81b815250610993565b631403cbc760e11b6000610a63612067565b6001600160e01b031983166000908152600c8201602052604090205490915060ff16610aa15760405162461bcd60e51b815260040161058e90613bb3565b6000610aab612067565b805461ff00191661010060ff87169081029190911782556040519081529091507f996d24db4a86034b8a07339305b06563c6b9e34fc887a6f84dbba1d64f690fd79060200160405180910390a150505050565b6000610b08612067565b336000908152600d8201602052604090205490915060ff16610b3c5760405162461bcd60e51b815260040161058e90613a9e565b610b44612067565b60405163b5c1a4bd60e01b8152600481019190915273__$a1eb5e9a06dc78666997fa26b97107c1d0$__9063b5c1a4bd906024015b60006040518083038186803b158015610b9157600080fd5b505af4158015610ba5573d6000803e3d6000fd5b5050505050565b6000610bb6612067565b6040516396deafed60e01b8152600481019190915273__$a1eb5e9a06dc78666997fa26b97107c1d0$__906396deafed90602401602060405180830381865af4158015610c07573d6000803e3d6000fd5b505050506040513d601f19601f82011682018060405250810190610c2b9190613ecc565b60ff16905090565b6000610c3d612067565b6040516319477f2b60e11b8152600481019190915273__$a1eb5e9a06dc78666997fa26b97107c1d0$__9063328efe5690602401602060405180830381865af4158015610c8e573d6000803e3d6000fd5b505050506040513d601f19601f82011682018060405250810190610cb29190613ecc565b905090565b6000610cc1612067565b336000908152600d8201602052604090205490915060ff16610cf55760405162461bcd60e51b815260040161058e90613a9e565b610cfd612067565b604051633cf6e7e560e11b815260048101919091526024810183905273__$a1eb5e9a06dc78666997fa26b97107c1d0$__906379edcfca9060440161095f565b60408051808201909152600080825260208201526040518060400160405280610d6461208b565b54610100900461ffff168152602001610d7b61208b565b546301000000900461ffff169052919050565b6000610d98612067565b336000908152600d8201602052604090205490915060ff16610dcc5760405162461bcd60e51b815260040161058e90613a9e565b610dd4612067565b60405163b190721f60e01b815273__$a1eb5e9a06dc78666997fa26b97107c1d0$__9163b190721f91610e1291908990899089908990600401613ee9565b60006040518083038186803b158015610e2a57600080fd5b505af4158015610e3e573d6000803e3d6000fd5b505050505050505050565b6348e7a26d60e01b6000610e5b612067565b6001600160e01b031983166000908152600c8201602052604090205490915060ff16610e995760405162461bcd60e51b815260040161058e90613bb3565b610ea161208b565b6040516324c527cd60e01b815260048101919091526001600160a01b038416602482015273__$006dcad09e6e3964c227cdfc41f3dd833d$__906324c527cd906044016106d2565b6000610ef3612067565b336000908152600d8201602052604090205490915060ff16610f275760405162461bcd60e51b815260040161058e90613a9e565b610f2f612067565b6040516341ae60fd60e01b815260048101919091526024810183905273__$a1eb5e9a06dc78666997fa26b97107c1d0$__906341ae60fd9060440161095f565b6000610f79612067565b336000908152600d8201602052604090205490915060ff16610fad5760405162461bcd60e51b815260040161058e90613a9e565b610fb5612067565b604051634552300560e11b815273__$a1eb5e9a06dc78666997fa26b97107c1d0$__91638aa4600a91610ff19190889088908890600401613f17565b60006040518083038186803b15801561100957600080fd5b505af415801561101d573d6000803e3d6000fd5b5050505050505050565b60008051602061474d833981519152604080518082018252600581526452454c415960d81b6020820152905163776e860360e11b815273__$b925d86496a269b1892e5d7410f7a2ae03$__9263eedd0c069261108892339190600401613e80565b602060405180830381865af41580156110a5573d6000803e3d6000fd5b505050506040513d601f19601f820116820180604052508101906110c99190613eaa565b61110a5760405162461bcd60e51b8152602060048201526012602482015271556e617574686f72697a65642072656c617960701b604482015260640161058e565b611112612067565b5460ff16156111565760405162461bcd60e51b815260206004820152601060248201526f139bdd081dda1a5b19481c185d5cd95960821b604482015260640161058e565b6000619c405a6111669190613f62565b9050600061117261208b565b600301546001600160a01b03166370a08231611191602086018661324e565b6040516001600160e01b031960e084901b1681526001600160a01b039091166004820152602401602060405180830381865afa1580156111d5573d6000803e3d6000fd5b505050506040513d601f19601f820116820180604052508101906111f99190613f75565b9050600061120d604085016020860161324e565b6001600160a01b031661122660c0860160a0870161324e565b6001600160a01b031614905080156112b957611246610100850185613f8e565b600081811061125757611257613fd7565b90506020028101906112699190613fed565b61127a906060810190604001614003565b6001600160701b031661129360a0860160808701614003565b6001600160701b0316116112b95760405162461bcd60e51b815260040161058e9061401e565b60006112cb60c0860160a0870161324e565b6040516370a0823160e01b81523060048201526001600160a01b0391909116906370a0823190602401602060405180830381865afa158015611311573d6000803e3d6000fd5b505050506040513d601f19601f820116820180604052508101906113359190613f75565b90506000803063b072db12620138805a61134f919061406e565b896040518363ffffffff1660e01b815260040161136c91906140b9565b60206040518083038160008887f1935050505080156113a8575060408051601f3d908101601f191682019092526113a591810190613f75565b60015b611486576113b4614203565b806308c379a00361143b57506113c861421f565b806113d3575061143d565b6114016040518060400160405280600c81526020016b22b93937b9103a343937bbb760a11b815250826120af565b60009250600091506114356040518060400160405280600a8152602001692330b4b62932b0b9b7b760b11b815250826120af565b5061148d565b505b61147b6040518060400160405280601881526020017f556e6b6e6f776e2070726f626c656d206f6363757272656400000000000000008152506120f4565b50600090508061148d565b6001925090505b600061149f60c0890160a08a0161324e565b6040516370a0823160e01b81523060048201526001600160a01b0391909116906370a0823190602401602060405180830381865afa1580156114e5573d6000803e3d6000fd5b505050506040513d601f19601f820116820180604052508101906115099190613f75565b9050600084821161151b576000611525565b611525858361406e565b9050600060405180610180016040528088151581526020016000151581526020018a8152602001600081526020016000815260200160008152602001858152602001600081526020016000815260200160008152602001898152602001838152509050841561159d576115988a82612137565b6115a7565b6115a78a826121cd565b6115b58161012001516123ba565b50505050505050505050565b6115c9612067565b6040516366c373c960e01b815260048101919091526024810182905273__$a1eb5e9a06dc78666997fa26b97107c1d0$__906366c373c990604401610b79565b6000611613612067565b336000908152600d8201602052604090205490915060ff166116475760405162461bcd60e51b815260040161058e90613a9e565b61164f612067565b604051633b32d55d60e21b815273__$a1eb5e9a06dc78666997fa26b97107c1d0$__9163eccb557491610ff19190889088908890600401613f17565b6000611695612067565b336000908152600d8201602052604090205490915060ff166116c95760405162461bcd60e51b815260040161058e90613a9e565b6116d1612067565b604051632791078760e21b815260048101919091526001600160a01b038316602482015273__$a1eb5e9a06dc78666997fa26b97107c1d0$__90639e441e1c9060440161095f565b6000611723612067565b336000908152600d8201602052604090205490915060ff166117575760405162461bcd60e51b815260040161058e90613a9e565b61175f612067565b6040516326373dcf60e21b815273__$a1eb5e9a06dc78666997fa26b97107c1d0$__916398dcf73c916106d29190879087906004016142a8565b60006117a3612067565b336000908152600d8201602052604090205490915060ff166117d75760405162461bcd60e51b815260040161058e90613a9e565b60006117e1612067565b805460ff1916600117815560405190915033907f62e78cea01bee320cd4e420270b5ea74000d11b0c9f74754ebdbfc544b05a25890600090a25050565b6000611828612067565b336000908152600d8201602052604090205490915060ff1661185c5760405162461bcd60e51b815260040161058e90613a9e565b611864612067565b60405163dc02380960e01b8152600481019190915273__$a1eb5e9a06dc78666997fa26b97107c1d0$__9063dc02380990602401610b79565b6118cb336040518060400160405280600c81526020016b2927a622afa6a0a720a3a2a960a11b815250610993565b6118e75760405162461bcd60e51b815260040161058e90613a9e565b60008051602061474d8339815191526040516346a823f960e01b815273__$b925d86496a269b1892e5d7410f7a2ae03$__916346a823f9916106d29190879087908790600401613b32565b600061193c612067565b6040516330a340ab60e21b8152600481019190915273__$a1eb5e9a06dc78666997fa26b97107c1d0$__9063c28d02ac90602401602060405180830381865af415801561198d573d6000803e3d6000fd5b505050506040513d601f19601f82011682018060405250810190610cb29190613eaa565b60006119bb61208b565b5460ff16919050565b6108c9816040518060400160405280600581526020016452454c415960d81b815250611fd4565b6000333014611a315760405162461bcd60e51b8152602060048201526012602482015271496e7465726e616c2063616c6c206f6e6c7960701b604482015260640161058e565b604051630a4c0e6960e41b815273__$59ef0c4a0574f027e6c90b4662d1cbde53$__9063a4c0e69090611a689085906004016142e3565b602060405180830381865af4158015611a85573d6000803e3d6000fd5b505050506040513d601f19601f82011682018060405250810190610a229190613f75565b919050565b60006119bb612067565b611ac0612067565b5460ff1615611b045760405162461bcd60e51b815260206004820152601060248201526f139bdd081dda1a5b19481c185d5cd95960821b604482015260640161058e565b6040805160c081018252336080820190815282516060810190935260009282919060a083019080611b38602089018961324e565b6001600160a01b0316815260200160006001600160a01b031681526020016000815250815250815260200183602001803603810190611b7791906143ec565b8152602001611b8e368590038501606086016143ec565b8152602001611ba060a0850185613f8e565b611ba991614408565b90529050611bb6816124f9565b5050565b6000611bc4612067565b336000908152600d8201602052604090205490915060ff16611bf85760405162461bcd60e51b815260040161058e90613a9e565b611c00612067565b604051634e3e101b60e01b8152600481019190915273__$a1eb5e9a06dc78666997fa26b97107c1d0$__90634e3e101b90602401610b79565b6108c9816040518060400160405280600581526020016452454c415960d81b8152506108cc565b611c68612067565b60405163e84ba0a360e01b815273__$a1eb5e9a06dc78666997fa26b97107c1d0$__9163e84ba0a391610b7991908590600401614415565b6000611caa612067565b6040516384c81e4d60e01b815260048101919091526024810183905273__$a1eb5e9a06dc78666997fa26b97107c1d0$__906384c81e4d90604401611a68565b6000611cf4612067565b336000908152600d8201602052604090205490915060ff16611d285760405162461bcd60e51b815260040161058e90613a9e565b611d30612067565b604051630cb8674760e01b8152600481019190915273__$a1eb5e9a06dc78666997fa26b97107c1d0$__90630cb8674790602401610b79565b6000611d7361208b565b600101546001600160a01b0316919050565b6000611d8f612067565b336000908152600d8201602052604090205490915060ff16611dc35760405162461bcd60e51b815260040161058e90613a9e565b6001600160a01b038216600003611e0d5760405162461bcd60e51b815260206004820152600e60248201526d24b73b30b634b21039b4b3b732b960911b604482015260640161058e565b6000611e17612067565b6001600160a01b0384166000818152600d83016020526040808220805460ff191660011790555192935090917f47d1c22a25bb3a5d4e481b9b1e6944c2eade3181a0a20b495ed61d35b5323f249190a2505050565b630787a21360e51b6000611e7e612067565b6001600160e01b031983166000908152600c8201602052604090205490915060ff16611ebc5760405162461bcd60e51b815260040161058e90613bb3565b6000611ec661208b565b90506001600160a01b038416611f1e5760405162461bcd60e51b815260206004820152601860248201527f496e76616c696420747265617375727920616464726573730000000000000000604482015260640161058e565b60020180546001600160a01b0319166001600160a01b0394909416939093179092555050565b637a5f1bdf60e11b6000611f56612067565b6001600160e01b031983166000908152600c8201602052604090205490915060ff16611f945760405162461bcd60e51b815260040161058e90613bb3565b611f9c61208b565b60405163e3cfd2db60e01b815273__$006dcad09e6e3964c227cdfc41f3dd833d$__9163e3cfd2db916106d2919087906004016144a6565b612002336040518060400160405280600c81526020016b2927a622afa6a0a720a3a2a960a11b815250610993565b61201e5760405162461bcd60e51b815260040161058e90613a9e565b60008051602061474d8339815191526040516306cced0f60e31b815273__$b925d86496a269b1892e5d7410f7a2ae03$__9163366768789161095f919086908690600401613e80565b7f95345cad9ec96dfc8c5b0a875a5c498451c293011b6404d5fac2627c08bc661c90565b7f949817a987a8e038ef345d3c9d4fd28e49d8e4e09456e57c05a8b2ce2e62866c90565b611bb682826040516024016120c59291906144db565b60408051601f198184030181529190526020810180516001600160e01b0316634b5c427760e01b1790526127e4565b6108c9816040516024016121089190614500565b60408051601f198184030181529190526020810180516001600160e01b031663104c13eb60e21b1790526127e4565b61214760e0830160c08401614003565b6001600160701b03168160c0015110156121a35760405162461bcd60e51b815260206004820152601d60248201527f496e73756666696369656e74206f75747075742067656e657261746564000000604482015260640161058e565b6121bb6121af83614513565b825160c0840151612805565b611bb66121c783614513565b826128a2565b60005a826040015103619c400190506121fe6040518060600160405280602981526020016146c560299139826128b6565b3a02610120820152600061221f61221484614513565b8361012001516128fb565b82519091501561232f5761224a604051806060016040528060408152602001614685604091396120f4565b61227a6040518060400160405280600e81526020016d4661696c6564206761732066656560901b815250826128b6565b6122c161228a602085018561324e565b61229261208b565b600201546001600160a01b0316836122b0604088016020890161324e565b6001600160a01b0316929190612990565b6122ce602084018461324e565b6001600160a01b03167f6930176329c33f663176f0f242132119497db425bb44d32f9ffef8683d10b0c0612308604086016020870161324e565b604080516001600160a01b03909216825260208201859052015b60405180910390a2505050565b61235060405180608001604052806049815260200161476d604991396120f4565b61235d602084018461324e565b6001600160a01b03167f6930176329c33f663176f0f242132119497db425bb44d32f9ffef8683d10b0c0612397604086016020870161324e565b604080516001600160a01b0390921682526000602083015201612322565b505050565b6123f96040518060400160405280601781526020017f52656c617920476173205265696d62757273656d656e74000000000000000000815250826128b6565b8047101561245b57612422604051806060016040528060358152602001614718603591396120f4565b60405181815233907f4c0d6a438f19dfe41befe161c0bfdfca9f674028133bbaf37749b2d12f8f0dda906020015b60405180910390a250565b6124996040518060400160405280601c81526020017f5472616e73666572696e67206761732066656520746f2072656c6179000000008152506120f4565b604051339082156108fc029083906000818181858888f193505050501580156124c6573d6000803e3d6000fd5b5060405181815233907f91d09af90b128f3fb2907042440a531bca49791232cd8f59e1c629d96247d05790602001612450565b80516020908101515181830151909101516001600160a01b03908116911614801561257d57816060015160008151811061253557612535613fd7565b602002602001015160400151600001516001600160701b03168260200151600001516001600160701b03161161257d5760405162461bcd60e51b815260040161058e9061401e565b60208281015101516040516370a0823160e01b81523060048201526000916001600160a01b0316906370a0823190602401602060405180830381865afa1580156125cb573d6000803e3d6000fd5b505050506040513d601f19601f820116820180604052508101906125ef9190613f75565b905060006125fb61208b565b600301548451516040516370a0823160e01b81526001600160a01b0391821660048201529116906370a0823190602401602060405180830381865afa158015612648573d6000803e3d6000fd5b505050506040513d601f19601f8201168201806040525081019061266c9190613f75565b6040516358396d8960e11b8152909150600090309063b072db129061269590889060040161451f565b6020604051808303816000875af11580156126b4573d6000803e3d6000fd5b505050506040513d601f19601f820116820180604052508101906126d89190613f75565b60208087015101516040516370a0823160e01b81523060048201529192506000916001600160a01b03909116906370a0823190602401602060405180830381865afa15801561272b573d6000803e3d6000fd5b505050506040513d601f19601f8201168201806040525081019061274f9190613f75565b9050600084821161276157600061276b565b61276b858361406e565b9050612778878785612805565b600060405180610180016040528088151581526020016001151581526020016000815260200160008152602001600081526020016000815260200185815260200160008152602001600081526020016000815260200186815260200183815250905061101d88826128a2565b80516a636f6e736f6c652e6c6f67602083016000808483855afa5050505050565b6000821561282257506020830151516001600160701b0316612825565b50805b61282d61208b565b6001015484518051602090910151516040516302ac425360e61b81526001600160a01b03928316600482015290821660248201526044810184905291169063ab1094c090606401600060405180830381600087803b15801561288e57600080fd5b505af115801561101d573d6000803e3d6000fd5b6128ac8282612a01565b611bb68282612c70565b611bb682826040516024016128cc929190614617565b60408051601f198184030181529190526020810180516001600160e01b0316632d839cb360e21b1790526127e4565b60008061290661208b565b600181015485516020015151604051633931f45d60e01b81526001600160a01b0391821660048201526024810187905292935016908190633931f45d90604401602060405180830381865afa158015612963573d6000803e3d6000fd5b505050506040513d601f19601f820116820180604052508101906129879190613f75565b95945050505050565b6040516001600160a01b03808516602483015283166044820152606481018290526129fb9085906323b872dd60e01b906084015b60408051601f198184030181529190526020810180516001600160e01b03166001600160e01b031990931692909217909152612ec7565b50505050565b60c081015160a082018190528151610140830151612a229285929190612f99565b60e08201526000612a3161208b565b83516020015151604051630eb9da2d60e31b815273__$006dcad09e6e3964c227cdfc41f3dd833d$__926375ced16892612a7f926004019182526001600160a01b0316602082015260400190565b602060405180830381865af4158015612a9c573d6000803e3d6000fd5b505050506040513d601f19601f82011682018060405250810190612ac09190613f75565b90508160e00151811115612af857612af06040518060600160405280602a81526020016146ee602a9139826128b6565b60e082018190525b6064612b0261208b565b5460e0840151612b159160ff1690614639565b612b1f9190614650565b608083018190528351602001516040015160e08401519091612b409161406e565b612b4a919061406e565b60608301819052835160200151604001516080840151600092612b6c91613f62565b612b769190613f62565b8351909150612b9957808360c00151612b8f919061406e565b60a0840152612bb0565b808361016001818151612bac919061406e565b9052505b83516020015151612bde612bc261208b565b6001015460808601516001600160a01b038481169216906130db565b8451602001516040015115610ba557845160209081015190810151604090910151612c13916001600160a01b038416916130db565b84516020908101518082015160409182015182516001600160a01b038681168252948101919091529216917f1fd11cde99de9e2e6d2bc710c225ae2e03d1e8eece69b0c552c7ae2bb3499a70910160405180910390a25050505050565b8060200151612d91576000620138805a836040015103019050612cab6040518060600160405280602981526020016146c560299139826128b6565b3a026101208201819052612cc09083906128fb565b610100820190815260408051808201909152601281527123b0b9903830b4b210313c903a3930b232b960711b60208201529051612cfd91906128b6565b80610100015181606001818151612d149190613f62565b90525060408051808201909152601381527214185e5b595b9d081d1bc81c1c9bdd1bd8dbdb606a1b60208201526060820151612d5091906128b6565b8051612d75578061010001518160a001818151612d6d919061406e565b905250612d91565b8061010001518161016001818151612d8d919061406e565b9052505b81516020015151612dbf612da361208b565b6002015460608401516001600160a01b038481169216906130db565b82515160a0830151604085015160200151612de5926001600160a01b03909116916130db565b61016082015115612e16578251516101608301516020808601510151612e16926001600160a01b03909116916130db565b82516020808201519081015191516040808701515160a087015184516101008901519584015160e08a015194516001600160a01b039889169896909616967f37d5b664bdbba33c8c4138fa893bae32fef34e9a60d60d7cba0cb46eadb7675196612eba96919291906001600160701b0396909616865260208601949094526001600160a01b039290921660408501526060840152608083015260a082015260c00190565b60405180910390a3505050565b6000612f1c826040518060400160405280602081526020017f5361666545524332303a206c6f772d6c6576656c2063616c6c206661696c6564815250856001600160a01b031661310b9092919063ffffffff16565b8051909150156123b55780806020019051810190612f3a9190613eaa565b6123b55760405162461bcd60e51b815260206004820152602a60248201527f5361666545524332303a204552433230206f7065726174696f6e20646964206e6044820152691bdd081cdd58d8d9595960b21b606482015260840161058e565b600080612fa461208b565b60038101546040805160c08101825289516020908101518101516001600160a01b03908116151583528b5151811691830191909152939450929091169163a015b63991810188612ff45786613004565b60208a0151516001600160701b03165b81526020808201899052855461ffff610100820481166040808601919091526301000000909204811660609485015281516001600160e01b031960e088901b168152855115156004820152928501516001600160a01b0316602484015290840151604483015291830151606482015260808301518216608482015260a0909201511660a482015260c401602060405180830381865afa1580156130ab573d6000803e3d6000fd5b505050506040513d601f19601f820116820180604052508101906130cf9190613f75565b9150505b949350505050565b6040516001600160a01b0383166024820152604481018290526123b590849063a9059cbb60e01b906064016129c4565b60606130d3848460008585600080866001600160a01b031685876040516131329190614672565b60006040518083038185875af1925050503d806000811461316f576040519150601f19603f3d011682016040523d82523d6000602084013e613174565b606091505b509150915061318587838387613190565b979650505050505050565b606083156131ff5782516000036131f8576001600160a01b0385163b6131f85760405162461bcd60e51b815260206004820152601d60248201527f416464726573733a2063616c6c20746f206e6f6e2d636f6e7472616374000000604482015260640161058e565b50816130d3565b6130d383838151156132145781518083602001fd5b8060405162461bcd60e51b815260040161058e9190614500565b6001600160a01b03811681146108c957600080fd5b8035611aa98161322e565b60006020828403121561326057600080fd5b813561326b8161322e565b9392505050565b60008060006040848603121561328757600080fd5b83356132928161322e565b925060208401356001600160401b03808211156132ae57600080fd5b818601915086601f8301126132c257600080fd5b8135818111156132d157600080fd5b8760208260051b85010111156132e657600080fd5b6020830194508093505050509250925092565b60ff811681146108c957600080fd5b8035611aa9816132f9565b60006020828403121561332557600080fd5b813561326b816132f9565b6000610120828403121561334357600080fd5b50919050565b60006020828403121561335b57600080fd5b81356001600160401b0381111561337157600080fd5b6130d384828501613330565b634e487b7160e01b600052604160045260246000fd5b608081018181106001600160401b03821117156133b2576133b261337d565b60405250565b604081018181106001600160401b03821117156133b2576133b261337d565b606081018181106001600160401b03821117156133b2576133b261337d565b601f8201601f191681016001600160401b038111828210171561341b5761341b61337d565b6040525050565b60006001600160401b0383111561343b5761343b61337d565b604051613452601f8501601f1916602001826133f6565b80915083815284848401111561346757600080fd5b83836020830137600060208583010152509392505050565b6000806040838503121561349257600080fd5b823561349d8161322e565b915060208301356001600160401b038111156134b857600080fd5b8301601f810185136134c957600080fd5b6134d885823560208401613422565b9150509250929050565b6000602082840312156134f457600080fd5b5035919050565b60008083601f84011261350d57600080fd5b5081356001600160401b0381111561352457600080fd5b60208301915083602082850101111561353c57600080fd5b9250929050565b6000806000806060858703121561355957600080fd5b84359350602085013561356b8161322e565b925060408501356001600160401b0381111561358657600080fd5b613592878288016134fb565b95989497509550505050565b6000806000604084860312156135b357600080fd5b83356135be8161322e565b925060208401356001600160401b038111156135d957600080fd5b6135e5868287016134fb565b9497909650939450505050565b6000806020838503121561360557600080fd5b82356001600160401b0381111561361b57600080fd5b613627858286016134fb565b90969095509350505050565b80356001600160701b0381168114611aa957600080fd5b60006040828403121561365c57600080fd5b604051604081018181106001600160401b038211171561367e5761367e61337d565b60405290508061368d83613633565b8152602083013561369d8161322e565b6020919091015292915050565b60006001600160401b038211156136c3576136c361337d565b5060051b60200190565b60006136d8836136aa565b604080516136e683826133f6565b858152925060208084019250600586901b8501908782111561370757600080fd5b855b828110156137c45780356001600160401b03808211156137295760008081fd5b9088019060a0828c03121561373e5760008081fd5b855161374981613393565b82356137548161322e565b8152828501356137638161322e565b818601526137738c84890161364a565b8782015260808301358281111561378a5760008081fd5b8084019350508b601f8401126137a257600091508182fd5b6137b08c8435878601613422565b606082015287525050938101938101613709565b50505050509392505050565b600082601f8301126137e157600080fd5b610a1f838335602085016136cd565b600081830361012081121561380457600080fd5b6040805161381181613393565b809350608083121561382257600080fd5b815161382d816133b8565b85356138388161322e565b81526060601f198501121561384c57600080fd5b82519350613859846133d7565b60208601356138678161322e565b8452858301356138768161322e565b806020860152506060860135838501528360208201528082525061389d866080870161364a565b60208201526138af8660c0870161364a565b8282015261010085013592506001600160401b038311156138cf57600080fd5b6138db868487016137d0565b606082015250505092915050565b6000602082840312156138fb57600080fd5b81356001600160401b0381111561391157600080fd5b6130d3848285016137f0565b60006020828403121561392f57600080fd5b81356001600160401b0381111561394557600080fd5b820160c0818503121561326b57600080fd5b803563ffffffff81168114611aa957600080fd5b60006080828403121561397d57600080fd5b60405161398981613393565b8091508235613997816132f9565b815260206139a6848201613957565b8183015260408401356139b88161322e565b604083015260608401356001600160401b038111156139d657600080fd5b8401601f810186136139e757600080fd5b80356139f2816136aa565b6040516139ff82826133f6565b82815260059290921b8301840191848101915088831115613a1f57600080fd5b928401925b82841015613a46578335613a378161322e565b82529284019290840190613a24565b80606087015250505050505092915050565b600060208284031215613a6a57600080fd5b81356001600160401b03811115613a8057600080fd5b6130d38482850161396b565b60006040828403121561334357600080fd5b6020808252600c908201526b155b985d5d1a1bdc9a5e995960a21b604082015260600190565b81835281816020850137506000828201602090810191909152601f909101601f19169091010190565b6000808335601e19843603018112613b0457600080fd5b83016020810192503590506001600160401b03811115613b2357600080fd5b80360382131561353c57600080fd5b600060608201868352602060018060a01b03871681850152606060408501528185835260808501905060808660051b86010192508660005b87811015613ba457868503607f19018352613b85828a613aed565b613b90878284613ac4565b965050509183019190830190600101613b6a565b50929998505050505050505050565b602080825260149082015273139bdd08185c1c1c9bdd9959081d1bc818d85b1b60621b604082015260600190565b803561ffff81168114611aa957600080fd5b60008235607e19833603018112613c0957600080fd5b90910192915050565b6000808335601e19843603018112613c2957600080fd5b83016020810192503590506001600160401b03811115613c4857600080fd5b8060051b360382131561353c57600080fd5b6000608083018235613c6b816132f9565b60ff168452602063ffffffff613c82858301613957565b16818601526040840135613c958161322e565b6001600160a01b038181166040880152613cb26060870187613c12565b608060608a015294859052939150600060a088015b83821015613cf0578535613cda8161322e565b8316815294840194600191909101908401613cc7565b98975050505050505050565b82815260406020820152613d1d60408201613d1684613308565b60ff169052565b6000613d2b60208401613be1565b61ffff166060830152613d4060408401613be1565b61ffff166080830152613d5560608401613243565b6001600160a01b031660a0830152613d6f60808401613243565b6001600160a01b031660c0830152613d8960a08401613243565b6001600160a01b031660e0830152613da360c08401613243565b610100613dba818501836001600160a01b03169052565b613dc660e08601613633565b9150610120613ddf818601846001600160701b03169052565b613deb82870187613bf3565b9250806101408601525050612987610160840182613c5a565b60008235607e19833603018112613e1a57600080fd5b9190910192915050565b6000610a22368361396b565b60005b83811015613e4b578181015183820152602001613e33565b50506000910152565b60008151808452613e6c816020860160208601613e30565b601f01601f19169290920160200192915050565b8381526001600160a01b038316602082015260606040820181905260009061298790830184613e54565b600060208284031215613ebc57600080fd5b8151801515811461326b57600080fd5b600060208284031215613ede57600080fd5b815161326b816132f9565b85815284602082015260018060a01b0384166040820152608060608201526000613185608083018486613ac4565b8481526001600160a01b0384166020820152606060408201819052600090613f429083018486613ac4565b9695505050505050565b634e487b7160e01b600052601160045260246000fd5b80820180821115610a2257610a22613f4c565b600060208284031215613f8757600080fd5b5051919050565b6000808335601e19843603018112613fa557600080fd5b8301803591506001600160401b03821115613fbf57600080fd5b6020019150600581901b360382131561353c57600080fd5b634e487b7160e01b600052603260045260246000fd5b60008235609e19833603018112613e1a57600080fd5b60006020828403121561401557600080fd5b610a1f82613633565b60208082526030908201527f496e7075742066656520746f6b656e20616d6f756e7420646f6573206e6f742060408201526f6163636f756e7420666f72206665657360801b606082015260800190565b81810381811115610a2257610a22613f4c565b6001600160701b0361409282613633565b16825260208101356140a38161322e565b6001600160a01b03166020929092019190915250565b60006020808352610140830184356140d08161322e565b6001600160a01b0390811685840152604090868401356140ef8161322e565b811686830152868201356141028161322e565b818116606088015250608060608801358188015260a0614126818901838b01614081565b61413660e0890160c08b01614081565b6141446101008a018a613c12565b6101208a81015295869052610160600587901b8a01810196908a01826000805b848110156141f0578d8b0361015f19018452823536879003609e1901811261418a578283fd5b860180356141978161322e565b8a168c52808d01356141a88161322e565b8a168c8e01526141bc8b8d01828d01614081565b6141c889820182613aed565b9150888a8e01526141dc898e018383613ac4565b9c505050928b0192918b0191600101614164565b50989d9c50505050505050505050505050565b600060033d111561421c5760046000803e5060005160e01c5b90565b600060443d101561422d5790565b6040516003193d81016004833e81513d6001600160401b03816024840111818411171561425c57505050505090565b82850191508151818111156142745750505050505090565b843d870101602082850101111561428e5750505050505090565b61429d602082860101876133f6565b509095945050505050565b838152604060208201526000612987604083018486613ac4565b80516001600160701b031682526020908101516001600160a01b0316910152565b6020808252825180516001600160a01b039081168484015290820151805182166040808601919091528184015183166060860152908101516080850152848301516000939261014086019260a061433c818901856142c2565b81890151935061434f60e08901856142c2565b6060898101516101208a810152805196879052610160600588901b8b0181019792965090880191908a019060005b818110156143db578b890361015f190183528351805188168a528a81015188168b8b0152868101516143b1888c01826142c2565b5088015160808a018690526143c88a870182613e54565b995050928901929189019160010161437d565b50969b9a5050505050505050505050565b6000604082840312156143fe57600080fd5b610a1f838361364a565b6000610a1f3684846136cd565b8281526000602060408184015260c0830160ff855116604085015263ffffffff82860151166060850152604085015160018060a01b03808216608087015260608701519150608060a087015282825180855260e0880191508584019450600093505b8084101561449957845183168252938501936001939093019290850190614477565b5098975050505050505050565b8281526060810161ffff806144ba85613be1565b166020840152806144cd60208601613be1565b166040840152509392505050565b6040815260006144ee6040830185613e54565b82810360208401526129878185613e54565b602081526000610a1f6020830184613e54565b6000610a2236836137f0565b6020808252825180516001600160a01b039081168484015290820151805182166040808601919091528184015183166060860152908101516080850152848301516000939261014086019260a0614578818901856142c2565b81890151935061458b60e08901856142c2565b6060898101516101208a810152805196879052610160600588901b8b0181019792965090880191908a019060005b818110156143db578b890361015f190183528351805188168a528a81015188168b8b0152868101516145ed888c01826142c2565b5088015160808a018690526146048a870182613e54565b99505092890192918901916001016145b9565b60408152600061462a6040830185613e54565b90508260208301529392505050565b8082028115828204841417610a2257610a22613f4c565b60008261466d57634e487b7160e01b600052601260045260246000fd5b500490565b60008251613e1a818460208701613e3056fe5472616e7366657272696e67207061727469616c20696e70757420746f6b656e20746f206465767465616d20666f72206661696c757265206761732066656573457374696d6174656420676173207573656420666f722074726164657220676173207061796d656e74547261646520746f6f20736d616c6c2e204368617267696e67206d696e696d756d20666c61742066656543616e6e6f74207265696d62757273652072656c61792073696e636520646f206e6f74206861766520656e6f7567682066756e6473eaae66d228e19ff3fd9a03e3c23ae62eb7fb45b5ce2ee3b6fbdc8dd6b661c81946656520746f6b656e206973206f75747075743b207468657265666f72652063616e6e6f74207265696d6275727365207465616d20666f72206661696c757265206761732066656573a2646970667358221220767cdf4677b823f4974b966e02b2504a468a0ffca12ccb50659555c548527dd564736f6c63430008110033",
  "linkReferences": {
    "contracts/dexible/extensions/SwapExtension.sol": {
      "SwapExtension": [
        {
          "length": 20,
          "start": 6752
        }
      ]
    },
    "contracts/libraries/LibDexible.sol": {
      "LibDexible": [
        {
          "length": 20,
          "start": 1951
        },
        {
          "length": 20,
          "start": 1987
        },
        {
          "length": 20,
          "start": 3815
        },
        {
          "length": 20,
          "start": 8139
        },
        {
          "length": 20,
          "start": 10855
        }
      ]
    },
    "contracts/libraries/LibMultiSig.sol": {
      "LibMultiSig": [
        {
          "length": 20,
          "start": 2939
        },
        {
          "length": 20,
          "start": 3053
        },
        {
          "length": 20,
          "start": 3188
        },
        {
          "length": 20,
          "start": 3387
        },
        {
          "length": 20,
          "start": 3587
        },
        {
          "length": 20,
          "start": 3949
        },
        {
          "length": 20,
          "start": 4068
        },
        {
          "length": 20,
          "start": 5639
        },
        {
          "length": 20,
          "start": 5758
        },
        {
          "length": 20,
          "start": 5911
        },
        {
          "length": 20,
          "start": 6030
        },
        {
          "length": 20,
          "start": 6299
        },
        {
          "length": 20,
          "start": 6515
        },
        {
          "length": 20,
          "start": 7223
        },
        {
          "length": 20,
          "start": 7319
        },
        {
          "length": 20,
          "start": 7400
        },
        {
          "length": 20,
          "start": 7527
        }
      ]
    },
    "contracts/libraries/LibRoleManagement.sol": {
      "LibRoleManagement": [
        {
          "length": 20,
          "start": 1733
        },
        {
          "length": 20,
          "start": 2099
        },
        {
          "length": 20,
          "start": 2388
        },
        {
          "length": 20,
          "start": 2515
        },
        {
          "length": 20,
          "start": 4223
        },
        {
          "length": 20,
          "start": 6437
        },
        {
          "length": 20,
          "start": 8284
        }
      ]
    }
  },
  "deployedLinkReferences": {
    "contracts/dexible/extensions/SwapExtension.sol": {
      "SwapExtension": [
        {
          "length": 20,
          "start": 6720
        }
      ]
    },
    "contracts/libraries/LibDexible.sol": {
      "LibDexible": [
        {
          "length": 20,
          "start": 1919
        },
        {
          "length": 20,
          "start": 1955
        },
        {
          "length": 20,
          "start": 3783
        },
        {
          "length": 20,
          "start": 8107
        },
        {
          "length": 20,
          "start": 10823
        }
      ]
    },
    "contracts/libraries/LibMultiSig.sol": {
      "LibMultiSig": [
        {
          "length": 20,
          "start": 2907
        },
        {
          "length": 20,
          "start": 3021
        },
        {
          "length": 20,
          "start": 3156
        },
        {
          "length": 20,
          "start": 3355
        },
        {
          "length": 20,
          "start": 3555
        },
        {
          "length": 20,
          "start": 3917
        },
        {
          "length": 20,
          "start": 4036
        },
        {
          "length": 20,
          "start": 5607
        },
        {
          "length": 20,
          "start": 5726
        },
        {
          "length": 20,
          "start": 5879
        },
        {
          "length": 20,
          "start": 5998
        },
        {
          "length": 20,
          "start": 6267
        },
        {
          "length": 20,
          "start": 6483
        },
        {
          "length": 20,
          "start": 7191
        },
        {
          "length": 20,
          "start": 7287
        },
        {
          "length": 20,
          "start": 7368
        },
        {
          "length": 20,
          "start": 7495
        }
      ]
    },
    "contracts/libraries/LibRoleManagement.sol": {
      "LibRoleManagement": [
        {
          "length": 20,
          "start": 1701
        },
        {
          "length": 20,
          "start": 2067
        },
        {
          "length": 20,
          "start": 2356
        },
        {
          "length": 20,
          "start": 2483
        },
        {
          "length": 20,
          "start": 4191
        },
        {
          "length": 20,
          "start": 6405
        },
        {
          "length": 20,
          "start": 8252
        }
      ]
    }
  }
}