{
  "_format": "hh-sol-artifact-1",
  "contractName": "Dexible",
  "sourceName": "contracts/dexible/Dexible.sol",
  "abi": [
    {
      "inputs": [
        {
          "components": [
            {
              "internalType": "uint8",
              "name": "revshareSplitRatio",
              "type": "uint8"
            },
            {
              "internalType": "uint16",
              "name": "stdBpsRate",
              "type": "uint16"
            },
            {
              "internalType": "uint16",
              "name": "minBpsRate",
              "type": "uint16"
            },
            {
              "internalType": "address",
              "name": "adminMultiSig",
              "type": "address"
            },
            {
              "internalType": "address",
              "name": "communityVault",
              "type": "address"
            },
            {
              "internalType": "address",
              "name": "treasury",
              "type": "address"
            },
            {
              "internalType": "address",
              "name": "dxblToken",
              "type": "address"
            },
            {
              "internalType": "address",
              "name": "arbGasOracle",
              "type": "address"
            },
            {
              "internalType": "uint112",
              "name": "minFeeUSD",
              "type": "uint112"
            },
            {
              "internalType": "address[]",
              "name": "initialRelays",
              "type": "address[]"
            }
          ],
          "internalType": "struct DexibleStorage.DexibleConfig",
          "name": "config",
          "type": "tuple"
        }
      ],
      "stateMutability": "nonpayable",
      "type": "constructor"
    },
    {
      "anonymous": false,
      "inputs": [
        {
          "indexed": true,
          "internalType": "address",
          "name": "affiliate",
          "type": "address"
        },
        {
          "indexed": false,
          "internalType": "address",
          "name": "token",
          "type": "address"
        },
        {
          "indexed": false,
          "internalType": "uint256",
          "name": "amount",
          "type": "uint256"
        }
      ],
      "name": "AffiliatePaid",
      "type": "event"
    },
    {
      "anonymous": false,
      "inputs": [
        {
          "indexed": false,
          "internalType": "address",
          "name": "newVault",
          "type": "address"
        }
      ],
      "name": "ArbGasOracleChanged",
      "type": "event"
    },
    {
      "anonymous": false,
      "inputs": [
        {
          "indexed": false,
          "internalType": "uint32",
          "name": "stdRate",
          "type": "uint32"
        },
        {
          "indexed": false,
          "internalType": "uint32",
          "name": "minRate",
          "type": "uint32"
        }
      ],
      "name": "ChangedBpsRates",
      "type": "event"
    },
    {
      "anonymous": false,
      "inputs": [
        {
          "indexed": false,
          "internalType": "uint8",
          "name": "split",
          "type": "uint8"
        }
      ],
      "name": "ChangedRevshareSplit",
      "type": "event"
    },
    {
      "anonymous": false,
      "inputs": [
        {
          "indexed": true,
          "internalType": "address",
          "name": "old",
          "type": "address"
        },
        {
          "indexed": true,
          "internalType": "address",
          "name": "newRevshare",
          "type": "address"
        }
      ],
      "name": "ChangedRevshareVault",
      "type": "event"
    },
    {
      "anonymous": false,
      "inputs": [
        {
          "components": [
            {
              "internalType": "uint8",
              "name": "revshareSplitRatio",
              "type": "uint8"
            },
            {
              "internalType": "uint16",
              "name": "stdBpsRate",
              "type": "uint16"
            },
            {
              "internalType": "uint16",
              "name": "minBpsRate",
              "type": "uint16"
            },
            {
              "internalType": "address",
              "name": "adminMultiSig",
              "type": "address"
            },
            {
              "internalType": "address",
              "name": "communityVault",
              "type": "address"
            },
            {
              "internalType": "address",
              "name": "treasury",
              "type": "address"
            },
            {
              "internalType": "address",
              "name": "dxblToken",
              "type": "address"
            },
            {
              "internalType": "address",
              "name": "arbGasOracle",
              "type": "address"
            },
            {
              "internalType": "uint112",
              "name": "minFeeUSD",
              "type": "uint112"
            },
            {
              "internalType": "address[]",
              "name": "initialRelays",
              "type": "address[]"
            }
          ],
          "indexed": false,
          "internalType": "struct DexibleStorage.DexibleConfig",
          "name": "config",
          "type": "tuple"
        }
      ],
      "name": "ConfigChanged",
      "type": "event"
    },
    {
      "anonymous": false,
      "inputs": [
        {
          "indexed": true,
          "internalType": "address",
          "name": "relay",
          "type": "address"
        },
        {
          "indexed": false,
          "internalType": "uint256",
          "name": "amount",
          "type": "uint256"
        }
      ],
      "name": "InsufficientGasFunds",
      "type": "event"
    },
    {
      "anonymous": false,
      "inputs": [
        {
          "indexed": false,
          "internalType": "uint16",
          "name": "newRate",
          "type": "uint16"
        }
      ],
      "name": "MinBpsChanged",
      "type": "event"
    },
    {
      "anonymous": false,
      "inputs": [
        {
          "indexed": false,
          "internalType": "uint112",
          "name": "newMin",
          "type": "uint112"
        }
      ],
      "name": "MinFeeChanged",
      "type": "event"
    },
    {
      "anonymous": false,
      "inputs": [
        {
          "indexed": true,
          "internalType": "address",
          "name": "relay",
          "type": "address"
        },
        {
          "indexed": false,
          "internalType": "uint256",
          "name": "amount",
          "type": "uint256"
        }
      ],
      "name": "PaidGasFunds",
      "type": "event"
    },
    {
      "anonymous": false,
      "inputs": [],
      "name": "Paused",
      "type": "event"
    },
    {
      "anonymous": false,
      "inputs": [
        {
          "indexed": false,
          "internalType": "address",
          "name": "from",
          "type": "address"
        },
        {
          "indexed": false,
          "internalType": "uint256",
          "name": "amount",
          "type": "uint256"
        }
      ],
      "name": "ReceivedFunds",
      "type": "event"
    },
    {
      "anonymous": false,
      "inputs": [
        {
          "indexed": false,
          "internalType": "address",
          "name": "relay",
          "type": "address"
        }
      ],
      "name": "RelayAdded",
      "type": "event"
    },
    {
      "anonymous": false,
      "inputs": [
        {
          "indexed": false,
          "internalType": "address",
          "name": "relay",
          "type": "address"
        }
      ],
      "name": "RelayRemoved",
      "type": "event"
    },
    {
      "anonymous": false,
      "inputs": [],
      "name": "Resumed",
      "type": "event"
    },
    {
      "anonymous": false,
      "inputs": [
        {
          "indexed": false,
          "internalType": "uint8",
          "name": "newRate",
          "type": "uint8"
        }
      ],
      "name": "SplitRatioChanged",
      "type": "event"
    },
    {
      "anonymous": false,
      "inputs": [
        {
          "indexed": false,
          "internalType": "uint16",
          "name": "newRate",
          "type": "uint16"
        }
      ],
      "name": "StdBpsChanged",
      "type": "event"
    },
    {
      "anonymous": false,
      "inputs": [
        {
          "indexed": true,
          "internalType": "address",
          "name": "trader",
          "type": "address"
        },
        {
          "indexed": false,
          "internalType": "address",
          "name": "feeToken",
          "type": "address"
        },
        {
          "indexed": false,
          "internalType": "uint256",
          "name": "gasFeePaid",
          "type": "uint256"
        }
      ],
      "name": "SwapFailed",
      "type": "event"
    },
    {
      "anonymous": false,
      "inputs": [
        {
          "indexed": true,
          "internalType": "address",
          "name": "trader",
          "type": "address"
        },
        {
          "indexed": true,
          "internalType": "address",
          "name": "affiliate",
          "type": "address"
        },
        {
          "indexed": false,
          "internalType": "uint256",
          "name": "inputAmount",
          "type": "uint256"
        },
        {
          "indexed": false,
          "internalType": "uint256",
          "name": "outputAmount",
          "type": "uint256"
        },
        {
          "indexed": false,
          "internalType": "address",
          "name": "feeToken",
          "type": "address"
        },
        {
          "indexed": false,
          "internalType": "uint256",
          "name": "gasFee",
          "type": "uint256"
        },
        {
          "indexed": false,
          "internalType": "uint256",
          "name": "affiliateFee",
          "type": "uint256"
        },
        {
          "indexed": false,
          "internalType": "uint256",
          "name": "dexibleFee",
          "type": "uint256"
        }
      ],
      "name": "SwapSuccess",
      "type": "event"
    },
    {
      "anonymous": false,
      "inputs": [
        {
          "indexed": false,
          "internalType": "address",
          "name": "newTreasury",
          "type": "address"
        }
      ],
      "name": "TreasuryChanged",
      "type": "event"
    },
    {
      "anonymous": false,
      "inputs": [
        {
          "indexed": false,
          "internalType": "address",
          "name": "newVault",
          "type": "address"
        }
      ],
      "name": "VaultChanged",
      "type": "event"
    },
    {
      "anonymous": false,
      "inputs": [
        {
          "indexed": true,
          "internalType": "address",
          "name": "admin",
          "type": "address"
        },
        {
          "indexed": false,
          "internalType": "uint256",
          "name": "amount",
          "type": "uint256"
        }
      ],
      "name": "WithdrewETH",
      "type": "event"
    },
    {
      "inputs": [
        {
          "internalType": "address[]",
          "name": "relays",
          "type": "address[]"
        }
      ],
      "name": "addRelays",
      "outputs": [],
      "stateMutability": "nonpayable",
      "type": "function"
    },
    {
      "inputs": [],
      "name": "adminMultiSig",
      "outputs": [
        {
          "internalType": "address",
          "name": "",
          "type": "address"
        }
      ],
      "stateMutability": "view",
      "type": "function"
    },
    {
      "inputs": [],
      "name": "arbitrumGasOracle",
      "outputs": [
        {
          "internalType": "address",
          "name": "",
          "type": "address"
        }
      ],
      "stateMutability": "view",
      "type": "function"
    },
    {
      "inputs": [],
      "name": "communityVault",
      "outputs": [
        {
          "internalType": "address",
          "name": "",
          "type": "address"
        }
      ],
      "stateMutability": "view",
      "type": "function"
    },
    {
      "inputs": [
        {
          "components": [
            {
              "internalType": "uint8",
              "name": "revshareSplitRatio",
              "type": "uint8"
            },
            {
              "internalType": "uint16",
              "name": "stdBpsRate",
              "type": "uint16"
            },
            {
              "internalType": "uint16",
              "name": "minBpsRate",
              "type": "uint16"
            },
            {
              "internalType": "address",
              "name": "adminMultiSig",
              "type": "address"
            },
            {
              "internalType": "address",
              "name": "communityVault",
              "type": "address"
            },
            {
              "internalType": "address",
              "name": "treasury",
              "type": "address"
            },
            {
              "internalType": "address",
              "name": "dxblToken",
              "type": "address"
            },
            {
              "internalType": "address",
              "name": "arbGasOracle",
              "type": "address"
            },
            {
              "internalType": "uint112",
              "name": "minFeeUSD",
              "type": "uint112"
            },
            {
              "internalType": "address[]",
              "name": "initialRelays",
              "type": "address[]"
            }
          ],
          "internalType": "struct DexibleStorage.DexibleConfig",
          "name": "config",
          "type": "tuple"
        }
      ],
      "name": "configure",
      "outputs": [],
      "stateMutability": "nonpayable",
      "type": "function"
    },
    {
      "inputs": [],
      "name": "dxblToken",
      "outputs": [
        {
          "internalType": "address",
          "name": "",
          "type": "address"
        }
      ],
      "stateMutability": "view",
      "type": "function"
    },
    {
      "inputs": [
        {
          "components": [
            {
              "components": [
                {
                  "internalType": "address",
                  "name": "requester",
                  "type": "address"
                },
                {
                  "components": [
                    {
                      "internalType": "contract IERC20",
                      "name": "feeToken",
                      "type": "address"
                    },
                    {
                      "internalType": "address",
                      "name": "affiliate",
                      "type": "address"
                    },
                    {
                      "internalType": "uint256",
                      "name": "affiliatePortion",
                      "type": "uint256"
                    }
                  ],
                  "internalType": "struct ExecutionTypes.FeeDetails",
                  "name": "fee",
                  "type": "tuple"
                }
              ],
              "internalType": "struct ExecutionTypes.ExecutionRequest",
              "name": "executionRequest",
              "type": "tuple"
            },
            {
              "components": [
                {
                  "internalType": "uint112",
                  "name": "amount",
                  "type": "uint112"
                },
                {
                  "internalType": "contract IERC20",
                  "name": "token",
                  "type": "address"
                }
              ],
              "internalType": "struct TokenTypes.TokenAmount",
              "name": "tokenIn",
              "type": "tuple"
            },
            {
              "components": [
                {
                  "internalType": "uint112",
                  "name": "amount",
                  "type": "uint112"
                },
                {
                  "internalType": "contract IERC20",
                  "name": "token",
                  "type": "address"
                }
              ],
              "internalType": "struct TokenTypes.TokenAmount",
              "name": "tokenOut",
              "type": "tuple"
            },
            {
              "components": [
                {
                  "internalType": "address",
                  "name": "router",
                  "type": "address"
                },
                {
                  "internalType": "address",
                  "name": "spender",
                  "type": "address"
                },
                {
                  "components": [
                    {
                      "internalType": "uint112",
                      "name": "amount",
                      "type": "uint112"
                    },
                    {
                      "internalType": "contract IERC20",
                      "name": "token",
                      "type": "address"
                    }
                  ],
                  "internalType": "struct TokenTypes.TokenAmount",
                  "name": "routeAmount",
                  "type": "tuple"
                },
                {
                  "internalType": "bytes",
                  "name": "routerData",
                  "type": "bytes"
                }
              ],
              "internalType": "struct SwapTypes.RouterRequest[]",
              "name": "routes",
              "type": "tuple[]"
            }
          ],
          "internalType": "struct SwapTypes.SwapRequest",
          "name": "request",
          "type": "tuple"
        },
        {
          "components": [
            {
              "internalType": "bool",
              "name": "feeIsInput",
              "type": "bool"
            },
            {
              "internalType": "bool",
              "name": "isSelfSwap",
              "type": "bool"
            },
            {
              "internalType": "address",
              "name": "preSwapVault",
              "type": "address"
            },
            {
              "internalType": "uint256",
              "name": "startGas",
              "type": "uint256"
            },
            {
              "internalType": "uint256",
              "name": "toProtocol",
              "type": "uint256"
            },
            {
              "internalType": "uint256",
              "name": "toRevshare",
              "type": "uint256"
            },
            {
              "internalType": "uint256",
              "name": "outToTrader",
              "type": "uint256"
            },
            {
              "internalType": "uint256",
              "name": "outAmount",
              "type": "uint256"
            },
            {
              "internalType": "uint256",
              "name": "bpsAmount",
              "type": "uint256"
            },
            {
              "internalType": "uint256",
              "name": "gasAmount",
              "type": "uint256"
            },
            {
              "internalType": "uint256",
              "name": "nativeGasAmount",
              "type": "uint256"
            },
            {
              "internalType": "uint256",
              "name": "preDXBLBalance",
              "type": "uint256"
            },
            {
              "internalType": "uint256",
              "name": "inputAmountDue",
              "type": "uint256"
            }
          ],
          "internalType": "struct SwapHandler.SwapMeta",
          "name": "meta",
          "type": "tuple"
        }
      ],
      "name": "fill",
      "outputs": [
        {
          "components": [
            {
              "internalType": "bool",
              "name": "feeIsInput",
              "type": "bool"
            },
            {
              "internalType": "bool",
              "name": "isSelfSwap",
              "type": "bool"
            },
            {
              "internalType": "address",
              "name": "preSwapVault",
              "type": "address"
            },
            {
              "internalType": "uint256",
              "name": "startGas",
              "type": "uint256"
            },
            {
              "internalType": "uint256",
              "name": "toProtocol",
              "type": "uint256"
            },
            {
              "internalType": "uint256",
              "name": "toRevshare",
              "type": "uint256"
            },
            {
              "internalType": "uint256",
              "name": "outToTrader",
              "type": "uint256"
            },
            {
              "internalType": "uint256",
              "name": "outAmount",
              "type": "uint256"
            },
            {
              "internalType": "uint256",
              "name": "bpsAmount",
              "type": "uint256"
            },
            {
              "internalType": "uint256",
              "name": "gasAmount",
              "type": "uint256"
            },
            {
              "internalType": "uint256",
              "name": "nativeGasAmount",
              "type": "uint256"
            },
            {
              "internalType": "uint256",
              "name": "preDXBLBalance",
              "type": "uint256"
            },
            {
              "internalType": "uint256",
              "name": "inputAmountDue",
              "type": "uint256"
            }
          ],
          "internalType": "struct SwapHandler.SwapMeta",
          "name": "",
          "type": "tuple"
        }
      ],
      "stateMutability": "nonpayable",
      "type": "function"
    },
    {
      "inputs": [],
      "name": "minBpsRate",
      "outputs": [
        {
          "internalType": "uint16",
          "name": "",
          "type": "uint16"
        }
      ],
      "stateMutability": "view",
      "type": "function"
    },
    {
      "inputs": [],
      "name": "minFeeUSD",
      "outputs": [
        {
          "internalType": "uint112",
          "name": "",
          "type": "uint112"
        }
      ],
      "stateMutability": "view",
      "type": "function"
    },
    {
      "inputs": [],
      "name": "pause",
      "outputs": [],
      "stateMutability": "nonpayable",
      "type": "function"
    },
    {
      "inputs": [
        {
          "internalType": "address",
          "name": "relay",
          "type": "address"
        }
      ],
      "name": "removeRelay",
      "outputs": [],
      "stateMutability": "nonpayable",
      "type": "function"
    },
    {
      "inputs": [],
      "name": "resume",
      "outputs": [],
      "stateMutability": "nonpayable",
      "type": "function"
    },
    {
      "inputs": [],
      "name": "revshareSplitRatio",
      "outputs": [
        {
          "internalType": "uint8",
          "name": "",
          "type": "uint8"
        }
      ],
      "stateMutability": "view",
      "type": "function"
    },
    {
      "inputs": [
        {
          "components": [
            {
              "internalType": "contract IERC20",
              "name": "feeToken",
              "type": "address"
            },
            {
              "components": [
                {
                  "internalType": "uint112",
                  "name": "amount",
                  "type": "uint112"
                },
                {
                  "internalType": "contract IERC20",
                  "name": "token",
                  "type": "address"
                }
              ],
              "internalType": "struct TokenTypes.TokenAmount",
              "name": "tokenIn",
              "type": "tuple"
            },
            {
              "components": [
                {
                  "internalType": "uint112",
                  "name": "amount",
                  "type": "uint112"
                },
                {
                  "internalType": "contract IERC20",
                  "name": "token",
                  "type": "address"
                }
              ],
              "internalType": "struct TokenTypes.TokenAmount",
              "name": "tokenOut",
              "type": "tuple"
            },
            {
              "components": [
                {
                  "internalType": "address",
                  "name": "router",
                  "type": "address"
                },
                {
                  "internalType": "address",
                  "name": "spender",
                  "type": "address"
                },
                {
                  "components": [
                    {
                      "internalType": "uint112",
                      "name": "amount",
                      "type": "uint112"
                    },
                    {
                      "internalType": "contract IERC20",
                      "name": "token",
                      "type": "address"
                    }
                  ],
                  "internalType": "struct TokenTypes.TokenAmount",
                  "name": "routeAmount",
                  "type": "tuple"
                },
                {
                  "internalType": "bytes",
                  "name": "routerData",
                  "type": "bytes"
                }
              ],
              "internalType": "struct SwapTypes.RouterRequest[]",
              "name": "routes",
              "type": "tuple[]"
            }
          ],
          "internalType": "struct SwapTypes.SelfSwap",
          "name": "request",
          "type": "tuple"
        }
      ],
      "name": "selfSwap",
      "outputs": [],
      "stateMutability": "nonpayable",
      "type": "function"
    },
    {
      "inputs": [
        {
          "internalType": "contract IArbitrumGasOracle",
          "name": "oracle",
          "type": "address"
        }
      ],
      "name": "setArbitrumGasOracle",
      "outputs": [],
      "stateMutability": "nonpayable",
      "type": "function"
    },
    {
      "inputs": [
        {
          "internalType": "contract ICommunityVault",
          "name": "vault",
          "type": "address"
        }
      ],
      "name": "setCommunityVault",
      "outputs": [],
      "stateMutability": "nonpayable",
      "type": "function"
    },
    {
      "inputs": [
        {
          "internalType": "uint16",
          "name": "bps",
          "type": "uint16"
        }
      ],
      "name": "setMinBpsRate",
      "outputs": [],
      "stateMutability": "nonpayable",
      "type": "function"
    },
    {
      "inputs": [
        {
          "internalType": "uint112",
          "name": "minFee",
          "type": "uint112"
        }
      ],
      "name": "setMinFeeUSD",
      "outputs": [],
      "stateMutability": "nonpayable",
      "type": "function"
    },
    {
      "inputs": [
        {
          "internalType": "uint8",
          "name": "bps",
          "type": "uint8"
        }
      ],
      "name": "setRevshareSplitRatio",
      "outputs": [],
      "stateMutability": "nonpayable",
      "type": "function"
    },
    {
      "inputs": [
        {
          "internalType": "uint16",
          "name": "bps",
          "type": "uint16"
        }
      ],
      "name": "setStdBpsRate",
      "outputs": [],
      "stateMutability": "nonpayable",
      "type": "function"
    },
    {
      "inputs": [
        {
          "internalType": "address",
          "name": "t",
          "type": "address"
        }
      ],
      "name": "setTreasury",
      "outputs": [],
      "stateMutability": "nonpayable",
      "type": "function"
    },
    {
      "inputs": [],
      "name": "stdBpsRate",
      "outputs": [
        {
          "internalType": "uint16",
          "name": "",
          "type": "uint16"
        }
      ],
      "stateMutability": "view",
      "type": "function"
    },
    {
      "inputs": [
        {
          "components": [
            {
              "components": [
                {
                  "internalType": "address",
                  "name": "requester",
                  "type": "address"
                },
                {
                  "components": [
                    {
                      "internalType": "contract IERC20",
                      "name": "feeToken",
                      "type": "address"
                    },
                    {
                      "internalType": "address",
                      "name": "affiliate",
                      "type": "address"
                    },
                    {
                      "internalType": "uint256",
                      "name": "affiliatePortion",
                      "type": "uint256"
                    }
                  ],
                  "internalType": "struct ExecutionTypes.FeeDetails",
                  "name": "fee",
                  "type": "tuple"
                }
              ],
              "internalType": "struct ExecutionTypes.ExecutionRequest",
              "name": "executionRequest",
              "type": "tuple"
            },
            {
              "components": [
                {
                  "internalType": "uint112",
                  "name": "amount",
                  "type": "uint112"
                },
                {
                  "internalType": "contract IERC20",
                  "name": "token",
                  "type": "address"
                }
              ],
              "internalType": "struct TokenTypes.TokenAmount",
              "name": "tokenIn",
              "type": "tuple"
            },
            {
              "components": [
                {
                  "internalType": "uint112",
                  "name": "amount",
                  "type": "uint112"
                },
                {
                  "internalType": "contract IERC20",
                  "name": "token",
                  "type": "address"
                }
              ],
              "internalType": "struct TokenTypes.TokenAmount",
              "name": "tokenOut",
              "type": "tuple"
            },
            {
              "components": [
                {
                  "internalType": "address",
                  "name": "router",
                  "type": "address"
                },
                {
                  "internalType": "address",
                  "name": "spender",
                  "type": "address"
                },
                {
                  "components": [
                    {
                      "internalType": "uint112",
                      "name": "amount",
                      "type": "uint112"
                    },
                    {
                      "internalType": "contract IERC20",
                      "name": "token",
                      "type": "address"
                    }
                  ],
                  "internalType": "struct TokenTypes.TokenAmount",
                  "name": "routeAmount",
                  "type": "tuple"
                },
                {
                  "internalType": "bytes",
                  "name": "routerData",
                  "type": "bytes"
                }
              ],
              "internalType": "struct SwapTypes.RouterRequest[]",
              "name": "routes",
              "type": "tuple[]"
            }
          ],
          "internalType": "struct SwapTypes.SwapRequest",
          "name": "request",
          "type": "tuple"
        }
      ],
      "name": "swap",
      "outputs": [],
      "stateMutability": "nonpayable",
      "type": "function"
    },
    {
      "inputs": [],
      "name": "treasury",
      "outputs": [
        {
          "internalType": "address",
          "name": "",
          "type": "address"
        }
      ],
      "stateMutability": "view",
      "type": "function"
    },
    {
      "inputs": [
        {
          "internalType": "uint256",
          "name": "amount",
          "type": "uint256"
        }
      ],
      "name": "withdraw",
      "outputs": [],
      "stateMutability": "nonpayable",
      "type": "function"
    },
    {
      "stateMutability": "payable",
      "type": "receive"
    }
  ],
  "bytecode": "0x60806040523480156200001157600080fd5b5060405162004e4838038062004e4883398101604081905262000034916200066b565b6200003f8162000046565b5062000904565b60006200005d620004fe60201b6200198c1760201c565b60038101549091506001600160a01b031615620000c55760038101546001600160a01b03163314620000c55760405162461bcd60e51b815260206004820152600c60248201526b155b985d5d1a1bdc9a5e995960a21b60448201526064015b60405180910390fd5b60808201516001600160a01b0316620001215760405162461bcd60e51b815260206004820152601e60248201527f496e76616c696420436f6d6d756e6974795661756c74206164647265737300006044820152606401620000bc565b60a08201516001600160a01b0316620001705760405162461bcd60e51b815260206004820152601060248201526f496e76616c696420747265617375727960801b6044820152606401620000bc565b60c08201516001600160a01b0316620001cc5760405162461bcd60e51b815260206004820152601a60248201527f496e76616c6964204458424c20746f6b656e20616464726573730000000000006044820152606401620000bc565b815160ff166200021f5760405162461bcd60e51b815260206004820152601c60248201527f496e76616c69642072657673686172652073706c697420726174696f000000006044820152606401620000bc565b6000826020015161ffff1611620002855760405162461bcd60e51b8152602060048201526024808201527f4d7573742070726f766964652061207374616e646172642062707320666565206044820152637261746560e01b6064820152608401620000bc565b6000826040015161ffff1611620002df5760405162461bcd60e51b815260206004820152601660248201527f6d696e42707352617465206973207265717569726564000000000000000000006044820152606401620000bc565b816020015161ffff16826040015161ffff16106200034b5760405162461bcd60e51b815260206004820152602260248201527f4d696e206270732072617465206d757374206265206c657373207468616e20736044820152611d1960f21b6064820152608401620000bc565b60608201516003820180546001600160a01b03199081166001600160a01b0393841617909155835183546080860151600186018054851691861691909117905560a0860151600286018054851691861691909117905560c08601516004860180548516918616919091179055602086015160408701516101008089015163ffffff001990941660ff9095160263ffff00001916939093176201000061ffff9283160217600160201b600160a01b0319166401000000009190931602600160301b600160a01b0319169190911766010000000000006001600160701b039092169190910217835560e0840151600584018054909216921691909117905560005b82610120015151811015620004c057600182600601600085610120015184815181106200047b576200047b62000790565b6020908102919091018101516001600160a01b03168252810191909152604001600020805460ff1916911515919091179055620004b881620007a6565b90506200044a565b507f1d02011e7f3a841ec395a4a3b35857537c65b1a89993ae2fa0e3618d9e2a306b82604051620004f2919062000814565b60405180910390a15050565b7f949817a987a8e038ef345d3c9d4fd28e49d8e4e09456e57c05a8b2ce2e62866c90565b634e487b7160e01b600052604160045260246000fd5b60405161014081016001600160401b03811182821017156200055e576200055e62000522565b60405290565b805160ff811681146200057657600080fd5b919050565b805161ffff811681146200057657600080fd5b80516001600160a01b03811681146200057657600080fd5b80516001600160701b03811681146200057657600080fd5b600082601f830112620005d057600080fd5b815160206001600160401b0380831115620005ef57620005ef62000522565b8260051b604051601f19603f8301168101818110848211171562000617576200061762000522565b6040529384528581018301938381019250878511156200063657600080fd5b83870191505b84821015620006605762000650826200058e565b835291830191908301906200063c565b979650505050505050565b6000602082840312156200067e57600080fd5b81516001600160401b03808211156200069657600080fd5b908301906101408286031215620006ac57600080fd5b620006b662000538565b620006c18362000564565b8152620006d1602084016200057b565b6020820152620006e4604084016200057b565b6040820152620006f7606084016200058e565b60608201526200070a608084016200058e565b60808201526200071d60a084016200058e565b60a08201526200073060c084016200058e565b60c08201526200074360e084016200058e565b60e082015261010062000758818501620005a6565b9082015261012083810151838111156200077157600080fd5b6200077f88828701620005be565b918301919091525095945050505050565b634e487b7160e01b600052603260045260246000fd5b600060018201620007c757634e487b7160e01b600052601160045260246000fd5b5060010190565b600081518084526020808501945080840160005b83811015620008095781516001600160a01b031687529582019590820190600101620007e2565b509495945050505050565b602081526200082960208201835160ff169052565b6000602083015162000841604084018261ffff169052565b50604083015161ffff811660608401525060608301516001600160a01b03811660808401525060808301516001600160a01b03811660a08401525060a08301516001600160a01b03811660c08401525060c08301516001600160a01b03811660e08401525060e0830151610100620008c3818501836001600160a01b03169052565b8401519050610120620008e0848201836001600160701b03169052565b840151610140848101529050620008fc610160840182620007ce565b949350505050565b61453480620009146000396000f3fe60806040526004361061015a5760003560e01c8063602dd026116100c1578063bb6f0ece1161007a578063bb6f0ece146103d3578063c3d718a4146103f3578063cd151e9a14610413578063d8544cf314610433578063dd81eb9814610453578063f0f4426014610468578063f3390c3a1461048857600080fd5b8063602dd0261461033f57806361d027b31461035f57806376a13636146103745780638456cb59146103895780638c47ea8e1461039e578063bb471234146103be57600080fd5b806340d925b11161011357806340d925b11461027457806345c6a874146102945780634e0bb8cc146102b657806352ac8616146102e357806353e978681461030a5780635d745b8f1461031f57600080fd5b8063046f7da21461019f5780631725d82f146101b657806324b40c92146101d65780632e1a7d4d146101f65780633564209b14610216578063370fb45b1461024c57600080fd5b3661019a577f5741979df5f3e491501da74d3b0a83dd2496ab1f34929865b3e190a8ad75859a333460405161019092919061310f565b60405180910390a1005b600080fd5b3480156101ab57600080fd5b506101b46104a8565b005b3480156101c257600080fd5b506101b46101d1366004613147565b610528565b3480156101e257600080fd5b506101b46101f1366004613176565b6105b0565b34801561020257600080fd5b506101b4610211366004613191565b610638565b34801561022257600080fd5b506102366102313660046132f4565b610700565b6040516102439190613496565b60405180910390f35b34801561025857600080fd5b50610261610b43565b60405161ffff9091168152602001610243565b34801561028057600080fd5b506101b461028f3660046134a5565b610b5e565b3480156102a057600080fd5b506102a9610c72565b6040516102439190613519565b3480156102c257600080fd5b506102cb610c8e565b6040516001600160701b039091168152602001610243565b3480156102ef57600080fd5b506102f8610cae565b60405160ff9091168152602001610243565b34801561031657600080fd5b506102a9610cc6565b34801561032b57600080fd5b506101b461033a366004613176565b610ce2565b34801561034b57600080fd5b506101b461035a36600461352d565b610d67565b34801561036b57600080fd5b506102a9610f71565b34801561038057600080fd5b506102a9610f8d565b34801561039557600080fd5b506101b4610fa9565b3480156103aa57600080fd5b506101b46103b9366004613578565b611020565b3480156103ca57600080fd5b506102616110b1565b3480156103df57600080fd5b506101b46103ee36600461362a565b6110cb565b3480156103ff57600080fd5b506101b461040e366004613735565b61152f565b34801561041f57600080fd5b506101b461042e36600461376f565b6116fb565b34801561043f57600080fd5b506101b461044e36600461376f565b61178d565b34801561045f57600080fd5b506102a9611856565b34801561047457600080fd5b506101b461048336600461376f565b611872565b34801561049457600080fd5b506101b46104a336600461376f565b6118ff565b6104b061198c565b600301546001600160a01b031633146104e45760405162461bcd60e51b81526004016104db9061378c565b60405180910390fd5b60006104ee61198c565b805460ff19169115159190911790556040517f62451d457bc659158be6e6247f56ec1df424a5c7597f71c20c2bc44e0965c8f990600090a1565b61053061198c565b600301546001600160a01b0316331461055b5760405162461bcd60e51b81526004016104db9061378c565b8061056461198c565b805461ff00191661010060ff9384160217905560405190821681527fc08e3d70cd07fcbefc6065b4c1de14af045aef558d499e3d132d6b9aa13fdc4c906020015b60405180910390a150565b6105b861198c565b600301546001600160a01b031633146105e35760405162461bcd60e51b81526004016104db9061378c565b806105ec61198c565b805465ffff000000001916600160201b61ffff9384160217905560405190821681527f0cc243ac5a88993148aefaa9f320f7d51555727982cb97b5502e4de3a296ff50906020016105a5565b61064061198c565b600301546001600160a01b0316331461066b5760405162461bcd60e51b81526004016104db9061378c565b6040513390819083156108fc029084906000818181858888f193505050506106c75760405162461bcd60e51b815260206004820152600f60248201526e151c985b9cd9995c8819985a5b1959608a1b60448201526064016104db565b60405182815233907faa21a47bc8f0df1a253be34a945b1d0a8f458e4da029c0ab59c1fee1e488c0669060200160405180910390a25050565b610778604051806101a0016040528060001515815260200160001515815260200160006001600160a01b03168152602001600081526020016000815260200160008152602001600081526020016000815260200160008152602001600081526020016000815260200160008152602001600081525090565b3330146107c75760405162461bcd60e51b815260206004820152601d60248201527f4f6e6c7920616c6c6f77656420617320696e7465726e616c2063616c6c00000060448201526064016104db565b6107d183836119b0565b6107e2610100840160e0850161376f565b6001600160a01b03166370a08231306040518263ffffffff1660e01b815260040161080d9190613519565b602060405180830381865afa15801561082a573d6000803e3d6000fd5b505050506040513d601f19601f8201168201806040525081019061084e91906137b2565b60e083015260005b6108646101008501856137cb565b90508110156109b6573661087c6101008601866137cb565b8381811061088c5761088c61381b565b905060200281019061089e9190613831565b90506108ec6108b3604083016020840161376f565b6108c36060840160408501613578565b6001600160701b03166108dc608085016060860161376f565b6001600160a01b03169190611c6a565b60006108fb602083018361376f565b6001600160a01b03166109116080840184613851565b60405161091f929190613897565b6000604051808303816000865af19150503d806000811461095c576040519150601f19603f3d011682016040523d82523d6000602084013e610961565b606091505b50509050806109a35760405162461bcd60e51b815260206004820152600e60248201526d04661696c656420746f20737761760941b60448201526064016104db565b5050806109af906138bd565b9050610856565b5060006109ca610100850160e0860161376f565b6001600160a01b03166370a08231306040518263ffffffff1660e01b81526004016109f59190613519565b602060405180830381865afa158015610a12573d6000803e3d6000fd5b505050506040513d601f19601f82011682018060405250810190610a3691906137b2565b9050808360e001511015610a5d5760e0830151610a5390826138d6565b60e0840152610a65565b600060e08401525b604080518082019091526008815267115e1c1958dd195960c21b6020820152610acc90610a9860e0870160c08801613578565b6001600160701b031660405180604001604052806008815260200167149958d95a5d995960c21b8152508660e00151611da5565b610adc60e0850160c08601613578565b6001600160701b03168360e001511015610b385760405162461bcd60e51b815260206004820152601d60248201527f496e73756666696369656e74206f75747075742067656e65726174656400000060448201526064016104db565b829150505b92915050565b6000610b4d61198c565b54600160201b900461ffff16919050565b610b6661198c565b600301546001600160a01b03163314610b915760405162461bcd60e51b81526004016104db9061378c565b6000610b9b61198c565b905060005b82811015610c6c576001826006016000868685818110610bc257610bc261381b565b9050602002016020810190610bd7919061376f565b6001600160a01b031681526020810191909152604001600020805460ff19169115159190911790557f6e5d136f0d49e354d8ec938c011b6f6a8838e033fd8a740421ee9f914bad24c3848483818110610c3257610c3261381b565b9050602002016020810190610c47919061376f565b604051610c549190613519565b60405180910390a1610c65816138bd565b9050610ba0565b50505050565b6000610c7c61198c565b600301546001600160a01b0316919050565b6000610c9861198c565b54600160301b90046001600160701b0316919050565b6000610cb861198c565b54610100900460ff16919050565b6000610cd061198c565b600101546001600160a01b0316919050565b610cea61198c565b600301546001600160a01b03163314610d155760405162461bcd60e51b81526004016104db9061378c565b80610d1e61198c565b805463ffff000019166201000061ffff9384160217905560405190821681527f3c690423f2b4874693fa467d54b9a22ce2469d86d3ea9a48aabb8479ee5fde9d906020016105a5565b6000610d7161198c565b33600090815260068201602052604090205490915060ff16610dd55760405162461bcd60e51b815260206004820152601a60248201527f4f6e6c792072656c617920616c6c6f77656420746f2063616c6c00000000000060448201526064016104db565b610ddd61198c565b5460ff1615610dfe5760405162461bcd60e51b81526004016104db906138e9565b6000619c405a610e0e9190613920565b604080516101a081018252600080825260208201819052929350908101610e3361198c565b60010160009054906101000a90046001600160a01b03166001600160a01b031681526020018381526020016000815260200160008152602001600081526020016000815260200160008152602001600081526020016000815260200160008152602001600081525090506000306001600160a01b0316633564209b619c405a610ebc91906138d6565b87856040518463ffffffff1660e01b8152600401610edb929190613acd565b6101a06040518083038160008887f193505050508015610f18575060408051601f3d908101601f19168201909252610f1591810190613b9e565b60015b610f5057610f486040518060400160405280600b81526020016a14ddd85c0819985a5b195960aa1b815250611dee565b506000610f57565b9150600190505b610f6a610f6386613dec565b8383611e34565b5050505050565b6000610f7b61198c565b600201546001600160a01b0316919050565b6000610f9761198c565b600501546001600160a01b0316919050565b610fb161198c565b600301546001600160a01b03163314610fdc5760405162461bcd60e51b81526004016104db9061378c565b6001610fe661198c565b805460ff19169115159190911790556040517f9e87fac88ff661f02d44f95383c817fece4bce600a3dab7a54406878b965e75290600090a1565b61102861198c565b600301546001600160a01b031633146110535760405162461bcd60e51b81526004016104db9061378c565b8061105c61198c565b8054600160301b600160a01b031916600160301b6001600160701b039384160217905560405190821681527f835b0e394b56439e2901706b3c67fcb1abcd7219c10b4010eb396ab636218ffc906020016105a5565b60006110bb61198c565b5462010000900461ffff16919050565b60006110d561198c565b60038101549091506001600160a01b0316156111175760038101546001600160a01b031633146111175760405162461bcd60e51b81526004016104db9061378c565b60808201516001600160a01b03166111715760405162461bcd60e51b815260206004820152601e60248201527f496e76616c696420436f6d6d756e6974795661756c742061646472657373000060448201526064016104db565b60a08201516001600160a01b03166111be5760405162461bcd60e51b815260206004820152601060248201526f496e76616c696420747265617375727960801b60448201526064016104db565b60c08201516001600160a01b03166112185760405162461bcd60e51b815260206004820152601a60248201527f496e76616c6964204458424c20746f6b656e206164647265737300000000000060448201526064016104db565b815160ff166112695760405162461bcd60e51b815260206004820152601c60248201527f496e76616c69642072657673686172652073706c697420726174696f0000000060448201526064016104db565b6000826020015161ffff16116112cd5760405162461bcd60e51b8152602060048201526024808201527f4d7573742070726f766964652061207374616e646172642062707320666565206044820152637261746560e01b60648201526084016104db565b6000826040015161ffff161161131e5760405162461bcd60e51b81526020600482015260166024820152751b5a5b909c1cd4985d19481a5cc81c995c5d5a5c995960521b60448201526064016104db565b816020015161ffff16826040015161ffff16106113885760405162461bcd60e51b815260206004820152602260248201527f4d696e206270732072617465206d757374206265206c657373207468616e20736044820152611d1960f21b60648201526084016104db565b60608201516003820180546001600160a01b03199081166001600160a01b0393841617909155835183546080860151600186018054851691861691909117905560a0860151600286018054851691861691909117905560c08601516004860180548516918616919091179055602086015160408701516101008089015163ffffff001990941660ff9095160263ffff00001916939093176201000061ffff9283160217640100000000600160a01b031916600160201b9190931602600160301b600160a01b03191691909117600160301b6001600160701b039092169190910217835560e0840151600584018054909216921691909117905560005b826101200151518110156114f357600182600601600085610120015184815181106114b1576114b161381b565b6020908102919091018101516001600160a01b03168252810191909152604001600020805460ff19169115159190911790556114ec816138bd565b9050611484565b507f1d02011e7f3a841ec395a4a3b35857537c65b1a89993ae2fa0e3618d9e2a306b826040516115239190613f1c565b60405180910390a15050565b61153761198c565b5460ff16156115585760405162461bcd60e51b81526004016104db906138e9565b6040805160c081018252336080820190815282516060810190935260009282919060a08301908061158c602089018961376f565b6001600160a01b0316815260200160006001600160a01b0316815260200160008152508152508152602001836020018036038101906115cb9190613ffe565b81526020016115e236859003850160608601613ffe565b81526020016115f460a08501856137cb565b6115fd9161401a565b9052604080516101a08101825260008082526001602083015292935090810161162461198c565b600101546001600160a01b031681526000602082018190526040808301829052606083018290526080830182905260a0830182905260c0830182905260e08301829052610100830182905261012083018290526101409092015251633564209b60e01b81529091503090633564209b906116a49085908590600401614125565b6101a0604051808303816000875af11580156116c4573d6000803e3d6000fd5b505050506040513d601f19601f820116820180604052508101906116e89190613b9e565b90506116f682826001611e34565b505050565b61170361198c565b600301546001600160a01b0316331461172e5760405162461bcd60e51b81526004016104db9061378c565b600061173861198c565b6001600160a01b038316600090815260068201602052604090819020805460ff19169055519091507f38dc67ab9b9813fcdcb7c44191cecd71547e9ab9b1939493cdd6a903965d5ffa90611523908490613519565b61179561198c565b600101546001600160a01b031633146117fc5760405162461bcd60e51b8152602060048201526024808201527f4f6e6c79207661756c742063616e206578656375746520746869732066756e636044820152633a34b7b760e11b60648201526084016104db565b8061180561198c565b60010180546001600160a01b0319166001600160a01b03929092169190911790556040517fa49691f0dd6477ccef49962612a236d252e3a31c3be8b61fa6abeff3e74a7572906105a5908390613519565b600061186061198c565b600401546001600160a01b0316919050565b61187a61198c565b600301546001600160a01b031633146118a55760405162461bcd60e51b81526004016104db9061378c565b806118ae61198c565b60020180546001600160a01b0319166001600160a01b03929092169190911790556040517fc714d22a2f08b695f81e7c707058db484aa5b4d6b4c9fd64beb10fe85832f608906105a5908390613519565b61190761198c565b600301546001600160a01b031633146119325760405162461bcd60e51b81526004016104db9061378c565b8061193b61198c565b60050180546001600160a01b0319166001600160a01b03929092169190911790556040517fa6185880f040ba1584f7e109a3be5b1c01a3d3855eb518cc0ff6f12b5ba5e70b906105a5908390613519565b7f949817a987a8e038ef345d3c9d4fd28e49d8e4e09456e57c05a8b2ce2e62866c90565b60006119c2604084016020850161376f565b905060006119ce61198c565b6001810154604051630ba408e360e31b81529192506001600160a01b031690635d20471890611a01908590600401613519565b602060405180830381865afa158015611a1e573d6000803e3d6000fd5b505050506040513d601f19601f82011682018060405250810190611a4291906141bf565b611a895760405162461bcd60e51b8152602060048201526018602482015277119959481d1bdad95b881a5cc81b9bdd08185b1b1bddd95960421b60448201526064016104db565b611a9960c0850160a0860161376f565b6001600160a01b0316826001600160a01b03161480611ad95750611ac4610100850160e0860161376f565b6001600160a01b0316826001600160a01b0316145b611b355760405162461bcd60e51b815260206004820152602760248201527f46656520746f6b656e206d75737420626520696e707574206f72206f757470756044820152663a103a37b5b2b760c91b60648201526084016104db565b60048101546001600160a01b03166370a08231611b55602087018761376f565b6040518263ffffffff1660e01b8152600401611b719190613519565b602060405180830381865afa158015611b8e573d6000803e3d6000fd5b505050506040513d601f19601f82011682018060405250810190611bb291906137b2565b610160840152611bc8604085016020860161376f565b6001600160a01b0316611be160c0860160a0870161376f565b6001600160a01b0316148352610c6c611bfd602086018661376f565b30611c0c6101008801886137cb565b6000818110611c1d57611c1d61381b565b9050602002810190611c2f9190613831565b611c40906060810190604001613578565b6001600160701b0316611c5960c0890160a08a0161376f565b6001600160a01b0316929190611e61565b801580611ce45750604051636eb1769f60e11b81523060048201526001600160a01b03838116602483015284169063dd62ed3e90604401602060405180830381865afa158015611cbe573d6000803e3d6000fd5b505050506040513d601f19601f82011682018060405250810190611ce291906137b2565b155b611d4f5760405162461bcd60e51b815260206004820152603660248201527f5361666545524332303a20617070726f76652066726f6d206e6f6e2d7a65726f60448201527520746f206e6f6e2d7a65726f20616c6c6f77616e636560501b60648201526084016104db565b6116f68363095ea7b360e01b8484604051602401611d6e92919061310f565b60408051601f198184030181529190526020810180516001600160e01b03166001600160e01b031990931692909217909152611e82565b610c6c84848484604051602401611dbf94939291906141dc565b60408051601f198184030181529190526020810180516001600160e01b031663c67ea9d160e01b179052611f54565b611e3181604051602401611e029190614219565b60408051601f198184030181529190526020810180516001600160e01b031663104c13eb60e21b179052611f54565b50565b8015611e4957611e448383611f75565b611e53565b611e538383611f96565b6116f68261014001516120e8565b610c6c846323b872dd60e01b858585604051602401611d6e9392919061422c565b6000611ed7826040518060400160405280602081526020017f5361666545524332303a206c6f772d6c6576656c2063616c6c206661696c6564815250856001600160a01b03166121949092919063ffffffff16565b8051909150156116f65780806020019051810190611ef591906141bf565b6116f65760405162461bcd60e51b815260206004820152602a60248201527f5361666545524332303a204552433230206f7065726174696f6e20646964206e6044820152691bdd081cdd58d8d9595960b21b60648201526084016104db565b80516a636f6e736f6c652e6c6f67602083016000808483855afa5050505050565b611f888282600001518360e001516121ad565b611f928282612251565b5050565b6000611fa061198c565b905060008260000151156120935760005a846060015103619c40019050611fdf6040518060600160405280602981526020016144d66029913982612265565b611fe8816122aa565b6101408501819052600184015486516020015151604051633931f45d60e01b81526001600160a01b039092169350633931f45d926120289260040161310f565b602060405180830381865afa158015612045573d6000803e3d6000fd5b505050506040513d601f19601f8201168201806040525081019061206991906137b2565b84518051600285015460209092015151929350612093926001600160a01b03908116921684611e61565b83518051602090910151516040516001600160a01b03909216917f6930176329c33f663176f0f242132119497db425bb44d32f9ffef8683d10b0c0916120da91859061310f565b60405180910390a250505050565b806000036120f35750565b804710156121345760405181815233907f4c0d6a438f19dfe41befe161c0bfdfca9f674028133bbaf37749b2d12f8f0dda906020015b60405180910390a250565b604051339082156108fc029083906000818181858888f19350505050158015612161573d6000803e3d6000fd5b5060405181815233907f91d09af90b128f3fb2907042440a531bca49791232cd8f59e1c629d96247d05790602001612129565b60606121a384846000856123d3565b90505b9392505050565b60006121b761198c565b9050600083156121d657506020840151516001600160701b03166121d9565b50815b600182015485518051602090910151516040516302ac425360e61b81526001600160a01b039093169263ab1094c092612218929091869060040161422c565b600060405180830381600087803b15801561223257600080fd5b505af1158015612246573d6000803e3d6000fd5b505050505050505050565b61225b82826124ae565b611f9282826126c0565b611f92828260405160240161227b929190614250565b60408051601f198184030181529190526020810180516001600160e01b0316632d839cb360e21b179052611f54565b6000806122b561198c565b90504661a4b019810161233f57600582015460405163852b66a560e01b8152366004820152602481018690526001600160a01b039091169063852b66a590604401602060405180830381865afa158015612313573d6000803e3d6000fd5b505050506040513d601f19601f8201168201806040525081019061233791906137b2565b949350505050565b600a81036123c9576040516324ca470760e11b8152600f602160991b01906349948e0e90612374906000903690600401614272565b602060405180830381865afa158015612391573d6000803e3d6000fd5b505050506040513d601f19601f820116820180604052508101906123b591906137b2565b6123bf853a614286565b6123379190613920565b612337843a614286565b6060824710156124345760405162461bcd60e51b815260206004820152602660248201527f416464726573733a20696e73756666696369656e742062616c616e636520666f6044820152651c8818d85b1b60d21b60648201526084016104db565b600080866001600160a01b03168587604051612450919061429d565b60006040518083038185875af1925050503d806000811461248d576040519150601f19603f3d011682016040523d82523d6000602084013e612492565b606091505b50915091506124a387838387612bf0565b979650505050505050565b60006124b861198c565b60e083015160c0840181905283516101608501519293506124da928692612c69565b610100830152825160200151516000906124f390612daa565b905082610100015181111561250b5761010083018190525b8154610100848101516064926125269260ff91041690614286565b61253091906142af565b60a0840181905261010084015161254791906138d6565b845160200151604001511061259e5760405162461bcd60e51b815260206004820152601f60248201527f4d697363616c63756c6174656420616666696c6961746520706f7274696f6e0060448201526064016104db565b8351602001516040015160a08401516101008501516125bd91906138d6565b6125c791906138d6565b608084018190528451602001516040015160a08501516000926125e991613920565b6125f39190613920565b84519091506126b157808460e0015110156126975761262a6040518060600160405280602f8152602001614478602f913982612f28565b6126606040518060400160405280601081526020016f01027baba383aba1030b6b7bab73a1d160851b8152508660e00151612f28565b6040516020016126719291906142d1565b60408051601f198184030181529082905262461bcd60e51b82526104db91600401614219565b808460e001516126a791906138d6565b60c0850152610f6a565b61018084018190525050505050565b60006126ca61198c565b9050816020015161289c576000619c405a606085015160408601516001860154929091039290920192506001600160a01b03908116911614801590612711575062030d4081115b1561271d5762030d3f19015b61273f60405180606001604052806029815260200161444f6029913982612265565b612748816122aa565b6101408401819052600183015485516020015151604051633931f45d60e01b81526001600160a01b039092169350633931f45d926127889260040161310f565b602060405180830381865afa1580156127a5573d6000803e3d6000fd5b505050506040513d601f19601f820116820180604052508101906127c991906137b2565b61012083018190526080830180516127e2908390613920565b9052508151612880578161012001518260c0015111612861576128226040518060600160405280602f81526020016144a7602f9139836101200151612f28565b612660604051806040016040528060198152602001780102a3930b232b91037baba383aba10383937b1b2b2b2399d1603d1b8152508460c00151612f28565b8161012001518260c00181815161287891906138d6565b90525061289c565b81610120015182610180018181516128989190613920565b9052505b82516020015151825115612a4857600083610180015185606001516000815181106128c9576128c961381b565b602002602001015160400151600001516001600160701b03166128ec9190613920565b6020860151519091506001600160701b0316811115612966576129276040518060600160405280603e8152602001614411603e913982612f28565b6126606040518060400160405280600c81526020016b01026b0bc1034b7383aba1d160a51b8152508760200151600001516001600160701b0316612f28565b8451516002840154608086015161298d926001600160a01b03868116939192911690611e61565b845151600184015460a08601516129b4926001600160a01b03868116939192911690611e61565b8451602001516040015115612a425784518051602091820151918201516040909201516129ec926001600160a01b0386169291611e61565b84516020908101519081015160409182015191516001600160a01b03909116917f1fd11cde99de9e2e6d2bc710c225ae2e03d1e8eece69b0c552c7ae2bb3499a7091612a3991869161310f565b60405180910390a25b50612b17565b60028201546080840151612a6a916001600160a01b0384811692911690612f5c565b600182015460a0840151612a8c916001600160a01b0384811692911690612f5c565b8351602001516040015115612b1757835160209081015190810151604090910151612ac1916001600160a01b03841691612f5c565b83516020908101519081015160409182015191516001600160a01b03909116917f1fd11cde99de9e2e6d2bc710c225ae2e03d1e8eece69b0c552c7ae2bb3499a7091612b0e91859161310f565b60405180910390a25b83515160c0840151604086015160200151612b3d926001600160a01b0390911691612f5c565b83516020808201519081015191516040808801515160c088015184516101208a0151958401516101008b015194516001600160a01b039889169896909616967f37d5b664bdbba33c8c4138fa893bae32fef34e9a60d60d7cba0cb46eadb7675196612be296919291906001600160701b0396909616865260208601949094526001600160a01b039290921660408501526060840152608083015260a082015260c00190565b60405180910390a350505050565b60608315612c5f578251600003612c58576001600160a01b0385163b612c585760405162461bcd60e51b815260206004820152601d60248201527f416464726573733a2063616c6c20746f206e6f6e2d636f6e747261637400000060448201526064016104db565b5081612337565b6123378383612f7b565b600080612c7461198c565b60048101546040805160c08101825289516020908101518101516001600160a01b03908116151583528b5151811691830191909152939450929091169163a015b63991810188612cc45786612cd4565b60208a0151516001600160701b03165b81526020808201899052855461ffff6201000082048116604080860191909152600160201b909204811660609485015281516001600160e01b031960e088901b168152855115156004820152928501516001600160a01b0316602484015290840151604483015291830151606482015260808301518216608482015260a0909201511660a482015260c401602060405180830381865afa158015612d7c573d6000803e3d6000fd5b505050506040513d601f19601f82011682018060405250810190612da091906137b2565b9695505050505050565b600080612db561198c565b8054909150600160301b90046001600160701b0316600003612dda5750600092915050565b600181015460405163ce25cb4d60e01b81526000916001600160a01b03169063ce25cb4d90612e0d908790600401613519565b602060405180830381865afa158015612e2a573d6000803e3d6000fd5b505050506040513d601f19601f82011682018060405250810190612e4e91906137b2565b90506000846001600160a01b031663313ce5676040518163ffffffff1660e01b8152600401602060405180830381865afa158015612e90573d6000803e3d6000fd5b505050506040513d601f19601f82011682018060405250810190612eb49190614300565b905060006c0c9f2c9cd04674edea400000008260ff16601203612ed8576001612ef6565b670de0b6b3a7640000612eec84600a614401565b612ef691906142af565b8554612f129190600160301b90046001600160701b0316614286565b612f1c9190614286565b9050612da083826142af565b606082612f3483612fa5565b604051602001612f459291906142d1565b604051602081830303815290604052905092915050565b6116f68363a9059cbb60e01b8484604051602401611d6e92919061310f565b815115612f8b5781518083602001fd5b8060405162461bcd60e51b81526004016104db9190614219565b60606000612fb283613037565b60010190506000816001600160401b03811115612fd157612fd16131c3565b6040519080825280601f01601f191660200182016040528015612ffb576020820181803683370190505b5090508181016020015b600019016f181899199a1a9b1b9c1cb0b131b232b360811b600a86061a8153600a850494508461300557509392505050565b60008072184f03e93ff9f4daa797ed6e38ed64bf6a1f0160401b83106130765772184f03e93ff9f4daa797ed6e38ed64bf6a1f0160401b830492506040015b6d04ee2d6d415b85acef810000000083106130a2576d04ee2d6d415b85acef8100000000830492506020015b662386f26fc1000083106130c057662386f26fc10000830492506010015b6305f5e10083106130d8576305f5e100830492506008015b61271083106130ec57612710830492506004015b606483106130fe576064830492506002015b600a8310610b3d5760010192915050565b6001600160a01b03929092168252602082015260400190565b60ff81168114611e3157600080fd5b803561314281613128565b919050565b60006020828403121561315957600080fd5b81356121a681613128565b803561ffff8116811461314257600080fd5b60006020828403121561318857600080fd5b6121a682613164565b6000602082840312156131a357600080fd5b5035919050565b600061012082840312156131bd57600080fd5b50919050565b634e487b7160e01b600052604160045260246000fd5b6040516101a081016001600160401b03811182821017156131fc576131fc6131c3565b60405290565b60405161014081016001600160401b03811182821017156131fc576131fc6131c3565b604080519081016001600160401b03811182821017156131fc576131fc6131c3565b604051608081016001600160401b03811182821017156131fc576131fc6131c3565b604051606081016001600160401b03811182821017156131fc576131fc6131c3565b604051601f8201601f191681016001600160401b03811182821017156132b3576132b36131c3565b604052919050565b8015158114611e3157600080fd5b8035613142816132bb565b6001600160a01b0381168114611e3157600080fd5b8035613142816132d4565b6000808284036101c081121561330957600080fd5b83356001600160401b0381111561331f57600080fd5b61332b868287016131aa565b9350506101a080601f198301121561334257600080fd5b61334a6131d9565b9150613358602086016132c9565b8252613366604086016132c9565b6020830152613377606086016132e9565b60408301526080850135606083015260a0850135608083015260c085013560a083015260e085013560c08301526101008086013560e0840152610120808701358285015261014091508187013581850152506101608087013582850152610180915081870135818501525081860135818401525050809150509250929050565b8051151582526020810151613410602084018215159052565b50604081015161342b60408401826001600160a01b03169052565b50606081810151908301526080808201519083015260a0808201519083015260c0808201519083015260e08082015190830152610100808201519083015261012080820151908301526101408082015190830152610160808201519083015261018090810151910152565b6101a08101610b3d82846133f7565b600080602083850312156134b857600080fd5b82356001600160401b03808211156134cf57600080fd5b818501915085601f8301126134e357600080fd5b8135818111156134f257600080fd5b8660208260051b850101111561350757600080fd5b60209290920196919550909350505050565b6001600160a01b0391909116815260200190565b60006020828403121561353f57600080fd5b81356001600160401b0381111561355557600080fd5b612337848285016131aa565b80356001600160701b038116811461314257600080fd5b60006020828403121561358a57600080fd5b6121a682613561565b60006001600160401b038211156135ac576135ac6131c3565b5060051b60200190565b600082601f8301126135c757600080fd5b813560206135dc6135d783613593565b61328b565b82815260059290921b840181019181810190868411156135fb57600080fd5b8286015b8481101561361f578035613612816132d4565b83529183019183016135ff565b509695505050505050565b60006020828403121561363c57600080fd5b81356001600160401b038082111561365357600080fd5b90830190610140828603121561366857600080fd5b613670613202565b61367983613137565b815261368760208401613164565b602082015261369860408401613164565b60408201526136a9606084016132e9565b60608201526136ba608084016132e9565b60808201526136cb60a084016132e9565b60a08201526136dc60c084016132e9565b60c08201526136ed60e084016132e9565b60e0820152610100613700818501613561565b90820152610120838101358381111561371857600080fd5b613724888287016135b6565b918301919091525095945050505050565b60006020828403121561374757600080fd5b81356001600160401b0381111561375d57600080fd5b820160c081850312156121a657600080fd5b60006020828403121561378157600080fd5b81356121a6816132d4565b6020808252600c908201526b155b985d5d1a1bdc9a5e995960a21b604082015260600190565b6000602082840312156137c457600080fd5b5051919050565b6000808335601e198436030181126137e257600080fd5b8301803591506001600160401b038211156137fc57600080fd5b6020019150600581901b360382131561381457600080fd5b9250929050565b634e487b7160e01b600052603260045260246000fd5b60008235609e1983360301811261384757600080fd5b9190910192915050565b6000808335601e1984360301811261386857600080fd5b8301803591506001600160401b0382111561388257600080fd5b60200191503681900382131561381457600080fd5b8183823760009101908152919050565b634e487b7160e01b600052601160045260246000fd5b6000600182016138cf576138cf6138a7565b5060010190565b81810381811115610b3d57610b3d6138a7565b6020808252601e908201527f436f6e7472616374206f7065726174696f6e7320617265207061757365640000604082015260600190565b80820180821115610b3d57610b3d6138a7565b6001600160701b0361394482613561565b1682526020810135613955816132d4565b6001600160a01b03166020929092019190915250565b6000808335601e1984360301811261398257600080fd5b83016020810192503590506001600160401b038111156139a157600080fd5b8060051b360382131561381457600080fd5b81835281816020850137506000828201602090810191909152601f909101601f19169091010190565b818352600060208085019450848460051b86018460005b87811015613ac05783830389528135609e19883603018112613a1457600080fd5b870160a08135613a23816132d4565b6001600160a01b0390811686528288013590613a3e826132d4565b16858801526040613a53818701848301613933565b50608080830135601e19843603018112613a6c57600080fd5b9092018781019290356001600160401b03811115613a8957600080fd5b803603841315613a9857600080fd5b8282880152613aaa83880182866139b3565b9c89019c965050509286019250506001016139f3565b5090979650505050505050565b60006101c08083528435613ae0816132d4565b6001600160a01b0381811692850192909252602086013591613b01836132d4565b9182166101e0850152604086013591613b19836132d4565b91909116610200840152506060840135610220830152613b40610240830160808601613933565b613b51610280830160c08601613933565b613b5f61010085018561396b565b6101206102c0850152613b776102e0850182846139dc565b925050506121a660208301846133f7565b8051613142816132bb565b8051613142816132d4565b60006101a08284031215613bb157600080fd5b613bb96131d9565b613bc283613b88565b8152613bd060208401613b88565b6020820152613be160408401613b93565b6040820152606083810151908201526080808401519082015260a0808401519082015260c0808401519082015260e080840151908201526101008084015190820152610120808401519082015261014080840151908201526101608084015190820152610180928301519281019290925250919050565b600060408284031215613c6a57600080fd5b613c72613225565b9050613c7d82613561565b81526020820135613c8d816132d4565b602082015292915050565b6000613ca66135d784613593565b8381529050602080820190600585901b840186811115613cc557600080fd5b845b81811015613dc15780356001600160401b0380821115613ce75760008081fd5b9087019060a0828b031215613cfc5760008081fd5b613d04613247565b8235613d0f816132d4565b815282860135613d1e816132d4565b818701526040613d308c858301613c58565b90820152608083013582811115613d475760008081fd5b808401935050601f8b81850112613d5e5760008081fd5b833583811115613d7057613d706131c3565b613d81818301601f1916890161328b565b93508084528c88828701011115613d9a57600091508182fd5b80888601898601376000908401880152506060810191909152855250928201928201613cc7565b505050509392505050565b600082601f830112613ddd57600080fd5b6121a683833560208501613c98565b6000813603610120811215613e0057600080fd5b613e08613247565b6080821215613e1657600080fd5b613e1e613225565b8435613e29816132d4565b81526060601f1984011215613e3d57600080fd5b613e45613269565b92506020850135613e55816132d4565b83526040850135613e65816132d4565b806020850152506060850135604084015282602082015280825250613e8d3660808601613c58565b6020820152613e9f3660c08601613c58565b604082015261010084013591506001600160401b03821115613ec057600080fd5b613ecc36838601613dcc565b60608201529392505050565b600081518084526020808501945080840160005b83811015613f115781516001600160a01b031687529582019590820190600101613eec565b509495945050505050565b60208152613f3060208201835160ff169052565b60006020830151613f47604084018261ffff169052565b50604083015161ffff811660608401525060608301516001600160a01b03811660808401525060808301516001600160a01b03811660a08401525060a08301516001600160a01b03811660c08401525060c08301516001600160a01b03811660e08401525060e0830151610100613fc8818501836001600160a01b03169052565b8401519050610120613fe4848201836001600160701b03169052565b840151610140848101529050612337610160840182613ed8565b60006040828403121561401057600080fd5b6121a68383613c58565b60006121a6368484613c98565b80516001600160701b031682526020908101516001600160a01b0316910152565b60005b8381101561406357818101518382015260200161404b565b50506000910152565b60008151808452614084816020860160208601614048565b601f01601f19169290920160200192915050565b600082825180855260208086019550808260051b84010181860160005b84811015613ac057858303601f19018952815180516001600160a01b03908116855285820151168585015260408082015160a091906140f682880182614027565b5050606082015191508060808601526141118186018361406c565b9a86019a94505050908301906001016140b5565b6101c0808252835180516001600160a01b0390811692840192909252602090810151805183166101e08501528082015190921661020084015260409091015161022083015283015160009061417e610240840182614027565b506040840151614192610280840182614027565b5060608401516101206102c08401526141af6102e0840182614098565b9150506121a660208301846133f7565b6000602082840312156141d157600080fd5b81516121a6816132bb565b6080815260006141ef608083018761406c565b8560208401528281036040840152614207818661406c565b91505082606083015295945050505050565b6020815260006121a6602083018461406c565b6001600160a01b039384168152919092166020820152604081019190915260600190565b604081526000614263604083018561406c565b90508260208301529392505050565b6020815260006121a36020830184866139b3565b8082028115828204841417610b3d57610b3d6138a7565b60008251613847818460208701614048565b6000826142cc57634e487b7160e01b600052601260045260246000fd5b500490565b600083516142e3818460208801614048565b8351908301906142f7818360208801614048565b01949350505050565b60006020828403121561431257600080fd5b81516121a681613128565b600181815b8085111561435857816000190482111561433e5761433e6138a7565b8085161561434b57918102915b93841c9390800290614322565b509250929050565b60008261436f57506001610b3d565b8161437c57506000610b3d565b8160018114614392576002811461439c576143b8565b6001915050610b3d565b60ff8411156143ad576143ad6138a7565b50506001821b610b3d565b5060208310610133831016604e8410600b84101617156143db575081810a610b3d565b6143e5838361431d565b80600019048211156143f9576143f96138a7565b029392505050565b60006121a660ff84168361436056fe417474656d707420746f207370656e64206d6f726520696e707574207468616e20616e7469636970617465642e20546f74616c2072657175697265643a20457374696d6174656420676173207573656420666f722074726164657220676173207061796d656e74496e73756666696369656e74206f757470757420746f207061792062707320666565732e2052657175697265643a20496e73756666696369656e74206f757470757420746f207061792067617320666565732e2052657175697265643a20457374696d6174656420676173207573656420666f72206661696c656420676173207061796d656e74a2646970667358221220103e7903bdbde656e4fa579973f5cdd283953433a61b9a46d29093de5b051ebf64736f6c63430008110033",
  "linkReferences": {},
  "deployedLinkReferences": {}
}