{
  "_format": "hh-sol-artifact-1",
  "contractName": "Dexible",
  "sourceName": "contracts/dexible/Dexible.sol",
  "abi": [
    {
      "anonymous": false,
      "inputs": [
        {
          "indexed": true,
          "internalType": "address",
          "name": "affiliate",
          "type": "address"
        },
        {
          "indexed": false,
          "internalType": "contract IERC20",
          "name": "token",
          "type": "address"
        },
        {
          "indexed": false,
          "internalType": "uint256",
          "name": "amount",
          "type": "uint256"
        }
      ],
      "name": "AffiliatePaid",
      "type": "event"
    },
    {
      "anonymous": false,
      "inputs": [
        {
          "indexed": true,
          "internalType": "address",
          "name": "approver",
          "type": "address"
        },
        {
          "indexed": false,
          "internalType": "bytes4",
          "name": "selector",
          "type": "bytes4"
        },
        {
          "indexed": false,
          "internalType": "bytes32",
          "name": "sigHash",
          "type": "bytes32"
        },
        {
          "indexed": false,
          "internalType": "uint256",
          "name": "nonce",
          "type": "uint256"
        },
        {
          "indexed": false,
          "internalType": "uint256",
          "name": "timelockExpiration",
          "type": "uint256"
        }
      ],
      "name": "ChangeRequested",
      "type": "event"
    },
    {
      "anonymous": false,
      "inputs": [
        {
          "indexed": false,
          "internalType": "uint32",
          "name": "stdRate",
          "type": "uint32"
        },
        {
          "indexed": false,
          "internalType": "uint32",
          "name": "minRate",
          "type": "uint32"
        }
      ],
      "name": "ChangedBpsRates",
      "type": "event"
    },
    {
      "anonymous": false,
      "inputs": [
        {
          "indexed": false,
          "internalType": "uint8",
          "name": "split",
          "type": "uint8"
        }
      ],
      "name": "ChangedRevshareSplit",
      "type": "event"
    },
    {
      "anonymous": false,
      "inputs": [
        {
          "indexed": true,
          "internalType": "address",
          "name": "old",
          "type": "address"
        },
        {
          "indexed": true,
          "internalType": "address",
          "name": "newRevshare",
          "type": "address"
        }
      ],
      "name": "ChangedRevshareVault",
      "type": "event"
    },
    {
      "anonymous": false,
      "inputs": [
        {
          "indexed": true,
          "internalType": "address",
          "name": "relay",
          "type": "address"
        },
        {
          "indexed": false,
          "internalType": "uint256",
          "name": "amount",
          "type": "uint256"
        }
      ],
      "name": "InsufficientGasFunds",
      "type": "event"
    },
    {
      "anonymous": false,
      "inputs": [
        {
          "indexed": true,
          "internalType": "address",
          "name": "newLogic",
          "type": "address"
        }
      ],
      "name": "LogicUpgraded",
      "type": "event"
    },
    {
      "anonymous": false,
      "inputs": [
        {
          "indexed": true,
          "internalType": "address",
          "name": "relay",
          "type": "address"
        },
        {
          "indexed": false,
          "internalType": "uint256",
          "name": "amount",
          "type": "uint256"
        }
      ],
      "name": "PaidGasFunds",
      "type": "event"
    },
    {
      "anonymous": false,
      "inputs": [
        {
          "indexed": true,
          "internalType": "address",
          "name": "caller",
          "type": "address"
        }
      ],
      "name": "Paused",
      "type": "event"
    },
    {
      "anonymous": false,
      "inputs": [
        {
          "indexed": false,
          "internalType": "uint256",
          "name": "newReq",
          "type": "uint256"
        }
      ],
      "name": "RequiredSigChanged",
      "type": "event"
    },
    {
      "anonymous": false,
      "inputs": [
        {
          "indexed": true,
          "internalType": "address",
          "name": "approvder",
          "type": "address"
        },
        {
          "indexed": false,
          "internalType": "bytes32",
          "name": "sigHash",
          "type": "bytes32"
        }
      ],
      "name": "ResumeRequested",
      "type": "event"
    },
    {
      "anonymous": false,
      "inputs": [],
      "name": "ResumedOperations",
      "type": "event"
    },
    {
      "anonymous": false,
      "inputs": [
        {
          "indexed": true,
          "internalType": "address",
          "name": "member",
          "type": "address"
        },
        {
          "indexed": false,
          "internalType": "string",
          "name": "role",
          "type": "string"
        }
      ],
      "name": "RoleRevoked",
      "type": "event"
    },
    {
      "anonymous": false,
      "inputs": [
        {
          "indexed": true,
          "internalType": "address",
          "name": "member",
          "type": "address"
        },
        {
          "indexed": false,
          "internalType": "string",
          "name": "role",
          "type": "string"
        }
      ],
      "name": "RoleSet",
      "type": "event"
    },
    {
      "anonymous": false,
      "inputs": [
        {
          "indexed": true,
          "internalType": "address",
          "name": "signer",
          "type": "address"
        }
      ],
      "name": "SignerAdded",
      "type": "event"
    },
    {
      "anonymous": false,
      "inputs": [
        {
          "indexed": true,
          "internalType": "address",
          "name": "signer",
          "type": "address"
        }
      ],
      "name": "SignerRemoved",
      "type": "event"
    },
    {
      "anonymous": false,
      "inputs": [
        {
          "indexed": true,
          "internalType": "address",
          "name": "trader",
          "type": "address"
        },
        {
          "indexed": false,
          "internalType": "contract IERC20",
          "name": "feeToken",
          "type": "address"
        },
        {
          "indexed": false,
          "internalType": "uint256",
          "name": "gasFeePaid",
          "type": "uint256"
        }
      ],
      "name": "SwapFailed",
      "type": "event"
    },
    {
      "anonymous": false,
      "inputs": [
        {
          "indexed": true,
          "internalType": "address",
          "name": "trader",
          "type": "address"
        },
        {
          "indexed": true,
          "internalType": "address",
          "name": "affiliate",
          "type": "address"
        },
        {
          "indexed": false,
          "internalType": "uint256",
          "name": "inputAmount",
          "type": "uint256"
        },
        {
          "indexed": false,
          "internalType": "uint256",
          "name": "outputAmount",
          "type": "uint256"
        },
        {
          "indexed": false,
          "internalType": "contract IERC20",
          "name": "feeToken",
          "type": "address"
        },
        {
          "indexed": false,
          "internalType": "uint256",
          "name": "gasFee",
          "type": "uint256"
        },
        {
          "indexed": false,
          "internalType": "uint256",
          "name": "affiliateFee",
          "type": "uint256"
        },
        {
          "indexed": false,
          "internalType": "uint256",
          "name": "dexibleFee",
          "type": "uint256"
        }
      ],
      "name": "SwapSuccess",
      "type": "event"
    },
    {
      "anonymous": false,
      "inputs": [
        {
          "indexed": true,
          "internalType": "address",
          "name": "approver",
          "type": "address"
        },
        {
          "indexed": false,
          "internalType": "address",
          "name": "logic",
          "type": "address"
        },
        {
          "indexed": false,
          "internalType": "bytes32",
          "name": "sigHash",
          "type": "bytes32"
        },
        {
          "indexed": false,
          "internalType": "uint256",
          "name": "timelockExpiration",
          "type": "uint256"
        }
      ],
      "name": "UpgradeRequested",
      "type": "event"
    },
    {
      "inputs": [
        {
          "components": [
            {
              "components": [
                {
                  "internalType": "address",
                  "name": "requester",
                  "type": "address"
                },
                {
                  "components": [
                    {
                      "internalType": "contract IERC20",
                      "name": "feeToken",
                      "type": "address"
                    },
                    {
                      "internalType": "address",
                      "name": "affiliate",
                      "type": "address"
                    },
                    {
                      "internalType": "uint256",
                      "name": "affiliatePortion",
                      "type": "uint256"
                    }
                  ],
                  "internalType": "struct ExecutionTypes.FeeDetails",
                  "name": "fee",
                  "type": "tuple"
                }
              ],
              "internalType": "struct ExecutionTypes.ExecutionRequest",
              "name": "executionRequest",
              "type": "tuple"
            },
            {
              "components": [
                {
                  "internalType": "uint112",
                  "name": "amount",
                  "type": "uint112"
                },
                {
                  "internalType": "contract IERC20",
                  "name": "token",
                  "type": "address"
                }
              ],
              "internalType": "struct TokenTypes.TokenAmount",
              "name": "tokenIn",
              "type": "tuple"
            },
            {
              "components": [
                {
                  "internalType": "uint112",
                  "name": "amount",
                  "type": "uint112"
                },
                {
                  "internalType": "contract IERC20",
                  "name": "token",
                  "type": "address"
                }
              ],
              "internalType": "struct TokenTypes.TokenAmount",
              "name": "tokenOut",
              "type": "tuple"
            },
            {
              "components": [
                {
                  "internalType": "address",
                  "name": "router",
                  "type": "address"
                },
                {
                  "internalType": "address",
                  "name": "spender",
                  "type": "address"
                },
                {
                  "components": [
                    {
                      "internalType": "uint112",
                      "name": "amount",
                      "type": "uint112"
                    },
                    {
                      "internalType": "contract IERC20",
                      "name": "token",
                      "type": "address"
                    }
                  ],
                  "internalType": "struct TokenTypes.TokenAmount",
                  "name": "routeAmount",
                  "type": "tuple"
                },
                {
                  "internalType": "bytes",
                  "name": "routerData",
                  "type": "bytes"
                }
              ],
              "internalType": "struct SwapTypes.RouterRequest[]",
              "name": "routes",
              "type": "tuple[]"
            }
          ],
          "internalType": "struct SwapTypes.SwapRequest",
          "name": "request",
          "type": "tuple"
        },
        {
          "components": [
            {
              "internalType": "bool",
              "name": "feeIsInput",
              "type": "bool"
            },
            {
              "internalType": "bool",
              "name": "isSelfSwap",
              "type": "bool"
            },
            {
              "internalType": "uint256",
              "name": "startGas",
              "type": "uint256"
            },
            {
              "internalType": "uint256",
              "name": "toProtocol",
              "type": "uint256"
            },
            {
              "internalType": "uint256",
              "name": "toRevshare",
              "type": "uint256"
            },
            {
              "internalType": "uint256",
              "name": "outToTrader",
              "type": "uint256"
            },
            {
              "internalType": "uint256",
              "name": "outAmount",
              "type": "uint256"
            },
            {
              "internalType": "uint256",
              "name": "bpsAmount",
              "type": "uint256"
            },
            {
              "internalType": "uint256",
              "name": "gasAmount",
              "type": "uint256"
            },
            {
              "internalType": "uint256",
              "name": "nativeGasAmount",
              "type": "uint256"
            },
            {
              "internalType": "uint256",
              "name": "preDXBLBalance",
              "type": "uint256"
            },
            {
              "internalType": "uint256",
              "name": "remainingInBalance",
              "type": "uint256"
            }
          ],
          "internalType": "struct SwapExtension.SwapDetails",
          "name": "details",
          "type": "tuple"
        }
      ],
      "name": "_trySwap",
      "outputs": [
        {
          "components": [
            {
              "internalType": "bool",
              "name": "feeIsInput",
              "type": "bool"
            },
            {
              "internalType": "bool",
              "name": "isSelfSwap",
              "type": "bool"
            },
            {
              "internalType": "uint256",
              "name": "startGas",
              "type": "uint256"
            },
            {
              "internalType": "uint256",
              "name": "toProtocol",
              "type": "uint256"
            },
            {
              "internalType": "uint256",
              "name": "toRevshare",
              "type": "uint256"
            },
            {
              "internalType": "uint256",
              "name": "outToTrader",
              "type": "uint256"
            },
            {
              "internalType": "uint256",
              "name": "outAmount",
              "type": "uint256"
            },
            {
              "internalType": "uint256",
              "name": "bpsAmount",
              "type": "uint256"
            },
            {
              "internalType": "uint256",
              "name": "gasAmount",
              "type": "uint256"
            },
            {
              "internalType": "uint256",
              "name": "nativeGasAmount",
              "type": "uint256"
            },
            {
              "internalType": "uint256",
              "name": "preDXBLBalance",
              "type": "uint256"
            },
            {
              "internalType": "uint256",
              "name": "remainingInBalance",
              "type": "uint256"
            }
          ],
          "internalType": "struct SwapExtension.SwapDetails",
          "name": "",
          "type": "tuple"
        }
      ],
      "stateMutability": "nonpayable",
      "type": "function"
    },
    {
      "inputs": [
        {
          "internalType": "address",
          "name": "relay",
          "type": "address"
        }
      ],
      "name": "addRelay",
      "outputs": [],
      "stateMutability": "nonpayable",
      "type": "function"
    },
    {
      "inputs": [
        {
          "internalType": "address[]",
          "name": "relays",
          "type": "address[]"
        }
      ],
      "name": "addRelays",
      "outputs": [],
      "stateMutability": "nonpayable",
      "type": "function"
    },
    {
      "inputs": [
        {
          "internalType": "address",
          "name": "signer",
          "type": "address"
        }
      ],
      "name": "addSigner",
      "outputs": [],
      "stateMutability": "nonpayable",
      "type": "function"
    },
    {
      "inputs": [
        {
          "internalType": "uint256",
          "name": "nonce",
          "type": "uint256"
        }
      ],
      "name": "approveChange",
      "outputs": [],
      "stateMutability": "nonpayable",
      "type": "function"
    },
    {
      "inputs": [],
      "name": "approveResume",
      "outputs": [],
      "stateMutability": "nonpayable",
      "type": "function"
    },
    {
      "inputs": [],
      "name": "approveUpgrade",
      "outputs": [],
      "stateMutability": "nonpayable",
      "type": "function"
    },
    {
      "inputs": [],
      "name": "bpsRates",
      "outputs": [
        {
          "components": [
            {
              "internalType": "uint16",
              "name": "stdBps",
              "type": "uint16"
            },
            {
              "internalType": "uint16",
              "name": "minBps",
              "type": "uint16"
            }
          ],
          "internalType": "struct LibDexible.BpsFeeChange",
          "name": "",
          "type": "tuple"
        }
      ],
      "stateMutability": "view",
      "type": "function"
    },
    {
      "inputs": [
        {
          "internalType": "uint256",
          "name": "nonce",
          "type": "uint256"
        }
      ],
      "name": "canApplyChange",
      "outputs": [],
      "stateMutability": "view",
      "type": "function"
    },
    {
      "inputs": [],
      "name": "canUpgrade",
      "outputs": [
        {
          "internalType": "bool",
          "name": "",
          "type": "bool"
        }
      ],
      "stateMutability": "view",
      "type": "function"
    },
    {
      "inputs": [
        {
          "internalType": "uint256",
          "name": "nonce",
          "type": "uint256"
        }
      ],
      "name": "cancelChange",
      "outputs": [],
      "stateMutability": "nonpayable",
      "type": "function"
    },
    {
      "inputs": [],
      "name": "cancelResume",
      "outputs": [],
      "stateMutability": "nonpayable",
      "type": "function"
    },
    {
      "inputs": [
        {
          "internalType": "uint256",
          "name": "nonce",
          "type": "uint256"
        }
      ],
      "name": "changeSigsNeeded",
      "outputs": [
        {
          "internalType": "uint256",
          "name": "",
          "type": "uint256"
        }
      ],
      "stateMutability": "view",
      "type": "function"
    },
    {
      "inputs": [
        {
          "internalType": "uint256",
          "name": "nonce",
          "type": "uint256"
        },
        {
          "internalType": "address",
          "name": "signer",
          "type": "address"
        },
        {
          "internalType": "bytes",
          "name": "sig",
          "type": "bytes"
        }
      ],
      "name": "delegatedApproveChange",
      "outputs": [],
      "stateMutability": "nonpayable",
      "type": "function"
    },
    {
      "inputs": [
        {
          "internalType": "address",
          "name": "signer",
          "type": "address"
        },
        {
          "internalType": "bytes",
          "name": "sig",
          "type": "bytes"
        }
      ],
      "name": "delegatedApproveResume",
      "outputs": [],
      "stateMutability": "nonpayable",
      "type": "function"
    },
    {
      "inputs": [
        {
          "internalType": "address",
          "name": "signer",
          "type": "address"
        },
        {
          "internalType": "bytes",
          "name": "sig",
          "type": "bytes"
        }
      ],
      "name": "delegatedApproveUpgrade",
      "outputs": [],
      "stateMutability": "nonpayable",
      "type": "function"
    },
    {
      "inputs": [
        {
          "internalType": "address",
          "name": "member",
          "type": "address"
        },
        {
          "internalType": "string",
          "name": "role",
          "type": "string"
        }
      ],
      "name": "hasRole",
      "outputs": [
        {
          "internalType": "bool",
          "name": "",
          "type": "bool"
        }
      ],
      "stateMutability": "view",
      "type": "function"
    },
    {
      "inputs": [
        {
          "components": [
            {
              "internalType": "uint8",
              "name": "revshareSplitRatio",
              "type": "uint8"
            },
            {
              "internalType": "uint16",
              "name": "stdBpsRate",
              "type": "uint16"
            },
            {
              "internalType": "uint16",
              "name": "minBpsRate",
              "type": "uint16"
            },
            {
              "internalType": "address",
              "name": "revshareManager",
              "type": "address"
            },
            {
              "internalType": "address",
              "name": "treasury",
              "type": "address"
            },
            {
              "internalType": "address",
              "name": "dxblToken",
              "type": "address"
            },
            {
              "internalType": "address",
              "name": "roleManager",
              "type": "address"
            },
            {
              "internalType": "uint112",
              "name": "minFeeUSD",
              "type": "uint112"
            },
            {
              "components": [
                {
                  "internalType": "uint8",
                  "name": "requiredSigs",
                  "type": "uint8"
                },
                {
                  "internalType": "uint32",
                  "name": "timelockSeconds",
                  "type": "uint32"
                },
                {
                  "internalType": "address",
                  "name": "logic",
                  "type": "address"
                },
                {
                  "internalType": "address[]",
                  "name": "approvers",
                  "type": "address[]"
                }
              ],
              "internalType": "struct LibMultiSig.MultiSigConfig",
              "name": "multiSigConfig",
              "type": "tuple"
            }
          ],
          "internalType": "struct LibDexible.DexibleConfig",
          "name": "config",
          "type": "tuple"
        }
      ],
      "name": "initialize",
      "outputs": [],
      "stateMutability": "nonpayable",
      "type": "function"
    },
    {
      "inputs": [
        {
          "components": [
            {
              "internalType": "uint8",
              "name": "requiredSigs",
              "type": "uint8"
            },
            {
              "internalType": "uint32",
              "name": "timelockSeconds",
              "type": "uint32"
            },
            {
              "internalType": "address",
              "name": "logic",
              "type": "address"
            },
            {
              "internalType": "address[]",
              "name": "approvers",
              "type": "address[]"
            }
          ],
          "internalType": "struct LibMultiSig.MultiSigConfig",
          "name": "config",
          "type": "tuple"
        }
      ],
      "name": "initializeMSConfigurable",
      "outputs": [],
      "stateMutability": "nonpayable",
      "type": "function"
    },
    {
      "inputs": [],
      "name": "isPaused",
      "outputs": [
        {
          "internalType": "bool",
          "name": "",
          "type": "bool"
        }
      ],
      "stateMutability": "view",
      "type": "function"
    },
    {
      "inputs": [
        {
          "internalType": "address",
          "name": "relay",
          "type": "address"
        }
      ],
      "name": "isRelay",
      "outputs": [
        {
          "internalType": "bool",
          "name": "",
          "type": "bool"
        }
      ],
      "stateMutability": "view",
      "type": "function"
    },
    {
      "inputs": [],
      "name": "minFeeUSD",
      "outputs": [
        {
          "internalType": "uint112",
          "name": "",
          "type": "uint112"
        }
      ],
      "stateMutability": "view",
      "type": "function"
    },
    {
      "inputs": [],
      "name": "pause",
      "outputs": [],
      "stateMutability": "nonpayable",
      "type": "function"
    },
    {
      "inputs": [
        {
          "internalType": "address",
          "name": "relay",
          "type": "address"
        }
      ],
      "name": "removeRelay",
      "outputs": [],
      "stateMutability": "nonpayable",
      "type": "function"
    },
    {
      "inputs": [
        {
          "internalType": "address",
          "name": "member",
          "type": "address"
        },
        {
          "internalType": "string",
          "name": "role",
          "type": "string"
        }
      ],
      "name": "removeRole",
      "outputs": [],
      "stateMutability": "nonpayable",
      "type": "function"
    },
    {
      "inputs": [
        {
          "internalType": "address",
          "name": "member",
          "type": "address"
        },
        {
          "internalType": "string[]",
          "name": "roles",
          "type": "string[]"
        }
      ],
      "name": "removeRoles",
      "outputs": [],
      "stateMutability": "nonpayable",
      "type": "function"
    },
    {
      "inputs": [
        {
          "internalType": "address",
          "name": "signer",
          "type": "address"
        }
      ],
      "name": "removeSigner",
      "outputs": [],
      "stateMutability": "nonpayable",
      "type": "function"
    },
    {
      "inputs": [
        {
          "internalType": "bytes",
          "name": "data",
          "type": "bytes"
        }
      ],
      "name": "requestChange",
      "outputs": [],
      "stateMutability": "nonpayable",
      "type": "function"
    },
    {
      "inputs": [],
      "name": "requestResume",
      "outputs": [],
      "stateMutability": "nonpayable",
      "type": "function"
    },
    {
      "inputs": [
        {
          "internalType": "address",
          "name": "logic",
          "type": "address"
        }
      ],
      "name": "requestUpgrade",
      "outputs": [],
      "stateMutability": "nonpayable",
      "type": "function"
    },
    {
      "inputs": [],
      "name": "resumeSigsNeeded",
      "outputs": [
        {
          "internalType": "uint8",
          "name": "",
          "type": "uint8"
        }
      ],
      "stateMutability": "view",
      "type": "function"
    },
    {
      "inputs": [],
      "name": "revshareSplit",
      "outputs": [
        {
          "internalType": "uint8",
          "name": "",
          "type": "uint8"
        }
      ],
      "stateMutability": "view",
      "type": "function"
    },
    {
      "inputs": [],
      "name": "revshareVault",
      "outputs": [
        {
          "internalType": "address",
          "name": "",
          "type": "address"
        }
      ],
      "stateMutability": "view",
      "type": "function"
    },
    {
      "inputs": [
        {
          "components": [
            {
              "internalType": "contract IERC20",
              "name": "feeToken",
              "type": "address"
            },
            {
              "components": [
                {
                  "internalType": "uint112",
                  "name": "amount",
                  "type": "uint112"
                },
                {
                  "internalType": "contract IERC20",
                  "name": "token",
                  "type": "address"
                }
              ],
              "internalType": "struct TokenTypes.TokenAmount",
              "name": "tokenIn",
              "type": "tuple"
            },
            {
              "components": [
                {
                  "internalType": "uint112",
                  "name": "amount",
                  "type": "uint112"
                },
                {
                  "internalType": "contract IERC20",
                  "name": "token",
                  "type": "address"
                }
              ],
              "internalType": "struct TokenTypes.TokenAmount",
              "name": "tokenOut",
              "type": "tuple"
            },
            {
              "components": [
                {
                  "internalType": "address",
                  "name": "router",
                  "type": "address"
                },
                {
                  "internalType": "address",
                  "name": "spender",
                  "type": "address"
                },
                {
                  "components": [
                    {
                      "internalType": "uint112",
                      "name": "amount",
                      "type": "uint112"
                    },
                    {
                      "internalType": "contract IERC20",
                      "name": "token",
                      "type": "address"
                    }
                  ],
                  "internalType": "struct TokenTypes.TokenAmount",
                  "name": "routeAmount",
                  "type": "tuple"
                },
                {
                  "internalType": "bytes",
                  "name": "routerData",
                  "type": "bytes"
                }
              ],
              "internalType": "struct SwapTypes.RouterRequest[]",
              "name": "routes",
              "type": "tuple[]"
            }
          ],
          "internalType": "struct SwapTypes.SelfSwap",
          "name": "request",
          "type": "tuple"
        }
      ],
      "name": "selfSwap",
      "outputs": [],
      "stateMutability": "nonpayable",
      "type": "function"
    },
    {
      "inputs": [
        {
          "components": [
            {
              "internalType": "uint16",
              "name": "stdBps",
              "type": "uint16"
            },
            {
              "internalType": "uint16",
              "name": "minBps",
              "type": "uint16"
            }
          ],
          "internalType": "struct LibDexible.BpsFeeChange",
          "name": "changes",
          "type": "tuple"
        }
      ],
      "name": "setNewBps",
      "outputs": [],
      "stateMutability": "nonpayable",
      "type": "function"
    },
    {
      "inputs": [
        {
          "internalType": "uint112",
          "name": "minFee",
          "type": "uint112"
        }
      ],
      "name": "setNewMinFee",
      "outputs": [],
      "stateMutability": "nonpayable",
      "type": "function"
    },
    {
      "inputs": [
        {
          "internalType": "uint8",
          "name": "sigs",
          "type": "uint8"
        }
      ],
      "name": "setRequiredSigs",
      "outputs": [],
      "stateMutability": "nonpayable",
      "type": "function"
    },
    {
      "inputs": [
        {
          "internalType": "uint8",
          "name": "split",
          "type": "uint8"
        }
      ],
      "name": "setRevshareSplit",
      "outputs": [],
      "stateMutability": "nonpayable",
      "type": "function"
    },
    {
      "inputs": [
        {
          "internalType": "address",
          "name": "t",
          "type": "address"
        }
      ],
      "name": "setRevshareVault",
      "outputs": [],
      "stateMutability": "nonpayable",
      "type": "function"
    },
    {
      "inputs": [
        {
          "internalType": "address",
          "name": "member",
          "type": "address"
        },
        {
          "internalType": "string",
          "name": "role",
          "type": "string"
        }
      ],
      "name": "setRole",
      "outputs": [],
      "stateMutability": "nonpayable",
      "type": "function"
    },
    {
      "inputs": [
        {
          "internalType": "address",
          "name": "member",
          "type": "address"
        },
        {
          "internalType": "string[]",
          "name": "roles",
          "type": "string[]"
        }
      ],
      "name": "setRoles",
      "outputs": [],
      "stateMutability": "nonpayable",
      "type": "function"
    },
    {
      "inputs": [
        {
          "internalType": "address",
          "name": "t",
          "type": "address"
        }
      ],
      "name": "setTreasury",
      "outputs": [],
      "stateMutability": "nonpayable",
      "type": "function"
    },
    {
      "inputs": [
        {
          "components": [
            {
              "components": [
                {
                  "internalType": "address",
                  "name": "requester",
                  "type": "address"
                },
                {
                  "components": [
                    {
                      "internalType": "contract IERC20",
                      "name": "feeToken",
                      "type": "address"
                    },
                    {
                      "internalType": "address",
                      "name": "affiliate",
                      "type": "address"
                    },
                    {
                      "internalType": "uint256",
                      "name": "affiliatePortion",
                      "type": "uint256"
                    }
                  ],
                  "internalType": "struct ExecutionTypes.FeeDetails",
                  "name": "fee",
                  "type": "tuple"
                }
              ],
              "internalType": "struct ExecutionTypes.ExecutionRequest",
              "name": "executionRequest",
              "type": "tuple"
            },
            {
              "components": [
                {
                  "internalType": "uint112",
                  "name": "amount",
                  "type": "uint112"
                },
                {
                  "internalType": "contract IERC20",
                  "name": "token",
                  "type": "address"
                }
              ],
              "internalType": "struct TokenTypes.TokenAmount",
              "name": "tokenIn",
              "type": "tuple"
            },
            {
              "components": [
                {
                  "internalType": "uint112",
                  "name": "amount",
                  "type": "uint112"
                },
                {
                  "internalType": "contract IERC20",
                  "name": "token",
                  "type": "address"
                }
              ],
              "internalType": "struct TokenTypes.TokenAmount",
              "name": "tokenOut",
              "type": "tuple"
            },
            {
              "components": [
                {
                  "internalType": "address",
                  "name": "router",
                  "type": "address"
                },
                {
                  "internalType": "address",
                  "name": "spender",
                  "type": "address"
                },
                {
                  "components": [
                    {
                      "internalType": "uint112",
                      "name": "amount",
                      "type": "uint112"
                    },
                    {
                      "internalType": "contract IERC20",
                      "name": "token",
                      "type": "address"
                    }
                  ],
                  "internalType": "struct TokenTypes.TokenAmount",
                  "name": "routeAmount",
                  "type": "tuple"
                },
                {
                  "internalType": "bytes",
                  "name": "routerData",
                  "type": "bytes"
                }
              ],
              "internalType": "struct SwapTypes.RouterRequest[]",
              "name": "routes",
              "type": "tuple[]"
            }
          ],
          "internalType": "struct SwapTypes.SwapRequest",
          "name": "request",
          "type": "tuple"
        }
      ],
      "name": "swap",
      "outputs": [],
      "stateMutability": "nonpayable",
      "type": "function"
    },
    {
      "inputs": [],
      "name": "upgradeSignaturesNeeded",
      "outputs": [
        {
          "internalType": "uint256",
          "name": "",
          "type": "uint256"
        }
      ],
      "stateMutability": "view",
      "type": "function"
    }
  ],
  "bytecode": "0x608060405234801561001057600080fd5b5061368c806100206000396000f3fe608060405234801561001057600080fd5b50600436106102745760003560e01c80636161791e11610151578063c3d718a4116100c3578063dcf52a8011610087578063dcf52a801461056a578063e84c5b7114610572578063eb12d61e146105ac578063f0f44260146105bf578063f4be37be146105d2578063f832309b146105e557600080fd5b8063c3d718a414610516578063c94fbd2714610529578063cd151e9a14610531578063d514beaa14610544578063dc5881411461055757600080fd5b80638957a7e5116101155780638957a7e5146104d057806391c55855146104d85780639738968c146104eb578063a03a086d146104f3578063adadf22f146104fb578063b187bd261461050e57600080fd5b80636161791e1461047c578063649279841461048f5780636b9f97ef146104a25780637a393ff5146104b55780638456cb59146104c857600080fd5b806333e5614f116101ea578063486bdd9d116101ae578063486bdd9d146103e357806348e7a26d146103f65780634e0bb8cc146104095780635b57a2ed146104435780635cd0b3ee14610456578063602dd0261461046957600080fd5b806333e5614f14610363578063343577551461037957806335e3aa21146103935780633a88b178146103a657806340d925b1146103d057600080fd5b80631bfe03081161023c5780631bfe0308146102da578063217fe6c6146102ed57806326cb32b7146103155780632807978e14610328578063299dd1391461033b5780632b9f73e11461035b57600080fd5b80630e316ab714610279578063197544431461028e578063199e5a59146102a15780631ae83411146102b45780631b157f12146102c7575b600080fd5b61028c61028736600461218a565b6105f8565b005b61028c61029c3660046121f9565b6106e5565b61028c6102af366004612267565b6107af565b61028c6102c236600461229d565b61084d565b61028c6102d53660046122f0565b61097f565b61028c6102e8366004612437565b610a16565b6103006102fb366004612437565b610add565b60405190151581526020015b60405180910390f35b61030061032336600461218a565b610b72565b61028c610336366004612267565b610b9b565b61034e61034936600461271c565b610c48565b60405161030c919061288e565b61028c610d6f565b61036b610e1d565b60405190815260200161030c565b610381610ea4565b60405160ff909116815260200161030c565b61028c6103a136600461289d565b610f28565b6103ae610fae565b60408051825161ffff908116825260209384015116928101929092520161030c565b61028c6103de3660046128b6565b611013565b61028c6103f1366004612938565b611080565b61028c61040436600461218a565b61113b565b600080516020613617833981519152546501000000000090046001600160701b03166040516001600160701b03909116815260200161030c565b61028c61045136600461289d565b6111df565b61028c610464366004612993565b611265565b61028c61047736600461229d565b61131d565b61028c61048a36600461289d565b6115c1565b61028c61049d366004612993565b611609565b61028c6104b036600461218a565b61168b565b61028c6104c33660046129da565b611719565b61028c611799565b61028c61181e565b61028c6104e63660046121f9565b61189d565b610300611932565b6103816119b1565b61028c61050936600461218a565b6119cc565b6103006119f3565b61028c610524366004612a0f565b6119fd565b61028c611c0b565b61028c61053f36600461218a565b611c8a565b61028c610552366004612b38565b611cb1565b61036b61056536600461289d565b611cf1565b61028c611d77565b7f949817a987a8e038ef345d3c9d4fd28e49d8e4e09456e57c05a8b2ce2e62866d546040516001600160a01b03909116815260200161030c565b61028c6105ba36600461218a565b611df6565b61028c6105cd36600461218a565b611edd565b61028c6105e0366004612b6c565b611fb8565b61028c6105f3366004612437565b61204f565b60006106026120e2565b336000908152600d8201602052604090205490915060ff1661063f5760405162461bcd60e51b815260040161063690612b7e565b60405180910390fd5b6001600160a01b0382166000036106895760405162461bcd60e51b815260206004820152600e60248201526d24b73b30b634b21039b4b3b732b960911b6044820152606401610636565b60006106936120e2565b6001600160a01b0384166000818152600d83016020526040808220805460ff191690555192935090917f3525e22824a8a7df2c9a6029941c824cf95b6447f1e13d5128fd3826d35afe8b9190a2505050565b610713336040518060400160405280600c81526020016b2927a622afa6a0a720a3a2a960a11b815250610add565b61072f5760405162461bcd60e51b815260040161063690612b7e565b6000805160206136378339815191526040516322ca16b360e21b815273__$b925d86496a269b1892e5d7410f7a2ae03$__91638b285acc9161077a9190879087908790600401612c12565b60006040518083038186803b15801561079257600080fd5b505af41580156107a6573d6000803e3d6000fd5b50505050505050565b63199e5a5960e01b60006107c16120e2565b6001600160e01b031983166000908152600c8201602052604090205490915060ff166107ff5760405162461bcd60e51b815260040161063690612c93565b604051634dee845560e01b8152600080516020613617833981519152600482015260ff8416602482015273__$006dcad09e6e3964c227cdfc41f3dd833d$__90634dee84559060440161077a565b6040516308c1c13f60e11b815273__$006dcad09e6e3964c227cdfc41f3dd833d$__90631183827e9061089490600080516020613617833981519152908590600401612ddc565b60006040518083038186803b1580156108ac57600080fd5b505af41580156108c0573d6000803e3d6000fd5b5050505073__$b925d86496a269b1892e5d7410f7a2ae03$__637294c8866108f360008051602061363783398151915290565b61090360e0850160c0860161218a565b6040516001600160e01b031960e085901b16815260048101929092526001600160a01b0316602482015260440160006040518083038186803b15801561094857600080fd5b505af415801561095c573d6000803e3d6000fd5b5061097c9250610973915050610100830183612eed565b61055290612f0d565b50565b630d8abf8960e11b60006109916120e2565b6001600160e01b031983166000908152600c8201602052604090205490915060ff166109cf5760405162461bcd60e51b815260040161063690612c93565b5050600080516020613617833981519152805472ffffffffffffffffffffffffffff00000000001916650100000000006001600160701b0390931692909202919091179055565b610a44336040518060400160405280600c81526020016b2927a622afa6a0a720a3a2a960a11b815250610add565b610a605760405162461bcd60e51b815260040161063690612b7e565b6000805160206136378339815191526040516306d3e57160e11b815273__$b925d86496a269b1892e5d7410f7a2ae03$__91630da7cae291610aa9919086908690600401612f5f565b60006040518083038186803b158015610ac157600080fd5b505af4158015610ad5573d6000803e3d6000fd5b505050505050565b600060008051602061363783398151915260405163776e860360e11b815273__$b925d86496a269b1892e5d7410f7a2ae03$__9163eedd0c0691610b28919087908790600401612f5f565b602060405180830381865af4158015610b45573d6000803e3d6000fd5b505050506040513d601f19601f82011682018060405250810190610b699190612f94565b90505b92915050565b6000610b6c826040518060400160405280600581526020016452454c415960d81b815250610add565b631403cbc760e11b6000610bad6120e2565b6001600160e01b031983166000908152600c8201602052604090205490915060ff16610beb5760405162461bcd60e51b815260040161063690612c93565b6000610bf56120e2565b805461ff00191661010060ff87169081029190911782556040519081529091507f996d24db4a86034b8a07339305b06563c6b9e34fc887a6f84dbba1d64f690fd79060200160405180910390a150505050565b610cb0604051806101800160405280600015158152602001600015158152602001600081526020016000815260200160008152602001600081526020016000815260200160008152602001600081526020016000815260200160008152602001600081525090565b333014610cf45760405162461bcd60e51b8152602060048201526012602482015271496e7465726e616c2063616c6c206f6e6c7960701b6044820152606401610636565b6040516314cdbb6d60e21b815273__$59ef0c4a0574f027e6c90b4662d1cbde53$__90635336edb490610d2d90869086906004016130dc565b61018060405180830381865af4158015610d4b573d6000803e3d6000fd5b505050506040513d601f19601f82011682018060405250810190610b699190613100565b6000610d796120e2565b336000908152600d8201602052604090205490915060ff16610dad5760405162461bcd60e51b815260040161063690612b7e565b610db56120e2565b60405163b5c1a4bd60e01b8152600481019190915273__$a1eb5e9a06dc78666997fa26b97107c1d0$__9063b5c1a4bd906024015b60006040518083038186803b158015610e0257600080fd5b505af4158015610e16573d6000803e3d6000fd5b5050505050565b6000610e276120e2565b6040516396deafed60e01b8152600481019190915273__$a1eb5e9a06dc78666997fa26b97107c1d0$__906396deafed90602401602060405180830381865af4158015610e78573d6000803e3d6000fd5b505050506040513d601f19601f82011682018060405250810190610e9c91906131ad565b60ff16905090565b6000610eae6120e2565b6040516319477f2b60e11b8152600481019190915273__$a1eb5e9a06dc78666997fa26b97107c1d0$__9063328efe5690602401602060405180830381865af4158015610eff573d6000803e3d6000fd5b505050506040513d601f19601f82011682018060405250810190610f2391906131ad565b905090565b6000610f326120e2565b336000908152600d8201602052604090205490915060ff16610f665760405162461bcd60e51b815260040161063690612b7e565b610f6e6120e2565b604051633cf6e7e560e11b815260048101919091526024810183905273__$a1eb5e9a06dc78666997fa26b97107c1d0$__906379edcfca90604401610aa9565b60408051808201909152600080825260208201526040518060400160405280610fe260008051602061361783398151915290565b54610100900461ffff168152602001600080516020613617833981519152546301000000900461ffff169052919050565b60005b8181101561107b5761106b838383818110611033576110336131ca565b9050602002016020810190611048919061218a565b6040518060400160405280600581526020016452454c415960d81b81525061204f565b611074816131f6565b9050611016565b505050565b600061108a6120e2565b336000908152600d8201602052604090205490915060ff166110be5760405162461bcd60e51b815260040161063690612b7e565b6110c66120e2565b60405163b190721f60e01b815273__$a1eb5e9a06dc78666997fa26b97107c1d0$__9163b190721f916111049190899089908990899060040161320f565b60006040518083038186803b15801561111c57600080fd5b505af4158015611130573d6000803e3d6000fd5b505050505050505050565b6348e7a26d60e01b600061114d6120e2565b6001600160e01b031983166000908152600c8201602052604090205490915060ff1661118b5760405162461bcd60e51b815260040161063690612c93565b6040516324c527cd60e01b815260008051602061361783398151915260048201526001600160a01b038416602482015273__$006dcad09e6e3964c227cdfc41f3dd833d$__906324c527cd9060440161077a565b60006111e96120e2565b336000908152600d8201602052604090205490915060ff1661121d5760405162461bcd60e51b815260040161063690612b7e565b6112256120e2565b6040516341ae60fd60e01b815260048101919091526024810183905273__$a1eb5e9a06dc78666997fa26b97107c1d0$__906341ae60fd90604401610aa9565b600061126f6120e2565b336000908152600d8201602052604090205490915060ff166112a35760405162461bcd60e51b815260040161063690612b7e565b6112ab6120e2565b604051634552300560e11b815273__$a1eb5e9a06dc78666997fa26b97107c1d0$__91638aa4600a916112e79190889088908890600401613248565b60006040518083038186803b1580156112ff57600080fd5b505af4158015611313573d6000803e3d6000fd5b5050505050505050565b600080516020613637833981519152604080518082018252600581526452454c415960d81b6020820152905163776e860360e11b815273__$b925d86496a269b1892e5d7410f7a2ae03$__9263eedd0c069261137e92339190600401612f5f565b602060405180830381865af415801561139b573d6000803e3d6000fd5b505050506040513d601f19601f820116820180604052508101906113bf9190612f94565b6114005760405162461bcd60e51b8152602060048201526012602482015271556e617574686f72697a65642072656c617960701b6044820152606401610636565b6114086120e2565b5460ff161561144c5760405162461bcd60e51b815260206004820152601060248201526f139bdd081dda1a5b19481c185d5cd95960821b6044820152606401610636565b6000619c405a61145c919061327d565b905060006040518061018001604052806000151581526020016000151581526020018381526020016000815260200160008152602001600081526020016000815260200160008152602001600081526020016000815260200160008152602001600081525090506000306001600160a01b031663299dd139620138805a6114e39190613290565b86856040518463ffffffff1660e01b815260040161150292919061339c565b6101806040518083038160008887f19350505050801561153f575060408051601f3d908101601f1916820190925261153c91810190613100565b60015b6115775761156f6040518060400160405280600b81526020016a14ddd85c0819985a5b195960aa1b815250612106565b50600061157e565b9150600190505b61158784613457565b604051630274c0b760e11b815273__$59ef0c4a0574f027e6c90b4662d1cbde53$__916304e9816e916112e7919086908690600401613463565b6115c96120e2565b6040516366c373c960e01b815260048101919091526024810182905273__$a1eb5e9a06dc78666997fa26b97107c1d0$__906366c373c990604401610dea565b60006116136120e2565b336000908152600d8201602052604090205490915060ff166116475760405162461bcd60e51b815260040161063690612b7e565b61164f6120e2565b604051633b32d55d60e21b815273__$a1eb5e9a06dc78666997fa26b97107c1d0$__9163eccb5574916112e79190889088908890600401613248565b60006116956120e2565b336000908152600d8201602052604090205490915060ff166116c95760405162461bcd60e51b815260040161063690612b7e565b6116d16120e2565b604051632791078760e21b815260048101919091526001600160a01b038316602482015273__$a1eb5e9a06dc78666997fa26b97107c1d0$__90639e441e1c90604401610aa9565b60006117236120e2565b336000908152600d8201602052604090205490915060ff166117575760405162461bcd60e51b815260040161063690612b7e565b61175f6120e2565b6040516326373dcf60e21b815273__$a1eb5e9a06dc78666997fa26b97107c1d0$__916398dcf73c9161077a919087908790600401613498565b60006117a36120e2565b336000908152600d8201602052604090205490915060ff166117d75760405162461bcd60e51b815260040161063690612b7e565b60006117e16120e2565b805460ff1916600117815560405190915033907f62e78cea01bee320cd4e420270b5ea74000d11b0c9f74754ebdbfc544b05a25890600090a25050565b60006118286120e2565b336000908152600d8201602052604090205490915060ff1661185c5760405162461bcd60e51b815260040161063690612b7e565b6118646120e2565b60405163dc02380960e01b8152600481019190915273__$a1eb5e9a06dc78666997fa26b97107c1d0$__9063dc02380990602401610dea565b6118cb336040518060400160405280600c81526020016b2927a622afa6a0a720a3a2a960a11b815250610add565b6118e75760405162461bcd60e51b815260040161063690612b7e565b6000805160206136378339815191526040516346a823f960e01b815273__$b925d86496a269b1892e5d7410f7a2ae03$__916346a823f99161077a9190879087908790600401612c12565b600061193c6120e2565b6040516330a340ab60e21b8152600481019190915273__$a1eb5e9a06dc78666997fa26b97107c1d0$__9063c28d02ac90602401602060405180830381865af415801561198d573d6000803e3d6000fd5b505050506040513d601f19601f82011682018060405250810190610f239190612f94565b60006000805160206136178339815191525b5460ff16919050565b61097c816040518060400160405280600581526020016452454c415960d81b81525061204f565b60006119c36120e2565b611a056120e2565b5460ff1615611a495760405162461bcd60e51b815260206004820152601060248201526f139bdd081dda1a5b19481c185d5cd95960821b6044820152606401610636565b6040805160c081018252336080820190815282516060810190935260009282919060a083019080611a7d602089018961218a565b6001600160a01b0316815260200160006001600160a01b031681526020016000815250815250815260200183602001803603810190611abc91906134b2565b8152602001611ad3368590038501606086016134b2565b8152602001611ae560a08501856134ce565b611aee91613517565b90526040805161018081018252600080825260016020830152818301819052606082018190526080820181905260a0820181905260c0820181905260e0820181905261010082018190526101208201819052610140820181905261016082015290516314cdbb6d60e21b81529192509073__$59ef0c4a0574f027e6c90b4662d1cbde53$__90635336edb490611b8a90859085906004016130dc565b61018060405180830381865af4158015611ba8573d6000803e3d6000fd5b505050506040513d601f19601f82011682018060405250810190611bcc9190613100565b604051630274c0b760e11b815290915073__$59ef0c4a0574f027e6c90b4662d1cbde53$__906304e9816e9061077a9085908590600190600401613463565b6000611c156120e2565b336000908152600d8201602052604090205490915060ff16611c495760405162461bcd60e51b815260040161063690612b7e565b611c516120e2565b604051634e3e101b60e01b8152600481019190915273__$a1eb5e9a06dc78666997fa26b97107c1d0$__90634e3e101b90602401610dea565b61097c816040518060400160405280600581526020016452454c415960d81b815250610a16565b611cb96120e2565b60405163e84ba0a360e01b815273__$a1eb5e9a06dc78666997fa26b97107c1d0$__9163e84ba0a391610dea91908590600401613524565b6000611cfb6120e2565b6040516384c81e4d60e01b815260048101919091526024810183905273__$a1eb5e9a06dc78666997fa26b97107c1d0$__906384c81e4d90604401602060405180830381865af4158015611d53573d6000803e3d6000fd5b505050506040513d601f19601f82011682018060405250810190610b6c91906135b5565b6000611d816120e2565b336000908152600d8201602052604090205490915060ff16611db55760405162461bcd60e51b815260040161063690612b7e565b611dbd6120e2565b604051630cb8674760e01b8152600481019190915273__$a1eb5e9a06dc78666997fa26b97107c1d0$__90630cb8674790602401610dea565b6000611e006120e2565b336000908152600d8201602052604090205490915060ff16611e345760405162461bcd60e51b815260040161063690612b7e565b6001600160a01b038216600003611e7e5760405162461bcd60e51b815260206004820152600e60248201526d24b73b30b634b21039b4b3b732b960911b6044820152606401610636565b6000611e886120e2565b6001600160a01b0384166000818152600d83016020526040808220805460ff191660011790555192935090917f47d1c22a25bb3a5d4e481b9b1e6944c2eade3181a0a20b495ed61d35b5323f249190a2505050565b630787a21360e51b6000611eef6120e2565b6001600160e01b031983166000908152600c8201602052604090205490915060ff16611f2d5760405162461bcd60e51b815260040161063690612c93565b6000805160206136178339815191526001600160a01b038416611f925760405162461bcd60e51b815260206004820152601860248201527f496e76616c6964207472656173757279206164647265737300000000000000006044820152606401610636565b60020180546001600160a01b0319166001600160a01b0394909416939093179092555050565b637a5f1bdf60e11b6000611fca6120e2565b6001600160e01b031983166000908152600c8201602052604090205490915060ff166120085760405162461bcd60e51b815260040161063690612c93565b60008051602061361783398151915260405163e3cfd2db60e01b815273__$006dcad09e6e3964c227cdfc41f3dd833d$__9163e3cfd2db9161077a919087906004016135ce565b61207d336040518060400160405280600c81526020016b2927a622afa6a0a720a3a2a960a11b815250610add565b6120995760405162461bcd60e51b815260040161063690612b7e565b6000805160206136378339815191526040516306cced0f60e31b815273__$b925d86496a269b1892e5d7410f7a2ae03$__91633667687891610aa9919086908690600401612f5f565b7f95345cad9ec96dfc8c5b0a875a5c498451c293011b6404d5fac2627c08bc661c90565b61097c8160405160240161211a9190613603565b60408051601f198184030181529190526020810180516001600160e01b031663104c13eb60e21b17905280516a636f6e736f6c652e6c6f67602083016000808483855afa5050505050565b6001600160a01b038116811461097c57600080fd5b803561218581612165565b919050565b60006020828403121561219c57600080fd5b81356121a781612165565b9392505050565b60008083601f8401126121c057600080fd5b5081356001600160401b038111156121d757600080fd5b6020830191508360208260051b85010111156121f257600080fd5b9250929050565b60008060006040848603121561220e57600080fd5b833561221981612165565b925060208401356001600160401b0381111561223457600080fd5b612240868287016121ae565b9497909650939450505050565b60ff8116811461097c57600080fd5b80356121858161224d565b60006020828403121561227957600080fd5b81356121a78161224d565b6000610120828403121561229757600080fd5b50919050565b6000602082840312156122af57600080fd5b81356001600160401b038111156122c557600080fd5b6122d184828501612284565b949350505050565b80356001600160701b038116811461218557600080fd5b60006020828403121561230257600080fd5b610b69826122d9565b634e487b7160e01b600052604160045260246000fd5b604080519081016001600160401b03811182821017156123435761234361230b565b60405290565b604051608081016001600160401b03811182821017156123435761234361230b565b604051606081016001600160401b03811182821017156123435761234361230b565b60405161018081016001600160401b03811182821017156123435761234361230b565b604051601f8201601f191681016001600160401b03811182821017156123d8576123d861230b565b604052919050565b60006001600160401b038311156123f9576123f961230b565b61240c601f8401601f19166020016123b0565b905082815283838301111561242057600080fd5b828260208301376000602084830101529392505050565b6000806040838503121561244a57600080fd5b823561245581612165565b915060208301356001600160401b0381111561247057600080fd5b8301601f8101851361248157600080fd5b612490858235602084016123e0565b9150509250929050565b6000604082840312156124ac57600080fd5b6124b4612321565b90506124bf826122d9565b815260208201356124cf81612165565b602082015292915050565b60006001600160401b038211156124f3576124f361230b565b5060051b60200190565b600061251061250b846124da565b6123b0565b8381529050602080820190600585901b84018681111561252f57600080fd5b845b818110156125eb5780356001600160401b03808211156125515760008081fd5b9087019060a0828b0312156125665760008081fd5b61256e612349565b823561257981612165565b81528286013561258881612165565b81870152604061259a8c85830161249a565b908201526080830135828111156125b15760008081fd5b8084019350508a601f8401126125c957600091508182fd5b6125d78b84358886016123e0565b606082015286525050928201928201612531565b505050509392505050565b600082601f83011261260757600080fd5b610b69838335602085016124fd565b600081830361012081121561262a57600080fd5b612632612349565b9150608081121561264257600080fd5b61264a612321565b833561265581612165565b81526060601f198301121561266957600080fd5b61267161236b565b9150602084013561268181612165565b8252604084013561269181612165565b806020840152506060840135604083015281602082015280835250506126ba836080840161249a565b60208201526126cc8360c0840161249a565b60408201526101008201356001600160401b038111156126eb57600080fd5b6126f7848285016125f6565b60608301525092915050565b801515811461097c57600080fd5b803561218581612703565b6000808284036101a081121561273157600080fd5b83356001600160401b0381111561274757600080fd5b61275386828701612616565b93505061018080601f198301121561276a57600080fd5b61277261238d565b915061278060208601612711565b825261278e60408601612711565b6020830152606085013560408301526080850135606083015260a0850135608083015260c085013560a083015260e085013560c08301526101008086013560e08401526101208087013582850152610140915081870135818501525061016080870135828501528287013581850152505050809150509250929050565b8051151582526020810151612824602084018215159052565b5060408181015190830152606080820151908301526080808201519083015260a0808201519083015260c0808201519083015260e0808201519083015261010080820151908301526101208082015190830152610140808201519083015261016090810151910152565b6101808101610b6c828461280b565b6000602082840312156128af57600080fd5b5035919050565b600080602083850312156128c957600080fd5b82356001600160401b038111156128df57600080fd5b6128eb858286016121ae565b90969095509350505050565b60008083601f84011261290957600080fd5b5081356001600160401b0381111561292057600080fd5b6020830191508360208285010111156121f257600080fd5b6000806000806060858703121561294e57600080fd5b84359350602085013561296081612165565b925060408501356001600160401b0381111561297b57600080fd5b612987878288016128f7565b95989497509550505050565b6000806000604084860312156129a857600080fd5b83356129b381612165565b925060208401356001600160401b038111156129ce57600080fd5b612240868287016128f7565b600080602083850312156129ed57600080fd5b82356001600160401b03811115612a0357600080fd5b6128eb858286016128f7565b600060208284031215612a2157600080fd5b81356001600160401b03811115612a3757600080fd5b820160c081850312156121a757600080fd5b803563ffffffff8116811461218557600080fd5b600060808284031215612a6f57600080fd5b612a77612349565b90508135612a848161224d565b81526020612a93838201612a49565b818301526040830135612aa581612165565b604083015260608301356001600160401b03811115612ac357600080fd5b8301601f81018513612ad457600080fd5b8035612ae261250b826124da565b81815260059190911b82018301908381019087831115612b0157600080fd5b928401925b82841015612b28578335612b1981612165565b82529284019290840190612b06565b6060860152509295945050505050565b600060208284031215612b4a57600080fd5b81356001600160401b03811115612b6057600080fd5b6122d184828501612a5d565b60006040828403121561229757600080fd5b6020808252600c908201526b155b985d5d1a1bdc9a5e995960a21b604082015260600190565b81835281816020850137506000828201602090810191909152601f909101601f19169091010190565b6000808335601e19843603018112612be457600080fd5b83016020810192503590506001600160401b03811115612c0357600080fd5b8036038213156121f257600080fd5b600060608201868352602060018060a01b03871681850152606060408501528185835260808501905060808660051b86010192508660005b87811015612c8457868503607f19018352612c65828a612bcd565b612c70878284612ba4565b965050509183019190830190600101612c4a565b50929998505050505050505050565b602080825260149082015273139bdd08185c1c1c9bdd9959081d1bc818d85b1b60621b604082015260600190565b803561ffff8116811461218557600080fd5b60008235607e19833603018112612ce957600080fd5b90910192915050565b6000808335601e19843603018112612d0957600080fd5b83016020810192503590506001600160401b03811115612d2857600080fd5b8060051b36038213156121f257600080fd5b6000608083018235612d4b8161224d565b60ff168452602063ffffffff612d62858301612a49565b16818601526040840135612d7581612165565b6001600160a01b038181166040880152612d926060870187612cf2565b608060608a015294859052939150600060a088015b83821015612dd0578535612dba81612165565b8316815294840194600191909101908401612da7565b98975050505050505050565b82815260406020820152612dfd60408201612df68461225c565b60ff169052565b6000612e0b60208401612cc1565b61ffff166060830152612e2060408401612cc1565b61ffff166080830152612e356060840161217a565b6001600160a01b031660a0830152612e4f6080840161217a565b6001600160a01b031660c0830152612e6960a0840161217a565b6001600160a01b031660e0830152612e8360c0840161217a565b610100612e9a818501836001600160a01b03169052565b612ea660e086016122d9565b9150610120612ebf818601846001600160701b03169052565b612ecb82870187612cd3565b9250806101408601525050612ee4610160840182612d3a565b95945050505050565b60008235607e19833603018112612f0357600080fd5b9190910192915050565b6000610b6c3683612a5d565b6000815180845260005b81811015612f3f57602081850181015186830182015201612f23565b506000602082860101526020601f19601f83011685010191505092915050565b8381526001600160a01b0383166020820152606060408201819052600090612ee490830184612f19565b805161218581612703565b600060208284031215612fa657600080fd5b81516121a781612703565b80516001600160701b031682526020908101516001600160a01b0316910152565b6000610120808401835160018060a01b0380825116875260208083015192508183511681890152808301516040838216818b01528085015194506060915084828b01528289015194506080613029818c0187612fb1565b818a0151955061303c60c08c0187612fb1565b898301516101008c0198909852875196879052610140808c0198600589901b8d0190910197908501965060005b818110156130cb5761013f198d8a03018a52875160a0888251168b52888883015116888c01528582015161309f878d0182612fb1565b5086820151915080858c01526130b7818c0183612f19565b9b88019b9a50505096850196600101613069565b50969b9a5050505050505050505050565b60006101a08083526130f081840186612fd2565b9150506121a7602083018461280b565b6000610180828403121561311357600080fd5b61311b61238d565b61312483612f89565b815261313260208401612f89565b602082015260408301516040820152606083015160608201526080830151608082015260a083015160a082015260c083015160c082015260e083015160e08201526101008084015181830152506101208084015181830152506101408084015181830152506101608084015181830152508091505092915050565b6000602082840312156131bf57600080fd5b81516121a78161224d565b634e487b7160e01b600052603260045260246000fd5b634e487b7160e01b600052601160045260246000fd5b600060018201613208576132086131e0565b5060010190565b85815284602082015260018060a01b038416604082015260806060820152600061323d608083018486612ba4565b979650505050505050565b8481526001600160a01b03841660208201526060604082018190526000906132739083018486612ba4565b9695505050505050565b80820180821115610b6c57610b6c6131e0565b81810381811115610b6c57610b6c6131e0565b6001600160701b036132b4826122d9565b16825260208101356132c581612165565b6001600160a01b03166020929092019190915250565b81835260006020808501808196508560051b81019150846000805b8881101561338e578385038a528235609e19893603018112613316578283fd5b880160a0813561332581612165565b6001600160a01b039081168852828901359061334082612165565b168789015260406133558189018483016132a3565b50608061336481840184612bcd565b935082828a0152613378838a018583612ba4565b9d8a019d985050509387019350506001016132f6565b509298975050505050505050565b60006101a080835284356133af81612165565b6001600160a01b03818116928501929092526020860135916133d083612165565b9182166101c08501526040860135916133e883612165565b919091166101e084015250606084013561020083015261340f6102208301608086016132a3565b613420610260830160c086016132a3565b61342e610100850185612cf2565b6101206102a08501526134466102c0850182846132db565b925050506121a7602083018461280b565b6000610b6c3683612616565b60006101c080835261347781840187612fd2565b915050613487602083018561280b565b8215156101a0830152949350505050565b838152604060208201526000612ee4604083018486612ba4565b6000604082840312156134c457600080fd5b610b69838361249a565b6000808335601e198436030181126134e557600080fd5b8301803591506001600160401b038211156134ff57600080fd5b6020019150600581901b36038213156121f257600080fd5b6000610b693684846124fd565b8281526000602060408184015260c0830160ff855116604085015263ffffffff82860151166060850152604085015160018060a01b03808216608087015260608701519150608060a087015282825180855260e0880191508584019450600093505b808410156135a857845183168252938501936001939093019290850190613586565b5098975050505050505050565b6000602082840312156135c757600080fd5b5051919050565b8281526060810161ffff806135e285612cc1565b166020840152806135f560208601612cc1565b166040840152509392505050565b602081526000610b696020830184612f1956fe949817a987a8e038ef345d3c9d4fd28e49d8e4e09456e57c05a8b2ce2e62866ceaae66d228e19ff3fd9a03e3c23ae62eb7fb45b5ce2ee3b6fbdc8dd6b661c819a2646970667358221220c72ca88ee7a3b40329ba62d0cc97c0d0981b5d39c4e5d738d4a810cebea837d664736f6c63430008110033",
  "linkReferences": {
    "contracts/dexible/extensions/SwapExtension.sol": {
      "SwapExtension": [
        {
          "length": 20,
          "start": 3363
        },
        {
          "length": 20,
          "start": 5558
        },
        {
          "length": 20,
          "start": 7040
        },
        {
          "length": 20,
          "start": 7166
        }
      ]
    },
    "contracts/libraries/LibDexible.sol": {
      "LibDexible": [
        {
          "length": 20,
          "start": 2123
        },
        {
          "length": 20,
          "start": 2172
        },
        {
          "length": 20,
          "start": 4573
        },
        {
          "length": 20,
          "start": 8262
        }
      ]
    },
    "contracts/libraries/LibMultiSig.sol": {
      "LibMultiSig": [
        {
          "length": 20,
          "start": 3564
        },
        {
          "length": 20,
          "start": 3678
        },
        {
          "length": 20,
          "start": 3813
        },
        {
          "length": 20,
          "start": 4012
        },
        {
          "length": 20,
          "start": 4341
        },
        {
          "length": 20,
          "start": 4707
        },
        {
          "length": 20,
          "start": 4826
        },
        {
          "length": 20,
          "start": 5639
        },
        {
          "length": 20,
          "start": 5758
        },
        {
          "length": 20,
          "start": 5911
        },
        {
          "length": 20,
          "start": 6030
        },
        {
          "length": 20,
          "start": 6299
        },
        {
          "length": 20,
          "start": 6515
        },
        {
          "length": 20,
          "start": 7304
        },
        {
          "length": 20,
          "start": 7400
        },
        {
          "length": 20,
          "start": 7481
        },
        {
          "length": 20,
          "start": 7668
        }
      ]
    },
    "contracts/libraries/LibRoleManagement.sol": {
      "LibRoleManagement": [
        {
          "length": 20,
          "start": 1901
        },
        {
          "length": 20,
          "start": 2278
        },
        {
          "length": 20,
          "start": 2718
        },
        {
          "length": 20,
          "start": 2845
        },
        {
          "length": 20,
          "start": 4981
        },
        {
          "length": 20,
          "start": 6437
        },
        {
          "length": 20,
          "start": 8407
        }
      ]
    }
  },
  "deployedLinkReferences": {
    "contracts/dexible/extensions/SwapExtension.sol": {
      "SwapExtension": [
        {
          "length": 20,
          "start": 3331
        },
        {
          "length": 20,
          "start": 5526
        },
        {
          "length": 20,
          "start": 7008
        },
        {
          "length": 20,
          "start": 7134
        }
      ]
    },
    "contracts/libraries/LibDexible.sol": {
      "LibDexible": [
        {
          "length": 20,
          "start": 2091
        },
        {
          "length": 20,
          "start": 2140
        },
        {
          "length": 20,
          "start": 4541
        },
        {
          "length": 20,
          "start": 8230
        }
      ]
    },
    "contracts/libraries/LibMultiSig.sol": {
      "LibMultiSig": [
        {
          "length": 20,
          "start": 3532
        },
        {
          "length": 20,
          "start": 3646
        },
        {
          "length": 20,
          "start": 3781
        },
        {
          "length": 20,
          "start": 3980
        },
        {
          "length": 20,
          "start": 4309
        },
        {
          "length": 20,
          "start": 4675
        },
        {
          "length": 20,
          "start": 4794
        },
        {
          "length": 20,
          "start": 5607
        },
        {
          "length": 20,
          "start": 5726
        },
        {
          "length": 20,
          "start": 5879
        },
        {
          "length": 20,
          "start": 5998
        },
        {
          "length": 20,
          "start": 6267
        },
        {
          "length": 20,
          "start": 6483
        },
        {
          "length": 20,
          "start": 7272
        },
        {
          "length": 20,
          "start": 7368
        },
        {
          "length": 20,
          "start": 7449
        },
        {
          "length": 20,
          "start": 7636
        }
      ]
    },
    "contracts/libraries/LibRoleManagement.sol": {
      "LibRoleManagement": [
        {
          "length": 20,
          "start": 1869
        },
        {
          "length": 20,
          "start": 2246
        },
        {
          "length": 20,
          "start": 2686
        },
        {
          "length": 20,
          "start": 2813
        },
        {
          "length": 20,
          "start": 4949
        },
        {
          "length": 20,
          "start": 6405
        },
        {
          "length": 20,
          "start": 8375
        }
      ]
    }
  }
}