{
  "_format": "hh-sol-artifact-1",
  "contractName": "Dexible",
  "sourceName": "contracts/dexible/Dexible.sol",
  "abi": [
    {
      "inputs": [
        {
          "components": [
            {
              "internalType": "uint8",
              "name": "revshareSplitRatio",
              "type": "uint8"
            },
            {
              "internalType": "uint16",
              "name": "stdBpsRate",
              "type": "uint16"
            },
            {
              "internalType": "uint16",
              "name": "minBpsRate",
              "type": "uint16"
            },
            {
              "internalType": "address",
              "name": "adminMultiSig",
              "type": "address"
            },
            {
              "internalType": "address",
              "name": "communityVault",
              "type": "address"
            },
            {
              "internalType": "address",
              "name": "treasury",
              "type": "address"
            },
            {
              "internalType": "address",
              "name": "dxblToken",
              "type": "address"
            },
            {
              "internalType": "address",
              "name": "arbGasOracle",
              "type": "address"
            },
            {
              "internalType": "uint112",
              "name": "minFeeUSD",
              "type": "uint112"
            },
            {
              "internalType": "address[]",
              "name": "initialRelays",
              "type": "address[]"
            }
          ],
          "internalType": "struct DexibleStorage.DexibleConfig",
          "name": "config",
          "type": "tuple"
        }
      ],
      "stateMutability": "nonpayable",
      "type": "constructor"
    },
    {
      "anonymous": false,
      "inputs": [
        {
          "indexed": true,
          "internalType": "address",
          "name": "affiliate",
          "type": "address"
        },
        {
          "indexed": false,
          "internalType": "address",
          "name": "token",
          "type": "address"
        },
        {
          "indexed": false,
          "internalType": "uint256",
          "name": "amount",
          "type": "uint256"
        }
      ],
      "name": "AffiliatePaid",
      "type": "event"
    },
    {
      "anonymous": false,
      "inputs": [
        {
          "indexed": false,
          "internalType": "address",
          "name": "newVault",
          "type": "address"
        }
      ],
      "name": "ArbGasOracleChanged",
      "type": "event"
    },
    {
      "anonymous": false,
      "inputs": [
        {
          "indexed": false,
          "internalType": "uint32",
          "name": "stdRate",
          "type": "uint32"
        },
        {
          "indexed": false,
          "internalType": "uint32",
          "name": "minRate",
          "type": "uint32"
        }
      ],
      "name": "ChangedBpsRates",
      "type": "event"
    },
    {
      "anonymous": false,
      "inputs": [
        {
          "indexed": false,
          "internalType": "uint8",
          "name": "split",
          "type": "uint8"
        }
      ],
      "name": "ChangedRevshareSplit",
      "type": "event"
    },
    {
      "anonymous": false,
      "inputs": [
        {
          "indexed": true,
          "internalType": "address",
          "name": "old",
          "type": "address"
        },
        {
          "indexed": true,
          "internalType": "address",
          "name": "newRevshare",
          "type": "address"
        }
      ],
      "name": "ChangedRevshareVault",
      "type": "event"
    },
    {
      "anonymous": false,
      "inputs": [
        {
          "indexed": true,
          "internalType": "address",
          "name": "relay",
          "type": "address"
        },
        {
          "indexed": false,
          "internalType": "uint256",
          "name": "amount",
          "type": "uint256"
        }
      ],
      "name": "InsufficientGasFunds",
      "type": "event"
    },
    {
      "anonymous": false,
      "inputs": [
        {
          "indexed": false,
          "internalType": "uint16",
          "name": "newRate",
          "type": "uint16"
        }
      ],
      "name": "MinBpsChanged",
      "type": "event"
    },
    {
      "anonymous": false,
      "inputs": [
        {
          "indexed": false,
          "internalType": "uint112",
          "name": "newMin",
          "type": "uint112"
        }
      ],
      "name": "MinFeeChanged",
      "type": "event"
    },
    {
      "anonymous": false,
      "inputs": [
        {
          "indexed": true,
          "internalType": "address",
          "name": "relay",
          "type": "address"
        },
        {
          "indexed": false,
          "internalType": "uint256",
          "name": "amount",
          "type": "uint256"
        }
      ],
      "name": "PaidGasFunds",
      "type": "event"
    },
    {
      "anonymous": false,
      "inputs": [],
      "name": "Paused",
      "type": "event"
    },
    {
      "anonymous": false,
      "inputs": [],
      "name": "Resumed",
      "type": "event"
    },
    {
      "anonymous": false,
      "inputs": [
        {
          "indexed": false,
          "internalType": "uint8",
          "name": "newRate",
          "type": "uint8"
        }
      ],
      "name": "SplitRatioChanged",
      "type": "event"
    },
    {
      "anonymous": false,
      "inputs": [
        {
          "indexed": false,
          "internalType": "uint16",
          "name": "newRate",
          "type": "uint16"
        }
      ],
      "name": "StdBpsChanged",
      "type": "event"
    },
    {
      "anonymous": false,
      "inputs": [
        {
          "indexed": true,
          "internalType": "address",
          "name": "trader",
          "type": "address"
        },
        {
          "indexed": false,
          "internalType": "address",
          "name": "feeToken",
          "type": "address"
        },
        {
          "indexed": false,
          "internalType": "uint256",
          "name": "gasFeePaid",
          "type": "uint256"
        }
      ],
      "name": "SwapFailed",
      "type": "event"
    },
    {
      "anonymous": false,
      "inputs": [
        {
          "indexed": true,
          "internalType": "address",
          "name": "trader",
          "type": "address"
        },
        {
          "indexed": true,
          "internalType": "address",
          "name": "affiliate",
          "type": "address"
        },
        {
          "indexed": false,
          "internalType": "uint256",
          "name": "inputAmount",
          "type": "uint256"
        },
        {
          "indexed": false,
          "internalType": "uint256",
          "name": "outputAmount",
          "type": "uint256"
        },
        {
          "indexed": false,
          "internalType": "address",
          "name": "feeToken",
          "type": "address"
        },
        {
          "indexed": false,
          "internalType": "uint256",
          "name": "gasFee",
          "type": "uint256"
        },
        {
          "indexed": false,
          "internalType": "uint256",
          "name": "affiliateFee",
          "type": "uint256"
        },
        {
          "indexed": false,
          "internalType": "uint256",
          "name": "dexibleFee",
          "type": "uint256"
        }
      ],
      "name": "SwapSuccess",
      "type": "event"
    },
    {
      "anonymous": false,
      "inputs": [
        {
          "indexed": false,
          "internalType": "address",
          "name": "newTreasury",
          "type": "address"
        }
      ],
      "name": "TreasuryChanged",
      "type": "event"
    },
    {
      "anonymous": false,
      "inputs": [
        {
          "indexed": false,
          "internalType": "address",
          "name": "newVault",
          "type": "address"
        }
      ],
      "name": "VaultChanged",
      "type": "event"
    },
    {
      "inputs": [
        {
          "internalType": "address[]",
          "name": "relays",
          "type": "address[]"
        }
      ],
      "name": "addRelays",
      "outputs": [],
      "stateMutability": "nonpayable",
      "type": "function"
    },
    {
      "inputs": [],
      "name": "arbitrumGasOracle",
      "outputs": [
        {
          "internalType": "address",
          "name": "",
          "type": "address"
        }
      ],
      "stateMutability": "view",
      "type": "function"
    },
    {
      "inputs": [],
      "name": "communityVault",
      "outputs": [
        {
          "internalType": "address",
          "name": "",
          "type": "address"
        }
      ],
      "stateMutability": "view",
      "type": "function"
    },
    {
      "inputs": [
        {
          "components": [
            {
              "internalType": "uint8",
              "name": "revshareSplitRatio",
              "type": "uint8"
            },
            {
              "internalType": "uint16",
              "name": "stdBpsRate",
              "type": "uint16"
            },
            {
              "internalType": "uint16",
              "name": "minBpsRate",
              "type": "uint16"
            },
            {
              "internalType": "address",
              "name": "adminMultiSig",
              "type": "address"
            },
            {
              "internalType": "address",
              "name": "communityVault",
              "type": "address"
            },
            {
              "internalType": "address",
              "name": "treasury",
              "type": "address"
            },
            {
              "internalType": "address",
              "name": "dxblToken",
              "type": "address"
            },
            {
              "internalType": "address",
              "name": "arbGasOracle",
              "type": "address"
            },
            {
              "internalType": "uint112",
              "name": "minFeeUSD",
              "type": "uint112"
            },
            {
              "internalType": "address[]",
              "name": "initialRelays",
              "type": "address[]"
            }
          ],
          "internalType": "struct DexibleStorage.DexibleConfig",
          "name": "config",
          "type": "tuple"
        }
      ],
      "name": "configure",
      "outputs": [],
      "stateMutability": "nonpayable",
      "type": "function"
    },
    {
      "inputs": [],
      "name": "dxblToken",
      "outputs": [
        {
          "internalType": "address",
          "name": "",
          "type": "address"
        }
      ],
      "stateMutability": "view",
      "type": "function"
    },
    {
      "inputs": [
        {
          "components": [
            {
              "components": [
                {
                  "internalType": "address",
                  "name": "requester",
                  "type": "address"
                },
                {
                  "components": [
                    {
                      "internalType": "contract IERC20",
                      "name": "feeToken",
                      "type": "address"
                    },
                    {
                      "internalType": "address",
                      "name": "affiliate",
                      "type": "address"
                    },
                    {
                      "internalType": "uint256",
                      "name": "affiliatePortion",
                      "type": "uint256"
                    }
                  ],
                  "internalType": "struct ExecutionTypes.FeeDetails",
                  "name": "fee",
                  "type": "tuple"
                }
              ],
              "internalType": "struct ExecutionTypes.ExecutionRequest",
              "name": "executionRequest",
              "type": "tuple"
            },
            {
              "components": [
                {
                  "internalType": "uint112",
                  "name": "amount",
                  "type": "uint112"
                },
                {
                  "internalType": "contract IERC20",
                  "name": "token",
                  "type": "address"
                }
              ],
              "internalType": "struct TokenTypes.TokenAmount",
              "name": "tokenIn",
              "type": "tuple"
            },
            {
              "components": [
                {
                  "internalType": "uint112",
                  "name": "amount",
                  "type": "uint112"
                },
                {
                  "internalType": "contract IERC20",
                  "name": "token",
                  "type": "address"
                }
              ],
              "internalType": "struct TokenTypes.TokenAmount",
              "name": "tokenOut",
              "type": "tuple"
            },
            {
              "components": [
                {
                  "internalType": "address",
                  "name": "router",
                  "type": "address"
                },
                {
                  "internalType": "address",
                  "name": "spender",
                  "type": "address"
                },
                {
                  "components": [
                    {
                      "internalType": "uint112",
                      "name": "amount",
                      "type": "uint112"
                    },
                    {
                      "internalType": "contract IERC20",
                      "name": "token",
                      "type": "address"
                    }
                  ],
                  "internalType": "struct TokenTypes.TokenAmount",
                  "name": "routeAmount",
                  "type": "tuple"
                },
                {
                  "internalType": "bytes",
                  "name": "routerData",
                  "type": "bytes"
                }
              ],
              "internalType": "struct SwapTypes.RouterRequest[]",
              "name": "routes",
              "type": "tuple[]"
            }
          ],
          "internalType": "struct SwapTypes.SwapRequest",
          "name": "request",
          "type": "tuple"
        },
        {
          "components": [
            {
              "internalType": "bool",
              "name": "feeIsInput",
              "type": "bool"
            },
            {
              "internalType": "bool",
              "name": "isSelfSwap",
              "type": "bool"
            },
            {
              "internalType": "uint256",
              "name": "startGas",
              "type": "uint256"
            },
            {
              "internalType": "uint256",
              "name": "toProtocol",
              "type": "uint256"
            },
            {
              "internalType": "uint256",
              "name": "toRevshare",
              "type": "uint256"
            },
            {
              "internalType": "uint256",
              "name": "outToTrader",
              "type": "uint256"
            },
            {
              "internalType": "uint256",
              "name": "outAmount",
              "type": "uint256"
            },
            {
              "internalType": "uint256",
              "name": "bpsAmount",
              "type": "uint256"
            },
            {
              "internalType": "uint256",
              "name": "gasAmount",
              "type": "uint256"
            },
            {
              "internalType": "uint256",
              "name": "nativeGasAmount",
              "type": "uint256"
            },
            {
              "internalType": "uint256",
              "name": "preDXBLBalance",
              "type": "uint256"
            },
            {
              "internalType": "uint256",
              "name": "remainingInBalance",
              "type": "uint256"
            }
          ],
          "internalType": "struct SwapHandler.SwapMeta",
          "name": "meta",
          "type": "tuple"
        }
      ],
      "name": "fill",
      "outputs": [
        {
          "components": [
            {
              "internalType": "bool",
              "name": "feeIsInput",
              "type": "bool"
            },
            {
              "internalType": "bool",
              "name": "isSelfSwap",
              "type": "bool"
            },
            {
              "internalType": "uint256",
              "name": "startGas",
              "type": "uint256"
            },
            {
              "internalType": "uint256",
              "name": "toProtocol",
              "type": "uint256"
            },
            {
              "internalType": "uint256",
              "name": "toRevshare",
              "type": "uint256"
            },
            {
              "internalType": "uint256",
              "name": "outToTrader",
              "type": "uint256"
            },
            {
              "internalType": "uint256",
              "name": "outAmount",
              "type": "uint256"
            },
            {
              "internalType": "uint256",
              "name": "bpsAmount",
              "type": "uint256"
            },
            {
              "internalType": "uint256",
              "name": "gasAmount",
              "type": "uint256"
            },
            {
              "internalType": "uint256",
              "name": "nativeGasAmount",
              "type": "uint256"
            },
            {
              "internalType": "uint256",
              "name": "preDXBLBalance",
              "type": "uint256"
            },
            {
              "internalType": "uint256",
              "name": "remainingInBalance",
              "type": "uint256"
            }
          ],
          "internalType": "struct SwapHandler.SwapMeta",
          "name": "",
          "type": "tuple"
        }
      ],
      "stateMutability": "nonpayable",
      "type": "function"
    },
    {
      "inputs": [],
      "name": "minBpsRate",
      "outputs": [
        {
          "internalType": "uint16",
          "name": "",
          "type": "uint16"
        }
      ],
      "stateMutability": "view",
      "type": "function"
    },
    {
      "inputs": [],
      "name": "minFeeUSD",
      "outputs": [
        {
          "internalType": "uint112",
          "name": "",
          "type": "uint112"
        }
      ],
      "stateMutability": "view",
      "type": "function"
    },
    {
      "inputs": [],
      "name": "pause",
      "outputs": [],
      "stateMutability": "nonpayable",
      "type": "function"
    },
    {
      "inputs": [
        {
          "internalType": "address",
          "name": "relay",
          "type": "address"
        }
      ],
      "name": "removeRelay",
      "outputs": [],
      "stateMutability": "nonpayable",
      "type": "function"
    },
    {
      "inputs": [],
      "name": "resume",
      "outputs": [],
      "stateMutability": "nonpayable",
      "type": "function"
    },
    {
      "inputs": [],
      "name": "revshareSplitRatio",
      "outputs": [
        {
          "internalType": "uint8",
          "name": "",
          "type": "uint8"
        }
      ],
      "stateMutability": "view",
      "type": "function"
    },
    {
      "inputs": [
        {
          "components": [
            {
              "internalType": "contract IERC20",
              "name": "feeToken",
              "type": "address"
            },
            {
              "components": [
                {
                  "internalType": "uint112",
                  "name": "amount",
                  "type": "uint112"
                },
                {
                  "internalType": "contract IERC20",
                  "name": "token",
                  "type": "address"
                }
              ],
              "internalType": "struct TokenTypes.TokenAmount",
              "name": "tokenIn",
              "type": "tuple"
            },
            {
              "components": [
                {
                  "internalType": "uint112",
                  "name": "amount",
                  "type": "uint112"
                },
                {
                  "internalType": "contract IERC20",
                  "name": "token",
                  "type": "address"
                }
              ],
              "internalType": "struct TokenTypes.TokenAmount",
              "name": "tokenOut",
              "type": "tuple"
            },
            {
              "components": [
                {
                  "internalType": "address",
                  "name": "router",
                  "type": "address"
                },
                {
                  "internalType": "address",
                  "name": "spender",
                  "type": "address"
                },
                {
                  "components": [
                    {
                      "internalType": "uint112",
                      "name": "amount",
                      "type": "uint112"
                    },
                    {
                      "internalType": "contract IERC20",
                      "name": "token",
                      "type": "address"
                    }
                  ],
                  "internalType": "struct TokenTypes.TokenAmount",
                  "name": "routeAmount",
                  "type": "tuple"
                },
                {
                  "internalType": "bytes",
                  "name": "routerData",
                  "type": "bytes"
                }
              ],
              "internalType": "struct SwapTypes.RouterRequest[]",
              "name": "routes",
              "type": "tuple[]"
            }
          ],
          "internalType": "struct SwapTypes.SelfSwap",
          "name": "request",
          "type": "tuple"
        }
      ],
      "name": "selfSwap",
      "outputs": [],
      "stateMutability": "nonpayable",
      "type": "function"
    },
    {
      "inputs": [
        {
          "internalType": "contract IArbitrumGasOracle",
          "name": "oracle",
          "type": "address"
        }
      ],
      "name": "setArbitrumGasOracle",
      "outputs": [],
      "stateMutability": "nonpayable",
      "type": "function"
    },
    {
      "inputs": [
        {
          "internalType": "contract ICommunityVault",
          "name": "vault",
          "type": "address"
        }
      ],
      "name": "setCommunityVault",
      "outputs": [],
      "stateMutability": "nonpayable",
      "type": "function"
    },
    {
      "inputs": [
        {
          "internalType": "uint16",
          "name": "bps",
          "type": "uint16"
        }
      ],
      "name": "setMinBpsRate",
      "outputs": [],
      "stateMutability": "nonpayable",
      "type": "function"
    },
    {
      "inputs": [
        {
          "internalType": "uint112",
          "name": "minFee",
          "type": "uint112"
        }
      ],
      "name": "setMinFeeUSD",
      "outputs": [],
      "stateMutability": "nonpayable",
      "type": "function"
    },
    {
      "inputs": [
        {
          "internalType": "uint8",
          "name": "bps",
          "type": "uint8"
        }
      ],
      "name": "setRevshareSplitRatio",
      "outputs": [],
      "stateMutability": "nonpayable",
      "type": "function"
    },
    {
      "inputs": [
        {
          "internalType": "uint16",
          "name": "bps",
          "type": "uint16"
        }
      ],
      "name": "setStdBpsRate",
      "outputs": [],
      "stateMutability": "nonpayable",
      "type": "function"
    },
    {
      "inputs": [
        {
          "internalType": "address",
          "name": "t",
          "type": "address"
        }
      ],
      "name": "setTreasury",
      "outputs": [],
      "stateMutability": "nonpayable",
      "type": "function"
    },
    {
      "inputs": [],
      "name": "stdBpsRate",
      "outputs": [
        {
          "internalType": "uint16",
          "name": "",
          "type": "uint16"
        }
      ],
      "stateMutability": "view",
      "type": "function"
    },
    {
      "inputs": [
        {
          "components": [
            {
              "components": [
                {
                  "internalType": "address",
                  "name": "requester",
                  "type": "address"
                },
                {
                  "components": [
                    {
                      "internalType": "contract IERC20",
                      "name": "feeToken",
                      "type": "address"
                    },
                    {
                      "internalType": "address",
                      "name": "affiliate",
                      "type": "address"
                    },
                    {
                      "internalType": "uint256",
                      "name": "affiliatePortion",
                      "type": "uint256"
                    }
                  ],
                  "internalType": "struct ExecutionTypes.FeeDetails",
                  "name": "fee",
                  "type": "tuple"
                }
              ],
              "internalType": "struct ExecutionTypes.ExecutionRequest",
              "name": "executionRequest",
              "type": "tuple"
            },
            {
              "components": [
                {
                  "internalType": "uint112",
                  "name": "amount",
                  "type": "uint112"
                },
                {
                  "internalType": "contract IERC20",
                  "name": "token",
                  "type": "address"
                }
              ],
              "internalType": "struct TokenTypes.TokenAmount",
              "name": "tokenIn",
              "type": "tuple"
            },
            {
              "components": [
                {
                  "internalType": "uint112",
                  "name": "amount",
                  "type": "uint112"
                },
                {
                  "internalType": "contract IERC20",
                  "name": "token",
                  "type": "address"
                }
              ],
              "internalType": "struct TokenTypes.TokenAmount",
              "name": "tokenOut",
              "type": "tuple"
            },
            {
              "components": [
                {
                  "internalType": "address",
                  "name": "router",
                  "type": "address"
                },
                {
                  "internalType": "address",
                  "name": "spender",
                  "type": "address"
                },
                {
                  "components": [
                    {
                      "internalType": "uint112",
                      "name": "amount",
                      "type": "uint112"
                    },
                    {
                      "internalType": "contract IERC20",
                      "name": "token",
                      "type": "address"
                    }
                  ],
                  "internalType": "struct TokenTypes.TokenAmount",
                  "name": "routeAmount",
                  "type": "tuple"
                },
                {
                  "internalType": "bytes",
                  "name": "routerData",
                  "type": "bytes"
                }
              ],
              "internalType": "struct SwapTypes.RouterRequest[]",
              "name": "routes",
              "type": "tuple[]"
            }
          ],
          "internalType": "struct SwapTypes.SwapRequest",
          "name": "request",
          "type": "tuple"
        }
      ],
      "name": "swap",
      "outputs": [],
      "stateMutability": "nonpayable",
      "type": "function"
    },
    {
      "inputs": [],
      "name": "treasury",
      "outputs": [
        {
          "internalType": "address",
          "name": "",
          "type": "address"
        }
      ],
      "stateMutability": "view",
      "type": "function"
    }
  ],
  "bytecode": "0x60806040523480156200001157600080fd5b5060405162004a2038038062004a20833981016040819052620000349162000632565b6200003f8162000046565b5062000795565b60006200005d620004c560201b6200159e1760201c565b60038101549091506001600160a01b031615620000c55760038101546001600160a01b03163314620000c55760405162461bcd60e51b815260206004820152600c60248201526b155b985d5d1a1bdc9a5e995960a21b60448201526064015b60405180910390fd5b60808201516001600160a01b0316620001215760405162461bcd60e51b815260206004820152601e60248201527f496e76616c696420436f6d6d756e6974795661756c74206164647265737300006044820152606401620000bc565b60a08201516001600160a01b0316620001705760405162461bcd60e51b815260206004820152601060248201526f496e76616c696420747265617375727960801b6044820152606401620000bc565b60c08201516001600160a01b0316620001cc5760405162461bcd60e51b815260206004820152601a60248201527f496e76616c6964204458424c20746f6b656e20616464726573730000000000006044820152606401620000bc565b815160ff166200021f5760405162461bcd60e51b815260206004820152601c60248201527f496e76616c69642072657673686172652073706c697420726174696f000000006044820152606401620000bc565b6000826020015161ffff1611620002855760405162461bcd60e51b8152602060048201526024808201527f4d7573742070726f766964652061207374616e646172642062707320666565206044820152637261746560e01b6064820152608401620000bc565b6000826040015161ffff1611620002df5760405162461bcd60e51b815260206004820152601660248201527f6d696e42707352617465206973207265717569726564000000000000000000006044820152606401620000bc565b816020015161ffff16826040015161ffff16106200034b5760405162461bcd60e51b815260206004820152602260248201527f4d696e206270732072617465206d757374206265206c657373207468616e20736044820152611d1960f21b6064820152608401620000bc565b60608201516003820180546001600160a01b03199081166001600160a01b0393841617909155835183546080860151600186018054851691861691909117905560a0860151600286018054851691861691909117905560c08601516004860180548516918616919091179055602086015160408701516101008089015163ffffff001990941660ff9095160263ffff00001916939093176201000061ffff9283160217600160201b600160a01b0319166401000000009190931602600160301b600160a01b0319169190911766010000000000006001600160701b039092169190910217835560e0840151600584018054909216921691909117905560005b82610120015151811015620004c057600182600601600085610120015184815181106200047b576200047b62000757565b6020908102919091018101516001600160a01b03168252810191909152604001600020805460ff1916911515919091179055620004b8816200076d565b90506200044a565b505050565b7f949817a987a8e038ef345d3c9d4fd28e49d8e4e09456e57c05a8b2ce2e62866c90565b634e487b7160e01b600052604160045260246000fd5b60405161014081016001600160401b0381118282101715620005255762000525620004e9565b60405290565b805160ff811681146200053d57600080fd5b919050565b805161ffff811681146200053d57600080fd5b80516001600160a01b03811681146200053d57600080fd5b80516001600160701b03811681146200053d57600080fd5b600082601f8301126200059757600080fd5b815160206001600160401b0380831115620005b657620005b6620004e9565b8260051b604051601f19603f83011681018181108482111715620005de57620005de620004e9565b604052938452858101830193838101925087851115620005fd57600080fd5b83870191505b848210156200062757620006178262000555565b8352918301919083019062000603565b979650505050505050565b6000602082840312156200064557600080fd5b81516001600160401b03808211156200065d57600080fd5b9083019061014082860312156200067357600080fd5b6200067d620004ff565b62000688836200052b565b8152620006986020840162000542565b6020820152620006ab6040840162000542565b6040820152620006be6060840162000555565b6060820152620006d16080840162000555565b6080820152620006e460a0840162000555565b60a0820152620006f760c0840162000555565b60c08201526200070a60e0840162000555565b60e08201526101006200071f8185016200056d565b9082015261012083810151838111156200073857600080fd5b620007468882870162000585565b918301919091525095945050505050565b634e487b7160e01b600052603260045260246000fd5b6000600182016200078e57634e487b7160e01b600052601160045260246000fd5b5060010190565b61427b80620007a56000396000f3fe608060405234801561001057600080fd5b506004361061014d5760003560e01c806376a13636116100c3578063c892373d1161007c578063c892373d14610283578063cd151e9a146102a3578063d8544cf3146102b6578063dd81eb98146102c9578063f0f44260146102d1578063f3390c3a146102e457600080fd5b806376a13636146102325780638456cb591461023a5780638c47ea8e14610242578063bb47123414610255578063bb6f0ece1461025d578063c3d718a41461027057600080fd5b80634e0bb8cc116101155780634e0bb8cc146101b557806352ac8616146101d557806353e97868146101ef5780635d745b8f14610204578063602dd0261461021757806361d027b31461022a57600080fd5b8063046f7da2146101525780631725d82f1461015c57806324b40c921461016f578063370fb45b1461018257806340d925b1146101a2575b600080fd5b61015a6102f7565b005b61015a61016a366004613008565b610377565b61015a61017d366004613037565b6103ff565b61018a610487565b60405161ffff90911681526020015b60405180910390f35b61015a6101b0366004613052565b6104a2565b6101bd610559565b6040516001600160701b039091168152602001610199565b6101dd610579565b60405160ff9091168152602001610199565b6101f7610591565b60405161019991906130c6565b61015a610212366004613037565b6105ad565b61015a6102253660046130f3565b610632565b6101f7610815565b6101f7610831565b61015a61084d565b61015a61025036600461313e565b6108c4565b61018a610955565b61015a61026b366004613308565b61096f565b61015a61027e366004613413565b610d9c565b610296610291366004613466565b610f44565b60405161019991906135d8565b61015a6102b13660046135e7565b611377565b61015a6102c43660046135e7565b6113db565b6101f7611468565b61015a6102df3660046135e7565b611484565b61015a6102f23660046135e7565b611511565b6102ff61159e565b600301546001600160a01b031633146103335760405162461bcd60e51b815260040161032a90613604565b60405180910390fd5b600061033d61159e565b805460ff19169115159190911790556040517f62451d457bc659158be6e6247f56ec1df424a5c7597f71c20c2bc44e0965c8f990600090a1565b61037f61159e565b600301546001600160a01b031633146103aa5760405162461bcd60e51b815260040161032a90613604565b806103b361159e565b805461ff00191661010060ff9384160217905560405190821681527fc08e3d70cd07fcbefc6065b4c1de14af045aef558d499e3d132d6b9aa13fdc4c906020015b60405180910390a150565b61040761159e565b600301546001600160a01b031633146104325760405162461bcd60e51b815260040161032a90613604565b8061043b61159e565b805465ffff000000001916600160201b61ffff9384160217905560405190821681527f0cc243ac5a88993148aefaa9f320f7d51555727982cb97b5502e4de3a296ff50906020016103f4565b600061049161159e565b54600160201b900461ffff16919050565b6104aa61159e565b600301546001600160a01b031633146104d55760405162461bcd60e51b815260040161032a90613604565b60006104df61159e565b905060005b828110156105535760018260060160008686858181106105065761050661362a565b905060200201602081019061051b91906135e7565b6001600160a01b031681526020810191909152604001600020805460ff191691151591909117905561054c81613656565b90506104e4565b50505050565b600061056361159e565b54600160301b90046001600160701b0316919050565b600061058361159e565b54610100900460ff16919050565b600061059b61159e565b600101546001600160a01b0316919050565b6105b561159e565b600301546001600160a01b031633146105e05760405162461bcd60e51b815260040161032a90613604565b806105e961159e565b805463ffff000019166201000061ffff9384160217905560405190821681527f3c690423f2b4874693fa467d54b9a22ce2469d86d3ea9a48aabb8479ee5fde9d906020016103f4565b600061063c61159e565b33600090815260068201602052604090205490915060ff166106a05760405162461bcd60e51b815260206004820152601a60248201527f4f6e6c792072656c617920616c6c6f77656420746f2063616c6c000000000000604482015260640161032a565b6106a861159e565b5460ff16156106c95760405162461bcd60e51b815260040161032a9061366f565b6000619c405a6106d991906136a6565b905060006040518061018001604052806000151581526020016000151581526020018381526020016000815260200160008152602001600081526020016000815260200160008152602001600081526020016000815260200160008152602001600081525090506000306001600160a01b031663c892373d620138805a61076091906136b9565b87856040518463ffffffff1660e01b815260040161077f929190613870565b6101806040518083038160008887f1935050505080156107bc575060408051601f3d908101601f191682019092526107b991810190613936565b60015b6107f4576107ec6040518060400160405280600b81526020016a14ddd85c0819985a5b195960aa1b8152506115c2565b5060006107fb565b9150600190505b61080e61080786613b77565b8383611608565b5050505050565b600061081f61159e565b600201546001600160a01b0316919050565b600061083b61159e565b600501546001600160a01b0316919050565b61085561159e565b600301546001600160a01b031633146108805760405162461bcd60e51b815260040161032a90613604565b600161088a61159e565b805460ff19169115159190911790556040517f9e87fac88ff661f02d44f95383c817fece4bce600a3dab7a54406878b965e75290600090a1565b6108cc61159e565b600301546001600160a01b031633146108f75760405162461bcd60e51b815260040161032a90613604565b8061090061159e565b8054600160301b600160a01b031916600160301b6001600160701b039384160217905560405190821681527f835b0e394b56439e2901706b3c67fcb1abcd7219c10b4010eb396ab636218ffc906020016103f4565b600061095f61159e565b5462010000900461ffff16919050565b600061097961159e565b60038101549091506001600160a01b0316156109bb5760038101546001600160a01b031633146109bb5760405162461bcd60e51b815260040161032a90613604565b60808201516001600160a01b0316610a155760405162461bcd60e51b815260206004820152601e60248201527f496e76616c696420436f6d6d756e6974795661756c7420616464726573730000604482015260640161032a565b60a08201516001600160a01b0316610a625760405162461bcd60e51b815260206004820152601060248201526f496e76616c696420747265617375727960801b604482015260640161032a565b60c08201516001600160a01b0316610abc5760405162461bcd60e51b815260206004820152601a60248201527f496e76616c6964204458424c20746f6b656e2061646472657373000000000000604482015260640161032a565b815160ff16610b0d5760405162461bcd60e51b815260206004820152601c60248201527f496e76616c69642072657673686172652073706c697420726174696f00000000604482015260640161032a565b6000826020015161ffff1611610b715760405162461bcd60e51b8152602060048201526024808201527f4d7573742070726f766964652061207374616e646172642062707320666565206044820152637261746560e01b606482015260840161032a565b6000826040015161ffff1611610bc25760405162461bcd60e51b81526020600482015260166024820152751b5a5b909c1cd4985d19481a5cc81c995c5d5a5c995960521b604482015260640161032a565b816020015161ffff16826040015161ffff1610610c2c5760405162461bcd60e51b815260206004820152602260248201527f4d696e206270732072617465206d757374206265206c657373207468616e20736044820152611d1960f21b606482015260840161032a565b60608201516003820180546001600160a01b03199081166001600160a01b0393841617909155835183546080860151600186018054851691861691909117905560a0860151600286018054851691861691909117905560c08601516004860180548516918616919091179055602086015160408701516101008089015163ffffff001990941660ff9095160263ffff00001916939093176201000061ffff9283160217640100000000600160a01b031916600160201b9190931602600160301b600160a01b03191691909117600160301b6001600160701b039092169190910217835560e0840151600584018054909216921691909117905560005b82610120015151811015610d975760018260060160008561012001518481518110610d5557610d5561362a565b6020908102919091018101516001600160a01b03168252810191909152604001600020805460ff1916911515919091179055610d9081613656565b9050610d28565b505050565b610da461159e565b5460ff1615610dc55760405162461bcd60e51b815260040161032a9061366f565b6040805160c081018252336080820190815282516060810190935260009282919060a083019080610df960208901896135e7565b6001600160a01b0316815260200160006001600160a01b031681526020016000815250815250815260200183602001803603810190610e389190613c63565b8152602001610e4f36859003850160608601613c63565b8152602001610e6160a0850185613c7f565b610e6a91613cc8565b90526040805161018081018252600080825260016020830152818301819052606082018190526080820181905260a0820181905260c0820181905260e08201819052610100820181905261012082018190526101408201819052610160820152905163c892373d60e01b815291925090309063c892373d90610ef29085908590600401613dd0565b610180604051808303816000875af1158015610f12573d6000803e3d6000fd5b505050506040513d601f19601f82011682018060405250810190610f369190613936565b9050610d9782826001611608565b610fac604051806101800160405280600015158152602001600015158152602001600081526020016000815260200160008152602001600081526020016000815260200160008152602001600081526020016000815260200160008152602001600081525090565b333014610ffb5760405162461bcd60e51b815260206004820152601d60248201527f4f6e6c7920616c6c6f77656420617320696e7465726e616c2063616c6c000000604482015260640161032a565b6110058383611750565b611016610100840160e085016135e7565b6001600160a01b03166370a08231306040518263ffffffff1660e01b815260040161104191906130c6565b602060405180830381865afa15801561105e573d6000803e3d6000fd5b505050506040513d601f19601f820116820180604052508101906110829190613e6a565b60c083015260005b611098610100850185613c7f565b90508110156111ea57366110b0610100860186613c7f565b838181106110c0576110c061362a565b90506020028101906110d29190613e83565b90506111206110e760408301602084016135e7565b6110f7606084016040850161313e565b6001600160701b031661111060808501606086016135e7565b6001600160a01b03169190611b69565b600061112f60208301836135e7565b6001600160a01b03166111456080840184613ea3565b604051611153929190613ee9565b6000604051808303816000865af19150503d8060008114611190576040519150601f19603f3d011682016040523d82523d6000602084013e611195565b606091505b50509050806111d75760405162461bcd60e51b815260206004820152600e60248201526d04661696c656420746f20737761760941b604482015260640161032a565b5050806111e390613656565b905061108a565b5060006111fe610100850160e086016135e7565b6001600160a01b03166370a08231306040518263ffffffff1660e01b815260040161122991906130c6565b602060405180830381865afa158015611246573d6000803e3d6000fd5b505050506040513d601f19601f8201168201806040525081019061126a9190613e6a565b9050808360c0015110156112915760c083015161128790826136b9565b60c0840152611299565b600060c08401525b604080518082019091526008815267115e1c1958dd195960c21b6020820152611300906112cc60e0870160c0880161313e565b6001600160701b031660405180604001604052806008815260200167149958d95a5d995960c21b8152508660c00151611ca4565b61131060e0850160c0860161313e565b6001600160701b03168360c00151101561136c5760405162461bcd60e51b815260206004820152601d60248201527f496e73756666696369656e74206f75747075742067656e657261746564000000604482015260640161032a565b829150505b92915050565b61137f61159e565b600301546001600160a01b031633146113aa5760405162461bcd60e51b815260040161032a90613604565b60006113b461159e565b6001600160a01b03909216600090815260069092016020525060409020805460ff19169055565b6113e361159e565b600301546001600160a01b0316331461140e5760405162461bcd60e51b815260040161032a90613604565b8061141761159e565b60010180546001600160a01b0319166001600160a01b03929092169190911790556040517fa49691f0dd6477ccef49962612a236d252e3a31c3be8b61fa6abeff3e74a7572906103f49083906130c6565b600061147261159e565b600401546001600160a01b0316919050565b61148c61159e565b600301546001600160a01b031633146114b75760405162461bcd60e51b815260040161032a90613604565b806114c061159e565b60020180546001600160a01b0319166001600160a01b03929092169190911790556040517fc714d22a2f08b695f81e7c707058db484aa5b4d6b4c9fd64beb10fe85832f608906103f49083906130c6565b61151961159e565b600301546001600160a01b031633146115445760405162461bcd60e51b815260040161032a90613604565b8061154d61159e565b60050180546001600160a01b0319166001600160a01b03929092169190911790556040517fa6185880f040ba1584f7e109a3be5b1c01a3d3855eb518cc0ff6f12b5ba5e70b906103f49083906130c6565b7f949817a987a8e038ef345d3c9d4fd28e49d8e4e09456e57c05a8b2ce2e62866c90565b611605816040516024016115d69190613ef9565b60408051601f198184030181529190526020810180516001600160e01b031663104c13eb60e21b179052611ce9565b50565b60208084015101516040516370a0823160e01b81526000916001600160a01b0316906370a082319061163e9030906004016130c6565b602060405180830381865afa15801561165b573d6000803e3d6000fd5b505050506040513d601f19601f8201168201806040525081019061167f9190613e6a565b610160840181815260408051808201909152601781527652656d61696e696e6720696e7075742062616c616e636560481b602082015290519192506116c391611d0a565b8115611738578261016001518111156117295760405162461bcd60e51b815260206004820152602260248201527f496e7075742062616c616e636520706f73742d7377617020776173206869676860448201526132b960f11b606482015260840161032a565b6117338484611d53565b611742565b6117428484611d70565b610553836101200151611fca565b600061176260408401602085016135e7565b9050600061176e61159e565b6001810154604051630ba408e360e31b81529192506000916001600160a01b0390911690635d204718906117a69086906004016130c6565b602060405180830381865afa1580156117c3573d6000803e3d6000fd5b505050506040513d601f19601f820116820180604052508101906117e79190613f0c565b9050806118315760405162461bcd60e51b8152602060048201526018602482015277119959481d1bdad95b881a5cc81b9bdd08185b1b1bddd95960421b604482015260640161032a565b61184160c0860160a087016135e7565b6001600160a01b0316836001600160a01b03161480611881575061186c610100860160e087016135e7565b6001600160a01b0316836001600160a01b0316145b6118dd5760405162461bcd60e51b815260206004820152602760248201527f46656520746f6b656e206d75737420626520696e707574206f72206f757470756044820152663a103a37b5b2b760c91b606482015260840161032a565b60048201546001600160a01b03166370a082316118fd60208801886135e7565b6040518263ffffffff1660e01b815260040161191991906130c6565b602060405180830381865afa158015611936573d6000803e3d6000fd5b505050506040513d601f19601f8201168201806040525081019061195a9190613e6a565b61014085015261197060408601602087016135e7565b6001600160a01b031661198960c0870160a088016135e7565b6001600160a01b03161480855215611a65576119a9610100860186613c7f565b60008181106119ba576119ba61362a565b90506020028101906119cc9190613e83565b6119dd90606081019060400161313e565b6001600160701b03166119f660a087016080880161313e565b6001600160701b031611611a655760405162461bcd60e51b815260206004820152603060248201527f496e7075742066656520746f6b656e20616d6f756e7420646f6573206e6f742060448201526f6163636f756e7420666f72206665657360801b606482015260840161032a565b60408051808201909152601e81527f5472616e73666572696e6720696e70757420666f722074726164696e673a00006020820152611abb90611aad60a088016080890161313e565b6001600160701b0316611d0a565b611b06611acb60208701876135e7565b30611adc60a0890160808a0161313e565b6001600160701b0316611af560c08a0160a08b016135e7565b6001600160a01b031692919061210e565b60408051808201909152600f81526e115e1c1958dd1959081bdd5d1c1d5d608a1b6020820152611b4090611aad60e0880160c0890161313e565b611b5060a086016080870161313e565b6001600160701b03166101609094019390935250505050565b801580611be35750604051636eb1769f60e11b81523060048201526001600160a01b03838116602483015284169063dd62ed3e90604401602060405180830381865afa158015611bbd573d6000803e3d6000fd5b505050506040513d601f19601f82011682018060405250810190611be19190613e6a565b155b611c4e5760405162461bcd60e51b815260206004820152603660248201527f5361666545524332303a20617070726f76652066726f6d206e6f6e2d7a65726f60448201527520746f206e6f6e2d7a65726f20616c6c6f77616e636560501b606482015260840161032a565b610d978363095ea7b360e01b8484604051602401611c6d929190613f29565b60408051601f198184030181529190526020810180516001600160e01b03166001600160e01b03199093169290921790915261212f565b61055384848484604051602401611cbe9493929190613f42565b60408051601f198184030181529190526020810180516001600160e01b031663c67ea9d160e01b1790525b80516a636f6e736f6c652e6c6f67602083016000808483855afa5050505050565b611d4f8282604051602401611d20929190613f7f565b60408051601f198184030181529190526020810180516001600160e01b0316632d839cb360e21b179052611ce9565b5050565b611d668282600001518360c00151612201565b611d4f82826122a5565b806020015115611db05760405162461bcd60e51b815260206004820152600b60248201526a14ddd85c0819985a5b195960aa1b604482015260640161032a565b6000611dba61159e565b825190915015611f545760005a836040015103619c40019050611df56040518060600160405280602981526020016141756029913982611d0a565b611dfe816122b9565b6101208401819052600183015485516020015151604051633931f45d60e01b8152600094506001600160a01b0390921692633931f45d92611e43929190600401613f29565b602060405180830381865afa158015611e60573d6000803e3d6000fd5b505050506040513d601f19601f82011682018060405250810190611e849190613e6a565b9050611ea7604051806060016040528060408152602001614135604091396115c2565b611ed76040518060400160405280600e81526020016d4661696c6564206761732066656560901b81525082611d0a565b83518051600284015460209092015151611eff926001600160a01b039182169291168461210e565b83518051602090910151516040516001600160a01b03909216917f6930176329c33f663176f0f242132119497db425bb44d32f9ffef8683d10b0c091611f46918590613f29565b60405180910390a250505050565b611f756040518060800160405280604981526020016141fd604991396115c2565b82518051602090910151516040516001600160a01b03909216917f6930176329c33f663176f0f242132119497db425bb44d32f9ffef8683d10b0c091611fbd91600090613f29565b60405180910390a2505050565b80600003611fd55750565b61200e6040518060400160405280601781526020017614995b185e4811d85cc814995a5b589d5c9cd95b595b9d604a1b81525082611d0a565b80471015612070576120376040518060600160405280603581526020016141c8603591396115c2565b60405181815233907f4c0d6a438f19dfe41befe161c0bfdfca9f674028133bbaf37749b2d12f8f0dda906020015b60405180910390a250565b6120ae6040518060400160405280601c81526020017f5472616e73666572696e67206761732066656520746f2072656c6179000000008152506115c2565b604051339082156108fc029083906000818181858888f193505050501580156120db573d6000803e3d6000fd5b5060405181815233907f91d09af90b128f3fb2907042440a531bca49791232cd8f59e1c629d96247d05790602001612065565b610553846323b872dd60e01b858585604051602401611c6d93929190613fa1565b6000612184826040518060400160405280602081526020017f5361666545524332303a206c6f772d6c6576656c2063616c6c206661696c6564815250856001600160a01b03166123e29092919063ffffffff16565b805190915015610d9757808060200190518101906121a29190613f0c565b610d975760405162461bcd60e51b815260206004820152602a60248201527f5361666545524332303a204552433230206f7065726174696f6e20646964206e6044820152691bdd081cdd58d8d9595960b21b606482015260840161032a565b600061220b61159e565b90506000831561222a57506020840151516001600160701b031661222d565b50815b600182015485518051602090910151516040516302ac425360e61b81526001600160a01b039093169263ab1094c09261226c9290918690600401613fa1565b600060405180830381600087803b15801561228657600080fd5b505af115801561229a573d6000803e3d6000fd5b505050505050505050565b6122af82826123fb565b611d4f82826127cf565b6000806122c461159e565b90504661a4b019810161234e57600582015460405163852b66a560e01b8152366004820152602481018690526001600160a01b039091169063852b66a590604401602060405180830381865afa158015612322573d6000803e3d6000fd5b505050506040513d601f19601f820116820180604052508101906123469190613e6a565b949350505050565b600a81036123d8576040516324ca470760e11b8152600f602160991b01906349948e0e90612383906000903690600401613fc5565b602060405180830381865afa1580156123a0573d6000803e3d6000fd5b505050506040513d601f19601f820116820180604052508101906123c49190613e6a565b6123ce853a613fd9565b61234691906136a6565b612346843a613fd9565b60606123f18484600085612b92565b90505b9392505050565b600061240561159e565b60c083015160a084018190528351610140850151929350612427928692612c6d565b60e08301528251602001515160009061243f90612dae565b90508260e001518111156124775761246f6040518060600160405280602a815260200161419e602a913982611d0a565b60e083018190525b815460e08401516064916124949161010090910460ff1690613fd9565b61249e9190613ff0565b6080840190815260408051808201909152600b81526a546f20726576736861726560a81b602082015290516124d39190611d0a565b82608001518360e001516124e791906136b9565b845160200151604001511061253e5760405162461bcd60e51b815260206004820152601f60248201527f4d697363616c63756c6174656420616666696c6961746520706f7274696f6e00604482015260640161032a565b83516020015160400151608084015160e085015161255c91906136b9565b61256691906136b9565b6060840190815260408051808201909152601081526f50726f746f636f6c207072652d67617360801b602082015290516125a09190611d0a565b8351602001516040015160608401516080850151600092916125c1916136a6565b6125cb91906136a6565b845190915061269c5761262f6040518060400160405280600a81526020016913dd5d08185b5bdd5b9d60b21b8152508560c00151604051806040016040528060118152602001702a37ba30b6103332b2b99039b7903330b960791b81525084611ca4565b808460c00151116126825760405162461bcd60e51b815260206004820152601f60248201527f496e73756666696369656e74206f757470757420746f20706179206665657300604482015260640161032a565b808460c0015161269291906136b9565b60a0850152612713565b80846101600151116126fc5760405162461bcd60e51b8152602060048201526024808201527f496e73756666696369656e7420696e7075742066756e647320746f20706179206044820152636665657360e01b606482015260840161032a565b80846101600181815161270f91906136b9565b9052505b845160200151516001840154608086015161273c916001600160a01b0380851692911690612f2c565b85516020015160400151156127c757855160209081015190810151604090910151612771916001600160a01b03841691612f2c565b85516020908101519081015160409182015191516001600160a01b03909116917f1fd11cde99de9e2e6d2bc710c225ae2e03d1e8eece69b0c552c7ae2bb3499a70916127be918591613f29565b60405180910390a25b505050505050565b60006127d961159e565b90508160200151612a23576000620138805a8460400151030190506127fd816122b9565b6101208401819052600183015485516020015151604051633931f45d60e01b81526001600160a01b039092169350633931f45d9261283d92600401613f29565b602060405180830381865afa15801561285a573d6000803e3d6000fd5b505050506040513d601f19601f8201168201806040525081019061287e9190613e6a565b610100830190815260408051808201909152601f81527f47617320706169642062792074726164657220696e2066656520746f6b656e00602082015290516128c69190611d0a565b816101000151826060018181516128dd91906136a6565b90525060408051808201909152601381527214185e5b595b9d081d1bc81c1c9bdd1bd8dbdb606a1b602082015260608301516129199190611d0a565b81516129a2578161010001518260a00151116129835760405162461bcd60e51b815260206004820152602360248201527f496e73756666696369656e74206f757470757420746f2070617920676173206660448201526265657360e81b606482015260840161032a565b8161010001518260a00181815161299a91906136b9565b905250612a23565b8161010001518261016001511015612a075760405162461bcd60e51b815260206004820152602260248201527f496e73756666696369656e7420696e70757420746f2070617920676173206665604482015261657360f01b606482015260840161032a565b8161010001518261016001818151612a1f91906136b9565b9052505b8251602001515160028201546060840151612a4c916001600160a01b0380851692911690612f2c565b83515160a0840151604086015160200151612a72926001600160a01b0390911691612f2c565b61016083015115612ae057612aba604051806040016040528060168152602001752a37ba30b6103932b33ab732103a37903a3930b232b960511b815250846101600151611d0a565b8351516101608401516020808701510151612ae0926001600160a01b0390911691612f2c565b83516020808201519081015191516040808801515160a088015184516101008a01519584015160e08b015194516001600160a01b039889169896909616967f37d5b664bdbba33c8c4138fa893bae32fef34e9a60d60d7cba0cb46eadb7675196612b8496919291906001600160701b0396909616865260208601949094526001600160a01b039290921660408501526060840152608083015260a082015260c00190565b60405180910390a350505050565b606082471015612bf35760405162461bcd60e51b815260206004820152602660248201527f416464726573733a20696e73756666696369656e742062616c616e636520666f6044820152651c8818d85b1b60d21b606482015260840161032a565b600080866001600160a01b03168587604051612c0f9190614012565b60006040518083038185875af1925050503d8060008114612c4c576040519150601f19603f3d011682016040523d82523d6000602084013e612c51565b606091505b5091509150612c6287838387612f4b565b979650505050505050565b600080612c7861159e565b60048101546040805160c08101825289516020908101518101516001600160a01b03908116151583528b5151811691830191909152939450929091169163a015b63991810188612cc85786612cd8565b60208a0151516001600160701b03165b81526020808201899052855461ffff6201000082048116604080860191909152600160201b909204811660609485015281516001600160e01b031960e088901b168152855115156004820152928501516001600160a01b0316602484015290840151604483015291830151606482015260808301518216608482015260a0909201511660a482015260c401602060405180830381865afa158015612d80573d6000803e3d6000fd5b505050506040513d601f19601f82011682018060405250810190612da49190613e6a565b9695505050505050565b600080612db961159e565b8054909150600160301b90046001600160701b0316600003612dde5750600092915050565b600181015460405163ce25cb4d60e01b81526000916001600160a01b03169063ce25cb4d90612e119087906004016130c6565b602060405180830381865afa158015612e2e573d6000803e3d6000fd5b505050506040513d601f19601f82011682018060405250810190612e529190613e6a565b90506000846001600160a01b031663313ce5676040518163ffffffff1660e01b8152600401602060405180830381865afa158015612e94573d6000803e3d6000fd5b505050506040513d601f19601f82011682018060405250810190612eb89190614024565b905060006c0c9f2c9cd04674edea400000008260ff16601203612edc576001612efa565b670de0b6b3a7640000612ef084600a614125565b612efa9190613ff0565b8554612f169190600160301b90046001600160701b0316613fd9565b612f209190613fd9565b9050612da48382613ff0565b610d978363a9059cbb60e01b8484604051602401611c6d929190613f29565b60608315612fba578251600003612fb3576001600160a01b0385163b612fb35760405162461bcd60e51b815260206004820152601d60248201527f416464726573733a2063616c6c20746f206e6f6e2d636f6e7472616374000000604482015260640161032a565b5081612346565b6123468383815115612fcf5781518083602001fd5b8060405162461bcd60e51b815260040161032a9190613ef9565b60ff8116811461160557600080fd5b803561300381612fe9565b919050565b60006020828403121561301a57600080fd5b81356123f481612fe9565b803561ffff8116811461300357600080fd5b60006020828403121561304957600080fd5b6123f482613025565b6000806020838503121561306557600080fd5b82356001600160401b038082111561307c57600080fd5b818501915085601f83011261309057600080fd5b81358181111561309f57600080fd5b8660208260051b85010111156130b457600080fd5b60209290920196919550909350505050565b6001600160a01b0391909116815260200190565b600061012082840312156130ed57600080fd5b50919050565b60006020828403121561310557600080fd5b81356001600160401b0381111561311b57600080fd5b612346848285016130da565b80356001600160701b038116811461300357600080fd5b60006020828403121561315057600080fd5b6123f482613127565b634e487b7160e01b600052604160045260246000fd5b60405161014081016001600160401b038111828210171561319257613192613159565b60405290565b60405161018081016001600160401b038111828210171561319257613192613159565b604080519081016001600160401b038111828210171561319257613192613159565b604051608081016001600160401b038111828210171561319257613192613159565b604051606081016001600160401b038111828210171561319257613192613159565b604051601f8201601f191681016001600160401b038111828210171561324957613249613159565b604052919050565b6001600160a01b038116811461160557600080fd5b803561300381613251565b60006001600160401b0382111561328a5761328a613159565b5060051b60200190565b600082601f8301126132a557600080fd5b813560206132ba6132b583613271565b613221565b82815260059290921b840181019181810190868411156132d957600080fd5b8286015b848110156132fd5780356132f081613251565b83529183019183016132dd565b509695505050505050565b60006020828403121561331a57600080fd5b81356001600160401b038082111561333157600080fd5b90830190610140828603121561334657600080fd5b61334e61316f565b61335783612ff8565b815261336560208401613025565b602082015261337660408401613025565b604082015261338760608401613266565b606082015261339860808401613266565b60808201526133a960a08401613266565b60a08201526133ba60c08401613266565b60c08201526133cb60e08401613266565b60e08201526101006133de818501613127565b9082015261012083810135838111156133f657600080fd5b61340288828701613294565b918301919091525095945050505050565b60006020828403121561342557600080fd5b81356001600160401b0381111561343b57600080fd5b820160c081850312156123f457600080fd5b801515811461160557600080fd5b80356130038161344d565b6000808284036101a081121561347b57600080fd5b83356001600160401b0381111561349157600080fd5b61349d868287016130da565b93505061018080601f19830112156134b457600080fd5b6134bc613198565b91506134ca6020860161345b565b82526134d86040860161345b565b6020830152606085013560408301526080850135606083015260a0850135608083015260c085013560a083015260e085013560c08301526101008086013560e08401526101208087013582850152610140915081870135818501525061016080870135828501528287013581850152505050809150509250929050565b805115158252602081015161356e602084018215159052565b5060408181015190830152606080820151908301526080808201519083015260a0808201519083015260c0808201519083015260e0808201519083015261010080820151908301526101208082015190830152610140808201519083015261016090810151910152565b61018081016113718284613555565b6000602082840312156135f957600080fd5b81356123f481613251565b6020808252600c908201526b155b985d5d1a1bdc9a5e995960a21b604082015260600190565b634e487b7160e01b600052603260045260246000fd5b634e487b7160e01b600052601160045260246000fd5b60006001820161366857613668613640565b5060010190565b6020808252601e908201527f436f6e7472616374206f7065726174696f6e7320617265207061757365640000604082015260600190565b8082018082111561137157611371613640565b8181038181111561137157611371613640565b6001600160701b036136dd82613127565b16825260208101356136ee81613251565b6001600160a01b03166020929092019190915250565b6000808335601e1984360301811261371b57600080fd5b83016020810192503590506001600160401b0381111561373a57600080fd5b8060051b360382131561374c57600080fd5b9250929050565b81835281816020850137506000828201602090810191909152601f909101601f19169091010190565b81835260006020808501808196508560051b810191508460005b878110156138635782840389528135609e198836030181126137b757600080fd5b870160a081356137c681613251565b6001600160a01b03908116875282880135906137e182613251565b168688015260406137f68188018483016136cc565b50608080830135601e1984360301811261380f57600080fd5b9092018781019290356001600160401b0381111561382c57600080fd5b80360384131561383b57600080fd5b828289015261384d8389018286613753565b9c89019c97505050928601925050600101613796565b5091979650505050505050565b60006101a0808352843561388381613251565b6001600160a01b03818116928501929092526020860135916138a483613251565b9182166101c08501526040860135916138bc83613251565b919091166101e08401525060608401356102008301526138e36102208301608086016136cc565b6138f4610260830160c086016136cc565b613902610100850185613704565b6101206102a085015261391a6102c08501828461377c565b925050506123f46020830184613555565b80516130038161344d565b6000610180828403121561394957600080fd5b613951613198565b61395a8361392b565b81526139686020840161392b565b602082015260408301516040820152606083015160608201526080830151608082015260a083015160a082015260c083015160c082015260e083015160e08201526101008084015181830152506101208084015181830152506101408084015181830152506101608084015181830152508091505092915050565b6000604082840312156139f557600080fd5b6139fd6131bb565b9050613a0882613127565b81526020820135613a1881613251565b602082015292915050565b6000613a316132b584613271565b8381529050602080820190600585901b840186811115613a5057600080fd5b845b81811015613b4c5780356001600160401b0380821115613a725760008081fd5b9087019060a0828b031215613a875760008081fd5b613a8f6131dd565b8235613a9a81613251565b815282860135613aa981613251565b818701526040613abb8c8583016139e3565b90820152608083013582811115613ad25760008081fd5b808401935050601f8b81850112613ae95760008081fd5b833583811115613afb57613afb613159565b613b0c818301601f19168901613221565b93508084528c88828701011115613b2557600091508182fd5b80888601898601376000908401880152506060810191909152855250928201928201613a52565b505050509392505050565b600082601f830112613b6857600080fd5b6123f483833560208501613a23565b6000813603610120811215613b8b57600080fd5b613b936131dd565b6080821215613ba157600080fd5b613ba96131bb565b8435613bb481613251565b81526060601f1984011215613bc857600080fd5b613bd06131ff565b92506020850135613be081613251565b83526040850135613bf081613251565b806020850152506060850135604084015282602082015280825250613c1836608086016139e3565b6020820152613c2a3660c086016139e3565b604082015261010084013591506001600160401b03821115613c4b57600080fd5b613c5736838601613b57565b60608201529392505050565b600060408284031215613c7557600080fd5b6123f483836139e3565b6000808335601e19843603018112613c9657600080fd5b8301803591506001600160401b03821115613cb057600080fd5b6020019150600581901b360382131561374c57600080fd5b60006123f4368484613a23565b80516001600160701b031682526020908101516001600160a01b0316910152565b60005b83811015613d11578181015183820152602001613cf9565b50506000910152565b60008151808452613d32816020860160208601613cf6565b601f01601f19169290920160200192915050565b600081518084526020808501808196508360051b8101915082860160005b85811015613863578284038952815180516001600160a01b03908116865286820151168686015260408082015160a09190613da182890182613cd5565b505060608201519150806080870152613dbc81870183613d1a565b9a87019a9550505090840190600101613d64565b6101a0808252835180516001600160a01b0390811692840192909252602090810151805183166101c0850152808201519092166101e0840152604090910151610200830152830151600090613e29610220840182613cd5565b506040840151613e3d610260840182613cd5565b5060608401516101206102a0840152613e5a6102c0840182613d46565b9150506123f46020830184613555565b600060208284031215613e7c57600080fd5b5051919050565b60008235609e19833603018112613e9957600080fd5b9190910192915050565b6000808335601e19843603018112613eba57600080fd5b8301803591506001600160401b03821115613ed457600080fd5b60200191503681900382131561374c57600080fd5b8183823760009101908152919050565b6020815260006123f46020830184613d1a565b600060208284031215613f1e57600080fd5b81516123f48161344d565b6001600160a01b03929092168252602082015260400190565b608081526000613f556080830187613d1a565b8560208401528281036040840152613f6d8186613d1a565b91505082606083015295945050505050565b604081526000613f926040830185613d1a565b90508260208301529392505050565b6001600160a01b039384168152919092166020820152604081019190915260600190565b6020815260006123f1602083018486613753565b808202811582820484141761137157611371613640565b60008261400d57634e487b7160e01b600052601260045260246000fd5b500490565b60008251613e99818460208701613cf6565b60006020828403121561403657600080fd5b81516123f481612fe9565b600181815b8085111561407c57816000190482111561406257614062613640565b8085161561406f57918102915b93841c9390800290614046565b509250929050565b60008261409357506001611371565b816140a057506000611371565b81600181146140b657600281146140c0576140dc565b6001915050611371565b60ff8411156140d1576140d1613640565b50506001821b611371565b5060208310610133831016604e8410600b84101617156140ff575081810a611371565b6141098383614041565b806000190482111561411d5761411d613640565b029392505050565b60006123f460ff84168361408456fe5472616e7366657272696e67207061727469616c20696e70757420746f6b656e20746f206465767465616d20666f72206661696c757265206761732066656573457374696d6174656420676173207573656420666f722074726164657220676173207061796d656e74547261646520746f6f20736d616c6c2e204368617267696e67206d696e696d756d20666c61742066656543616e6e6f74207265696d62757273652072656c61792073696e636520646f206e6f74206861766520656e6f7567682066756e647346656520746f6b656e206973206f75747075743b207468657265666f72652063616e6e6f74207265696d6275727365207465616d20666f72206661696c757265206761732066656573a26469706673582212200e98a2c7470c9ecd3cccac2cd599934455dae586044d248879f515118827f33164736f6c63430008110033",
  "linkReferences": {},
  "deployedLinkReferences": {}
}