{
  "_format": "hh-sol-artifact-1",
  "contractName": "Dexible",
  "sourceName": "contracts/dexible/Dexible.sol",
  "abi": [
    {
      "inputs": [
        {
          "components": [
            {
              "internalType": "uint8",
              "name": "revshareSplitRatio",
              "type": "uint8"
            },
            {
              "internalType": "uint16",
              "name": "stdBpsRate",
              "type": "uint16"
            },
            {
              "internalType": "uint16",
              "name": "minBpsRate",
              "type": "uint16"
            },
            {
              "internalType": "address",
              "name": "adminMultiSig",
              "type": "address"
            },
            {
              "internalType": "address",
              "name": "communityVault",
              "type": "address"
            },
            {
              "internalType": "address",
              "name": "treasury",
              "type": "address"
            },
            {
              "internalType": "address",
              "name": "dxblToken",
              "type": "address"
            },
            {
              "internalType": "address",
              "name": "arbGasOracle",
              "type": "address"
            },
            {
              "internalType": "uint112",
              "name": "minFeeUSD",
              "type": "uint112"
            },
            {
              "internalType": "address[]",
              "name": "initialRelays",
              "type": "address[]"
            }
          ],
          "internalType": "struct DexibleStorage.DexibleConfig",
          "name": "config",
          "type": "tuple"
        }
      ],
      "stateMutability": "nonpayable",
      "type": "constructor"
    },
    {
      "anonymous": false,
      "inputs": [
        {
          "indexed": true,
          "internalType": "address",
          "name": "affiliate",
          "type": "address"
        },
        {
          "indexed": false,
          "internalType": "address",
          "name": "token",
          "type": "address"
        },
        {
          "indexed": false,
          "internalType": "uint256",
          "name": "amount",
          "type": "uint256"
        }
      ],
      "name": "AffiliatePaid",
      "type": "event"
    },
    {
      "anonymous": false,
      "inputs": [
        {
          "indexed": false,
          "internalType": "address",
          "name": "newVault",
          "type": "address"
        }
      ],
      "name": "ArbGasOracleChanged",
      "type": "event"
    },
    {
      "anonymous": false,
      "inputs": [
        {
          "indexed": false,
          "internalType": "uint32",
          "name": "stdRate",
          "type": "uint32"
        },
        {
          "indexed": false,
          "internalType": "uint32",
          "name": "minRate",
          "type": "uint32"
        }
      ],
      "name": "ChangedBpsRates",
      "type": "event"
    },
    {
      "anonymous": false,
      "inputs": [
        {
          "indexed": false,
          "internalType": "uint8",
          "name": "split",
          "type": "uint8"
        }
      ],
      "name": "ChangedRevshareSplit",
      "type": "event"
    },
    {
      "anonymous": false,
      "inputs": [
        {
          "indexed": true,
          "internalType": "address",
          "name": "old",
          "type": "address"
        },
        {
          "indexed": true,
          "internalType": "address",
          "name": "newRevshare",
          "type": "address"
        }
      ],
      "name": "ChangedRevshareVault",
      "type": "event"
    },
    {
      "anonymous": false,
      "inputs": [
        {
          "indexed": true,
          "internalType": "address",
          "name": "relay",
          "type": "address"
        },
        {
          "indexed": false,
          "internalType": "uint256",
          "name": "amount",
          "type": "uint256"
        }
      ],
      "name": "InsufficientGasFunds",
      "type": "event"
    },
    {
      "anonymous": false,
      "inputs": [
        {
          "indexed": false,
          "internalType": "uint16",
          "name": "newRate",
          "type": "uint16"
        }
      ],
      "name": "MinBpsChanged",
      "type": "event"
    },
    {
      "anonymous": false,
      "inputs": [
        {
          "indexed": false,
          "internalType": "uint112",
          "name": "newMin",
          "type": "uint112"
        }
      ],
      "name": "MinFeeChanged",
      "type": "event"
    },
    {
      "anonymous": false,
      "inputs": [
        {
          "indexed": true,
          "internalType": "address",
          "name": "relay",
          "type": "address"
        },
        {
          "indexed": false,
          "internalType": "uint256",
          "name": "amount",
          "type": "uint256"
        }
      ],
      "name": "PaidGasFunds",
      "type": "event"
    },
    {
      "anonymous": false,
      "inputs": [],
      "name": "Paused",
      "type": "event"
    },
    {
      "anonymous": false,
      "inputs": [],
      "name": "Resumed",
      "type": "event"
    },
    {
      "anonymous": false,
      "inputs": [
        {
          "indexed": false,
          "internalType": "uint8",
          "name": "newRate",
          "type": "uint8"
        }
      ],
      "name": "SplitRatioChanged",
      "type": "event"
    },
    {
      "anonymous": false,
      "inputs": [
        {
          "indexed": false,
          "internalType": "uint16",
          "name": "newRate",
          "type": "uint16"
        }
      ],
      "name": "StdBpsChanged",
      "type": "event"
    },
    {
      "anonymous": false,
      "inputs": [
        {
          "indexed": true,
          "internalType": "address",
          "name": "trader",
          "type": "address"
        },
        {
          "indexed": false,
          "internalType": "address",
          "name": "feeToken",
          "type": "address"
        },
        {
          "indexed": false,
          "internalType": "uint256",
          "name": "gasFeePaid",
          "type": "uint256"
        }
      ],
      "name": "SwapFailed",
      "type": "event"
    },
    {
      "anonymous": false,
      "inputs": [
        {
          "indexed": true,
          "internalType": "address",
          "name": "trader",
          "type": "address"
        },
        {
          "indexed": true,
          "internalType": "address",
          "name": "affiliate",
          "type": "address"
        },
        {
          "indexed": false,
          "internalType": "uint256",
          "name": "inputAmount",
          "type": "uint256"
        },
        {
          "indexed": false,
          "internalType": "uint256",
          "name": "outputAmount",
          "type": "uint256"
        },
        {
          "indexed": false,
          "internalType": "address",
          "name": "feeToken",
          "type": "address"
        },
        {
          "indexed": false,
          "internalType": "uint256",
          "name": "gasFee",
          "type": "uint256"
        },
        {
          "indexed": false,
          "internalType": "uint256",
          "name": "affiliateFee",
          "type": "uint256"
        },
        {
          "indexed": false,
          "internalType": "uint256",
          "name": "dexibleFee",
          "type": "uint256"
        }
      ],
      "name": "SwapSuccess",
      "type": "event"
    },
    {
      "anonymous": false,
      "inputs": [
        {
          "indexed": false,
          "internalType": "address",
          "name": "newTreasury",
          "type": "address"
        }
      ],
      "name": "TreasuryChanged",
      "type": "event"
    },
    {
      "anonymous": false,
      "inputs": [
        {
          "indexed": false,
          "internalType": "address",
          "name": "newVault",
          "type": "address"
        }
      ],
      "name": "VaultChanged",
      "type": "event"
    },
    {
      "inputs": [
        {
          "internalType": "address[]",
          "name": "relays",
          "type": "address[]"
        }
      ],
      "name": "addRelays",
      "outputs": [],
      "stateMutability": "nonpayable",
      "type": "function"
    },
    {
      "inputs": [],
      "name": "adminMultiSig",
      "outputs": [
        {
          "internalType": "address",
          "name": "",
          "type": "address"
        }
      ],
      "stateMutability": "view",
      "type": "function"
    },
    {
      "inputs": [],
      "name": "arbitrumGasOracle",
      "outputs": [
        {
          "internalType": "address",
          "name": "",
          "type": "address"
        }
      ],
      "stateMutability": "view",
      "type": "function"
    },
    {
      "inputs": [],
      "name": "communityVault",
      "outputs": [
        {
          "internalType": "address",
          "name": "",
          "type": "address"
        }
      ],
      "stateMutability": "view",
      "type": "function"
    },
    {
      "inputs": [
        {
          "components": [
            {
              "internalType": "uint8",
              "name": "revshareSplitRatio",
              "type": "uint8"
            },
            {
              "internalType": "uint16",
              "name": "stdBpsRate",
              "type": "uint16"
            },
            {
              "internalType": "uint16",
              "name": "minBpsRate",
              "type": "uint16"
            },
            {
              "internalType": "address",
              "name": "adminMultiSig",
              "type": "address"
            },
            {
              "internalType": "address",
              "name": "communityVault",
              "type": "address"
            },
            {
              "internalType": "address",
              "name": "treasury",
              "type": "address"
            },
            {
              "internalType": "address",
              "name": "dxblToken",
              "type": "address"
            },
            {
              "internalType": "address",
              "name": "arbGasOracle",
              "type": "address"
            },
            {
              "internalType": "uint112",
              "name": "minFeeUSD",
              "type": "uint112"
            },
            {
              "internalType": "address[]",
              "name": "initialRelays",
              "type": "address[]"
            }
          ],
          "internalType": "struct DexibleStorage.DexibleConfig",
          "name": "config",
          "type": "tuple"
        }
      ],
      "name": "configure",
      "outputs": [],
      "stateMutability": "nonpayable",
      "type": "function"
    },
    {
      "inputs": [],
      "name": "dxblToken",
      "outputs": [
        {
          "internalType": "address",
          "name": "",
          "type": "address"
        }
      ],
      "stateMutability": "view",
      "type": "function"
    },
    {
      "inputs": [
        {
          "components": [
            {
              "components": [
                {
                  "internalType": "address",
                  "name": "requester",
                  "type": "address"
                },
                {
                  "components": [
                    {
                      "internalType": "contract IERC20",
                      "name": "feeToken",
                      "type": "address"
                    },
                    {
                      "internalType": "address",
                      "name": "affiliate",
                      "type": "address"
                    },
                    {
                      "internalType": "uint256",
                      "name": "affiliatePortion",
                      "type": "uint256"
                    }
                  ],
                  "internalType": "struct ExecutionTypes.FeeDetails",
                  "name": "fee",
                  "type": "tuple"
                }
              ],
              "internalType": "struct ExecutionTypes.ExecutionRequest",
              "name": "executionRequest",
              "type": "tuple"
            },
            {
              "components": [
                {
                  "internalType": "uint112",
                  "name": "amount",
                  "type": "uint112"
                },
                {
                  "internalType": "contract IERC20",
                  "name": "token",
                  "type": "address"
                }
              ],
              "internalType": "struct TokenTypes.TokenAmount",
              "name": "tokenIn",
              "type": "tuple"
            },
            {
              "components": [
                {
                  "internalType": "uint112",
                  "name": "amount",
                  "type": "uint112"
                },
                {
                  "internalType": "contract IERC20",
                  "name": "token",
                  "type": "address"
                }
              ],
              "internalType": "struct TokenTypes.TokenAmount",
              "name": "tokenOut",
              "type": "tuple"
            },
            {
              "components": [
                {
                  "internalType": "address",
                  "name": "router",
                  "type": "address"
                },
                {
                  "internalType": "address",
                  "name": "spender",
                  "type": "address"
                },
                {
                  "components": [
                    {
                      "internalType": "uint112",
                      "name": "amount",
                      "type": "uint112"
                    },
                    {
                      "internalType": "contract IERC20",
                      "name": "token",
                      "type": "address"
                    }
                  ],
                  "internalType": "struct TokenTypes.TokenAmount",
                  "name": "routeAmount",
                  "type": "tuple"
                },
                {
                  "internalType": "bytes",
                  "name": "routerData",
                  "type": "bytes"
                }
              ],
              "internalType": "struct SwapTypes.RouterRequest[]",
              "name": "routes",
              "type": "tuple[]"
            }
          ],
          "internalType": "struct SwapTypes.SwapRequest",
          "name": "request",
          "type": "tuple"
        },
        {
          "components": [
            {
              "internalType": "bool",
              "name": "feeIsInput",
              "type": "bool"
            },
            {
              "internalType": "bool",
              "name": "isSelfSwap",
              "type": "bool"
            },
            {
              "internalType": "uint256",
              "name": "startGas",
              "type": "uint256"
            },
            {
              "internalType": "uint256",
              "name": "toProtocol",
              "type": "uint256"
            },
            {
              "internalType": "uint256",
              "name": "toRevshare",
              "type": "uint256"
            },
            {
              "internalType": "uint256",
              "name": "outToTrader",
              "type": "uint256"
            },
            {
              "internalType": "uint256",
              "name": "outAmount",
              "type": "uint256"
            },
            {
              "internalType": "uint256",
              "name": "bpsAmount",
              "type": "uint256"
            },
            {
              "internalType": "uint256",
              "name": "gasAmount",
              "type": "uint256"
            },
            {
              "internalType": "uint256",
              "name": "nativeGasAmount",
              "type": "uint256"
            },
            {
              "internalType": "uint256",
              "name": "preDXBLBalance",
              "type": "uint256"
            },
            {
              "internalType": "uint256",
              "name": "remainingInBalance",
              "type": "uint256"
            }
          ],
          "internalType": "struct SwapHandler.SwapMeta",
          "name": "meta",
          "type": "tuple"
        }
      ],
      "name": "fill",
      "outputs": [
        {
          "components": [
            {
              "internalType": "bool",
              "name": "feeIsInput",
              "type": "bool"
            },
            {
              "internalType": "bool",
              "name": "isSelfSwap",
              "type": "bool"
            },
            {
              "internalType": "uint256",
              "name": "startGas",
              "type": "uint256"
            },
            {
              "internalType": "uint256",
              "name": "toProtocol",
              "type": "uint256"
            },
            {
              "internalType": "uint256",
              "name": "toRevshare",
              "type": "uint256"
            },
            {
              "internalType": "uint256",
              "name": "outToTrader",
              "type": "uint256"
            },
            {
              "internalType": "uint256",
              "name": "outAmount",
              "type": "uint256"
            },
            {
              "internalType": "uint256",
              "name": "bpsAmount",
              "type": "uint256"
            },
            {
              "internalType": "uint256",
              "name": "gasAmount",
              "type": "uint256"
            },
            {
              "internalType": "uint256",
              "name": "nativeGasAmount",
              "type": "uint256"
            },
            {
              "internalType": "uint256",
              "name": "preDXBLBalance",
              "type": "uint256"
            },
            {
              "internalType": "uint256",
              "name": "remainingInBalance",
              "type": "uint256"
            }
          ],
          "internalType": "struct SwapHandler.SwapMeta",
          "name": "",
          "type": "tuple"
        }
      ],
      "stateMutability": "nonpayable",
      "type": "function"
    },
    {
      "inputs": [],
      "name": "minBpsRate",
      "outputs": [
        {
          "internalType": "uint16",
          "name": "",
          "type": "uint16"
        }
      ],
      "stateMutability": "view",
      "type": "function"
    },
    {
      "inputs": [],
      "name": "minFeeUSD",
      "outputs": [
        {
          "internalType": "uint112",
          "name": "",
          "type": "uint112"
        }
      ],
      "stateMutability": "view",
      "type": "function"
    },
    {
      "inputs": [],
      "name": "pause",
      "outputs": [],
      "stateMutability": "nonpayable",
      "type": "function"
    },
    {
      "inputs": [
        {
          "internalType": "address",
          "name": "relay",
          "type": "address"
        }
      ],
      "name": "removeRelay",
      "outputs": [],
      "stateMutability": "nonpayable",
      "type": "function"
    },
    {
      "inputs": [],
      "name": "resume",
      "outputs": [],
      "stateMutability": "nonpayable",
      "type": "function"
    },
    {
      "inputs": [],
      "name": "revshareSplitRatio",
      "outputs": [
        {
          "internalType": "uint8",
          "name": "",
          "type": "uint8"
        }
      ],
      "stateMutability": "view",
      "type": "function"
    },
    {
      "inputs": [
        {
          "components": [
            {
              "internalType": "contract IERC20",
              "name": "feeToken",
              "type": "address"
            },
            {
              "components": [
                {
                  "internalType": "uint112",
                  "name": "amount",
                  "type": "uint112"
                },
                {
                  "internalType": "contract IERC20",
                  "name": "token",
                  "type": "address"
                }
              ],
              "internalType": "struct TokenTypes.TokenAmount",
              "name": "tokenIn",
              "type": "tuple"
            },
            {
              "components": [
                {
                  "internalType": "uint112",
                  "name": "amount",
                  "type": "uint112"
                },
                {
                  "internalType": "contract IERC20",
                  "name": "token",
                  "type": "address"
                }
              ],
              "internalType": "struct TokenTypes.TokenAmount",
              "name": "tokenOut",
              "type": "tuple"
            },
            {
              "components": [
                {
                  "internalType": "address",
                  "name": "router",
                  "type": "address"
                },
                {
                  "internalType": "address",
                  "name": "spender",
                  "type": "address"
                },
                {
                  "components": [
                    {
                      "internalType": "uint112",
                      "name": "amount",
                      "type": "uint112"
                    },
                    {
                      "internalType": "contract IERC20",
                      "name": "token",
                      "type": "address"
                    }
                  ],
                  "internalType": "struct TokenTypes.TokenAmount",
                  "name": "routeAmount",
                  "type": "tuple"
                },
                {
                  "internalType": "bytes",
                  "name": "routerData",
                  "type": "bytes"
                }
              ],
              "internalType": "struct SwapTypes.RouterRequest[]",
              "name": "routes",
              "type": "tuple[]"
            }
          ],
          "internalType": "struct SwapTypes.SelfSwap",
          "name": "request",
          "type": "tuple"
        }
      ],
      "name": "selfSwap",
      "outputs": [],
      "stateMutability": "nonpayable",
      "type": "function"
    },
    {
      "inputs": [
        {
          "internalType": "contract IArbitrumGasOracle",
          "name": "oracle",
          "type": "address"
        }
      ],
      "name": "setArbitrumGasOracle",
      "outputs": [],
      "stateMutability": "nonpayable",
      "type": "function"
    },
    {
      "inputs": [
        {
          "internalType": "contract ICommunityVault",
          "name": "vault",
          "type": "address"
        }
      ],
      "name": "setCommunityVault",
      "outputs": [],
      "stateMutability": "nonpayable",
      "type": "function"
    },
    {
      "inputs": [
        {
          "internalType": "uint16",
          "name": "bps",
          "type": "uint16"
        }
      ],
      "name": "setMinBpsRate",
      "outputs": [],
      "stateMutability": "nonpayable",
      "type": "function"
    },
    {
      "inputs": [
        {
          "internalType": "uint112",
          "name": "minFee",
          "type": "uint112"
        }
      ],
      "name": "setMinFeeUSD",
      "outputs": [],
      "stateMutability": "nonpayable",
      "type": "function"
    },
    {
      "inputs": [
        {
          "internalType": "uint8",
          "name": "bps",
          "type": "uint8"
        }
      ],
      "name": "setRevshareSplitRatio",
      "outputs": [],
      "stateMutability": "nonpayable",
      "type": "function"
    },
    {
      "inputs": [
        {
          "internalType": "uint16",
          "name": "bps",
          "type": "uint16"
        }
      ],
      "name": "setStdBpsRate",
      "outputs": [],
      "stateMutability": "nonpayable",
      "type": "function"
    },
    {
      "inputs": [
        {
          "internalType": "address",
          "name": "t",
          "type": "address"
        }
      ],
      "name": "setTreasury",
      "outputs": [],
      "stateMutability": "nonpayable",
      "type": "function"
    },
    {
      "inputs": [],
      "name": "stdBpsRate",
      "outputs": [
        {
          "internalType": "uint16",
          "name": "",
          "type": "uint16"
        }
      ],
      "stateMutability": "view",
      "type": "function"
    },
    {
      "inputs": [
        {
          "components": [
            {
              "components": [
                {
                  "internalType": "address",
                  "name": "requester",
                  "type": "address"
                },
                {
                  "components": [
                    {
                      "internalType": "contract IERC20",
                      "name": "feeToken",
                      "type": "address"
                    },
                    {
                      "internalType": "address",
                      "name": "affiliate",
                      "type": "address"
                    },
                    {
                      "internalType": "uint256",
                      "name": "affiliatePortion",
                      "type": "uint256"
                    }
                  ],
                  "internalType": "struct ExecutionTypes.FeeDetails",
                  "name": "fee",
                  "type": "tuple"
                }
              ],
              "internalType": "struct ExecutionTypes.ExecutionRequest",
              "name": "executionRequest",
              "type": "tuple"
            },
            {
              "components": [
                {
                  "internalType": "uint112",
                  "name": "amount",
                  "type": "uint112"
                },
                {
                  "internalType": "contract IERC20",
                  "name": "token",
                  "type": "address"
                }
              ],
              "internalType": "struct TokenTypes.TokenAmount",
              "name": "tokenIn",
              "type": "tuple"
            },
            {
              "components": [
                {
                  "internalType": "uint112",
                  "name": "amount",
                  "type": "uint112"
                },
                {
                  "internalType": "contract IERC20",
                  "name": "token",
                  "type": "address"
                }
              ],
              "internalType": "struct TokenTypes.TokenAmount",
              "name": "tokenOut",
              "type": "tuple"
            },
            {
              "components": [
                {
                  "internalType": "address",
                  "name": "router",
                  "type": "address"
                },
                {
                  "internalType": "address",
                  "name": "spender",
                  "type": "address"
                },
                {
                  "components": [
                    {
                      "internalType": "uint112",
                      "name": "amount",
                      "type": "uint112"
                    },
                    {
                      "internalType": "contract IERC20",
                      "name": "token",
                      "type": "address"
                    }
                  ],
                  "internalType": "struct TokenTypes.TokenAmount",
                  "name": "routeAmount",
                  "type": "tuple"
                },
                {
                  "internalType": "bytes",
                  "name": "routerData",
                  "type": "bytes"
                }
              ],
              "internalType": "struct SwapTypes.RouterRequest[]",
              "name": "routes",
              "type": "tuple[]"
            }
          ],
          "internalType": "struct SwapTypes.SwapRequest",
          "name": "request",
          "type": "tuple"
        }
      ],
      "name": "swap",
      "outputs": [],
      "stateMutability": "nonpayable",
      "type": "function"
    },
    {
      "inputs": [],
      "name": "treasury",
      "outputs": [
        {
          "internalType": "address",
          "name": "",
          "type": "address"
        }
      ],
      "stateMutability": "view",
      "type": "function"
    }
  ],
  "bytecode": "0x60806040523480156200001157600080fd5b5060405162004a4f38038062004a4f833981016040819052620000349162000632565b6200003f8162000046565b5062000795565b60006200005d620004c560201b620015cd1760201c565b60038101549091506001600160a01b031615620000c55760038101546001600160a01b03163314620000c55760405162461bcd60e51b815260206004820152600c60248201526b155b985d5d1a1bdc9a5e995960a21b60448201526064015b60405180910390fd5b60808201516001600160a01b0316620001215760405162461bcd60e51b815260206004820152601e60248201527f496e76616c696420436f6d6d756e6974795661756c74206164647265737300006044820152606401620000bc565b60a08201516001600160a01b0316620001705760405162461bcd60e51b815260206004820152601060248201526f496e76616c696420747265617375727960801b6044820152606401620000bc565b60c08201516001600160a01b0316620001cc5760405162461bcd60e51b815260206004820152601a60248201527f496e76616c6964204458424c20746f6b656e20616464726573730000000000006044820152606401620000bc565b815160ff166200021f5760405162461bcd60e51b815260206004820152601c60248201527f496e76616c69642072657673686172652073706c697420726174696f000000006044820152606401620000bc565b6000826020015161ffff1611620002855760405162461bcd60e51b8152602060048201526024808201527f4d7573742070726f766964652061207374616e646172642062707320666565206044820152637261746560e01b6064820152608401620000bc565b6000826040015161ffff1611620002df5760405162461bcd60e51b815260206004820152601660248201527f6d696e42707352617465206973207265717569726564000000000000000000006044820152606401620000bc565b816020015161ffff16826040015161ffff16106200034b5760405162461bcd60e51b815260206004820152602260248201527f4d696e206270732072617465206d757374206265206c657373207468616e20736044820152611d1960f21b6064820152608401620000bc565b60608201516003820180546001600160a01b03199081166001600160a01b0393841617909155835183546080860151600186018054851691861691909117905560a0860151600286018054851691861691909117905560c08601516004860180548516918616919091179055602086015160408701516101008089015163ffffff001990941660ff9095160263ffff00001916939093176201000061ffff9283160217600160201b600160a01b0319166401000000009190931602600160301b600160a01b0319169190911766010000000000006001600160701b039092169190910217835560e0840151600584018054909216921691909117905560005b82610120015151811015620004c057600182600601600085610120015184815181106200047b576200047b62000757565b6020908102919091018101516001600160a01b03168252810191909152604001600020805460ff1916911515919091179055620004b8816200076d565b90506200044a565b505050565b7f949817a987a8e038ef345d3c9d4fd28e49d8e4e09456e57c05a8b2ce2e62866c90565b634e487b7160e01b600052604160045260246000fd5b60405161014081016001600160401b0381118282101715620005255762000525620004e9565b60405290565b805160ff811681146200053d57600080fd5b919050565b805161ffff811681146200053d57600080fd5b80516001600160a01b03811681146200053d57600080fd5b80516001600160701b03811681146200053d57600080fd5b600082601f8301126200059757600080fd5b815160206001600160401b0380831115620005b657620005b6620004e9565b8260051b604051601f19603f83011681018181108482111715620005de57620005de620004e9565b604052938452858101830193838101925087851115620005fd57600080fd5b83870191505b848210156200062757620006178262000555565b8352918301919083019062000603565b979650505050505050565b6000602082840312156200064557600080fd5b81516001600160401b03808211156200065d57600080fd5b9083019061014082860312156200067357600080fd5b6200067d620004ff565b62000688836200052b565b8152620006986020840162000542565b6020820152620006ab6040840162000542565b6040820152620006be6060840162000555565b6060820152620006d16080840162000555565b6080820152620006e460a0840162000555565b60a0820152620006f760c0840162000555565b60c08201526200070a60e0840162000555565b60e08201526101006200071f8185016200056d565b9082015261012083810151838111156200073857600080fd5b620007468882870162000585565b918301919091525095945050505050565b634e487b7160e01b600052603260045260246000fd5b6000600182016200078e57634e487b7160e01b600052601160045260246000fd5b5060010190565b6142aa80620007a56000396000f3fe608060405234801561001057600080fd5b50600436106101585760003560e01c806376a13636116100c3578063c892373d1161007c578063c892373d14610296578063cd151e9a146102b6578063d8544cf3146102c9578063dd81eb98146102dc578063f0f44260146102e4578063f3390c3a146102f757600080fd5b806376a13636146102455780638456cb591461024d5780638c47ea8e14610255578063bb47123414610268578063bb6f0ece14610270578063c3d718a41461028357600080fd5b80634e0bb8cc116101155780634e0bb8cc146101d557806352ac8616146101f557806353e978681461020f5780635d745b8f14610217578063602dd0261461022a57806361d027b31461023d57600080fd5b8063046f7da21461015d5780631725d82f1461016757806324b40c921461017a578063370fb45b1461018d57806340d925b1146101ad57806345c6a874146101c0575b600080fd5b61016561030a565b005b610165610175366004613037565b61038a565b610165610188366004613066565b610412565b61019561049a565b60405161ffff90911681526020015b60405180910390f35b6101656101bb366004613081565b6104b5565b6101c861056c565b6040516101a491906130f5565b6101dd610588565b6040516001600160701b0390911681526020016101a4565b6101fd6105a8565b60405160ff90911681526020016101a4565b6101c86105c0565b610165610225366004613066565b6105dc565b610165610238366004613122565b610661565b6101c8610844565b6101c8610860565b61016561087c565b61016561026336600461316d565b6108f3565b610195610984565b61016561027e366004613337565b61099e565b610165610291366004613442565b610dcb565b6102a96102a4366004613495565b610f73565b6040516101a49190613607565b6101656102c4366004613616565b6113a6565b6101656102d7366004613616565b61140a565b6101c8611497565b6101656102f2366004613616565b6114b3565b610165610305366004613616565b611540565b6103126115cd565b600301546001600160a01b031633146103465760405162461bcd60e51b815260040161033d90613633565b60405180910390fd5b60006103506115cd565b805460ff19169115159190911790556040517f62451d457bc659158be6e6247f56ec1df424a5c7597f71c20c2bc44e0965c8f990600090a1565b6103926115cd565b600301546001600160a01b031633146103bd5760405162461bcd60e51b815260040161033d90613633565b806103c66115cd565b805461ff00191661010060ff9384160217905560405190821681527fc08e3d70cd07fcbefc6065b4c1de14af045aef558d499e3d132d6b9aa13fdc4c906020015b60405180910390a150565b61041a6115cd565b600301546001600160a01b031633146104455760405162461bcd60e51b815260040161033d90613633565b8061044e6115cd565b805465ffff000000001916600160201b61ffff9384160217905560405190821681527f0cc243ac5a88993148aefaa9f320f7d51555727982cb97b5502e4de3a296ff5090602001610407565b60006104a46115cd565b54600160201b900461ffff16919050565b6104bd6115cd565b600301546001600160a01b031633146104e85760405162461bcd60e51b815260040161033d90613633565b60006104f26115cd565b905060005b8281101561056657600182600601600086868581811061051957610519613659565b905060200201602081019061052e9190613616565b6001600160a01b031681526020810191909152604001600020805460ff191691151591909117905561055f81613685565b90506104f7565b50505050565b60006105766115cd565b600301546001600160a01b0316919050565b60006105926115cd565b54600160301b90046001600160701b0316919050565b60006105b26115cd565b54610100900460ff16919050565b60006105ca6115cd565b600101546001600160a01b0316919050565b6105e46115cd565b600301546001600160a01b0316331461060f5760405162461bcd60e51b815260040161033d90613633565b806106186115cd565b805463ffff000019166201000061ffff9384160217905560405190821681527f3c690423f2b4874693fa467d54b9a22ce2469d86d3ea9a48aabb8479ee5fde9d90602001610407565b600061066b6115cd565b33600090815260068201602052604090205490915060ff166106cf5760405162461bcd60e51b815260206004820152601a60248201527f4f6e6c792072656c617920616c6c6f77656420746f2063616c6c000000000000604482015260640161033d565b6106d76115cd565b5460ff16156106f85760405162461bcd60e51b815260040161033d9061369e565b6000619c405a61070891906136d5565b905060006040518061018001604052806000151581526020016000151581526020018381526020016000815260200160008152602001600081526020016000815260200160008152602001600081526020016000815260200160008152602001600081525090506000306001600160a01b031663c892373d620138805a61078f91906136e8565b87856040518463ffffffff1660e01b81526004016107ae92919061389f565b6101806040518083038160008887f1935050505080156107eb575060408051601f3d908101601f191682019092526107e891810190613965565b60015b6108235761081b6040518060400160405280600b81526020016a14ddd85c0819985a5b195960aa1b8152506115f1565b50600061082a565b9150600190505b61083d61083686613ba6565b8383611637565b5050505050565b600061084e6115cd565b600201546001600160a01b0316919050565b600061086a6115cd565b600501546001600160a01b0316919050565b6108846115cd565b600301546001600160a01b031633146108af5760405162461bcd60e51b815260040161033d90613633565b60016108b96115cd565b805460ff19169115159190911790556040517f9e87fac88ff661f02d44f95383c817fece4bce600a3dab7a54406878b965e75290600090a1565b6108fb6115cd565b600301546001600160a01b031633146109265760405162461bcd60e51b815260040161033d90613633565b8061092f6115cd565b8054600160301b600160a01b031916600160301b6001600160701b039384160217905560405190821681527f835b0e394b56439e2901706b3c67fcb1abcd7219c10b4010eb396ab636218ffc90602001610407565b600061098e6115cd565b5462010000900461ffff16919050565b60006109a86115cd565b60038101549091506001600160a01b0316156109ea5760038101546001600160a01b031633146109ea5760405162461bcd60e51b815260040161033d90613633565b60808201516001600160a01b0316610a445760405162461bcd60e51b815260206004820152601e60248201527f496e76616c696420436f6d6d756e6974795661756c7420616464726573730000604482015260640161033d565b60a08201516001600160a01b0316610a915760405162461bcd60e51b815260206004820152601060248201526f496e76616c696420747265617375727960801b604482015260640161033d565b60c08201516001600160a01b0316610aeb5760405162461bcd60e51b815260206004820152601a60248201527f496e76616c6964204458424c20746f6b656e2061646472657373000000000000604482015260640161033d565b815160ff16610b3c5760405162461bcd60e51b815260206004820152601c60248201527f496e76616c69642072657673686172652073706c697420726174696f00000000604482015260640161033d565b6000826020015161ffff1611610ba05760405162461bcd60e51b8152602060048201526024808201527f4d7573742070726f766964652061207374616e646172642062707320666565206044820152637261746560e01b606482015260840161033d565b6000826040015161ffff1611610bf15760405162461bcd60e51b81526020600482015260166024820152751b5a5b909c1cd4985d19481a5cc81c995c5d5a5c995960521b604482015260640161033d565b816020015161ffff16826040015161ffff1610610c5b5760405162461bcd60e51b815260206004820152602260248201527f4d696e206270732072617465206d757374206265206c657373207468616e20736044820152611d1960f21b606482015260840161033d565b60608201516003820180546001600160a01b03199081166001600160a01b0393841617909155835183546080860151600186018054851691861691909117905560a0860151600286018054851691861691909117905560c08601516004860180548516918616919091179055602086015160408701516101008089015163ffffff001990941660ff9095160263ffff00001916939093176201000061ffff9283160217640100000000600160a01b031916600160201b9190931602600160301b600160a01b03191691909117600160301b6001600160701b039092169190910217835560e0840151600584018054909216921691909117905560005b82610120015151811015610dc65760018260060160008561012001518481518110610d8457610d84613659565b6020908102919091018101516001600160a01b03168252810191909152604001600020805460ff1916911515919091179055610dbf81613685565b9050610d57565b505050565b610dd36115cd565b5460ff1615610df45760405162461bcd60e51b815260040161033d9061369e565b6040805160c081018252336080820190815282516060810190935260009282919060a083019080610e286020890189613616565b6001600160a01b0316815260200160006001600160a01b031681526020016000815250815250815260200183602001803603810190610e679190613c92565b8152602001610e7e36859003850160608601613c92565b8152602001610e9060a0850185613cae565b610e9991613cf7565b90526040805161018081018252600080825260016020830152818301819052606082018190526080820181905260a0820181905260c0820181905260e08201819052610100820181905261012082018190526101408201819052610160820152905163c892373d60e01b815291925090309063c892373d90610f219085908590600401613dff565b610180604051808303816000875af1158015610f41573d6000803e3d6000fd5b505050506040513d601f19601f82011682018060405250810190610f659190613965565b9050610dc682826001611637565b610fdb604051806101800160405280600015158152602001600015158152602001600081526020016000815260200160008152602001600081526020016000815260200160008152602001600081526020016000815260200160008152602001600081525090565b33301461102a5760405162461bcd60e51b815260206004820152601d60248201527f4f6e6c7920616c6c6f77656420617320696e7465726e616c2063616c6c000000604482015260640161033d565b611034838361177f565b611045610100840160e08501613616565b6001600160a01b03166370a08231306040518263ffffffff1660e01b815260040161107091906130f5565b602060405180830381865afa15801561108d573d6000803e3d6000fd5b505050506040513d601f19601f820116820180604052508101906110b19190613e99565b60c083015260005b6110c7610100850185613cae565b905081101561121957366110df610100860186613cae565b838181106110ef576110ef613659565b90506020028101906111019190613eb2565b905061114f6111166040830160208401613616565b611126606084016040850161316d565b6001600160701b031661113f6080850160608601613616565b6001600160a01b03169190611b98565b600061115e6020830183613616565b6001600160a01b03166111746080840184613ed2565b604051611182929190613f18565b6000604051808303816000865af19150503d80600081146111bf576040519150601f19603f3d011682016040523d82523d6000602084013e6111c4565b606091505b50509050806112065760405162461bcd60e51b815260206004820152600e60248201526d04661696c656420746f20737761760941b604482015260640161033d565b50508061121290613685565b90506110b9565b50600061122d610100850160e08601613616565b6001600160a01b03166370a08231306040518263ffffffff1660e01b815260040161125891906130f5565b602060405180830381865afa158015611275573d6000803e3d6000fd5b505050506040513d601f19601f820116820180604052508101906112999190613e99565b9050808360c0015110156112c05760c08301516112b690826136e8565b60c08401526112c8565b600060c08401525b604080518082019091526008815267115e1c1958dd195960c21b602082015261132f906112fb60e0870160c0880161316d565b6001600160701b031660405180604001604052806008815260200167149958d95a5d995960c21b8152508660c00151611cd3565b61133f60e0850160c0860161316d565b6001600160701b03168360c00151101561139b5760405162461bcd60e51b815260206004820152601d60248201527f496e73756666696369656e74206f75747075742067656e657261746564000000604482015260640161033d565b829150505b92915050565b6113ae6115cd565b600301546001600160a01b031633146113d95760405162461bcd60e51b815260040161033d90613633565b60006113e36115cd565b6001600160a01b03909216600090815260069092016020525060409020805460ff19169055565b6114126115cd565b600301546001600160a01b0316331461143d5760405162461bcd60e51b815260040161033d90613633565b806114466115cd565b60010180546001600160a01b0319166001600160a01b03929092169190911790556040517fa49691f0dd6477ccef49962612a236d252e3a31c3be8b61fa6abeff3e74a7572906104079083906130f5565b60006114a16115cd565b600401546001600160a01b0316919050565b6114bb6115cd565b600301546001600160a01b031633146114e65760405162461bcd60e51b815260040161033d90613633565b806114ef6115cd565b60020180546001600160a01b0319166001600160a01b03929092169190911790556040517fc714d22a2f08b695f81e7c707058db484aa5b4d6b4c9fd64beb10fe85832f608906104079083906130f5565b6115486115cd565b600301546001600160a01b031633146115735760405162461bcd60e51b815260040161033d90613633565b8061157c6115cd565b60050180546001600160a01b0319166001600160a01b03929092169190911790556040517fa6185880f040ba1584f7e109a3be5b1c01a3d3855eb518cc0ff6f12b5ba5e70b906104079083906130f5565b7f949817a987a8e038ef345d3c9d4fd28e49d8e4e09456e57c05a8b2ce2e62866c90565b611634816040516024016116059190613f28565b60408051601f198184030181529190526020810180516001600160e01b031663104c13eb60e21b179052611d18565b50565b60208084015101516040516370a0823160e01b81526000916001600160a01b0316906370a082319061166d9030906004016130f5565b602060405180830381865afa15801561168a573d6000803e3d6000fd5b505050506040513d601f19601f820116820180604052508101906116ae9190613e99565b610160840181815260408051808201909152601781527652656d61696e696e6720696e7075742062616c616e636560481b602082015290519192506116f291611d39565b8115611767578261016001518111156117585760405162461bcd60e51b815260206004820152602260248201527f496e7075742062616c616e636520706f73742d7377617020776173206869676860448201526132b960f11b606482015260840161033d565b6117628484611d82565b611771565b6117718484611d9f565b610566836101200151611ff9565b60006117916040840160208501613616565b9050600061179d6115cd565b6001810154604051630ba408e360e31b81529192506000916001600160a01b0390911690635d204718906117d59086906004016130f5565b602060405180830381865afa1580156117f2573d6000803e3d6000fd5b505050506040513d601f19601f820116820180604052508101906118169190613f3b565b9050806118605760405162461bcd60e51b8152602060048201526018602482015277119959481d1bdad95b881a5cc81b9bdd08185b1b1bddd95960421b604482015260640161033d565b61187060c0860160a08701613616565b6001600160a01b0316836001600160a01b031614806118b0575061189b610100860160e08701613616565b6001600160a01b0316836001600160a01b0316145b61190c5760405162461bcd60e51b815260206004820152602760248201527f46656520746f6b656e206d75737420626520696e707574206f72206f757470756044820152663a103a37b5b2b760c91b606482015260840161033d565b60048201546001600160a01b03166370a0823161192c6020880188613616565b6040518263ffffffff1660e01b815260040161194891906130f5565b602060405180830381865afa158015611965573d6000803e3d6000fd5b505050506040513d601f19601f820116820180604052508101906119899190613e99565b61014085015261199f6040860160208701613616565b6001600160a01b03166119b860c0870160a08801613616565b6001600160a01b03161480855215611a94576119d8610100860186613cae565b60008181106119e9576119e9613659565b90506020028101906119fb9190613eb2565b611a0c90606081019060400161316d565b6001600160701b0316611a2560a087016080880161316d565b6001600160701b031611611a945760405162461bcd60e51b815260206004820152603060248201527f496e7075742066656520746f6b656e20616d6f756e7420646f6573206e6f742060448201526f6163636f756e7420666f72206665657360801b606482015260840161033d565b60408051808201909152601e81527f5472616e73666572696e6720696e70757420666f722074726164696e673a00006020820152611aea90611adc60a088016080890161316d565b6001600160701b0316611d39565b611b35611afa6020870187613616565b30611b0b60a0890160808a0161316d565b6001600160701b0316611b2460c08a0160a08b01613616565b6001600160a01b031692919061213d565b60408051808201909152600f81526e115e1c1958dd1959081bdd5d1c1d5d608a1b6020820152611b6f90611adc60e0880160c0890161316d565b611b7f60a086016080870161316d565b6001600160701b03166101609094019390935250505050565b801580611c125750604051636eb1769f60e11b81523060048201526001600160a01b03838116602483015284169063dd62ed3e90604401602060405180830381865afa158015611bec573d6000803e3d6000fd5b505050506040513d601f19601f82011682018060405250810190611c109190613e99565b155b611c7d5760405162461bcd60e51b815260206004820152603660248201527f5361666545524332303a20617070726f76652066726f6d206e6f6e2d7a65726f60448201527520746f206e6f6e2d7a65726f20616c6c6f77616e636560501b606482015260840161033d565b610dc68363095ea7b360e01b8484604051602401611c9c929190613f58565b60408051601f198184030181529190526020810180516001600160e01b03166001600160e01b03199093169290921790915261215e565b61056684848484604051602401611ced9493929190613f71565b60408051601f198184030181529190526020810180516001600160e01b031663c67ea9d160e01b1790525b80516a636f6e736f6c652e6c6f67602083016000808483855afa5050505050565b611d7e8282604051602401611d4f929190613fae565b60408051601f198184030181529190526020810180516001600160e01b0316632d839cb360e21b179052611d18565b5050565b611d958282600001518360c00151612230565b611d7e82826122d4565b806020015115611ddf5760405162461bcd60e51b815260206004820152600b60248201526a14ddd85c0819985a5b195960aa1b604482015260640161033d565b6000611de96115cd565b825190915015611f835760005a836040015103619c40019050611e246040518060600160405280602981526020016141a46029913982611d39565b611e2d816122e8565b6101208401819052600183015485516020015151604051633931f45d60e01b8152600094506001600160a01b0390921692633931f45d92611e72929190600401613f58565b602060405180830381865afa158015611e8f573d6000803e3d6000fd5b505050506040513d601f19601f82011682018060405250810190611eb39190613e99565b9050611ed6604051806060016040528060408152602001614164604091396115f1565b611f066040518060400160405280600e81526020016d4661696c6564206761732066656560901b81525082611d39565b83518051600284015460209092015151611f2e926001600160a01b039182169291168461213d565b83518051602090910151516040516001600160a01b03909216917f6930176329c33f663176f0f242132119497db425bb44d32f9ffef8683d10b0c091611f75918590613f58565b60405180910390a250505050565b611fa460405180608001604052806049815260200161422c604991396115f1565b82518051602090910151516040516001600160a01b03909216917f6930176329c33f663176f0f242132119497db425bb44d32f9ffef8683d10b0c091611fec91600090613f58565b60405180910390a2505050565b806000036120045750565b61203d6040518060400160405280601781526020017614995b185e4811d85cc814995a5b589d5c9cd95b595b9d604a1b81525082611d39565b8047101561209f576120666040518060600160405280603581526020016141f7603591396115f1565b60405181815233907f4c0d6a438f19dfe41befe161c0bfdfca9f674028133bbaf37749b2d12f8f0dda906020015b60405180910390a250565b6120dd6040518060400160405280601c81526020017f5472616e73666572696e67206761732066656520746f2072656c6179000000008152506115f1565b604051339082156108fc029083906000818181858888f1935050505015801561210a573d6000803e3d6000fd5b5060405181815233907f91d09af90b128f3fb2907042440a531bca49791232cd8f59e1c629d96247d05790602001612094565b610566846323b872dd60e01b858585604051602401611c9c93929190613fd0565b60006121b3826040518060400160405280602081526020017f5361666545524332303a206c6f772d6c6576656c2063616c6c206661696c6564815250856001600160a01b03166124119092919063ffffffff16565b805190915015610dc657808060200190518101906121d19190613f3b565b610dc65760405162461bcd60e51b815260206004820152602a60248201527f5361666545524332303a204552433230206f7065726174696f6e20646964206e6044820152691bdd081cdd58d8d9595960b21b606482015260840161033d565b600061223a6115cd565b90506000831561225957506020840151516001600160701b031661225c565b50815b600182015485518051602090910151516040516302ac425360e61b81526001600160a01b039093169263ab1094c09261229b9290918690600401613fd0565b600060405180830381600087803b1580156122b557600080fd5b505af11580156122c9573d6000803e3d6000fd5b505050505050505050565b6122de828261242a565b611d7e82826127fe565b6000806122f36115cd565b90504661a4b019810161237d57600582015460405163852b66a560e01b8152366004820152602481018690526001600160a01b039091169063852b66a590604401602060405180830381865afa158015612351573d6000803e3d6000fd5b505050506040513d601f19601f820116820180604052508101906123759190613e99565b949350505050565b600a8103612407576040516324ca470760e11b8152600f602160991b01906349948e0e906123b2906000903690600401613ff4565b602060405180830381865afa1580156123cf573d6000803e3d6000fd5b505050506040513d601f19601f820116820180604052508101906123f39190613e99565b6123fd853a614008565b61237591906136d5565b612375843a614008565b60606124208484600085612bc1565b90505b9392505050565b60006124346115cd565b60c083015160a084018190528351610140850151929350612456928692612c9c565b60e08301528251602001515160009061246e90612ddd565b90508260e001518111156124a65761249e6040518060600160405280602a81526020016141cd602a913982611d39565b60e083018190525b815460e08401516064916124c39161010090910460ff1690614008565b6124cd919061401f565b6080840190815260408051808201909152600b81526a546f20726576736861726560a81b602082015290516125029190611d39565b82608001518360e0015161251691906136e8565b845160200151604001511061256d5760405162461bcd60e51b815260206004820152601f60248201527f4d697363616c63756c6174656420616666696c6961746520706f7274696f6e00604482015260640161033d565b83516020015160400151608084015160e085015161258b91906136e8565b61259591906136e8565b6060840190815260408051808201909152601081526f50726f746f636f6c207072652d67617360801b602082015290516125cf9190611d39565b8351602001516040015160608401516080850151600092916125f0916136d5565b6125fa91906136d5565b84519091506126cb5761265e6040518060400160405280600a81526020016913dd5d08185b5bdd5b9d60b21b8152508560c00151604051806040016040528060118152602001702a37ba30b6103332b2b99039b7903330b960791b81525084611cd3565b808460c00151116126b15760405162461bcd60e51b815260206004820152601f60248201527f496e73756666696369656e74206f757470757420746f20706179206665657300604482015260640161033d565b808460c001516126c191906136e8565b60a0850152612742565b808461016001511161272b5760405162461bcd60e51b8152602060048201526024808201527f496e73756666696369656e7420696e7075742066756e647320746f20706179206044820152636665657360e01b606482015260840161033d565b80846101600181815161273e91906136e8565b9052505b845160200151516001840154608086015161276b916001600160a01b0380851692911690612f5b565b85516020015160400151156127f6578551602090810151908101516040909101516127a0916001600160a01b03841691612f5b565b85516020908101519081015160409182015191516001600160a01b03909116917f1fd11cde99de9e2e6d2bc710c225ae2e03d1e8eece69b0c552c7ae2bb3499a70916127ed918591613f58565b60405180910390a25b505050505050565b60006128086115cd565b90508160200151612a52576000620138805a84604001510301905061282c816122e8565b6101208401819052600183015485516020015151604051633931f45d60e01b81526001600160a01b039092169350633931f45d9261286c92600401613f58565b602060405180830381865afa158015612889573d6000803e3d6000fd5b505050506040513d601f19601f820116820180604052508101906128ad9190613e99565b610100830190815260408051808201909152601f81527f47617320706169642062792074726164657220696e2066656520746f6b656e00602082015290516128f59190611d39565b8161010001518260600181815161290c91906136d5565b90525060408051808201909152601381527214185e5b595b9d081d1bc81c1c9bdd1bd8dbdb606a1b602082015260608301516129489190611d39565b81516129d1578161010001518260a00151116129b25760405162461bcd60e51b815260206004820152602360248201527f496e73756666696369656e74206f757470757420746f2070617920676173206660448201526265657360e81b606482015260840161033d565b8161010001518260a0018181516129c991906136e8565b905250612a52565b8161010001518261016001511015612a365760405162461bcd60e51b815260206004820152602260248201527f496e73756666696369656e7420696e70757420746f2070617920676173206665604482015261657360f01b606482015260840161033d565b8161010001518261016001818151612a4e91906136e8565b9052505b8251602001515160028201546060840151612a7b916001600160a01b0380851692911690612f5b565b83515160a0840151604086015160200151612aa1926001600160a01b0390911691612f5b565b61016083015115612b0f57612ae9604051806040016040528060168152602001752a37ba30b6103932b33ab732103a37903a3930b232b960511b815250846101600151611d39565b8351516101608401516020808701510151612b0f926001600160a01b0390911691612f5b565b83516020808201519081015191516040808801515160a088015184516101008a01519584015160e08b015194516001600160a01b039889169896909616967f37d5b664bdbba33c8c4138fa893bae32fef34e9a60d60d7cba0cb46eadb7675196612bb396919291906001600160701b0396909616865260208601949094526001600160a01b039290921660408501526060840152608083015260a082015260c00190565b60405180910390a350505050565b606082471015612c225760405162461bcd60e51b815260206004820152602660248201527f416464726573733a20696e73756666696369656e742062616c616e636520666f6044820152651c8818d85b1b60d21b606482015260840161033d565b600080866001600160a01b03168587604051612c3e9190614041565b60006040518083038185875af1925050503d8060008114612c7b576040519150601f19603f3d011682016040523d82523d6000602084013e612c80565b606091505b5091509150612c9187838387612f7a565b979650505050505050565b600080612ca76115cd565b60048101546040805160c08101825289516020908101518101516001600160a01b03908116151583528b5151811691830191909152939450929091169163a015b63991810188612cf75786612d07565b60208a0151516001600160701b03165b81526020808201899052855461ffff6201000082048116604080860191909152600160201b909204811660609485015281516001600160e01b031960e088901b168152855115156004820152928501516001600160a01b0316602484015290840151604483015291830151606482015260808301518216608482015260a0909201511660a482015260c401602060405180830381865afa158015612daf573d6000803e3d6000fd5b505050506040513d601f19601f82011682018060405250810190612dd39190613e99565b9695505050505050565b600080612de86115cd565b8054909150600160301b90046001600160701b0316600003612e0d5750600092915050565b600181015460405163ce25cb4d60e01b81526000916001600160a01b03169063ce25cb4d90612e409087906004016130f5565b602060405180830381865afa158015612e5d573d6000803e3d6000fd5b505050506040513d601f19601f82011682018060405250810190612e819190613e99565b90506000846001600160a01b031663313ce5676040518163ffffffff1660e01b8152600401602060405180830381865afa158015612ec3573d6000803e3d6000fd5b505050506040513d601f19601f82011682018060405250810190612ee79190614053565b905060006c0c9f2c9cd04674edea400000008260ff16601203612f0b576001612f29565b670de0b6b3a7640000612f1f84600a614154565b612f29919061401f565b8554612f459190600160301b90046001600160701b0316614008565b612f4f9190614008565b9050612dd3838261401f565b610dc68363a9059cbb60e01b8484604051602401611c9c929190613f58565b60608315612fe9578251600003612fe2576001600160a01b0385163b612fe25760405162461bcd60e51b815260206004820152601d60248201527f416464726573733a2063616c6c20746f206e6f6e2d636f6e7472616374000000604482015260640161033d565b5081612375565b6123758383815115612ffe5781518083602001fd5b8060405162461bcd60e51b815260040161033d9190613f28565b60ff8116811461163457600080fd5b803561303281613018565b919050565b60006020828403121561304957600080fd5b813561242381613018565b803561ffff8116811461303257600080fd5b60006020828403121561307857600080fd5b61242382613054565b6000806020838503121561309457600080fd5b82356001600160401b03808211156130ab57600080fd5b818501915085601f8301126130bf57600080fd5b8135818111156130ce57600080fd5b8660208260051b85010111156130e357600080fd5b60209290920196919550909350505050565b6001600160a01b0391909116815260200190565b6000610120828403121561311c57600080fd5b50919050565b60006020828403121561313457600080fd5b81356001600160401b0381111561314a57600080fd5b61237584828501613109565b80356001600160701b038116811461303257600080fd5b60006020828403121561317f57600080fd5b61242382613156565b634e487b7160e01b600052604160045260246000fd5b60405161014081016001600160401b03811182821017156131c1576131c1613188565b60405290565b60405161018081016001600160401b03811182821017156131c1576131c1613188565b604080519081016001600160401b03811182821017156131c1576131c1613188565b604051608081016001600160401b03811182821017156131c1576131c1613188565b604051606081016001600160401b03811182821017156131c1576131c1613188565b604051601f8201601f191681016001600160401b038111828210171561327857613278613188565b604052919050565b6001600160a01b038116811461163457600080fd5b803561303281613280565b60006001600160401b038211156132b9576132b9613188565b5060051b60200190565b600082601f8301126132d457600080fd5b813560206132e96132e4836132a0565b613250565b82815260059290921b8401810191818101908684111561330857600080fd5b8286015b8481101561332c57803561331f81613280565b835291830191830161330c565b509695505050505050565b60006020828403121561334957600080fd5b81356001600160401b038082111561336057600080fd5b90830190610140828603121561337557600080fd5b61337d61319e565b61338683613027565b815261339460208401613054565b60208201526133a560408401613054565b60408201526133b660608401613295565b60608201526133c760808401613295565b60808201526133d860a08401613295565b60a08201526133e960c08401613295565b60c08201526133fa60e08401613295565b60e082015261010061340d818501613156565b90820152610120838101358381111561342557600080fd5b613431888287016132c3565b918301919091525095945050505050565b60006020828403121561345457600080fd5b81356001600160401b0381111561346a57600080fd5b820160c0818503121561242357600080fd5b801515811461163457600080fd5b80356130328161347c565b6000808284036101a08112156134aa57600080fd5b83356001600160401b038111156134c057600080fd5b6134cc86828701613109565b93505061018080601f19830112156134e357600080fd5b6134eb6131c7565b91506134f96020860161348a565b82526135076040860161348a565b6020830152606085013560408301526080850135606083015260a0850135608083015260c085013560a083015260e085013560c08301526101008086013560e08401526101208087013582850152610140915081870135818501525061016080870135828501528287013581850152505050809150509250929050565b805115158252602081015161359d602084018215159052565b5060408181015190830152606080820151908301526080808201519083015260a0808201519083015260c0808201519083015260e0808201519083015261010080820151908301526101208082015190830152610140808201519083015261016090810151910152565b61018081016113a08284613584565b60006020828403121561362857600080fd5b813561242381613280565b6020808252600c908201526b155b985d5d1a1bdc9a5e995960a21b604082015260600190565b634e487b7160e01b600052603260045260246000fd5b634e487b7160e01b600052601160045260246000fd5b6000600182016136975761369761366f565b5060010190565b6020808252601e908201527f436f6e7472616374206f7065726174696f6e7320617265207061757365640000604082015260600190565b808201808211156113a0576113a061366f565b818103818111156113a0576113a061366f565b6001600160701b0361370c82613156565b168252602081013561371d81613280565b6001600160a01b03166020929092019190915250565b6000808335601e1984360301811261374a57600080fd5b83016020810192503590506001600160401b0381111561376957600080fd5b8060051b360382131561377b57600080fd5b9250929050565b81835281816020850137506000828201602090810191909152601f909101601f19169091010190565b81835260006020808501808196508560051b810191508460005b878110156138925782840389528135609e198836030181126137e657600080fd5b870160a081356137f581613280565b6001600160a01b039081168752828801359061381082613280565b168688015260406138258188018483016136fb565b50608080830135601e1984360301811261383e57600080fd5b9092018781019290356001600160401b0381111561385b57600080fd5b80360384131561386a57600080fd5b828289015261387c8389018286613782565b9c89019c975050509286019250506001016137c5565b5091979650505050505050565b60006101a080835284356138b281613280565b6001600160a01b03818116928501929092526020860135916138d383613280565b9182166101c08501526040860135916138eb83613280565b919091166101e08401525060608401356102008301526139126102208301608086016136fb565b613923610260830160c086016136fb565b613931610100850185613733565b6101206102a08501526139496102c0850182846137ab565b925050506124236020830184613584565b80516130328161347c565b6000610180828403121561397857600080fd5b6139806131c7565b6139898361395a565b81526139976020840161395a565b602082015260408301516040820152606083015160608201526080830151608082015260a083015160a082015260c083015160c082015260e083015160e08201526101008084015181830152506101208084015181830152506101408084015181830152506101608084015181830152508091505092915050565b600060408284031215613a2457600080fd5b613a2c6131ea565b9050613a3782613156565b81526020820135613a4781613280565b602082015292915050565b6000613a606132e4846132a0565b8381529050602080820190600585901b840186811115613a7f57600080fd5b845b81811015613b7b5780356001600160401b0380821115613aa15760008081fd5b9087019060a0828b031215613ab65760008081fd5b613abe61320c565b8235613ac981613280565b815282860135613ad881613280565b818701526040613aea8c858301613a12565b90820152608083013582811115613b015760008081fd5b808401935050601f8b81850112613b185760008081fd5b833583811115613b2a57613b2a613188565b613b3b818301601f19168901613250565b93508084528c88828701011115613b5457600091508182fd5b80888601898601376000908401880152506060810191909152855250928201928201613a81565b505050509392505050565b600082601f830112613b9757600080fd5b61242383833560208501613a52565b6000813603610120811215613bba57600080fd5b613bc261320c565b6080821215613bd057600080fd5b613bd86131ea565b8435613be381613280565b81526060601f1984011215613bf757600080fd5b613bff61322e565b92506020850135613c0f81613280565b83526040850135613c1f81613280565b806020850152506060850135604084015282602082015280825250613c473660808601613a12565b6020820152613c593660c08601613a12565b604082015261010084013591506001600160401b03821115613c7a57600080fd5b613c8636838601613b86565b60608201529392505050565b600060408284031215613ca457600080fd5b6124238383613a12565b6000808335601e19843603018112613cc557600080fd5b8301803591506001600160401b03821115613cdf57600080fd5b6020019150600581901b360382131561377b57600080fd5b6000612423368484613a52565b80516001600160701b031682526020908101516001600160a01b0316910152565b60005b83811015613d40578181015183820152602001613d28565b50506000910152565b60008151808452613d61816020860160208601613d25565b601f01601f19169290920160200192915050565b600081518084526020808501808196508360051b8101915082860160005b85811015613892578284038952815180516001600160a01b03908116865286820151168686015260408082015160a09190613dd082890182613d04565b505060608201519150806080870152613deb81870183613d49565b9a87019a9550505090840190600101613d93565b6101a0808252835180516001600160a01b0390811692840192909252602090810151805183166101c0850152808201519092166101e0840152604090910151610200830152830151600090613e58610220840182613d04565b506040840151613e6c610260840182613d04565b5060608401516101206102a0840152613e896102c0840182613d75565b9150506124236020830184613584565b600060208284031215613eab57600080fd5b5051919050565b60008235609e19833603018112613ec857600080fd5b9190910192915050565b6000808335601e19843603018112613ee957600080fd5b8301803591506001600160401b03821115613f0357600080fd5b60200191503681900382131561377b57600080fd5b8183823760009101908152919050565b6020815260006124236020830184613d49565b600060208284031215613f4d57600080fd5b81516124238161347c565b6001600160a01b03929092168252602082015260400190565b608081526000613f846080830187613d49565b8560208401528281036040840152613f9c8186613d49565b91505082606083015295945050505050565b604081526000613fc16040830185613d49565b90508260208301529392505050565b6001600160a01b039384168152919092166020820152604081019190915260600190565b602081526000612420602083018486613782565b80820281158282048414176113a0576113a061366f565b60008261403c57634e487b7160e01b600052601260045260246000fd5b500490565b60008251613ec8818460208701613d25565b60006020828403121561406557600080fd5b815161242381613018565b600181815b808511156140ab5781600019048211156140915761409161366f565b8085161561409e57918102915b93841c9390800290614075565b509250929050565b6000826140c2575060016113a0565b816140cf575060006113a0565b81600181146140e557600281146140ef5761410b565b60019150506113a0565b60ff8411156141005761410061366f565b50506001821b6113a0565b5060208310610133831016604e8410600b841016171561412e575081810a6113a0565b6141388383614070565b806000190482111561414c5761414c61366f565b029392505050565b600061242360ff8416836140b356fe5472616e7366657272696e67207061727469616c20696e70757420746f6b656e20746f206465767465616d20666f72206661696c757265206761732066656573457374696d6174656420676173207573656420666f722074726164657220676173207061796d656e74547261646520746f6f20736d616c6c2e204368617267696e67206d696e696d756d20666c61742066656543616e6e6f74207265696d62757273652072656c61792073696e636520646f206e6f74206861766520656e6f7567682066756e647346656520746f6b656e206973206f75747075743b207468657265666f72652063616e6e6f74207265696d6275727365207465616d20666f72206661696c757265206761732066656573a2646970667358221220aa83bc1e4224b53720c61d163bdd5cf0098a573d20884d57fe70f6a833fb567664736f6c63430008110033",
  "linkReferences": {},
  "deployedLinkReferences": {}
}