{
  "_format": "hh-sol-artifact-1",
  "contractName": "Dexible",
  "sourceName": "contracts/dexible/Dexible.sol",
  "abi": [
    {
      "inputs": [
        {
          "components": [
            {
              "internalType": "uint8",
              "name": "revshareSplitRatio",
              "type": "uint8"
            },
            {
              "internalType": "uint16",
              "name": "stdBpsRate",
              "type": "uint16"
            },
            {
              "internalType": "uint16",
              "name": "minBpsRate",
              "type": "uint16"
            },
            {
              "internalType": "address",
              "name": "adminMultiSig",
              "type": "address"
            },
            {
              "internalType": "address",
              "name": "communityVault",
              "type": "address"
            },
            {
              "internalType": "address",
              "name": "treasury",
              "type": "address"
            },
            {
              "internalType": "address",
              "name": "dxblToken",
              "type": "address"
            },
            {
              "internalType": "address",
              "name": "arbGasOracle",
              "type": "address"
            },
            {
              "internalType": "uint112",
              "name": "minFeeUSD",
              "type": "uint112"
            },
            {
              "internalType": "address[]",
              "name": "initialRelays",
              "type": "address[]"
            }
          ],
          "internalType": "struct DexibleStorage.DexibleConfig",
          "name": "config",
          "type": "tuple"
        }
      ],
      "stateMutability": "nonpayable",
      "type": "constructor"
    },
    {
      "anonymous": false,
      "inputs": [
        {
          "indexed": true,
          "internalType": "address",
          "name": "affiliate",
          "type": "address"
        },
        {
          "indexed": false,
          "internalType": "address",
          "name": "token",
          "type": "address"
        },
        {
          "indexed": false,
          "internalType": "uint256",
          "name": "amount",
          "type": "uint256"
        }
      ],
      "name": "AffiliatePaid",
      "type": "event"
    },
    {
      "anonymous": false,
      "inputs": [
        {
          "indexed": false,
          "internalType": "address",
          "name": "newVault",
          "type": "address"
        }
      ],
      "name": "ArbGasOracleChanged",
      "type": "event"
    },
    {
      "anonymous": false,
      "inputs": [
        {
          "indexed": false,
          "internalType": "uint32",
          "name": "stdRate",
          "type": "uint32"
        },
        {
          "indexed": false,
          "internalType": "uint32",
          "name": "minRate",
          "type": "uint32"
        }
      ],
      "name": "ChangedBpsRates",
      "type": "event"
    },
    {
      "anonymous": false,
      "inputs": [
        {
          "indexed": false,
          "internalType": "uint8",
          "name": "split",
          "type": "uint8"
        }
      ],
      "name": "ChangedRevshareSplit",
      "type": "event"
    },
    {
      "anonymous": false,
      "inputs": [
        {
          "indexed": true,
          "internalType": "address",
          "name": "old",
          "type": "address"
        },
        {
          "indexed": true,
          "internalType": "address",
          "name": "newRevshare",
          "type": "address"
        }
      ],
      "name": "ChangedRevshareVault",
      "type": "event"
    },
    {
      "anonymous": false,
      "inputs": [
        {
          "indexed": true,
          "internalType": "address",
          "name": "relay",
          "type": "address"
        },
        {
          "indexed": false,
          "internalType": "uint256",
          "name": "amount",
          "type": "uint256"
        }
      ],
      "name": "InsufficientGasFunds",
      "type": "event"
    },
    {
      "anonymous": false,
      "inputs": [
        {
          "indexed": false,
          "internalType": "uint16",
          "name": "newRate",
          "type": "uint16"
        }
      ],
      "name": "MinBpsChanged",
      "type": "event"
    },
    {
      "anonymous": false,
      "inputs": [
        {
          "indexed": false,
          "internalType": "uint112",
          "name": "newMin",
          "type": "uint112"
        }
      ],
      "name": "MinFeeChanged",
      "type": "event"
    },
    {
      "anonymous": false,
      "inputs": [
        {
          "indexed": true,
          "internalType": "address",
          "name": "relay",
          "type": "address"
        },
        {
          "indexed": false,
          "internalType": "uint256",
          "name": "amount",
          "type": "uint256"
        }
      ],
      "name": "PaidGasFunds",
      "type": "event"
    },
    {
      "anonymous": false,
      "inputs": [],
      "name": "Paused",
      "type": "event"
    },
    {
      "anonymous": false,
      "inputs": [],
      "name": "Resumed",
      "type": "event"
    },
    {
      "anonymous": false,
      "inputs": [
        {
          "indexed": false,
          "internalType": "uint8",
          "name": "newRate",
          "type": "uint8"
        }
      ],
      "name": "SplitRatioChanged",
      "type": "event"
    },
    {
      "anonymous": false,
      "inputs": [
        {
          "indexed": false,
          "internalType": "uint16",
          "name": "newRate",
          "type": "uint16"
        }
      ],
      "name": "StdBpsChanged",
      "type": "event"
    },
    {
      "anonymous": false,
      "inputs": [
        {
          "indexed": true,
          "internalType": "address",
          "name": "trader",
          "type": "address"
        },
        {
          "indexed": false,
          "internalType": "address",
          "name": "feeToken",
          "type": "address"
        },
        {
          "indexed": false,
          "internalType": "uint256",
          "name": "gasFeePaid",
          "type": "uint256"
        }
      ],
      "name": "SwapFailed",
      "type": "event"
    },
    {
      "anonymous": false,
      "inputs": [
        {
          "indexed": true,
          "internalType": "address",
          "name": "trader",
          "type": "address"
        },
        {
          "indexed": true,
          "internalType": "address",
          "name": "affiliate",
          "type": "address"
        },
        {
          "indexed": false,
          "internalType": "uint256",
          "name": "inputAmount",
          "type": "uint256"
        },
        {
          "indexed": false,
          "internalType": "uint256",
          "name": "outputAmount",
          "type": "uint256"
        },
        {
          "indexed": false,
          "internalType": "address",
          "name": "feeToken",
          "type": "address"
        },
        {
          "indexed": false,
          "internalType": "uint256",
          "name": "gasFee",
          "type": "uint256"
        },
        {
          "indexed": false,
          "internalType": "uint256",
          "name": "affiliateFee",
          "type": "uint256"
        },
        {
          "indexed": false,
          "internalType": "uint256",
          "name": "dexibleFee",
          "type": "uint256"
        }
      ],
      "name": "SwapSuccess",
      "type": "event"
    },
    {
      "anonymous": false,
      "inputs": [
        {
          "indexed": false,
          "internalType": "address",
          "name": "newTreasury",
          "type": "address"
        }
      ],
      "name": "TreasuryChanged",
      "type": "event"
    },
    {
      "anonymous": false,
      "inputs": [
        {
          "indexed": false,
          "internalType": "address",
          "name": "newVault",
          "type": "address"
        }
      ],
      "name": "VaultChanged",
      "type": "event"
    },
    {
      "inputs": [
        {
          "internalType": "address[]",
          "name": "relays",
          "type": "address[]"
        }
      ],
      "name": "addRelays",
      "outputs": [],
      "stateMutability": "nonpayable",
      "type": "function"
    },
    {
      "inputs": [],
      "name": "adminMultiSig",
      "outputs": [
        {
          "internalType": "address",
          "name": "",
          "type": "address"
        }
      ],
      "stateMutability": "view",
      "type": "function"
    },
    {
      "inputs": [],
      "name": "arbitrumGasOracle",
      "outputs": [
        {
          "internalType": "address",
          "name": "",
          "type": "address"
        }
      ],
      "stateMutability": "view",
      "type": "function"
    },
    {
      "inputs": [],
      "name": "communityVault",
      "outputs": [
        {
          "internalType": "address",
          "name": "",
          "type": "address"
        }
      ],
      "stateMutability": "view",
      "type": "function"
    },
    {
      "inputs": [
        {
          "components": [
            {
              "internalType": "uint8",
              "name": "revshareSplitRatio",
              "type": "uint8"
            },
            {
              "internalType": "uint16",
              "name": "stdBpsRate",
              "type": "uint16"
            },
            {
              "internalType": "uint16",
              "name": "minBpsRate",
              "type": "uint16"
            },
            {
              "internalType": "address",
              "name": "adminMultiSig",
              "type": "address"
            },
            {
              "internalType": "address",
              "name": "communityVault",
              "type": "address"
            },
            {
              "internalType": "address",
              "name": "treasury",
              "type": "address"
            },
            {
              "internalType": "address",
              "name": "dxblToken",
              "type": "address"
            },
            {
              "internalType": "address",
              "name": "arbGasOracle",
              "type": "address"
            },
            {
              "internalType": "uint112",
              "name": "minFeeUSD",
              "type": "uint112"
            },
            {
              "internalType": "address[]",
              "name": "initialRelays",
              "type": "address[]"
            }
          ],
          "internalType": "struct DexibleStorage.DexibleConfig",
          "name": "config",
          "type": "tuple"
        }
      ],
      "name": "configure",
      "outputs": [],
      "stateMutability": "nonpayable",
      "type": "function"
    },
    {
      "inputs": [],
      "name": "dxblToken",
      "outputs": [
        {
          "internalType": "address",
          "name": "",
          "type": "address"
        }
      ],
      "stateMutability": "view",
      "type": "function"
    },
    {
      "inputs": [
        {
          "components": [
            {
              "components": [
                {
                  "internalType": "address",
                  "name": "requester",
                  "type": "address"
                },
                {
                  "components": [
                    {
                      "internalType": "contract IERC20",
                      "name": "feeToken",
                      "type": "address"
                    },
                    {
                      "internalType": "address",
                      "name": "affiliate",
                      "type": "address"
                    },
                    {
                      "internalType": "uint256",
                      "name": "affiliatePortion",
                      "type": "uint256"
                    }
                  ],
                  "internalType": "struct ExecutionTypes.FeeDetails",
                  "name": "fee",
                  "type": "tuple"
                }
              ],
              "internalType": "struct ExecutionTypes.ExecutionRequest",
              "name": "executionRequest",
              "type": "tuple"
            },
            {
              "components": [
                {
                  "internalType": "uint112",
                  "name": "amount",
                  "type": "uint112"
                },
                {
                  "internalType": "contract IERC20",
                  "name": "token",
                  "type": "address"
                }
              ],
              "internalType": "struct TokenTypes.TokenAmount",
              "name": "tokenIn",
              "type": "tuple"
            },
            {
              "components": [
                {
                  "internalType": "uint112",
                  "name": "amount",
                  "type": "uint112"
                },
                {
                  "internalType": "contract IERC20",
                  "name": "token",
                  "type": "address"
                }
              ],
              "internalType": "struct TokenTypes.TokenAmount",
              "name": "tokenOut",
              "type": "tuple"
            },
            {
              "components": [
                {
                  "internalType": "address",
                  "name": "router",
                  "type": "address"
                },
                {
                  "internalType": "address",
                  "name": "spender",
                  "type": "address"
                },
                {
                  "components": [
                    {
                      "internalType": "uint112",
                      "name": "amount",
                      "type": "uint112"
                    },
                    {
                      "internalType": "contract IERC20",
                      "name": "token",
                      "type": "address"
                    }
                  ],
                  "internalType": "struct TokenTypes.TokenAmount",
                  "name": "routeAmount",
                  "type": "tuple"
                },
                {
                  "internalType": "bytes",
                  "name": "routerData",
                  "type": "bytes"
                }
              ],
              "internalType": "struct SwapTypes.RouterRequest[]",
              "name": "routes",
              "type": "tuple[]"
            }
          ],
          "internalType": "struct SwapTypes.SwapRequest",
          "name": "request",
          "type": "tuple"
        },
        {
          "components": [
            {
              "internalType": "bool",
              "name": "feeIsInput",
              "type": "bool"
            },
            {
              "internalType": "bool",
              "name": "isSelfSwap",
              "type": "bool"
            },
            {
              "internalType": "address",
              "name": "preSwapVault",
              "type": "address"
            },
            {
              "internalType": "uint256",
              "name": "startGas",
              "type": "uint256"
            },
            {
              "internalType": "uint256",
              "name": "toProtocol",
              "type": "uint256"
            },
            {
              "internalType": "uint256",
              "name": "toRevshare",
              "type": "uint256"
            },
            {
              "internalType": "uint256",
              "name": "outToTrader",
              "type": "uint256"
            },
            {
              "internalType": "uint256",
              "name": "outAmount",
              "type": "uint256"
            },
            {
              "internalType": "uint256",
              "name": "bpsAmount",
              "type": "uint256"
            },
            {
              "internalType": "uint256",
              "name": "gasAmount",
              "type": "uint256"
            },
            {
              "internalType": "uint256",
              "name": "nativeGasAmount",
              "type": "uint256"
            },
            {
              "internalType": "uint256",
              "name": "preDXBLBalance",
              "type": "uint256"
            },
            {
              "internalType": "uint256",
              "name": "remainingInBalance",
              "type": "uint256"
            }
          ],
          "internalType": "struct SwapHandler.SwapMeta",
          "name": "meta",
          "type": "tuple"
        }
      ],
      "name": "fill",
      "outputs": [
        {
          "components": [
            {
              "internalType": "bool",
              "name": "feeIsInput",
              "type": "bool"
            },
            {
              "internalType": "bool",
              "name": "isSelfSwap",
              "type": "bool"
            },
            {
              "internalType": "address",
              "name": "preSwapVault",
              "type": "address"
            },
            {
              "internalType": "uint256",
              "name": "startGas",
              "type": "uint256"
            },
            {
              "internalType": "uint256",
              "name": "toProtocol",
              "type": "uint256"
            },
            {
              "internalType": "uint256",
              "name": "toRevshare",
              "type": "uint256"
            },
            {
              "internalType": "uint256",
              "name": "outToTrader",
              "type": "uint256"
            },
            {
              "internalType": "uint256",
              "name": "outAmount",
              "type": "uint256"
            },
            {
              "internalType": "uint256",
              "name": "bpsAmount",
              "type": "uint256"
            },
            {
              "internalType": "uint256",
              "name": "gasAmount",
              "type": "uint256"
            },
            {
              "internalType": "uint256",
              "name": "nativeGasAmount",
              "type": "uint256"
            },
            {
              "internalType": "uint256",
              "name": "preDXBLBalance",
              "type": "uint256"
            },
            {
              "internalType": "uint256",
              "name": "remainingInBalance",
              "type": "uint256"
            }
          ],
          "internalType": "struct SwapHandler.SwapMeta",
          "name": "",
          "type": "tuple"
        }
      ],
      "stateMutability": "nonpayable",
      "type": "function"
    },
    {
      "inputs": [],
      "name": "minBpsRate",
      "outputs": [
        {
          "internalType": "uint16",
          "name": "",
          "type": "uint16"
        }
      ],
      "stateMutability": "view",
      "type": "function"
    },
    {
      "inputs": [],
      "name": "minFeeUSD",
      "outputs": [
        {
          "internalType": "uint112",
          "name": "",
          "type": "uint112"
        }
      ],
      "stateMutability": "view",
      "type": "function"
    },
    {
      "inputs": [],
      "name": "pause",
      "outputs": [],
      "stateMutability": "nonpayable",
      "type": "function"
    },
    {
      "inputs": [
        {
          "internalType": "address",
          "name": "relay",
          "type": "address"
        }
      ],
      "name": "removeRelay",
      "outputs": [],
      "stateMutability": "nonpayable",
      "type": "function"
    },
    {
      "inputs": [],
      "name": "resume",
      "outputs": [],
      "stateMutability": "nonpayable",
      "type": "function"
    },
    {
      "inputs": [],
      "name": "revshareSplitRatio",
      "outputs": [
        {
          "internalType": "uint8",
          "name": "",
          "type": "uint8"
        }
      ],
      "stateMutability": "view",
      "type": "function"
    },
    {
      "inputs": [
        {
          "components": [
            {
              "internalType": "contract IERC20",
              "name": "feeToken",
              "type": "address"
            },
            {
              "components": [
                {
                  "internalType": "uint112",
                  "name": "amount",
                  "type": "uint112"
                },
                {
                  "internalType": "contract IERC20",
                  "name": "token",
                  "type": "address"
                }
              ],
              "internalType": "struct TokenTypes.TokenAmount",
              "name": "tokenIn",
              "type": "tuple"
            },
            {
              "components": [
                {
                  "internalType": "uint112",
                  "name": "amount",
                  "type": "uint112"
                },
                {
                  "internalType": "contract IERC20",
                  "name": "token",
                  "type": "address"
                }
              ],
              "internalType": "struct TokenTypes.TokenAmount",
              "name": "tokenOut",
              "type": "tuple"
            },
            {
              "components": [
                {
                  "internalType": "address",
                  "name": "router",
                  "type": "address"
                },
                {
                  "internalType": "address",
                  "name": "spender",
                  "type": "address"
                },
                {
                  "components": [
                    {
                      "internalType": "uint112",
                      "name": "amount",
                      "type": "uint112"
                    },
                    {
                      "internalType": "contract IERC20",
                      "name": "token",
                      "type": "address"
                    }
                  ],
                  "internalType": "struct TokenTypes.TokenAmount",
                  "name": "routeAmount",
                  "type": "tuple"
                },
                {
                  "internalType": "bytes",
                  "name": "routerData",
                  "type": "bytes"
                }
              ],
              "internalType": "struct SwapTypes.RouterRequest[]",
              "name": "routes",
              "type": "tuple[]"
            }
          ],
          "internalType": "struct SwapTypes.SelfSwap",
          "name": "request",
          "type": "tuple"
        }
      ],
      "name": "selfSwap",
      "outputs": [],
      "stateMutability": "nonpayable",
      "type": "function"
    },
    {
      "inputs": [
        {
          "internalType": "contract IArbitrumGasOracle",
          "name": "oracle",
          "type": "address"
        }
      ],
      "name": "setArbitrumGasOracle",
      "outputs": [],
      "stateMutability": "nonpayable",
      "type": "function"
    },
    {
      "inputs": [
        {
          "internalType": "contract ICommunityVault",
          "name": "vault",
          "type": "address"
        }
      ],
      "name": "setCommunityVault",
      "outputs": [],
      "stateMutability": "nonpayable",
      "type": "function"
    },
    {
      "inputs": [
        {
          "internalType": "uint16",
          "name": "bps",
          "type": "uint16"
        }
      ],
      "name": "setMinBpsRate",
      "outputs": [],
      "stateMutability": "nonpayable",
      "type": "function"
    },
    {
      "inputs": [
        {
          "internalType": "uint112",
          "name": "minFee",
          "type": "uint112"
        }
      ],
      "name": "setMinFeeUSD",
      "outputs": [],
      "stateMutability": "nonpayable",
      "type": "function"
    },
    {
      "inputs": [
        {
          "internalType": "uint8",
          "name": "bps",
          "type": "uint8"
        }
      ],
      "name": "setRevshareSplitRatio",
      "outputs": [],
      "stateMutability": "nonpayable",
      "type": "function"
    },
    {
      "inputs": [
        {
          "internalType": "uint16",
          "name": "bps",
          "type": "uint16"
        }
      ],
      "name": "setStdBpsRate",
      "outputs": [],
      "stateMutability": "nonpayable",
      "type": "function"
    },
    {
      "inputs": [
        {
          "internalType": "address",
          "name": "t",
          "type": "address"
        }
      ],
      "name": "setTreasury",
      "outputs": [],
      "stateMutability": "nonpayable",
      "type": "function"
    },
    {
      "inputs": [],
      "name": "stdBpsRate",
      "outputs": [
        {
          "internalType": "uint16",
          "name": "",
          "type": "uint16"
        }
      ],
      "stateMutability": "view",
      "type": "function"
    },
    {
      "inputs": [
        {
          "components": [
            {
              "components": [
                {
                  "internalType": "address",
                  "name": "requester",
                  "type": "address"
                },
                {
                  "components": [
                    {
                      "internalType": "contract IERC20",
                      "name": "feeToken",
                      "type": "address"
                    },
                    {
                      "internalType": "address",
                      "name": "affiliate",
                      "type": "address"
                    },
                    {
                      "internalType": "uint256",
                      "name": "affiliatePortion",
                      "type": "uint256"
                    }
                  ],
                  "internalType": "struct ExecutionTypes.FeeDetails",
                  "name": "fee",
                  "type": "tuple"
                }
              ],
              "internalType": "struct ExecutionTypes.ExecutionRequest",
              "name": "executionRequest",
              "type": "tuple"
            },
            {
              "components": [
                {
                  "internalType": "uint112",
                  "name": "amount",
                  "type": "uint112"
                },
                {
                  "internalType": "contract IERC20",
                  "name": "token",
                  "type": "address"
                }
              ],
              "internalType": "struct TokenTypes.TokenAmount",
              "name": "tokenIn",
              "type": "tuple"
            },
            {
              "components": [
                {
                  "internalType": "uint112",
                  "name": "amount",
                  "type": "uint112"
                },
                {
                  "internalType": "contract IERC20",
                  "name": "token",
                  "type": "address"
                }
              ],
              "internalType": "struct TokenTypes.TokenAmount",
              "name": "tokenOut",
              "type": "tuple"
            },
            {
              "components": [
                {
                  "internalType": "address",
                  "name": "router",
                  "type": "address"
                },
                {
                  "internalType": "address",
                  "name": "spender",
                  "type": "address"
                },
                {
                  "components": [
                    {
                      "internalType": "uint112",
                      "name": "amount",
                      "type": "uint112"
                    },
                    {
                      "internalType": "contract IERC20",
                      "name": "token",
                      "type": "address"
                    }
                  ],
                  "internalType": "struct TokenTypes.TokenAmount",
                  "name": "routeAmount",
                  "type": "tuple"
                },
                {
                  "internalType": "bytes",
                  "name": "routerData",
                  "type": "bytes"
                }
              ],
              "internalType": "struct SwapTypes.RouterRequest[]",
              "name": "routes",
              "type": "tuple[]"
            }
          ],
          "internalType": "struct SwapTypes.SwapRequest",
          "name": "request",
          "type": "tuple"
        }
      ],
      "name": "swap",
      "outputs": [],
      "stateMutability": "nonpayable",
      "type": "function"
    },
    {
      "inputs": [],
      "name": "treasury",
      "outputs": [
        {
          "internalType": "address",
          "name": "",
          "type": "address"
        }
      ],
      "stateMutability": "view",
      "type": "function"
    }
  ],
  "bytecode": "0x60806040523480156200001157600080fd5b5060405162004b6438038062004b64833981016040819052620000349162000632565b6200003f8162000046565b5062000795565b60006200005d620004c560201b620016641760201c565b60038101549091506001600160a01b031615620000c55760038101546001600160a01b03163314620000c55760405162461bcd60e51b815260206004820152600c60248201526b155b985d5d1a1bdc9a5e995960a21b60448201526064015b60405180910390fd5b60808201516001600160a01b0316620001215760405162461bcd60e51b815260206004820152601e60248201527f496e76616c696420436f6d6d756e6974795661756c74206164647265737300006044820152606401620000bc565b60a08201516001600160a01b0316620001705760405162461bcd60e51b815260206004820152601060248201526f496e76616c696420747265617375727960801b6044820152606401620000bc565b60c08201516001600160a01b0316620001cc5760405162461bcd60e51b815260206004820152601a60248201527f496e76616c6964204458424c20746f6b656e20616464726573730000000000006044820152606401620000bc565b815160ff166200021f5760405162461bcd60e51b815260206004820152601c60248201527f496e76616c69642072657673686172652073706c697420726174696f000000006044820152606401620000bc565b6000826020015161ffff1611620002855760405162461bcd60e51b8152602060048201526024808201527f4d7573742070726f766964652061207374616e646172642062707320666565206044820152637261746560e01b6064820152608401620000bc565b6000826040015161ffff1611620002df5760405162461bcd60e51b815260206004820152601660248201527f6d696e42707352617465206973207265717569726564000000000000000000006044820152606401620000bc565b816020015161ffff16826040015161ffff16106200034b5760405162461bcd60e51b815260206004820152602260248201527f4d696e206270732072617465206d757374206265206c657373207468616e20736044820152611d1960f21b6064820152608401620000bc565b60608201516003820180546001600160a01b03199081166001600160a01b0393841617909155835183546080860151600186018054851691861691909117905560a0860151600286018054851691861691909117905560c08601516004860180548516918616919091179055602086015160408701516101008089015163ffffff001990941660ff9095160263ffff00001916939093176201000061ffff9283160217600160201b600160a01b0319166401000000009190931602600160301b600160a01b0319169190911766010000000000006001600160701b039092169190910217835560e0840151600584018054909216921691909117905560005b82610120015151811015620004c057600182600601600085610120015184815181106200047b576200047b62000757565b6020908102919091018101516001600160a01b03168252810191909152604001600020805460ff1916911515919091179055620004b8816200076d565b90506200044a565b505050565b7f949817a987a8e038ef345d3c9d4fd28e49d8e4e09456e57c05a8b2ce2e62866c90565b634e487b7160e01b600052604160045260246000fd5b60405161014081016001600160401b0381118282101715620005255762000525620004e9565b60405290565b805160ff811681146200053d57600080fd5b919050565b805161ffff811681146200053d57600080fd5b80516001600160a01b03811681146200053d57600080fd5b80516001600160701b03811681146200053d57600080fd5b600082601f8301126200059757600080fd5b815160206001600160401b0380831115620005b657620005b6620004e9565b8260051b604051601f19603f83011681018181108482111715620005de57620005de620004e9565b604052938452858101830193838101925087851115620005fd57600080fd5b83870191505b848210156200062757620006178262000555565b8352918301919083019062000603565b979650505050505050565b6000602082840312156200064557600080fd5b81516001600160401b03808211156200065d57600080fd5b9083019061014082860312156200067357600080fd5b6200067d620004ff565b62000688836200052b565b8152620006986020840162000542565b6020820152620006ab6040840162000542565b6040820152620006be6060840162000555565b6060820152620006d16080840162000555565b6080820152620006e460a0840162000555565b60a0820152620006f760c0840162000555565b60c08201526200070a60e0840162000555565b60e08201526101006200071f8185016200056d565b9082015261012083810151838111156200073857600080fd5b620007468882870162000585565b918301919091525095945050505050565b634e487b7160e01b600052603260045260246000fd5b6000600182016200078e57634e487b7160e01b600052601160045260246000fd5b5060010190565b6143bf80620007a56000396000f3fe608060405234801561001057600080fd5b50600436106101585760003560e01c806361d027b3116100c3578063c3d718a41161007c578063c3d718a4146102a7578063cd151e9a146102ba578063d8544cf3146102cd578063dd81eb98146102e0578063f0f44260146102e8578063f3390c3a146102fb57600080fd5b806361d027b31461026157806376a13636146102695780638456cb59146102715780638c47ea8e14610279578063bb4712341461028c578063bb6f0ece1461029457600080fd5b806345c6a8741161011557806345c6a874146101e45780634e0bb8cc146101f957806352ac86161461021957806353e97868146102335780635d745b8f1461023b578063602dd0261461024e57600080fd5b8063046f7da21461015d5780631725d82f1461016757806324b40c921461017a5780633564209b1461018d578063370fb45b146101b657806340d925b1146101d1575b600080fd5b61016561030e565b005b610165610175366004613104565b61038e565b610165610188366004613133565b610416565b6101a061019b366004613298565b61049e565b6040516101ad919061343a565b60405180910390f35b6101be6108e1565b60405161ffff90911681526020016101ad565b6101656101df366004613449565b6108fc565b6101ec6109b3565b6040516101ad91906134bd565b6102016109cf565b6040516001600160701b0390911681526020016101ad565b6102216109ef565b60405160ff90911681526020016101ad565b6101ec610a07565b610165610249366004613133565b610a23565b61016561025c3660046134d1565b610aa8565b6101ec610cb3565b6101ec610ccf565b610165610ceb565b61016561028736600461351c565b610d62565b6101be610df3565b6101656102a23660046135ce565b610e0d565b6101656102b53660046136d9565b61123a565b6101656102c8366004613713565b611401565b6101656102db366004613713565b611465565b6101ec61152e565b6101656102f6366004613713565b61154a565b610165610309366004613713565b6115d7565b610316611664565b600301546001600160a01b0316331461034a5760405162461bcd60e51b815260040161034190613730565b60405180910390fd5b6000610354611664565b805460ff19169115159190911790556040517f62451d457bc659158be6e6247f56ec1df424a5c7597f71c20c2bc44e0965c8f990600090a1565b610396611664565b600301546001600160a01b031633146103c15760405162461bcd60e51b815260040161034190613730565b806103ca611664565b805461ff00191661010060ff9384160217905560405190821681527fc08e3d70cd07fcbefc6065b4c1de14af045aef558d499e3d132d6b9aa13fdc4c906020015b60405180910390a150565b61041e611664565b600301546001600160a01b031633146104495760405162461bcd60e51b815260040161034190613730565b80610452611664565b805465ffff000000001916600160201b61ffff9384160217905560405190821681527f0cc243ac5a88993148aefaa9f320f7d51555727982cb97b5502e4de3a296ff509060200161040b565b610516604051806101a0016040528060001515815260200160001515815260200160006001600160a01b03168152602001600081526020016000815260200160008152602001600081526020016000815260200160008152602001600081526020016000815260200160008152602001600081525090565b3330146105655760405162461bcd60e51b815260206004820152601d60248201527f4f6e6c7920616c6c6f77656420617320696e7465726e616c2063616c6c0000006044820152606401610341565b61056f8383611688565b610580610100840160e08501613713565b6001600160a01b03166370a08231306040518263ffffffff1660e01b81526004016105ab91906134bd565b602060405180830381865afa1580156105c8573d6000803e3d6000fd5b505050506040513d601f19601f820116820180604052508101906105ec9190613756565b60e083015260005b61060261010085018561376f565b9050811015610754573661061a61010086018661376f565b8381811061062a5761062a6137bf565b905060200281019061063c91906137d5565b905061068a6106516040830160208401613713565b610661606084016040850161351c565b6001600160701b031661067a6080850160608601613713565b6001600160a01b03169190611aa1565b60006106996020830183613713565b6001600160a01b03166106af60808401846137f5565b6040516106bd92919061383b565b6000604051808303816000865af19150503d80600081146106fa576040519150601f19603f3d011682016040523d82523d6000602084013e6106ff565b606091505b50509050806107415760405162461bcd60e51b815260206004820152600e60248201526d04661696c656420746f20737761760941b6044820152606401610341565b50508061074d90613861565b90506105f4565b506000610768610100850160e08601613713565b6001600160a01b03166370a08231306040518263ffffffff1660e01b815260040161079391906134bd565b602060405180830381865afa1580156107b0573d6000803e3d6000fd5b505050506040513d601f19601f820116820180604052508101906107d49190613756565b9050808360e0015110156107fb5760e08301516107f1908261387a565b60e0840152610803565b600060e08401525b604080518082019091526008815267115e1c1958dd195960c21b602082015261086a9061083660e0870160c0880161351c565b6001600160701b031660405180604001604052806008815260200167149958d95a5d995960c21b8152508660e00151611bdc565b61087a60e0850160c0860161351c565b6001600160701b03168360e0015110156108d65760405162461bcd60e51b815260206004820152601d60248201527f496e73756666696369656e74206f75747075742067656e6572617465640000006044820152606401610341565b829150505b92915050565b60006108eb611664565b54600160201b900461ffff16919050565b610904611664565b600301546001600160a01b0316331461092f5760405162461bcd60e51b815260040161034190613730565b6000610939611664565b905060005b828110156109ad576001826006016000868685818110610960576109606137bf565b90506020020160208101906109759190613713565b6001600160a01b031681526020810191909152604001600020805460ff19169115159190911790556109a681613861565b905061093e565b50505050565b60006109bd611664565b600301546001600160a01b0316919050565b60006109d9611664565b54600160301b90046001600160701b0316919050565b60006109f9611664565b54610100900460ff16919050565b6000610a11611664565b600101546001600160a01b0316919050565b610a2b611664565b600301546001600160a01b03163314610a565760405162461bcd60e51b815260040161034190613730565b80610a5f611664565b805463ffff000019166201000061ffff9384160217905560405190821681527f3c690423f2b4874693fa467d54b9a22ce2469d86d3ea9a48aabb8479ee5fde9d9060200161040b565b6000610ab2611664565b33600090815260068201602052604090205490915060ff16610b165760405162461bcd60e51b815260206004820152601a60248201527f4f6e6c792072656c617920616c6c6f77656420746f2063616c6c0000000000006044820152606401610341565b610b1e611664565b5460ff1615610b3f5760405162461bcd60e51b81526004016103419061388d565b6000619c405a610b4f91906138c4565b604080516101a081018252600080825260208201819052929350908101610b74611664565b60010160009054906101000a90046001600160a01b03166001600160a01b031681526020018381526020016000815260200160008152602001600081526020016000815260200160008152602001600081526020016000815260200160008152602001600081525090506000306001600160a01b0316633564209b620138805a610bfe919061387a565b87856040518463ffffffff1660e01b8152600401610c1d929190613a74565b6101a06040518083038160008887f193505050508015610c5a575060408051601f3d908101601f19168201909252610c5791810190613b45565b60015b610c9257610c8a6040518060400160405280600b81526020016a14ddd85c0819985a5b195960aa1b815250611c25565b506000610c99565b9150600190505b610cac610ca586613d93565b8383611c6b565b5050505050565b6000610cbd611664565b600201546001600160a01b0316919050565b6000610cd9611664565b600501546001600160a01b0316919050565b610cf3611664565b600301546001600160a01b03163314610d1e5760405162461bcd60e51b815260040161034190613730565b6001610d28611664565b805460ff19169115159190911790556040517f9e87fac88ff661f02d44f95383c817fece4bce600a3dab7a54406878b965e75290600090a1565b610d6a611664565b600301546001600160a01b03163314610d955760405162461bcd60e51b815260040161034190613730565b80610d9e611664565b8054600160301b600160a01b031916600160301b6001600160701b039384160217905560405190821681527f835b0e394b56439e2901706b3c67fcb1abcd7219c10b4010eb396ab636218ffc9060200161040b565b6000610dfd611664565b5462010000900461ffff16919050565b6000610e17611664565b60038101549091506001600160a01b031615610e595760038101546001600160a01b03163314610e595760405162461bcd60e51b815260040161034190613730565b60808201516001600160a01b0316610eb35760405162461bcd60e51b815260206004820152601e60248201527f496e76616c696420436f6d6d756e6974795661756c74206164647265737300006044820152606401610341565b60a08201516001600160a01b0316610f005760405162461bcd60e51b815260206004820152601060248201526f496e76616c696420747265617375727960801b6044820152606401610341565b60c08201516001600160a01b0316610f5a5760405162461bcd60e51b815260206004820152601a60248201527f496e76616c6964204458424c20746f6b656e20616464726573730000000000006044820152606401610341565b815160ff16610fab5760405162461bcd60e51b815260206004820152601c60248201527f496e76616c69642072657673686172652073706c697420726174696f000000006044820152606401610341565b6000826020015161ffff161161100f5760405162461bcd60e51b8152602060048201526024808201527f4d7573742070726f766964652061207374616e646172642062707320666565206044820152637261746560e01b6064820152608401610341565b6000826040015161ffff16116110605760405162461bcd60e51b81526020600482015260166024820152751b5a5b909c1cd4985d19481a5cc81c995c5d5a5c995960521b6044820152606401610341565b816020015161ffff16826040015161ffff16106110ca5760405162461bcd60e51b815260206004820152602260248201527f4d696e206270732072617465206d757374206265206c657373207468616e20736044820152611d1960f21b6064820152608401610341565b60608201516003820180546001600160a01b03199081166001600160a01b0393841617909155835183546080860151600186018054851691861691909117905560a0860151600286018054851691861691909117905560c08601516004860180548516918616919091179055602086015160408701516101008089015163ffffff001990941660ff9095160263ffff00001916939093176201000061ffff9283160217640100000000600160a01b031916600160201b9190931602600160301b600160a01b03191691909117600160301b6001600160701b039092169190910217835560e0840151600584018054909216921691909117905560005b8261012001515181101561123557600182600601600085610120015184815181106111f3576111f36137bf565b6020908102919091018101516001600160a01b03168252810191909152604001600020805460ff191691151591909117905561122e81613861565b90506111c6565b505050565b611242611664565b5460ff16156112635760405162461bcd60e51b81526004016103419061388d565b6040805160c081018252336080820190815282516060810190935260009282919060a0830190806112976020890189613713565b6001600160a01b0316815260200160006001600160a01b0316815260200160008152508152508152602001836020018036038101906112d69190613e7f565b81526020016112ed36859003850160608601613e7f565b81526020016112ff60a085018561376f565b61130891613e9b565b9052604080516101a08101825260008082526001602083015292935090810161132f611664565b600101546001600160a01b031681526000602082018190526040808301829052606083018290526080830182905260a0830182905260c0830182905260e08301829052610100830182905261012083018290526101409092015251633564209b60e01b81529091503090633564209b906113af9085908590600401613fa3565b6101a0604051808303816000875af11580156113cf573d6000803e3d6000fd5b505050506040513d601f19601f820116820180604052508101906113f39190613b45565b905061123582826001611c6b565b611409611664565b600301546001600160a01b031633146114345760405162461bcd60e51b815260040161034190613730565b600061143e611664565b6001600160a01b03909216600090815260069092016020525060409020805460ff19169055565b61146d611664565b600101546001600160a01b031633146114d45760405162461bcd60e51b8152602060048201526024808201527f4f6e6c79207661756c742063616e206578656375746520746869732066756e636044820152633a34b7b760e11b6064820152608401610341565b806114dd611664565b60010180546001600160a01b0319166001600160a01b03929092169190911790556040517fa49691f0dd6477ccef49962612a236d252e3a31c3be8b61fa6abeff3e74a75729061040b9083906134bd565b6000611538611664565b600401546001600160a01b0316919050565b611552611664565b600301546001600160a01b0316331461157d5760405162461bcd60e51b815260040161034190613730565b80611586611664565b60020180546001600160a01b0319166001600160a01b03929092169190911790556040517fc714d22a2f08b695f81e7c707058db484aa5b4d6b4c9fd64beb10fe85832f6089061040b9083906134bd565b6115df611664565b600301546001600160a01b0316331461160a5760405162461bcd60e51b815260040161034190613730565b80611613611664565b60050180546001600160a01b0319166001600160a01b03929092169190911790556040517fa6185880f040ba1584f7e109a3be5b1c01a3d3855eb518cc0ff6f12b5ba5e70b9061040b9083906134bd565b7f949817a987a8e038ef345d3c9d4fd28e49d8e4e09456e57c05a8b2ce2e62866c90565b600061169a6040840160208501613713565b905060006116a6611664565b6001810154604051630ba408e360e31b81529192506000916001600160a01b0390911690635d204718906116de9086906004016134bd565b602060405180830381865afa1580156116fb573d6000803e3d6000fd5b505050506040513d601f19601f8201168201806040525081019061171f919061403d565b9050806117695760405162461bcd60e51b8152602060048201526018602482015277119959481d1bdad95b881a5cc81b9bdd08185b1b1bddd95960421b6044820152606401610341565b61177960c0860160a08701613713565b6001600160a01b0316836001600160a01b031614806117b957506117a4610100860160e08701613713565b6001600160a01b0316836001600160a01b0316145b6118155760405162461bcd60e51b815260206004820152602760248201527f46656520746f6b656e206d75737420626520696e707574206f72206f757470756044820152663a103a37b5b2b760c91b6064820152608401610341565b60048201546001600160a01b03166370a082316118356020880188613713565b6040518263ffffffff1660e01b815260040161185191906134bd565b602060405180830381865afa15801561186e573d6000803e3d6000fd5b505050506040513d601f19601f820116820180604052508101906118929190613756565b6101608501526118a86040860160208701613713565b6001600160a01b03166118c160c0870160a08801613713565b6001600160a01b0316148085521561199d576118e161010086018661376f565b60008181106118f2576118f26137bf565b905060200281019061190491906137d5565b61191590606081019060400161351c565b6001600160701b031661192e60a087016080880161351c565b6001600160701b03161161199d5760405162461bcd60e51b815260206004820152603060248201527f496e7075742066656520746f6b656e20616d6f756e7420646f6573206e6f742060448201526f6163636f756e7420666f72206665657360801b6064820152608401610341565b60408051808201909152601e81527f5472616e73666572696e6720696e70757420666f722074726164696e673a000060208201526119f3906119e560a088016080890161351c565b6001600160701b0316611db3565b611a3e611a036020870187613713565b30611a1460a0890160808a0161351c565b6001600160701b0316611a2d60c08a0160a08b01613713565b6001600160a01b0316929190611dfc565b60408051808201909152600f81526e115e1c1958dd1959081bdd5d1c1d5d608a1b6020820152611a78906119e560e0880160c0890161351c565b611a8860a086016080870161351c565b6001600160701b03166101809094019390935250505050565b801580611b1b5750604051636eb1769f60e11b81523060048201526001600160a01b03838116602483015284169063dd62ed3e90604401602060405180830381865afa158015611af5573d6000803e3d6000fd5b505050506040513d601f19601f82011682018060405250810190611b199190613756565b155b611b865760405162461bcd60e51b815260206004820152603660248201527f5361666545524332303a20617070726f76652066726f6d206e6f6e2d7a65726f60448201527520746f206e6f6e2d7a65726f20616c6c6f77616e636560501b6064820152608401610341565b6112358363095ea7b360e01b8484604051602401611ba592919061405a565b60408051601f198184030181529190526020810180516001600160e01b03166001600160e01b031990931692909217909152611e1d565b6109ad84848484604051602401611bf69493929190614073565b60408051601f198184030181529190526020810180516001600160e01b031663c67ea9d160e01b179052611eef565b611c6881604051602401611c3991906140b0565b60408051601f198184030181529190526020810180516001600160e01b031663104c13eb60e21b179052611eef565b50565b60208084015101516040516370a0823160e01b81526000916001600160a01b0316906370a0823190611ca19030906004016134bd565b602060405180830381865afa158015611cbe573d6000803e3d6000fd5b505050506040513d601f19601f82011682018060405250810190611ce29190613756565b610180840181815260408051808201909152601781527652656d61696e696e6720696e7075742062616c616e636560481b60208201529051919250611d2691611db3565b8115611d9b57826101800151811115611d8c5760405162461bcd60e51b815260206004820152602260248201527f496e7075742062616c616e636520706f73742d7377617020776173206869676860448201526132b960f11b6064820152608401610341565b611d968484611f10565b611da5565b611da58484611f2d565b6109ad836101400151612187565b611df88282604051602401611dc99291906140c3565b60408051601f198184030181529190526020810180516001600160e01b0316632d839cb360e21b179052611eef565b5050565b6109ad846323b872dd60e01b858585604051602401611ba5939291906140e5565b6000611e72826040518060400160405280602081526020017f5361666545524332303a206c6f772d6c6576656c2063616c6c206661696c6564815250856001600160a01b03166122cb9092919063ffffffff16565b8051909150156112355780806020019051810190611e90919061403d565b6112355760405162461bcd60e51b815260206004820152602a60248201527f5361666545524332303a204552433230206f7065726174696f6e20646964206e6044820152691bdd081cdd58d8d9595960b21b6064820152608401610341565b80516a636f6e736f6c652e6c6f67602083016000808483855afa5050505050565b611f238282600001518360e001516122e4565b611df88282612388565b806020015115611f6d5760405162461bcd60e51b815260206004820152600b60248201526a14ddd85c0819985a5b195960aa1b6044820152606401610341565b6000611f77611664565b8251909150156121115760005a836060015103619c40019050611fb26040518060600160405280602981526020016142b96029913982611db3565b611fbb8161239c565b6101408401819052600183015485516020015151604051633931f45d60e01b8152600094506001600160a01b0390921692633931f45d9261200092919060040161405a565b602060405180830381865afa15801561201d573d6000803e3d6000fd5b505050506040513d601f19601f820116820180604052508101906120419190613756565b905061206460405180606001604052806040815260200161427960409139611c25565b6120946040518060400160405280600e81526020016d4661696c6564206761732066656560901b81525082611db3565b835180516002840154602090920151516120bc926001600160a01b0391821692911684611dfc565b83518051602090910151516040516001600160a01b03909216917f6930176329c33f663176f0f242132119497db425bb44d32f9ffef8683d10b0c09161210391859061405a565b60405180910390a250505050565b61213260405180608001604052806049815260200161434160499139611c25565b82518051602090910151516040516001600160a01b03909216917f6930176329c33f663176f0f242132119497db425bb44d32f9ffef8683d10b0c09161217a9160009061405a565b60405180910390a2505050565b806000036121925750565b6121cb6040518060400160405280601781526020017614995b185e4811d85cc814995a5b589d5c9cd95b595b9d604a1b81525082611db3565b8047101561222d576121f460405180606001604052806035815260200161430c60359139611c25565b60405181815233907f4c0d6a438f19dfe41befe161c0bfdfca9f674028133bbaf37749b2d12f8f0dda906020015b60405180910390a250565b61226b6040518060400160405280601c81526020017f5472616e73666572696e67206761732066656520746f2072656c617900000000815250611c25565b604051339082156108fc029083906000818181858888f19350505050158015612298573d6000803e3d6000fd5b5060405181815233907f91d09af90b128f3fb2907042440a531bca49791232cd8f59e1c629d96247d05790602001612222565b60606122da84846000856124c5565b90505b9392505050565b60006122ee611664565b90506000831561230d57506020840151516001600160701b0316612310565b50815b600182015485518051602090910151516040516302ac425360e61b81526001600160a01b039093169263ab1094c09261234f92909186906004016140e5565b600060405180830381600087803b15801561236957600080fd5b505af115801561237d573d6000803e3d6000fd5b505050505050505050565b61239282826125a0565b611df88282612977565b6000806123a7611664565b90504661a4b019810161243157600582015460405163852b66a560e01b8152366004820152602481018690526001600160a01b039091169063852b66a590604401602060405180830381865afa158015612405573d6000803e3d6000fd5b505050506040513d601f19601f820116820180604052508101906124299190613756565b949350505050565b600a81036124bb576040516324ca470760e11b8152600f602160991b01906349948e0e90612466906000903690600401614109565b602060405180830381865afa158015612483573d6000803e3d6000fd5b505050506040513d601f19601f820116820180604052508101906124a79190613756565b6124b1853a61411d565b61242991906138c4565b612429843a61411d565b6060824710156125265760405162461bcd60e51b815260206004820152602660248201527f416464726573733a20696e73756666696369656e742062616c616e636520666f6044820152651c8818d85b1b60d21b6064820152608401610341565b600080866001600160a01b031685876040516125429190614134565b60006040518083038185875af1925050503d806000811461257f576040519150601f19603f3d011682016040523d82523d6000602084013e612584565b606091505b509150915061259587838387612d64565b979650505050505050565b60006125aa611664565b60e083015160c0840181905283516101608501519293506125cc928692612ddd565b610100830152825160200151516000906125e590612f1e565b905082610100015181111561261f576126166040518060600160405280602a81526020016142e2602a913982611db3565b61010083018190525b81546101008481015160649261263a9260ff9104169061411d565b6126449190614146565b60a0840190815260408051808201909152600b81526a546f20726576736861726560a81b602082015290516126799190611db3565b8260a0015183610100015161268e919061387a565b84516020015160400151106126e55760405162461bcd60e51b815260206004820152601f60248201527f4d697363616c63756c6174656420616666696c6961746520706f7274696f6e006044820152606401610341565b8351602001516040015160a0840151610100850151612704919061387a565b61270e919061387a565b6080840190815260408051808201909152601081526f50726f746f636f6c207072652d67617360801b602082015290516127489190611db3565b83516020015160400151608084015160a085015160009291612769916138c4565b61277391906138c4565b8451909150612844576127d76040518060400160405280600a81526020016913dd5d08185b5bdd5b9d60b21b8152508560e00151604051806040016040528060118152602001702a37ba30b6103332b2b99039b7903330b960791b81525084611bdc565b808460e001511161282a5760405162461bcd60e51b815260206004820152601f60248201527f496e73756666696369656e74206f757470757420746f207061792066656573006044820152606401610341565b808460e0015161283a919061387a565b60c08501526128bb565b80846101800151116128a45760405162461bcd60e51b8152602060048201526024808201527f496e73756666696369656e7420696e7075742066756e647320746f20706179206044820152636665657360e01b6064820152608401610341565b8084610180018181516128b7919061387a565b9052505b84516020015151600184015460a08601516128e4916001600160a01b038085169291169061309c565b855160200151604001511561296f57855160209081015190810151604090910151612919916001600160a01b0384169161309c565b85516020908101519081015160409182015191516001600160a01b03909116917f1fd11cde99de9e2e6d2bc710c225ae2e03d1e8eece69b0c552c7ae2bb3499a709161296691859161405a565b60405180910390a25b505050505050565b6000612981611664565b90508160200151612bf4576000620138805a606085015160408601516001860154929091039290920192506001600160a01b039081169116146129c55762030d3f19015b6129ce8161239c565b6101408401819052600183015485516020015151604051633931f45d60e01b81526001600160a01b039092169350633931f45d92612a0e9260040161405a565b602060405180830381865afa158015612a2b573d6000803e3d6000fd5b505050506040513d601f19601f82011682018060405250810190612a4f9190613756565b610120830190815260408051808201909152601f81527f47617320706169642062792074726164657220696e2066656520746f6b656e0060208201529051612a979190611db3565b81610120015182608001818151612aae91906138c4565b90525060408051808201909152601381527214185e5b595b9d081d1bc81c1c9bdd1bd8dbdb606a1b60208201526080830151612aea9190611db3565b8151612b73578161012001518260c0015111612b545760405162461bcd60e51b815260206004820152602360248201527f496e73756666696369656e74206f757470757420746f2070617920676173206660448201526265657360e81b6064820152608401610341565b8161012001518260c001818151612b6b919061387a565b905250612bf4565b8161012001518261018001511015612bd85760405162461bcd60e51b815260206004820152602260248201527f496e73756666696369656e7420696e70757420746f2070617920676173206665604482015261657360f01b6064820152608401610341565b8161012001518261018001818151612bf0919061387a565b9052505b8251602001515160028201546080840151612c1d916001600160a01b038085169291169061309c565b83515160c0840151604086015160200151612c43926001600160a01b039091169161309c565b61018083015115612cb157612c8b604051806040016040528060168152602001752a37ba30b6103932b33ab732103a37903a3930b232b960511b815250846101800151611db3565b8351516101808401516020808701510151612cb1926001600160a01b039091169161309c565b83516020808201519081015191516040808801515160c088015184516101208a0151958401516101008b015194516001600160a01b039889169896909616967f37d5b664bdbba33c8c4138fa893bae32fef34e9a60d60d7cba0cb46eadb7675196612d5696919291906001600160701b0396909616865260208601949094526001600160a01b039290921660408501526060840152608083015260a082015260c00190565b60405180910390a350505050565b60608315612dd3578251600003612dcc576001600160a01b0385163b612dcc5760405162461bcd60e51b815260206004820152601d60248201527f416464726573733a2063616c6c20746f206e6f6e2d636f6e74726163740000006044820152606401610341565b5081612429565b61242983836130bb565b600080612de8611664565b60048101546040805160c08101825289516020908101518101516001600160a01b03908116151583528b5151811691830191909152939450929091169163a015b63991810188612e385786612e48565b60208a0151516001600160701b03165b81526020808201899052855461ffff6201000082048116604080860191909152600160201b909204811660609485015281516001600160e01b031960e088901b168152855115156004820152928501516001600160a01b0316602484015290840151604483015291830151606482015260808301518216608482015260a0909201511660a482015260c401602060405180830381865afa158015612ef0573d6000803e3d6000fd5b505050506040513d601f19601f82011682018060405250810190612f149190613756565b9695505050505050565b600080612f29611664565b8054909150600160301b90046001600160701b0316600003612f4e5750600092915050565b600181015460405163ce25cb4d60e01b81526000916001600160a01b03169063ce25cb4d90612f819087906004016134bd565b602060405180830381865afa158015612f9e573d6000803e3d6000fd5b505050506040513d601f19601f82011682018060405250810190612fc29190613756565b90506000846001600160a01b031663313ce5676040518163ffffffff1660e01b8152600401602060405180830381865afa158015613004573d6000803e3d6000fd5b505050506040513d601f19601f820116820180604052508101906130289190614168565b905060006c0c9f2c9cd04674edea400000008260ff1660120361304c57600161306a565b670de0b6b3a764000061306084600a614269565b61306a9190614146565b85546130869190600160301b90046001600160701b031661411d565b613090919061411d565b9050612f148382614146565b6112358363a9059cbb60e01b8484604051602401611ba592919061405a565b8151156130cb5781518083602001fd5b8060405162461bcd60e51b815260040161034191906140b0565b60ff81168114611c6857600080fd5b80356130ff816130e5565b919050565b60006020828403121561311657600080fd5b81356122dd816130e5565b803561ffff811681146130ff57600080fd5b60006020828403121561314557600080fd5b6122dd82613121565b6000610120828403121561316157600080fd5b50919050565b634e487b7160e01b600052604160045260246000fd5b6040516101a081016001600160401b03811182821017156131a0576131a0613167565b60405290565b60405161014081016001600160401b03811182821017156131a0576131a0613167565b604080519081016001600160401b03811182821017156131a0576131a0613167565b604051608081016001600160401b03811182821017156131a0576131a0613167565b604051606081016001600160401b03811182821017156131a0576131a0613167565b604051601f8201601f191681016001600160401b038111828210171561325757613257613167565b604052919050565b8015158114611c6857600080fd5b80356130ff8161325f565b6001600160a01b0381168114611c6857600080fd5b80356130ff81613278565b6000808284036101c08112156132ad57600080fd5b83356001600160401b038111156132c357600080fd5b6132cf8682870161314e565b9350506101a080601f19830112156132e657600080fd5b6132ee61317d565b91506132fc6020860161326d565b825261330a6040860161326d565b602083015261331b6060860161328d565b60408301526080850135606083015260a0850135608083015260c085013560a083015260e085013560c08301526101008086013560e0840152610120808701358285015261014091508187013581850152506101608087013582850152610180915081870135818501525081860135818401525050809150509250929050565b80511515825260208101516133b4602084018215159052565b5060408101516133cf60408401826001600160a01b03169052565b50606081810151908301526080808201519083015260a0808201519083015260c0808201519083015260e08082015190830152610100808201519083015261012080820151908301526101408082015190830152610160808201519083015261018090810151910152565b6101a081016108db828461339b565b6000806020838503121561345c57600080fd5b82356001600160401b038082111561347357600080fd5b818501915085601f83011261348757600080fd5b81358181111561349657600080fd5b8660208260051b85010111156134ab57600080fd5b60209290920196919550909350505050565b6001600160a01b0391909116815260200190565b6000602082840312156134e357600080fd5b81356001600160401b038111156134f957600080fd5b6124298482850161314e565b80356001600160701b03811681146130ff57600080fd5b60006020828403121561352e57600080fd5b6122dd82613505565b60006001600160401b0382111561355057613550613167565b5060051b60200190565b600082601f83011261356b57600080fd5b8135602061358061357b83613537565b61322f565b82815260059290921b8401810191818101908684111561359f57600080fd5b8286015b848110156135c35780356135b681613278565b83529183019183016135a3565b509695505050505050565b6000602082840312156135e057600080fd5b81356001600160401b03808211156135f757600080fd5b90830190610140828603121561360c57600080fd5b6136146131a6565b61361d836130f4565b815261362b60208401613121565b602082015261363c60408401613121565b604082015261364d6060840161328d565b606082015261365e6080840161328d565b608082015261366f60a0840161328d565b60a082015261368060c0840161328d565b60c082015261369160e0840161328d565b60e08201526101006136a4818501613505565b9082015261012083810135838111156136bc57600080fd5b6136c88882870161355a565b918301919091525095945050505050565b6000602082840312156136eb57600080fd5b81356001600160401b0381111561370157600080fd5b820160c081850312156122dd57600080fd5b60006020828403121561372557600080fd5b81356122dd81613278565b6020808252600c908201526b155b985d5d1a1bdc9a5e995960a21b604082015260600190565b60006020828403121561376857600080fd5b5051919050565b6000808335601e1984360301811261378657600080fd5b8301803591506001600160401b038211156137a057600080fd5b6020019150600581901b36038213156137b857600080fd5b9250929050565b634e487b7160e01b600052603260045260246000fd5b60008235609e198336030181126137eb57600080fd5b9190910192915050565b6000808335601e1984360301811261380c57600080fd5b8301803591506001600160401b0382111561382657600080fd5b6020019150368190038213156137b857600080fd5b8183823760009101908152919050565b634e487b7160e01b600052601160045260246000fd5b6000600182016138735761387361384b565b5060010190565b818103818111156108db576108db61384b565b6020808252601e908201527f436f6e7472616374206f7065726174696f6e7320617265207061757365640000604082015260600190565b808201808211156108db576108db61384b565b6001600160701b036138e882613505565b16825260208101356138f981613278565b6001600160a01b03166020929092019190915250565b6000808335601e1984360301811261392657600080fd5b83016020810192503590506001600160401b0381111561394557600080fd5b8060051b36038213156137b857600080fd5b81835281816020850137506000828201602090810191909152601f909101601f19169091010190565b81835260006020808501808196508560051b810191508460005b87811015613a675782840389528135609e198836030181126139bb57600080fd5b870160a081356139ca81613278565b6001600160a01b03908116875282880135906139e582613278565b168688015260406139fa8188018483016138d7565b50608080830135601e19843603018112613a1357600080fd5b9092018781019290356001600160401b03811115613a3057600080fd5b803603841315613a3f57600080fd5b8282890152613a518389018286613957565b9c89019c9750505092860192505060010161399a565b5091979650505050505050565b60006101c08083528435613a8781613278565b6001600160a01b0381811692850192909252602086013591613aa883613278565b9182166101e0850152604086013591613ac083613278565b91909116610200840152506060840135610220830152613ae76102408301608086016138d7565b613af8610280830160c086016138d7565b613b0661010085018561390f565b6101206102c0850152613b1e6102e085018284613980565b925050506122dd602083018461339b565b80516130ff8161325f565b80516130ff81613278565b60006101a08284031215613b5857600080fd5b613b6061317d565b613b6983613b2f565b8152613b7760208401613b2f565b6020820152613b8860408401613b3a565b6040820152606083810151908201526080808401519082015260a0808401519082015260c0808401519082015260e080840151908201526101008084015190820152610120808401519082015261014080840151908201526101608084015190820152610180928301519281019290925250919050565b600060408284031215613c1157600080fd5b613c196131c9565b9050613c2482613505565b81526020820135613c3481613278565b602082015292915050565b6000613c4d61357b84613537565b8381529050602080820190600585901b840186811115613c6c57600080fd5b845b81811015613d685780356001600160401b0380821115613c8e5760008081fd5b9087019060a0828b031215613ca35760008081fd5b613cab6131eb565b8235613cb681613278565b815282860135613cc581613278565b818701526040613cd78c858301613bff565b90820152608083013582811115613cee5760008081fd5b808401935050601f8b81850112613d055760008081fd5b833583811115613d1757613d17613167565b613d28818301601f1916890161322f565b93508084528c88828701011115613d4157600091508182fd5b80888601898601376000908401880152506060810191909152855250928201928201613c6e565b505050509392505050565b600082601f830112613d8457600080fd5b6122dd83833560208501613c3f565b6000813603610120811215613da757600080fd5b613daf6131eb565b6080821215613dbd57600080fd5b613dc56131c9565b8435613dd081613278565b81526060601f1984011215613de457600080fd5b613dec61320d565b92506020850135613dfc81613278565b83526040850135613e0c81613278565b806020850152506060850135604084015282602082015280825250613e343660808601613bff565b6020820152613e463660c08601613bff565b604082015261010084013591506001600160401b03821115613e6757600080fd5b613e7336838601613d73565b60608201529392505050565b600060408284031215613e9157600080fd5b6122dd8383613bff565b60006122dd368484613c3f565b80516001600160701b031682526020908101516001600160a01b0316910152565b60005b83811015613ee4578181015183820152602001613ecc565b50506000910152565b60008151808452613f05816020860160208601613ec9565b601f01601f19169290920160200192915050565b600081518084526020808501808196508360051b8101915082860160005b85811015613a67578284038952815180516001600160a01b03908116865286820151168686015260408082015160a09190613f7482890182613ea8565b505060608201519150806080870152613f8f81870183613eed565b9a87019a9550505090840190600101613f37565b6101c0808252835180516001600160a01b0390811692840192909252602090810151805183166101e085015280820151909216610200840152604090910151610220830152830151600090613ffc610240840182613ea8565b506040840151614010610280840182613ea8565b5060608401516101206102c084015261402d6102e0840182613f19565b9150506122dd602083018461339b565b60006020828403121561404f57600080fd5b81516122dd8161325f565b6001600160a01b03929092168252602082015260400190565b6080815260006140866080830187613eed565b856020840152828103604084015261409e8186613eed565b91505082606083015295945050505050565b6020815260006122dd6020830184613eed565b6040815260006140d66040830185613eed565b90508260208301529392505050565b6001600160a01b039384168152919092166020820152604081019190915260600190565b6020815260006122da602083018486613957565b80820281158282048414176108db576108db61384b565b600082516137eb818460208701613ec9565b60008261416357634e487b7160e01b600052601260045260246000fd5b500490565b60006020828403121561417a57600080fd5b81516122dd816130e5565b600181815b808511156141c05781600019048211156141a6576141a661384b565b808516156141b357918102915b93841c939080029061418a565b509250929050565b6000826141d7575060016108db565b816141e4575060006108db565b81600181146141fa576002811461420457614220565b60019150506108db565b60ff8411156142155761421561384b565b50506001821b6108db565b5060208310610133831016604e8410600b8410161715614243575081810a6108db565b61424d8383614185565b80600019048211156142615761426161384b565b029392505050565b60006122dd60ff8416836141c856fe5472616e7366657272696e67207061727469616c20696e70757420746f6b656e20746f206465767465616d20666f72206661696c757265206761732066656573457374696d6174656420676173207573656420666f722074726164657220676173207061796d656e74547261646520746f6f20736d616c6c2e204368617267696e67206d696e696d756d20666c61742066656543616e6e6f74207265696d62757273652072656c61792073696e636520646f206e6f74206861766520656e6f7567682066756e647346656520746f6b656e206973206f75747075743b207468657265666f72652063616e6e6f74207265696d6275727365207465616d20666f72206661696c757265206761732066656573a26469706673582212201098324717538573382204f2fafb5ba65e1ee81cd1d41d643e908dc045cd7b8f64736f6c63430008110033",
  "linkReferences": {},
  "deployedLinkReferences": {}
}