{
  "_format": "hh-sol-artifact-1",
  "contractName": "StandardGasAdjustments",
  "sourceName": "contracts/dexible/oracles/StandardGasAdjustments.sol",
  "abi": [
    {
      "inputs": [
        {
          "internalType": "address",
          "name": "mSig",
          "type": "address"
        },
        {
          "internalType": "string[]",
          "name": "types",
          "type": "string[]"
        },
        {
          "internalType": "uint256[]",
          "name": "_adjustments",
          "type": "uint256[]"
        }
      ],
      "stateMutability": "nonpayable",
      "type": "constructor"
    },
    {
      "anonymous": false,
      "inputs": [
        {
          "indexed": false,
          "internalType": "string",
          "name": "adjustmentType",
          "type": "string"
        },
        {
          "indexed": false,
          "internalType": "uint256",
          "name": "amount",
          "type": "uint256"
        }
      ],
      "name": "AdjustmentChanged",
      "type": "event"
    },
    {
      "inputs": [
        {
          "internalType": "string",
          "name": "",
          "type": "string"
        }
      ],
      "name": "adjustment",
      "outputs": [
        {
          "internalType": "uint256",
          "name": "",
          "type": "uint256"
        }
      ],
      "stateMutability": "view",
      "type": "function"
    },
    {
      "inputs": [
        {
          "internalType": "string[]",
          "name": "types",
          "type": "string[]"
        },
        {
          "internalType": "uint256[]",
          "name": "_adjustments",
          "type": "uint256[]"
        }
      ],
      "name": "setAdjustments",
      "outputs": [],
      "stateMutability": "nonpayable",
      "type": "function"
    }
  ],
  "bytecode": "0x60806040523480156200001157600080fd5b5060405162000a3738038062000a378339810160408190526200003491620002c3565b600080546001600160a01b0319166001600160a01b0385161790556200005b828262000064565b505050620004bb565b8051825114620000c65760405162461bcd60e51b815260206004820152602360248201527f547970657320616e642061646a7573746d656e7473206861766520746f206d616044820152620e8c6d60eb1b606482015260840160405180910390fd5b60005b8251811015620001b657818181518110620000e857620000e862000422565b6020026020010151600184838151811062000107576200010762000422565b60200260200101516040516200011e919062000438565b9081526020016040518091039020819055507fb69059f3febf4ba73c94684b38b95610ba0bf397588cbb14f5116a3452a526b783828151811062000166576200016662000422565b602002602001015183838151811062000183576200018362000422565b60200260200101516040516200019b92919062000456565b60405180910390a1620001ae8162000493565b9050620000c9565b505050565b634e487b7160e01b600052604160045260246000fd5b604051601f8201601f191681016001600160401b0381118282101715620001fc57620001fc620001bb565b604052919050565b60006001600160401b03821115620002205762000220620001bb565b5060051b60200190565b60005b83811015620002475781810151838201526020016200022d565b50506000910152565b600082601f8301126200026257600080fd5b815160206200027b620002758362000204565b620001d1565b82815260059290921b840181019181810190868411156200029b57600080fd5b8286015b84811015620002b857805183529183019183016200029f565b509695505050505050565b600080600060608486031215620002d957600080fd5b83516001600160a01b0381168114620002f157600080fd5b602085810151919450906001600160401b03808211156200031157600080fd5b818701915087601f8301126200032657600080fd5b815162000337620002758262000204565b81815260059190911b8301840190848101908a8311156200035757600080fd5b8585015b83811015620003ed57805185811115620003755760008081fd5b8601603f81018d13620003885760008081fd5b87810151604087821115620003a157620003a1620001bb565b620003b5601f8301601f19168b01620001d1565b8281528f82848601011115620003cb5760008081fd5b620003dc838c83018487016200022a565b86525050509186019186016200035b565b5060408a015190975094505050808311156200040857600080fd5b5050620004188682870162000250565b9150509250925092565b634e487b7160e01b600052603260045260246000fd5b600082516200044c8184602087016200022a565b9190910192915050565b6040815260008351806040840152620004778160608501602088016200022a565b602083019390935250601f91909101601f191601606001919050565b600060018201620004b457634e487b7160e01b600052601160045260246000fd5b5060010190565b61056c80620004cb6000396000f3fe608060405234801561001057600080fd5b50600436106100365760003560e01c8063519709341461003b578063ee9ed37814610078575b600080fd5b6100666100493660046102de565b805160208183018101805160018252928201919093012091525481565b60405190815260200160405180910390f35b61008b6100863660046103aa565b61008d565b005b6000546001600160a01b031633146100db5760405162461bcd60e51b815260206004820152600c60248201526b155b985d5d1a1bdc9a5e995960a21b60448201526064015b60405180910390fd5b6100e582826100e9565b5050565b80518251146101465760405162461bcd60e51b815260206004820152602360248201527f547970657320616e642061646a7573746d656e7473206861766520746f206d616044820152620e8c6d60eb1b60648201526084016100d2565b60005b8251811015610222578181815181106101645761016461047e565b602002602001015160018483815181106101805761018061047e565b602002602001015160405161019591906104b8565b9081526020016040518091039020819055507fb69059f3febf4ba73c94684b38b95610ba0bf397588cbb14f5116a3452a526b78382815181106101da576101da61047e565b60200260200101518383815181106101f4576101f461047e565b602002602001015160405161020a9291906104d4565b60405180910390a161021b8161050f565b9050610149565b505050565b634e487b7160e01b600052604160045260246000fd5b604051601f8201601f1916810167ffffffffffffffff8111828210171561026657610266610227565b604052919050565b600082601f83011261027f57600080fd5b813567ffffffffffffffff81111561029957610299610227565b6102ac601f8201601f191660200161023d565b8181528460208386010111156102c157600080fd5b816020850160208301376000918101602001919091529392505050565b6000602082840312156102f057600080fd5b813567ffffffffffffffff81111561030757600080fd5b6103138482850161026e565b949350505050565b600067ffffffffffffffff82111561033557610335610227565b5060051b60200190565b600082601f83011261035057600080fd5b813560206103656103608361031b565b61023d565b82815260059290921b8401810191818101908684111561038457600080fd5b8286015b8481101561039f5780358352918301918301610388565b509695505050505050565b600080604083850312156103bd57600080fd5b823567ffffffffffffffff808211156103d557600080fd5b818501915085601f8301126103e957600080fd5b813560206103f96103608361031b565b82815260059290921b8401810191818101908984111561041857600080fd5b8286015b84811015610450578035868111156104345760008081fd5b6104428c86838b010161026e565b84525091830191830161041c565b509650508601359250508082111561046757600080fd5b506104748582860161033f565b9150509250929050565b634e487b7160e01b600052603260045260246000fd5b60005b838110156104af578181015183820152602001610497565b50506000910152565b600082516104ca818460208701610494565b9190910192915050565b60408152600083518060408401526104f3816060850160208801610494565b602083019390935250601f91909101601f191601606001919050565b60006001820161052f57634e487b7160e01b600052601160045260246000fd5b506001019056fea2646970667358221220a760f50b15edaae857ddca24aeaecac97654fea7bf4e25b029ac0cb4c9af74f664736f6c63430008110033",
  "linkReferences": {},
  "deployedLinkReferences": {}
}