{
  "_format": "hh-sol-artifact-1",
  "contractName": "LibConstants",
  "sourceName": "contracts/common/LibConstants.sol",
  "abi": [
    {
      "inputs": [],
      "name": "RELAY",
      "outputs": [
        {
          "internalType": "string",
          "name": "",
          "type": "string"
        }
      ],
      "stateMutability": "view",
      "type": "function"
    },
    {
      "inputs": [],
      "name": "ROLE_MGR",
      "outputs": [
        {
          "internalType": "string",
          "name": "",
          "type": "string"
        }
      ],
      "stateMutability": "view",
      "type": "function"
    }
  ],
  "bytecode": "0x61012561003a600b82828239805160001a60731461002d57634e487b7160e01b600052600060045260246000fd5b30600052607381538281f3fe7300000000000000000000000000000000000000003014608060405260043610603d5760003560e01c8063423154c91460425780638ac4524f146079575b600080fd5b60656040518060400160405280600581526020016452454c415960d81b81525081565b6040516070919060a3565b60405180910390f35b60656040518060400160405280600c81526020016b2927a622afa6a0a720a3a2a960a11b81525081565b600060208083528351808285015260005b8181101560ce5785810183015185820160400152820160b4565b506000604082860101526040601f19601f830116850101925050509291505056fea2646970667358221220880f301b3aadd4a2cb64b8e3c0c4ec17e87792e88a4e4019dd0a8c7231d5d1cb64736f6c63430008110033",
  "linkReferences": {},
  "deployedLinkReferences": {}
}