{
  "_format": "hh-sol-artifact-1",
  "contractName": "LibConstants",
  "sourceName": "contracts/common/LibConstants.sol",
  "abi": [
    {
      "inputs": [],
      "name": "RELAY",
      "outputs": [
        {
          "internalType": "string",
          "name": "",
          "type": "string"
        }
      ],
      "stateMutability": "view",
      "type": "function"
    },
    {
      "inputs": [],
      "name": "ROLE_MGR",
      "outputs": [
        {
          "internalType": "string",
          "name": "",
          "type": "string"
        }
      ],
      "stateMutability": "view",
      "type": "function"
    },
    {
      "inputs": [],
      "name": "SWAP_FAILURE",
      "outputs": [
        {
          "internalType": "string",
          "name": "",
          "type": "string"
        }
      ],
      "stateMutability": "view",
      "type": "function"
    },
    {
      "inputs": [],
      "name": "SWAP_SUCCESS",
      "outputs": [
        {
          "internalType": "string",
          "name": "",
          "type": "string"
        }
      ],
      "stateMutability": "view",
      "type": "function"
    }
  ],
  "bytecode": "0x61019a61003a600b82828239805160001a60731461002d57634e487b7160e01b600052600060045260246000fd5b30600052607381538281f3fe73000000000000000000000000000000000000000030146080604052600436106100565760003560e01c8063290d6a7f1461005b57806334bfa7631461009c578063423154c9146100c75780638ac4524f146100eb575b600080fd5b6100866040518060400160405280600c81526020016b535741505f4641494c55524560a01b81525081565b6040516100939190610116565b60405180910390f35b6100866040518060400160405280600c81526020016b535741505f5355434345535360a01b81525081565b6100866040518060400160405280600581526020016452454c415960d81b81525081565b6100866040518060400160405280600c81526020016b2927a622afa6a0a720a3a2a960a11b81525081565b600060208083528351808285015260005b8181101561014357858101830151858201604001528201610127565b506000604082860101526040601f19601f830116850101925050509291505056fea26469706673582212209c1df53acee798ad86ae40a53401506c05918a5993b33f9b79989028241041c864736f6c63430008110033",
  "linkReferences": {},
  "deployedLinkReferences": {}
}