{
  "_format": "hh-sol-artifact-1",
  "contractName": "StorageView",
  "sourceName": "contracts/vault/baseContracts/StorageView.sol",
  "abi": [
    {
      "inputs": [],
      "name": "adminMultiSig",
      "outputs": [
        {
          "internalType": "address",
          "name": "",
          "type": "address"
        }
      ],
      "stateMutability": "view",
      "type": "function"
    },
    {
      "inputs": [],
      "name": "baseMintThreshold",
      "outputs": [
        {
          "internalType": "uint256",
          "name": "",
          "type": "uint256"
        }
      ],
      "stateMutability": "view",
      "type": "function"
    },
    {
      "inputs": [],
      "name": "dailyVolumeUSD",
      "outputs": [
        {
          "internalType": "uint256",
          "name": "",
          "type": "uint256"
        }
      ],
      "stateMutability": "view",
      "type": "function"
    },
    {
      "inputs": [],
      "name": "dexibleContract",
      "outputs": [
        {
          "internalType": "address",
          "name": "",
          "type": "address"
        }
      ],
      "stateMutability": "view",
      "type": "function"
    },
    {
      "inputs": [],
      "name": "discountBps",
      "outputs": [
        {
          "internalType": "uint32",
          "name": "",
          "type": "uint32"
        }
      ],
      "stateMutability": "view",
      "type": "function"
    },
    {
      "inputs": [],
      "name": "dxblToken",
      "outputs": [
        {
          "internalType": "address",
          "name": "",
          "type": "address"
        }
      ],
      "stateMutability": "view",
      "type": "function"
    },
    {
      "inputs": [
        {
          "internalType": "address",
          "name": "token",
          "type": "address"
        }
      ],
      "name": "isFeeTokenAllowed",
      "outputs": [
        {
          "internalType": "bool",
          "name": "",
          "type": "bool"
        }
      ],
      "stateMutability": "view",
      "type": "function"
    },
    {
      "inputs": [],
      "name": "paused",
      "outputs": [
        {
          "internalType": "bool",
          "name": "",
          "type": "bool"
        }
      ],
      "stateMutability": "view",
      "type": "function"
    },
    {
      "inputs": [],
      "name": "timelockSeconds",
      "outputs": [
        {
          "internalType": "uint32",
          "name": "",
          "type": "uint32"
        }
      ],
      "stateMutability": "view",
      "type": "function"
    },
    {
      "inputs": [],
      "name": "wrappedNativeToken",
      "outputs": [
        {
          "internalType": "address",
          "name": "",
          "type": "address"
        }
      ],
      "stateMutability": "view",
      "type": "function"
    }
  ],
  "bytecode": "0x608060405234801561001057600080fd5b506103a3806100206000396000f3fe608060405234801561001057600080fd5b506004361061009e5760003560e01c806365a1f3c31161006657806365a1f3c3146101115780636c1f56331461012e5780638213147014610136578063b2eafb551461013e578063dd81eb981461014657600080fd5b806317fcb39b146100a357806345c6a874146100c857806356168843146100d05780635c975abb146100e65780635d204718146100fe575b600080fd5b6100ab61014e565b6040516001600160a01b0390911681526020015b60405180910390f35b6100ab61016a565b6100d8610188565b6040519081526020016100bf565b6100ee61019b565b60405190151581526020016100bf565b6100ee61010c366004610317565b6101ae565b6101196101e1565b60405163ffffffff90911681526020016100bf565b610119610201565b6100d8610288565b6100ab6102bb565b6100ab6102d7565b60006101586102f3565b600301546001600160a01b0316919050565b60006101746102f3565b5461010090046001600160a01b0316919050565b60006101926102f3565b60050154905090565b60006101a56102f3565b5460ff16919050565b6000806101b96102f3565b6001600160a01b03938416600090815260279091016020526040902054909216151592915050565b60006101eb6102f3565b60040154600160a01b900463ffffffff16919050565b600061020b6102f3565b60010160009054906101000a90046001600160a01b03166001600160a01b031663566826d16040518163ffffffff1660e01b8152600401602060405180830381865afa15801561025f573d6000803e3d6000fd5b505050506040513d601f19601f820116820180604052508101906102839190610347565b905090565b6000806102936102f3565b905042816007015410156102a957600091505090565b6102b16102f3565b6006015491505090565b60006102c56102f3565b600201546001600160a01b0316919050565b60006102e16102f3565b600101546001600160a01b0316919050565b7fbfa76ec2967ed7f8d3d40cd552f1451ab03573b596bfce931a6a016f7733078c90565b60006020828403121561032957600080fd5b81356001600160a01b038116811461034057600080fd5b9392505050565b60006020828403121561035957600080fd5b815163ffffffff8116811461034057600080fdfea26469706673582212209c0a030bd378af012b8a47e9dfbf65d6e41db40a9af624b11ef81dd3ffb7b13464736f6c63430008110033",
  "linkReferences": {},
  "deployedLinkReferences": {}
}