{
  "_format": "hh-sol-artifact-1",
  "contractName": "MockMigration",
  "sourceName": "contracts/vault/mock/MockMigration.sol",
  "abi": [
    {
      "inputs": [
        {
          "components": [
            {
              "internalType": "address",
              "name": "wrappedNativeToken",
              "type": "address"
            },
            {
              "internalType": "address",
              "name": "adminMultiSig",
              "type": "address"
            },
            {
              "internalType": "uint32",
              "name": "timelockSeconds",
              "type": "uint32"
            },
            {
              "internalType": "uint256",
              "name": "baseMintThreshold",
              "type": "uint256"
            },
            {
              "components": [
                {
                  "internalType": "uint16",
                  "name": "minMMVolume",
                  "type": "uint16"
                },
                {
                  "internalType": "uint16",
                  "name": "maxMMVolume",
                  "type": "uint16"
                },
                {
                  "internalType": "uint256",
                  "name": "rate",
                  "type": "uint256"
                }
              ],
              "internalType": "struct VaultStorage.MintRateRangeConfig[]",
              "name": "rateRanges",
              "type": "tuple[]"
            },
            {
              "components": [
                {
                  "internalType": "address[]",
                  "name": "feeTokens",
                  "type": "address[]"
                },
                {
                  "internalType": "address[]",
                  "name": "priceFeeds",
                  "type": "address[]"
                }
              ],
              "internalType": "struct VaultStorage.FeeTokenConfig",
              "name": "feeTokenConfig",
              "type": "tuple"
            }
          ],
          "internalType": "struct VaultStorage.VaultConfig",
          "name": "config",
          "type": "tuple"
        }
      ],
      "stateMutability": "nonpayable",
      "type": "constructor"
    },
    {
      "anonymous": false,
      "inputs": [
        {
          "indexed": false,
          "internalType": "address",
          "name": "holder",
          "type": "address"
        },
        {
          "indexed": false,
          "internalType": "uint256",
          "name": "dxblAmount",
          "type": "uint256"
        },
        {
          "indexed": false,
          "internalType": "address",
          "name": "rewardToken",
          "type": "address"
        },
        {
          "indexed": false,
          "internalType": "uint256",
          "name": "rewardAmount",
          "type": "uint256"
        }
      ],
      "name": "DXBLRedeemed",
      "type": "event"
    },
    {
      "anonymous": false,
      "inputs": [],
      "name": "Migrated",
      "type": "event"
    },
    {
      "anonymous": false,
      "inputs": [
        {
          "indexed": true,
          "internalType": "address",
          "name": "newVault",
          "type": "address"
        }
      ],
      "name": "MigrationCancelled",
      "type": "event"
    },
    {
      "anonymous": false,
      "inputs": [
        {
          "indexed": true,
          "internalType": "address",
          "name": "newVault",
          "type": "address"
        },
        {
          "indexed": false,
          "internalType": "uint256",
          "name": "afterTime",
          "type": "uint256"
        }
      ],
      "name": "MigrationScheduled",
      "type": "event"
    },
    {
      "anonymous": false,
      "inputs": [],
      "name": "Paused",
      "type": "event"
    },
    {
      "anonymous": false,
      "inputs": [],
      "name": "Resumed",
      "type": "event"
    },
    {
      "anonymous": false,
      "inputs": [
        {
          "indexed": true,
          "internalType": "address",
          "name": "newVault",
          "type": "address"
        }
      ],
      "name": "VaultMigrated",
      "type": "event"
    },
    {
      "inputs": [],
      "name": "adminMultiSig",
      "outputs": [
        {
          "internalType": "address",
          "name": "",
          "type": "address"
        }
      ],
      "stateMutability": "view",
      "type": "function"
    },
    {
      "inputs": [],
      "name": "assets",
      "outputs": [
        {
          "components": [
            {
              "internalType": "address",
              "name": "token",
              "type": "address"
            },
            {
              "internalType": "uint256",
              "name": "balance",
              "type": "uint256"
            },
            {
              "internalType": "uint256",
              "name": "usdValue",
              "type": "uint256"
            },
            {
              "internalType": "uint256",
              "name": "usdPrice",
              "type": "uint256"
            }
          ],
          "internalType": "struct IComputationalView.AssetInfo[]",
          "name": "tokens",
          "type": "tuple[]"
        }
      ],
      "stateMutability": "view",
      "type": "function"
    },
    {
      "inputs": [],
      "name": "aumUSD",
      "outputs": [
        {
          "internalType": "uint256",
          "name": "usd",
          "type": "uint256"
        }
      ],
      "stateMutability": "view",
      "type": "function"
    },
    {
      "inputs": [],
      "name": "baseMintThreshold",
      "outputs": [
        {
          "internalType": "uint256",
          "name": "",
          "type": "uint256"
        }
      ],
      "stateMutability": "view",
      "type": "function"
    },
    {
      "inputs": [],
      "name": "canMigrate",
      "outputs": [
        {
          "internalType": "bool",
          "name": "",
          "type": "bool"
        }
      ],
      "stateMutability": "view",
      "type": "function"
    },
    {
      "inputs": [],
      "name": "cancelMigration",
      "outputs": [],
      "stateMutability": "nonpayable",
      "type": "function"
    },
    {
      "inputs": [
        {
          "internalType": "address",
          "name": "feeToken",
          "type": "address"
        },
        {
          "internalType": "uint256",
          "name": "amount",
          "type": "uint256"
        }
      ],
      "name": "computeVolumeUSD",
      "outputs": [
        {
          "internalType": "uint256",
          "name": "volumeUSD",
          "type": "uint256"
        }
      ],
      "stateMutability": "view",
      "type": "function"
    },
    {
      "inputs": [
        {
          "internalType": "address",
          "name": "dexible",
          "type": "address"
        },
        {
          "internalType": "address",
          "name": "token",
          "type": "address"
        }
      ],
      "name": "configureContracts",
      "outputs": [],
      "stateMutability": "nonpayable",
      "type": "function"
    },
    {
      "inputs": [
        {
          "internalType": "address",
          "name": "feeToken",
          "type": "address"
        },
        {
          "internalType": "uint256",
          "name": "gasCost",
          "type": "uint256"
        }
      ],
      "name": "convertGasToFeeToken",
      "outputs": [
        {
          "internalType": "uint256",
          "name": "",
          "type": "uint256"
        }
      ],
      "stateMutability": "view",
      "type": "function"
    },
    {
      "inputs": [],
      "name": "currentMintRateUSD",
      "outputs": [
        {
          "internalType": "uint256",
          "name": "rate",
          "type": "uint256"
        }
      ],
      "stateMutability": "view",
      "type": "function"
    },
    {
      "inputs": [],
      "name": "currentNavUSD",
      "outputs": [
        {
          "internalType": "uint256",
          "name": "nav",
          "type": "uint256"
        }
      ],
      "stateMutability": "view",
      "type": "function"
    },
    {
      "inputs": [],
      "name": "dailyVolumeUSD",
      "outputs": [
        {
          "internalType": "uint256",
          "name": "",
          "type": "uint256"
        }
      ],
      "stateMutability": "view",
      "type": "function"
    },
    {
      "inputs": [],
      "name": "dexibleContract",
      "outputs": [
        {
          "internalType": "address",
          "name": "",
          "type": "address"
        }
      ],
      "stateMutability": "view",
      "type": "function"
    },
    {
      "inputs": [],
      "name": "discountBps",
      "outputs": [
        {
          "internalType": "uint32",
          "name": "",
          "type": "uint32"
        }
      ],
      "stateMutability": "view",
      "type": "function"
    },
    {
      "inputs": [],
      "name": "dxblToken",
      "outputs": [
        {
          "internalType": "address",
          "name": "",
          "type": "address"
        }
      ],
      "stateMutability": "view",
      "type": "function"
    },
    {
      "inputs": [
        {
          "internalType": "address",
          "name": "rewardToken",
          "type": "address"
        },
        {
          "internalType": "uint256",
          "name": "dxblAmount",
          "type": "uint256"
        }
      ],
      "name": "estimateRedemption",
      "outputs": [
        {
          "internalType": "uint256",
          "name": "",
          "type": "uint256"
        }
      ],
      "stateMutability": "view",
      "type": "function"
    },
    {
      "inputs": [
        {
          "internalType": "address",
          "name": "feeToken",
          "type": "address"
        }
      ],
      "name": "feeTokenPriceUSD",
      "outputs": [
        {
          "internalType": "uint256",
          "name": "",
          "type": "uint256"
        }
      ],
      "stateMutability": "view",
      "type": "function"
    },
    {
      "inputs": [
        {
          "internalType": "address",
          "name": "token",
          "type": "address"
        }
      ],
      "name": "isFeeTokenAllowed",
      "outputs": [
        {
          "internalType": "bool",
          "name": "",
          "type": "bool"
        }
      ],
      "stateMutability": "view",
      "type": "function"
    },
    {
      "inputs": [],
      "name": "migrateV1",
      "outputs": [],
      "stateMutability": "nonpayable",
      "type": "function"
    },
    {
      "inputs": [
        {
          "components": [
            {
              "internalType": "uint256",
              "name": "currentVolume",
              "type": "uint256"
            },
            {
              "internalType": "uint256",
              "name": "lastTradeTimestamp",
              "type": "uint256"
            },
            {
              "internalType": "uint256[24]",
              "name": "hourlyVolume",
              "type": "uint256[24]"
            },
            {
              "components": [
                {
                  "internalType": "uint16",
                  "name": "minMMVolume",
                  "type": "uint16"
                },
                {
                  "internalType": "uint16",
                  "name": "maxMMVolume",
                  "type": "uint16"
                },
                {
                  "internalType": "uint256",
                  "name": "rate",
                  "type": "uint256"
                },
                {
                  "internalType": "uint256",
                  "name": "index",
                  "type": "uint256"
                }
              ],
              "internalType": "struct VaultStorage.MintRateRange",
              "name": "currentMintRate",
              "type": "tuple"
            }
          ],
          "internalType": "struct VaultStorage.VaultMigrationV1",
          "name": "data",
          "type": "tuple"
        }
      ],
      "name": "migrationFromV1",
      "outputs": [],
      "stateMutability": "nonpayable",
      "type": "function"
    },
    {
      "inputs": [],
      "name": "pause",
      "outputs": [],
      "stateMutability": "nonpayable",
      "type": "function"
    },
    {
      "inputs": [],
      "name": "paused",
      "outputs": [
        {
          "internalType": "bool",
          "name": "",
          "type": "bool"
        }
      ],
      "stateMutability": "view",
      "type": "function"
    },
    {
      "inputs": [
        {
          "internalType": "address",
          "name": "rewardToken",
          "type": "address"
        },
        {
          "internalType": "uint256",
          "name": "dxblAmount",
          "type": "uint256"
        },
        {
          "internalType": "uint256",
          "name": "minOutAmount",
          "type": "uint256"
        },
        {
          "internalType": "bool",
          "name": "unwrapNative",
          "type": "bool"
        }
      ],
      "name": "redeemDXBL",
      "outputs": [],
      "stateMutability": "nonpayable",
      "type": "function"
    },
    {
      "inputs": [],
      "name": "resume",
      "outputs": [],
      "stateMutability": "nonpayable",
      "type": "function"
    },
    {
      "inputs": [
        {
          "internalType": "address",
          "name": "trader",
          "type": "address"
        },
        {
          "internalType": "address",
          "name": "feeToken",
          "type": "address"
        },
        {
          "internalType": "uint256",
          "name": "amount",
          "type": "uint256"
        }
      ],
      "name": "rewardTrader",
      "outputs": [],
      "stateMutability": "nonpayable",
      "type": "function"
    },
    {
      "inputs": [
        {
          "internalType": "contract V1MigrationTarget",
          "name": "newVault",
          "type": "address"
        }
      ],
      "name": "scheduleMigration",
      "outputs": [],
      "stateMutability": "nonpayable",
      "type": "function"
    },
    {
      "inputs": [],
      "name": "timelockSeconds",
      "outputs": [
        {
          "internalType": "uint32",
          "name": "",
          "type": "uint32"
        }
      ],
      "stateMutability": "view",
      "type": "function"
    },
    {
      "inputs": [],
      "name": "wrappedNativeToken",
      "outputs": [
        {
          "internalType": "address",
          "name": "",
          "type": "address"
        }
      ],
      "stateMutability": "view",
      "type": "function"
    },
    {
      "stateMutability": "payable",
      "type": "receive"
    }
  ],
  "bytecode": "0x60806040523480156200001157600080fd5b506040516200396638038062003966833981016040819052620000349162000bab565b60006200004b620002f260201b620005181760201c565b805490915061010090046001600160a01b031615620000da57805461010090046001600160a01b03163314620000d45760405162461bcd60e51b8152602060048201526024808201527f556e617574686f72697a656420746f206368616e676520636f6e6669677572616044820152633a34b7b760e11b60648201526084015b60405180910390fd5b620000e6565b805460ff191660011781555b6000826060015111620001475760405162461bcd60e51b815260206004820152602260248201527f4d7573742070726f7669646520612062617365206d696e74207468726573686f6044820152611b1960f21b6064820152608401620000cb565b81516001600160a01b0316620001a05760405162461bcd60e51b815260206004820152601c60248201527f496e76616c69642077726170706564206e617469766520746f6b656e000000006044820152606401620000cb565b6000826040015163ffffffff1611620001fc5760405162461bcd60e51b815260206004820152601760248201527f496e76616c69642074696d656c6f636b20706572696f640000000000000000006044820152606401620000cb565b6020828101518254610100600160a81b0319166101006001600160a01b03928316021783556060840151600584015583516003840180546001600160a01b03191691909216179055604080518082018252601381527f53657474696e672074696d656c6f636b20746f000000000000000000000000008184015290840151620002979263ffffffff9091169062000316811b62001a8a17901c565b604082015160048201805463ffffffff909216600160a01b0263ffffffff60a01b199092169190911790556080820151620002d490829062000367565b620002ea818360a001516200059f60201b60201c565b505062000d4a565b7fbfa76ec2967ed7f8d3d40cd552f1451ab03573b596bfce931a6a016f7733078c90565b6200036382826040516024016200032f92919062000c89565b60408051601f198184030181529190526020810180516001600160e01b03908116632d839cb360e21b17909152620008c716565b5050565b600d82015415620003bb5760405162461bcd60e51b815260206004820152601f60248201527f416c726561647920696e697469616c697a656420726174652072616e676573006044820152606401620000cb565b60005b815181101562000525576000828281518110620003df57620003df62000ce0565b602002602001015190506000816020015161ffff1611620004435760405162461bcd60e51b815260206004820152601960248201527f4d6178204d4d20566f6c756d65206d757374206265203e2030000000000000006044820152606401620000cb565b60008160400151116200048c5760405162461bcd60e51b815260206004820152601060248201526f052617465206d757374206265203e20360841b6044820152606401620000cb565b60408051608081018252825161ffff908116825260208085015182168184019081529484015193830193845260608301868152600d890180546001818101835560009283529390912094516003909102909401805496518416620100000263ffffffff19909716949093169390931794909417815591519282019290925590516002909101556200051d8162000cf6565b9050620003be565b5081600d016000815481106200053f576200053f62000ce0565b600091825260209091206003909102018054600a8401805461ffff92831661ffff19821681178355845463ffffffff19909216176201000091829004909316029190911790556001810154600b84015560020154600c9092019190915550565b80515115801590620005b75750602081015151815151145b6200062b5760405162461bcd60e51b815260206004820152603f60248201527f4d7573742070726f7669646520657175616c2d6c656e6774682061727261797360448201527f20666f722066656520746f6b656e7320616e64207072696365206665656473006064820152608401620000cb565b60005b815151811015620008385760008260000151828151811062000654576200065462000ce0565b6020026020010151905060008360200151838151811062000679576200067962000ce0565b6020908102919091018101516009870180546001810182556000918252908390200180546001600160a01b0319166001600160a01b0386169081179091556040805163313ce56760e01b81529051929450909263313ce567926004808401938290030181865afa158015620006f2573d6000803e3d6000fd5b505050506040513d601f19601f8201168201806040525081019062000718919062000d1e565b856026016000846001600160a01b03166001600160a01b0316815260200190815260200160002060006101000a81548160ff021916908360ff1602179055506040518060400160405280826001600160a01b03168152602001826001600160a01b031663313ce5676040518163ffffffff1660e01b8152600401602060405180830381865afa158015620007b0573d6000803e3d6000fd5b505050506040513d601f19601f82011682018060405250810190620007d6919062000d1e565b60ff9081169091526001600160a01b0393841660009081526027880160209081526040909120835181549490920151909216600160a01b026001600160a81b03199093169416939093171790915550620008308162000cf6565b90506200062e565b5060038201546001600160a01b03166000908152602783016020526040902054600160a01b900460ff16620003635760405162461bcd60e51b815260206004820152602e60248201527f57726170706564206e6174697665206173736574206d7573742062652061207660448201526d30b634b2103332b2903a37b5b2b760911b6064820152608401620000cb565b80516a636f6e736f6c652e6c6f67602083016000808483855afa5050505050565b634e487b7160e01b600052604160045260246000fd5b604051606081016001600160401b0381118282101715620009235762000923620008e8565b60405290565b60405160c081016001600160401b0381118282101715620009235762000923620008e8565b604051601f8201601f191681016001600160401b0381118282101715620009795762000979620008e8565b604052919050565b80516001600160a01b03811681146200099957600080fd5b919050565b805163ffffffff811681146200099957600080fd5b60006001600160401b03821115620009cf57620009cf620008e8565b5060051b60200190565b805161ffff811681146200099957600080fd5b600082601f830112620009fe57600080fd5b8151602062000a1762000a1183620009b3565b6200094e565b8281526060928302850182019282820191908785111562000a3757600080fd5b8387015b8581101562000a955781818a03121562000a555760008081fd5b62000a5f620008fe565b62000a6a82620009d9565b815262000a79868301620009d9565b8187015260408281015190820152845292840192810162000a3b565b5090979650505050505050565b600082601f83011262000ab457600080fd5b8151602062000ac762000a1183620009b3565b82815260059290921b8401810191818101908684111562000ae757600080fd5b8286015b8481101562000b0d5762000aff8162000981565b835291830191830162000aeb565b509695505050505050565b60006040828403121562000b2b57600080fd5b604080519081016001600160401b03808211838310171562000b515762000b51620008e8565b81604052829350845191508082111562000b6a57600080fd5b62000b788683870162000aa2565b8352602085015191508082111562000b8f57600080fd5b5062000b9e8582860162000aa2565b6020830152505092915050565b60006020828403121562000bbe57600080fd5b81516001600160401b038082111562000bd657600080fd5b9083019060c0828603121562000beb57600080fd5b62000bf562000929565b62000c008362000981565b815262000c106020840162000981565b602082015262000c23604084016200099e565b60408201526060830151606082015260808301518281111562000c4557600080fd5b62000c5387828601620009ec565b60808301525060a08301518281111562000c6c57600080fd5b62000c7a8782860162000b18565b60a08301525095945050505050565b604081526000835180604084015260005b8181101562000cb9576020818701810151606086840101520162000c9a565b506000606082850101526060601f19601f8301168401019150508260208301529392505050565b634e487b7160e01b600052603260045260246000fd5b60006001820162000d1757634e487b7160e01b600052601160045260246000fd5b5060010190565b60006020828403121562000d3157600080fd5b815160ff8116811462000d4357600080fd5b9392505050565b612c0c8062000d5a6000396000f3fe60806040526004361061017b5760003560e01c80635d204718116100cc5780638456cb591161007a5780638456cb5914610464578063ab1094c014610479578063b2eafb5514610499578063ce25cb4d146104ae578063dd81eb98146104ce578063df2fb8d6146104e3578063f7406fc3146104f857600080fd5b80635d204718146103995780635de11890146103b957806365a1f3c3146103ce5780636c1f5633146103f857806371a973051461040d5780637262f5571461042f578063821314701461044f57600080fd5b806331e1a9c61161012957806331e1a9c6146102e55780633931f45d1461030557806341b5774a1461032557806345c6a8741461033a578063561688431461034f5780635864de4e146103645780635c975abb1461038457600080fd5b8063046f7da21461020857806310639ea01461021d57806317fcb39b1461023257806319ed21bd1461025d5780631dfc2ecf1461028257806320529bb1146102a2578063288cbb5d146102c557600080fd5b3661020357610188610518565b600301546001600160a01b031633146102015760405162461bcd60e51b815260206004820152603060248201527f43616e6e6f7420726563656976652066756e64732065786365707420666f722060448201526f6e61746976652077697468647261777360801b60648201526084015b60405180910390fd5b005b600080fd5b34801561021457600080fd5b5061020161053c565b34801561022957600080fd5b5061020161058d565b34801561023e57600080fd5b50610247610629565b604051610254919061249f565b60405180910390f35b34801561026957600080fd5b50610272610645565b6040519015158152602001610254565b34801561028e57600080fd5b5061020161029d3660046124c8565b610688565b3480156102ae57600080fd5b506102b761074c565b604051908152602001610254565b3480156102d157600080fd5b506102016102e03660046124e5565b610848565b3480156102f157600080fd5b5061020161030036600461252c565b6108e4565b34801561031157600080fd5b506102b7610320366004612576565b610c0b565b34801561033157600080fd5b506102b7610d63565b34801561034657600080fd5b50610247610dde565b34801561035b57600080fd5b506102b7610dfc565b34801561037057600080fd5b5061020161037f36600461266e565b610e0f565b34801561039057600080fd5b50610272610ee6565b3480156103a557600080fd5b506102726103b43660046124c8565b610ef9565b3480156103c557600080fd5b506102b7610f2c565b3480156103da57600080fd5b506103e3610ff9565b60405163ffffffff9091168152602001610254565b34801561040457600080fd5b506103e3611019565b34801561041957600080fd5b506104226110a0565b60405161025491906126ff565b34801561043b57600080fd5b506102b761044a366004612576565b611294565b34801561045b57600080fd5b506102b7611337565b34801561047057600080fd5b5061020161134a565b34801561048557600080fd5b5061020161049436600461276c565b61139e565b3480156104a557600080fd5b50610247611599565b3480156104ba57600080fd5b506102b76104c93660046124c8565b6115b5565b3480156104da57600080fd5b5061024761160f565b3480156104ef57600080fd5b5061020161162b565b34801561050457600080fd5b506102b7610513366004612576565b611a3d565b7fbfa76ec2967ed7f8d3d40cd552f1451ab03573b596bfce931a6a016f7733078c90565b6000610546610518565b805490915061010090046001600160a01b031633146105775760405162461bcd60e51b81526004016101f8906127ad565b6000610581610518565b805460ff191690555050565b6000610597610518565b805490915061010090046001600160a01b031633146105c85760405162461bcd60e51b81526004016101f8906127ad565b60006105d2610518565b6000600882018190556004820180546001600160a01b031981169091556040519293506001600160a01b03169182917f7c7cf105c6d2d5b006d910653c90e1ddef1597f52e08f86f4a8aad4e5bdf255e91a2505050565b6000610633610518565b600301546001600160a01b0316919050565b600080610650610518565b60048101549091506001600160a01b031615801590610673575060008160080154115b80156106825750428160080154105b91505090565b6000610692610518565b805490915061010090046001600160a01b031633146106c35760405162461bcd60e51b81526004016101f8906127ad565b60006106cd610518565b60048101549091506106ec90600160a01b900463ffffffff16426127e9565b600882018190556004820180546001600160a01b0319166001600160a01b038616908117909155604051918252907ffbf126b8a95ec693e692437a9297a98deec1cfb822b8c650b7d346461efdb2ad9060200160405180910390a2505050565b600080610757610518565b90506000816009018054806020026020016040519081016040528092919081815260200182805480156107b357602002820191906000526020600020905b81546001600160a01b03168152600190910190602001808311610795575b5050505050905060005b81518110156108425760008282815181106107da576107da6127fc565b6020908102919091018101516001600160a01b038116600090815260278701909252604082209092509061080d82611ad3565b9050600061081e8785846000611c45565b50905061082b81896127e9565b9750505050508061083b90612812565b90506107bd565b50505090565b6000610852610518565b60018101549091506001600160a01b0316610891576001810180546001600160a01b0319166001600160a01b038416179055805460ff191681556108bf565b805461010090046001600160a01b031633146108bf5760405162461bcd60e51b81526004016101f8906127ad565b60020180546001600160a01b0319166001600160a01b03939093169290921790915550565b60006108ee610518565b905060006108fc8686611294565b90506000866001600160a01b03166370a08231306040518263ffffffff1660e01b815260040161092c919061249f565b602060405180830381865afa158015610949573d6000803e3d6000fd5b505050506040513d601f19601f8201168201806040525081019061096d919061282b565b9050808211156109f457848110610986578091506109f4565b60405162461bcd60e51b815260206004820152603e60248201527f496e73756666696369656e742061737365742062616c616e636520746f20707260448201527f6f6475636520657870656374656420776974686472617720616d6f756e74000060648201526084016101f8565b6001830154604051632770a7eb60e21b81526001600160a01b0390911690639dc29fac90610a289033908a90600401612844565b600060405180830381600087803b158015610a4257600080fd5b505af1158015610a56573d6000803e3d6000fd5b505060408051338152602081018a90526001600160a01b038b16818301526060810186905290517f5fe85dc899e158274a44abab0e6df5434416f0ce11df30d42e02f229b8fc8a419350908190036080019150a1838015610ac6575060038301546001600160a01b038881169116145b15610b8d576003830154604051632e1a7d4d60e01b8152600481018490526001600160a01b0390911690632e1a7d4d90602401600060405180830381600087803b158015610b1357600080fd5b505af1158015610b27573d6000803e3d6000fd5b505060405133925082915084156108fc029085906000818181858888f19350505050610b875760405162461bcd60e51b815260206004820152600f60248201526e151c985b9cd9995c8819985a5b1959608a1b60448201526064016101f8565b50610ba1565b610ba16001600160a01b0388163384611d30565b610ba9610645565b15610c0257306001600160a01b031663df2fb8d66040518163ffffffff1660e01b8152600401600060405180830381600087803b158015610be957600080fd5b505af1158015610bfd573d6000803e3d6000fd5b505050505b50505050505050565b600080610c16610518565b6001600160a01b03858116600090815260278301602052604090205491925016610c525760405162461bcd60e51b81526004016101f89061285d565b60038101546001600160a01b0390811690851603610c735782915050610d5d565b60038101546001600160a01b031660009081526027820160205260408120610c9a90611ad3565b6001600160a01b0386166000908152602784016020526040812091925090610cc190611ad3565b9050600081610cdc68327cb2734119d3b7a9601e1b8561288c565b610ce691906128b9565b9050600068327cb2734119d3b7a9601e1b610d01888461288c565b610d0b91906128b9565b6001600160a01b0389166000908152602687016020526040902054909150670de0b6b3a764000090610d419060ff16600a6129b1565b610d4b908361288c565b610d5591906128b9565b955050505050505b92915050565b600080610d6e610518565b9050600064e8d4a510008260060154610d8791906128b9565b905060008161ffff1683600a0160010154610da2919061288c565b9050670de0b6b3a7640000818460050154610dbd919061288c565b610dc791906128b9565b8360050154610dd691906127e9565b935050505090565b6000610de8610518565b5461010090046001600160a01b0316919050565b6000610e06610518565b60050154905090565b6000610e19610518565b8251600682015560208084015160078301556060808501518051600a850180549483015161ffff908116620100000263ffffffff1990961692169190911793909317909255604080830151600b850155910151600c830155830151909150610e8790600e8301906018612441565b50610eb96040518060400160405280601081526020016f4d696772617465642066726f6d20563160801b815250611d8b565b6040517fe0551aa959c554328fc6360bc1cabcb750605f1513a7070d506eaed027066dbf90600090a15050565b6000610ef0610518565b5460ff16919050565b600080610f04610518565b6001600160a01b03938416600090815260279091016020526040902054909216151592915050565b600080610f37610518565b905060008160010160009054906101000a90046001600160a01b03166001600160a01b03166318160ddd6040518163ffffffff1660e01b8152600401602060405180830381865afa158015610f90573d6000803e3d6000fd5b505050506040513d601f19601f82011682018060405250810190610fb4919061282b565b90506000610fc061074c565b9050811580610fcd575080155b15610fdc576000935050505090565b81610fef82670de0b6b3a764000061288c565b610dd691906128b9565b6000611003610518565b60040154600160a01b900463ffffffff16919050565b6000611023610518565b60010160009054906101000a90046001600160a01b03166001600160a01b031663566826d16040518163ffffffff1660e01b8152600401602060405180830381865afa158015611077573d6000803e3d6000fd5b505050506040513d601f19601f8201168201806040525081019061109b91906129c0565b905090565b606060006110ac610518565b600981015490915067ffffffffffffffff8111156110cc576110cc6125a2565b60405190808252806020026020018201604052801561113157816020015b61111e604051806080016040528060006001600160a01b031681526020016000815260200160008152602001600081525090565b8152602001906001900390816110ea5790505b5091506000808260090180548060200260200160405190810160405280929190818152602001828054801561118f57602002820191906000526020600020905b81546001600160a01b03168152600190910190602001808311611171575b5050505050905060005b815181101561128d5760008282815181106111b6576111b66127fc565b6020908102919091018101516001600160a01b03811660009081526027880190925260408220909250906111e982611ad3565b90506000806111fb8986856000611c45565b915091506040518060800160405280866001600160a01b0316815260200182815260200183815260200168327cb2734119d3b7a9601e1b620f424086611241919061288c565b61124b91906128b9565b8152508a8981518110611260576112606127fc565b60200260200101819052508761127590612812565b975050505050508061128690612812565b9050611199565b5050505090565b60008061129f610518565b905060006112ab610f2c565b9050620f42406112c768327cb2734119d3b7a9601e1b8361288c565b6112d191906128b9565b905060006112de866115b5565b6001600160a01b038716600090815260268501602052604081205491925060ff909116908261130e83600a6129b1565b611318908661288c565b61132291906128b9565b9050670de0b6b3a7640000610d4b828961288c565b6000611341610518565b60060154905090565b6000611354610518565b805490915061010090046001600160a01b031633146113855760405162461bcd60e51b81526004016101f8906127ad565b600061138f610518565b805460ff191660011790555050565b60006113a8610518565b60028101549091506001600160a01b031633146113d75760405162461bcd60e51b81526004016101f8906127ad565b60405163f7406fc360e01b8152600090309063f7406fc3906113ff9087908790600401612844565b602060405180830381865afa15801561141c573d6000803e3d6000fd5b505050506040513d601f19601f82011682018060405250810190611440919061282b565b90506000306001600160a01b03166341b5774a6040518163ffffffff1660e01b8152600401602060405180830381865afa158015611482573d6000803e3d6000fd5b505050506040513d601f19601f820116820180604052508101906114a6919061282b565b90506114b182611dd1565b6000816114c684670de0b6b3a764000061288c565b6114d091906128b9565b60018501546040516340c10f1960e01b81529192506001600160a01b0316906340c10f1990611505908a908590600401612844565b600060405180830381600087803b15801561151f57600080fd5b505af1158015611533573d6000803e3d6000fd5b50505050306001600160a01b03166319ed21bd6040518163ffffffff1660e01b8152600401602060405180830381865afa158015611575573d6000803e3d6000fd5b505050506040513d601f19601f82011682018060405250810190610ba991906129e6565b60006115a3610518565b600201546001600160a01b0316919050565b6000806115c0610518565b6001600160a01b0380851660009081526027830160205260409020805492935091166115fe5760405162461bcd60e51b81526004016101f89061285d565b61160781611ad3565b949350505050565b6000611619610518565b600101546001600160a01b0316919050565b306001600160a01b03166319ed21bd6040518163ffffffff1660e01b8152600401602060405180830381865afa158015611669573d6000803e3d6000fd5b505050506040513d601f19601f8201168201806040525081019061168d91906129e6565b6116ce5760405162461bcd60e51b815260206004820152601260248201527110d85b9b9bdd081b5a59dc985d19481e595d60721b60448201526064016101f8565b60006116d8610518565b6004810154815460ff191660011782559091506001600160a01b03166009820160005b815481101561183d576000828281548110611718576117186127fc565b6000918252602090912001546040516370a0823160e01b81526001600160a01b03909116906370a082319061175190309060040161249f565b602060405180830381865afa15801561176e573d6000803e3d6000fd5b505050506040513d601f19601f82011682018060405250810190611792919061282b565b9050801561182c578282815481106117ac576117ac6127fc565b60009182526020909120015460405163a9059cbb60e01b81526001600160a01b039091169063a9059cbb906117e79087908590600401612844565b6020604051808303816000875af1158015611806573d6000803e3d6000fd5b505050506040513d601f19601f8201168201806040525081019061182a91906129e6565b505b5061183681612812565b90506116fb565b5060018301546040516348af6b1560e01b81526001600160a01b03909116906348af6b159061187090859060040161249f565b600060405180830381600087803b15801561188a57600080fd5b505af115801561189e573d6000803e3d6000fd5b505050600284015460405163d8544cf360e01b81526001600160a01b03909116915063d8544cf3906118d490859060040161249f565b600060405180830381600087803b1580156118ee57600080fd5b505af1158015611902573d6000803e3d6000fd5b505060408051608081018252600687015481526007870154602082015281516103008101808452600095509193509183019190600e88019060189082845b81548152602001906001019080831161194057505050918352505060408051608081018252600a88015461ffff80821683526201000090910416602082810191909152600b89015482840152600c89015460608301529092019190915251632c326f2760e11b81529091506001600160a01b03841690635864de4e906119ca908490600401612a03565b600060405180830381600087803b1580156119e457600080fd5b505af11580156119f8573d6000803e3d6000fd5b50506040516001600160a01b03861692507ffce0ac0494aee28941f2c55af2e1b069a1c8c96bce836f3fd7d9404ed662a9dc9150600090a2826001600160a01b038116ff5b600080611a48610518565b6001600160a01b03851660009081526027820160205260408120919250611a6e82611ad3565b90506000611a7e84888489611c45565b50979650505050505050565b611acf8282604051602401611aa0929190612acd565b60408051601f198184030181529190526020810180516001600160e01b0316632d839cb360e21b179052611ef2565b5050565b60008060008360000160009054906101000a90046001600160a01b03166001600160a01b031663feaf968c6040518163ffffffff1660e01b815260040160a060405180830381865afa158015611b2d573d6000803e3d6000fd5b505050506040513d601f19601f82011682018060405250810190611b519190612b09565b5093505092505060008213611ba25760405162461bcd60e51b81526020600482015260176024820152764e6f207072696365206461746120617661696c61626c6560481b60448201526064016101f8565b6000611bb2620151806002612b59565b611bc19062ffffff1642612b80565b9050808211611c055760405162461bcd60e51b815260206004820152601060248201526f5374616c65207072696365206461746160801b60448201526064016101f8565b8454611c1c90600160a01b900460ff16600a6129b1565b611c3268327cb2734119d3b7a9601e1b8561288c565b611c3c91906128b9565b95945050505050565b600081808203611cbf576040516370a0823160e01b81526001600160a01b038616906370a0823190611c7b90309060040161249f565b602060405180830381865afa158015611c98573d6000803e3d6000fd5b505050506040513d601f19601f82011682018060405250810190611cbc919061282b565b90505b620f4240611ccd858361288c565b611cd7919061288c565b6001600160a01b038616600090815260268801602052604090205490925068327cb2734119d3b7a9601e1b90611d119060ff16600a6129b1565b611d1b919061288c565b611d2590836128b9565b915094509492505050565b611d868363a9059cbb60e01b8484604051602401611d4f929190612844565b60408051601f198184030181529190526020810180516001600160e01b03166001600160e01b031990931692909217909152611f13565b505050565b611dce81604051602401611d9f9190612b93565b60408051601f198184030181529190526020810180516001600160e01b031663104c13eb60e21b179052611ef2565b50565b6000611ddb610518565b60078101805442909155909150828115801590611e045750611e006201518042612b80565b8211155b15611e1c57611e17600e8401600061247f565b611ecd565b6000610e10611e2e6201518042612ba6565b611e3891906128b9565b90506000601860018301069050600085600e018260188110611e5c57611e5c6127fc565b01549050600086600e018360188110611e7757611e776127fc565b015586600e87018460188110611e8f57611e8f6127fc565b016000828254611e9f91906127e9565b90915550506006860154611eb49088906127e9565b93508015611ec957611ec68185612b80565b93505b5050505b60068301819055611eec83611ee764e8d4a51000846128b9565b611fe5565b50505050565b80516a636f6e736f6c652e6c6f67602083016000808483855afa5050505050565b6000611f68826040518060400160405280602081526020017f5361666545524332303a206c6f772d6c6576656c2063616c6c206661696c6564815250856001600160a01b031661204f9092919063ffffffff16565b805190915015611d865780806020019051810190611f8691906129e6565b611d865760405162461bcd60e51b815260206004820152602a60248201527f5361666545524332303a204552433230206f7065726174696f6e20646964206e6044820152691bdd081cdd58d8d9595960b21b60648201526084016101f8565b60408051608081018252600a84015461ffff808216835262010000909104811660208301819052600b86015493830193909352600c850154606083015290919083161061203657611d86838361205e565b805161ffff808416911610611d8657611d868383612184565b60606116078484600085612298565b60408051608081018252600a84015461ffff808216835262010000909104166020820152600b84015491810191909152600c83015460608201525b6120a38183612373565b61212f57600083600d01826060015160016120be91906127e9565b815481106120ce576120ce6127fc565b9060005260206000209060030201905080600101546000036120f0575061212f565b60408051608081018252825461ffff80821683526201000090910416602082015260018301549181019190915260029091015460608201529050612099565b6040810151600b84015414611d86578051600a84018054602084015161ffff908116620100000263ffffffff199092169316929092179190911790556040810151600b8401556060810151600c840155505050565b60408051608081018252600a84015461ffff808216835262010000909104166020820152600b84015491810191909152600c83015460608201525b6121c98183612373565b6122515760608101511561225157600083600d01600183606001516121ee9190612b80565b815481106121fe576121fe6127fc565b6000918252602091829020604080516080810182526003909302909101805461ffff8082168552620100009091041693830193909352600183015490820152600290910154606082015291506121bf9050565b8051600a84018054602084015161ffff908116620100000263ffffffff199092169316929092179190911790556040810151600b84015560600151600c9092019190915550565b6060824710156122f95760405162461bcd60e51b815260206004820152602660248201527f416464726573733a20696e73756666696369656e742062616c616e636520666f6044820152651c8818d85b1b60d21b60648201526084016101f8565b600080866001600160a01b031685876040516123159190612bba565b60006040518083038185875af1925050503d8060008114612352576040519150601f19603f3d011682016040523d82523d6000602084013e612357565b606091505b5091509150612368878383876123a3565b979650505050505050565b60008161ffff16836000015161ffff161115801561239c5750826020015161ffff168261ffff16105b9392505050565b6060831561241257825160000361240b576001600160a01b0385163b61240b5760405162461bcd60e51b815260206004820152601d60248201527f416464726573733a2063616c6c20746f206e6f6e2d636f6e747261637400000060448201526064016101f8565b5081611607565b61160783838151156124275781518083602001fd5b8060405162461bcd60e51b81526004016101f89190612b93565b826018810192821561246f579160200282015b8281111561246f578251825591602001919060010190612454565b5061247b92915061248a565b5090565b50611dce9060188101905b5b8082111561247b576000815560010161248b565b6001600160a01b0391909116815260200190565b6001600160a01b0381168114611dce57600080fd5b6000602082840312156124da57600080fd5b813561239c816124b3565b600080604083850312156124f857600080fd5b8235612503816124b3565b91506020830135612513816124b3565b809150509250929050565b8015158114611dce57600080fd5b6000806000806080858703121561254257600080fd5b843561254d816124b3565b93506020850135925060408501359150606085013561256b8161251e565b939692955090935050565b6000806040838503121561258957600080fd5b8235612594816124b3565b946020939093013593505050565b634e487b7160e01b600052604160045260246000fd5b6040516080810167ffffffffffffffff811182821017156125db576125db6125a2565b60405290565b604051610300810167ffffffffffffffff811182821017156125db576125db6125a2565b803561ffff8116811461261757600080fd5b919050565b60006080828403121561262e57600080fd5b6126366125b8565b905061264182612605565b815261264f60208301612605565b6020820152604082013560408201526060820135606082015292915050565b60006103c0828403121561268157600080fd5b6126896125b8565b823581526020808401358183015284605f8501126126a657600080fd5b6126ae6125e1565b806103408601878111156126c157600080fd5b604087015b818110156126dd57803584529284019284016126c6565b508160408601526126ee888261261c565b606086015250929695505050505050565b602080825282518282018190526000919060409081850190868401855b8281101561275f57815180516001600160a01b0316855286810151878601528581015186860152606090810151908501526080909301929085019060010161271c565b5091979650505050505050565b60008060006060848603121561278157600080fd5b833561278c816124b3565b9250602084013561279c816124b3565b929592945050506040919091013590565b6020808252600c908201526b155b985d5d1a1bdc9a5e995960a21b604082015260600190565b634e487b7160e01b600052601160045260246000fd5b80820180821115610d5d57610d5d6127d3565b634e487b7160e01b600052603260045260246000fd5b600060018201612824576128246127d3565b5060010190565b60006020828403121561283d57600080fd5b5051919050565b6001600160a01b03929092168252602082015260400190565b6020808252601590820152742ab739bab83837b93a32b2103332b2903a37b5b2b760591b604082015260600190565b8082028115828204841417610d5d57610d5d6127d3565b634e487b7160e01b600052601260045260246000fd5b6000826128c8576128c86128a3565b500490565b600181815b808511156129085781600019048211156128ee576128ee6127d3565b808516156128fb57918102915b93841c93908002906128d2565b509250929050565b60008261291f57506001610d5d565b8161292c57506000610d5d565b8160018114612942576002811461294c57612968565b6001915050610d5d565b60ff84111561295d5761295d6127d3565b50506001821b610d5d565b5060208310610133831016604e8410600b841016171561298b575081810a610d5d565b61299583836128cd565b80600019048211156129a9576129a96127d3565b029392505050565b600061239c60ff841683612910565b6000602082840312156129d257600080fd5b815163ffffffff8116811461239c57600080fd5b6000602082840312156129f857600080fd5b815161239c8161251e565b81518152602080830151818301526040808401516103c084019291840160005b6018811015612a4057825182529183019190830190600101612a23565b505050606093840151805161ffff908116610340860152918101519091166103608401526040810151610380840152909201516103a09091015290565b60005b83811015612a98578181015183820152602001612a80565b50506000910152565b60008151808452612ab9816020860160208601612a7d565b601f01601f19169290920160200192915050565b604081526000612ae06040830185612aa1565b90508260208301529392505050565b805169ffffffffffffffffffff8116811461261757600080fd5b600080600080600060a08688031215612b2157600080fd5b612b2a86612aef565b9450602086015193506040860151925060608601519150612b4d60808701612aef565b90509295509295909350565b62ffffff818116838216028082169190828114612b7857612b786127d3565b505092915050565b81810381811115610d5d57610d5d6127d3565b60208152600061239c6020830184612aa1565b600082612bb557612bb56128a3565b500690565b60008251612bcc818460208701612a7d565b919091019291505056fea2646970667358221220c5da0bc9555c3cc755442e5b5b9d2174fc5b4eb6f0ed7cbdf98e420b46c7fcc064736f6c63430008110033",
  "linkReferences": {},
  "deployedLinkReferences": {}
}