{
  "_format": "hh-sol-artifact-1",
  "contractName": "MockMigration",
  "sourceName": "contracts/vault/mock/MockMigration.sol",
  "abi": [
    {
      "anonymous": false,
      "inputs": [],
      "name": "Migrated",
      "type": "event"
    },
    {
      "inputs": [
        {
          "components": [
            {
              "internalType": "uint256",
              "name": "currentVolume",
              "type": "uint256"
            },
            {
              "internalType": "uint256",
              "name": "lastTradeTimestamp",
              "type": "uint256"
            },
            {
              "internalType": "uint256[24]",
              "name": "hourlyVolume",
              "type": "uint256[24]"
            },
            {
              "components": [
                {
                  "internalType": "uint16",
                  "name": "minMMVolume",
                  "type": "uint16"
                },
                {
                  "internalType": "uint16",
                  "name": "maxMMVolume",
                  "type": "uint16"
                },
                {
                  "internalType": "uint256",
                  "name": "rate",
                  "type": "uint256"
                },
                {
                  "internalType": "uint256",
                  "name": "index",
                  "type": "uint256"
                }
              ],
              "internalType": "struct VaultStorage.MintRateRange",
              "name": "currentMintRate",
              "type": "tuple"
            }
          ],
          "internalType": "struct VaultStorage.VaultMigrationV1",
          "name": "data",
          "type": "tuple"
        }
      ],
      "name": "migrationFromV1",
      "outputs": [],
      "stateMutability": "nonpayable",
      "type": "function"
    }
  ],
  "bytecode": "0x608060405234801561001057600080fd5b506102ea806100206000396000f3fe608060405234801561001057600080fd5b506004361061002b5760003560e01c80635864de4e14610030575b600080fd5b61004361003e3660046101d5565b610045565b005b6100766040518060400160405280601081526020016f4d696772617465642066726f6d20563160801b8152506100a2565b6040517fe0551aa959c554328fc6360bc1cabcb750605f1513a7070d506eaed027066dbf90600090a150565b6100e5816040516024016100b69190610266565b60408051601f198184030181529190526020810180516001600160e01b031663104c13eb60e21b1790526100e8565b50565b80516a636f6e736f6c652e6c6f67602083016000808483855afa5050505050565b634e487b7160e01b600052604160045260246000fd5b6040516080810167ffffffffffffffff8111828210171561014257610142610109565b60405290565b604051610300810167ffffffffffffffff8111828210171561014257610142610109565b803561ffff8116811461017e57600080fd5b919050565b60006080828403121561019557600080fd5b61019d61011f565b90506101a88261016c565b81526101b66020830161016c565b6020820152604082013560408201526060820135606082015292915050565b60006103c082840312156101e857600080fd5b6101f061011f565b823581526020808401358183015284605f85011261020d57600080fd5b610215610148565b8061034086018781111561022857600080fd5b604087015b81811015610244578035845292840192840161022d565b508160408601526102558882610183565b606086015250929695505050505050565b600060208083528351808285015260005b8181101561029357858101830151858201604001528201610277565b506000604082860101526040601f19601f830116850101925050509291505056fea2646970667358221220f650486dbf6049809e48e9f187744615c7871b4612f96b8f2fd8536536885a9a64736f6c63430008110033",
  "linkReferences": {},
  "deployedLinkReferences": {}
}